{
  "_format": "hh-sol-artifact-1",
  "contractName": "BookNFT",
  "sourceName": "contracts/BookNFT.sol",
  "abi": [
    {
      "inputs": [],
      "stateMutability": "nonpayable",
      "type": "constructor"
    },
    {
      "inputs": [],
      "name": "AccessControlBadConfirmation",
      "type": "error"
    },
    {
      "inputs": [
        {
          "internalType": "address",
          "name": "account",
          "type": "address"
        },
        {
          "internalType": "bytes32",
          "name": "neededRole",
          "type": "bytes32"
        }
      ],
      "name": "AccessControlUnauthorizedAccount",
      "type": "error"
    },
    {
      "inputs": [],
      "name": "ERC721EnumerableForbiddenBatchMint",
      "type": "error"
    },
    {
      "inputs": [
        {
          "internalType": "address",
          "name": "sender",
          "type": "address"
        },
        {
          "internalType": "uint256",
          "name": "tokenId",
          "type": "uint256"
        },
        {
          "internalType": "address",
          "name": "owner",
          "type": "address"
        }
      ],
      "name": "ERC721IncorrectOwner",
      "type": "error"
    },
    {
      "inputs": [
        {
          "internalType": "address",
          "name": "operator",
          "type": "address"
        },
        {
          "internalType": "uint256",
          "name": "tokenId",
          "type": "uint256"
        }
      ],
      "name": "ERC721InsufficientApproval",
      "type": "error"
    },
    {
      "inputs": [
        {
          "internalType": "address",
          "name": "approver",
          "type": "address"
        }
      ],
      "name": "ERC721InvalidApprover",
      "type": "error"
    },
    {
      "inputs": [
        {
          "internalType": "address",
          "name": "operator",
          "type": "address"
        }
      ],
      "name": "ERC721InvalidOperator",
      "type": "error"
    },
    {
      "inputs": [
        {
          "internalType": "address",
          "name": "owner",
          "type": "address"
        }
      ],
      "name": "ERC721InvalidOwner",
      "type": "error"
    },
    {
      "inputs": [
        {
          "internalType": "address",
          "name": "receiver",
          "type": "address"
        }
      ],
      "name": "ERC721InvalidReceiver",
      "type": "error"
    },
    {
      "inputs": [
        {
          "internalType": "address",
          "name": "sender",
          "type": "address"
        }
      ],
      "name": "ERC721InvalidSender",
      "type": "error"
    },
    {
      "inputs": [
        {
          "internalType": "uint256",
          "name": "tokenId",
          "type": "uint256"
        }
      ],
      "name": "ERC721NonexistentToken",
      "type": "error"
    },
    {
      "inputs": [
        {
          "internalType": "address",
          "name": "owner",
          "type": "address"
        },
        {
          "internalType": "uint256",
          "name": "index",
          "type": "uint256"
        }
      ],
      "name": "ERC721OutOfBoundsIndex",
      "type": "error"
    },
    {
      "inputs": [],
      "name": "ErrEmptyName",
      "type": "error"
    },
    {
      "inputs": [],
      "name": "ErrInvalidSymbol",
      "type": "error"
    },
    {
      "inputs": [],
      "name": "ErrMaxSupplyZero",
      "type": "error"
    },
    {
      "inputs": [],
      "name": "ErrMemoMetadataLengthMismatch",
      "type": "error"
    },
    {
      "inputs": [],
      "name": "ErrNftNoSupply",
      "type": "error"
    },
    {
      "inputs": [],
      "name": "ErrSupplyDecrease",
      "type": "error"
    },
    {
      "inputs": [
        {
          "internalType": "uint256",
          "name": "nextTokenId",
          "type": "uint256"
        }
      ],
      "name": "ErrTokenIdMintFails",
      "type": "error"
    },
    {
      "inputs": [],
      "name": "ErrUnauthorized",
      "type": "error"
    },
    {
      "inputs": [],
      "name": "InvalidInitialization",
      "type": "error"
    },
    {
      "inputs": [],
      "name": "NotInitializing",
      "type": "error"
    },
    {
      "inputs": [
        {
          "internalType": "address",
          "name": "owner",
          "type": "address"
        }
      ],
      "name": "OwnableInvalidOwner",
      "type": "error"
    },
    {
      "inputs": [
        {
          "internalType": "address",
          "name": "account",
          "type": "address"
        }
      ],
      "name": "OwnableUnauthorizedAccount",
      "type": "error"
    },
    {
      "anonymous": false,
      "inputs": [
        {
          "indexed": false,
          "internalType": "address",
          "name": "previousAdmin",
          "type": "address"
        },
        {
          "indexed": false,
          "internalType": "address",
          "name": "newAdmin",
          "type": "address"
        }
      ],
      "name": "AdminChanged",
      "type": "event"
    },
    {
      "anonymous": false,
      "inputs": [
        {
          "indexed": true,
          "internalType": "address",
          "name": "owner",
          "type": "address"
        },
        {
          "indexed": true,
          "internalType": "address",
          "name": "approved",
          "type": "address"
        },
        {
          "indexed": true,
          "internalType": "uint256",
          "name": "tokenId",
          "type": "uint256"
        }
      ],
      "name": "Approval",
      "type": "event"
    },
    {
      "anonymous": false,
      "inputs": [
        {
          "indexed": true,
          "internalType": "address",
          "name": "owner",
          "type": "address"
        },
        {
          "indexed": true,
          "internalType": "address",
          "name": "operator",
          "type": "address"
        },
        {
          "indexed": false,
          "internalType": "bool",
          "name": "approved",
          "type": "bool"
        }
      ],
      "name": "ApprovalForAll",
      "type": "event"
    },
    {
      "anonymous": false,
      "inputs": [
        {
          "indexed": false,
          "internalType": "uint256",
          "name": "_fromTokenId",
          "type": "uint256"
        },
        {
          "indexed": false,
          "internalType": "uint256",
          "name": "_toTokenId",
          "type": "uint256"
        }
      ],
      "name": "BatchMetadataUpdate",
      "type": "event"
    },
    {
      "anonymous": false,
      "inputs": [
        {
          "indexed": true,
          "internalType": "address",
          "name": "beacon",
          "type": "address"
        }
      ],
      "name": "BeaconUpgraded",
      "type": "event"
    },
    {
      "anonymous": false,
      "inputs": [],
      "name": "ContractURIUpdated",
      "type": "event"
    },
    {
      "anonymous": false,
      "inputs": [
        {
          "indexed": false,
          "internalType": "uint64",
          "name": "version",
          "type": "uint64"
        }
      ],
      "name": "Initialized",
      "type": "event"
    },
    {
      "anonymous": false,
      "inputs": [
        {
          "indexed": false,
          "internalType": "uint256",
          "name": "_tokenId",
          "type": "uint256"
        }
      ],
      "name": "MetadataUpdate",
      "type": "event"
    },
    {
      "anonymous": false,
      "inputs": [
        {
          "indexed": true,
          "internalType": "address",
          "name": "previousOwner",
          "type": "address"
        },
        {
          "indexed": true,
          "internalType": "address",
          "name": "newOwner",
          "type": "address"
        }
      ],
      "name": "OwnershipTransferred",
      "type": "event"
    },
    {
      "anonymous": false,
      "inputs": [
        {
          "indexed": true,
          "internalType": "bytes32",
          "name": "role",
          "type": "bytes32"
        },
        {
          "indexed": true,
          "internalType": "bytes32",
          "name": "previousAdminRole",
          "type": "bytes32"
        },
        {
          "indexed": true,
          "internalType": "bytes32",
          "name": "newAdminRole",
          "type": "bytes32"
        }
      ],
      "name": "RoleAdminChanged",
      "type": "event"
    },
    {
      "anonymous": false,
      "inputs": [
        {
          "indexed": true,
          "internalType": "bytes32",
          "name": "role",
          "type": "bytes32"
        },
        {
          "indexed": true,
          "internalType": "address",
          "name": "account",
          "type": "address"
        },
        {
          "indexed": true,
          "internalType": "address",
          "name": "sender",
          "type": "address"
        }
      ],
      "name": "RoleGranted",
      "type": "event"
    },
    {
      "anonymous": false,
      "inputs": [
        {
          "indexed": true,
          "internalType": "bytes32",
          "name": "role",
          "type": "bytes32"
        },
        {
          "indexed": true,
          "internalType": "address",
          "name": "account",
          "type": "address"
        },
        {
          "indexed": true,
          "internalType": "address",
          "name": "sender",
          "type": "address"
        }
      ],
      "name": "RoleRevoked",
      "type": "event"
    },
    {
      "anonymous": false,
      "inputs": [
        {
          "indexed": true,
          "internalType": "address",
          "name": "from",
          "type": "address"
        },
        {
          "indexed": true,
          "internalType": "address",
          "name": "to",
          "type": "address"
        },
        {
          "indexed": true,
          "internalType": "uint256",
          "name": "tokenId",
          "type": "uint256"
        }
      ],
      "name": "Transfer",
      "type": "event"
    },
    {
      "anonymous": false,
      "inputs": [
        {
          "indexed": true,
          "internalType": "address",
          "name": "from",
          "type": "address"
        },
        {
          "indexed": true,
          "internalType": "address",
          "name": "to",
          "type": "address"
        },
        {
          "indexed": true,
          "internalType": "uint256",
          "name": "tokenId",
          "type": "uint256"
        },
        {
          "indexed": false,
          "internalType": "string",
          "name": "memo",
          "type": "string"
        }
      ],
      "name": "TransferWithMemo",
      "type": "event"
    },
    {
      "anonymous": false,
      "inputs": [
        {
          "indexed": true,
          "internalType": "address",
          "name": "implementation",
          "type": "address"
        }
      ],
      "name": "Upgraded",
      "type": "event"
    },
    {
      "inputs": [],
      "name": "DEFAULT_ADMIN_ROLE",
      "outputs": [
        {
          "internalType": "bytes32",
          "name": "",
          "type": "bytes32"
        }
      ],
      "stateMutability": "view",
      "type": "function"
    },
    {
      "inputs": [],
      "name": "MINTER_ROLE",
      "outputs": [
        {
          "internalType": "bytes32",
          "name": "",
          "type": "bytes32"
        }
      ],
      "stateMutability": "view",
      "type": "function"
    },
    {
      "inputs": [],
      "name": "UPDATER_ROLE",
      "outputs": [
        {
          "internalType": "bytes32",
          "name": "",
          "type": "bytes32"
        }
      ],
      "stateMutability": "view",
      "type": "function"
    },
    {
      "inputs": [
        {
          "internalType": "address",
          "name": "to",
          "type": "address"
        },
        {
          "internalType": "uint256",
          "name": "tokenId",
          "type": "uint256"
        }
      ],
      "name": "approve",
      "outputs": [],
      "stateMutability": "nonpayable",
      "type": "function"
    },
    {
      "inputs": [
        {
          "internalType": "address",
          "name": "owner",
          "type": "address"
        }
      ],
      "name": "balanceOf",
      "outputs": [
        {
          "internalType": "uint256",
          "name": "",
          "type": "uint256"
        }
      ],
      "stateMutability": "view",
      "type": "function"
    },
    {
      "inputs": [
        {
          "internalType": "address[]",
          "name": "tos",
          "type": "address[]"
        },
        {
          "internalType": "string[]",
          "name": "memos",
          "type": "string[]"
        },
        {
          "internalType": "string[]",
          "name": "metadataList",
          "type": "string[]"
        }
      ],
      "name": "batchMint",
      "outputs": [],
      "stateMutability": "nonpayable",
      "type": "function"
    },
    {
      "inputs": [
        {
          "internalType": "address",
          "name": "from",
          "type": "address"
        },
        {
          "internalType": "address[]",
          "name": "tos",
          "type": "address[]"
        },
        {
          "internalType": "uint256[]",
          "name": "tokenIds",
          "type": "uint256[]"
        },
        {
          "internalType": "string[]",
          "name": "memos",
          "type": "string[]"
        }
      ],
      "name": "batchTransferWithMemo",
      "outputs": [],
      "stateMutability": "nonpayable",
      "type": "function"
    },
    {
      "inputs": [
        {
          "internalType": "uint256",
          "name": "tokenId",
          "type": "uint256"
        }
      ],
      "name": "burn",
      "outputs": [],
      "stateMutability": "nonpayable",
      "type": "function"
    },
    {
      "inputs": [],
      "name": "contractURI",
      "outputs": [
        {
          "internalType": "string",
          "name": "",
          "type": "string"
        }
      ],
      "stateMutability": "view",
      "type": "function"
    },
    {
      "inputs": [
        {
          "internalType": "uint256",
          "name": "tokenId",
          "type": "uint256"
        }
      ],
      "name": "getApproved",
      "outputs": [
        {
          "internalType": "address",
          "name": "",
          "type": "address"
        }
      ],
      "stateMutability": "view",
      "type": "function"
    },
    {
      "inputs": [],
      "name": "getBookConfig",
      "outputs": [
        {
          "components": [
            {
              "internalType": "string",
              "name": "name",
              "type": "string"
            },
            {
              "internalType": "string",
              "name": "symbol",
              "type": "string"
            },
            {
              "internalType": "string",
              "name": "metadata",
              "type": "string"
            },
            {
              "internalType": "uint64",
              "name": "max_supply",
              "type": "uint64"
            }
          ],
          "internalType": "struct BookConfig",
          "name": "",
          "type": "tuple"
        }
      ],
      "stateMutability": "view",
      "type": "function"
    },
    {
      "inputs": [],
      "name": "getCurrentIndex",
      "outputs": [
        {
          "internalType": "uint256",
          "name": "",
          "type": "uint256"
        }
      ],
      "stateMutability": "view",
      "type": "function"
    },
    {
      "inputs": [],
      "name": "getProtocolBeacon",
      "outputs": [
        {
          "internalType": "address",
          "name": "",
          "type": "address"
        }
      ],
      "stateMutability": "view",
      "type": "function"
    },
    {
      "inputs": [
        {
          "internalType": "bytes32",
          "name": "role",
          "type": "bytes32"
        }
      ],
      "name": "getRoleAdmin",
      "outputs": [
        {
          "internalType": "bytes32",
          "name": "",
          "type": "bytes32"
        }
      ],
      "stateMutability": "view",
      "type": "function"
    },
    {
      "inputs": [
        {
          "internalType": "bytes32",
          "name": "role",
          "type": "bytes32"
        },
        {
          "internalType": "address",
          "name": "account",
          "type": "address"
        }
      ],
      "name": "grantRole",
      "outputs": [],
      "stateMutability": "nonpayable",
      "type": "function"
    },
    {
      "inputs": [
        {
          "internalType": "bytes32",
          "name": "role",
          "type": "bytes32"
        },
        {
          "internalType": "address",
          "name": "account",
          "type": "address"
        }
      ],
      "name": "hasRole",
      "outputs": [
        {
          "internalType": "bool",
          "name": "",
          "type": "bool"
        }
      ],
      "stateMutability": "view",
      "type": "function"
    },
    {
      "inputs": [
        {
          "internalType": "address",
          "name": "creator",
          "type": "address"
        },
        {
          "internalType": "address[]",
          "name": "minters",
          "type": "address[]"
        },
        {
          "internalType": "address[]",
          "name": "updaters",
          "type": "address[]"
        },
        {
          "components": [
            {
              "internalType": "string",
              "name": "name",
              "type": "string"
            },
            {
              "internalType": "string",
              "name": "symbol",
              "type": "string"
            },
            {
              "internalType": "string",
              "name": "metadata",
              "type": "string"
            },
            {
              "internalType": "uint64",
              "name": "max_supply",
              "type": "uint64"
            }
          ],
          "internalType": "struct BookConfig",
          "name": "config",
          "type": "tuple"
        }
      ],
      "name": "initConfig",
      "outputs": [],
      "stateMutability": "nonpayable",
      "type": "function"
    },
    {
      "inputs": [
        {
          "internalType": "string",
          "name": "name_",
          "type": "string"
        },
        {
          "internalType": "string",
          "name": "symbol_",
          "type": "string"
        }
      ],
      "name": "initialize",
      "outputs": [],
      "stateMutability": "nonpayable",
      "type": "function"
    },
    {
      "inputs": [
        {
          "internalType": "address",
          "name": "owner",
          "type": "address"
        },
        {
          "internalType": "address",
          "name": "operator",
          "type": "address"
        }
      ],
      "name": "isApprovedForAll",
      "outputs": [
        {
          "internalType": "bool",
          "name": "",
          "type": "bool"
        }
      ],
      "stateMutability": "view",
      "type": "function"
    },
    {
      "inputs": [],
      "name": "maxSupply",
      "outputs": [
        {
          "internalType": "uint64",
          "name": "",
          "type": "uint64"
        }
      ],
      "stateMutability": "view",
      "type": "function"
    },
    {
      "inputs": [
        {
          "internalType": "address",
          "name": "to",
          "type": "address"
        },
        {
          "internalType": "string[]",
          "name": "memos",
          "type": "string[]"
        },
        {
          "internalType": "string[]",
          "name": "metadataList",
          "type": "string[]"
        }
      ],
      "name": "mint",
      "outputs": [],
      "stateMutability": "nonpayable",
      "type": "function"
    },
    {
      "inputs": [],
      "name": "name",
      "outputs": [
        {
          "internalType": "string",
          "name": "",
          "type": "string"
        }
      ],
      "stateMutability": "view",
      "type": "function"
    },
    {
      "inputs": [],
      "name": "owner",
      "outputs": [
        {
          "internalType": "address",
          "name": "",
          "type": "address"
        }
      ],
      "stateMutability": "view",
      "type": "function"
    },
    {
      "inputs": [
        {
          "internalType": "bytes32",
          "name": "role",
          "type": "bytes32"
        },
        {
          "internalType": "address",
          "name": "account",
          "type": "address"
        }
      ],
      "name": "ownerGrantRole",
      "outputs": [],
      "stateMutability": "nonpayable",
      "type": "function"
    },
    {
      "inputs": [
        {
          "internalType": "uint256",
          "name": "tokenId",
          "type": "uint256"
        }
      ],
      "name": "ownerOf",
      "outputs": [
        {
          "internalType": "address",
          "name": "",
          "type": "address"
        }
      ],
      "stateMutability": "view",
      "type": "function"
    },
    {
      "inputs": [
        {
          "internalType": "bytes32",
          "name": "role",
          "type": "bytes32"
        },
        {
          "internalType": "address",
          "name": "account",
          "type": "address"
        }
      ],
      "name": "ownerRevokeRole",
      "outputs": [],
      "stateMutability": "nonpayable",
      "type": "function"
    },
    {
      "inputs": [],
      "name": "renounceOwnership",
      "outputs": [],
      "stateMutability": "nonpayable",
      "type": "function"
    },
    {
      "inputs": [
        {
          "internalType": "bytes32",
          "name": "role",
          "type": "bytes32"
        },
        {
          "internalType": "address",
          "name": "callerConfirmation",
          "type": "address"
        }
      ],
      "name": "renounceRole",
      "outputs": [],
      "stateMutability": "nonpayable",
      "type": "function"
    },
    {
      "inputs": [
        {
          "internalType": "bytes32",
          "name": "role",
          "type": "bytes32"
        },
        {
          "internalType": "address",
          "name": "account",
          "type": "address"
        }
      ],
      "name": "revokeRole",
      "outputs": [],
      "stateMutability": "nonpayable",
      "type": "function"
    },
    {
      "inputs": [
        {
          "internalType": "uint256",
          "name": "",
          "type": "uint256"
        },
        {
          "internalType": "uint256",
          "name": "salePrice",
          "type": "uint256"
        }
      ],
      "name": "royaltyInfo",
      "outputs": [
        {
          "internalType": "address",
          "name": "receiver",
          "type": "address"
        },
        {
          "internalType": "uint256",
          "name": "royaltyAmount",
          "type": "uint256"
        }
      ],
      "stateMutability": "view",
      "type": "function"
    },
    {
      "inputs": [
        {
          "internalType": "uint256",
          "name": "fromTokenId",
          "type": "uint256"
        },
        {
          "internalType": "address[]",
          "name": "tos",
          "type": "address[]"
        },
        {
          "internalType": "string[]",
          "name": "memos",
          "type": "string[]"
        },
        {
          "internalType": "string[]",
          "name": "metadataList",
          "type": "string[]"
        }
      ],
      "name": "safeMintWithTokenId",
      "outputs": [],
      "stateMutability": "nonpayable",
      "type": "function"
    },
    {
      "inputs": [
        {
          "internalType": "address",
          "name": "from",
          "type": "address"
        },
        {
          "internalType": "address",
          "name": "to",
          "type": "address"
        },
        {
          "internalType": "uint256",
          "name": "tokenId",
          "type": "uint256"
        }
      ],
      "name": "safeTransferFrom",
      "outputs": [],
      "stateMutability": "nonpayable",
      "type": "function"
    },
    {
      "inputs": [
        {
          "internalType": "address",
          "name": "from",
          "type": "address"
        },
        {
          "internalType": "address",
          "name": "to",
          "type": "address"
        },
        {
          "internalType": "uint256",
          "name": "tokenId",
          "type": "uint256"
        },
        {
          "internalType": "bytes",
          "name": "data",
          "type": "bytes"
        }
      ],
      "name": "safeTransferFrom",
      "outputs": [],
      "stateMutability": "nonpayable",
      "type": "function"
    },
    {
      "inputs": [
        {
          "internalType": "address",
          "name": "operator",
          "type": "address"
        },
        {
          "internalType": "bool",
          "name": "approved",
          "type": "bool"
        }
      ],
      "name": "setApprovalForAll",
      "outputs": [],
      "stateMutability": "nonpayable",
      "type": "function"
    },
    {
      "inputs": [
        {
          "internalType": "uint96",
          "name": "royaltyFraction",
          "type": "uint96"
        }
      ],
      "name": "setRoyaltyFraction",
      "outputs": [],
      "stateMutability": "nonpayable",
      "type": "function"
    },
    {
      "inputs": [
        {
          "internalType": "bytes4",
          "name": "interfaceId",
          "type": "bytes4"
        }
      ],
      "name": "supportsInterface",
      "outputs": [
        {
          "internalType": "bool",
          "name": "",
          "type": "bool"
        }
      ],
      "stateMutability": "view",
      "type": "function"
    },
    {
      "inputs": [],
      "name": "symbol",
      "outputs": [
        {
          "internalType": "string",
          "name": "",
          "type": "string"
        }
      ],
      "stateMutability": "view",
      "type": "function"
    },
    {
      "inputs": [
        {
          "internalType": "uint256",
          "name": "index",
          "type": "uint256"
        }
      ],
      "name": "tokenByIndex",
      "outputs": [
        {
          "internalType": "uint256",
          "name": "",
          "type": "uint256"
        }
      ],
      "stateMutability": "view",
      "type": "function"
    },
    {
      "inputs": [
        {
          "internalType": "address",
          "name": "owner",
          "type": "address"
        },
        {
          "internalType": "uint256",
          "name": "index",
          "type": "uint256"
        }
      ],
      "name": "tokenOfOwnerByIndex",
      "outputs": [
        {
          "internalType": "uint256",
          "name": "",
          "type": "uint256"
        }
      ],
      "stateMutability": "view",
      "type": "function"
    },
    {
      "inputs": [
        {
          "internalType": "uint256",
          "name": "_tokenId",
          "type": "uint256"
        }
      ],
      "name": "tokenURI",
      "outputs": [
        {
          "internalType": "string",
          "name": "",
          "type": "string"
        }
      ],
      "stateMutability": "view",
      "type": "function"
    },
    {
      "inputs": [],
      "name": "totalSupply",
      "outputs": [
        {
          "internalType": "uint256",
          "name": "",
          "type": "uint256"
        }
      ],
      "stateMutability": "view",
      "type": "function"
    },
    {
      "inputs": [
        {
          "internalType": "address",
          "name": "from",
          "type": "address"
        },
        {
          "internalType": "address",
          "name": "to",
          "type": "address"
        },
        {
          "internalType": "uint256",
          "name": "tokenId",
          "type": "uint256"
        }
      ],
      "name": "transferFrom",
      "outputs": [],
      "stateMutability": "nonpayable",
      "type": "function"
    },
    {
      "inputs": [
        {
          "internalType": "address",
          "name": "newOwner",
          "type": "address"
        }
      ],
      "name": "transferOwnership",
      "outputs": [],
      "stateMutability": "nonpayable",
      "type": "function"
    },
    {
      "inputs": [
        {
          "internalType": "address",
          "name": "from",
          "type": "address"
        },
        {
          "internalType": "address",
          "name": "to",
          "type": "address"
        },
        {
          "internalType": "uint256",
          "name": "_tokenId",
          "type": "uint256"
        },
        {
          "internalType": "string",
          "name": "memo",
          "type": "string"
        }
      ],
      "name": "transferWithMemo",
      "outputs": [],
      "stateMutability": "nonpayable",
      "type": "function"
    },
    {
      "inputs": [
        {
          "components": [
            {
              "internalType": "string",
              "name": "name",
              "type": "string"
            },
            {
              "internalType": "string",
              "name": "symbol",
              "type": "string"
            },
            {
              "internalType": "string",
              "name": "metadata",
              "type": "string"
            },
            {
              "internalType": "uint64",
              "name": "max_supply",
              "type": "uint64"
            }
          ],
          "internalType": "struct BookConfig",
          "name": "config",
          "type": "tuple"
        }
      ],
      "name": "update",
      "outputs": [],
      "stateMutability": "nonpayable",
      "type": "function"
    },
    {
      "inputs": [
        {
          "internalType": "uint256",
          "name": "tokenId",
          "type": "uint256"
        },
        {
          "internalType": "string",
          "name": "metadata",
          "type": "string"
        }
      ],
      "name": "updateTokenMetadata",
      "outputs": [],
      "stateMutability": "nonpayable",
      "type": "function"
    }
  ],
  "bytecode": "0x608060405234801561001057600080fd5b5061001f61002460201b60201c565b6101ab565b600061003461012860201b60201c565b90508060000160089054906101000a900460ff161561007f576040517ff92ee8a900000000000000000000000000000000000000000000000000000000815260040160405180910390fd5b67ffffffffffffffff80168160000160009054906101000a900467ffffffffffffffff1667ffffffffffffffff16146101255767ffffffffffffffff8160000160006101000a81548167ffffffffffffffff021916908367ffffffffffffffff1602179055507fc7f505b2f371ae2175ee4913f4499e1f2633a7b5936321eed1cdaeb6115181d267ffffffffffffffff60405161011c9190610190565b60405180910390a15b50565b60008061013961014260201b60201c565b90508091505090565b60007ff0c57e16840df040f15088dc2f81fe391c3923bec73e23a9662efc9c229c6a0060001b905090565b600067ffffffffffffffff82169050919050565b61018a8161016d565b82525050565b60006020820190506101a56000830184610181565b92915050565b615dd0806101ba6000396000f3fe608060405234801561001057600080fd5b506004361061028a5760003560e01c8063715018a61161015c578063c7c48e70116100ce578063db0b09b911610087578063db0b09b9146107b8578063dcb49c73146107d6578063e8a3d485146107f2578063e985e9c514610810578063f2fde38b14610840578063f570d1741461085c5761028a565b8063c7c48e70146106f8578063c87b56dd14610714578063d539139314610744578063d547741f14610762578063d5abeb011461077e578063dab45bbd1461079c5761028a565b8063a217fddf11610120578063a217fddf1461064e578063a22cb4651461066c578063a5210ff614610688578063a75c72bd146106a4578063b88d4fde146106c0578063bc09e593146106dc5761028a565b8063715018a6146105bc5780638da5cb5b146105c657806391106144146105e457806391d148541461060057806395d89b41146106305761028a565b80632b5880911161020057806342966c68116101b957806342966c68146104d657806347e63380146104f25780634cd88b76146105105780634f6ccce71461052c5780636352211e1461055c57806370a082311461058c5761028a565b80632b5880911461041a5780632cb2f52e146104365780632f2ff15d146104525780632f745c591461046e57806336568abe1461049e57806342842e0e146104ba5761028a565b80631251a888116102525780631251a8881461034757806318160ddd146103635780631e4cd0b41461038157806323b872dd1461039d578063248a9ca3146103b95780632a55205a146103e95761028a565b806301ffc9a71461028f57806306fdde03146102bf578063081812fc146102dd578063095ea7b31461030d5780630d9005ae14610329575b600080fd5b6102a960048036038101906102a49190614122565b61087a565b6040516102b6919061416a565b60405180910390f35b6102c7610943565b6040516102d49190614215565b60405180910390f35b6102f760048036038101906102f2919061426d565b6109e4565b60405161030491906142db565b60405180910390f35b61032760048036038101906103229190614322565b610a00565b005b610331610a16565b60405161033e9190614371565b60405180910390f35b610361600480360381019061035c91906143c2565b610a2e565b005b61036b610a45565b6040516103789190614371565b60405180910390f35b61039b60048036038101906103969190614715565b610a60565b005b6103b760048036038101906103b291906147d0565b610c25565b005b6103d360048036038101906103ce9190614823565b610d27565b6040516103e0919061485f565b60405180910390f35b61040360048036038101906103fe919061487a565b610d55565b6040516104119291906148ba565b60405180910390f35b610434600480360381019061042f9190614907565b610e2f565b005b610450600480360381019061044b91906149ab565b6110bd565b005b61046c600480360381019061046791906143c2565b6111da565b005b61048860048036038101906104839190614322565b6111fc565b6040516104959190614371565b60405180910390f35b6104b860048036038101906104b391906143c2565b6112b3565b005b6104d460048036038101906104cf91906147d0565b61132e565b005b6104f060048036038101906104eb919061426d565b61134e565b005b6104fa611365565b604051610507919061485f565b60405180910390f35b61052a60048036038101906105259190614a0b565b611389565b005b6105466004803603810190610541919061426d565b611599565b6040516105539190614371565b60405180910390f35b6105766004803603810190610571919061426d565b61161d565b60405161058391906142db565b60405180910390f35b6105a660048036038101906105a19190614a83565b61162f565b6040516105b39190614371565b60405180910390f35b6105c46116f8565b005b6105ce61170c565b6040516105db91906142db565b60405180910390f35b6105fe60048036038101906105f991906143c2565b611744565b005b61061a600480360381019061061591906143c2565b61175b565b604051610627919061416a565b60405180910390f35b6106386117d4565b6040516106459190614215565b60405180910390f35b610656611875565b604051610663919061485f565b60405180910390f35b61068660048036038101906106819190614adc565b61187c565b005b6106a2600480360381019061069d9190614b72565b611892565b005b6106be60048036038101906106b99190614cb3565b611a20565b005b6106da60048036038101906106d59190614e1d565b611b83565b005b6106f660048036038101906106f19190614ee4565b611ba8565b005b610712600480360381019061070d9190614f11565b611c88565b005b61072e6004803603810190610729919061426d565b611e5f565b60405161073b9190614215565b60405180910390f35b61074c611ed0565b604051610759919061485f565b60405180910390f35b61077c600480360381019061077791906143c2565b611ef4565b005b610786611f16565b6040516107939190614fe9565b60405180910390f35b6107b660048036038101906107b19190615004565b611f42565b005b6107c06120bf565b6040516107cd9190615182565b60405180910390f35b6107f060048036038101906107eb91906151a4565b6122c0565b005b6107fa61233a565b6040516108079190614215565b60405180910390f35b61082a6004803603810190610825919061522c565b612398565b604051610837919061416a565b60405180910390f35b61085a60048036038101906108559190614a83565b61243a565b005b6108646124c0565b60405161087191906142db565b60405180910390f35b60007f2a55205a000000000000000000000000000000000000000000000000000000007bffffffffffffffffffffffffffffffffffffffffffffffffffffffff1916827bffffffffffffffffffffffffffffffffffffffffffffffffffffffff1916148061092c5750634906490660e01b7bffffffffffffffffffffffffffffffffffffffffffffffffffffffff1916827bffffffffffffffffffffffffffffffffffffffffffffffffffffffff1916145b8061093c575061093b826124f8565b5b9050919050565b6060600061094f612572565b90508060000180546109609061529b565b80601f016020809104026020016040519081016040528092919081815260200182805461098c9061529b565b80156109d95780601f106109ae576101008083540402835291602001916109d9565b820191906000526020600020905b8154815290600101906020018083116109bc57829003601f168201915b505050505091505090565b60006109ef8261259a565b506109f982612622565b9050919050565b610a128282610a0d61266d565b612675565b5050565b600080610a21612572565b9050806004015491505090565b610a36612687565b610a40828261270e565b505050565b600080610a50612810565b9050806002018054905091505090565b610a68612687565b610a7181612838565b6000610a7b612572565b9050600081600401541115610abc576040517ff92ee8a900000000000000000000000000000000000000000000000000000000815260040160405180910390fd5b8160000151816000019081610ad19190615478565b508160200151816001019081610ae79190615478565b5081606001518160030160006101000a81548167ffffffffffffffff021916908367ffffffffffffffff1602179055508160400151816002019081610b2c9190615478565b5060008160040181905550610b408561243a565b60005b84518163ffffffff161015610bae57610b9c7f9f2df0fed2c77648de5860a4cc508cd0818c85b8b8a1ab4ceeef8d981c8956a6868363ffffffff1681518110610b8f57610b8e61554a565b5b6020026020010151612901565b5080610ba7906155b8565b9050610b43565b5060005b83518163ffffffff161015610c1d57610c0b7f73e573f9566d61418a34d5de3ff49360f9c51fec37f7486551670290f6285dab858363ffffffff1681518110610bfe57610bfd61554a565b5b6020026020010151612901565b5080610c16906155b8565b9050610bb2565b505050505050565b600073ffffffffffffffffffffffffffffffffffffffff168273ffffffffffffffffffffffffffffffffffffffff1603610c975760006040517f64a0ae92000000000000000000000000000000000000000000000000000000008152600401610c8e91906142db565b60405180910390fd5b6000610cab8383610ca661266d565b612a02565b90508373ffffffffffffffffffffffffffffffffffffffff168173ffffffffffffffffffffffffffffffffffffffff1614610d21578382826040517f64283d7b000000000000000000000000000000000000000000000000000000008152600401610d18939291906155e4565b60405180910390fd5b50505050565b600080610d32612a18565b905080600001600084815260200190815260200160002060010154915050919050565b6000806000610d62612572565b90506127108160060160009054906101000a90046bffffffffffffffffffffffff166bffffffffffffffffffffffff1685610d9d919061561b565b610da7919061568c565b91506000610db36124c0565b90508073ffffffffffffffffffffffffffffffffffffffff1663a5bd52356040518163ffffffff1660e01b8152600401602060405180830381865afa158015610e00573d6000803e3d6000fd5b505050506040513d601f19601f82011682018060405250810190610e2491906156d2565b935050509250929050565b610e3761170c565b73ffffffffffffffffffffffffffffffffffffffff16610e5561266d565b73ffffffffffffffffffffffffffffffffffffffff1614158015610ea75750610ea57f73e573f9566d61418a34d5de3ff49360f9c51fec37f7486551670290f6285dab610ea061266d565b61175b565b155b15610ede576040517fcc12cef600000000000000000000000000000000000000000000000000000000815260040160405180910390fd5b610ef081610eeb906156ff565b612838565b6000610efa612572565b90508060030160009054906101000a900467ffffffffffffffff1667ffffffffffffffff16826060016020810190610f329190615712565b67ffffffffffffffff161015610f74576040517f70f9689c00000000000000000000000000000000000000000000000000000000815260040160405180910390fd5b80600101604051610f8591906157e2565b6040518091039020828060200190610f9d9190615808565b604051610fab929190615890565b604051809103902014610fea576040517fbc2a02e200000000000000000000000000000000000000000000000000000000815260040160405180910390fd5b818060000190610ffa9190615808565b82600001918261100b9291906158b4565b5081806020019061101c9190615808565b82600101918261102d9291906158b4565b508160600160208101906110419190615712565b8160030160006101000a81548167ffffffffffffffff021916908367ffffffffffffffff16021790555081806040019061107b9190615808565b82600201918261108c9291906158b4565b507fa5d4097edda6d87cb9329af83fb3712ef77eeb13738ffe43cc35a4ce305ad96260405160405180910390a15050565b6110c561170c565b73ffffffffffffffffffffffffffffffffffffffff166110e361266d565b73ffffffffffffffffffffffffffffffffffffffff161415801561113557506111337f73e573f9566d61418a34d5de3ff49360f9c51fec37f7486551670290f6285dab61112e61266d565b61175b565b155b1561116c576040517fcc12cef600000000000000000000000000000000000000000000000000000000815260040160405180910390fd5b6000611176612572565b90508282826005016000878152602001908152602001600020918261119c9291906158b4565b507ff8e1a15aba9398e019f0b49df1a4fde98ee17ae345cb5f6b5e2c27f5033e8ce7846040516111cc9190614371565b60405180910390a150505050565b6111e382610d27565b6111ec81612a40565b6111f68383612901565b50505050565b600080611207612810565b90506112128461162f565b83106112575783836040517fa57d13dc00000000000000000000000000000000000000000000000000000000815260040161124e9291906148ba565b60405180910390fd5b8060000160008573ffffffffffffffffffffffffffffffffffffffff1673ffffffffffffffffffffffffffffffffffffffff16815260200190815260200160002060008481526020019081526020016000205491505092915050565b6112bb61266d565b73ffffffffffffffffffffffffffffffffffffffff168173ffffffffffffffffffffffffffffffffffffffff161461131f576040517f6697b23200000000000000000000000000000000000000000000000000000000815260040160405180910390fd5b611329828261270e565b505050565b61134983838360405180602001604052806000815250611b83565b505050565b61136160008261135c61266d565b612a02565b5050565b7f73e573f9566d61418a34d5de3ff49360f9c51fec37f7486551670290f6285dab81565b6000611393612a54565b905060008160000160089054906101000a900460ff1615905060008260000160009054906101000a900467ffffffffffffffff1690506000808267ffffffffffffffff161480156113e15750825b9050600060018367ffffffffffffffff16148015611416575060003073ffffffffffffffffffffffffffffffffffffffff163b145b905081158015611424575080155b1561145b576040517ff92ee8a900000000000000000000000000000000000000000000000000000000815260040160405180910390fd5b60018560000160006101000a81548167ffffffffffffffff021916908367ffffffffffffffff16021790555083156114ab5760018560000160086101000a81548160ff0219169083151502179055505b6114b58787612a68565b6114bd612a7e565b6114c5612a88565b6114d56114d061266d565b612a92565b6114dd612aa6565b60006114e7612572565b90506114f161266d565b81600601600c6101000a81548173ffffffffffffffffffffffffffffffffffffffff021916908373ffffffffffffffffffffffffffffffffffffffff1602179055505083156115905760008560000160086101000a81548160ff0219169083151502179055507fc7f505b2f371ae2175ee4913f4499e1f2633a7b5936321eed1cdaeb6115181d2600160405161158791906159bf565b60405180910390a15b50505050505050565b6000806115a4612810565b90506115ae610a45565b83106115f4576000836040517fa57d13dc0000000000000000000000000000000000000000000000000000000081526004016115eb9291906148ba565b60405180910390fd5b80600201838154811061160a5761160961554a565b5b9060005260206000200154915050919050565b60006116288261259a565b9050919050565b60008061163a612ab0565b9050600073ffffffffffffffffffffffffffffffffffffffff168373ffffffffffffffffffffffffffffffffffffffff16036116ae5760006040517f89c62b640000000000000000000000000000000000000000000000000000000081526004016116a591906142db565b60405180910390fd5b8060030160008473ffffffffffffffffffffffffffffffffffffffff1673ffffffffffffffffffffffffffffffffffffffff16815260200190815260200160002054915050919050565b611700612687565b61170a6000612ad8565b565b600080611717612baf565b90508060000160009054906101000a900473ffffffffffffffffffffffffffffffffffffffff1691505090565b61174c612687565b6117568282612901565b505050565b600080611766612a18565b905080600001600085815260200190815260200160002060000160008473ffffffffffffffffffffffffffffffffffffffff1673ffffffffffffffffffffffffffffffffffffffff16815260200190815260200160002060009054906101000a900460ff1691505092915050565b606060006117e0612572565b90508060010180546117f19061529b565b80601f016020809104026020016040519081016040528092919081815260200182805461181d9061529b565b801561186a5780601f1061183f5761010080835404028352916020019161186a565b820191906000526020600020905b81548152906001019060200180831161184d57829003601f168201915b505050505091505090565b6000801b81565b61188e61188761266d565b8383612bd7565b5050565b61189a61170c565b73ffffffffffffffffffffffffffffffffffffffff166118b861266d565b73ffffffffffffffffffffffffffffffffffffffff161415801561190a57506119087f9f2df0fed2c77648de5860a4cc508cd0818c85b8b8a1ab4ceeef8d981c8956a661190361266d565b61175b565b155b15611941576040517fcc12cef600000000000000000000000000000000000000000000000000000000815260040160405180910390fd5b818190508484905014611980576040517f1a1e1b4200000000000000000000000000000000000000000000000000000000815260040160405180910390fd5b61198c82829050612d55565b60005b828290508163ffffffff161015611a1857611a076119ab61266d565b8787878563ffffffff168181106119c5576119c461554a565b5b90506020028101906119d79190615808565b87878763ffffffff168181106119f0576119ef61554a565b5b9050602002810190611a029190615808565b612dd0565b80611a11906155b8565b905061198f565b505050505050565b60005b848490508163ffffffff161015611b7957611a8b8888888463ffffffff16818110611a5157611a5061554a565b5b9050602002016020810190611a669190614a83565b87878563ffffffff16818110611a7f57611a7e61554a565b5b9050602002013561132e565b84848263ffffffff16818110611aa457611aa361554a565b5b9050602002013587878363ffffffff16818110611ac457611ac361554a565b5b9050602002016020810190611ad99190614a83565b73ffffffffffffffffffffffffffffffffffffffff168973ffffffffffffffffffffffffffffffffffffffff167fbd5c95affecf80a51b513bb4eddd42724421b80ef31b07cee1b5b25d8ce5a05b86868663ffffffff16818110611b4057611b3f61554a565b5b9050602002810190611b529190615808565b604051611b60929190615a07565b60405180910390a480611b72906155b8565b9050611a23565b5050505050505050565b611b8e848484610c25565b611ba2611b9961266d565b85858585612ea0565b50505050565b6000611bb2612572565b905080600601600c9054906101000a900473ffffffffffffffffffffffffffffffffffffffff1673ffffffffffffffffffffffffffffffffffffffff16611bf761266d565b73ffffffffffffffffffffffffffffffffffffffff1614611c44576040517fcc12cef600000000000000000000000000000000000000000000000000000000815260040160405180910390fd5b6000611c4e612572565b9050828160060160006101000a8154816bffffffffffffffffffffffff02191690836bffffffffffffffffffffffff160217905550505050565b611c9061170c565b73ffffffffffffffffffffffffffffffffffffffff16611cae61266d565b73ffffffffffffffffffffffffffffffffffffffff1614158015611d005750611cfe7f9f2df0fed2c77648de5860a4cc508cd0818c85b8b8a1ab4ceeef8d981c8956a6611cf961266d565b61175b565b155b15611d37576040517fcc12cef600000000000000000000000000000000000000000000000000000000815260040160405180910390fd5b6000611d41612572565b905087816004015414611d8f5780600401546040517f0499fe0b000000000000000000000000000000000000000000000000000000008152600401611d869190614371565b60405180910390fd5b611d9b83839050612d55565b60005b838390508163ffffffff161015611e5457611e43611dba61266d565b89898463ffffffff16818110611dd357611dd261554a565b5b9050602002016020810190611de89190614a83565b88888563ffffffff16818110611e0157611e0061554a565b5b9050602002810190611e139190615808565b88888763ffffffff16818110611e2c57611e2b61554a565b5b9050602002810190611e3e9190615808565b612dd0565b80611e4d906155b8565b9050611d9e565b505050505050505050565b60606000611e6b612572565b9050611ea9816005016000858152602001908152602001600020604051602001611e959190615ab9565b604051602081830303815290604052613051565b604051602001611eb99190615b4d565b604051602081830303815290604052915050919050565b7f9f2df0fed2c77648de5860a4cc508cd0818c85b8b8a1ab4ceeef8d981c8956a681565b611efd82610d27565b611f0681612a40565b611f10838361270e565b50505050565b600080611f21612572565b90508060030160009054906101000a900467ffffffffffffffff1691505090565b611f4a61170c565b73ffffffffffffffffffffffffffffffffffffffff16611f6861266d565b73ffffffffffffffffffffffffffffffffffffffff1614158015611fba5750611fb87f9f2df0fed2c77648de5860a4cc508cd0818c85b8b8a1ab4ceeef8d981c8956a6611fb361266d565b61175b565b155b15611ff1576040517fcc12cef600000000000000000000000000000000000000000000000000000000815260040160405180910390fd5b611ffd82829050612d55565b60005b868690508163ffffffff1610156120b6576120a561201c61266d565b88888463ffffffff168181106120355761203461554a565b5b905060200201602081019061204a9190614a83565b87878563ffffffff168181106120635761206261554a565b5b90506020028101906120759190615808565b87878763ffffffff1681811061208e5761208d61554a565b5b90506020028101906120a09190615808565b612dd0565b806120af906155b8565b9050612000565b50505050505050565b6120c7614084565b60006120d1612572565b905060405180608001604052808260000180546120ed9061529b565b80601f01602080910402602001604051908101604052809291908181526020018280546121199061529b565b80156121665780601f1061213b57610100808354040283529160200191612166565b820191906000526020600020905b81548152906001019060200180831161214957829003601f168201915b5050505050815260200182600101805461217f9061529b565b80601f01602080910402602001604051908101604052809291908181526020018280546121ab9061529b565b80156121f85780601f106121cd576101008083540402835291602001916121f8565b820191906000526020600020905b8154815290600101906020018083116121db57829003601f168201915b505050505081526020018260020180546122119061529b565b80601f016020809104026020016040519081016040528092919081815260200182805461223d9061529b565b801561228a5780601f1061225f5761010080835404028352916020019161228a565b820191906000526020600020905b81548152906001019060200180831161226d57829003601f168201915b505050505081526020018260030160009054906101000a900467ffffffffffffffff1667ffffffffffffffff1681525091505090565b6122cb85858561132e565b828473ffffffffffffffffffffffffffffffffffffffff168673ffffffffffffffffffffffffffffffffffffffff167fbd5c95affecf80a51b513bb4eddd42724421b80ef31b07cee1b5b25d8ce5a05b858560405161232b929190615a07565b60405180910390a45050505050565b60606000612346612572565b90506123738160020160405160200161235f9190615ab9565b604051602081830303815290604052613051565b6040516020016123839190615b4d565b60405160208183030381529060405291505090565b6000806123a3612ab0565b90508060050160008573ffffffffffffffffffffffffffffffffffffffff1673ffffffffffffffffffffffffffffffffffffffff16815260200190815260200160002060008473ffffffffffffffffffffffffffffffffffffffff1673ffffffffffffffffffffffffffffffffffffffff16815260200190815260200160002060009054906101000a900460ff1691505092915050565b612442612687565b600073ffffffffffffffffffffffffffffffffffffffff168173ffffffffffffffffffffffffffffffffffffffff16036124b45760006040517f1e4fbdf70000000000000000000000000000000000000000000000000000000081526004016124ab91906142db565b60405180910390fd5b6124bd81612ad8565b50565b6000806124cb612572565b905080600601600c9054906101000a900473ffffffffffffffffffffffffffffffffffffffff1691505090565b60007f7965db0b000000000000000000000000000000000000000000000000000000007bffffffffffffffffffffffffffffffffffffffffffffffffffffffff1916827bffffffffffffffffffffffffffffffffffffffffffffffffffffffff1916148061256b575061256a8261307e565b5b9050919050565b60007f8303e9d27d04c843c8d4a08966b1e1be0214fc0b3375d79db0a8252068c41f00905090565b6000806125a6836130f8565b9050600073ffffffffffffffffffffffffffffffffffffffff168173ffffffffffffffffffffffffffffffffffffffff160361261957826040517f7e2732890000000000000000000000000000000000000000000000000000000081526004016126109190614371565b60405180910390fd5b80915050919050565b60008061262d612ab0565b905080600401600084815260200190815260200160002060009054906101000a900473ffffffffffffffffffffffffffffffffffffffff16915050919050565b600033905090565b6126828383836001613143565b505050565b61268f61266d565b73ffffffffffffffffffffffffffffffffffffffff166126ad61170c565b73ffffffffffffffffffffffffffffffffffffffff161461270c576126d061266d565b6040517f118cdaa700000000000000000000000000000000000000000000000000000000815260040161270391906142db565b60405180910390fd5b565b600080612719612a18565b9050612725848461175b565b1561280457600081600001600086815260200190815260200160002060000160008573ffffffffffffffffffffffffffffffffffffffff1673ffffffffffffffffffffffffffffffffffffffff16815260200190815260200160002060006101000a81548160ff0219169083151502179055506127a061266d565b73ffffffffffffffffffffffffffffffffffffffff168373ffffffffffffffffffffffffffffffffffffffff16857ff6391f5c32d9c69d2a47ea670b442974b53935d1edc7fd64eb21e047a839171b60405160405180910390a4600191505061280a565b60009150505b92915050565b60007f645e039705490088daad89bae25049a34f4a9072d398537b1ab2425f24cbed00905090565b600081600001515103612877576040517f293330c600000000000000000000000000000000000000000000000000000000815260040160405180910390fd5b6000816020015151036128b6576040517fbc2a02e200000000000000000000000000000000000000000000000000000000815260040160405180910390fd5b6000816060015167ffffffffffffffff16036128fe576040517fb798bafb00000000000000000000000000000000000000000000000000000000815260040160405180910390fd5b50565b60008061290c612a18565b9050612918848461175b565b6129f657600181600001600086815260200190815260200160002060000160008573ffffffffffffffffffffffffffffffffffffffff1673ffffffffffffffffffffffffffffffffffffffff16815260200190815260200160002060006101000a81548160ff02191690831515021790555061299261266d565b73ffffffffffffffffffffffffffffffffffffffff168373ffffffffffffffffffffffffffffffffffffffff16857f2f8788117e7eff1d82e926ec794901d17c78024a50270940304540a733656f0d60405160405180910390a460019150506129fc565b60009150505b92915050565b6000612a0f848484613317565b90509392505050565b60007f02dd7bc7dec4dceedda775e58dd541e08a116c6c53815c0bd028192f7b626800905090565b612a5181612a4c61266d565b613434565b50565b600080612a5f613485565b90508091505090565b612a706134b0565b612a7a82826134f0565b5050565b612a866134b0565b565b612a906134b0565b565b612a9a6134b0565b612aa38161352d565b50565b612aae6134b0565b565b60007f80bb2b638cc20bc4d0a60d66940f3ab4a00c1d7b313497ca82fb0b4ab0079300905090565b6000612ae2612baf565b905060008160000160009054906101000a900473ffffffffffffffffffffffffffffffffffffffff169050828260000160006101000a81548173ffffffffffffffffffffffffffffffffffffffff021916908373ffffffffffffffffffffffffffffffffffffffff1602179055508273ffffffffffffffffffffffffffffffffffffffff168173ffffffffffffffffffffffffffffffffffffffff167f8be0079c531659141344cd1fd0a4f28419497f9722a3daafe3b4186f6b6457e060405160405180910390a3505050565b60007f9016d09d72d40fdae2fd8ceac6b6234c7706214fd39c1cd1e609a0528c199300905090565b6000612be1612ab0565b9050600073ffffffffffffffffffffffffffffffffffffffff168373ffffffffffffffffffffffffffffffffffffffff1603612c5457826040517f5b08ba18000000000000000000000000000000000000000000000000000000008152600401612c4b91906142db565b60405180910390fd5b818160050160008673ffffffffffffffffffffffffffffffffffffffff1673ffffffffffffffffffffffffffffffffffffffff16815260200190815260200160002060008573ffffffffffffffffffffffffffffffffffffffff1673ffffffffffffffffffffffffffffffffffffffff16815260200190815260200160002060006101000a81548160ff0219169083151502179055508273ffffffffffffffffffffffffffffffffffffffff168473ffffffffffffffffffffffffffffffffffffffff167f17307eab39ab6107e8899845ad3d59bd9653f200f220920489ca2b5937696c3184604051612d47919061416a565b60405180910390a350505050565b6000612d5f612572565b90508060030160009054906101000a900467ffffffffffffffff1667ffffffffffffffff16828260040154612d949190615b6f565b1115612dcc576040517f6a29267100000000000000000000000000000000000000000000000000000000815260040160405180910390fd5b5050565b6000612dda612572565b90508282826005016000846004015481526020019081526020016000209182612e049291906158b4565b50612e138682600401546135b3565b80600401548673ffffffffffffffffffffffffffffffffffffffff168873ffffffffffffffffffffffffffffffffffffffff167fbd5c95affecf80a51b513bb4eddd42724421b80ef31b07cee1b5b25d8ce5a05b8888604051612e77929190615a07565b60405180910390a48060040160008154612e9090615ba3565b9190508190555050505050505050565b60008373ffffffffffffffffffffffffffffffffffffffff163b111561304a578273ffffffffffffffffffffffffffffffffffffffff1663150b7a02868685856040518563ffffffff1660e01b8152600401612eff9493929190615c40565b6020604051808303816000875af1925050508015612f3b57506040513d601f19601f82011682018060405250810190612f389190615ca1565b60015b612fbf573d8060008114612f6b576040519150601f19603f3d011682016040523d82523d6000602084013e612f70565b606091505b506000815103612fb757836040517f64a0ae92000000000000000000000000000000000000000000000000000000008152600401612fae91906142db565b60405180910390fd5b805160208201fd5b63150b7a0260e01b7bffffffffffffffffffffffffffffffffffffffffffffffffffffffff1916817bffffffffffffffffffffffffffffffffffffffffffffffffffffffff19161461304857836040517f64a0ae9200000000000000000000000000000000000000000000000000000000815260040161303f91906142db565b60405180910390fd5b505b5050505050565b606061307782604051806060016040528060408152602001615d5b6040913960016135d1565b9050919050565b60007f780e9d63000000000000000000000000000000000000000000000000000000007bffffffffffffffffffffffffffffffffffffffffffffffffffffffff1916827bffffffffffffffffffffffffffffffffffffffffffffffffffffffff191614806130f157506130f082613765565b5b9050919050565b600080613103612ab0565b905080600201600084815260200190815260200160002060009054906101000a900473ffffffffffffffffffffffffffffffffffffffff16915050919050565b600061314d612ab0565b905081806131885750600073ffffffffffffffffffffffffffffffffffffffff168373ffffffffffffffffffffffffffffffffffffffff1614155b156132bc5760006131988561259a565b9050600073ffffffffffffffffffffffffffffffffffffffff168473ffffffffffffffffffffffffffffffffffffffff161415801561320357508373ffffffffffffffffffffffffffffffffffffffff168173ffffffffffffffffffffffffffffffffffffffff1614155b801561321657506132148185612398565b155b1561325857836040517fa9fbf51f00000000000000000000000000000000000000000000000000000000815260040161324f91906142db565b60405180910390fd5b82156132ba57848673ffffffffffffffffffffffffffffffffffffffff168273ffffffffffffffffffffffffffffffffffffffff167f8c5be1e5ebec7d5bd14f71427d1e84f3dd0314c0f7b2291e5b200ac8c7c3b92560405160405180910390a45b505b8481600401600086815260200190815260200160002060006101000a81548173ffffffffffffffffffffffffffffffffffffffff021916908373ffffffffffffffffffffffffffffffffffffffff1602179055505050505050565b600080613325858585613847565b9050600073ffffffffffffffffffffffffffffffffffffffff168173ffffffffffffffffffffffffffffffffffffffff16036133695761336484613a74565b6133a8565b8473ffffffffffffffffffffffffffffffffffffffff168173ffffffffffffffffffffffffffffffffffffffff16146133a7576133a68185613ad0565b5b5b600073ffffffffffffffffffffffffffffffffffffffff168573ffffffffffffffffffffffffffffffffffffffff16036133ea576133e584613bd0565b613429565b8473ffffffffffffffffffffffffffffffffffffffff168173ffffffffffffffffffffffffffffffffffffffff1614613428576134278585613cbc565b5b5b809150509392505050565b61343e828261175b565b6134815780826040517fe2517d3f000000000000000000000000000000000000000000000000000000008152600401613478929190615cce565b60405180910390fd5b5050565b60007ff0c57e16840df040f15088dc2f81fe391c3923bec73e23a9662efc9c229c6a0060001b905090565b6134b8613d58565b6134ee576040517fd7e6bcf800000000000000000000000000000000000000000000000000000000815260040160405180910390fd5b565b6134f86134b0565b6000613502612ab0565b9050828160000190816135159190615478565b50818160010190816135279190615478565b50505050565b6135356134b0565b600073ffffffffffffffffffffffffffffffffffffffff168173ffffffffffffffffffffffffffffffffffffffff16036135a75760006040517f1e4fbdf700000000000000000000000000000000000000000000000000000000815260040161359e91906142db565b60405180910390fd5b6135b081612ad8565b50565b6135cd828260405180602001604052806000815250613d78565b5050565b606060008451036135f35760405180602001604052806000815250905061375e565b60008261362557600360028651600461360c919061561b565b6136169190615b6f565b613620919061568c565b61364c565b6003600286516136359190615b6f565b61363f919061568c565b600461364b919061561b565b5b905060008167ffffffffffffffff81111561366a57613669614407565b5b6040519080825280601f01601f19166020018201604052801561369c5781602001600182028036833780820191505090505b50905060018501602082018788518901602081018051600082525b82841015613712576003840193508351603f8160121c168701518653600186019550603f81600c1c168701518653600186019550603f8160061c168701518653600186019550603f81168701518653600186019550506136b7565b80825289156137525760038c510660018114613735576002811461374857613750565b603d6001870353603d6002870353613750565b603d60018703535b505b50505050505080925050505b9392505050565b60007f80ac58cd000000000000000000000000000000000000000000000000000000007bffffffffffffffffffffffffffffffffffffffffffffffffffffffff1916827bffffffffffffffffffffffffffffffffffffffffffffffffffffffff1916148061383057507f5b5e139f000000000000000000000000000000000000000000000000000000007bffffffffffffffffffffffffffffffffffffffffffffffffffffffff1916827bffffffffffffffffffffffffffffffffffffffffffffffffffffffff1916145b80613840575061383f82613d9c565b5b9050919050565b600080613852612ab0565b9050600061385f856130f8565b9050600073ffffffffffffffffffffffffffffffffffffffff168473ffffffffffffffffffffffffffffffffffffffff16146138a1576138a0818587613e06565b5b600073ffffffffffffffffffffffffffffffffffffffff168173ffffffffffffffffffffffffffffffffffffffff1614613934576138e3600086600080613143565b60018260030160008373ffffffffffffffffffffffffffffffffffffffff1673ffffffffffffffffffffffffffffffffffffffff168152602001908152602001600020600082825403925050819055505b600073ffffffffffffffffffffffffffffffffffffffff168673ffffffffffffffffffffffffffffffffffffffff16146139b95760018260030160008873ffffffffffffffffffffffffffffffffffffffff1673ffffffffffffffffffffffffffffffffffffffff168152602001908152602001600020600082825401925050819055505b8582600201600087815260200190815260200160002060006101000a81548173ffffffffffffffffffffffffffffffffffffffff021916908373ffffffffffffffffffffffffffffffffffffffff160217905550848673ffffffffffffffffffffffffffffffffffffffff168273ffffffffffffffffffffffffffffffffffffffff167fddf252ad1be2c89b69c2b068fc378daa952ba7f163c4a11628f55a4df523b3ef60405160405180910390a480925050509392505050565b6000613a7e612810565b9050806002018054905081600301600084815260200190815260200160002081905550806002018290806001815401808255809150506001900390600052602060002001600090919091909150555050565b6000613ada612810565b90506000613ae78461162f565b9050600082600101600085815260200190815260200160002054905060008360000160008773ffffffffffffffffffffffffffffffffffffffff1673ffffffffffffffffffffffffffffffffffffffff1681526020019081526020016000209050828214613b9957600081600085815260200190815260200160002054905080826000858152602001908152602001600020819055508285600101600083815260200190815260200160002081905550505b8360010160008681526020019081526020016000206000905580600084815260200190815260200160002060009055505050505050565b6000613bda612810565b9050600060018260020180549050613bf29190615cf7565b905060008260030160008581526020019081526020016000205490506000836002018381548110613c2657613c2561554a565b5b9060005260206000200154905080846002018381548110613c4a57613c4961554a565b5b906000526020600020018190555081846003016000838152602001908152602001600020819055508360030160008681526020019081526020016000206000905583600201805480613c9f57613c9e615d2b565b5b600190038181906000526020600020016000905590555050505050565b6000613cc6612810565b905060006001613cd58561162f565b613cdf9190615cf7565b9050828260000160008673ffffffffffffffffffffffffffffffffffffffff1673ffffffffffffffffffffffffffffffffffffffff168152602001908152602001600020600083815260200190815260200160002081905550808260010160008581526020019081526020016000208190555050505050565b6000613d62612a54565b60000160089054906101000a900460ff16905090565b613d828383613eca565b613d97613d8d61266d565b6000858585612ea0565b505050565b60007f01ffc9a7000000000000000000000000000000000000000000000000000000007bffffffffffffffffffffffffffffffffffffffffffffffffffffffff1916827bffffffffffffffffffffffffffffffffffffffffffffffffffffffff1916149050919050565b613e11838383613fc3565b613ec557600073ffffffffffffffffffffffffffffffffffffffff168373ffffffffffffffffffffffffffffffffffffffff1603613e8657806040517f7e273289000000000000000000000000000000000000000000000000000000008152600401613e7d9190614371565b60405180910390fd5b81816040517f177e802f000000000000000000000000000000000000000000000000000000008152600401613ebc9291906148ba565b60405180910390fd5b505050565b600073ffffffffffffffffffffffffffffffffffffffff168273ffffffffffffffffffffffffffffffffffffffff1603613f3c5760006040517f64a0ae92000000000000000000000000000000000000000000000000000000008152600401613f3391906142db565b60405180910390fd5b6000613f4a83836000612a02565b9050600073ffffffffffffffffffffffffffffffffffffffff168173ffffffffffffffffffffffffffffffffffffffff1614613fbe5760006040517f73c6ac6e000000000000000000000000000000000000000000000000000000008152600401613fb591906142db565b60405180910390fd5b505050565b60008073ffffffffffffffffffffffffffffffffffffffff168373ffffffffffffffffffffffffffffffffffffffff161415801561407b57508273ffffffffffffffffffffffffffffffffffffffff168473ffffffffffffffffffffffffffffffffffffffff16148061403c575061403b8484612398565b5b8061407a57508273ffffffffffffffffffffffffffffffffffffffff1661406283612622565b73ffffffffffffffffffffffffffffffffffffffff16145b5b90509392505050565b6040518060800160405280606081526020016060815260200160608152602001600067ffffffffffffffff1681525090565b6000604051905090565b600080fd5b600080fd5b60007fffffffff0000000000000000000000000000000000000000000000000000000082169050919050565b6140ff816140ca565b811461410a57600080fd5b50565b60008135905061411c816140f6565b92915050565b600060208284031215614138576141376140c0565b5b60006141468482850161410d565b91505092915050565b60008115159050919050565b6141648161414f565b82525050565b600060208201905061417f600083018461415b565b92915050565b600081519050919050565b600082825260208201905092915050565b60005b838110156141bf5780820151818401526020810190506141a4565b60008484015250505050565b6000601f19601f8301169050919050565b60006141e782614185565b6141f18185614190565b93506142018185602086016141a1565b61420a816141cb565b840191505092915050565b6000602082019050818103600083015261422f81846141dc565b905092915050565b6000819050919050565b61424a81614237565b811461425557600080fd5b50565b60008135905061426781614241565b92915050565b600060208284031215614283576142826140c0565b5b600061429184828501614258565b91505092915050565b600073ffffffffffffffffffffffffffffffffffffffff82169050919050565b60006142c58261429a565b9050919050565b6142d5816142ba565b82525050565b60006020820190506142f060008301846142cc565b92915050565b6142ff816142ba565b811461430a57600080fd5b50565b60008135905061431c816142f6565b92915050565b60008060408385031215614339576143386140c0565b5b60006143478582860161430d565b925050602061435885828601614258565b9150509250929050565b61436b81614237565b82525050565b60006020820190506143866000830184614362565b92915050565b6000819050919050565b61439f8161438c565b81146143aa57600080fd5b50565b6000813590506143bc81614396565b92915050565b600080604083850312156143d9576143d86140c0565b5b60006143e7858286016143ad565b92505060206143f88582860161430d565b9150509250929050565b600080fd5b7f4e487b7100000000000000000000000000000000000000000000000000000000600052604160045260246000fd5b61443f826141cb565b810181811067ffffffffffffffff8211171561445e5761445d614407565b5b80604052505050565b60006144716140b6565b905061447d8282614436565b919050565b600067ffffffffffffffff82111561449d5761449c614407565b5b602082029050602081019050919050565b600080fd5b60006144c66144c184614482565b614467565b905080838252602082019050602084028301858111156144e9576144e86144ae565b5b835b8181101561451257806144fe888261430d565b8452602084019350506020810190506144eb565b5050509392505050565b600082601f83011261453157614530614402565b5b81356145418482602086016144b3565b91505092915050565b600080fd5b600080fd5b600080fd5b600067ffffffffffffffff82111561457457614573614407565b5b61457d826141cb565b9050602081019050919050565b82818337600083830152505050565b60006145ac6145a784614559565b614467565b9050828152602081018484840111156145c8576145c7614554565b5b6145d384828561458a565b509392505050565b600082601f8301126145f0576145ef614402565b5b8135614600848260208601614599565b91505092915050565b600067ffffffffffffffff82169050919050565b61462681614609565b811461463157600080fd5b50565b6000813590506146438161461d565b92915050565b60006080828403121561465f5761465e61454a565b5b6146696080614467565b9050600082013567ffffffffffffffff8111156146895761468861454f565b5b614695848285016145db565b600083015250602082013567ffffffffffffffff8111156146b9576146b861454f565b5b6146c5848285016145db565b602083015250604082013567ffffffffffffffff8111156146e9576146e861454f565b5b6146f5848285016145db565b604083015250606061470984828501614634565b60608301525092915050565b6000806000806080858703121561472f5761472e6140c0565b5b600061473d8782880161430d565b945050602085013567ffffffffffffffff81111561475e5761475d6140c5565b5b61476a8782880161451c565b935050604085013567ffffffffffffffff81111561478b5761478a6140c5565b5b6147978782880161451c565b925050606085013567ffffffffffffffff8111156147b8576147b76140c5565b5b6147c487828801614649565b91505092959194509250565b6000806000606084860312156147e9576147e86140c0565b5b60006147f78682870161430d565b93505060206148088682870161430d565b925050604061481986828701614258565b9150509250925092565b600060208284031215614839576148386140c0565b5b6000614847848285016143ad565b91505092915050565b6148598161438c565b82525050565b60006020820190506148746000830184614850565b92915050565b60008060408385031215614891576148906140c0565b5b600061489f85828601614258565b92505060206148b085828601614258565b9150509250929050565b60006040820190506148cf60008301856142cc565b6148dc6020830184614362565b9392505050565b600080fd5b6000608082840312156148fe576148fd6148e3565b5b81905092915050565b60006020828403121561491d5761491c6140c0565b5b600082013567ffffffffffffffff81111561493b5761493a6140c5565b5b614947848285016148e8565b91505092915050565b600080fd5b60008083601f84011261496b5761496a614402565b5b8235905067ffffffffffffffff81111561498857614987614950565b5b6020830191508360018202830111156149a4576149a36144ae565b5b9250929050565b6000806000604084860312156149c4576149c36140c0565b5b60006149d286828701614258565b935050602084013567ffffffffffffffff8111156149f3576149f26140c5565b5b6149ff86828701614955565b92509250509250925092565b60008060408385031215614a2257614a216140c0565b5b600083013567ffffffffffffffff811115614a4057614a3f6140c5565b5b614a4c858286016145db565b925050602083013567ffffffffffffffff811115614a6d57614a6c6140c5565b5b614a79858286016145db565b9150509250929050565b600060208284031215614a9957614a986140c0565b5b6000614aa78482850161430d565b91505092915050565b614ab98161414f565b8114614ac457600080fd5b50565b600081359050614ad681614ab0565b92915050565b60008060408385031215614af357614af26140c0565b5b6000614b018582860161430d565b9250506020614b1285828601614ac7565b9150509250929050565b60008083601f840112614b3257614b31614402565b5b8235905067ffffffffffffffff811115614b4f57614b4e614950565b5b602083019150836020820283011115614b6b57614b6a6144ae565b5b9250929050565b600080600080600060608688031215614b8e57614b8d6140c0565b5b6000614b9c8882890161430d565b955050602086013567ffffffffffffffff811115614bbd57614bbc6140c5565b5b614bc988828901614b1c565b9450945050604086013567ffffffffffffffff811115614bec57614beb6140c5565b5b614bf888828901614b1c565b92509250509295509295909350565b60008083601f840112614c1d57614c1c614402565b5b8235905067ffffffffffffffff811115614c3a57614c39614950565b5b602083019150836020820283011115614c5657614c556144ae565b5b9250929050565b60008083601f840112614c7357614c72614402565b5b8235905067ffffffffffffffff811115614c9057614c8f614950565b5b602083019150836020820283011115614cac57614cab6144ae565b5b9250929050565b60008060008060008060006080888a031215614cd257614cd16140c0565b5b6000614ce08a828b0161430d565b975050602088013567ffffffffffffffff811115614d0157614d006140c5565b5b614d0d8a828b01614c07565b9650965050604088013567ffffffffffffffff811115614d3057614d2f6140c5565b5b614d3c8a828b01614c5d565b9450945050606088013567ffffffffffffffff811115614d5f57614d5e6140c5565b5b614d6b8a828b01614b1c565b925092505092959891949750929550565b600067ffffffffffffffff821115614d9757614d96614407565b5b614da0826141cb565b9050602081019050919050565b6000614dc0614dbb84614d7c565b614467565b905082815260208101848484011115614ddc57614ddb614554565b5b614de784828561458a565b509392505050565b600082601f830112614e0457614e03614402565b5b8135614e14848260208601614dad565b91505092915050565b60008060008060808587031215614e3757614e366140c0565b5b6000614e458782880161430d565b9450506020614e568782880161430d565b9350506040614e6787828801614258565b925050606085013567ffffffffffffffff811115614e8857614e876140c5565b5b614e9487828801614def565b91505092959194509250565b60006bffffffffffffffffffffffff82169050919050565b614ec181614ea0565b8114614ecc57600080fd5b50565b600081359050614ede81614eb8565b92915050565b600060208284031215614efa57614ef96140c0565b5b6000614f0884828501614ecf565b91505092915050565b60008060008060008060006080888a031215614f3057614f2f6140c0565b5b6000614f3e8a828b01614258565b975050602088013567ffffffffffffffff811115614f5f57614f5e6140c5565b5b614f6b8a828b01614c07565b9650965050604088013567ffffffffffffffff811115614f8e57614f8d6140c5565b5b614f9a8a828b01614b1c565b9450945050606088013567ffffffffffffffff811115614fbd57614fbc6140c5565b5b614fc98a828b01614b1c565b925092505092959891949750929550565b614fe381614609565b82525050565b6000602082019050614ffe6000830184614fda565b92915050565b60008060008060008060608789031215615021576150206140c0565b5b600087013567ffffffffffffffff81111561503f5761503e6140c5565b5b61504b89828a01614c07565b9650965050602087013567ffffffffffffffff81111561506e5761506d6140c5565b5b61507a89828a01614b1c565b9450945050604087013567ffffffffffffffff81111561509d5761509c6140c5565b5b6150a989828a01614b1c565b92509250509295509295509295565b600082825260208201905092915050565b60006150d482614185565b6150de81856150b8565b93506150ee8185602086016141a1565b6150f7816141cb565b840191505092915050565b61510b81614609565b82525050565b6000608083016000830151848203600086015261512e82826150c9565b9150506020830151848203602086015261514882826150c9565b9150506040830151848203604086015261516282826150c9565b91505060608301516151776060860182615102565b508091505092915050565b6000602082019050818103600083015261519c8184615111565b905092915050565b6000806000806000608086880312156151c0576151bf6140c0565b5b60006151ce8882890161430d565b95505060206151df8882890161430d565b94505060406151f088828901614258565b935050606086013567ffffffffffffffff811115615211576152106140c5565b5b61521d88828901614955565b92509250509295509295909350565b60008060408385031215615243576152426140c0565b5b60006152518582860161430d565b92505060206152628582860161430d565b9150509250929050565b7f4e487b7100000000000000000000000000000000000000000000000000000000600052602260045260246000fd5b600060028204905060018216806152b357607f821691505b6020821081036152c6576152c561526c565b5b50919050565b60008190508160005260206000209050919050565b60006020601f8301049050919050565b600082821b905092915050565b60006008830261532e7fffffffffffffffffffffffffffffffffffffffffffffffffffffffffffffffff826152f1565b61533886836152f1565b95508019841693508086168417925050509392505050565b6000819050919050565b600061537561537061536b84614237565b615350565b614237565b9050919050565b6000819050919050565b61538f8361535a565b6153a361539b8261537c565b8484546152fe565b825550505050565b600090565b6153b86153ab565b6153c3818484615386565b505050565b5b818110156153e7576153dc6000826153b0565b6001810190506153c9565b5050565b601f82111561542c576153fd816152cc565b615406846152e1565b81016020851015615415578190505b615429615421856152e1565b8301826153c8565b50505b505050565b600082821c905092915050565b600061544f60001984600802615431565b1980831691505092915050565b6000615468838361543e565b9150826002028217905092915050565b61548182614185565b67ffffffffffffffff81111561549a57615499614407565b5b6154a4825461529b565b6154af8282856153eb565b600060209050601f8311600181146154e257600084156154d0578287015190505b6154da858261545c565b865550615542565b601f1984166154f0866152cc565b60005b82811015615518578489015182556001820191506020850194506020810190506154f3565b868310156155355784890151615531601f89168261543e565b8355505b6001600288020188555050505b505050505050565b7f4e487b7100000000000000000000000000000000000000000000000000000000600052603260045260246000fd5b7f4e487b7100000000000000000000000000000000000000000000000000000000600052601160045260246000fd5b600063ffffffff82169050919050565b60006155c3826155a8565b915063ffffffff82036155d9576155d8615579565b5b600182019050919050565b60006060820190506155f960008301866142cc565b6156066020830185614362565b61561360408301846142cc565b949350505050565b600061562682614237565b915061563183614237565b925082820261563f81614237565b9150828204841483151761565657615655615579565b5b5092915050565b7f4e487b7100000000000000000000000000000000000000000000000000000000600052601260045260246000fd5b600061569782614237565b91506156a283614237565b9250826156b2576156b161565d565b5b828204905092915050565b6000815190506156cc816142f6565b92915050565b6000602082840312156156e8576156e76140c0565b5b60006156f6848285016156bd565b91505092915050565b600061570b3683614649565b9050919050565b600060208284031215615728576157276140c0565b5b600061573684828501614634565b91505092915050565b600081905092915050565b60008190508160005260206000209050919050565b6000815461576c8161529b565b615776818661573f565b9450600182166000811461579157600181146157a6576157d9565b60ff19831686528115158202860193506157d9565b6157af8561574a565b60005b838110156157d1578154818901526001820191506020810190506157b2565b838801955050505b50505092915050565b60006157ee828461575f565b915081905092915050565b600080fd5b600080fd5b600080fd5b60008083356001602003843603038112615825576158246157f9565b5b80840192508235915067ffffffffffffffff821115615847576158466157fe565b5b60208301925060018202360383131561586357615862615803565b5b509250929050565b6000615877838561573f565b935061588483858461458a565b82840190509392505050565b600061589d82848661586b565b91508190509392505050565b600082905092915050565b6158be83836158a9565b67ffffffffffffffff8111156158d7576158d6614407565b5b6158e1825461529b565b6158ec8282856153eb565b6000601f83116001811461591b5760008415615909578287013590505b615913858261545c565b86555061597b565b601f198416615929866152cc565b60005b828110156159515784890135825560018201915060208501945060208101905061592c565b8683101561596e578489013561596a601f89168261543e565b8355505b6001600288020188555050505b50505050505050565b6000819050919050565b60006159a96159a461599f84615984565b615350565b614609565b9050919050565b6159b98161598e565b82525050565b60006020820190506159d460008301846159b0565b92915050565b60006159e68385614190565b93506159f383858461458a565b6159fc836141cb565b840190509392505050565b60006020820190508181036000830152615a228184866159da565b90509392505050565b600081905092915050565b60008154615a438161529b565b615a4d8186615a2b565b94506001821660008114615a685760018114615a7d57615ab0565b60ff1983168652811515820286019350615ab0565b615a86856152cc565b60005b83811015615aa857815481890152600182019150602081019050615a89565b838801955050505b50505092915050565b6000615ac58284615a36565b915081905092915050565b7f646174613a6170706c69636174696f6e2f6a736f6e3b6261736536342c000000600082015250565b6000615b06601d83615a2b565b9150615b1182615ad0565b601d82019050919050565b6000615b2782614185565b615b318185615a2b565b9350615b418185602086016141a1565b80840191505092915050565b6000615b5882615af9565b9150615b648284615b1c565b915081905092915050565b6000615b7a82614237565b9150615b8583614237565b9250828201905080821115615b9d57615b9c615579565b5b92915050565b6000615bae82614237565b91507fffffffffffffffffffffffffffffffffffffffffffffffffffffffffffffffff8203615be057615bdf615579565b5b600182019050919050565b600081519050919050565b600082825260208201905092915050565b6000615c1282615beb565b615c1c8185615bf6565b9350615c2c8185602086016141a1565b615c35816141cb565b840191505092915050565b6000608082019050615c5560008301876142cc565b615c6260208301866142cc565b615c6f6040830185614362565b8181036060830152615c818184615c07565b905095945050505050565b600081519050615c9b816140f6565b92915050565b600060208284031215615cb757615cb66140c0565b5b6000615cc584828501615c8c565b91505092915050565b6000604082019050615ce360008301856142cc565b615cf06020830184614850565b9392505050565b6000615d0282614237565b9150615d0d83614237565b9250828203905081811115615d2557615d24615579565b5b92915050565b7f4e487b7100000000000000000000000000000000000000000000000000000000600052603160045260246000fdfe4142434445464748494a4b4c4d4e4f505152535455565758595a6162636465666768696a6b6c6d6e6f707172737475767778797a303132333435363738392b2fa26469706673582212200bb3d768900ae2857fbca284ffac62c1481babeb6f58bf6e76390c82d4bc3d8f64736f6c634300081c0033",
  "linkReferences": {},
  "deployedLinkReferences": {}
}