{
  "_format": "hh-sol-artifact-1",
  "contractName": "LikeCollective",
  "sourceName": "contracts/LikeCollective.sol",
  "abi": [
    {
      "inputs": [],
      "stateMutability": "nonpayable",
      "type": "constructor"
    },
    {
      "inputs": [
        {
          "internalType": "address",
          "name": "target",
          "type": "address"
        }
      ],
      "name": "AddressEmptyCode",
      "type": "error"
    },
    {
      "inputs": [
        {
          "internalType": "address",
          "name": "implementation",
          "type": "address"
        }
      ],
      "name": "ERC1967InvalidImplementation",
      "type": "error"
    },
    {
      "inputs": [],
      "name": "ERC1967NonPayable",
      "type": "error"
    },
    {
      "inputs": [],
      "name": "EnforcedPause",
      "type": "error"
    },
    {
      "inputs": [
        {
          "internalType": "uint256",
          "name": "sumStaked",
          "type": "uint256"
        },
        {
          "internalType": "uint256",
          "name": "expectedTotalStaked",
          "type": "uint256"
        }
      ],
      "name": "ErrIncompletePositionSet",
      "type": "error"
    },
    {
      "inputs": [
        {
          "internalType": "uint256",
          "name": "required",
          "type": "uint256"
        },
        {
          "internalType": "uint256",
          "name": "available",
          "type": "uint256"
        }
      ],
      "name": "ErrInsufficientStake",
      "type": "error"
    },
    {
      "inputs": [],
      "name": "ErrInvalidAmount",
      "type": "error"
    },
    {
      "inputs": [
        {
          "internalType": "address",
          "name": "bookNFT",
          "type": "address"
        }
      ],
      "name": "ErrInvalidBookNFT",
      "type": "error"
    },
    {
      "inputs": [],
      "name": "ErrInvalidOwner",
      "type": "error"
    },
    {
      "inputs": [],
      "name": "ErrNoRewardsToClaim",
      "type": "error"
    },
    {
      "inputs": [
        {
          "internalType": "uint256",
          "name": "tokenId",
          "type": "uint256"
        },
        {
          "internalType": "address",
          "name": "bookNFT",
          "type": "address"
        }
      ],
      "name": "ErrTokenNotInPool",
      "type": "error"
    },
    {
      "inputs": [],
      "name": "ExpectedPause",
      "type": "error"
    },
    {
      "inputs": [],
      "name": "FailedCall",
      "type": "error"
    },
    {
      "inputs": [],
      "name": "InvalidInitialization",
      "type": "error"
    },
    {
      "inputs": [],
      "name": "NotInitializing",
      "type": "error"
    },
    {
      "inputs": [
        {
          "internalType": "address",
          "name": "owner",
          "type": "address"
        }
      ],
      "name": "OwnableInvalidOwner",
      "type": "error"
    },
    {
      "inputs": [
        {
          "internalType": "address",
          "name": "account",
          "type": "address"
        }
      ],
      "name": "OwnableUnauthorizedAccount",
      "type": "error"
    },
    {
      "inputs": [],
      "name": "ReentrancyGuardReentrantCall",
      "type": "error"
    },
    {
      "inputs": [],
      "name": "UUPSUnauthorizedCallContext",
      "type": "error"
    },
    {
      "inputs": [
        {
          "internalType": "bytes32",
          "name": "slot",
          "type": "bytes32"
        }
      ],
      "name": "UUPSUnsupportedProxiableUUID",
      "type": "error"
    },
    {
      "anonymous": false,
      "inputs": [
        {
          "indexed": true,
          "internalType": "address",
          "name": "to",
          "type": "address"
        },
        {
          "indexed": false,
          "internalType": "uint256",
          "name": "amount",
          "type": "uint256"
        }
      ],
      "name": "AdminSwept",
      "type": "event"
    },
    {
      "anonymous": false,
      "inputs": [
        {
          "indexed": true,
          "internalType": "address",
          "name": "account",
          "type": "address"
        },
        {
          "components": [
            {
              "internalType": "address",
              "name": "bookNFT",
              "type": "address"
            },
            {
              "internalType": "uint256",
              "name": "rewardedAmount",
              "type": "uint256"
            }
          ],
          "indexed": false,
          "internalType": "struct LikeCollective.RewardData[]",
          "name": "rewardedAmount",
          "type": "tuple[]"
        }
      ],
      "name": "AllRewardClaimed",
      "type": "event"
    },
    {
      "anonymous": false,
      "inputs": [
        {
          "indexed": false,
          "internalType": "uint64",
          "name": "version",
          "type": "uint64"
        }
      ],
      "name": "Initialized",
      "type": "event"
    },
    {
      "anonymous": false,
      "inputs": [
        {
          "indexed": true,
          "internalType": "address",
          "name": "previousOwner",
          "type": "address"
        },
        {
          "indexed": true,
          "internalType": "address",
          "name": "newOwner",
          "type": "address"
        }
      ],
      "name": "OwnershipTransferred",
      "type": "event"
    },
    {
      "anonymous": false,
      "inputs": [
        {
          "indexed": false,
          "internalType": "address",
          "name": "account",
          "type": "address"
        }
      ],
      "name": "Paused",
      "type": "event"
    },
    {
      "anonymous": false,
      "inputs": [
        {
          "indexed": true,
          "internalType": "address",
          "name": "bookNFT",
          "type": "address"
        },
        {
          "indexed": false,
          "internalType": "uint256",
          "name": "trueTotalStaked",
          "type": "uint256"
        },
        {
          "indexed": false,
          "internalType": "uint256",
          "name": "positionsReset",
          "type": "uint256"
        }
      ],
      "name": "PoolReset",
      "type": "event"
    },
    {
      "anonymous": false,
      "inputs": [
        {
          "indexed": true,
          "internalType": "address",
          "name": "bookNFT",
          "type": "address"
        },
        {
          "indexed": true,
          "internalType": "address",
          "name": "account",
          "type": "address"
        },
        {
          "indexed": false,
          "internalType": "uint256",
          "name": "rewardedAmount",
          "type": "uint256"
        }
      ],
      "name": "RewardClaimed",
      "type": "event"
    },
    {
      "anonymous": false,
      "inputs": [
        {
          "indexed": true,
          "internalType": "address",
          "name": "bookNFT",
          "type": "address"
        },
        {
          "indexed": true,
          "internalType": "address",
          "name": "account",
          "type": "address"
        },
        {
          "indexed": false,
          "internalType": "uint256",
          "name": "rewardedAmount",
          "type": "uint256"
        }
      ],
      "name": "RewardDeposited",
      "type": "event"
    },
    {
      "anonymous": false,
      "inputs": [
        {
          "indexed": true,
          "internalType": "address",
          "name": "bookNFT",
          "type": "address"
        },
        {
          "indexed": true,
          "internalType": "address",
          "name": "account",
          "type": "address"
        },
        {
          "indexed": false,
          "internalType": "uint256",
          "name": "stakedAmount",
          "type": "uint256"
        }
      ],
      "name": "Staked",
      "type": "event"
    },
    {
      "anonymous": false,
      "inputs": [
        {
          "indexed": false,
          "internalType": "address",
          "name": "account",
          "type": "address"
        }
      ],
      "name": "Unpaused",
      "type": "event"
    },
    {
      "anonymous": false,
      "inputs": [
        {
          "indexed": true,
          "internalType": "address",
          "name": "bookNFT",
          "type": "address"
        },
        {
          "indexed": true,
          "internalType": "address",
          "name": "account",
          "type": "address"
        },
        {
          "indexed": false,
          "internalType": "uint256",
          "name": "stakedAmount",
          "type": "uint256"
        }
      ],
      "name": "Unstaked",
      "type": "event"
    },
    {
      "anonymous": false,
      "inputs": [
        {
          "indexed": true,
          "internalType": "address",
          "name": "implementation",
          "type": "address"
        }
      ],
      "name": "Upgraded",
      "type": "event"
    },
    {
      "inputs": [],
      "name": "ACC_REWARD_PRECISION",
      "outputs": [
        {
          "internalType": "uint256",
          "name": "",
          "type": "uint256"
        }
      ],
      "stateMutability": "view",
      "type": "function"
    },
    {
      "inputs": [],
      "name": "UPGRADE_INTERFACE_VERSION",
      "outputs": [
        {
          "internalType": "string",
          "name": "",
          "type": "string"
        }
      ],
      "stateMutability": "view",
      "type": "function"
    },
    {
      "inputs": [
        {
          "internalType": "address",
          "name": "bookNFT",
          "type": "address"
        },
        {
          "internalType": "uint256[]",
          "name": "tokenIds",
          "type": "uint256[]"
        },
        {
          "internalType": "uint256",
          "name": "expectedTotalStaked",
          "type": "uint256"
        }
      ],
      "name": "adminResetPool",
      "outputs": [],
      "stateMutability": "nonpayable",
      "type": "function"
    },
    {
      "inputs": [
        {
          "internalType": "address",
          "name": "to",
          "type": "address"
        },
        {
          "internalType": "uint256",
          "name": "amount",
          "type": "uint256"
        }
      ],
      "name": "adminSweep",
      "outputs": [],
      "stateMutability": "nonpayable",
      "type": "function"
    },
    {
      "inputs": [
        {
          "internalType": "address",
          "name": "user",
          "type": "address"
        }
      ],
      "name": "claimAllRewards",
      "outputs": [],
      "stateMutability": "nonpayable",
      "type": "function"
    },
    {
      "inputs": [
        {
          "internalType": "uint256",
          "name": "tokenId",
          "type": "uint256"
        }
      ],
      "name": "claimRewards",
      "outputs": [],
      "stateMutability": "nonpayable",
      "type": "function"
    },
    {
      "inputs": [
        {
          "internalType": "uint256",
          "name": "tokenID",
          "type": "uint256"
        },
        {
          "internalType": "uint256",
          "name": "amount",
          "type": "uint256"
        }
      ],
      "name": "decreaseStakePosition",
      "outputs": [],
      "stateMutability": "nonpayable",
      "type": "function"
    },
    {
      "inputs": [
        {
          "internalType": "address",
          "name": "bookNFT",
          "type": "address"
        },
        {
          "internalType": "uint256",
          "name": "amount",
          "type": "uint256"
        }
      ],
      "name": "depositReward",
      "outputs": [],
      "stateMutability": "nonpayable",
      "type": "function"
    },
    {
      "inputs": [
        {
          "internalType": "address",
          "name": "user",
          "type": "address"
        },
        {
          "internalType": "address",
          "name": "bookNFT",
          "type": "address"
        }
      ],
      "name": "getPendingRewardsForUser",
      "outputs": [
        {
          "internalType": "uint256",
          "name": "",
          "type": "uint256"
        }
      ],
      "stateMutability": "view",
      "type": "function"
    },
    {
      "inputs": [
        {
          "internalType": "address",
          "name": "bookNFT",
          "type": "address"
        }
      ],
      "name": "getPendingRewardsPool",
      "outputs": [
        {
          "internalType": "uint256",
          "name": "",
          "type": "uint256"
        }
      ],
      "stateMutability": "view",
      "type": "function"
    },
    {
      "inputs": [
        {
          "internalType": "uint256",
          "name": "tokenId",
          "type": "uint256"
        }
      ],
      "name": "getRewardsOfPosition",
      "outputs": [
        {
          "internalType": "uint256",
          "name": "",
          "type": "uint256"
        }
      ],
      "stateMutability": "view",
      "type": "function"
    },
    {
      "inputs": [
        {
          "internalType": "address",
          "name": "user",
          "type": "address"
        },
        {
          "internalType": "address",
          "name": "bookNFT",
          "type": "address"
        }
      ],
      "name": "getStakeForUser",
      "outputs": [
        {
          "internalType": "uint256",
          "name": "",
          "type": "uint256"
        }
      ],
      "stateMutability": "view",
      "type": "function"
    },
    {
      "inputs": [
        {
          "internalType": "address",
          "name": "bookNFT",
          "type": "address"
        }
      ],
      "name": "getTotalStake",
      "outputs": [
        {
          "internalType": "uint256",
          "name": "",
          "type": "uint256"
        }
      ],
      "stateMutability": "view",
      "type": "function"
    },
    {
      "inputs": [
        {
          "internalType": "uint256",
          "name": "tokenID",
          "type": "uint256"
        },
        {
          "internalType": "uint256",
          "name": "amount",
          "type": "uint256"
        }
      ],
      "name": "increaseStakeToPosition",
      "outputs": [],
      "stateMutability": "nonpayable",
      "type": "function"
    },
    {
      "inputs": [
        {
          "internalType": "address",
          "name": "initialOwner",
          "type": "address"
        }
      ],
      "name": "initialize",
      "outputs": [],
      "stateMutability": "nonpayable",
      "type": "function"
    },
    {
      "inputs": [
        {
          "internalType": "address",
          "name": "bookNFT",
          "type": "address"
        },
        {
          "internalType": "uint256",
          "name": "amount",
          "type": "uint256"
        }
      ],
      "name": "newStakePosition",
      "outputs": [],
      "stateMutability": "nonpayable",
      "type": "function"
    },
    {
      "inputs": [],
      "name": "owner",
      "outputs": [
        {
          "internalType": "address",
          "name": "",
          "type": "address"
        }
      ],
      "stateMutability": "view",
      "type": "function"
    },
    {
      "inputs": [],
      "name": "pause",
      "outputs": [],
      "stateMutability": "nonpayable",
      "type": "function"
    },
    {
      "inputs": [],
      "name": "paused",
      "outputs": [
        {
          "internalType": "bool",
          "name": "",
          "type": "bool"
        }
      ],
      "stateMutability": "view",
      "type": "function"
    },
    {
      "inputs": [],
      "name": "proxiableUUID",
      "outputs": [
        {
          "internalType": "bytes32",
          "name": "",
          "type": "bytes32"
        }
      ],
      "stateMutability": "view",
      "type": "function"
    },
    {
      "inputs": [
        {
          "internalType": "uint256",
          "name": "tokenId",
          "type": "uint256"
        }
      ],
      "name": "removeStakePosition",
      "outputs": [],
      "stateMutability": "nonpayable",
      "type": "function"
    },
    {
      "inputs": [],
      "name": "renounceOwnership",
      "outputs": [],
      "stateMutability": "nonpayable",
      "type": "function"
    },
    {
      "inputs": [
        {
          "internalType": "uint256",
          "name": "tokenId",
          "type": "uint256"
        }
      ],
      "name": "restakeRewardPosition",
      "outputs": [],
      "stateMutability": "nonpayable",
      "type": "function"
    },
    {
      "inputs": [
        {
          "internalType": "address",
          "name": "likeStakePosition",
          "type": "address"
        }
      ],
      "name": "setLikeStakePosition",
      "outputs": [],
      "stateMutability": "nonpayable",
      "type": "function"
    },
    {
      "inputs": [
        {
          "internalType": "address",
          "name": "likecoin",
          "type": "address"
        }
      ],
      "name": "setLikecoin",
      "outputs": [],
      "stateMutability": "nonpayable",
      "type": "function"
    },
    {
      "inputs": [
        {
          "internalType": "address",
          "name": "newOwner",
          "type": "address"
        }
      ],
      "name": "transferOwnership",
      "outputs": [],
      "stateMutability": "nonpayable",
      "type": "function"
    },
    {
      "inputs": [],
      "name": "unpause",
      "outputs": [],
      "stateMutability": "nonpayable",
      "type": "function"
    },
    {
      "inputs": [
        {
          "internalType": "address",
          "name": "newImplementation",
          "type": "address"
        },
        {
          "internalType": "bytes",
          "name": "data",
          "type": "bytes"
        }
      ],
      "name": "upgradeToAndCall",
      "outputs": [],
      "stateMutability": "payable",
      "type": "function"
    }
  ],
  "bytecode": "0x60a06040523073ffffffffffffffffffffffffffffffffffffffff1660809073ffffffffffffffffffffffffffffffffffffffff1681525034801561004357600080fd5b5061005261005760201b60201c565b6101de565b600061006761015b60201b60201c565b90508060000160089054906101000a900460ff16156100b2576040517ff92ee8a900000000000000000000000000000000000000000000000000000000815260040160405180910390fd5b67ffffffffffffffff80168160000160009054906101000a900467ffffffffffffffff1667ffffffffffffffff16146101585767ffffffffffffffff8160000160006101000a81548167ffffffffffffffff021916908367ffffffffffffffff1602179055507fc7f505b2f371ae2175ee4913f4499e1f2633a7b5936321eed1cdaeb6115181d267ffffffffffffffff60405161014f91906101c3565b60405180910390a15b50565b60008061016c61017560201b60201c565b90508091505090565b60007ff0c57e16840df040f15088dc2f81fe391c3923bec73e23a9662efc9c229c6a0060001b905090565b600067ffffffffffffffff82169050919050565b6101bd816101a0565b82525050565b60006020820190506101d860008301846101b4565b92915050565b608051614e35610207600039600081816136ee0152818161374301526138fe0152614e356000f3fe6080604052600436106101b75760003560e01c806377eef8f9116100ec578063c4d66de81161008a578063d1c6a23111610064578063d1c6a231146105bd578063d214a7ba146105e8578063e991560f14610611578063f2fde38b1461063a576101b7565b8063c4d66de81461052e578063c86ec26e14610557578063cd083e6214610594576101b7565b80638da5cb5b116100c65780638da5cb5b1461047257806395a247151461049d578063ad3cb1cc146104c6578063bb112623146104f1576101b7565b806377eef8f9146103f55780637db4e28f146104325780638456cb591461045b576101b7565b80634f1ef286116101595780635999b6ae116101335780635999b6ae146103615780635c975abb1461038a578063715018a6146103b557806372a3ae9d146103cc576101b7565b80634f1ef286146102f15780635237c1b81461030d57806352d1902d14610336576101b7565b80632e2c55c6116101955780632e2c55c61461024b5780633f4ba83a1461027457806346ea94641461028b5780634d9453c0146102b4576101b7565b80630962ef79146101bc5780630abe6d56146101e55780631e7ff8f61461020e575b600080fd5b3480156101c857600080fd5b506101e360048036038101906101de91906140b3565b610663565b005b3480156101f157600080fd5b5061020c600480360381019061020791906140e0565b610a9a565b005b34801561021a57600080fd5b506102356004803603810190610230919061417e565b610fb6565b60405161024291906141ba565b60405180910390f35b34801561025757600080fd5b50610272600480360381019061026d91906140b3565b611010565b005b34801561028057600080fd5b506102896114d5565b005b34801561029757600080fd5b506102b260048036038101906102ad919061423a565b6114e7565b005b3480156102c057600080fd5b506102db60048036038101906102d691906142ae565b6117f3565b6040516102e891906141ba565b60405180910390f35b61030b6004803603810190610306919061442f565b611997565b005b34801561031957600080fd5b50610334600480360381019061032f919061448b565b6119b6565b005b34801561034257600080fd5b5061034b611c29565b60405161035891906144e4565b60405180910390f35b34801561036d57600080fd5b506103886004803603810190610383919061448b565b611c5c565b005b34801561039657600080fd5b5061039f611d60565b6040516103ac919061451a565b60405180910390f35b3480156103c157600080fd5b506103ca611d85565b005b3480156103d857600080fd5b506103f360048036038101906103ee919061417e565b611d99565b005b34801561040157600080fd5b5061041c6004803603810190610417919061417e565b611df4565b60405161042991906141ba565b60405180910390f35b34801561043e57600080fd5b506104596004803603810190610454919061448b565b611e4e565b005b34801561046757600080fd5b5061047061201d565b005b34801561047e57600080fd5b5061048761202f565b6040516104949190614544565b60405180910390f35b3480156104a957600080fd5b506104c460048036038101906104bf91906140e0565b612067565b005b3480156104d257600080fd5b506104db61254a565b6040516104e891906145de565b60405180910390f35b3480156104fd57600080fd5b50610518600480360381019061051391906142ae565b612583565b60405161052591906141ba565b60405180910390f35b34801561053a57600080fd5b506105556004803603810190610550919061417e565b6127aa565b005b34801561056357600080fd5b5061057e600480360381019061057991906140b3565b612951565b60405161058b91906141ba565b60405180910390f35b3480156105a057600080fd5b506105bb60048036038101906105b691906140b3565b612963565b005b3480156105c957600080fd5b506105d2612d88565b6040516105df91906141ba565b60405180910390f35b3480156105f457600080fd5b5061060f600480360381019061060a919061417e565b612d94565b005b34801561061d57600080fd5b506106386004803603810190610633919061417e565b612def565b005b34801561064657600080fd5b50610661600480360381019061065c919061417e565b6132f9565b005b61066b61337f565b6106736133c0565b600061067d613417565b905060008160010160009054906101000a900473ffffffffffffffffffffffffffffffffffffffff1673ffffffffffffffffffffffffffffffffffffffff16636352211e846040518263ffffffff1660e01b81526004016106de91906141ba565b602060405180830381865afa1580156106fb573d6000803e3d6000fd5b505050506040513d601f19601f8201168201806040525081019061071f9190614615565b905061072961343f565b73ffffffffffffffffffffffffffffffffffffffff168173ffffffffffffffffffffffffffffffffffffffff161461078d576040517fee77070400000000000000000000000000000000000000000000000000000000815260040160405180910390fd5b60008260010160009054906101000a900473ffffffffffffffffffffffffffffffffffffffff1673ffffffffffffffffffffffffffffffffffffffff1663eb02c301856040518263ffffffff1660e01b81526004016107ec91906141ba565b608060405180830381865afa158015610809573d6000803e3d6000fd5b505050506040513d601f19601f8201168201806040525081019061082d91906146d4565b905060008160000151905060008460020160008373ffffffffffffffffffffffffffffffffffffffff1673ffffffffffffffffffffffffffffffffffffffff1681526020019081526020016000209050600061088887613447565b90508082600201600082825461089e9190614730565b92505081905550808260010160008282546108b99190614764565b925050819055508160030154826004016000898152602001908152602001600020819055508560010160009054906101000a900473ffffffffffffffffffffffffffffffffffffffff1673ffffffffffffffffffffffffffffffffffffffff1663018629928884600301546040518363ffffffff1660e01b8152600401610941929190614798565b600060405180830381600087803b15801561095b57600080fd5b505af115801561096f573d6000803e3d6000fd5b505050508560000160009054906101000a900473ffffffffffffffffffffffffffffffffffffffff1673ffffffffffffffffffffffffffffffffffffffff1663a9059cbb6109bb61343f565b836040518363ffffffff1660e01b81526004016109d99291906147c1565b6020604051808303816000875af11580156109f8573d6000803e3d6000fd5b505050506040513d601f19601f82011682018060405250810190610a1c9190614816565b50610a2561343f565b73ffffffffffffffffffffffffffffffffffffffff168373ffffffffffffffffffffffffffffffffffffffff167f0aa4d283470c904c551d18bb894d37e17674920f3261a7f854be501e25f421b783604051610a8191906141ba565b60405180910390a3505050505050610a976135da565b50565b610aa261337f565b610aaa6133c0565b6000610ab4613417565b905060008160010160009054906101000a900473ffffffffffffffffffffffffffffffffffffffff1673ffffffffffffffffffffffffffffffffffffffff16636352211e856040518263ffffffff1660e01b8152600401610b1591906141ba565b602060405180830381865afa158015610b32573d6000803e3d6000fd5b505050506040513d601f19601f82011682018060405250810190610b569190614615565b9050610b6061343f565b73ffffffffffffffffffffffffffffffffffffffff168173ffffffffffffffffffffffffffffffffffffffff1614610bc4576040517fee77070400000000000000000000000000000000000000000000000000000000815260040160405180910390fd5b60008260010160009054906101000a900473ffffffffffffffffffffffffffffffffffffffff1673ffffffffffffffffffffffffffffffffffffffff1663eb02c301866040518263ffffffff1660e01b8152600401610c2391906141ba565b608060405180830381865afa158015610c40573d6000803e3d6000fd5b505050506040513d601f19601f82011682018060405250810190610c6491906146d4565b90508060200151841115610ca4576040517fb372601600000000000000000000000000000000000000000000000000000000815260040160405180910390fd5b6000610caf86613447565b905060008186610cbf9190614764565b90506000868460200151610cd39190614730565b905060008460000151905060008760020160008373ffffffffffffffffffffffffffffffffffffffff1673ffffffffffffffffffffffffffffffffffffffff1681526020019081526020016000209050888160000154610d339190614730565b8160000181905550848160020154610d4b9190614730565b8160020181905550848160010154610d639190614764565b816001018190555080600301548160040160008c8152602001908152602001600020819055508760010160009054906101000a900473ffffffffffffffffffffffffffffffffffffffff1673ffffffffffffffffffffffffffffffffffffffff16630602e13a8b8584600301546040518463ffffffff1660e01b8152600401610dee93929190614843565b600060405180830381600087803b158015610e0857600080fd5b505af1158015610e1c573d6000803e3d6000fd5b505050508760000160009054906101000a900473ffffffffffffffffffffffffffffffffffffffff1673ffffffffffffffffffffffffffffffffffffffff1663a9059cbb610e6861343f565b866040518363ffffffff1660e01b8152600401610e869291906147c1565b6020604051808303816000875af1158015610ea5573d6000803e3d6000fd5b505050506040513d601f19601f82011682018060405250810190610ec99190614816565b50610ed261343f565b73ffffffffffffffffffffffffffffffffffffffff168273ffffffffffffffffffffffffffffffffffffffff167fd8654fcc8cf5b36d30b3f5e4688fc78118e6d68de60b9994e09902268b57c3e38b604051610f2e91906141ba565b60405180910390a3610f3e61343f565b73ffffffffffffffffffffffffffffffffffffffff168273ffffffffffffffffffffffffffffffffffffffff167f0aa4d283470c904c551d18bb894d37e17674920f3261a7f854be501e25f421b787604051610f9a91906141ba565b60405180910390a35050505050505050610fb26135da565b5050565b600080610fc1613417565b90508060020160008473ffffffffffffffffffffffffffffffffffffffff1673ffffffffffffffffffffffffffffffffffffffff16815260200190815260200160002060000154915050919050565b61101861337f565b6110206133c0565b600061102a613417565b905060008160010160009054906101000a900473ffffffffffffffffffffffffffffffffffffffff1673ffffffffffffffffffffffffffffffffffffffff16636352211e846040518263ffffffff1660e01b815260040161108b91906141ba565b602060405180830381865afa1580156110a8573d6000803e3d6000fd5b505050506040513d601f19601f820116820180604052508101906110cc9190614615565b90506110d661343f565b73ffffffffffffffffffffffffffffffffffffffff168173ffffffffffffffffffffffffffffffffffffffff161461113a576040517fee77070400000000000000000000000000000000000000000000000000000000815260040160405180910390fd5b60008260010160009054906101000a900473ffffffffffffffffffffffffffffffffffffffff1673ffffffffffffffffffffffffffffffffffffffff1663eb02c301856040518263ffffffff1660e01b815260040161119991906141ba565b608060405180830381865afa1580156111b6573d6000803e3d6000fd5b505050506040513d601f19601f820116820180604052508101906111da91906146d4565b905060008160200151905060006111f086613447565b9050600081836112009190614764565b905060008460000151905060008760020160008373ffffffffffffffffffffffffffffffffffffffff1673ffffffffffffffffffffffffffffffffffffffff16815260200190815260200160002090508481600001546112609190614730565b81600001819055508381600101546112789190614764565b81600101819055508381600201546112909190614730565b81600201819055508060040160008a8152602001908152602001600020600090558760010160009054906101000a900473ffffffffffffffffffffffffffffffffffffffff1673ffffffffffffffffffffffffffffffffffffffff166338ca63bc8a6040518263ffffffff1660e01b815260040161130e91906141ba565b600060405180830381600087803b15801561132857600080fd5b505af115801561133c573d6000803e3d6000fd5b505050508760000160009054906101000a900473ffffffffffffffffffffffffffffffffffffffff1673ffffffffffffffffffffffffffffffffffffffff1663a9059cbb61138861343f565b856040518363ffffffff1660e01b81526004016113a69291906147c1565b6020604051808303816000875af11580156113c5573d6000803e3d6000fd5b505050506040513d601f19601f820116820180604052508101906113e99190614816565b506113f261343f565b73ffffffffffffffffffffffffffffffffffffffff168273ffffffffffffffffffffffffffffffffffffffff167f0aa4d283470c904c551d18bb894d37e17674920f3261a7f854be501e25f421b78660405161144e91906141ba565b60405180910390a361145e61343f565b73ffffffffffffffffffffffffffffffffffffffff168273ffffffffffffffffffffffffffffffffffffffff167fd8654fcc8cf5b36d30b3f5e4688fc78118e6d68de60b9994e09902268b57c3e3876040516114ba91906141ba565b60405180910390a350505050505050506114d26135da565b50565b6114dd6135f3565b6114e561367a565b565b6114ef6135f3565b60006114f9613417565b905060008160020160008773ffffffffffffffffffffffffffffffffffffffff1673ffffffffffffffffffffffffffffffffffffffff168152602001908152602001600020905060008260010160009054906101000a900473ffffffffffffffffffffffffffffffffffffffff1690506000805b8787905081101561173257600088888381811061158d5761158c61487a565b5b90506020020135905060008473ffffffffffffffffffffffffffffffffffffffff1663eb02c301836040518263ffffffff1660e01b81526004016115d191906141ba565b608060405180830381865afa1580156115ee573d6000803e3d6000fd5b505050506040513d601f19601f8201168201806040525081019061161291906146d4565b90508a73ffffffffffffffffffffffffffffffffffffffff16816000015173ffffffffffffffffffffffffffffffffffffffff161461168a57818b6040517f3c3cefd30000000000000000000000000000000000000000000000000000000081526004016116819291906148a9565b60405180910390fd5b80602001518461169a9190614764565b93506000866004016000848152602001908152602001600020819055508473ffffffffffffffffffffffffffffffffffffffff1663018629928360006040518363ffffffff1660e01b81526004016116f3929190614917565b600060405180830381600087803b15801561170d57600080fd5b505af1158015611721573d6000803e3d6000fd5b50505050505080600101905061156d565b508481146117795780856040517f9e5cf738000000000000000000000000000000000000000000000000000000008152600401611770929190614798565b60405180910390fd5b80836000018190555060008360030181905550600083600201819055508773ffffffffffffffffffffffffffffffffffffffff167f9ec59a911e43bd22b37daeec1698610e0a86065efbcdd7a8542fa41e00675a9e82898990506040516117e1929190614798565b60405180910390a25050505050505050565b6000806117fe613417565b905060008160010160009054906101000a900473ffffffffffffffffffffffffffffffffffffffff1673ffffffffffffffffffffffffffffffffffffffff16630d998e5d86866040518363ffffffff1660e01b8152600401611861929190614940565b600060405180830381865afa15801561187e573d6000803e3d6000fd5b505050506040513d6000823e3d601f19601f820116820180604052508101906118a79190614a2c565b90506000805b825181101561198a578360010160009054906101000a900473ffffffffffffffffffffffffffffffffffffffff1673ffffffffffffffffffffffffffffffffffffffff1663eb02c3018483815181106119095761190861487a565b5b60200260200101516040518263ffffffff1660e01b815260040161192d91906141ba565b608060405180830381865afa15801561194a573d6000803e3d6000fd5b505050506040513d601f19601f8201168201806040525081019061196e91906146d4565b602001518261197d9190614764565b91508060010190506118ad565b5080935050505092915050565b61199f6136ec565b6119a8826137d2565b6119b282826137dd565b5050565b6119be61337f565b6119c66133c0565b60006119d0613417565b905060008160020160008573ffffffffffffffffffffffffffffffffffffffff1673ffffffffffffffffffffffffffffffffffffffff16815260200190815260200160002090508160000160009054906101000a900473ffffffffffffffffffffffffffffffffffffffff1673ffffffffffffffffffffffffffffffffffffffff166323b872dd611a5f61343f565b30866040518463ffffffff1660e01b8152600401611a7f93929190614a75565b6020604051808303816000875af1158015611a9e573d6000803e3d6000fd5b505050506040513d601f19601f82011682018060405250810190611ac29190614816565b5060008260010160009054906101000a900473ffffffffffffffffffffffffffffffffffffffff1673ffffffffffffffffffffffffffffffffffffffff166309fbb2d7611b0d61343f565b878786600301546040518563ffffffff1660e01b8152600401611b339493929190614aac565b6020604051808303816000875af1158015611b52573d6000803e3d6000fd5b505050506040513d601f19601f82011682018060405250810190611b769190614af1565b9050838260000154611b889190614764565b8260000181905550816003015482600401600083815260200190815260200160002081905550611bb661343f565b73ffffffffffffffffffffffffffffffffffffffff168573ffffffffffffffffffffffffffffffffffffffff167f5dac0c1b1112564a045ba943c9d50270893e8e826c49be8e7073adc713ab7bd786604051611c1291906141ba565b60405180910390a3505050611c256135da565b5050565b6000611c336138fc565b7f360894a13ba1a3210667c828492db98dca3e2076cc3735a920a3ca505d382bbc60001b905090565b611c646135f3565b611c6c613417565b60000160009054906101000a900473ffffffffffffffffffffffffffffffffffffffff1673ffffffffffffffffffffffffffffffffffffffff1663a9059cbb83836040518363ffffffff1660e01b8152600401611cca9291906147c1565b6020604051808303816000875af1158015611ce9573d6000803e3d6000fd5b505050506040513d601f19601f82011682018060405250810190611d0d9190614816565b508173ffffffffffffffffffffffffffffffffffffffff167fec2c46390af74bdb7214e83d278143ff4a76bbfaa3076a23c52bac3bb2db5ef582604051611d5491906141ba565b60405180910390a25050565b600080611d6b613983565b90508060000160009054906101000a900460ff1691505090565b611d8d6135f3565b611d9760006139ab565b565b611da16135f3565b6000611dab613417565b9050818160000160006101000a81548173ffffffffffffffffffffffffffffffffffffffff021916908373ffffffffffffffffffffffffffffffffffffffff1602179055505050565b600080611dff613417565b90508060020160008473ffffffffffffffffffffffffffffffffffffffff1673ffffffffffffffffffffffffffffffffffffffff16815260200190815260200160002060020154915050919050565b611e5661337f565b6000611e60613417565b90508060000160009054906101000a900473ffffffffffffffffffffffffffffffffffffffff1673ffffffffffffffffffffffffffffffffffffffff166323b872dd611eaa61343f565b30856040518463ffffffff1660e01b8152600401611eca93929190614a75565b6020604051808303816000875af1158015611ee9573d6000803e3d6000fd5b505050506040513d601f19601f82011682018060405250810190611f0d9190614816565b5060008160020160008573ffffffffffffffffffffffffffffffffffffffff1673ffffffffffffffffffffffffffffffffffffffff168152602001908152602001600020905082816002016000828254611f679190614764565b925050819055508060000154670de0b6b3a764000084611f879190614b1e565b611f919190614b8f565b816003016000828254611fa49190614764565b92505081905550611fb361343f565b73ffffffffffffffffffffffffffffffffffffffff168473ffffffffffffffffffffffffffffffffffffffff167fecc7fa2c9c08fa68f2c2942d64a9c92b602004694d2a128c2a034cff48990f518560405161200f91906141ba565b60405180910390a350505050565b6120256135f3565b61202d613a82565b565b60008061203a613af4565b90508060000160009054906101000a900473ffffffffffffffffffffffffffffffffffffffff1691505090565b61206f61337f565b6120776133c0565b6000612081613417565b905060008160010160009054906101000a900473ffffffffffffffffffffffffffffffffffffffff1673ffffffffffffffffffffffffffffffffffffffff16636352211e856040518263ffffffff1660e01b81526004016120e291906141ba565b602060405180830381865afa1580156120ff573d6000803e3d6000fd5b505050506040513d601f19601f820116820180604052508101906121239190614615565b905061212d61343f565b73ffffffffffffffffffffffffffffffffffffffff168173ffffffffffffffffffffffffffffffffffffffff1614612191576040517fee77070400000000000000000000000000000000000000000000000000000000815260040160405180910390fd5b8160000160009054906101000a900473ffffffffffffffffffffffffffffffffffffffff1673ffffffffffffffffffffffffffffffffffffffff166323b872dd6121d961343f565b30866040518463ffffffff1660e01b81526004016121f993929190614a75565b6020604051808303816000875af1158015612218573d6000803e3d6000fd5b505050506040513d601f19601f8201168201806040525081019061223c9190614816565b5060008260010160009054906101000a900473ffffffffffffffffffffffffffffffffffffffff1673ffffffffffffffffffffffffffffffffffffffff1663eb02c301866040518263ffffffff1660e01b815260040161229c91906141ba565b608060405180830381865afa1580156122b9573d6000803e3d6000fd5b505050506040513d601f19601f820116820180604052508101906122dd91906146d4565b905060006122ea86613447565b9050600081866122fa9190614764565b9050600081846020015161230e9190614764565b905060008460000151905060008760020160008373ffffffffffffffffffffffffffffffffffffffff1673ffffffffffffffffffffffffffffffffffffffff1681526020019081526020016000209050838160000160008282546123729190614764565b925050819055508481600201546123899190614730565b81600201819055508481600101546123a19190614764565b816001018190555080600301548160040160008c8152602001908152602001600020819055508760010160009054906101000a900473ffffffffffffffffffffffffffffffffffffffff1673ffffffffffffffffffffffffffffffffffffffff16630602e13a8b8584600301546040518463ffffffff1660e01b815260040161242c93929190614843565b600060405180830381600087803b15801561244657600080fd5b505af115801561245a573d6000803e3d6000fd5b5050505061246661343f565b73ffffffffffffffffffffffffffffffffffffffff168273ffffffffffffffffffffffffffffffffffffffff167f5dac0c1b1112564a045ba943c9d50270893e8e826c49be8e7073adc713ab7bd7866040516124c291906141ba565b60405180910390a36124d261343f565b73ffffffffffffffffffffffffffffffffffffffff168273ffffffffffffffffffffffffffffffffffffffff167f0aa4d283470c904c551d18bb894d37e17674920f3261a7f854be501e25f421b78760405161252e91906141ba565b60405180910390a350505050505050506125466135da565b5050565b6040518060400160405280600581526020017f352e302e3000000000000000000000000000000000000000000000000000000081525081565b60008061258e613417565b905060008160020160008573ffffffffffffffffffffffffffffffffffffffff1673ffffffffffffffffffffffffffffffffffffffff16815260200190815260200160002060030154905060008260010160009054906101000a900473ffffffffffffffffffffffffffffffffffffffff1673ffffffffffffffffffffffffffffffffffffffff16630d998e5d87876040518363ffffffff1660e01b815260040161263a929190614940565b600060405180830381865afa158015612657573d6000803e3d6000fd5b505050506040513d6000823e3d601f19601f820116820180604052508101906126809190614a2c565b90506000805b825181101561279c5760008560010160009054906101000a900473ffffffffffffffffffffffffffffffffffffffff1673ffffffffffffffffffffffffffffffffffffffff1663eb02c3018584815181106126e4576126e361487a565b5b60200260200101516040518263ffffffff1660e01b815260040161270891906141ba565b608060405180830381865afa158015612725573d6000803e3d6000fd5b505050506040513d601f19601f8201168201806040525081019061274991906146d4565b90506000670de0b6b3a76400008260400151876127669190614730565b83602001516127759190614b1e565b61277f9190614b8f565b9050808461278d9190614764565b93505050806001019050612686565b508094505050505092915050565b60006127b4613b1c565b905060008160000160089054906101000a900460ff1615905060008260000160009054906101000a900467ffffffffffffffff1690506000808267ffffffffffffffff161480156128025750825b9050600060018367ffffffffffffffff16148015612837575060003073ffffffffffffffffffffffffffffffffffffffff163b145b905081158015612845575080155b1561287c576040517ff92ee8a900000000000000000000000000000000000000000000000000000000815260040160405180910390fd5b60018560000160006101000a81548167ffffffffffffffff021916908367ffffffffffffffff16021790555083156128cc5760018560000160086101000a81548160ff0219169083151502179055505b6128d4613b30565b6128dd86613b3a565b6128e5613b4e565b6128ed613b58565b83156129495760008560000160086101000a81548160ff0219169083151502179055507fc7f505b2f371ae2175ee4913f4499e1f2633a7b5936321eed1cdaeb6115181d260016040516129409190614c0f565b60405180910390a15b505050505050565b600061295c82613447565b9050919050565b61296b61337f565b6129736133c0565b600061297d613417565b905060008160010160009054906101000a900473ffffffffffffffffffffffffffffffffffffffff1673ffffffffffffffffffffffffffffffffffffffff16636352211e846040518263ffffffff1660e01b81526004016129de91906141ba565b602060405180830381865afa1580156129fb573d6000803e3d6000fd5b505050506040513d601f19601f82011682018060405250810190612a1f9190614615565b9050612a2961343f565b73ffffffffffffffffffffffffffffffffffffffff168173ffffffffffffffffffffffffffffffffffffffff1614612a8d576040517fee77070400000000000000000000000000000000000000000000000000000000815260040160405180910390fd5b60008260010160009054906101000a900473ffffffffffffffffffffffffffffffffffffffff1673ffffffffffffffffffffffffffffffffffffffff1663eb02c301856040518263ffffffff1660e01b8152600401612aec91906141ba565b608060405180830381865afa158015612b09573d6000803e3d6000fd5b505050506040513d601f19601f82011682018060405250810190612b2d91906146d4565b90506000612b3a85613447565b905060008260000151905060008560020160008373ffffffffffffffffffffffffffffffffffffffff1673ffffffffffffffffffffffffffffffffffffffff168152602001908152602001600020905082816000016000828254612b9e9190614764565b9250508190555082816002016000828254612bb99190614730565b9250508190555082816001016000828254612bd49190614764565b925050819055508060030154816004016000898152602001908152602001600020819055508560010160009054906101000a900473ffffffffffffffffffffffffffffffffffffffff1673ffffffffffffffffffffffffffffffffffffffff16630602e13a88858760200151612c4a9190614764565b84600301546040518463ffffffff1660e01b8152600401612c6d93929190614843565b600060405180830381600087803b158015612c8757600080fd5b505af1158015612c9b573d6000803e3d6000fd5b50505050612ca761343f565b73ffffffffffffffffffffffffffffffffffffffff168273ffffffffffffffffffffffffffffffffffffffff167f0aa4d283470c904c551d18bb894d37e17674920f3261a7f854be501e25f421b785604051612d0391906141ba565b60405180910390a3612d1361343f565b73ffffffffffffffffffffffffffffffffffffffff168273ffffffffffffffffffffffffffffffffffffffff167f5dac0c1b1112564a045ba943c9d50270893e8e826c49be8e7073adc713ab7bd785604051612d6f91906141ba565b60405180910390a3505050505050612d856135da565b50565b670de0b6b3a764000081565b612d9c6135f3565b6000612da6613417565b9050818160010160006101000a81548173ffffffffffffffffffffffffffffffffffffffff021916908373ffffffffffffffffffffffffffffffffffffffff1602179055505050565b612df761337f565b612dff6133c0565b612e0761343f565b73ffffffffffffffffffffffffffffffffffffffff168173ffffffffffffffffffffffffffffffffffffffff1614612e6b576040517fee77070400000000000000000000000000000000000000000000000000000000815260040160405180910390fd5b6000612e75613417565b905060008160010160009054906101000a900473ffffffffffffffffffffffffffffffffffffffff1673ffffffffffffffffffffffffffffffffffffffff16632a6bc2dd846040518263ffffffff1660e01b8152600401612ed69190614544565b600060405180830381865afa158015612ef3573d6000803e3d6000fd5b505050506040513d6000823e3d601f19601f82011682018060405250810190612f1c9190614a2c565b9050600080825167ffffffffffffffff811115612f3c57612f3b614304565b5b604051908082528060200260200182016040528015612f7557816020015b612f62614039565b815260200190600190039081612f5a5790505b50905060005b83518110156131ea576000848281518110612f9957612f9861487a565b5b602002602001015190506000612fae82613447565b905060008760010160009054906101000a900473ffffffffffffffffffffffffffffffffffffffff1673ffffffffffffffffffffffffffffffffffffffff1663eb02c301846040518263ffffffff1660e01b815260040161300f91906141ba565b608060405180830381865afa15801561302c573d6000803e3d6000fd5b505050506040513d601f19601f8201168201806040525081019061305091906146d4565b60000151905060008860020160008373ffffffffffffffffffffffffffffffffffffffff1673ffffffffffffffffffffffffffffffffffffffff1681526020019081526020016000209050828160020160008282546130af9190614730565b92505081905550828160010160008282546130ca9190614764565b925050819055508060030154816004016000868152602001908152602001600020819055508860010160009054906101000a900473ffffffffffffffffffffffffffffffffffffffff1673ffffffffffffffffffffffffffffffffffffffff1663018629928583600301546040518363ffffffff1660e01b8152600401613152929190614798565b600060405180830381600087803b15801561316c57600080fd5b505af1158015613180573d6000803e3d6000fd5b5050505060405180604001604052808373ffffffffffffffffffffffffffffffffffffffff168152602001848152508686815181106131c2576131c161487a565b5b602002602001018190525082876131d99190614764565b965050505050806001019050612f7b565b508360000160009054906101000a900473ffffffffffffffffffffffffffffffffffffffff1673ffffffffffffffffffffffffffffffffffffffff1663a9059cbb61323361343f565b846040518363ffffffff1660e01b81526004016132519291906147c1565b6020604051808303816000875af1158015613270573d6000803e3d6000fd5b505050506040513d601f19601f820116820180604052508101906132949190614816565b5061329d61343f565b73ffffffffffffffffffffffffffffffffffffffff167f445449d0ab504db2855634394b8408e0b876b052ce974f14e16baa7cfe2a987c826040516132e29190614d26565b60405180910390a2505050506132f66135da565b50565b6133016135f3565b600073ffffffffffffffffffffffffffffffffffffffff168173ffffffffffffffffffffffffffffffffffffffff16036133735760006040517f1e4fbdf700000000000000000000000000000000000000000000000000000000815260040161336a9190614544565b60405180910390fd5b61337c816139ab565b50565b613387611d60565b156133be576040517fd93c066500000000000000000000000000000000000000000000000000000000815260040160405180910390fd5b565b60006133ca613b6a565b9050600281600001540361340a576040517f3ee5aeb500000000000000000000000000000000000000000000000000000000815260040160405180910390fd5b6002816000018190555050565b60007fe9c9d9e1df02920d747aa7516ca1d4362d70267096e6330bcfb24b265ac2ee00905090565b600033905090565b600080613452613417565b905060008160010160009054906101000a900473ffffffffffffffffffffffffffffffffffffffff1673ffffffffffffffffffffffffffffffffffffffff1663eb02c301856040518263ffffffff1660e01b81526004016134b391906141ba565b608060405180830381865afa1580156134d0573d6000803e3d6000fd5b505050506040513d601f19601f820116820180604052508101906134f491906146d4565b90506000826002016000836000015173ffffffffffffffffffffffffffffffffffffffff1673ffffffffffffffffffffffffffffffffffffffff1681526020019081526020016000206003015490506000836002016000846000015173ffffffffffffffffffffffffffffffffffffffff1673ffffffffffffffffffffffffffffffffffffffff1681526020019081526020016000206004016000878152602001908152602001600020549050670de0b6b3a764000081836135b69190614730565b84602001516135c59190614b1e565b6135cf9190614b8f565b945050505050919050565b60006135e4613b6a565b90506001816000018190555050565b6135fb61343f565b73ffffffffffffffffffffffffffffffffffffffff1661361961202f565b73ffffffffffffffffffffffffffffffffffffffff16146136785761363c61343f565b6040517f118cdaa700000000000000000000000000000000000000000000000000000000815260040161366f9190614544565b60405180910390fd5b565b613682613b92565b600061368c613983565b905060008160000160006101000a81548160ff0219169083151502179055507f5db9ee0a495bf2e6ff9c91a7834c1ba4fdd244a5e8aa4e537bd38aeae4b073aa6136d461343f565b6040516136e19190614544565b60405180910390a150565b7f000000000000000000000000000000000000000000000000000000000000000073ffffffffffffffffffffffffffffffffffffffff163073ffffffffffffffffffffffffffffffffffffffff16148061379957507f000000000000000000000000000000000000000000000000000000000000000073ffffffffffffffffffffffffffffffffffffffff16613780613bd2565b73ffffffffffffffffffffffffffffffffffffffff1614155b156137d0576040517fe07c8dba00000000000000000000000000000000000000000000000000000000815260040160405180910390fd5b565b6137da6135f3565b50565b8173ffffffffffffffffffffffffffffffffffffffff166352d1902d6040518163ffffffff1660e01b8152600401602060405180830381865afa92505050801561384557506040513d601f19601f820116820180604052508101906138429190614d74565b60015b61388657816040517f4c9c8ce300000000000000000000000000000000000000000000000000000000815260040161387d9190614544565b60405180910390fd5b7f360894a13ba1a3210667c828492db98dca3e2076cc3735a920a3ca505d382bbc60001b81146138ed57806040517faa1d49a40000000000000000000000000000000000000000000000000000000081526004016138e491906144e4565b60405180910390fd5b6138f78383613c29565b505050565b7f000000000000000000000000000000000000000000000000000000000000000073ffffffffffffffffffffffffffffffffffffffff163073ffffffffffffffffffffffffffffffffffffffff1614613981576040517fe07c8dba00000000000000000000000000000000000000000000000000000000815260040160405180910390fd5b565b60007fcd5ed15c6e187e77e9aee88184c21f4f2182ab5827cb3b7e07fbedcd63f03300905090565b60006139b5613af4565b905060008160000160009054906101000a900473ffffffffffffffffffffffffffffffffffffffff169050828260000160006101000a81548173ffffffffffffffffffffffffffffffffffffffff021916908373ffffffffffffffffffffffffffffffffffffffff1602179055508273ffffffffffffffffffffffffffffffffffffffff168173ffffffffffffffffffffffffffffffffffffffff167f8be0079c531659141344cd1fd0a4f28419497f9722a3daafe3b4186f6b6457e060405160405180910390a3505050565b613a8a61337f565b6000613a94613983565b905060018160000160006101000a81548160ff0219169083151502179055507f62e78cea01bee320cd4e420270b5ea74000d11b0c9f74754ebdbfc544b05a258613adc61343f565b604051613ae99190614544565b60405180910390a150565b60007f9016d09d72d40fdae2fd8ceac6b6234c7706214fd39c1cd1e609a0528c199300905090565b600080613b27613c9c565b90508091505090565b613b38613cc7565b565b613b42613cc7565b613b4b81613d07565b50565b613b56613cc7565b565b613b60613cc7565b613b68613d8d565b565b60007f9b779b17422d0df92223018b32b4d1fa46e071723d6817e2486d003becc55f00905090565b613b9a611d60565b613bd0576040517f8dfc202b00000000000000000000000000000000000000000000000000000000815260040160405180910390fd5b565b6000613c007f360894a13ba1a3210667c828492db98dca3e2076cc3735a920a3ca505d382bbc60001b613dae565b60000160009054906101000a900473ffffffffffffffffffffffffffffffffffffffff16905090565b613c3282613db8565b8173ffffffffffffffffffffffffffffffffffffffff167fbc7cd75a20ee27fd9adebab32041f755214dbc6bffa90cc0225b39da2e5c2d3b60405160405180910390a2600081511115613c8f57613c898282613e85565b50613c98565b613c97613f09565b5b5050565b60007ff0c57e16840df040f15088dc2f81fe391c3923bec73e23a9662efc9c229c6a0060001b905090565b613ccf613f46565b613d05576040517fd7e6bcf800000000000000000000000000000000000000000000000000000000815260040160405180910390fd5b565b613d0f613cc7565b600073ffffffffffffffffffffffffffffffffffffffff168173ffffffffffffffffffffffffffffffffffffffff1603613d815760006040517f1e4fbdf7000000000000000000000000000000000000000000000000000000008152600401613d789190614544565b60405180910390fd5b613d8a816139ab565b50565b613d95613cc7565b6000613d9f613b6a565b90506001816000018190555050565b6000819050919050565b60008173ffffffffffffffffffffffffffffffffffffffff163b03613e1457806040517f4c9c8ce3000000000000000000000000000000000000000000000000000000008152600401613e0b9190614544565b60405180910390fd5b80613e417f360894a13ba1a3210667c828492db98dca3e2076cc3735a920a3ca505d382bbc60001b613dae565b60000160006101000a81548173ffffffffffffffffffffffffffffffffffffffff021916908373ffffffffffffffffffffffffffffffffffffffff16021790555050565b60606000808473ffffffffffffffffffffffffffffffffffffffff1684604051613eaf9190614de8565b600060405180830381855af49150503d8060008114613eea576040519150601f19603f3d011682016040523d82523d6000602084013e613eef565b606091505b5091509150613eff858383613f66565b9250505092915050565b6000341115613f44576040517fb398979f00000000000000000000000000000000000000000000000000000000815260040160405180910390fd5b565b6000613f50613b1c565b60000160089054906101000a900460ff16905090565b606082613f7b57613f7682613ff5565b613fed565b60008251148015613fa3575060008473ffffffffffffffffffffffffffffffffffffffff163b145b15613fe557836040517f9996b315000000000000000000000000000000000000000000000000000000008152600401613fdc9190614544565b60405180910390fd5b819050613fee565b5b9392505050565b60008151111561400757805160208201fd5b6040517fd6bda27500000000000000000000000000000000000000000000000000000000815260040160405180910390fd5b6040518060400160405280600073ffffffffffffffffffffffffffffffffffffffff168152602001600081525090565b6000604051905090565b600080fd5b600080fd5b6000819050919050565b6140908161407d565b811461409b57600080fd5b50565b6000813590506140ad81614087565b92915050565b6000602082840312156140c9576140c8614073565b5b60006140d78482850161409e565b91505092915050565b600080604083850312156140f7576140f6614073565b5b60006141058582860161409e565b92505060206141168582860161409e565b9150509250929050565b600073ffffffffffffffffffffffffffffffffffffffff82169050919050565b600061414b82614120565b9050919050565b61415b81614140565b811461416657600080fd5b50565b60008135905061417881614152565b92915050565b60006020828403121561419457614193614073565b5b60006141a284828501614169565b91505092915050565b6141b48161407d565b82525050565b60006020820190506141cf60008301846141ab565b92915050565b600080fd5b600080fd5b600080fd5b60008083601f8401126141fa576141f96141d5565b5b8235905067ffffffffffffffff811115614217576142166141da565b5b602083019150836020820283011115614233576142326141df565b5b9250929050565b6000806000806060858703121561425457614253614073565b5b600061426287828801614169565b945050602085013567ffffffffffffffff81111561428357614282614078565b5b61428f878288016141e4565b935093505060406142a28782880161409e565b91505092959194509250565b600080604083850312156142c5576142c4614073565b5b60006142d385828601614169565b92505060206142e485828601614169565b9150509250929050565b600080fd5b6000601f19601f8301169050919050565b7f4e487b7100000000000000000000000000000000000000000000000000000000600052604160045260246000fd5b61433c826142f3565b810181811067ffffffffffffffff8211171561435b5761435a614304565b5b80604052505050565b600061436e614069565b905061437a8282614333565b919050565b600067ffffffffffffffff82111561439a57614399614304565b5b6143a3826142f3565b9050602081019050919050565b82818337600083830152505050565b60006143d26143cd8461437f565b614364565b9050828152602081018484840111156143ee576143ed6142ee565b5b6143f98482856143b0565b509392505050565b600082601f830112614416576144156141d5565b5b81356144268482602086016143bf565b91505092915050565b6000806040838503121561444657614445614073565b5b600061445485828601614169565b925050602083013567ffffffffffffffff81111561447557614474614078565b5b61448185828601614401565b9150509250929050565b600080604083850312156144a2576144a1614073565b5b60006144b085828601614169565b92505060206144c18582860161409e565b9150509250929050565b6000819050919050565b6144de816144cb565b82525050565b60006020820190506144f960008301846144d5565b92915050565b60008115159050919050565b614514816144ff565b82525050565b600060208201905061452f600083018461450b565b92915050565b61453e81614140565b82525050565b60006020820190506145596000830184614535565b92915050565b600081519050919050565b600082825260208201905092915050565b60005b8381101561459957808201518184015260208101905061457e565b60008484015250505050565b60006145b08261455f565b6145ba818561456a565b93506145ca81856020860161457b565b6145d3816142f3565b840191505092915050565b600060208201905081810360008301526145f881846145a5565b905092915050565b60008151905061460f81614152565b92915050565b60006020828403121561462b5761462a614073565b5b600061463984828501614600565b91505092915050565b600080fd5b60008151905061465681614087565b92915050565b60006080828403121561467257614671614642565b5b61467c6080614364565b9050600061468c84828501614600565b60008301525060206146a084828501614647565b60208301525060406146b484828501614647565b60408301525060606146c884828501614600565b60608301525092915050565b6000608082840312156146ea576146e9614073565b5b60006146f88482850161465c565b91505092915050565b7f4e487b7100000000000000000000000000000000000000000000000000000000600052601160045260246000fd5b600061473b8261407d565b91506147468361407d565b925082820390508181111561475e5761475d614701565b5b92915050565b600061476f8261407d565b915061477a8361407d565b925082820190508082111561479257614791614701565b5b92915050565b60006040820190506147ad60008301856141ab565b6147ba60208301846141ab565b9392505050565b60006040820190506147d66000830185614535565b6147e360208301846141ab565b9392505050565b6147f3816144ff565b81146147fe57600080fd5b50565b600081519050614810816147ea565b92915050565b60006020828403121561482c5761482b614073565b5b600061483a84828501614801565b91505092915050565b600060608201905061485860008301866141ab565b61486560208301856141ab565b61487260408301846141ab565b949350505050565b7f4e487b7100000000000000000000000000000000000000000000000000000000600052603260045260246000fd5b60006040820190506148be60008301856141ab565b6148cb6020830184614535565b9392505050565b6000819050919050565b6000819050919050565b60006149016148fc6148f7846148d2565b6148dc565b61407d565b9050919050565b614911816148e6565b82525050565b600060408201905061492c60008301856141ab565b6149396020830184614908565b9392505050565b60006040820190506149556000830185614535565b6149626020830184614535565b9392505050565b600067ffffffffffffffff82111561498457614983614304565b5b602082029050602081019050919050565b60006149a86149a384614969565b614364565b905080838252602082019050602084028301858111156149cb576149ca6141df565b5b835b818110156149f457806149e08882614647565b8452602084019350506020810190506149cd565b5050509392505050565b600082601f830112614a1357614a126141d5565b5b8151614a23848260208601614995565b91505092915050565b600060208284031215614a4257614a41614073565b5b600082015167ffffffffffffffff811115614a6057614a5f614078565b5b614a6c848285016149fe565b91505092915050565b6000606082019050614a8a6000830186614535565b614a976020830185614535565b614aa460408301846141ab565b949350505050565b6000608082019050614ac16000830187614535565b614ace6020830186614535565b614adb60408301856141ab565b614ae860608301846141ab565b95945050505050565b600060208284031215614b0757614b06614073565b5b6000614b1584828501614647565b91505092915050565b6000614b298261407d565b9150614b348361407d565b9250828202614b428161407d565b91508282048414831517614b5957614b58614701565b5b5092915050565b7f4e487b7100000000000000000000000000000000000000000000000000000000600052601260045260246000fd5b6000614b9a8261407d565b9150614ba58361407d565b925082614bb557614bb4614b60565b5b828204905092915050565b6000819050919050565b600067ffffffffffffffff82169050919050565b6000614bf9614bf4614bef84614bc0565b6148dc565b614bca565b9050919050565b614c0981614bde565b82525050565b6000602082019050614c246000830184614c00565b92915050565b600081519050919050565b600082825260208201905092915050565b6000819050602082019050919050565b614c5f81614140565b82525050565b614c6e8161407d565b82525050565b604082016000820151614c8a6000850182614c56565b506020820151614c9d6020850182614c65565b50505050565b6000614caf8383614c74565b60408301905092915050565b6000602082019050919050565b6000614cd382614c2a565b614cdd8185614c35565b9350614ce883614c46565b8060005b83811015614d19578151614d008882614ca3565b9750614d0b83614cbb565b925050600181019050614cec565b5085935050505092915050565b60006020820190508181036000830152614d408184614cc8565b905092915050565b614d51816144cb565b8114614d5c57600080fd5b50565b600081519050614d6e81614d48565b92915050565b600060208284031215614d8a57614d89614073565b5b6000614d9884828501614d5f565b91505092915050565b600081519050919050565b600081905092915050565b6000614dc282614da1565b614dcc8185614dac565b9350614ddc81856020860161457b565b80840191505092915050565b6000614df48284614db7565b91508190509291505056fea2646970667358221220c8f81ab5b345788b770370c1beebda04fe1350504dea24ec91b8c324d15bbcaf64736f6c634300081c0033",
  "linkReferences": {},
  "deployedLinkReferences": {}
}