{
  "_format": "hh-sol-artifact-1",
  "contractName": "LikeCollective",
  "sourceName": "contracts/LikeCollective.sol",
  "abi": [
    {
      "inputs": [],
      "stateMutability": "nonpayable",
      "type": "constructor"
    },
    {
      "inputs": [
        {
          "internalType": "address",
          "name": "target",
          "type": "address"
        }
      ],
      "name": "AddressEmptyCode",
      "type": "error"
    },
    {
      "inputs": [
        {
          "internalType": "address",
          "name": "implementation",
          "type": "address"
        }
      ],
      "name": "ERC1967InvalidImplementation",
      "type": "error"
    },
    {
      "inputs": [],
      "name": "ERC1967NonPayable",
      "type": "error"
    },
    {
      "inputs": [],
      "name": "EnforcedPause",
      "type": "error"
    },
    {
      "inputs": [
        {
          "internalType": "uint256",
          "name": "required",
          "type": "uint256"
        },
        {
          "internalType": "uint256",
          "name": "available",
          "type": "uint256"
        }
      ],
      "name": "ErrInsufficientStake",
      "type": "error"
    },
    {
      "inputs": [],
      "name": "ErrInvalidAmount",
      "type": "error"
    },
    {
      "inputs": [
        {
          "internalType": "address",
          "name": "bookNFT",
          "type": "address"
        }
      ],
      "name": "ErrInvalidBookNFT",
      "type": "error"
    },
    {
      "inputs": [],
      "name": "ErrInvalidOwner",
      "type": "error"
    },
    {
      "inputs": [],
      "name": "ErrNoRewardsToClaim",
      "type": "error"
    },
    {
      "inputs": [],
      "name": "ExpectedPause",
      "type": "error"
    },
    {
      "inputs": [],
      "name": "FailedCall",
      "type": "error"
    },
    {
      "inputs": [],
      "name": "InvalidInitialization",
      "type": "error"
    },
    {
      "inputs": [],
      "name": "NotInitializing",
      "type": "error"
    },
    {
      "inputs": [
        {
          "internalType": "address",
          "name": "owner",
          "type": "address"
        }
      ],
      "name": "OwnableInvalidOwner",
      "type": "error"
    },
    {
      "inputs": [
        {
          "internalType": "address",
          "name": "account",
          "type": "address"
        }
      ],
      "name": "OwnableUnauthorizedAccount",
      "type": "error"
    },
    {
      "inputs": [],
      "name": "ReentrancyGuardReentrantCall",
      "type": "error"
    },
    {
      "inputs": [],
      "name": "UUPSUnauthorizedCallContext",
      "type": "error"
    },
    {
      "inputs": [
        {
          "internalType": "bytes32",
          "name": "slot",
          "type": "bytes32"
        }
      ],
      "name": "UUPSUnsupportedProxiableUUID",
      "type": "error"
    },
    {
      "anonymous": false,
      "inputs": [
        {
          "indexed": true,
          "internalType": "address",
          "name": "account",
          "type": "address"
        },
        {
          "components": [
            {
              "internalType": "address",
              "name": "bookNFT",
              "type": "address"
            },
            {
              "internalType": "uint256",
              "name": "rewardedAmount",
              "type": "uint256"
            }
          ],
          "indexed": false,
          "internalType": "struct LikeCollective.RewardData[]",
          "name": "rewardedAmount",
          "type": "tuple[]"
        }
      ],
      "name": "AllRewardClaimed",
      "type": "event"
    },
    {
      "anonymous": false,
      "inputs": [
        {
          "indexed": false,
          "internalType": "uint64",
          "name": "version",
          "type": "uint64"
        }
      ],
      "name": "Initialized",
      "type": "event"
    },
    {
      "anonymous": false,
      "inputs": [
        {
          "indexed": true,
          "internalType": "address",
          "name": "previousOwner",
          "type": "address"
        },
        {
          "indexed": true,
          "internalType": "address",
          "name": "newOwner",
          "type": "address"
        }
      ],
      "name": "OwnershipTransferred",
      "type": "event"
    },
    {
      "anonymous": false,
      "inputs": [
        {
          "indexed": false,
          "internalType": "address",
          "name": "account",
          "type": "address"
        }
      ],
      "name": "Paused",
      "type": "event"
    },
    {
      "anonymous": false,
      "inputs": [
        {
          "indexed": true,
          "internalType": "address",
          "name": "bookNFT",
          "type": "address"
        },
        {
          "indexed": true,
          "internalType": "address",
          "name": "account",
          "type": "address"
        },
        {
          "indexed": false,
          "internalType": "uint256",
          "name": "rewardedAmount",
          "type": "uint256"
        }
      ],
      "name": "RewardClaimed",
      "type": "event"
    },
    {
      "anonymous": false,
      "inputs": [
        {
          "indexed": true,
          "internalType": "address",
          "name": "bookNFT",
          "type": "address"
        },
        {
          "indexed": true,
          "internalType": "address",
          "name": "account",
          "type": "address"
        },
        {
          "indexed": false,
          "internalType": "uint256",
          "name": "rewardedAmount",
          "type": "uint256"
        }
      ],
      "name": "RewardDeposited",
      "type": "event"
    },
    {
      "anonymous": false,
      "inputs": [
        {
          "indexed": true,
          "internalType": "address",
          "name": "bookNFT",
          "type": "address"
        },
        {
          "indexed": true,
          "internalType": "address",
          "name": "account",
          "type": "address"
        },
        {
          "indexed": false,
          "internalType": "uint256",
          "name": "stakedAmount",
          "type": "uint256"
        }
      ],
      "name": "Staked",
      "type": "event"
    },
    {
      "anonymous": false,
      "inputs": [
        {
          "indexed": false,
          "internalType": "address",
          "name": "account",
          "type": "address"
        }
      ],
      "name": "Unpaused",
      "type": "event"
    },
    {
      "anonymous": false,
      "inputs": [
        {
          "indexed": true,
          "internalType": "address",
          "name": "bookNFT",
          "type": "address"
        },
        {
          "indexed": true,
          "internalType": "address",
          "name": "account",
          "type": "address"
        },
        {
          "indexed": false,
          "internalType": "uint256",
          "name": "stakedAmount",
          "type": "uint256"
        }
      ],
      "name": "Unstaked",
      "type": "event"
    },
    {
      "anonymous": false,
      "inputs": [
        {
          "indexed": true,
          "internalType": "address",
          "name": "implementation",
          "type": "address"
        }
      ],
      "name": "Upgraded",
      "type": "event"
    },
    {
      "inputs": [],
      "name": "ACC_REWARD_PRECISION",
      "outputs": [
        {
          "internalType": "uint256",
          "name": "",
          "type": "uint256"
        }
      ],
      "stateMutability": "view",
      "type": "function"
    },
    {
      "inputs": [],
      "name": "UPGRADE_INTERFACE_VERSION",
      "outputs": [
        {
          "internalType": "string",
          "name": "",
          "type": "string"
        }
      ],
      "stateMutability": "view",
      "type": "function"
    },
    {
      "inputs": [
        {
          "internalType": "address",
          "name": "user",
          "type": "address"
        }
      ],
      "name": "claimAllRewards",
      "outputs": [],
      "stateMutability": "nonpayable",
      "type": "function"
    },
    {
      "inputs": [
        {
          "internalType": "uint256",
          "name": "tokenId",
          "type": "uint256"
        }
      ],
      "name": "claimRewards",
      "outputs": [],
      "stateMutability": "nonpayable",
      "type": "function"
    },
    {
      "inputs": [
        {
          "internalType": "uint256",
          "name": "tokenID",
          "type": "uint256"
        },
        {
          "internalType": "uint256",
          "name": "amount",
          "type": "uint256"
        }
      ],
      "name": "decreaseStakePosition",
      "outputs": [],
      "stateMutability": "nonpayable",
      "type": "function"
    },
    {
      "inputs": [
        {
          "internalType": "address",
          "name": "bookNFT",
          "type": "address"
        },
        {
          "internalType": "uint256",
          "name": "amount",
          "type": "uint256"
        }
      ],
      "name": "depositReward",
      "outputs": [],
      "stateMutability": "nonpayable",
      "type": "function"
    },
    {
      "inputs": [
        {
          "internalType": "address",
          "name": "user",
          "type": "address"
        },
        {
          "internalType": "address",
          "name": "bookNFT",
          "type": "address"
        }
      ],
      "name": "getPendingRewardsForUser",
      "outputs": [
        {
          "internalType": "uint256",
          "name": "",
          "type": "uint256"
        }
      ],
      "stateMutability": "view",
      "type": "function"
    },
    {
      "inputs": [
        {
          "internalType": "address",
          "name": "bookNFT",
          "type": "address"
        }
      ],
      "name": "getPendingRewardsPool",
      "outputs": [
        {
          "internalType": "uint256",
          "name": "",
          "type": "uint256"
        }
      ],
      "stateMutability": "view",
      "type": "function"
    },
    {
      "inputs": [
        {
          "internalType": "uint256",
          "name": "tokenId",
          "type": "uint256"
        }
      ],
      "name": "getRewardsOfPosition",
      "outputs": [
        {
          "internalType": "uint256",
          "name": "",
          "type": "uint256"
        }
      ],
      "stateMutability": "view",
      "type": "function"
    },
    {
      "inputs": [
        {
          "internalType": "address",
          "name": "user",
          "type": "address"
        },
        {
          "internalType": "address",
          "name": "bookNFT",
          "type": "address"
        }
      ],
      "name": "getStakeForUser",
      "outputs": [
        {
          "internalType": "uint256",
          "name": "",
          "type": "uint256"
        }
      ],
      "stateMutability": "view",
      "type": "function"
    },
    {
      "inputs": [
        {
          "internalType": "address",
          "name": "bookNFT",
          "type": "address"
        }
      ],
      "name": "getTotalStake",
      "outputs": [
        {
          "internalType": "uint256",
          "name": "",
          "type": "uint256"
        }
      ],
      "stateMutability": "view",
      "type": "function"
    },
    {
      "inputs": [
        {
          "internalType": "uint256",
          "name": "tokenID",
          "type": "uint256"
        },
        {
          "internalType": "uint256",
          "name": "amount",
          "type": "uint256"
        }
      ],
      "name": "increaseStakeToPosition",
      "outputs": [],
      "stateMutability": "nonpayable",
      "type": "function"
    },
    {
      "inputs": [
        {
          "internalType": "address",
          "name": "initialOwner",
          "type": "address"
        }
      ],
      "name": "initialize",
      "outputs": [],
      "stateMutability": "nonpayable",
      "type": "function"
    },
    {
      "inputs": [
        {
          "internalType": "address",
          "name": "bookNFT",
          "type": "address"
        },
        {
          "internalType": "uint256",
          "name": "amount",
          "type": "uint256"
        }
      ],
      "name": "newStakePosition",
      "outputs": [],
      "stateMutability": "nonpayable",
      "type": "function"
    },
    {
      "inputs": [],
      "name": "owner",
      "outputs": [
        {
          "internalType": "address",
          "name": "",
          "type": "address"
        }
      ],
      "stateMutability": "view",
      "type": "function"
    },
    {
      "inputs": [],
      "name": "pause",
      "outputs": [],
      "stateMutability": "nonpayable",
      "type": "function"
    },
    {
      "inputs": [],
      "name": "paused",
      "outputs": [
        {
          "internalType": "bool",
          "name": "",
          "type": "bool"
        }
      ],
      "stateMutability": "view",
      "type": "function"
    },
    {
      "inputs": [],
      "name": "proxiableUUID",
      "outputs": [
        {
          "internalType": "bytes32",
          "name": "",
          "type": "bytes32"
        }
      ],
      "stateMutability": "view",
      "type": "function"
    },
    {
      "inputs": [
        {
          "internalType": "uint256",
          "name": "tokenId",
          "type": "uint256"
        }
      ],
      "name": "removeStakePosition",
      "outputs": [],
      "stateMutability": "nonpayable",
      "type": "function"
    },
    {
      "inputs": [],
      "name": "renounceOwnership",
      "outputs": [],
      "stateMutability": "nonpayable",
      "type": "function"
    },
    {
      "inputs": [
        {
          "internalType": "uint256",
          "name": "tokenId",
          "type": "uint256"
        }
      ],
      "name": "restakeRewardPosition",
      "outputs": [],
      "stateMutability": "nonpayable",
      "type": "function"
    },
    {
      "inputs": [
        {
          "internalType": "address",
          "name": "likeStakePosition",
          "type": "address"
        }
      ],
      "name": "setLikeStakePosition",
      "outputs": [],
      "stateMutability": "nonpayable",
      "type": "function"
    },
    {
      "inputs": [
        {
          "internalType": "address",
          "name": "likecoin",
          "type": "address"
        }
      ],
      "name": "setLikecoin",
      "outputs": [],
      "stateMutability": "nonpayable",
      "type": "function"
    },
    {
      "inputs": [
        {
          "internalType": "address",
          "name": "newOwner",
          "type": "address"
        }
      ],
      "name": "transferOwnership",
      "outputs": [],
      "stateMutability": "nonpayable",
      "type": "function"
    },
    {
      "inputs": [],
      "name": "unpause",
      "outputs": [],
      "stateMutability": "nonpayable",
      "type": "function"
    },
    {
      "inputs": [
        {
          "internalType": "address",
          "name": "newImplementation",
          "type": "address"
        },
        {
          "internalType": "bytes",
          "name": "data",
          "type": "bytes"
        }
      ],
      "name": "upgradeToAndCall",
      "outputs": [],
      "stateMutability": "payable",
      "type": "function"
    }
  ],
  "bytecode": "0x60a06040523073ffffffffffffffffffffffffffffffffffffffff1660809073ffffffffffffffffffffffffffffffffffffffff1681525034801561004357600080fd5b5061005261005760201b60201c565b6101de565b600061006761015b60201b60201c565b90508060000160089054906101000a900460ff16156100b2576040517ff92ee8a900000000000000000000000000000000000000000000000000000000815260040160405180910390fd5b67ffffffffffffffff80168160000160009054906101000a900467ffffffffffffffff1667ffffffffffffffff16146101585767ffffffffffffffff8160000160006101000a81548167ffffffffffffffff021916908367ffffffffffffffff1602179055507fc7f505b2f371ae2175ee4913f4499e1f2633a7b5936321eed1cdaeb6115181d267ffffffffffffffff60405161014f91906101c3565b60405180910390a15b50565b60008061016c61017560201b60201c565b90508091505090565b60007ff0c57e16840df040f15088dc2f81fe391c3923bec73e23a9662efc9c229c6a0060001b905090565b600067ffffffffffffffff82169050919050565b6101bd816101a0565b82525050565b60006020820190506101d860008301846101b4565b92915050565b6080516148386102076000396000818161324d015281816132a2015261345d01526148386000f3fe6080604052600436106101815760003560e01c80637db4e28f116100d1578063c4d66de81161008a578063d1c6a23111610064578063d1c6a23114610535578063d214a7ba14610560578063e991560f14610589578063f2fde38b146105b257610181565b8063c4d66de8146104a6578063c86ec26e146104cf578063cd083e621461050c57610181565b80637db4e28f146103aa5780638456cb59146103d35780638da5cb5b146103ea57806395a2471514610415578063ad3cb1cc1461043e578063bb1126231461046957610181565b80634f1ef2861161013e5780635c975abb116101185780635c975abb14610302578063715018a61461032d57806372a3ae9d1461034457806377eef8f91461036d57610181565b80634f1ef286146102925780635237c1b8146102ae57806352d1902d146102d757610181565b80630962ef79146101865780630abe6d56146101af5780631e7ff8f6146101d85780632e2c55c6146102155780633f4ba83a1461023e5780634d9453c014610255575b600080fd5b34801561019257600080fd5b506101ad60048036038101906101a89190613c12565b6105db565b005b3480156101bb57600080fd5b506101d660048036038101906101d19190613c3f565b610a12565b005b3480156101e457600080fd5b506101ff60048036038101906101fa9190613cdd565b610f2e565b60405161020c9190613d19565b60405180910390f35b34801561022157600080fd5b5061023c60048036038101906102379190613c12565b610f88565b005b34801561024a57600080fd5b5061025361144d565b005b34801561026157600080fd5b5061027c60048036038101906102779190613d34565b61145f565b6040516102899190613d19565b60405180910390f35b6102ac60048036038101906102a79190613eba565b611603565b005b3480156102ba57600080fd5b506102d560048036038101906102d09190613f16565b611622565b005b3480156102e357600080fd5b506102ec611895565b6040516102f99190613f6f565b60405180910390f35b34801561030e57600080fd5b506103176118c8565b6040516103249190613fa5565b60405180910390f35b34801561033957600080fd5b506103426118ed565b005b34801561035057600080fd5b5061036b60048036038101906103669190613cdd565b611901565b005b34801561037957600080fd5b50610394600480360381019061038f9190613cdd565b61195c565b6040516103a19190613d19565b60405180910390f35b3480156103b657600080fd5b506103d160048036038101906103cc9190613f16565b6119b6565b005b3480156103df57600080fd5b506103e8611b85565b005b3480156103f657600080fd5b506103ff611b97565b60405161040c9190613fcf565b60405180910390f35b34801561042157600080fd5b5061043c60048036038101906104379190613c3f565b611bcf565b005b34801561044a57600080fd5b506104536120a9565b6040516104609190614069565b60405180910390f35b34801561047557600080fd5b50610490600480360381019061048b9190613d34565b6120e2565b60405161049d9190613d19565b60405180910390f35b3480156104b257600080fd5b506104cd60048036038101906104c89190613cdd565b612309565b005b3480156104db57600080fd5b506104f660048036038101906104f19190613c12565b6124b0565b6040516105039190613d19565b60405180910390f35b34801561051857600080fd5b50610533600480360381019061052e9190613c12565b6124c2565b005b34801561054157600080fd5b5061054a6128e7565b6040516105579190613d19565b60405180910390f35b34801561056c57600080fd5b5061058760048036038101906105829190613cdd565b6128f3565b005b34801561059557600080fd5b506105b060048036038101906105ab9190613cdd565b61294e565b005b3480156105be57600080fd5b506105d960048036038101906105d49190613cdd565b612e58565b005b6105e3612ede565b6105eb612f1f565b60006105f5612f76565b905060008160010160009054906101000a900473ffffffffffffffffffffffffffffffffffffffff1673ffffffffffffffffffffffffffffffffffffffff16636352211e846040518263ffffffff1660e01b81526004016106569190613d19565b602060405180830381865afa158015610673573d6000803e3d6000fd5b505050506040513d601f19601f8201168201806040525081019061069791906140a0565b90506106a1612f9e565b73ffffffffffffffffffffffffffffffffffffffff168173ffffffffffffffffffffffffffffffffffffffff1614610705576040517fee77070400000000000000000000000000000000000000000000000000000000815260040160405180910390fd5b60008260010160009054906101000a900473ffffffffffffffffffffffffffffffffffffffff1673ffffffffffffffffffffffffffffffffffffffff1663eb02c301856040518263ffffffff1660e01b81526004016107649190613d19565b608060405180830381865afa158015610781573d6000803e3d6000fd5b505050506040513d601f19601f820116820180604052508101906107a5919061415f565b905060008160000151905060008460020160008373ffffffffffffffffffffffffffffffffffffffff1673ffffffffffffffffffffffffffffffffffffffff1681526020019081526020016000209050600061080087612fa6565b90508082600201600082825461081691906141bb565b925050819055508082600101600082825461083191906141ef565b925050819055508160030154826004016000898152602001908152602001600020819055508560010160009054906101000a900473ffffffffffffffffffffffffffffffffffffffff1673ffffffffffffffffffffffffffffffffffffffff1663018629928884600301546040518363ffffffff1660e01b81526004016108b9929190614223565b600060405180830381600087803b1580156108d357600080fd5b505af11580156108e7573d6000803e3d6000fd5b505050508560000160009054906101000a900473ffffffffffffffffffffffffffffffffffffffff1673ffffffffffffffffffffffffffffffffffffffff1663a9059cbb610933612f9e565b836040518363ffffffff1660e01b815260040161095192919061424c565b6020604051808303816000875af1158015610970573d6000803e3d6000fd5b505050506040513d601f19601f8201168201806040525081019061099491906142a1565b5061099d612f9e565b73ffffffffffffffffffffffffffffffffffffffff168373ffffffffffffffffffffffffffffffffffffffff167f0aa4d283470c904c551d18bb894d37e17674920f3261a7f854be501e25f421b7836040516109f99190613d19565b60405180910390a3505050505050610a0f613139565b50565b610a1a612ede565b610a22612f1f565b6000610a2c612f76565b905060008160010160009054906101000a900473ffffffffffffffffffffffffffffffffffffffff1673ffffffffffffffffffffffffffffffffffffffff16636352211e856040518263ffffffff1660e01b8152600401610a8d9190613d19565b602060405180830381865afa158015610aaa573d6000803e3d6000fd5b505050506040513d601f19601f82011682018060405250810190610ace91906140a0565b9050610ad8612f9e565b73ffffffffffffffffffffffffffffffffffffffff168173ffffffffffffffffffffffffffffffffffffffff1614610b3c576040517fee77070400000000000000000000000000000000000000000000000000000000815260040160405180910390fd5b60008260010160009054906101000a900473ffffffffffffffffffffffffffffffffffffffff1673ffffffffffffffffffffffffffffffffffffffff1663eb02c301866040518263ffffffff1660e01b8152600401610b9b9190613d19565b608060405180830381865afa158015610bb8573d6000803e3d6000fd5b505050506040513d601f19601f82011682018060405250810190610bdc919061415f565b90508060200151841115610c1c576040517fb372601600000000000000000000000000000000000000000000000000000000815260040160405180910390fd5b6000610c2786612fa6565b905060008186610c3791906141ef565b90506000868460200151610c4b91906141bb565b905060008460000151905060008760020160008373ffffffffffffffffffffffffffffffffffffffff1673ffffffffffffffffffffffffffffffffffffffff1681526020019081526020016000209050888160000154610cab91906141bb565b8160000181905550848160020154610cc391906141bb565b8160020181905550848160010154610cdb91906141ef565b816001018190555080600301548160040160008c8152602001908152602001600020819055508760010160009054906101000a900473ffffffffffffffffffffffffffffffffffffffff1673ffffffffffffffffffffffffffffffffffffffff16630602e13a8b8584600301546040518463ffffffff1660e01b8152600401610d66939291906142ce565b600060405180830381600087803b158015610d8057600080fd5b505af1158015610d94573d6000803e3d6000fd5b505050508760000160009054906101000a900473ffffffffffffffffffffffffffffffffffffffff1673ffffffffffffffffffffffffffffffffffffffff1663a9059cbb610de0612f9e565b866040518363ffffffff1660e01b8152600401610dfe92919061424c565b6020604051808303816000875af1158015610e1d573d6000803e3d6000fd5b505050506040513d601f19601f82011682018060405250810190610e4191906142a1565b50610e4a612f9e565b73ffffffffffffffffffffffffffffffffffffffff168273ffffffffffffffffffffffffffffffffffffffff167fd8654fcc8cf5b36d30b3f5e4688fc78118e6d68de60b9994e09902268b57c3e38b604051610ea69190613d19565b60405180910390a3610eb6612f9e565b73ffffffffffffffffffffffffffffffffffffffff168273ffffffffffffffffffffffffffffffffffffffff167f0aa4d283470c904c551d18bb894d37e17674920f3261a7f854be501e25f421b787604051610f129190613d19565b60405180910390a35050505050505050610f2a613139565b5050565b600080610f39612f76565b90508060020160008473ffffffffffffffffffffffffffffffffffffffff1673ffffffffffffffffffffffffffffffffffffffff16815260200190815260200160002060000154915050919050565b610f90612ede565b610f98612f1f565b6000610fa2612f76565b905060008160010160009054906101000a900473ffffffffffffffffffffffffffffffffffffffff1673ffffffffffffffffffffffffffffffffffffffff16636352211e846040518263ffffffff1660e01b81526004016110039190613d19565b602060405180830381865afa158015611020573d6000803e3d6000fd5b505050506040513d601f19601f8201168201806040525081019061104491906140a0565b905061104e612f9e565b73ffffffffffffffffffffffffffffffffffffffff168173ffffffffffffffffffffffffffffffffffffffff16146110b2576040517fee77070400000000000000000000000000000000000000000000000000000000815260040160405180910390fd5b60008260010160009054906101000a900473ffffffffffffffffffffffffffffffffffffffff1673ffffffffffffffffffffffffffffffffffffffff1663eb02c301856040518263ffffffff1660e01b81526004016111119190613d19565b608060405180830381865afa15801561112e573d6000803e3d6000fd5b505050506040513d601f19601f82011682018060405250810190611152919061415f565b9050600081602001519050600061116886612fa6565b90506000818361117891906141ef565b905060008460000151905060008760020160008373ffffffffffffffffffffffffffffffffffffffff1673ffffffffffffffffffffffffffffffffffffffff16815260200190815260200160002090508481600001546111d891906141bb565b81600001819055508381600101546111f091906141ef565b816001018190555083816002015461120891906141bb565b81600201819055508060040160008a8152602001908152602001600020600090558760010160009054906101000a900473ffffffffffffffffffffffffffffffffffffffff1673ffffffffffffffffffffffffffffffffffffffff166338ca63bc8a6040518263ffffffff1660e01b81526004016112869190613d19565b600060405180830381600087803b1580156112a057600080fd5b505af11580156112b4573d6000803e3d6000fd5b505050508760000160009054906101000a900473ffffffffffffffffffffffffffffffffffffffff1673ffffffffffffffffffffffffffffffffffffffff1663a9059cbb611300612f9e565b856040518363ffffffff1660e01b815260040161131e92919061424c565b6020604051808303816000875af115801561133d573d6000803e3d6000fd5b505050506040513d601f19601f8201168201806040525081019061136191906142a1565b5061136a612f9e565b73ffffffffffffffffffffffffffffffffffffffff168273ffffffffffffffffffffffffffffffffffffffff167f0aa4d283470c904c551d18bb894d37e17674920f3261a7f854be501e25f421b7866040516113c69190613d19565b60405180910390a36113d6612f9e565b73ffffffffffffffffffffffffffffffffffffffff168273ffffffffffffffffffffffffffffffffffffffff167fd8654fcc8cf5b36d30b3f5e4688fc78118e6d68de60b9994e09902268b57c3e3876040516114329190613d19565b60405180910390a3505050505050505061144a613139565b50565b611455613152565b61145d6131d9565b565b60008061146a612f76565b905060008160010160009054906101000a900473ffffffffffffffffffffffffffffffffffffffff1673ffffffffffffffffffffffffffffffffffffffff16630d998e5d86866040518363ffffffff1660e01b81526004016114cd929190614305565b600060405180830381865afa1580156114ea573d6000803e3d6000fd5b505050506040513d6000823e3d601f19601f8201168201806040525081019061151391906143f6565b90506000805b82518110156115f6578360010160009054906101000a900473ffffffffffffffffffffffffffffffffffffffff1673ffffffffffffffffffffffffffffffffffffffff1663eb02c3018483815181106115755761157461443f565b5b60200260200101516040518263ffffffff1660e01b81526004016115999190613d19565b608060405180830381865afa1580156115b6573d6000803e3d6000fd5b505050506040513d601f19601f820116820180604052508101906115da919061415f565b60200151826115e991906141ef565b9150806001019050611519565b5080935050505092915050565b61160b61324b565b61161482613331565b61161e828261333c565b5050565b61162a612ede565b611632612f1f565b600061163c612f76565b905060008160020160008573ffffffffffffffffffffffffffffffffffffffff1673ffffffffffffffffffffffffffffffffffffffff16815260200190815260200160002090508160000160009054906101000a900473ffffffffffffffffffffffffffffffffffffffff1673ffffffffffffffffffffffffffffffffffffffff166323b872dd6116cb612f9e565b30866040518463ffffffff1660e01b81526004016116eb9392919061446e565b6020604051808303816000875af115801561170a573d6000803e3d6000fd5b505050506040513d601f19601f8201168201806040525081019061172e91906142a1565b5060008260010160009054906101000a900473ffffffffffffffffffffffffffffffffffffffff1673ffffffffffffffffffffffffffffffffffffffff166309fbb2d7611779612f9e565b878786600301546040518563ffffffff1660e01b815260040161179f94939291906144a5565b6020604051808303816000875af11580156117be573d6000803e3d6000fd5b505050506040513d601f19601f820116820180604052508101906117e291906144ea565b90508382600001546117f491906141ef565b8260000181905550816003015482600401600083815260200190815260200160002081905550611822612f9e565b73ffffffffffffffffffffffffffffffffffffffff168573ffffffffffffffffffffffffffffffffffffffff167f5dac0c1b1112564a045ba943c9d50270893e8e826c49be8e7073adc713ab7bd78660405161187e9190613d19565b60405180910390a3505050611891613139565b5050565b600061189f61345b565b7f360894a13ba1a3210667c828492db98dca3e2076cc3735a920a3ca505d382bbc60001b905090565b6000806118d36134e2565b90508060000160009054906101000a900460ff1691505090565b6118f5613152565b6118ff600061350a565b565b611909613152565b6000611913612f76565b9050818160000160006101000a81548173ffffffffffffffffffffffffffffffffffffffff021916908373ffffffffffffffffffffffffffffffffffffffff1602179055505050565b600080611967612f76565b90508060020160008473ffffffffffffffffffffffffffffffffffffffff1673ffffffffffffffffffffffffffffffffffffffff16815260200190815260200160002060020154915050919050565b6119be612ede565b60006119c8612f76565b90508060000160009054906101000a900473ffffffffffffffffffffffffffffffffffffffff1673ffffffffffffffffffffffffffffffffffffffff166323b872dd611a12612f9e565b30856040518463ffffffff1660e01b8152600401611a329392919061446e565b6020604051808303816000875af1158015611a51573d6000803e3d6000fd5b505050506040513d601f19601f82011682018060405250810190611a7591906142a1565b5060008160020160008573ffffffffffffffffffffffffffffffffffffffff1673ffffffffffffffffffffffffffffffffffffffff168152602001908152602001600020905082816002016000828254611acf91906141ef565b925050819055508060000154670de0b6b3a764000084611aef9190614517565b611af99190614588565b816003016000828254611b0c91906141ef565b92505081905550611b1b612f9e565b73ffffffffffffffffffffffffffffffffffffffff168473ffffffffffffffffffffffffffffffffffffffff167fecc7fa2c9c08fa68f2c2942d64a9c92b602004694d2a128c2a034cff48990f5185604051611b779190613d19565b60405180910390a350505050565b611b8d613152565b611b956135e1565b565b600080611ba2613653565b90508060000160009054906101000a900473ffffffffffffffffffffffffffffffffffffffff1691505090565b611bd7612ede565b611bdf612f1f565b6000611be9612f76565b905060008160010160009054906101000a900473ffffffffffffffffffffffffffffffffffffffff1673ffffffffffffffffffffffffffffffffffffffff16636352211e856040518263ffffffff1660e01b8152600401611c4a9190613d19565b602060405180830381865afa158015611c67573d6000803e3d6000fd5b505050506040513d601f19601f82011682018060405250810190611c8b91906140a0565b9050611c95612f9e565b73ffffffffffffffffffffffffffffffffffffffff168173ffffffffffffffffffffffffffffffffffffffff1614611cf9576040517fee77070400000000000000000000000000000000000000000000000000000000815260040160405180910390fd5b8160000160009054906101000a900473ffffffffffffffffffffffffffffffffffffffff1673ffffffffffffffffffffffffffffffffffffffff166323b872dd611d41612f9e565b30866040518463ffffffff1660e01b8152600401611d619392919061446e565b6020604051808303816000875af1158015611d80573d6000803e3d6000fd5b505050506040513d601f19601f82011682018060405250810190611da491906142a1565b5060008260010160009054906101000a900473ffffffffffffffffffffffffffffffffffffffff1673ffffffffffffffffffffffffffffffffffffffff1663eb02c301866040518263ffffffff1660e01b8152600401611e049190613d19565b608060405180830381865afa158015611e21573d6000803e3d6000fd5b505050506040513d601f19601f82011682018060405250810190611e45919061415f565b90506000611e5286612fa6565b9050600081868460200151611e6791906141ef565b611e7191906141ef565b905060008360000151905060008660020160008373ffffffffffffffffffffffffffffffffffffffff1673ffffffffffffffffffffffffffffffffffffffff1681526020019081526020016000209050878160000154611ed191906141ef565b8160000181905550838160020154611ee991906141bb565b8160020181905550838160010154611f0191906141ef565b816001018190555080600301548160040160008b8152602001908152602001600020819055508660010160009054906101000a900473ffffffffffffffffffffffffffffffffffffffff1673ffffffffffffffffffffffffffffffffffffffff16630602e13a8a8584600301546040518463ffffffff1660e01b8152600401611f8c939291906142ce565b600060405180830381600087803b158015611fa657600080fd5b505af1158015611fba573d6000803e3d6000fd5b50505050611fc6612f9e565b73ffffffffffffffffffffffffffffffffffffffff168273ffffffffffffffffffffffffffffffffffffffff167f5dac0c1b1112564a045ba943c9d50270893e8e826c49be8e7073adc713ab7bd78a6040516120229190613d19565b60405180910390a3612032612f9e565b73ffffffffffffffffffffffffffffffffffffffff168273ffffffffffffffffffffffffffffffffffffffff167f0aa4d283470c904c551d18bb894d37e17674920f3261a7f854be501e25f421b78660405161208e9190613d19565b60405180910390a3505050505050506120a5613139565b5050565b6040518060400160405280600581526020017f352e302e3000000000000000000000000000000000000000000000000000000081525081565b6000806120ed612f76565b905060008160020160008573ffffffffffffffffffffffffffffffffffffffff1673ffffffffffffffffffffffffffffffffffffffff16815260200190815260200160002060030154905060008260010160009054906101000a900473ffffffffffffffffffffffffffffffffffffffff1673ffffffffffffffffffffffffffffffffffffffff16630d998e5d87876040518363ffffffff1660e01b8152600401612199929190614305565b600060405180830381865afa1580156121b6573d6000803e3d6000fd5b505050506040513d6000823e3d601f19601f820116820180604052508101906121df91906143f6565b90506000805b82518110156122fb5760008560010160009054906101000a900473ffffffffffffffffffffffffffffffffffffffff1673ffffffffffffffffffffffffffffffffffffffff1663eb02c3018584815181106122435761224261443f565b5b60200260200101516040518263ffffffff1660e01b81526004016122679190613d19565b608060405180830381865afa158015612284573d6000803e3d6000fd5b505050506040513d601f19601f820116820180604052508101906122a8919061415f565b90506000670de0b6b3a76400008260400151876122c591906141bb565b83602001516122d49190614517565b6122de9190614588565b905080846122ec91906141ef565b935050508060010190506121e5565b508094505050505092915050565b600061231361367b565b905060008160000160089054906101000a900460ff1615905060008260000160009054906101000a900467ffffffffffffffff1690506000808267ffffffffffffffff161480156123615750825b9050600060018367ffffffffffffffff16148015612396575060003073ffffffffffffffffffffffffffffffffffffffff163b145b9050811580156123a4575080155b156123db576040517ff92ee8a900000000000000000000000000000000000000000000000000000000815260040160405180910390fd5b60018560000160006101000a81548167ffffffffffffffff021916908367ffffffffffffffff160217905550831561242b5760018560000160086101000a81548160ff0219169083151502179055505b61243361368f565b61243c86613699565b6124446136ad565b61244c6136b7565b83156124a85760008560000160086101000a81548160ff0219169083151502179055507fc7f505b2f371ae2175ee4913f4499e1f2633a7b5936321eed1cdaeb6115181d2600160405161249f9190614612565b60405180910390a15b505050505050565b60006124bb82612fa6565b9050919050565b6124ca612ede565b6124d2612f1f565b60006124dc612f76565b905060008160010160009054906101000a900473ffffffffffffffffffffffffffffffffffffffff1673ffffffffffffffffffffffffffffffffffffffff16636352211e846040518263ffffffff1660e01b815260040161253d9190613d19565b602060405180830381865afa15801561255a573d6000803e3d6000fd5b505050506040513d601f19601f8201168201806040525081019061257e91906140a0565b9050612588612f9e565b73ffffffffffffffffffffffffffffffffffffffff168173ffffffffffffffffffffffffffffffffffffffff16146125ec576040517fee77070400000000000000000000000000000000000000000000000000000000815260040160405180910390fd5b60008260010160009054906101000a900473ffffffffffffffffffffffffffffffffffffffff1673ffffffffffffffffffffffffffffffffffffffff1663eb02c301856040518263ffffffff1660e01b815260040161264b9190613d19565b608060405180830381865afa158015612668573d6000803e3d6000fd5b505050506040513d601f19601f8201168201806040525081019061268c919061415f565b9050600061269985612fa6565b905060008260000151905060008560020160008373ffffffffffffffffffffffffffffffffffffffff1673ffffffffffffffffffffffffffffffffffffffff1681526020019081526020016000209050828160000160008282546126fd91906141ef565b925050819055508281600201600082825461271891906141bb565b925050819055508281600101600082825461273391906141ef565b925050819055508060030154816004016000898152602001908152602001600020819055508560010160009054906101000a900473ffffffffffffffffffffffffffffffffffffffff1673ffffffffffffffffffffffffffffffffffffffff16630602e13a888587602001516127a991906141ef565b84600301546040518463ffffffff1660e01b81526004016127cc939291906142ce565b600060405180830381600087803b1580156127e657600080fd5b505af11580156127fa573d6000803e3d6000fd5b50505050612806612f9e565b73ffffffffffffffffffffffffffffffffffffffff168273ffffffffffffffffffffffffffffffffffffffff167f0aa4d283470c904c551d18bb894d37e17674920f3261a7f854be501e25f421b7856040516128629190613d19565b60405180910390a3612872612f9e565b73ffffffffffffffffffffffffffffffffffffffff168273ffffffffffffffffffffffffffffffffffffffff167f5dac0c1b1112564a045ba943c9d50270893e8e826c49be8e7073adc713ab7bd7856040516128ce9190613d19565b60405180910390a35050505050506128e4613139565b50565b670de0b6b3a764000081565b6128fb613152565b6000612905612f76565b9050818160010160006101000a81548173ffffffffffffffffffffffffffffffffffffffff021916908373ffffffffffffffffffffffffffffffffffffffff1602179055505050565b612956612ede565b61295e612f1f565b612966612f9e565b73ffffffffffffffffffffffffffffffffffffffff168173ffffffffffffffffffffffffffffffffffffffff16146129ca576040517fee77070400000000000000000000000000000000000000000000000000000000815260040160405180910390fd5b60006129d4612f76565b905060008160010160009054906101000a900473ffffffffffffffffffffffffffffffffffffffff1673ffffffffffffffffffffffffffffffffffffffff16632a6bc2dd846040518263ffffffff1660e01b8152600401612a359190613fcf565b600060405180830381865afa158015612a52573d6000803e3d6000fd5b505050506040513d6000823e3d601f19601f82011682018060405250810190612a7b91906143f6565b9050600080825167ffffffffffffffff811115612a9b57612a9a613d8f565b5b604051908082528060200260200182016040528015612ad457816020015b612ac1613b98565b815260200190600190039081612ab95790505b50905060005b8351811015612d49576000848281518110612af857612af761443f565b5b602002602001015190506000612b0d82612fa6565b905060008760010160009054906101000a900473ffffffffffffffffffffffffffffffffffffffff1673ffffffffffffffffffffffffffffffffffffffff1663eb02c301846040518263ffffffff1660e01b8152600401612b6e9190613d19565b608060405180830381865afa158015612b8b573d6000803e3d6000fd5b505050506040513d601f19601f82011682018060405250810190612baf919061415f565b60000151905060008860020160008373ffffffffffffffffffffffffffffffffffffffff1673ffffffffffffffffffffffffffffffffffffffff168152602001908152602001600020905082816002016000828254612c0e91906141bb565b9250508190555082816001016000828254612c2991906141ef565b925050819055508060030154816004016000868152602001908152602001600020819055508860010160009054906101000a900473ffffffffffffffffffffffffffffffffffffffff1673ffffffffffffffffffffffffffffffffffffffff1663018629928583600301546040518363ffffffff1660e01b8152600401612cb1929190614223565b600060405180830381600087803b158015612ccb57600080fd5b505af1158015612cdf573d6000803e3d6000fd5b5050505060405180604001604052808373ffffffffffffffffffffffffffffffffffffffff16815260200184815250868681518110612d2157612d2061443f565b5b60200260200101819052508287612d3891906141ef565b965050505050806001019050612ada565b508360000160009054906101000a900473ffffffffffffffffffffffffffffffffffffffff1673ffffffffffffffffffffffffffffffffffffffff1663a9059cbb612d92612f9e565b846040518363ffffffff1660e01b8152600401612db092919061424c565b6020604051808303816000875af1158015612dcf573d6000803e3d6000fd5b505050506040513d601f19601f82011682018060405250810190612df391906142a1565b50612dfc612f9e565b73ffffffffffffffffffffffffffffffffffffffff167f445449d0ab504db2855634394b8408e0b876b052ce974f14e16baa7cfe2a987c82604051612e419190614729565b60405180910390a250505050612e55613139565b50565b612e60613152565b600073ffffffffffffffffffffffffffffffffffffffff168173ffffffffffffffffffffffffffffffffffffffff1603612ed25760006040517f1e4fbdf7000000000000000000000000000000000000000000000000000000008152600401612ec99190613fcf565b60405180910390fd5b612edb8161350a565b50565b612ee66118c8565b15612f1d576040517fd93c066500000000000000000000000000000000000000000000000000000000815260040160405180910390fd5b565b6000612f296136c9565b90506002816000015403612f69576040517f3ee5aeb500000000000000000000000000000000000000000000000000000000815260040160405180910390fd5b6002816000018190555050565b60007fe9c9d9e1df02920d747aa7516ca1d4362d70267096e6330bcfb24b265ac2ee00905090565b600033905090565b600080612fb1612f76565b905060008160010160009054906101000a900473ffffffffffffffffffffffffffffffffffffffff1673ffffffffffffffffffffffffffffffffffffffff1663eb02c301856040518263ffffffff1660e01b81526004016130129190613d19565b608060405180830381865afa15801561302f573d6000803e3d6000fd5b505050506040513d601f19601f82011682018060405250810190613053919061415f565b90506000826002016000836000015173ffffffffffffffffffffffffffffffffffffffff1673ffffffffffffffffffffffffffffffffffffffff1681526020019081526020016000206003015490506000836002016000846000015173ffffffffffffffffffffffffffffffffffffffff1673ffffffffffffffffffffffffffffffffffffffff1681526020019081526020016000206004016000878152602001908152602001600020549050670de0b6b3a7640000818361311591906141bb565b84602001516131249190614517565b61312e9190614588565b945050505050919050565b60006131436136c9565b90506001816000018190555050565b61315a612f9e565b73ffffffffffffffffffffffffffffffffffffffff16613178611b97565b73ffffffffffffffffffffffffffffffffffffffff16146131d75761319b612f9e565b6040517f118cdaa70000000000000000000000000000000000000000000000000000000081526004016131ce9190613fcf565b60405180910390fd5b565b6131e16136f1565b60006131eb6134e2565b905060008160000160006101000a81548160ff0219169083151502179055507f5db9ee0a495bf2e6ff9c91a7834c1ba4fdd244a5e8aa4e537bd38aeae4b073aa613233612f9e565b6040516132409190613fcf565b60405180910390a150565b7f000000000000000000000000000000000000000000000000000000000000000073ffffffffffffffffffffffffffffffffffffffff163073ffffffffffffffffffffffffffffffffffffffff1614806132f857507f000000000000000000000000000000000000000000000000000000000000000073ffffffffffffffffffffffffffffffffffffffff166132df613731565b73ffffffffffffffffffffffffffffffffffffffff1614155b1561332f576040517fe07c8dba00000000000000000000000000000000000000000000000000000000815260040160405180910390fd5b565b613339613152565b50565b8173ffffffffffffffffffffffffffffffffffffffff166352d1902d6040518163ffffffff1660e01b8152600401602060405180830381865afa9250505080156133a457506040513d601f19601f820116820180604052508101906133a19190614777565b60015b6133e557816040517f4c9c8ce30000000000000000000000000000000000000000000000000000000081526004016133dc9190613fcf565b60405180910390fd5b7f360894a13ba1a3210667c828492db98dca3e2076cc3735a920a3ca505d382bbc60001b811461344c57806040517faa1d49a40000000000000000000000000000000000000000000000000000000081526004016134439190613f6f565b60405180910390fd5b6134568383613788565b505050565b7f000000000000000000000000000000000000000000000000000000000000000073ffffffffffffffffffffffffffffffffffffffff163073ffffffffffffffffffffffffffffffffffffffff16146134e0576040517fe07c8dba00000000000000000000000000000000000000000000000000000000815260040160405180910390fd5b565b60007fcd5ed15c6e187e77e9aee88184c21f4f2182ab5827cb3b7e07fbedcd63f03300905090565b6000613514613653565b905060008160000160009054906101000a900473ffffffffffffffffffffffffffffffffffffffff169050828260000160006101000a81548173ffffffffffffffffffffffffffffffffffffffff021916908373ffffffffffffffffffffffffffffffffffffffff1602179055508273ffffffffffffffffffffffffffffffffffffffff168173ffffffffffffffffffffffffffffffffffffffff167f8be0079c531659141344cd1fd0a4f28419497f9722a3daafe3b4186f6b6457e060405160405180910390a3505050565b6135e9612ede565b60006135f36134e2565b905060018160000160006101000a81548160ff0219169083151502179055507f62e78cea01bee320cd4e420270b5ea74000d11b0c9f74754ebdbfc544b05a25861363b612f9e565b6040516136489190613fcf565b60405180910390a150565b60007f9016d09d72d40fdae2fd8ceac6b6234c7706214fd39c1cd1e609a0528c199300905090565b6000806136866137fb565b90508091505090565b613697613826565b565b6136a1613826565b6136aa81613866565b50565b6136b5613826565b565b6136bf613826565b6136c76138ec565b565b60007f9b779b17422d0df92223018b32b4d1fa46e071723d6817e2486d003becc55f00905090565b6136f96118c8565b61372f576040517f8dfc202b00000000000000000000000000000000000000000000000000000000815260040160405180910390fd5b565b600061375f7f360894a13ba1a3210667c828492db98dca3e2076cc3735a920a3ca505d382bbc60001b61390d565b60000160009054906101000a900473ffffffffffffffffffffffffffffffffffffffff16905090565b61379182613917565b8173ffffffffffffffffffffffffffffffffffffffff167fbc7cd75a20ee27fd9adebab32041f755214dbc6bffa90cc0225b39da2e5c2d3b60405160405180910390a26000815111156137ee576137e882826139e4565b506137f7565b6137f6613a68565b5b5050565b60007ff0c57e16840df040f15088dc2f81fe391c3923bec73e23a9662efc9c229c6a0060001b905090565b61382e613aa5565b613864576040517fd7e6bcf800000000000000000000000000000000000000000000000000000000815260040160405180910390fd5b565b61386e613826565b600073ffffffffffffffffffffffffffffffffffffffff168173ffffffffffffffffffffffffffffffffffffffff16036138e05760006040517f1e4fbdf70000000000000000000000000000000000000000000000000000000081526004016138d79190613fcf565b60405180910390fd5b6138e98161350a565b50565b6138f4613826565b60006138fe6136c9565b90506001816000018190555050565b6000819050919050565b60008173ffffffffffffffffffffffffffffffffffffffff163b0361397357806040517f4c9c8ce300000000000000000000000000000000000000000000000000000000815260040161396a9190613fcf565b60405180910390fd5b806139a07f360894a13ba1a3210667c828492db98dca3e2076cc3735a920a3ca505d382bbc60001b61390d565b60000160006101000a81548173ffffffffffffffffffffffffffffffffffffffff021916908373ffffffffffffffffffffffffffffffffffffffff16021790555050565b60606000808473ffffffffffffffffffffffffffffffffffffffff1684604051613a0e91906147eb565b600060405180830381855af49150503d8060008114613a49576040519150601f19603f3d011682016040523d82523d6000602084013e613a4e565b606091505b5091509150613a5e858383613ac5565b9250505092915050565b6000341115613aa3576040517fb398979f00000000000000000000000000000000000000000000000000000000815260040160405180910390fd5b565b6000613aaf61367b565b60000160089054906101000a900460ff16905090565b606082613ada57613ad582613b54565b613b4c565b60008251148015613b02575060008473ffffffffffffffffffffffffffffffffffffffff163b145b15613b4457836040517f9996b315000000000000000000000000000000000000000000000000000000008152600401613b3b9190613fcf565b60405180910390fd5b819050613b4d565b5b9392505050565b600081511115613b6657805160208201fd5b6040517fd6bda27500000000000000000000000000000000000000000000000000000000815260040160405180910390fd5b6040518060400160405280600073ffffffffffffffffffffffffffffffffffffffff168152602001600081525090565b6000604051905090565b600080fd5b600080fd5b6000819050919050565b613bef81613bdc565b8114613bfa57600080fd5b50565b600081359050613c0c81613be6565b92915050565b600060208284031215613c2857613c27613bd2565b5b6000613c3684828501613bfd565b91505092915050565b60008060408385031215613c5657613c55613bd2565b5b6000613c6485828601613bfd565b9250506020613c7585828601613bfd565b9150509250929050565b600073ffffffffffffffffffffffffffffffffffffffff82169050919050565b6000613caa82613c7f565b9050919050565b613cba81613c9f565b8114613cc557600080fd5b50565b600081359050613cd781613cb1565b92915050565b600060208284031215613cf357613cf2613bd2565b5b6000613d0184828501613cc8565b91505092915050565b613d1381613bdc565b82525050565b6000602082019050613d2e6000830184613d0a565b92915050565b60008060408385031215613d4b57613d4a613bd2565b5b6000613d5985828601613cc8565b9250506020613d6a85828601613cc8565b9150509250929050565b600080fd5b600080fd5b6000601f19601f8301169050919050565b7f4e487b7100000000000000000000000000000000000000000000000000000000600052604160045260246000fd5b613dc782613d7e565b810181811067ffffffffffffffff82111715613de657613de5613d8f565b5b80604052505050565b6000613df9613bc8565b9050613e058282613dbe565b919050565b600067ffffffffffffffff821115613e2557613e24613d8f565b5b613e2e82613d7e565b9050602081019050919050565b82818337600083830152505050565b6000613e5d613e5884613e0a565b613def565b905082815260208101848484011115613e7957613e78613d79565b5b613e84848285613e3b565b509392505050565b600082601f830112613ea157613ea0613d74565b5b8135613eb1848260208601613e4a565b91505092915050565b60008060408385031215613ed157613ed0613bd2565b5b6000613edf85828601613cc8565b925050602083013567ffffffffffffffff811115613f0057613eff613bd7565b5b613f0c85828601613e8c565b9150509250929050565b60008060408385031215613f2d57613f2c613bd2565b5b6000613f3b85828601613cc8565b9250506020613f4c85828601613bfd565b9150509250929050565b6000819050919050565b613f6981613f56565b82525050565b6000602082019050613f846000830184613f60565b92915050565b60008115159050919050565b613f9f81613f8a565b82525050565b6000602082019050613fba6000830184613f96565b92915050565b613fc981613c9f565b82525050565b6000602082019050613fe46000830184613fc0565b92915050565b600081519050919050565b600082825260208201905092915050565b60005b83811015614024578082015181840152602081019050614009565b60008484015250505050565b600061403b82613fea565b6140458185613ff5565b9350614055818560208601614006565b61405e81613d7e565b840191505092915050565b600060208201905081810360008301526140838184614030565b905092915050565b60008151905061409a81613cb1565b92915050565b6000602082840312156140b6576140b5613bd2565b5b60006140c48482850161408b565b91505092915050565b600080fd5b6000815190506140e181613be6565b92915050565b6000608082840312156140fd576140fc6140cd565b5b6141076080613def565b905060006141178482850161408b565b600083015250602061412b848285016140d2565b602083015250604061413f848285016140d2565b60408301525060606141538482850161408b565b60608301525092915050565b60006080828403121561417557614174613bd2565b5b6000614183848285016140e7565b91505092915050565b7f4e487b7100000000000000000000000000000000000000000000000000000000600052601160045260246000fd5b60006141c682613bdc565b91506141d183613bdc565b92508282039050818111156141e9576141e861418c565b5b92915050565b60006141fa82613bdc565b915061420583613bdc565b925082820190508082111561421d5761421c61418c565b5b92915050565b60006040820190506142386000830185613d0a565b6142456020830184613d0a565b9392505050565b60006040820190506142616000830185613fc0565b61426e6020830184613d0a565b9392505050565b61427e81613f8a565b811461428957600080fd5b50565b60008151905061429b81614275565b92915050565b6000602082840312156142b7576142b6613bd2565b5b60006142c58482850161428c565b91505092915050565b60006060820190506142e36000830186613d0a565b6142f06020830185613d0a565b6142fd6040830184613d0a565b949350505050565b600060408201905061431a6000830185613fc0565b6143276020830184613fc0565b9392505050565b600067ffffffffffffffff82111561434957614348613d8f565b5b602082029050602081019050919050565b600080fd5b600061437261436d8461432e565b613def565b905080838252602082019050602084028301858111156143955761439461435a565b5b835b818110156143be57806143aa88826140d2565b845260208401935050602081019050614397565b5050509392505050565b600082601f8301126143dd576143dc613d74565b5b81516143ed84826020860161435f565b91505092915050565b60006020828403121561440c5761440b613bd2565b5b600082015167ffffffffffffffff81111561442a57614429613bd7565b5b614436848285016143c8565b91505092915050565b7f4e487b7100000000000000000000000000000000000000000000000000000000600052603260045260246000fd5b60006060820190506144836000830186613fc0565b6144906020830185613fc0565b61449d6040830184613d0a565b949350505050565b60006080820190506144ba6000830187613fc0565b6144c76020830186613fc0565b6144d46040830185613d0a565b6144e16060830184613d0a565b95945050505050565b600060208284031215614500576144ff613bd2565b5b600061450e848285016140d2565b91505092915050565b600061452282613bdc565b915061452d83613bdc565b925082820261453b81613bdc565b915082820484148315176145525761455161418c565b5b5092915050565b7f4e487b7100000000000000000000000000000000000000000000000000000000600052601260045260246000fd5b600061459382613bdc565b915061459e83613bdc565b9250826145ae576145ad614559565b5b828204905092915050565b6000819050919050565b600067ffffffffffffffff82169050919050565b6000819050919050565b60006145fc6145f76145f2846145b9565b6145d7565b6145c3565b9050919050565b61460c816145e1565b82525050565b60006020820190506146276000830184614603565b92915050565b600081519050919050565b600082825260208201905092915050565b6000819050602082019050919050565b61466281613c9f565b82525050565b61467181613bdc565b82525050565b60408201600082015161468d6000850182614659565b5060208201516146a06020850182614668565b50505050565b60006146b28383614677565b60408301905092915050565b6000602082019050919050565b60006146d68261462d565b6146e08185614638565b93506146eb83614649565b8060005b8381101561471c57815161470388826146a6565b975061470e836146be565b9250506001810190506146ef565b5085935050505092915050565b6000602082019050818103600083015261474381846146cb565b905092915050565b61475481613f56565b811461475f57600080fd5b50565b6000815190506147718161474b565b92915050565b60006020828403121561478d5761478c613bd2565b5b600061479b84828501614762565b91505092915050565b600081519050919050565b600081905092915050565b60006147c5826147a4565b6147cf81856147af565b93506147df818560208601614006565b80840191505092915050565b60006147f782846147ba565b91508190509291505056fea2646970667358221220ede0a384cef9721a2232c6fab090bdc8c65afac5d32070f72f2ee61cf0801de964736f6c634300081c0033",
  "linkReferences": {},
  "deployedLinkReferences": {}
}