{
  "_format": "hh-sol-artifact-1",
  "contractName": "LikeCollective",
  "sourceName": "contracts/LikeCollective.sol",
  "abi": [
    {
      "inputs": [],
      "stateMutability": "nonpayable",
      "type": "constructor"
    },
    {
      "inputs": [
        {
          "internalType": "address",
          "name": "target",
          "type": "address"
        }
      ],
      "name": "AddressEmptyCode",
      "type": "error"
    },
    {
      "inputs": [
        {
          "internalType": "address",
          "name": "implementation",
          "type": "address"
        }
      ],
      "name": "ERC1967InvalidImplementation",
      "type": "error"
    },
    {
      "inputs": [],
      "name": "ERC1967NonPayable",
      "type": "error"
    },
    {
      "inputs": [],
      "name": "EnforcedPause",
      "type": "error"
    },
    {
      "inputs": [
        {
          "internalType": "uint256",
          "name": "required",
          "type": "uint256"
        },
        {
          "internalType": "uint256",
          "name": "available",
          "type": "uint256"
        }
      ],
      "name": "ErrInsufficientStake",
      "type": "error"
    },
    {
      "inputs": [],
      "name": "ErrInvalidAmount",
      "type": "error"
    },
    {
      "inputs": [
        {
          "internalType": "address",
          "name": "bookNFT",
          "type": "address"
        }
      ],
      "name": "ErrInvalidBookNFT",
      "type": "error"
    },
    {
      "inputs": [],
      "name": "ErrInvalidOwner",
      "type": "error"
    },
    {
      "inputs": [],
      "name": "ErrNoRewardsToClaim",
      "type": "error"
    },
    {
      "inputs": [],
      "name": "ExpectedPause",
      "type": "error"
    },
    {
      "inputs": [],
      "name": "FailedCall",
      "type": "error"
    },
    {
      "inputs": [],
      "name": "InvalidInitialization",
      "type": "error"
    },
    {
      "inputs": [],
      "name": "NotInitializing",
      "type": "error"
    },
    {
      "inputs": [
        {
          "internalType": "address",
          "name": "owner",
          "type": "address"
        }
      ],
      "name": "OwnableInvalidOwner",
      "type": "error"
    },
    {
      "inputs": [
        {
          "internalType": "address",
          "name": "account",
          "type": "address"
        }
      ],
      "name": "OwnableUnauthorizedAccount",
      "type": "error"
    },
    {
      "inputs": [],
      "name": "ReentrancyGuardReentrantCall",
      "type": "error"
    },
    {
      "inputs": [],
      "name": "UUPSUnauthorizedCallContext",
      "type": "error"
    },
    {
      "inputs": [
        {
          "internalType": "bytes32",
          "name": "slot",
          "type": "bytes32"
        }
      ],
      "name": "UUPSUnsupportedProxiableUUID",
      "type": "error"
    },
    {
      "anonymous": false,
      "inputs": [
        {
          "indexed": true,
          "internalType": "address",
          "name": "account",
          "type": "address"
        },
        {
          "components": [
            {
              "internalType": "address",
              "name": "bookNFT",
              "type": "address"
            },
            {
              "internalType": "uint256",
              "name": "rewardedAmount",
              "type": "uint256"
            }
          ],
          "indexed": false,
          "internalType": "struct LikeCollective.RewardData[]",
          "name": "rewardedAmount",
          "type": "tuple[]"
        }
      ],
      "name": "AllRewardClaimed",
      "type": "event"
    },
    {
      "anonymous": false,
      "inputs": [
        {
          "indexed": false,
          "internalType": "uint64",
          "name": "version",
          "type": "uint64"
        }
      ],
      "name": "Initialized",
      "type": "event"
    },
    {
      "anonymous": false,
      "inputs": [
        {
          "indexed": true,
          "internalType": "address",
          "name": "previousOwner",
          "type": "address"
        },
        {
          "indexed": true,
          "internalType": "address",
          "name": "newOwner",
          "type": "address"
        }
      ],
      "name": "OwnershipTransferred",
      "type": "event"
    },
    {
      "anonymous": false,
      "inputs": [
        {
          "indexed": false,
          "internalType": "address",
          "name": "account",
          "type": "address"
        }
      ],
      "name": "Paused",
      "type": "event"
    },
    {
      "anonymous": false,
      "inputs": [
        {
          "indexed": true,
          "internalType": "address",
          "name": "bookNFT",
          "type": "address"
        },
        {
          "indexed": true,
          "internalType": "address",
          "name": "account",
          "type": "address"
        },
        {
          "indexed": false,
          "internalType": "uint256",
          "name": "rewardedAmount",
          "type": "uint256"
        }
      ],
      "name": "RewardClaimed",
      "type": "event"
    },
    {
      "anonymous": false,
      "inputs": [
        {
          "indexed": true,
          "internalType": "address",
          "name": "bookNFT",
          "type": "address"
        },
        {
          "indexed": true,
          "internalType": "address",
          "name": "account",
          "type": "address"
        },
        {
          "indexed": false,
          "internalType": "uint256",
          "name": "rewardedAmount",
          "type": "uint256"
        }
      ],
      "name": "RewardDeposited",
      "type": "event"
    },
    {
      "anonymous": false,
      "inputs": [
        {
          "indexed": true,
          "internalType": "address",
          "name": "bookNFT",
          "type": "address"
        },
        {
          "indexed": true,
          "internalType": "address",
          "name": "account",
          "type": "address"
        },
        {
          "indexed": false,
          "internalType": "uint256",
          "name": "stakedAmount",
          "type": "uint256"
        }
      ],
      "name": "Staked",
      "type": "event"
    },
    {
      "anonymous": false,
      "inputs": [
        {
          "indexed": false,
          "internalType": "address",
          "name": "account",
          "type": "address"
        }
      ],
      "name": "Unpaused",
      "type": "event"
    },
    {
      "anonymous": false,
      "inputs": [
        {
          "indexed": true,
          "internalType": "address",
          "name": "bookNFT",
          "type": "address"
        },
        {
          "indexed": true,
          "internalType": "address",
          "name": "account",
          "type": "address"
        },
        {
          "indexed": false,
          "internalType": "uint256",
          "name": "stakedAmount",
          "type": "uint256"
        }
      ],
      "name": "Unstaked",
      "type": "event"
    },
    {
      "anonymous": false,
      "inputs": [
        {
          "indexed": true,
          "internalType": "address",
          "name": "implementation",
          "type": "address"
        }
      ],
      "name": "Upgraded",
      "type": "event"
    },
    {
      "inputs": [],
      "name": "ACC_REWARD_PRECISION",
      "outputs": [
        {
          "internalType": "uint256",
          "name": "",
          "type": "uint256"
        }
      ],
      "stateMutability": "view",
      "type": "function"
    },
    {
      "inputs": [],
      "name": "UPGRADE_INTERFACE_VERSION",
      "outputs": [
        {
          "internalType": "string",
          "name": "",
          "type": "string"
        }
      ],
      "stateMutability": "view",
      "type": "function"
    },
    {
      "inputs": [
        {
          "internalType": "address",
          "name": "user",
          "type": "address"
        }
      ],
      "name": "claimAllRewards",
      "outputs": [],
      "stateMutability": "nonpayable",
      "type": "function"
    },
    {
      "inputs": [
        {
          "internalType": "uint256",
          "name": "tokenId",
          "type": "uint256"
        }
      ],
      "name": "claimRewards",
      "outputs": [],
      "stateMutability": "nonpayable",
      "type": "function"
    },
    {
      "inputs": [
        {
          "internalType": "address",
          "name": "bookNFT",
          "type": "address"
        },
        {
          "internalType": "uint256",
          "name": "amount",
          "type": "uint256"
        }
      ],
      "name": "depositReward",
      "outputs": [],
      "stateMutability": "nonpayable",
      "type": "function"
    },
    {
      "inputs": [
        {
          "internalType": "address",
          "name": "user",
          "type": "address"
        },
        {
          "internalType": "address",
          "name": "bookNFT",
          "type": "address"
        }
      ],
      "name": "getPendingRewardsForUser",
      "outputs": [
        {
          "internalType": "uint256",
          "name": "",
          "type": "uint256"
        }
      ],
      "stateMutability": "view",
      "type": "function"
    },
    {
      "inputs": [
        {
          "internalType": "address",
          "name": "bookNFT",
          "type": "address"
        }
      ],
      "name": "getPendingRewardsPool",
      "outputs": [
        {
          "internalType": "uint256",
          "name": "",
          "type": "uint256"
        }
      ],
      "stateMutability": "view",
      "type": "function"
    },
    {
      "inputs": [
        {
          "internalType": "uint256",
          "name": "tokenId",
          "type": "uint256"
        }
      ],
      "name": "getRewardsOfPosition",
      "outputs": [
        {
          "internalType": "uint256",
          "name": "",
          "type": "uint256"
        }
      ],
      "stateMutability": "view",
      "type": "function"
    },
    {
      "inputs": [
        {
          "internalType": "address",
          "name": "user",
          "type": "address"
        },
        {
          "internalType": "address",
          "name": "bookNFT",
          "type": "address"
        }
      ],
      "name": "getStakeForUser",
      "outputs": [
        {
          "internalType": "uint256",
          "name": "",
          "type": "uint256"
        }
      ],
      "stateMutability": "view",
      "type": "function"
    },
    {
      "inputs": [
        {
          "internalType": "address",
          "name": "bookNFT",
          "type": "address"
        }
      ],
      "name": "getTotalStake",
      "outputs": [
        {
          "internalType": "uint256",
          "name": "",
          "type": "uint256"
        }
      ],
      "stateMutability": "view",
      "type": "function"
    },
    {
      "inputs": [
        {
          "internalType": "address",
          "name": "initialOwner",
          "type": "address"
        }
      ],
      "name": "initialize",
      "outputs": [],
      "stateMutability": "nonpayable",
      "type": "function"
    },
    {
      "inputs": [],
      "name": "owner",
      "outputs": [
        {
          "internalType": "address",
          "name": "",
          "type": "address"
        }
      ],
      "stateMutability": "view",
      "type": "function"
    },
    {
      "inputs": [],
      "name": "pause",
      "outputs": [],
      "stateMutability": "nonpayable",
      "type": "function"
    },
    {
      "inputs": [],
      "name": "paused",
      "outputs": [
        {
          "internalType": "bool",
          "name": "",
          "type": "bool"
        }
      ],
      "stateMutability": "view",
      "type": "function"
    },
    {
      "inputs": [],
      "name": "proxiableUUID",
      "outputs": [
        {
          "internalType": "bytes32",
          "name": "",
          "type": "bytes32"
        }
      ],
      "stateMutability": "view",
      "type": "function"
    },
    {
      "inputs": [],
      "name": "renounceOwnership",
      "outputs": [],
      "stateMutability": "nonpayable",
      "type": "function"
    },
    {
      "inputs": [
        {
          "internalType": "uint256",
          "name": "tokenId",
          "type": "uint256"
        }
      ],
      "name": "restakeRewardPosition",
      "outputs": [],
      "stateMutability": "nonpayable",
      "type": "function"
    },
    {
      "inputs": [
        {
          "internalType": "address",
          "name": "likeStakePosition",
          "type": "address"
        }
      ],
      "name": "setLikeStakePosition",
      "outputs": [],
      "stateMutability": "nonpayable",
      "type": "function"
    },
    {
      "inputs": [
        {
          "internalType": "address",
          "name": "likecoin",
          "type": "address"
        }
      ],
      "name": "setLikecoin",
      "outputs": [],
      "stateMutability": "nonpayable",
      "type": "function"
    },
    {
      "inputs": [
        {
          "internalType": "address",
          "name": "bookNFT",
          "type": "address"
        },
        {
          "internalType": "uint256",
          "name": "amount",
          "type": "uint256"
        }
      ],
      "name": "stake",
      "outputs": [],
      "stateMutability": "nonpayable",
      "type": "function"
    },
    {
      "inputs": [
        {
          "internalType": "address",
          "name": "newOwner",
          "type": "address"
        }
      ],
      "name": "transferOwnership",
      "outputs": [],
      "stateMutability": "nonpayable",
      "type": "function"
    },
    {
      "inputs": [],
      "name": "unpause",
      "outputs": [],
      "stateMutability": "nonpayable",
      "type": "function"
    },
    {
      "inputs": [
        {
          "internalType": "uint256",
          "name": "tokenId",
          "type": "uint256"
        }
      ],
      "name": "unstakePosition",
      "outputs": [],
      "stateMutability": "nonpayable",
      "type": "function"
    },
    {
      "inputs": [
        {
          "internalType": "address",
          "name": "newImplementation",
          "type": "address"
        },
        {
          "internalType": "bytes",
          "name": "data",
          "type": "bytes"
        }
      ],
      "name": "upgradeToAndCall",
      "outputs": [],
      "stateMutability": "payable",
      "type": "function"
    }
  ],
  "bytecode": "0x60a06040523073ffffffffffffffffffffffffffffffffffffffff1660809073ffffffffffffffffffffffffffffffffffffffff1681525034801561004357600080fd5b5061005261005760201b60201c565b6101de565b600061006761015b60201b60201c565b90508060000160089054906101000a900460ff16156100b2576040517ff92ee8a900000000000000000000000000000000000000000000000000000000815260040160405180910390fd5b67ffffffffffffffff80168160000160009054906101000a900467ffffffffffffffff1667ffffffffffffffff16146101585767ffffffffffffffff8160000160006101000a81548167ffffffffffffffff021916908367ffffffffffffffff1602179055507fc7f505b2f371ae2175ee4913f4499e1f2633a7b5936321eed1cdaeb6115181d267ffffffffffffffff60405161014f91906101c3565b60405180910390a15b50565b60008061016c61017560201b60201c565b90508091505090565b60007ff0c57e16840df040f15088dc2f81fe391c3923bec73e23a9662efc9c229c6a0060001b905090565b600067ffffffffffffffff82169050919050565b6101bd816101a0565b82525050565b60006020820190506101d860008301846101b4565b92915050565b608051613d62610207600039600081816127b70152818161280c01526129c70152613d626000f3fe60806040526004361061014b5760003560e01c80638456cb59116100b6578063c86ec26e1161006f578063c86ec26e14610447578063cd083e6214610484578063d1c6a231146104ad578063d214a7ba146104d8578063e991560f14610501578063f2fde38b1461052a5761014b565b80638456cb591461034b5780638da5cb5b14610362578063ad3cb1cc1461038d578063adc9772e146103b8578063bb112623146103e1578063c4d66de81461041e5761014b565b806352d1902d1161010857806352d1902d1461024f5780635c975abb1461027a578063715018a6146102a557806372a3ae9d146102bc57806377eef8f9146102e55780637db4e28f146103225761014b565b80630962ef79146101505780631e7ff8f6146101795780633f4ba83a146101b65780634a235eb6146101cd5780634d9453c0146101f65780634f1ef28614610233575b600080fd5b34801561015c57600080fd5b506101776004803603810190610172919061317c565b610553565b005b34801561018557600080fd5b506101a0600480360381019061019b9190613207565b61098a565b6040516101ad9190613243565b60405180910390f35b3480156101c257600080fd5b506101cb6109e4565b005b3480156101d957600080fd5b506101f460048036038101906101ef919061317c565b6109f6565b005b34801561020257600080fd5b5061021d6004803603810190610218919061325e565b610ebb565b60405161022a9190613243565b60405180910390f35b61024d600480360381019061024891906133e4565b61105f565b005b34801561025b57600080fd5b5061026461107e565b6040516102719190613459565b60405180910390f35b34801561028657600080fd5b5061028f6110b1565b60405161029c919061348f565b60405180910390f35b3480156102b157600080fd5b506102ba6110d6565b005b3480156102c857600080fd5b506102e360048036038101906102de9190613207565b6110ea565b005b3480156102f157600080fd5b5061030c60048036038101906103079190613207565b611145565b6040516103199190613243565b60405180910390f35b34801561032e57600080fd5b50610349600480360381019061034491906134aa565b61119f565b005b34801561035757600080fd5b5061036061136e565b005b34801561036e57600080fd5b50610377611380565b60405161038491906134f9565b60405180910390f35b34801561039957600080fd5b506103a26113b8565b6040516103af9190613593565b60405180910390f35b3480156103c457600080fd5b506103df60048036038101906103da91906134aa565b6113f1565b005b3480156103ed57600080fd5b506104086004803603810190610403919061325e565b611667565b6040516104159190613243565b60405180910390f35b34801561042a57600080fd5b5061044560048036038101906104409190613207565b61188e565b005b34801561045357600080fd5b5061046e6004803603810190610469919061317c565b611a35565b60405161047b9190613243565b60405180910390f35b34801561049057600080fd5b506104ab60048036038101906104a6919061317c565b611a47565b005b3480156104b957600080fd5b506104c2611e51565b6040516104cf9190613243565b60405180910390f35b3480156104e457600080fd5b506104ff60048036038101906104fa9190613207565b611e5d565b005b34801561050d57600080fd5b5061052860048036038101906105239190613207565b611eb8565b005b34801561053657600080fd5b50610551600480360381019061054c9190613207565b6123c2565b005b61055b612448565b610563612489565b600061056d6124e0565b905060008160010160009054906101000a900473ffffffffffffffffffffffffffffffffffffffff1673ffffffffffffffffffffffffffffffffffffffff16636352211e846040518263ffffffff1660e01b81526004016105ce9190613243565b602060405180830381865afa1580156105eb573d6000803e3d6000fd5b505050506040513d601f19601f8201168201806040525081019061060f91906135ca565b9050610619612508565b73ffffffffffffffffffffffffffffffffffffffff168173ffffffffffffffffffffffffffffffffffffffff161461067d576040517fee77070400000000000000000000000000000000000000000000000000000000815260040160405180910390fd5b60008260010160009054906101000a900473ffffffffffffffffffffffffffffffffffffffff1673ffffffffffffffffffffffffffffffffffffffff1663eb02c301856040518263ffffffff1660e01b81526004016106dc9190613243565b608060405180830381865afa1580156106f9573d6000803e3d6000fd5b505050506040513d601f19601f8201168201806040525081019061071d9190613689565b905060008160000151905060008460020160008373ffffffffffffffffffffffffffffffffffffffff1673ffffffffffffffffffffffffffffffffffffffff1681526020019081526020016000209050600061077887612510565b90508082600201600082825461078e91906136e5565b92505081905550808260010160008282546107a99190613719565b925050819055508160030154826004016000898152602001908152602001600020819055508560010160009054906101000a900473ffffffffffffffffffffffffffffffffffffffff1673ffffffffffffffffffffffffffffffffffffffff1663018629928884600301546040518363ffffffff1660e01b815260040161083192919061374d565b600060405180830381600087803b15801561084b57600080fd5b505af115801561085f573d6000803e3d6000fd5b505050508560000160009054906101000a900473ffffffffffffffffffffffffffffffffffffffff1673ffffffffffffffffffffffffffffffffffffffff1663a9059cbb6108ab612508565b836040518363ffffffff1660e01b81526004016108c9929190613776565b6020604051808303816000875af11580156108e8573d6000803e3d6000fd5b505050506040513d601f19601f8201168201806040525081019061090c91906137cb565b50610915612508565b73ffffffffffffffffffffffffffffffffffffffff168373ffffffffffffffffffffffffffffffffffffffff167f0aa4d283470c904c551d18bb894d37e17674920f3261a7f854be501e25f421b7836040516109719190613243565b60405180910390a35050505050506109876126a3565b50565b6000806109956124e0565b90508060020160008473ffffffffffffffffffffffffffffffffffffffff1673ffffffffffffffffffffffffffffffffffffffff16815260200190815260200160002060000154915050919050565b6109ec6126bc565b6109f4612743565b565b6109fe612448565b610a06612489565b6000610a106124e0565b905060008160010160009054906101000a900473ffffffffffffffffffffffffffffffffffffffff1673ffffffffffffffffffffffffffffffffffffffff16636352211e846040518263ffffffff1660e01b8152600401610a719190613243565b602060405180830381865afa158015610a8e573d6000803e3d6000fd5b505050506040513d601f19601f82011682018060405250810190610ab291906135ca565b9050610abc612508565b73ffffffffffffffffffffffffffffffffffffffff168173ffffffffffffffffffffffffffffffffffffffff1614610b20576040517fee77070400000000000000000000000000000000000000000000000000000000815260040160405180910390fd5b60008260010160009054906101000a900473ffffffffffffffffffffffffffffffffffffffff1673ffffffffffffffffffffffffffffffffffffffff1663eb02c301856040518263ffffffff1660e01b8152600401610b7f9190613243565b608060405180830381865afa158015610b9c573d6000803e3d6000fd5b505050506040513d601f19601f82011682018060405250810190610bc09190613689565b90506000816020015190506000610bd686612510565b905060008183610be69190613719565b905060008460000151905060008760020160008373ffffffffffffffffffffffffffffffffffffffff1673ffffffffffffffffffffffffffffffffffffffff1681526020019081526020016000209050848160000154610c4691906136e5565b8160000181905550838160010154610c5e9190613719565b8160010181905550838160020154610c7691906136e5565b81600201819055508060040160008a8152602001908152602001600020600090558760010160009054906101000a900473ffffffffffffffffffffffffffffffffffffffff1673ffffffffffffffffffffffffffffffffffffffff166338ca63bc8a6040518263ffffffff1660e01b8152600401610cf49190613243565b600060405180830381600087803b158015610d0e57600080fd5b505af1158015610d22573d6000803e3d6000fd5b505050508760000160009054906101000a900473ffffffffffffffffffffffffffffffffffffffff1673ffffffffffffffffffffffffffffffffffffffff1663a9059cbb610d6e612508565b856040518363ffffffff1660e01b8152600401610d8c929190613776565b6020604051808303816000875af1158015610dab573d6000803e3d6000fd5b505050506040513d601f19601f82011682018060405250810190610dcf91906137cb565b50610dd8612508565b73ffffffffffffffffffffffffffffffffffffffff168273ffffffffffffffffffffffffffffffffffffffff167f0aa4d283470c904c551d18bb894d37e17674920f3261a7f854be501e25f421b786604051610e349190613243565b60405180910390a3610e44612508565b73ffffffffffffffffffffffffffffffffffffffff168273ffffffffffffffffffffffffffffffffffffffff167fd8654fcc8cf5b36d30b3f5e4688fc78118e6d68de60b9994e09902268b57c3e387604051610ea09190613243565b60405180910390a35050505050505050610eb86126a3565b50565b600080610ec66124e0565b905060008160010160009054906101000a900473ffffffffffffffffffffffffffffffffffffffff1673ffffffffffffffffffffffffffffffffffffffff16630d998e5d86866040518363ffffffff1660e01b8152600401610f299291906137f8565b600060405180830381865afa158015610f46573d6000803e3d6000fd5b505050506040513d6000823e3d601f19601f82011682018060405250810190610f6f91906138e9565b90506000805b8251811015611052578360010160009054906101000a900473ffffffffffffffffffffffffffffffffffffffff1673ffffffffffffffffffffffffffffffffffffffff1663eb02c301848381518110610fd157610fd0613932565b5b60200260200101516040518263ffffffff1660e01b8152600401610ff59190613243565b608060405180830381865afa158015611012573d6000803e3d6000fd5b505050506040513d601f19601f820116820180604052508101906110369190613689565b60200151826110459190613719565b9150806001019050610f75565b5080935050505092915050565b6110676127b5565b6110708261289b565b61107a82826128a6565b5050565b60006110886129c5565b7f360894a13ba1a3210667c828492db98dca3e2076cc3735a920a3ca505d382bbc60001b905090565b6000806110bc612a4c565b90508060000160009054906101000a900460ff1691505090565b6110de6126bc565b6110e86000612a74565b565b6110f26126bc565b60006110fc6124e0565b9050818160000160006101000a81548173ffffffffffffffffffffffffffffffffffffffff021916908373ffffffffffffffffffffffffffffffffffffffff1602179055505050565b6000806111506124e0565b90508060020160008473ffffffffffffffffffffffffffffffffffffffff1673ffffffffffffffffffffffffffffffffffffffff16815260200190815260200160002060020154915050919050565b6111a7612448565b60006111b16124e0565b90508060000160009054906101000a900473ffffffffffffffffffffffffffffffffffffffff1673ffffffffffffffffffffffffffffffffffffffff166323b872dd6111fb612508565b30856040518463ffffffff1660e01b815260040161121b93929190613961565b6020604051808303816000875af115801561123a573d6000803e3d6000fd5b505050506040513d601f19601f8201168201806040525081019061125e91906137cb565b5060008160020160008573ffffffffffffffffffffffffffffffffffffffff1673ffffffffffffffffffffffffffffffffffffffff1681526020019081526020016000209050828160020160008282546112b89190613719565b925050819055508060000154670de0b6b3a7640000846112d89190613998565b6112e29190613a09565b8160030160008282546112f59190613719565b92505081905550611304612508565b73ffffffffffffffffffffffffffffffffffffffff168473ffffffffffffffffffffffffffffffffffffffff167fecc7fa2c9c08fa68f2c2942d64a9c92b602004694d2a128c2a034cff48990f51856040516113609190613243565b60405180910390a350505050565b6113766126bc565b61137e612b4b565b565b60008061138b612bbd565b90508060000160009054906101000a900473ffffffffffffffffffffffffffffffffffffffff1691505090565b6040518060400160405280600581526020017f352e302e3000000000000000000000000000000000000000000000000000000081525081565b6113f9612448565b611401612489565b600061140b6124e0565b905060008160020160008573ffffffffffffffffffffffffffffffffffffffff1673ffffffffffffffffffffffffffffffffffffffff16815260200190815260200160002090508160000160009054906101000a900473ffffffffffffffffffffffffffffffffffffffff1673ffffffffffffffffffffffffffffffffffffffff166323b872dd61149a612508565b30866040518463ffffffff1660e01b81526004016114ba93929190613961565b6020604051808303816000875af11580156114d9573d6000803e3d6000fd5b505050506040513d601f19601f820116820180604052508101906114fd91906137cb565b5060008260010160009054906101000a900473ffffffffffffffffffffffffffffffffffffffff1673ffffffffffffffffffffffffffffffffffffffff166309fbb2d7611548612508565b878786600301546040518563ffffffff1660e01b815260040161156e9493929190613a3a565b6020604051808303816000875af115801561158d573d6000803e3d6000fd5b505050506040513d601f19601f820116820180604052508101906115b19190613a7f565b9050838260000160008282546115c79190613719565b925050819055508160030154826004016000838152602001908152602001600020819055506115f4612508565b73ffffffffffffffffffffffffffffffffffffffff168573ffffffffffffffffffffffffffffffffffffffff167f5dac0c1b1112564a045ba943c9d50270893e8e826c49be8e7073adc713ab7bd7866040516116509190613243565b60405180910390a35050506116636126a3565b5050565b6000806116726124e0565b905060008160020160008573ffffffffffffffffffffffffffffffffffffffff1673ffffffffffffffffffffffffffffffffffffffff16815260200190815260200160002060030154905060008260010160009054906101000a900473ffffffffffffffffffffffffffffffffffffffff1673ffffffffffffffffffffffffffffffffffffffff16630d998e5d87876040518363ffffffff1660e01b815260040161171e9291906137f8565b600060405180830381865afa15801561173b573d6000803e3d6000fd5b505050506040513d6000823e3d601f19601f8201168201806040525081019061176491906138e9565b90506000805b82518110156118805760008560010160009054906101000a900473ffffffffffffffffffffffffffffffffffffffff1673ffffffffffffffffffffffffffffffffffffffff1663eb02c3018584815181106117c8576117c7613932565b5b60200260200101516040518263ffffffff1660e01b81526004016117ec9190613243565b608060405180830381865afa158015611809573d6000803e3d6000fd5b505050506040513d601f19601f8201168201806040525081019061182d9190613689565b90506000670de0b6b3a764000082604001518761184a91906136e5565b83602001516118599190613998565b6118639190613a09565b905080846118719190613719565b9350505080600101905061176a565b508094505050505092915050565b6000611898612be5565b905060008160000160089054906101000a900460ff1615905060008260000160009054906101000a900467ffffffffffffffff1690506000808267ffffffffffffffff161480156118e65750825b9050600060018367ffffffffffffffff1614801561191b575060003073ffffffffffffffffffffffffffffffffffffffff163b145b905081158015611929575080155b15611960576040517ff92ee8a900000000000000000000000000000000000000000000000000000000815260040160405180910390fd5b60018560000160006101000a81548167ffffffffffffffff021916908367ffffffffffffffff16021790555083156119b05760018560000160086101000a81548160ff0219169083151502179055505b6119b8612bf9565b6119c186612c03565b6119c9612c17565b6119d1612c21565b8315611a2d5760008560000160086101000a81548160ff0219169083151502179055507fc7f505b2f371ae2175ee4913f4499e1f2633a7b5936321eed1cdaeb6115181d26001604051611a249190613b05565b60405180910390a15b505050505050565b6000611a4082612510565b9050919050565b611a4f612448565b611a57612489565b6000611a616124e0565b905060008160010160009054906101000a900473ffffffffffffffffffffffffffffffffffffffff1673ffffffffffffffffffffffffffffffffffffffff16636352211e846040518263ffffffff1660e01b8152600401611ac29190613243565b602060405180830381865afa158015611adf573d6000803e3d6000fd5b505050506040513d601f19601f82011682018060405250810190611b0391906135ca565b9050611b0d612508565b73ffffffffffffffffffffffffffffffffffffffff168173ffffffffffffffffffffffffffffffffffffffff1614611b71576040517fee77070400000000000000000000000000000000000000000000000000000000815260040160405180910390fd5b60008260010160009054906101000a900473ffffffffffffffffffffffffffffffffffffffff1673ffffffffffffffffffffffffffffffffffffffff1663eb02c301856040518263ffffffff1660e01b8152600401611bd09190613243565b608060405180830381865afa158015611bed573d6000803e3d6000fd5b505050506040513d601f19601f82011682018060405250810190611c119190613689565b90506000611c1e85612510565b905060008260000151905060008560020160008373ffffffffffffffffffffffffffffffffffffffff1673ffffffffffffffffffffffffffffffffffffffff168152602001908152602001600020905082816002016000828254611c8291906136e5565b9250508190555082816001016000828254611c9d9190613719565b925050819055508060030154816004016000898152602001908152602001600020819055508560010160009054906101000a900473ffffffffffffffffffffffffffffffffffffffff1673ffffffffffffffffffffffffffffffffffffffff16630602e13a88858760200151611d139190613719565b84600301546040518463ffffffff1660e01b8152600401611d3693929190613b20565b600060405180830381600087803b158015611d5057600080fd5b505af1158015611d64573d6000803e3d6000fd5b50505050611d70612508565b73ffffffffffffffffffffffffffffffffffffffff168273ffffffffffffffffffffffffffffffffffffffff167f0aa4d283470c904c551d18bb894d37e17674920f3261a7f854be501e25f421b785604051611dcc9190613243565b60405180910390a3611ddc612508565b73ffffffffffffffffffffffffffffffffffffffff168273ffffffffffffffffffffffffffffffffffffffff167f5dac0c1b1112564a045ba943c9d50270893e8e826c49be8e7073adc713ab7bd785604051611e389190613243565b60405180910390a3505050505050611e4e6126a3565b50565b670de0b6b3a764000081565b611e656126bc565b6000611e6f6124e0565b9050818160010160006101000a81548173ffffffffffffffffffffffffffffffffffffffff021916908373ffffffffffffffffffffffffffffffffffffffff1602179055505050565b611ec0612448565b611ec8612489565b611ed0612508565b73ffffffffffffffffffffffffffffffffffffffff168173ffffffffffffffffffffffffffffffffffffffff1614611f34576040517fee77070400000000000000000000000000000000000000000000000000000000815260040160405180910390fd5b6000611f3e6124e0565b905060008160010160009054906101000a900473ffffffffffffffffffffffffffffffffffffffff1673ffffffffffffffffffffffffffffffffffffffff16632a6bc2dd846040518263ffffffff1660e01b8152600401611f9f91906134f9565b600060405180830381865afa158015611fbc573d6000803e3d6000fd5b505050506040513d6000823e3d601f19601f82011682018060405250810190611fe591906138e9565b9050600080825167ffffffffffffffff811115612005576120046132b9565b5b60405190808252806020026020018201604052801561203e57816020015b61202b613102565b8152602001906001900390816120235790505b50905060005b83518110156122b357600084828151811061206257612061613932565b5b60200260200101519050600061207782612510565b905060008760010160009054906101000a900473ffffffffffffffffffffffffffffffffffffffff1673ffffffffffffffffffffffffffffffffffffffff1663eb02c301846040518263ffffffff1660e01b81526004016120d89190613243565b608060405180830381865afa1580156120f5573d6000803e3d6000fd5b505050506040513d601f19601f820116820180604052508101906121199190613689565b60000151905060008860020160008373ffffffffffffffffffffffffffffffffffffffff1673ffffffffffffffffffffffffffffffffffffffff16815260200190815260200160002090508281600201600082825461217891906136e5565b92505081905550828160010160008282546121939190613719565b925050819055508060030154816004016000868152602001908152602001600020819055508860010160009054906101000a900473ffffffffffffffffffffffffffffffffffffffff1673ffffffffffffffffffffffffffffffffffffffff1663018629928583600301546040518363ffffffff1660e01b815260040161221b92919061374d565b600060405180830381600087803b15801561223557600080fd5b505af1158015612249573d6000803e3d6000fd5b5050505060405180604001604052808373ffffffffffffffffffffffffffffffffffffffff1681526020018481525086868151811061228b5761228a613932565b5b602002602001018190525082876122a29190613719565b965050505050806001019050612044565b508360000160009054906101000a900473ffffffffffffffffffffffffffffffffffffffff1673ffffffffffffffffffffffffffffffffffffffff1663a9059cbb6122fc612508565b846040518363ffffffff1660e01b815260040161231a929190613776565b6020604051808303816000875af1158015612339573d6000803e3d6000fd5b505050506040513d601f19601f8201168201806040525081019061235d91906137cb565b50612366612508565b73ffffffffffffffffffffffffffffffffffffffff167f445449d0ab504db2855634394b8408e0b876b052ce974f14e16baa7cfe2a987c826040516123ab9190613c53565b60405180910390a2505050506123bf6126a3565b50565b6123ca6126bc565b600073ffffffffffffffffffffffffffffffffffffffff168173ffffffffffffffffffffffffffffffffffffffff160361243c5760006040517f1e4fbdf700000000000000000000000000000000000000000000000000000000815260040161243391906134f9565b60405180910390fd5b61244581612a74565b50565b6124506110b1565b15612487576040517fd93c066500000000000000000000000000000000000000000000000000000000815260040160405180910390fd5b565b6000612493612c33565b905060028160000154036124d3576040517f3ee5aeb500000000000000000000000000000000000000000000000000000000815260040160405180910390fd5b6002816000018190555050565b60007fe9c9d9e1df02920d747aa7516ca1d4362d70267096e6330bcfb24b265ac2ee00905090565b600033905090565b60008061251b6124e0565b905060008160010160009054906101000a900473ffffffffffffffffffffffffffffffffffffffff1673ffffffffffffffffffffffffffffffffffffffff1663eb02c301856040518263ffffffff1660e01b815260040161257c9190613243565b608060405180830381865afa158015612599573d6000803e3d6000fd5b505050506040513d601f19601f820116820180604052508101906125bd9190613689565b90506000826002016000836000015173ffffffffffffffffffffffffffffffffffffffff1673ffffffffffffffffffffffffffffffffffffffff1681526020019081526020016000206003015490506000836002016000846000015173ffffffffffffffffffffffffffffffffffffffff1673ffffffffffffffffffffffffffffffffffffffff1681526020019081526020016000206004016000878152602001908152602001600020549050670de0b6b3a7640000818361267f91906136e5565b846020015161268e9190613998565b6126989190613a09565b945050505050919050565b60006126ad612c33565b90506001816000018190555050565b6126c4612508565b73ffffffffffffffffffffffffffffffffffffffff166126e2611380565b73ffffffffffffffffffffffffffffffffffffffff161461274157612705612508565b6040517f118cdaa700000000000000000000000000000000000000000000000000000000815260040161273891906134f9565b60405180910390fd5b565b61274b612c5b565b6000612755612a4c565b905060008160000160006101000a81548160ff0219169083151502179055507f5db9ee0a495bf2e6ff9c91a7834c1ba4fdd244a5e8aa4e537bd38aeae4b073aa61279d612508565b6040516127aa91906134f9565b60405180910390a150565b7f000000000000000000000000000000000000000000000000000000000000000073ffffffffffffffffffffffffffffffffffffffff163073ffffffffffffffffffffffffffffffffffffffff16148061286257507f000000000000000000000000000000000000000000000000000000000000000073ffffffffffffffffffffffffffffffffffffffff16612849612c9b565b73ffffffffffffffffffffffffffffffffffffffff1614155b15612899576040517fe07c8dba00000000000000000000000000000000000000000000000000000000815260040160405180910390fd5b565b6128a36126bc565b50565b8173ffffffffffffffffffffffffffffffffffffffff166352d1902d6040518163ffffffff1660e01b8152600401602060405180830381865afa92505050801561290e57506040513d601f19601f8201168201806040525081019061290b9190613ca1565b60015b61294f57816040517f4c9c8ce300000000000000000000000000000000000000000000000000000000815260040161294691906134f9565b60405180910390fd5b7f360894a13ba1a3210667c828492db98dca3e2076cc3735a920a3ca505d382bbc60001b81146129b657806040517faa1d49a40000000000000000000000000000000000000000000000000000000081526004016129ad9190613459565b60405180910390fd5b6129c08383612cf2565b505050565b7f000000000000000000000000000000000000000000000000000000000000000073ffffffffffffffffffffffffffffffffffffffff163073ffffffffffffffffffffffffffffffffffffffff1614612a4a576040517fe07c8dba00000000000000000000000000000000000000000000000000000000815260040160405180910390fd5b565b60007fcd5ed15c6e187e77e9aee88184c21f4f2182ab5827cb3b7e07fbedcd63f03300905090565b6000612a7e612bbd565b905060008160000160009054906101000a900473ffffffffffffffffffffffffffffffffffffffff169050828260000160006101000a81548173ffffffffffffffffffffffffffffffffffffffff021916908373ffffffffffffffffffffffffffffffffffffffff1602179055508273ffffffffffffffffffffffffffffffffffffffff168173ffffffffffffffffffffffffffffffffffffffff167f8be0079c531659141344cd1fd0a4f28419497f9722a3daafe3b4186f6b6457e060405160405180910390a3505050565b612b53612448565b6000612b5d612a4c565b905060018160000160006101000a81548160ff0219169083151502179055507f62e78cea01bee320cd4e420270b5ea74000d11b0c9f74754ebdbfc544b05a258612ba5612508565b604051612bb291906134f9565b60405180910390a150565b60007f9016d09d72d40fdae2fd8ceac6b6234c7706214fd39c1cd1e609a0528c199300905090565b600080612bf0612d65565b90508091505090565b612c01612d90565b565b612c0b612d90565b612c1481612dd0565b50565b612c1f612d90565b565b612c29612d90565b612c31612e56565b565b60007f9b779b17422d0df92223018b32b4d1fa46e071723d6817e2486d003becc55f00905090565b612c636110b1565b612c99576040517f8dfc202b00000000000000000000000000000000000000000000000000000000815260040160405180910390fd5b565b6000612cc97f360894a13ba1a3210667c828492db98dca3e2076cc3735a920a3ca505d382bbc60001b612e77565b60000160009054906101000a900473ffffffffffffffffffffffffffffffffffffffff16905090565b612cfb82612e81565b8173ffffffffffffffffffffffffffffffffffffffff167fbc7cd75a20ee27fd9adebab32041f755214dbc6bffa90cc0225b39da2e5c2d3b60405160405180910390a2600081511115612d5857612d528282612f4e565b50612d61565b612d60612fd2565b5b5050565b60007ff0c57e16840df040f15088dc2f81fe391c3923bec73e23a9662efc9c229c6a0060001b905090565b612d9861300f565b612dce576040517fd7e6bcf800000000000000000000000000000000000000000000000000000000815260040160405180910390fd5b565b612dd8612d90565b600073ffffffffffffffffffffffffffffffffffffffff168173ffffffffffffffffffffffffffffffffffffffff1603612e4a5760006040517f1e4fbdf7000000000000000000000000000000000000000000000000000000008152600401612e4191906134f9565b60405180910390fd5b612e5381612a74565b50565b612e5e612d90565b6000612e68612c33565b90506001816000018190555050565b6000819050919050565b60008173ffffffffffffffffffffffffffffffffffffffff163b03612edd57806040517f4c9c8ce3000000000000000000000000000000000000000000000000000000008152600401612ed491906134f9565b60405180910390fd5b80612f0a7f360894a13ba1a3210667c828492db98dca3e2076cc3735a920a3ca505d382bbc60001b612e77565b60000160006101000a81548173ffffffffffffffffffffffffffffffffffffffff021916908373ffffffffffffffffffffffffffffffffffffffff16021790555050565b60606000808473ffffffffffffffffffffffffffffffffffffffff1684604051612f789190613d15565b600060405180830381855af49150503d8060008114612fb3576040519150601f19603f3d011682016040523d82523d6000602084013e612fb8565b606091505b5091509150612fc885838361302f565b9250505092915050565b600034111561300d576040517fb398979f00000000000000000000000000000000000000000000000000000000815260040160405180910390fd5b565b6000613019612be5565b60000160089054906101000a900460ff16905090565b6060826130445761303f826130be565b6130b6565b6000825114801561306c575060008473ffffffffffffffffffffffffffffffffffffffff163b145b156130ae57836040517f9996b3150000000000000000000000000000000000000000000000000000000081526004016130a591906134f9565b60405180910390fd5b8190506130b7565b5b9392505050565b6000815111156130d057805160208201fd5b6040517fd6bda27500000000000000000000000000000000000000000000000000000000815260040160405180910390fd5b6040518060400160405280600073ffffffffffffffffffffffffffffffffffffffff168152602001600081525090565b6000604051905090565b600080fd5b600080fd5b6000819050919050565b61315981613146565b811461316457600080fd5b50565b60008135905061317681613150565b92915050565b6000602082840312156131925761319161313c565b5b60006131a084828501613167565b91505092915050565b600073ffffffffffffffffffffffffffffffffffffffff82169050919050565b60006131d4826131a9565b9050919050565b6131e4816131c9565b81146131ef57600080fd5b50565b600081359050613201816131db565b92915050565b60006020828403121561321d5761321c61313c565b5b600061322b848285016131f2565b91505092915050565b61323d81613146565b82525050565b60006020820190506132586000830184613234565b92915050565b600080604083850312156132755761327461313c565b5b6000613283858286016131f2565b9250506020613294858286016131f2565b9150509250929050565b600080fd5b600080fd5b6000601f19601f8301169050919050565b7f4e487b7100000000000000000000000000000000000000000000000000000000600052604160045260246000fd5b6132f1826132a8565b810181811067ffffffffffffffff821117156133105761330f6132b9565b5b80604052505050565b6000613323613132565b905061332f82826132e8565b919050565b600067ffffffffffffffff82111561334f5761334e6132b9565b5b613358826132a8565b9050602081019050919050565b82818337600083830152505050565b600061338761338284613334565b613319565b9050828152602081018484840111156133a3576133a26132a3565b5b6133ae848285613365565b509392505050565b600082601f8301126133cb576133ca61329e565b5b81356133db848260208601613374565b91505092915050565b600080604083850312156133fb576133fa61313c565b5b6000613409858286016131f2565b925050602083013567ffffffffffffffff81111561342a57613429613141565b5b613436858286016133b6565b9150509250929050565b6000819050919050565b61345381613440565b82525050565b600060208201905061346e600083018461344a565b92915050565b60008115159050919050565b61348981613474565b82525050565b60006020820190506134a46000830184613480565b92915050565b600080604083850312156134c1576134c061313c565b5b60006134cf858286016131f2565b92505060206134e085828601613167565b9150509250929050565b6134f3816131c9565b82525050565b600060208201905061350e60008301846134ea565b92915050565b600081519050919050565b600082825260208201905092915050565b60005b8381101561354e578082015181840152602081019050613533565b60008484015250505050565b600061356582613514565b61356f818561351f565b935061357f818560208601613530565b613588816132a8565b840191505092915050565b600060208201905081810360008301526135ad818461355a565b905092915050565b6000815190506135c4816131db565b92915050565b6000602082840312156135e0576135df61313c565b5b60006135ee848285016135b5565b91505092915050565b600080fd5b60008151905061360b81613150565b92915050565b600060808284031215613627576136266135f7565b5b6136316080613319565b90506000613641848285016135b5565b6000830152506020613655848285016135fc565b6020830152506040613669848285016135fc565b604083015250606061367d848285016135b5565b60608301525092915050565b60006080828403121561369f5761369e61313c565b5b60006136ad84828501613611565b91505092915050565b7f4e487b7100000000000000000000000000000000000000000000000000000000600052601160045260246000fd5b60006136f082613146565b91506136fb83613146565b9250828203905081811115613713576137126136b6565b5b92915050565b600061372482613146565b915061372f83613146565b9250828201905080821115613747576137466136b6565b5b92915050565b60006040820190506137626000830185613234565b61376f6020830184613234565b9392505050565b600060408201905061378b60008301856134ea565b6137986020830184613234565b9392505050565b6137a881613474565b81146137b357600080fd5b50565b6000815190506137c58161379f565b92915050565b6000602082840312156137e1576137e061313c565b5b60006137ef848285016137b6565b91505092915050565b600060408201905061380d60008301856134ea565b61381a60208301846134ea565b9392505050565b600067ffffffffffffffff82111561383c5761383b6132b9565b5b602082029050602081019050919050565b600080fd5b600061386561386084613821565b613319565b905080838252602082019050602084028301858111156138885761388761384d565b5b835b818110156138b1578061389d88826135fc565b84526020840193505060208101905061388a565b5050509392505050565b600082601f8301126138d0576138cf61329e565b5b81516138e0848260208601613852565b91505092915050565b6000602082840312156138ff576138fe61313c565b5b600082015167ffffffffffffffff81111561391d5761391c613141565b5b613929848285016138bb565b91505092915050565b7f4e487b7100000000000000000000000000000000000000000000000000000000600052603260045260246000fd5b600060608201905061397660008301866134ea565b61398360208301856134ea565b6139906040830184613234565b949350505050565b60006139a382613146565b91506139ae83613146565b92508282026139bc81613146565b915082820484148315176139d3576139d26136b6565b5b5092915050565b7f4e487b7100000000000000000000000000000000000000000000000000000000600052601260045260246000fd5b6000613a1482613146565b9150613a1f83613146565b925082613a2f57613a2e6139da565b5b828204905092915050565b6000608082019050613a4f60008301876134ea565b613a5c60208301866134ea565b613a696040830185613234565b613a766060830184613234565b95945050505050565b600060208284031215613a9557613a9461313c565b5b6000613aa3848285016135fc565b91505092915050565b6000819050919050565b600067ffffffffffffffff82169050919050565b6000819050919050565b6000613aef613aea613ae584613aac565b613aca565b613ab6565b9050919050565b613aff81613ad4565b82525050565b6000602082019050613b1a6000830184613af6565b92915050565b6000606082019050613b356000830186613234565b613b426020830185613234565b613b4f6040830184613234565b949350505050565b600081519050919050565b600082825260208201905092915050565b6000819050602082019050919050565b613b8c816131c9565b82525050565b613b9b81613146565b82525050565b604082016000820151613bb76000850182613b83565b506020820151613bca6020850182613b92565b50505050565b6000613bdc8383613ba1565b60408301905092915050565b6000602082019050919050565b6000613c0082613b57565b613c0a8185613b62565b9350613c1583613b73565b8060005b83811015613c46578151613c2d8882613bd0565b9750613c3883613be8565b925050600181019050613c19565b5085935050505092915050565b60006020820190508181036000830152613c6d8184613bf5565b905092915050565b613c7e81613440565b8114613c8957600080fd5b50565b600081519050613c9b81613c75565b92915050565b600060208284031215613cb757613cb661313c565b5b6000613cc584828501613c8c565b91505092915050565b600081519050919050565b600081905092915050565b6000613cef82613cce565b613cf98185613cd9565b9350613d09818560208601613530565b80840191505092915050565b6000613d218284613ce4565b91508190509291505056fea26469706673582212202c6586a2b3527644326613c3983cae1c48db897e9da3a7af6e85cf88540037f964736f6c634300081c0033",
  "linkReferences": {},
  "deployedLinkReferences": {}
}