{
  "_format": "hh-sol-artifact-1",
  "contractName": "LikeStakePosition",
  "sourceName": "contracts/LikeStakePosition.sol",
  "abi": [
    {
      "inputs": [],
      "stateMutability": "nonpayable",
      "type": "constructor"
    },
    {
      "inputs": [
        {
          "internalType": "address",
          "name": "target",
          "type": "address"
        }
      ],
      "name": "AddressEmptyCode",
      "type": "error"
    },
    {
      "inputs": [
        {
          "internalType": "address",
          "name": "implementation",
          "type": "address"
        }
      ],
      "name": "ERC1967InvalidImplementation",
      "type": "error"
    },
    {
      "inputs": [],
      "name": "ERC1967NonPayable",
      "type": "error"
    },
    {
      "inputs": [],
      "name": "ERC721EnumerableForbiddenBatchMint",
      "type": "error"
    },
    {
      "inputs": [
        {
          "internalType": "address",
          "name": "sender",
          "type": "address"
        },
        {
          "internalType": "uint256",
          "name": "tokenId",
          "type": "uint256"
        },
        {
          "internalType": "address",
          "name": "owner",
          "type": "address"
        }
      ],
      "name": "ERC721IncorrectOwner",
      "type": "error"
    },
    {
      "inputs": [
        {
          "internalType": "address",
          "name": "operator",
          "type": "address"
        },
        {
          "internalType": "uint256",
          "name": "tokenId",
          "type": "uint256"
        }
      ],
      "name": "ERC721InsufficientApproval",
      "type": "error"
    },
    {
      "inputs": [
        {
          "internalType": "address",
          "name": "approver",
          "type": "address"
        }
      ],
      "name": "ERC721InvalidApprover",
      "type": "error"
    },
    {
      "inputs": [
        {
          "internalType": "address",
          "name": "operator",
          "type": "address"
        }
      ],
      "name": "ERC721InvalidOperator",
      "type": "error"
    },
    {
      "inputs": [
        {
          "internalType": "address",
          "name": "owner",
          "type": "address"
        }
      ],
      "name": "ERC721InvalidOwner",
      "type": "error"
    },
    {
      "inputs": [
        {
          "internalType": "address",
          "name": "receiver",
          "type": "address"
        }
      ],
      "name": "ERC721InvalidReceiver",
      "type": "error"
    },
    {
      "inputs": [
        {
          "internalType": "address",
          "name": "sender",
          "type": "address"
        }
      ],
      "name": "ERC721InvalidSender",
      "type": "error"
    },
    {
      "inputs": [
        {
          "internalType": "uint256",
          "name": "tokenId",
          "type": "uint256"
        }
      ],
      "name": "ERC721NonexistentToken",
      "type": "error"
    },
    {
      "inputs": [
        {
          "internalType": "address",
          "name": "owner",
          "type": "address"
        },
        {
          "internalType": "uint256",
          "name": "index",
          "type": "uint256"
        }
      ],
      "name": "ERC721OutOfBoundsIndex",
      "type": "error"
    },
    {
      "inputs": [],
      "name": "EnforcedPause",
      "type": "error"
    },
    {
      "inputs": [],
      "name": "ErrInvalidOwner",
      "type": "error"
    },
    {
      "inputs": [],
      "name": "ErrNotManager",
      "type": "error"
    },
    {
      "inputs": [],
      "name": "ErrZeroAddress",
      "type": "error"
    },
    {
      "inputs": [],
      "name": "ExpectedPause",
      "type": "error"
    },
    {
      "inputs": [],
      "name": "FailedCall",
      "type": "error"
    },
    {
      "inputs": [],
      "name": "InvalidInitialization",
      "type": "error"
    },
    {
      "inputs": [],
      "name": "NotInitializing",
      "type": "error"
    },
    {
      "inputs": [
        {
          "internalType": "address",
          "name": "owner",
          "type": "address"
        }
      ],
      "name": "OwnableInvalidOwner",
      "type": "error"
    },
    {
      "inputs": [
        {
          "internalType": "address",
          "name": "account",
          "type": "address"
        }
      ],
      "name": "OwnableUnauthorizedAccount",
      "type": "error"
    },
    {
      "inputs": [],
      "name": "ReentrancyGuardReentrantCall",
      "type": "error"
    },
    {
      "inputs": [],
      "name": "UUPSUnauthorizedCallContext",
      "type": "error"
    },
    {
      "inputs": [
        {
          "internalType": "bytes32",
          "name": "slot",
          "type": "bytes32"
        }
      ],
      "name": "UUPSUnsupportedProxiableUUID",
      "type": "error"
    },
    {
      "anonymous": false,
      "inputs": [
        {
          "indexed": true,
          "internalType": "address",
          "name": "owner",
          "type": "address"
        },
        {
          "indexed": true,
          "internalType": "address",
          "name": "approved",
          "type": "address"
        },
        {
          "indexed": true,
          "internalType": "uint256",
          "name": "tokenId",
          "type": "uint256"
        }
      ],
      "name": "Approval",
      "type": "event"
    },
    {
      "anonymous": false,
      "inputs": [
        {
          "indexed": true,
          "internalType": "address",
          "name": "owner",
          "type": "address"
        },
        {
          "indexed": true,
          "internalType": "address",
          "name": "operator",
          "type": "address"
        },
        {
          "indexed": false,
          "internalType": "bool",
          "name": "approved",
          "type": "bool"
        }
      ],
      "name": "ApprovalForAll",
      "type": "event"
    },
    {
      "anonymous": false,
      "inputs": [
        {
          "indexed": false,
          "internalType": "string",
          "name": "baseURI",
          "type": "string"
        }
      ],
      "name": "BaseURIUpdated",
      "type": "event"
    },
    {
      "anonymous": false,
      "inputs": [
        {
          "indexed": false,
          "internalType": "uint256",
          "name": "_fromTokenId",
          "type": "uint256"
        },
        {
          "indexed": false,
          "internalType": "uint256",
          "name": "_toTokenId",
          "type": "uint256"
        }
      ],
      "name": "BatchMetadataUpdate",
      "type": "event"
    },
    {
      "anonymous": false,
      "inputs": [
        {
          "indexed": false,
          "internalType": "uint64",
          "name": "version",
          "type": "uint64"
        }
      ],
      "name": "Initialized",
      "type": "event"
    },
    {
      "anonymous": false,
      "inputs": [
        {
          "indexed": true,
          "internalType": "address",
          "name": "manager",
          "type": "address"
        }
      ],
      "name": "ManagerUpdated",
      "type": "event"
    },
    {
      "anonymous": false,
      "inputs": [
        {
          "indexed": false,
          "internalType": "uint256",
          "name": "_tokenId",
          "type": "uint256"
        }
      ],
      "name": "MetadataUpdate",
      "type": "event"
    },
    {
      "anonymous": false,
      "inputs": [
        {
          "indexed": true,
          "internalType": "address",
          "name": "previousOwner",
          "type": "address"
        },
        {
          "indexed": true,
          "internalType": "address",
          "name": "newOwner",
          "type": "address"
        }
      ],
      "name": "OwnershipTransferred",
      "type": "event"
    },
    {
      "anonymous": false,
      "inputs": [
        {
          "indexed": false,
          "internalType": "address",
          "name": "account",
          "type": "address"
        }
      ],
      "name": "Paused",
      "type": "event"
    },
    {
      "anonymous": false,
      "inputs": [
        {
          "indexed": true,
          "internalType": "uint256",
          "name": "tokenId",
          "type": "uint256"
        }
      ],
      "name": "PositionBurned",
      "type": "event"
    },
    {
      "anonymous": false,
      "inputs": [
        {
          "indexed": true,
          "internalType": "uint256",
          "name": "tokenId",
          "type": "uint256"
        },
        {
          "indexed": true,
          "internalType": "address",
          "name": "to",
          "type": "address"
        },
        {
          "indexed": true,
          "internalType": "address",
          "name": "bookNFT",
          "type": "address"
        },
        {
          "indexed": false,
          "internalType": "uint256",
          "name": "amount",
          "type": "uint256"
        },
        {
          "indexed": false,
          "internalType": "uint256",
          "name": "rewardIndex",
          "type": "uint256"
        }
      ],
      "name": "PositionMinted",
      "type": "event"
    },
    {
      "anonymous": false,
      "inputs": [
        {
          "indexed": true,
          "internalType": "uint256",
          "name": "tokenId",
          "type": "uint256"
        },
        {
          "indexed": false,
          "internalType": "uint256",
          "name": "amount",
          "type": "uint256"
        },
        {
          "indexed": false,
          "internalType": "uint256",
          "name": "rewardIndex",
          "type": "uint256"
        }
      ],
      "name": "PositionUpdated",
      "type": "event"
    },
    {
      "anonymous": false,
      "inputs": [
        {
          "indexed": true,
          "internalType": "address",
          "name": "from",
          "type": "address"
        },
        {
          "indexed": true,
          "internalType": "address",
          "name": "to",
          "type": "address"
        },
        {
          "indexed": true,
          "internalType": "uint256",
          "name": "tokenId",
          "type": "uint256"
        }
      ],
      "name": "Transfer",
      "type": "event"
    },
    {
      "anonymous": false,
      "inputs": [
        {
          "indexed": false,
          "internalType": "address",
          "name": "account",
          "type": "address"
        }
      ],
      "name": "Unpaused",
      "type": "event"
    },
    {
      "anonymous": false,
      "inputs": [
        {
          "indexed": true,
          "internalType": "address",
          "name": "implementation",
          "type": "address"
        }
      ],
      "name": "Upgraded",
      "type": "event"
    },
    {
      "inputs": [],
      "name": "UPGRADE_INTERFACE_VERSION",
      "outputs": [
        {
          "internalType": "string",
          "name": "",
          "type": "string"
        }
      ],
      "stateMutability": "view",
      "type": "function"
    },
    {
      "inputs": [
        {
          "internalType": "address",
          "name": "to",
          "type": "address"
        },
        {
          "internalType": "uint256",
          "name": "tokenId",
          "type": "uint256"
        }
      ],
      "name": "approve",
      "outputs": [],
      "stateMutability": "nonpayable",
      "type": "function"
    },
    {
      "inputs": [
        {
          "internalType": "address",
          "name": "owner",
          "type": "address"
        }
      ],
      "name": "balanceOf",
      "outputs": [
        {
          "internalType": "uint256",
          "name": "",
          "type": "uint256"
        }
      ],
      "stateMutability": "view",
      "type": "function"
    },
    {
      "inputs": [
        {
          "internalType": "uint256",
          "name": "tokenId",
          "type": "uint256"
        }
      ],
      "name": "burnPosition",
      "outputs": [],
      "stateMutability": "nonpayable",
      "type": "function"
    },
    {
      "inputs": [
        {
          "internalType": "uint256",
          "name": "tokenId",
          "type": "uint256"
        }
      ],
      "name": "getApproved",
      "outputs": [
        {
          "internalType": "address",
          "name": "",
          "type": "address"
        }
      ],
      "stateMutability": "view",
      "type": "function"
    },
    {
      "inputs": [],
      "name": "getNextTokenId",
      "outputs": [
        {
          "internalType": "uint256",
          "name": "",
          "type": "uint256"
        }
      ],
      "stateMutability": "view",
      "type": "function"
    },
    {
      "inputs": [
        {
          "internalType": "uint256",
          "name": "tokenId",
          "type": "uint256"
        }
      ],
      "name": "getPosition",
      "outputs": [
        {
          "components": [
            {
              "internalType": "address",
              "name": "bookNFT",
              "type": "address"
            },
            {
              "internalType": "uint256",
              "name": "stakedAmount",
              "type": "uint256"
            },
            {
              "internalType": "uint256",
              "name": "rewardIndex",
              "type": "uint256"
            },
            {
              "internalType": "address",
              "name": "initialStaker",
              "type": "address"
            }
          ],
          "internalType": "struct LikeStakePosition.Position",
          "name": "",
          "type": "tuple"
        }
      ],
      "stateMutability": "view",
      "type": "function"
    },
    {
      "inputs": [
        {
          "internalType": "address",
          "name": "user",
          "type": "address"
        },
        {
          "internalType": "address",
          "name": "bookNFT",
          "type": "address"
        }
      ],
      "name": "getUserPositionByBookNFT",
      "outputs": [
        {
          "internalType": "uint256[]",
          "name": "",
          "type": "uint256[]"
        }
      ],
      "stateMutability": "view",
      "type": "function"
    },
    {
      "inputs": [
        {
          "internalType": "address",
          "name": "user",
          "type": "address"
        }
      ],
      "name": "getUserPositions",
      "outputs": [
        {
          "internalType": "uint256[]",
          "name": "positions",
          "type": "uint256[]"
        }
      ],
      "stateMutability": "view",
      "type": "function"
    },
    {
      "inputs": [
        {
          "internalType": "address",
          "name": "initialOwner",
          "type": "address"
        }
      ],
      "name": "initialize",
      "outputs": [],
      "stateMutability": "nonpayable",
      "type": "function"
    },
    {
      "inputs": [
        {
          "internalType": "address",
          "name": "owner",
          "type": "address"
        },
        {
          "internalType": "address",
          "name": "operator",
          "type": "address"
        }
      ],
      "name": "isApprovedForAll",
      "outputs": [
        {
          "internalType": "bool",
          "name": "",
          "type": "bool"
        }
      ],
      "stateMutability": "view",
      "type": "function"
    },
    {
      "inputs": [],
      "name": "manager",
      "outputs": [
        {
          "internalType": "address",
          "name": "",
          "type": "address"
        }
      ],
      "stateMutability": "view",
      "type": "function"
    },
    {
      "inputs": [
        {
          "internalType": "address",
          "name": "to",
          "type": "address"
        },
        {
          "internalType": "address",
          "name": "bookNFT",
          "type": "address"
        },
        {
          "internalType": "uint256",
          "name": "stakedAmount",
          "type": "uint256"
        },
        {
          "internalType": "uint256",
          "name": "rewardIndex",
          "type": "uint256"
        }
      ],
      "name": "mintPosition",
      "outputs": [
        {
          "internalType": "uint256",
          "name": "tokenId",
          "type": "uint256"
        }
      ],
      "stateMutability": "nonpayable",
      "type": "function"
    },
    {
      "inputs": [],
      "name": "name",
      "outputs": [
        {
          "internalType": "string",
          "name": "",
          "type": "string"
        }
      ],
      "stateMutability": "view",
      "type": "function"
    },
    {
      "inputs": [],
      "name": "owner",
      "outputs": [
        {
          "internalType": "address",
          "name": "",
          "type": "address"
        }
      ],
      "stateMutability": "view",
      "type": "function"
    },
    {
      "inputs": [
        {
          "internalType": "uint256",
          "name": "tokenId",
          "type": "uint256"
        }
      ],
      "name": "ownerOf",
      "outputs": [
        {
          "internalType": "address",
          "name": "",
          "type": "address"
        }
      ],
      "stateMutability": "view",
      "type": "function"
    },
    {
      "inputs": [],
      "name": "pause",
      "outputs": [],
      "stateMutability": "nonpayable",
      "type": "function"
    },
    {
      "inputs": [],
      "name": "paused",
      "outputs": [
        {
          "internalType": "bool",
          "name": "",
          "type": "bool"
        }
      ],
      "stateMutability": "view",
      "type": "function"
    },
    {
      "inputs": [],
      "name": "proxiableUUID",
      "outputs": [
        {
          "internalType": "bytes32",
          "name": "",
          "type": "bytes32"
        }
      ],
      "stateMutability": "view",
      "type": "function"
    },
    {
      "inputs": [],
      "name": "renounceOwnership",
      "outputs": [],
      "stateMutability": "nonpayable",
      "type": "function"
    },
    {
      "inputs": [
        {
          "internalType": "address",
          "name": "from",
          "type": "address"
        },
        {
          "internalType": "address",
          "name": "to",
          "type": "address"
        },
        {
          "internalType": "uint256",
          "name": "tokenId",
          "type": "uint256"
        }
      ],
      "name": "safeTransferFrom",
      "outputs": [],
      "stateMutability": "nonpayable",
      "type": "function"
    },
    {
      "inputs": [
        {
          "internalType": "address",
          "name": "from",
          "type": "address"
        },
        {
          "internalType": "address",
          "name": "to",
          "type": "address"
        },
        {
          "internalType": "uint256",
          "name": "tokenId",
          "type": "uint256"
        },
        {
          "internalType": "bytes",
          "name": "data",
          "type": "bytes"
        }
      ],
      "name": "safeTransferFrom",
      "outputs": [],
      "stateMutability": "nonpayable",
      "type": "function"
    },
    {
      "inputs": [
        {
          "internalType": "address",
          "name": "operator",
          "type": "address"
        },
        {
          "internalType": "bool",
          "name": "approved",
          "type": "bool"
        }
      ],
      "name": "setApprovalForAll",
      "outputs": [],
      "stateMutability": "nonpayable",
      "type": "function"
    },
    {
      "inputs": [
        {
          "internalType": "string",
          "name": "baseURI_",
          "type": "string"
        }
      ],
      "name": "setBaseURI",
      "outputs": [],
      "stateMutability": "nonpayable",
      "type": "function"
    },
    {
      "inputs": [
        {
          "internalType": "address",
          "name": "manager_",
          "type": "address"
        }
      ],
      "name": "setManager",
      "outputs": [],
      "stateMutability": "nonpayable",
      "type": "function"
    },
    {
      "inputs": [
        {
          "internalType": "bytes4",
          "name": "interfaceId",
          "type": "bytes4"
        }
      ],
      "name": "supportsInterface",
      "outputs": [
        {
          "internalType": "bool",
          "name": "",
          "type": "bool"
        }
      ],
      "stateMutability": "view",
      "type": "function"
    },
    {
      "inputs": [],
      "name": "symbol",
      "outputs": [
        {
          "internalType": "string",
          "name": "",
          "type": "string"
        }
      ],
      "stateMutability": "view",
      "type": "function"
    },
    {
      "inputs": [
        {
          "internalType": "uint256",
          "name": "index",
          "type": "uint256"
        }
      ],
      "name": "tokenByIndex",
      "outputs": [
        {
          "internalType": "uint256",
          "name": "",
          "type": "uint256"
        }
      ],
      "stateMutability": "view",
      "type": "function"
    },
    {
      "inputs": [
        {
          "internalType": "address",
          "name": "owner",
          "type": "address"
        },
        {
          "internalType": "uint256",
          "name": "index",
          "type": "uint256"
        }
      ],
      "name": "tokenOfOwnerByIndex",
      "outputs": [
        {
          "internalType": "uint256",
          "name": "",
          "type": "uint256"
        }
      ],
      "stateMutability": "view",
      "type": "function"
    },
    {
      "inputs": [
        {
          "internalType": "uint256",
          "name": "tokenId",
          "type": "uint256"
        }
      ],
      "name": "tokenURI",
      "outputs": [
        {
          "internalType": "string",
          "name": "",
          "type": "string"
        }
      ],
      "stateMutability": "view",
      "type": "function"
    },
    {
      "inputs": [],
      "name": "totalSupply",
      "outputs": [
        {
          "internalType": "uint256",
          "name": "",
          "type": "uint256"
        }
      ],
      "stateMutability": "view",
      "type": "function"
    },
    {
      "inputs": [
        {
          "internalType": "address",
          "name": "from",
          "type": "address"
        },
        {
          "internalType": "address",
          "name": "to",
          "type": "address"
        },
        {
          "internalType": "uint256",
          "name": "tokenId",
          "type": "uint256"
        }
      ],
      "name": "transferFrom",
      "outputs": [],
      "stateMutability": "nonpayable",
      "type": "function"
    },
    {
      "inputs": [
        {
          "internalType": "address",
          "name": "newOwner",
          "type": "address"
        }
      ],
      "name": "transferOwnership",
      "outputs": [],
      "stateMutability": "nonpayable",
      "type": "function"
    },
    {
      "inputs": [],
      "name": "unpause",
      "outputs": [],
      "stateMutability": "nonpayable",
      "type": "function"
    },
    {
      "inputs": [
        {
          "internalType": "uint256",
          "name": "tokenId",
          "type": "uint256"
        },
        {
          "internalType": "uint256",
          "name": "newStakedAmount",
          "type": "uint256"
        },
        {
          "internalType": "uint256",
          "name": "newRewardIndex",
          "type": "uint256"
        }
      ],
      "name": "updatePosition",
      "outputs": [],
      "stateMutability": "nonpayable",
      "type": "function"
    },
    {
      "inputs": [
        {
          "internalType": "uint256",
          "name": "tokenId",
          "type": "uint256"
        },
        {
          "internalType": "uint256",
          "name": "newRewardIndex",
          "type": "uint256"
        }
      ],
      "name": "updatePositionRewardIndex",
      "outputs": [],
      "stateMutability": "nonpayable",
      "type": "function"
    },
    {
      "inputs": [
        {
          "internalType": "address",
          "name": "newImplementation",
          "type": "address"
        },
        {
          "internalType": "bytes",
          "name": "data",
          "type": "bytes"
        }
      ],
      "name": "upgradeToAndCall",
      "outputs": [],
      "stateMutability": "payable",
      "type": "function"
    }
  ],
  "bytecode": "0x60a06040523073ffffffffffffffffffffffffffffffffffffffff1660809073ffffffffffffffffffffffffffffffffffffffff1681525034801561004357600080fd5b5061005261005760201b60201c565b6101de565b600061006761015b60201b60201c565b90508060000160089054906101000a900460ff16156100b2576040517ff92ee8a900000000000000000000000000000000000000000000000000000000815260040160405180910390fd5b67ffffffffffffffff80168160000160009054906101000a900467ffffffffffffffff1667ffffffffffffffff16146101585767ffffffffffffffff8160000160006101000a81548167ffffffffffffffff021916908367ffffffffffffffff1602179055507fc7f505b2f371ae2175ee4913f4499e1f2633a7b5936321eed1cdaeb6115181d267ffffffffffffffff60405161014f91906101c3565b60405180910390a15b50565b60008061016c61017560201b60201c565b90508091505090565b60007ff0c57e16840df040f15088dc2f81fe391c3923bec73e23a9662efc9c229c6a0060001b905090565b600067ffffffffffffffff82169050919050565b6101bd816101a0565b82525050565b60006020820190506101d860008301846101b4565b92915050565b60805161537d610207600039600081816123ef0152818161244401526125ff015261537d6000f3fe60806040526004361061021a5760003560e01c806352d1902d11610123578063a22cb465116100ab578063caa0f92a1161006f578063caa0f92a146107d4578063d0ebdbe7146107ff578063e985e9c514610828578063eb02c30114610865578063f2fde38b146108a25761021a565b8063a22cb465146106f1578063ad3cb1cc1461071a578063b88d4fde14610745578063c4d66de81461076e578063c87b56dd146107975761021a565b806370a08231116100f257806370a0823114610630578063715018a61461066d5780638456cb59146106845780638da5cb5b1461069b57806395d89b41146106c65761021a565b806352d1902d1461057457806355f804b31461059f5780635c975abb146105c85780636352211e146105f35761021a565b806323b872dd116101a65780633f4ba83a116101755780633f4ba83a146104b057806342842e0e146104c7578063481c6a75146104f05780634f1ef2861461051b5780634f6ccce7146105375761021a565b806323b872dd146103e45780632a6bc2dd1461040d5780632f745c591461044a57806338ca63bc146104875761021a565b8063081812fc116101ed578063081812fc146102d9578063095ea7b31461031657806309fbb2d71461033f5780630d998e5d1461037c57806318160ddd146103b95761021a565b8063018629921461021f57806301ffc9a7146102485780630602e13a1461028557806306fdde03146102ae575b600080fd5b34801561022b57600080fd5b506102466004803603810190610241919061407f565b6108cb565b005b34801561025457600080fd5b5061026f600480360381019061026a9190614117565b610a23565b60405161027c919061415f565b60405180910390f35b34801561029157600080fd5b506102ac60048036038101906102a7919061417a565b610a35565b005b3480156102ba57600080fd5b506102c3610c01565b6040516102d0919061425d565b60405180910390f35b3480156102e557600080fd5b5061030060048036038101906102fb919061427f565b610ca2565b60405161030d91906142ed565b60405180910390f35b34801561032257600080fd5b5061033d60048036038101906103389190614334565b610cbe565b005b34801561034b57600080fd5b5061036660048036038101906103619190614374565b610cd4565b60405161037391906143ea565b60405180910390f35b34801561038857600080fd5b506103a3600480360381019061039e9190614405565b610fd0565b6040516103b09190614503565b60405180910390f35b3480156103c557600080fd5b506103ce6110fe565b6040516103db91906143ea565b60405180910390f35b3480156103f057600080fd5b5061040b60048036038101906104069190614525565b611119565b005b34801561041957600080fd5b50610434600480360381019061042f9190614578565b61121b565b6040516104419190614503565b60405180910390f35b34801561045657600080fd5b50610471600480360381019061046c9190614334565b6112bb565b60405161047e91906143ea565b60405180910390f35b34801561049357600080fd5b506104ae60048036038101906104a9919061427f565b611372565b005b3480156104bc57600080fd5b506104c56114d7565b005b3480156104d357600080fd5b506104ee60048036038101906104e99190614525565b6114e9565b005b3480156104fc57600080fd5b50610505611509565b60405161051291906142ed565b60405180910390f35b610535600480360381019061053091906146da565b61153c565b005b34801561054357600080fd5b5061055e6004803603810190610559919061427f565b61155b565b60405161056b91906143ea565b60405180910390f35b34801561058057600080fd5b506105896115df565b604051610596919061474f565b60405180910390f35b3480156105ab57600080fd5b506105c660048036038101906105c191906147ca565b611612565b005b3480156105d457600080fd5b506105dd611678565b6040516105ea919061415f565b60405180910390f35b3480156105ff57600080fd5b5061061a6004803603810190610615919061427f565b61169d565b60405161062791906142ed565b60405180910390f35b34801561063c57600080fd5b5061065760048036038101906106529190614578565b6116af565b60405161066491906143ea565b60405180910390f35b34801561067957600080fd5b50610682611778565b005b34801561069057600080fd5b5061069961178c565b005b3480156106a757600080fd5b506106b061179e565b6040516106bd91906142ed565b60405180910390f35b3480156106d257600080fd5b506106db6117d6565b6040516106e8919061425d565b60405180910390f35b3480156106fd57600080fd5b5061071860048036038101906107139190614843565b611877565b005b34801561072657600080fd5b5061072f61188d565b60405161073c919061425d565b60405180910390f35b34801561075157600080fd5b5061076c60048036038101906107679190614883565b6118c6565b005b34801561077a57600080fd5b5061079560048036038101906107909190614578565b6118eb565b005b3480156107a357600080fd5b506107be60048036038101906107b9919061427f565b611b27565b6040516107cb919061425d565b60405180910390f35b3480156107e057600080fd5b506107e9611c8e565b6040516107f691906143ea565b60405180910390f35b34801561080b57600080fd5b5061082660048036038101906108219190614578565b611ca1565b005b34801561083457600080fd5b5061084f600480360381019061084a9190614405565b611da5565b60405161085c919061415f565b60405180910390f35b34801561087157600080fd5b5061088c6004803603810190610887919061427f565b611e47565b604051610899919061496a565b60405180910390f35b3480156108ae57600080fd5b506108c960048036038101906108c49190614578565b611f3d565b005b6108d3611fc3565b6108db612004565b6108e361205b565b60000160009054906101000a900473ffffffffffffffffffffffffffffffffffffffff1673ffffffffffffffffffffffffffffffffffffffff16610925612083565b73ffffffffffffffffffffffffffffffffffffffff1614610972576040517f30c8a92300000000000000000000000000000000000000000000000000000000815260040160405180910390fd5b600061097c61205b565b905060008160030160008581526020019081526020016000209050828160020181905550837ff89185fe8013045e431c4a2d209bdc8367e67b3aee3359fde091b6ce08e605508260010154856040516109d6929190614985565b60405180910390a27ff8e1a15aba9398e019f0b49df1a4fde98ee17ae345cb5f6b5e2c27f5033e8ce784604051610a0d91906143ea565b60405180910390a15050610a1f61208b565b5050565b6000610a2e826120a4565b9050919050565b610a3d611fc3565b610a45612004565b610a4d61205b565b60000160009054906101000a900473ffffffffffffffffffffffffffffffffffffffff1673ffffffffffffffffffffffffffffffffffffffff16610a8f612083565b73ffffffffffffffffffffffffffffffffffffffff1614610adc576040517f30c8a92300000000000000000000000000000000000000000000000000000000815260040160405180910390fd5b6000610ae661205b565b905060008160030160008681526020019081526020016000209050600073ffffffffffffffffffffffffffffffffffffffff16610b228661169d565b73ffffffffffffffffffffffffffffffffffffffff1603610b6f576040517fee77070400000000000000000000000000000000000000000000000000000000815260040160405180910390fd5b838160010181905550828160020181905550847ff89185fe8013045e431c4a2d209bdc8367e67b3aee3359fde091b6ce08e605508585604051610bb3929190614985565b60405180910390a27ff8e1a15aba9398e019f0b49df1a4fde98ee17ae345cb5f6b5e2c27f5033e8ce785604051610bea91906143ea565b60405180910390a15050610bfc61208b565b505050565b60606000610c0d612105565b9050806000018054610c1e906149dd565b80601f0160208091040260200160405190810160405280929190818152602001828054610c4a906149dd565b8015610c975780601f10610c6c57610100808354040283529160200191610c97565b820191906000526020600020905b815481529060010190602001808311610c7a57829003601f168201915b505050505091505090565b6000610cad8261212d565b50610cb7826121b5565b9050919050565b610cd08282610ccb612083565b612200565b5050565b6000610cde611fc3565b610ce6612004565b610cee61205b565b60000160009054906101000a900473ffffffffffffffffffffffffffffffffffffffff1673ffffffffffffffffffffffffffffffffffffffff16610d30612083565b73ffffffffffffffffffffffffffffffffffffffff1614610d7d576040517f30c8a92300000000000000000000000000000000000000000000000000000000815260040160405180910390fd5b600073ffffffffffffffffffffffffffffffffffffffff168573ffffffffffffffffffffffffffffffffffffffff161480610de45750600073ffffffffffffffffffffffffffffffffffffffff168473ffffffffffffffffffffffffffffffffffffffff16145b15610e1b576040517fecc6fdf000000000000000000000000000000000000000000000000000000000815260040160405180910390fd5b6000610e2561205b565b9050806001015491508060010160008154610e3f90614a3d565b91905081905550610e508683612212565b60405180608001604052808673ffffffffffffffffffffffffffffffffffffffff1681526020018581526020018481526020018773ffffffffffffffffffffffffffffffffffffffff1681525081600301600084815260200190815260200160002060008201518160000160006101000a81548173ffffffffffffffffffffffffffffffffffffffff021916908373ffffffffffffffffffffffffffffffffffffffff160217905550602082015181600101556040820151816002015560608201518160030160006101000a81548173ffffffffffffffffffffffffffffffffffffffff021916908373ffffffffffffffffffffffffffffffffffffffff1602179055509050508473ffffffffffffffffffffffffffffffffffffffff168673ffffffffffffffffffffffffffffffffffffffff16837f8cd7f5babbb088bffdd32aee19a1dc179c8819cd6d02cef02c35cb3ebfa386098787604051610fb7929190614985565b60405180910390a450610fc861208b565b949350505050565b60606000610fdd846116af565b905060008167ffffffffffffffff811115610ffb57610ffa6145af565b5b6040519080825280602002602001820160405280156110295781602001602082028036833780820191505090505b5090506000805b838110156110f157600061104488836112bb565b90508673ffffffffffffffffffffffffffffffffffffffff1661106561205b565b600301600083815260200190815260200160002060000160009054906101000a900473ffffffffffffffffffffffffffffffffffffffff1673ffffffffffffffffffffffffffffffffffffffff16036110e557808484815181106110cc576110cb614a85565b5b602002602001018181525050826110e290614a3d565b92505b50806001019050611030565b5081935050505092915050565b600080611109612230565b9050806002018054905091505090565b600073ffffffffffffffffffffffffffffffffffffffff168273ffffffffffffffffffffffffffffffffffffffff160361118b5760006040517f64a0ae9200000000000000000000000000000000000000000000000000000000815260040161118291906142ed565b60405180910390fd5b600061119f838361119a612083565b612258565b90508373ffffffffffffffffffffffffffffffffffffffff168173ffffffffffffffffffffffffffffffffffffffff1614611215578382826040517f64283d7b00000000000000000000000000000000000000000000000000000000815260040161120c93929190614ab4565b60405180910390fd5b50505050565b60606000611228836116af565b90508067ffffffffffffffff811115611244576112436145af565b5b6040519080825280602002602001820160405280156112725781602001602082028036833780820191505090505b50915060005b818110156112b45761128a84826112bb565b83828151811061129d5761129c614a85565b5b602002602001018181525050806001019050611278565b5050919050565b6000806112c6612230565b90506112d1846116af565b83106113165783836040517fa57d13dc00000000000000000000000000000000000000000000000000000000815260040161130d929190614aeb565b60405180910390fd5b8060000160008573ffffffffffffffffffffffffffffffffffffffff1673ffffffffffffffffffffffffffffffffffffffff16815260200190815260200160002060008481526020019081526020016000205491505092915050565b61137a611fc3565b611382612004565b61138a61205b565b60000160009054906101000a900473ffffffffffffffffffffffffffffffffffffffff1673ffffffffffffffffffffffffffffffffffffffff166113cc612083565b73ffffffffffffffffffffffffffffffffffffffff1614611419576040517f30c8a92300000000000000000000000000000000000000000000000000000000815260040160405180910390fd5b6114228161226e565b61142a61205b565b6003016000828152602001908152602001600020600080820160006101000a81549073ffffffffffffffffffffffffffffffffffffffff0219169055600182016000905560028201600090556003820160006101000a81549073ffffffffffffffffffffffffffffffffffffffff02191690555050807f65d33d8ef62a81711748bbe2a7b67aef94d1a9af04a2690d3a4dfd13d9c1d22b60405160405180910390a26114d461208b565b50565b6114df6122f4565b6114e761237b565b565b611504838383604051806020016040528060008152506118c6565b505050565b600061151361205b565b60000160009054906101000a900473ffffffffffffffffffffffffffffffffffffffff16905090565b6115446123ed565b61154d826124d3565b61155782826124de565b5050565b600080611566612230565b90506115706110fe565b83106115b6576000836040517fa57d13dc0000000000000000000000000000000000000000000000000000000081526004016115ad929190614aeb565b60405180910390fd5b8060020183815481106115cc576115cb614a85565b5b9060005260206000200154915050919050565b60006115e96125fd565b7f360894a13ba1a3210667c828492db98dca3e2076cc3735a920a3ca505d382bbc60001b905090565b61161a6122f4565b600061162461205b565b90508282826002019182611639929190614ccb565b507f6741b2fc379fad678116fe3d4d4b9a1a184ab53ba36b86ad0fa66340b1ab41ad838360405161166b929190614dc8565b60405180910390a1505050565b600080611683612684565b90508060000160009054906101000a900460ff1691505090565b60006116a88261212d565b9050919050565b6000806116ba612105565b9050600073ffffffffffffffffffffffffffffffffffffffff168373ffffffffffffffffffffffffffffffffffffffff160361172e5760006040517f89c62b6400000000000000000000000000000000000000000000000000000000815260040161172591906142ed565b60405180910390fd5b8060030160008473ffffffffffffffffffffffffffffffffffffffff1673ffffffffffffffffffffffffffffffffffffffff16815260200190815260200160002054915050919050565b6117806122f4565b61178a60006126ac565b565b6117946122f4565b61179c612783565b565b6000806117a96127f5565b90508060000160009054906101000a900473ffffffffffffffffffffffffffffffffffffffff1691505090565b606060006117e2612105565b90508060010180546117f3906149dd565b80601f016020809104026020016040519081016040528092919081815260200182805461181f906149dd565b801561186c5780601f106118415761010080835404028352916020019161186c565b820191906000526020600020905b81548152906001019060200180831161184f57829003601f168201915b505050505091505090565b611889611882612083565b838361281d565b5050565b6040518060400160405280600581526020017f352e302e3000000000000000000000000000000000000000000000000000000081525081565b6118d1848484611119565b6118e56118dc612083565b8585858561299b565b50505050565b60006118f5612b4c565b905060008160000160089054906101000a900460ff1615905060008260000160009054906101000a900467ffffffffffffffff1690506000808267ffffffffffffffff161480156119435750825b9050600060018367ffffffffffffffff16148015611978575060003073ffffffffffffffffffffffffffffffffffffffff163b145b905081158015611986575080155b156119bd576040517ff92ee8a900000000000000000000000000000000000000000000000000000000815260040160405180910390fd5b60018560000160006101000a81548167ffffffffffffffff021916908367ffffffffffffffff1602179055508315611a0d5760018560000160086101000a81548160ff0219169083151502179055505b611a816040518060400160405280601181526020017f4c696b655374616b65506f736974696f6e0000000000000000000000000000008152506040518060400160405280600681526020017f4c494b4553500000000000000000000000000000000000000000000000000000815250612b60565b611a89612b76565b611a91612b80565b611a99612b8a565b611aa286612b94565b611aaa612ba8565b611ab2612bb2565b6001611abc61205b565b600101819055508315611b1f5760008560000160086101000a81548160ff0219169083151502179055507fc7f505b2f371ae2175ee4913f4499e1f2633a7b5936321eed1cdaeb6115181d26001604051611b169190614e3b565b60405180910390a15b505050505050565b60606000611b3361205b565b60030160008481526020019081526020016000206040518060800160405290816000820160009054906101000a900473ffffffffffffffffffffffffffffffffffffffff1673ffffffffffffffffffffffffffffffffffffffff1673ffffffffffffffffffffffffffffffffffffffff16815260200160018201548152602001600282015481526020016003820160009054906101000a900473ffffffffffffffffffffffffffffffffffffffff1673ffffffffffffffffffffffffffffffffffffffff1673ffffffffffffffffffffffffffffffffffffffff168152505090506000611c1e612bc4565b90506000611c608360000151846020015185604001518660600151604051602001611c4c9493929190614ebf565b604051602081830303815290604052612c5f565b90508181604051602001611c75929190614f49565b6040516020818303038152906040529350505050919050565b6000611c9861205b565b60010154905090565b611ca96122f4565b600073ffffffffffffffffffffffffffffffffffffffff168173ffffffffffffffffffffffffffffffffffffffff1603611d0f576040517fecc6fdf000000000000000000000000000000000000000000000000000000000815260040160405180910390fd5b6000611d1961205b565b9050818160000160006101000a81548173ffffffffffffffffffffffffffffffffffffffff021916908373ffffffffffffffffffffffffffffffffffffffff1602179055508173ffffffffffffffffffffffffffffffffffffffff167f2c1c11af44aa5608f1dca38c00275c30ea091e02417d36e70e9a1538689c433d60405160405180910390a25050565b600080611db0612105565b90508060050160008573ffffffffffffffffffffffffffffffffffffffff1673ffffffffffffffffffffffffffffffffffffffff16815260200190815260200160002060008473ffffffffffffffffffffffffffffffffffffffff1673ffffffffffffffffffffffffffffffffffffffff16815260200190815260200160002060009054906101000a900460ff1691505092915050565b611e4f613fe1565b611e5761205b565b60030160008381526020019081526020016000206040518060800160405290816000820160009054906101000a900473ffffffffffffffffffffffffffffffffffffffff1673ffffffffffffffffffffffffffffffffffffffff1673ffffffffffffffffffffffffffffffffffffffff16815260200160018201548152602001600282015481526020016003820160009054906101000a900473ffffffffffffffffffffffffffffffffffffffff1673ffffffffffffffffffffffffffffffffffffffff1673ffffffffffffffffffffffffffffffffffffffff16815250509050919050565b611f456122f4565b600073ffffffffffffffffffffffffffffffffffffffff168173ffffffffffffffffffffffffffffffffffffffff1603611fb75760006040517f1e4fbdf7000000000000000000000000000000000000000000000000000000008152600401611fae91906142ed565b60405180910390fd5b611fc0816126ac565b50565b611fcb611678565b15612002576040517fd93c066500000000000000000000000000000000000000000000000000000000815260040160405180910390fd5b565b600061200e612c8c565b9050600281600001540361204e576040517f3ee5aeb500000000000000000000000000000000000000000000000000000000815260040160405180910390fd5b6002816000018190555050565b60007f2c3a4a1c92b0f847cbe6b33689f93d825b12d6a2f2a7bdb9c9a6a1cf7e6bb200905090565b600033905090565b6000612095612c8c565b90506001816000018190555050565b6000634906490660e01b7bffffffffffffffffffffffffffffffffffffffffffffffffffffffff1916827bffffffffffffffffffffffffffffffffffffffffffffffffffffffff191614806120fe57506120fd82612cb4565b5b9050919050565b60007f80bb2b638cc20bc4d0a60d66940f3ab4a00c1d7b313497ca82fb0b4ab0079300905090565b60008061213983612d2e565b9050600073ffffffffffffffffffffffffffffffffffffffff168173ffffffffffffffffffffffffffffffffffffffff16036121ac57826040517f7e2732890000000000000000000000000000000000000000000000000000000081526004016121a391906143ea565b60405180910390fd5b80915050919050565b6000806121c0612105565b905080600401600084815260200190815260200160002060009054906101000a900473ffffffffffffffffffffffffffffffffffffffff16915050919050565b61220d8383836001612d79565b505050565b61222c828260405180602001604052806000815250612f4d565b5050565b60007f645e039705490088daad89bae25049a34f4a9072d398537b1ab2425f24cbed00905090565b6000612265848484612f71565b90509392505050565b600061227d6000836000612258565b9050600073ffffffffffffffffffffffffffffffffffffffff168173ffffffffffffffffffffffffffffffffffffffff16036122f057816040517f7e2732890000000000000000000000000000000000000000000000000000000081526004016122e791906143ea565b60405180910390fd5b5050565b6122fc612083565b73ffffffffffffffffffffffffffffffffffffffff1661231a61179e565b73ffffffffffffffffffffffffffffffffffffffff16146123795761233d612083565b6040517f118cdaa700000000000000000000000000000000000000000000000000000000815260040161237091906142ed565b60405180910390fd5b565b61238361308e565b600061238d612684565b905060008160000160006101000a81548160ff0219169083151502179055507f5db9ee0a495bf2e6ff9c91a7834c1ba4fdd244a5e8aa4e537bd38aeae4b073aa6123d5612083565b6040516123e291906142ed565b60405180910390a150565b7f000000000000000000000000000000000000000000000000000000000000000073ffffffffffffffffffffffffffffffffffffffff163073ffffffffffffffffffffffffffffffffffffffff16148061249a57507f000000000000000000000000000000000000000000000000000000000000000073ffffffffffffffffffffffffffffffffffffffff166124816130ce565b73ffffffffffffffffffffffffffffffffffffffff1614155b156124d1576040517fe07c8dba00000000000000000000000000000000000000000000000000000000815260040160405180910390fd5b565b6124db6122f4565b50565b8173ffffffffffffffffffffffffffffffffffffffff166352d1902d6040518163ffffffff1660e01b8152600401602060405180830381865afa92505050801561254657506040513d601f19601f820116820180604052508101906125439190614f99565b60015b61258757816040517f4c9c8ce300000000000000000000000000000000000000000000000000000000815260040161257e91906142ed565b60405180910390fd5b7f360894a13ba1a3210667c828492db98dca3e2076cc3735a920a3ca505d382bbc60001b81146125ee57806040517faa1d49a40000000000000000000000000000000000000000000000000000000081526004016125e5919061474f565b60405180910390fd5b6125f88383613125565b505050565b7f000000000000000000000000000000000000000000000000000000000000000073ffffffffffffffffffffffffffffffffffffffff163073ffffffffffffffffffffffffffffffffffffffff1614612682576040517fe07c8dba00000000000000000000000000000000000000000000000000000000815260040160405180910390fd5b565b60007fcd5ed15c6e187e77e9aee88184c21f4f2182ab5827cb3b7e07fbedcd63f03300905090565b60006126b66127f5565b905060008160000160009054906101000a900473ffffffffffffffffffffffffffffffffffffffff169050828260000160006101000a81548173ffffffffffffffffffffffffffffffffffffffff021916908373ffffffffffffffffffffffffffffffffffffffff1602179055508273ffffffffffffffffffffffffffffffffffffffff168173ffffffffffffffffffffffffffffffffffffffff167f8be0079c531659141344cd1fd0a4f28419497f9722a3daafe3b4186f6b6457e060405160405180910390a3505050565b61278b611fc3565b6000612795612684565b905060018160000160006101000a81548160ff0219169083151502179055507f62e78cea01bee320cd4e420270b5ea74000d11b0c9f74754ebdbfc544b05a2586127dd612083565b6040516127ea91906142ed565b60405180910390a150565b60007f9016d09d72d40fdae2fd8ceac6b6234c7706214fd39c1cd1e609a0528c199300905090565b6000612827612105565b9050600073ffffffffffffffffffffffffffffffffffffffff168373ffffffffffffffffffffffffffffffffffffffff160361289a57826040517f5b08ba1800000000000000000000000000000000000000000000000000000000815260040161289191906142ed565b60405180910390fd5b818160050160008673ffffffffffffffffffffffffffffffffffffffff1673ffffffffffffffffffffffffffffffffffffffff16815260200190815260200160002060008573ffffffffffffffffffffffffffffffffffffffff1673ffffffffffffffffffffffffffffffffffffffff16815260200190815260200160002060006101000a81548160ff0219169083151502179055508273ffffffffffffffffffffffffffffffffffffffff168473ffffffffffffffffffffffffffffffffffffffff167f17307eab39ab6107e8899845ad3d59bd9653f200f220920489ca2b5937696c318460405161298d919061415f565b60405180910390a350505050565b60008373ffffffffffffffffffffffffffffffffffffffff163b1115612b45578273ffffffffffffffffffffffffffffffffffffffff1663150b7a02868685856040518563ffffffff1660e01b81526004016129fa949392919061501b565b6020604051808303816000875af1925050508015612a3657506040513d601f19601f82011682018060405250810190612a33919061507c565b60015b612aba573d8060008114612a66576040519150601f19603f3d011682016040523d82523d6000602084013e612a6b565b606091505b506000815103612ab257836040517f64a0ae92000000000000000000000000000000000000000000000000000000008152600401612aa991906142ed565b60405180910390fd5b805160208201fd5b63150b7a0260e01b7bffffffffffffffffffffffffffffffffffffffffffffffffffffffff1916817bffffffffffffffffffffffffffffffffffffffffffffffffffffffff191614612b4357836040517f64a0ae92000000000000000000000000000000000000000000000000000000008152600401612b3a91906142ed565b60405180910390fd5b505b5050505050565b600080612b57613198565b90508091505090565b612b686131c3565b612b728282613203565b5050565b612b7e6131c3565b565b612b886131c3565b565b612b926131c3565b565b612b9c6131c3565b612ba581613240565b50565b612bb06131c3565b565b612bba6131c3565b612bc26132c6565b565b6060612bce61205b565b6002018054612bdc906149dd565b80601f0160208091040260200160405190810160405280929190818152602001828054612c08906149dd565b8015612c555780601f10612c2a57610100808354040283529160200191612c55565b820191906000526020600020905b815481529060010190602001808311612c3857829003601f168201915b5050505050905090565b6060612c85826040518060600160405280604081526020016153086040913960016132e7565b9050919050565b60007f9b779b17422d0df92223018b32b4d1fa46e071723d6817e2486d003becc55f00905090565b60007f780e9d63000000000000000000000000000000000000000000000000000000007bffffffffffffffffffffffffffffffffffffffffffffffffffffffff1916827bffffffffffffffffffffffffffffffffffffffffffffffffffffffff19161480612d275750612d268261347b565b5b9050919050565b600080612d39612105565b905080600201600084815260200190815260200160002060009054906101000a900473ffffffffffffffffffffffffffffffffffffffff16915050919050565b6000612d83612105565b90508180612dbe5750600073ffffffffffffffffffffffffffffffffffffffff168373ffffffffffffffffffffffffffffffffffffffff1614155b15612ef2576000612dce8561212d565b9050600073ffffffffffffffffffffffffffffffffffffffff168473ffffffffffffffffffffffffffffffffffffffff1614158015612e3957508373ffffffffffffffffffffffffffffffffffffffff168173ffffffffffffffffffffffffffffffffffffffff1614155b8015612e4c5750612e4a8185611da5565b155b15612e8e57836040517fa9fbf51f000000000000000000000000000000000000000000000000000000008152600401612e8591906142ed565b60405180910390fd5b8215612ef057848673ffffffffffffffffffffffffffffffffffffffff168273ffffffffffffffffffffffffffffffffffffffff167f8c5be1e5ebec7d5bd14f71427d1e84f3dd0314c0f7b2291e5b200ac8c7c3b92560405160405180910390a45b505b8481600401600086815260200190815260200160002060006101000a81548173ffffffffffffffffffffffffffffffffffffffff021916908373ffffffffffffffffffffffffffffffffffffffff1602179055505050505050565b612f57838361355d565b612f6c612f62612083565b600085858561299b565b505050565b600080612f7f858585613656565b9050600073ffffffffffffffffffffffffffffffffffffffff168173ffffffffffffffffffffffffffffffffffffffff1603612fc357612fbe84613883565b613002565b8473ffffffffffffffffffffffffffffffffffffffff168173ffffffffffffffffffffffffffffffffffffffff16146130015761300081856138df565b5b5b600073ffffffffffffffffffffffffffffffffffffffff168573ffffffffffffffffffffffffffffffffffffffff16036130445761303f846139df565b613083565b8473ffffffffffffffffffffffffffffffffffffffff168173ffffffffffffffffffffffffffffffffffffffff1614613082576130818585613acb565b5b5b809150509392505050565b613096611678565b6130cc576040517f8dfc202b00000000000000000000000000000000000000000000000000000000815260040160405180910390fd5b565b60006130fc7f360894a13ba1a3210667c828492db98dca3e2076cc3735a920a3ca505d382bbc60001b613b67565b60000160009054906101000a900473ffffffffffffffffffffffffffffffffffffffff16905090565b61312e82613b71565b8173ffffffffffffffffffffffffffffffffffffffff167fbc7cd75a20ee27fd9adebab32041f755214dbc6bffa90cc0225b39da2e5c2d3b60405160405180910390a260008151111561318b576131858282613c3e565b50613194565b613193613cc2565b5b5050565b60007ff0c57e16840df040f15088dc2f81fe391c3923bec73e23a9662efc9c229c6a0060001b905090565b6131cb613cff565b613201576040517fd7e6bcf800000000000000000000000000000000000000000000000000000000815260040160405180910390fd5b565b61320b6131c3565b6000613215612105565b90508281600001908161322891906150a9565b508181600101908161323a91906150a9565b50505050565b6132486131c3565b600073ffffffffffffffffffffffffffffffffffffffff168173ffffffffffffffffffffffffffffffffffffffff16036132ba5760006040517f1e4fbdf70000000000000000000000000000000000000000000000000000000081526004016132b191906142ed565b60405180910390fd5b6132c3816126ac565b50565b6132ce6131c3565b60006132d8612c8c565b90506001816000018190555050565b6060600084510361330957604051806020016040528060008152509050613474565b60008261333b576003600286516004613322919061517b565b61332c91906151bd565b6133369190615220565b613362565b60036002865161334b91906151bd565b6133559190615220565b6004613361919061517b565b5b905060008167ffffffffffffffff8111156133805761337f6145af565b5b6040519080825280601f01601f1916602001820160405280156133b25781602001600182028036833780820191505090505b50905060018501602082018788518901602081018051600082525b82841015613428576003840193508351603f8160121c168701518653600186019550603f81600c1c168701518653600186019550603f8160061c168701518653600186019550603f81168701518653600186019550506133cd565b80825289156134685760038c51066001811461344b576002811461345e57613466565b603d6001870353603d6002870353613466565b603d60018703535b505b50505050505080925050505b9392505050565b60007f80ac58cd000000000000000000000000000000000000000000000000000000007bffffffffffffffffffffffffffffffffffffffffffffffffffffffff1916827bffffffffffffffffffffffffffffffffffffffffffffffffffffffff1916148061354657507f5b5e139f000000000000000000000000000000000000000000000000000000007bffffffffffffffffffffffffffffffffffffffffffffffffffffffff1916827bffffffffffffffffffffffffffffffffffffffffffffffffffffffff1916145b80613556575061355582613d1f565b5b9050919050565b600073ffffffffffffffffffffffffffffffffffffffff168273ffffffffffffffffffffffffffffffffffffffff16036135cf5760006040517f64a0ae920000000000000000000000000000000000000000000000000000000081526004016135c691906142ed565b60405180910390fd5b60006135dd83836000612258565b9050600073ffffffffffffffffffffffffffffffffffffffff168173ffffffffffffffffffffffffffffffffffffffff16146136515760006040517f73c6ac6e00000000000000000000000000000000000000000000000000000000815260040161364891906142ed565b60405180910390fd5b505050565b600080613661612105565b9050600061366e85612d2e565b9050600073ffffffffffffffffffffffffffffffffffffffff168473ffffffffffffffffffffffffffffffffffffffff16146136b0576136af818587613d89565b5b600073ffffffffffffffffffffffffffffffffffffffff168173ffffffffffffffffffffffffffffffffffffffff1614613743576136f2600086600080612d79565b60018260030160008373ffffffffffffffffffffffffffffffffffffffff1673ffffffffffffffffffffffffffffffffffffffff168152602001908152602001600020600082825403925050819055505b600073ffffffffffffffffffffffffffffffffffffffff168673ffffffffffffffffffffffffffffffffffffffff16146137c85760018260030160008873ffffffffffffffffffffffffffffffffffffffff1673ffffffffffffffffffffffffffffffffffffffff168152602001908152602001600020600082825401925050819055505b8582600201600087815260200190815260200160002060006101000a81548173ffffffffffffffffffffffffffffffffffffffff021916908373ffffffffffffffffffffffffffffffffffffffff160217905550848673ffffffffffffffffffffffffffffffffffffffff168273ffffffffffffffffffffffffffffffffffffffff167fddf252ad1be2c89b69c2b068fc378daa952ba7f163c4a11628f55a4df523b3ef60405160405180910390a480925050509392505050565b600061388d612230565b9050806002018054905081600301600084815260200190815260200160002081905550806002018290806001815401808255809150506001900390600052602060002001600090919091909150555050565b60006138e9612230565b905060006138f6846116af565b9050600082600101600085815260200190815260200160002054905060008360000160008773ffffffffffffffffffffffffffffffffffffffff1673ffffffffffffffffffffffffffffffffffffffff16815260200190815260200160002090508282146139a857600081600085815260200190815260200160002054905080826000858152602001908152602001600020819055508285600101600083815260200190815260200160002081905550505b8360010160008681526020019081526020016000206000905580600084815260200190815260200160002060009055505050505050565b60006139e9612230565b9050600060018260020180549050613a019190615251565b905060008260030160008581526020019081526020016000205490506000836002018381548110613a3557613a34614a85565b5b9060005260206000200154905080846002018381548110613a5957613a58614a85565b5b906000526020600020018190555081846003016000838152602001908152602001600020819055508360030160008681526020019081526020016000206000905583600201805480613aae57613aad615285565b5b600190038181906000526020600020016000905590555050505050565b6000613ad5612230565b905060006001613ae4856116af565b613aee9190615251565b9050828260000160008673ffffffffffffffffffffffffffffffffffffffff1673ffffffffffffffffffffffffffffffffffffffff168152602001908152602001600020600083815260200190815260200160002081905550808260010160008581526020019081526020016000208190555050505050565b6000819050919050565b60008173ffffffffffffffffffffffffffffffffffffffff163b03613bcd57806040517f4c9c8ce3000000000000000000000000000000000000000000000000000000008152600401613bc491906142ed565b60405180910390fd5b80613bfa7f360894a13ba1a3210667c828492db98dca3e2076cc3735a920a3ca505d382bbc60001b613b67565b60000160006101000a81548173ffffffffffffffffffffffffffffffffffffffff021916908373ffffffffffffffffffffffffffffffffffffffff16021790555050565b60606000808473ffffffffffffffffffffffffffffffffffffffff1684604051613c6891906152f0565b600060405180830381855af49150503d8060008114613ca3576040519150601f19603f3d011682016040523d82523d6000602084013e613ca8565b606091505b5091509150613cb8858383613e4d565b9250505092915050565b6000341115613cfd576040517fb398979f00000000000000000000000000000000000000000000000000000000815260040160405180910390fd5b565b6000613d09612b4c565b60000160089054906101000a900460ff16905090565b60007f01ffc9a7000000000000000000000000000000000000000000000000000000007bffffffffffffffffffffffffffffffffffffffffffffffffffffffff1916827bffffffffffffffffffffffffffffffffffffffffffffffffffffffff1916149050919050565b613d94838383613edc565b613e4857600073ffffffffffffffffffffffffffffffffffffffff168373ffffffffffffffffffffffffffffffffffffffff1603613e0957806040517f7e273289000000000000000000000000000000000000000000000000000000008152600401613e0091906143ea565b60405180910390fd5b81816040517f177e802f000000000000000000000000000000000000000000000000000000008152600401613e3f929190614aeb565b60405180910390fd5b505050565b606082613e6257613e5d82613f9d565b613ed4565b60008251148015613e8a575060008473ffffffffffffffffffffffffffffffffffffffff163b145b15613ecc57836040517f9996b315000000000000000000000000000000000000000000000000000000008152600401613ec391906142ed565b60405180910390fd5b819050613ed5565b5b9392505050565b60008073ffffffffffffffffffffffffffffffffffffffff168373ffffffffffffffffffffffffffffffffffffffff1614158015613f9457508273ffffffffffffffffffffffffffffffffffffffff168473ffffffffffffffffffffffffffffffffffffffff161480613f555750613f548484611da5565b5b80613f9357508273ffffffffffffffffffffffffffffffffffffffff16613f7b836121b5565b73ffffffffffffffffffffffffffffffffffffffff16145b5b90509392505050565b600081511115613faf57805160208201fd5b6040517fd6bda27500000000000000000000000000000000000000000000000000000000815260040160405180910390fd5b6040518060800160405280600073ffffffffffffffffffffffffffffffffffffffff1681526020016000815260200160008152602001600073ffffffffffffffffffffffffffffffffffffffff1681525090565b6000604051905090565b600080fd5b600080fd5b6000819050919050565b61405c81614049565b811461406757600080fd5b50565b60008135905061407981614053565b92915050565b600080604083850312156140965761409561403f565b5b60006140a48582860161406a565b92505060206140b58582860161406a565b9150509250929050565b60007fffffffff0000000000000000000000000000000000000000000000000000000082169050919050565b6140f4816140bf565b81146140ff57600080fd5b50565b600081359050614111816140eb565b92915050565b60006020828403121561412d5761412c61403f565b5b600061413b84828501614102565b91505092915050565b60008115159050919050565b61415981614144565b82525050565b60006020820190506141746000830184614150565b92915050565b6000806000606084860312156141935761419261403f565b5b60006141a18682870161406a565b93505060206141b28682870161406a565b92505060406141c38682870161406a565b9150509250925092565b600081519050919050565b600082825260208201905092915050565b60005b838110156142075780820151818401526020810190506141ec565b60008484015250505050565b6000601f19601f8301169050919050565b600061422f826141cd565b61423981856141d8565b93506142498185602086016141e9565b61425281614213565b840191505092915050565b600060208201905081810360008301526142778184614224565b905092915050565b6000602082840312156142955761429461403f565b5b60006142a38482850161406a565b91505092915050565b600073ffffffffffffffffffffffffffffffffffffffff82169050919050565b60006142d7826142ac565b9050919050565b6142e7816142cc565b82525050565b600060208201905061430260008301846142de565b92915050565b614311816142cc565b811461431c57600080fd5b50565b60008135905061432e81614308565b92915050565b6000806040838503121561434b5761434a61403f565b5b60006143598582860161431f565b925050602061436a8582860161406a565b9150509250929050565b6000806000806080858703121561438e5761438d61403f565b5b600061439c8782880161431f565b94505060206143ad8782880161431f565b93505060406143be8782880161406a565b92505060606143cf8782880161406a565b91505092959194509250565b6143e481614049565b82525050565b60006020820190506143ff60008301846143db565b92915050565b6000806040838503121561441c5761441b61403f565b5b600061442a8582860161431f565b925050602061443b8582860161431f565b9150509250929050565b600081519050919050565b600082825260208201905092915050565b6000819050602082019050919050565b61447a81614049565b82525050565b600061448c8383614471565b60208301905092915050565b6000602082019050919050565b60006144b082614445565b6144ba8185614450565b93506144c583614461565b8060005b838110156144f65781516144dd8882614480565b97506144e883614498565b9250506001810190506144c9565b5085935050505092915050565b6000602082019050818103600083015261451d81846144a5565b905092915050565b60008060006060848603121561453e5761453d61403f565b5b600061454c8682870161431f565b935050602061455d8682870161431f565b925050604061456e8682870161406a565b9150509250925092565b60006020828403121561458e5761458d61403f565b5b600061459c8482850161431f565b91505092915050565b600080fd5b600080fd5b7f4e487b7100000000000000000000000000000000000000000000000000000000600052604160045260246000fd5b6145e782614213565b810181811067ffffffffffffffff82111715614606576146056145af565b5b80604052505050565b6000614619614035565b905061462582826145de565b919050565b600067ffffffffffffffff821115614645576146446145af565b5b61464e82614213565b9050602081019050919050565b82818337600083830152505050565b600061467d6146788461462a565b61460f565b905082815260208101848484011115614699576146986145aa565b5b6146a484828561465b565b509392505050565b600082601f8301126146c1576146c06145a5565b5b81356146d184826020860161466a565b91505092915050565b600080604083850312156146f1576146f061403f565b5b60006146ff8582860161431f565b925050602083013567ffffffffffffffff8111156147205761471f614044565b5b61472c858286016146ac565b9150509250929050565b6000819050919050565b61474981614736565b82525050565b60006020820190506147646000830184614740565b92915050565b600080fd5b600080fd5b60008083601f84011261478a576147896145a5565b5b8235905067ffffffffffffffff8111156147a7576147a661476a565b5b6020830191508360018202830111156147c3576147c261476f565b5b9250929050565b600080602083850312156147e1576147e061403f565b5b600083013567ffffffffffffffff8111156147ff576147fe614044565b5b61480b85828601614774565b92509250509250929050565b61482081614144565b811461482b57600080fd5b50565b60008135905061483d81614817565b92915050565b6000806040838503121561485a5761485961403f565b5b60006148688582860161431f565b92505060206148798582860161482e565b9150509250929050565b6000806000806080858703121561489d5761489c61403f565b5b60006148ab8782880161431f565b94505060206148bc8782880161431f565b93505060406148cd8782880161406a565b925050606085013567ffffffffffffffff8111156148ee576148ed614044565b5b6148fa878288016146ac565b91505092959194509250565b61490f816142cc565b82525050565b60808201600082015161492b6000850182614906565b50602082015161493e6020850182614471565b5060408201516149516040850182614471565b5060608201516149646060850182614906565b50505050565b600060808201905061497f6000830184614915565b92915050565b600060408201905061499a60008301856143db565b6149a760208301846143db565b9392505050565b7f4e487b7100000000000000000000000000000000000000000000000000000000600052602260045260246000fd5b600060028204905060018216806149f557607f821691505b602082108103614a0857614a076149ae565b5b50919050565b7f4e487b7100000000000000000000000000000000000000000000000000000000600052601160045260246000fd5b6000614a4882614049565b91507fffffffffffffffffffffffffffffffffffffffffffffffffffffffffffffffff8203614a7a57614a79614a0e565b5b600182019050919050565b7f4e487b7100000000000000000000000000000000000000000000000000000000600052603260045260246000fd5b6000606082019050614ac960008301866142de565b614ad660208301856143db565b614ae360408301846142de565b949350505050565b6000604082019050614b0060008301856142de565b614b0d60208301846143db565b9392505050565b600082905092915050565b60008190508160005260206000209050919050565b60006020601f8301049050919050565b600082821b905092915050565b600060088302614b817fffffffffffffffffffffffffffffffffffffffffffffffffffffffffffffffff82614b44565b614b8b8683614b44565b95508019841693508086168417925050509392505050565b6000819050919050565b6000614bc8614bc3614bbe84614049565b614ba3565b614049565b9050919050565b6000819050919050565b614be283614bad565b614bf6614bee82614bcf565b848454614b51565b825550505050565b600090565b614c0b614bfe565b614c16818484614bd9565b505050565b5b81811015614c3a57614c2f600082614c03565b600181019050614c1c565b5050565b601f821115614c7f57614c5081614b1f565b614c5984614b34565b81016020851015614c68578190505b614c7c614c7485614b34565b830182614c1b565b50505b505050565b600082821c905092915050565b6000614ca260001984600802614c84565b1980831691505092915050565b6000614cbb8383614c91565b9150826002028217905092915050565b614cd58383614b14565b67ffffffffffffffff811115614cee57614ced6145af565b5b614cf882546149dd565b614d03828285614c3e565b6000601f831160018114614d325760008415614d20578287013590505b614d2a8582614caf565b865550614d92565b601f198416614d4086614b1f565b60005b82811015614d6857848901358255600182019150602085019450602081019050614d43565b86831015614d855784890135614d81601f891682614c91565b8355505b6001600288020188555050505b50505050505050565b6000614da783856141d8565b9350614db483858461465b565b614dbd83614213565b840190509392505050565b60006020820190508181036000830152614de3818486614d9b565b90509392505050565b6000819050919050565b600067ffffffffffffffff82169050919050565b6000614e25614e20614e1b84614dec565b614ba3565b614df6565b9050919050565b614e3581614e0a565b82525050565b6000602082019050614e506000830184614e2c565b92915050565b60008160601b9050919050565b6000614e6e82614e56565b9050919050565b6000614e8082614e63565b9050919050565b614e98614e93826142cc565b614e75565b82525050565b6000819050919050565b614eb9614eb482614049565b614e9e565b82525050565b6000614ecb8287614e87565b601482019150614edb8286614ea8565b602082019150614eeb8285614ea8565b602082019150614efb8284614e87565b60148201915081905095945050505050565b600081905092915050565b6000614f23826141cd565b614f2d8185614f0d565b9350614f3d8185602086016141e9565b80840191505092915050565b6000614f558285614f18565b9150614f618284614f18565b91508190509392505050565b614f7681614736565b8114614f8157600080fd5b50565b600081519050614f9381614f6d565b92915050565b600060208284031215614faf57614fae61403f565b5b6000614fbd84828501614f84565b91505092915050565b600081519050919050565b600082825260208201905092915050565b6000614fed82614fc6565b614ff78185614fd1565b93506150078185602086016141e9565b61501081614213565b840191505092915050565b600060808201905061503060008301876142de565b61503d60208301866142de565b61504a60408301856143db565b818103606083015261505c8184614fe2565b905095945050505050565b600081519050615076816140eb565b92915050565b6000602082840312156150925761509161403f565b5b60006150a084828501615067565b91505092915050565b6150b2826141cd565b67ffffffffffffffff8111156150cb576150ca6145af565b5b6150d582546149dd565b6150e0828285614c3e565b600060209050601f8311600181146151135760008415615101578287015190505b61510b8582614caf565b865550615173565b601f19841661512186614b1f565b60005b8281101561514957848901518255600182019150602085019450602081019050615124565b868310156151665784890151615162601f891682614c91565b8355505b6001600288020188555050505b505050505050565b600061518682614049565b915061519183614049565b925082820261519f81614049565b915082820484148315176151b6576151b5614a0e565b5b5092915050565b60006151c882614049565b91506151d383614049565b92508282019050808211156151eb576151ea614a0e565b5b92915050565b7f4e487b7100000000000000000000000000000000000000000000000000000000600052601260045260246000fd5b600061522b82614049565b915061523683614049565b925082615246576152456151f1565b5b828204905092915050565b600061525c82614049565b915061526783614049565b925082820390508181111561527f5761527e614a0e565b5b92915050565b7f4e487b7100000000000000000000000000000000000000000000000000000000600052603160045260246000fd5b600081905092915050565b60006152ca82614fc6565b6152d481856152b4565b93506152e48185602086016141e9565b80840191505092915050565b60006152fc82846152bf565b91508190509291505056fe4142434445464748494a4b4c4d4e4f505152535455565758595a6162636465666768696a6b6c6d6e6f707172737475767778797a303132333435363738392b2fa264697066735822122015e65c72b91866c621f660f0fedadf18a3d4511ede7249f67b0d695f284a5f5e64736f6c634300081c0033",
  "linkReferences": {},
  "deployedLinkReferences": {}
}