{
  "_format": "hh-sol-artifact-1",
  "contractName": "LikeCollective",
  "sourceName": "contracts/LikeCollective.sol",
  "abi": [
    {
      "inputs": [],
      "stateMutability": "nonpayable",
      "type": "constructor"
    },
    {
      "inputs": [
        {
          "internalType": "address",
          "name": "target",
          "type": "address"
        }
      ],
      "name": "AddressEmptyCode",
      "type": "error"
    },
    {
      "inputs": [
        {
          "internalType": "address",
          "name": "implementation",
          "type": "address"
        }
      ],
      "name": "ERC1967InvalidImplementation",
      "type": "error"
    },
    {
      "inputs": [],
      "name": "ERC1967NonPayable",
      "type": "error"
    },
    {
      "inputs": [],
      "name": "EnforcedPause",
      "type": "error"
    },
    {
      "inputs": [
        {
          "internalType": "uint256",
          "name": "required",
          "type": "uint256"
        },
        {
          "internalType": "uint256",
          "name": "available",
          "type": "uint256"
        }
      ],
      "name": "ErrInsufficientStake",
      "type": "error"
    },
    {
      "inputs": [],
      "name": "ErrInvalidAmount",
      "type": "error"
    },
    {
      "inputs": [
        {
          "internalType": "address",
          "name": "bookNFT",
          "type": "address"
        }
      ],
      "name": "ErrInvalidBookNFT",
      "type": "error"
    },
    {
      "inputs": [],
      "name": "ErrInvalidOwner",
      "type": "error"
    },
    {
      "inputs": [],
      "name": "ErrNoRewardsToClaim",
      "type": "error"
    },
    {
      "inputs": [],
      "name": "ExpectedPause",
      "type": "error"
    },
    {
      "inputs": [],
      "name": "FailedCall",
      "type": "error"
    },
    {
      "inputs": [],
      "name": "InvalidInitialization",
      "type": "error"
    },
    {
      "inputs": [],
      "name": "NotInitializing",
      "type": "error"
    },
    {
      "inputs": [
        {
          "internalType": "address",
          "name": "owner",
          "type": "address"
        }
      ],
      "name": "OwnableInvalidOwner",
      "type": "error"
    },
    {
      "inputs": [
        {
          "internalType": "address",
          "name": "account",
          "type": "address"
        }
      ],
      "name": "OwnableUnauthorizedAccount",
      "type": "error"
    },
    {
      "inputs": [],
      "name": "ReentrancyGuardReentrantCall",
      "type": "error"
    },
    {
      "inputs": [],
      "name": "UUPSUnauthorizedCallContext",
      "type": "error"
    },
    {
      "inputs": [
        {
          "internalType": "bytes32",
          "name": "slot",
          "type": "bytes32"
        }
      ],
      "name": "UUPSUnsupportedProxiableUUID",
      "type": "error"
    },
    {
      "anonymous": false,
      "inputs": [
        {
          "indexed": true,
          "internalType": "address",
          "name": "account",
          "type": "address"
        },
        {
          "components": [
            {
              "internalType": "address",
              "name": "bookNFT",
              "type": "address"
            },
            {
              "internalType": "uint256",
              "name": "rewardedAmount",
              "type": "uint256"
            }
          ],
          "indexed": false,
          "internalType": "struct LikeCollective.RewardData[]",
          "name": "rewardedAmount",
          "type": "tuple[]"
        }
      ],
      "name": "AllRewardClaimed",
      "type": "event"
    },
    {
      "anonymous": false,
      "inputs": [
        {
          "indexed": false,
          "internalType": "uint64",
          "name": "version",
          "type": "uint64"
        }
      ],
      "name": "Initialized",
      "type": "event"
    },
    {
      "anonymous": false,
      "inputs": [
        {
          "indexed": true,
          "internalType": "address",
          "name": "previousOwner",
          "type": "address"
        },
        {
          "indexed": true,
          "internalType": "address",
          "name": "newOwner",
          "type": "address"
        }
      ],
      "name": "OwnershipTransferred",
      "type": "event"
    },
    {
      "anonymous": false,
      "inputs": [
        {
          "indexed": false,
          "internalType": "address",
          "name": "account",
          "type": "address"
        }
      ],
      "name": "Paused",
      "type": "event"
    },
    {
      "anonymous": false,
      "inputs": [
        {
          "indexed": true,
          "internalType": "address",
          "name": "bookNFT",
          "type": "address"
        },
        {
          "indexed": true,
          "internalType": "address",
          "name": "account",
          "type": "address"
        },
        {
          "indexed": false,
          "internalType": "uint256",
          "name": "rewardedAmount",
          "type": "uint256"
        }
      ],
      "name": "RewardClaimed",
      "type": "event"
    },
    {
      "anonymous": false,
      "inputs": [
        {
          "indexed": true,
          "internalType": "address",
          "name": "bookNFT",
          "type": "address"
        },
        {
          "indexed": true,
          "internalType": "address",
          "name": "account",
          "type": "address"
        },
        {
          "indexed": false,
          "internalType": "uint256",
          "name": "rewardedAmount",
          "type": "uint256"
        }
      ],
      "name": "RewardDeposited",
      "type": "event"
    },
    {
      "anonymous": false,
      "inputs": [
        {
          "indexed": true,
          "internalType": "address",
          "name": "bookNFT",
          "type": "address"
        },
        {
          "indexed": true,
          "internalType": "address",
          "name": "account",
          "type": "address"
        },
        {
          "indexed": false,
          "internalType": "uint256",
          "name": "stakedAmount",
          "type": "uint256"
        }
      ],
      "name": "Staked",
      "type": "event"
    },
    {
      "anonymous": false,
      "inputs": [
        {
          "indexed": false,
          "internalType": "address",
          "name": "account",
          "type": "address"
        }
      ],
      "name": "Unpaused",
      "type": "event"
    },
    {
      "anonymous": false,
      "inputs": [
        {
          "indexed": true,
          "internalType": "address",
          "name": "bookNFT",
          "type": "address"
        },
        {
          "indexed": true,
          "internalType": "address",
          "name": "account",
          "type": "address"
        },
        {
          "indexed": false,
          "internalType": "uint256",
          "name": "stakedAmount",
          "type": "uint256"
        }
      ],
      "name": "Unstaked",
      "type": "event"
    },
    {
      "anonymous": false,
      "inputs": [
        {
          "indexed": true,
          "internalType": "address",
          "name": "implementation",
          "type": "address"
        }
      ],
      "name": "Upgraded",
      "type": "event"
    },
    {
      "inputs": [],
      "name": "ACC_REWARD_PRECISION",
      "outputs": [
        {
          "internalType": "uint256",
          "name": "",
          "type": "uint256"
        }
      ],
      "stateMutability": "view",
      "type": "function"
    },
    {
      "inputs": [],
      "name": "UPGRADE_INTERFACE_VERSION",
      "outputs": [
        {
          "internalType": "string",
          "name": "",
          "type": "string"
        }
      ],
      "stateMutability": "view",
      "type": "function"
    },
    {
      "inputs": [
        {
          "internalType": "address",
          "name": "user",
          "type": "address"
        }
      ],
      "name": "claimAllRewards",
      "outputs": [],
      "stateMutability": "nonpayable",
      "type": "function"
    },
    {
      "inputs": [
        {
          "internalType": "uint256",
          "name": "tokenId",
          "type": "uint256"
        }
      ],
      "name": "claimRewards",
      "outputs": [],
      "stateMutability": "nonpayable",
      "type": "function"
    },
    {
      "inputs": [
        {
          "internalType": "uint256",
          "name": "tokenID",
          "type": "uint256"
        },
        {
          "internalType": "uint256",
          "name": "amount",
          "type": "uint256"
        }
      ],
      "name": "decreaseStakePosition",
      "outputs": [],
      "stateMutability": "nonpayable",
      "type": "function"
    },
    {
      "inputs": [
        {
          "internalType": "address",
          "name": "bookNFT",
          "type": "address"
        },
        {
          "internalType": "uint256",
          "name": "amount",
          "type": "uint256"
        }
      ],
      "name": "depositReward",
      "outputs": [],
      "stateMutability": "nonpayable",
      "type": "function"
    },
    {
      "inputs": [
        {
          "internalType": "address",
          "name": "user",
          "type": "address"
        },
        {
          "internalType": "address",
          "name": "bookNFT",
          "type": "address"
        }
      ],
      "name": "getPendingRewardsForUser",
      "outputs": [
        {
          "internalType": "uint256",
          "name": "",
          "type": "uint256"
        }
      ],
      "stateMutability": "view",
      "type": "function"
    },
    {
      "inputs": [
        {
          "internalType": "address",
          "name": "bookNFT",
          "type": "address"
        }
      ],
      "name": "getPendingRewardsPool",
      "outputs": [
        {
          "internalType": "uint256",
          "name": "",
          "type": "uint256"
        }
      ],
      "stateMutability": "view",
      "type": "function"
    },
    {
      "inputs": [
        {
          "internalType": "uint256",
          "name": "tokenId",
          "type": "uint256"
        }
      ],
      "name": "getRewardsOfPosition",
      "outputs": [
        {
          "internalType": "uint256",
          "name": "",
          "type": "uint256"
        }
      ],
      "stateMutability": "view",
      "type": "function"
    },
    {
      "inputs": [
        {
          "internalType": "address",
          "name": "user",
          "type": "address"
        },
        {
          "internalType": "address",
          "name": "bookNFT",
          "type": "address"
        }
      ],
      "name": "getStakeForUser",
      "outputs": [
        {
          "internalType": "uint256",
          "name": "",
          "type": "uint256"
        }
      ],
      "stateMutability": "view",
      "type": "function"
    },
    {
      "inputs": [
        {
          "internalType": "address",
          "name": "bookNFT",
          "type": "address"
        }
      ],
      "name": "getTotalStake",
      "outputs": [
        {
          "internalType": "uint256",
          "name": "",
          "type": "uint256"
        }
      ],
      "stateMutability": "view",
      "type": "function"
    },
    {
      "inputs": [
        {
          "internalType": "uint256",
          "name": "tokenID",
          "type": "uint256"
        },
        {
          "internalType": "uint256",
          "name": "amount",
          "type": "uint256"
        }
      ],
      "name": "increaseStakeToPosition",
      "outputs": [],
      "stateMutability": "nonpayable",
      "type": "function"
    },
    {
      "inputs": [
        {
          "internalType": "address",
          "name": "initialOwner",
          "type": "address"
        }
      ],
      "name": "initialize",
      "outputs": [],
      "stateMutability": "nonpayable",
      "type": "function"
    },
    {
      "inputs": [
        {
          "internalType": "address",
          "name": "bookNFT",
          "type": "address"
        },
        {
          "internalType": "uint256",
          "name": "amount",
          "type": "uint256"
        }
      ],
      "name": "newStakePosition",
      "outputs": [],
      "stateMutability": "nonpayable",
      "type": "function"
    },
    {
      "inputs": [],
      "name": "owner",
      "outputs": [
        {
          "internalType": "address",
          "name": "",
          "type": "address"
        }
      ],
      "stateMutability": "view",
      "type": "function"
    },
    {
      "inputs": [],
      "name": "pause",
      "outputs": [],
      "stateMutability": "nonpayable",
      "type": "function"
    },
    {
      "inputs": [],
      "name": "paused",
      "outputs": [
        {
          "internalType": "bool",
          "name": "",
          "type": "bool"
        }
      ],
      "stateMutability": "view",
      "type": "function"
    },
    {
      "inputs": [],
      "name": "proxiableUUID",
      "outputs": [
        {
          "internalType": "bytes32",
          "name": "",
          "type": "bytes32"
        }
      ],
      "stateMutability": "view",
      "type": "function"
    },
    {
      "inputs": [
        {
          "internalType": "uint256",
          "name": "tokenId",
          "type": "uint256"
        }
      ],
      "name": "removeStakePosition",
      "outputs": [],
      "stateMutability": "nonpayable",
      "type": "function"
    },
    {
      "inputs": [],
      "name": "renounceOwnership",
      "outputs": [],
      "stateMutability": "nonpayable",
      "type": "function"
    },
    {
      "inputs": [
        {
          "internalType": "uint256",
          "name": "tokenId",
          "type": "uint256"
        }
      ],
      "name": "restakeRewardPosition",
      "outputs": [],
      "stateMutability": "nonpayable",
      "type": "function"
    },
    {
      "inputs": [
        {
          "internalType": "address",
          "name": "likeStakePosition",
          "type": "address"
        }
      ],
      "name": "setLikeStakePosition",
      "outputs": [],
      "stateMutability": "nonpayable",
      "type": "function"
    },
    {
      "inputs": [
        {
          "internalType": "address",
          "name": "likecoin",
          "type": "address"
        }
      ],
      "name": "setLikecoin",
      "outputs": [],
      "stateMutability": "nonpayable",
      "type": "function"
    },
    {
      "inputs": [
        {
          "internalType": "address",
          "name": "newOwner",
          "type": "address"
        }
      ],
      "name": "transferOwnership",
      "outputs": [],
      "stateMutability": "nonpayable",
      "type": "function"
    },
    {
      "inputs": [],
      "name": "unpause",
      "outputs": [],
      "stateMutability": "nonpayable",
      "type": "function"
    },
    {
      "inputs": [
        {
          "internalType": "address",
          "name": "newImplementation",
          "type": "address"
        },
        {
          "internalType": "bytes",
          "name": "data",
          "type": "bytes"
        }
      ],
      "name": "upgradeToAndCall",
      "outputs": [],
      "stateMutability": "payable",
      "type": "function"
    }
  ],
  "bytecode": "0x60a06040523073ffffffffffffffffffffffffffffffffffffffff1660809073ffffffffffffffffffffffffffffffffffffffff1681525034801561004357600080fd5b5061005261005760201b60201c565b6101de565b600061006761015b60201b60201c565b90508060000160089054906101000a900460ff16156100b2576040517ff92ee8a900000000000000000000000000000000000000000000000000000000815260040160405180910390fd5b67ffffffffffffffff80168160000160009054906101000a900467ffffffffffffffff1667ffffffffffffffff16146101585767ffffffffffffffff8160000160006101000a81548167ffffffffffffffff021916908367ffffffffffffffff1602179055507fc7f505b2f371ae2175ee4913f4499e1f2633a7b5936321eed1cdaeb6115181d267ffffffffffffffff60405161014f91906101c3565b60405180910390a15b50565b60008061016c61017560201b60201c565b90508091505090565b60007ff0c57e16840df040f15088dc2f81fe391c3923bec73e23a9662efc9c229c6a0060001b905090565b600067ffffffffffffffff82169050919050565b6101bd816101a0565b82525050565b60006020820190506101d860008301846101b4565b92915050565b60805161481d61020760003960008181613232015281816132870152613442015261481d6000f3fe6080604052600436106101815760003560e01c80637db4e28f116100d1578063c4d66de81161008a578063d1c6a23111610064578063d1c6a23114610535578063d214a7ba14610560578063e991560f14610589578063f2fde38b146105b257610181565b8063c4d66de8146104a6578063c86ec26e146104cf578063cd083e621461050c57610181565b80637db4e28f146103aa5780638456cb59146103d35780638da5cb5b146103ea57806395a2471514610415578063ad3cb1cc1461043e578063bb1126231461046957610181565b80634f1ef2861161013e5780635c975abb116101185780635c975abb14610302578063715018a61461032d57806372a3ae9d1461034457806377eef8f91461036d57610181565b80634f1ef286146102925780635237c1b8146102ae57806352d1902d146102d757610181565b80630962ef79146101865780630abe6d56146101af5780631e7ff8f6146101d85780632e2c55c6146102155780633f4ba83a1461023e5780634d9453c014610255575b600080fd5b34801561019257600080fd5b506101ad60048036038101906101a89190613bf7565b6105db565b005b3480156101bb57600080fd5b506101d660048036038101906101d19190613c24565b610a12565b005b3480156101e457600080fd5b506101ff60048036038101906101fa9190613cc2565b610f2e565b60405161020c9190613cfe565b60405180910390f35b34801561022157600080fd5b5061023c60048036038101906102379190613bf7565b610f88565b005b34801561024a57600080fd5b5061025361144d565b005b34801561026157600080fd5b5061027c60048036038101906102779190613d19565b61145f565b6040516102899190613cfe565b60405180910390f35b6102ac60048036038101906102a79190613e9f565b611603565b005b3480156102ba57600080fd5b506102d560048036038101906102d09190613efb565b611622565b005b3480156102e357600080fd5b506102ec611895565b6040516102f99190613f54565b60405180910390f35b34801561030e57600080fd5b506103176118c8565b6040516103249190613f8a565b60405180910390f35b34801561033957600080fd5b506103426118ed565b005b34801561035057600080fd5b5061036b60048036038101906103669190613cc2565b611901565b005b34801561037957600080fd5b50610394600480360381019061038f9190613cc2565b61195c565b6040516103a19190613cfe565b60405180910390f35b3480156103b657600080fd5b506103d160048036038101906103cc9190613efb565b6119b6565b005b3480156103df57600080fd5b506103e8611b85565b005b3480156103f657600080fd5b506103ff611b97565b60405161040c9190613fb4565b60405180910390f35b34801561042157600080fd5b5061043c60048036038101906104379190613c24565b611bcf565b005b34801561044a57600080fd5b506104536120a9565b604051610460919061404e565b60405180910390f35b34801561047557600080fd5b50610490600480360381019061048b9190613d19565b6120e2565b60405161049d9190613cfe565b60405180910390f35b3480156104b257600080fd5b506104cd60048036038101906104c89190613cc2565b612309565b005b3480156104db57600080fd5b506104f660048036038101906104f19190613bf7565b6124b0565b6040516105039190613cfe565b60405180910390f35b34801561051857600080fd5b50610533600480360381019061052e9190613bf7565b6124c2565b005b34801561054157600080fd5b5061054a6128cc565b6040516105579190613cfe565b60405180910390f35b34801561056c57600080fd5b5061058760048036038101906105829190613cc2565b6128d8565b005b34801561059557600080fd5b506105b060048036038101906105ab9190613cc2565b612933565b005b3480156105be57600080fd5b506105d960048036038101906105d49190613cc2565b612e3d565b005b6105e3612ec3565b6105eb612f04565b60006105f5612f5b565b905060008160010160009054906101000a900473ffffffffffffffffffffffffffffffffffffffff1673ffffffffffffffffffffffffffffffffffffffff16636352211e846040518263ffffffff1660e01b81526004016106569190613cfe565b602060405180830381865afa158015610673573d6000803e3d6000fd5b505050506040513d601f19601f820116820180604052508101906106979190614085565b90506106a1612f83565b73ffffffffffffffffffffffffffffffffffffffff168173ffffffffffffffffffffffffffffffffffffffff1614610705576040517fee77070400000000000000000000000000000000000000000000000000000000815260040160405180910390fd5b60008260010160009054906101000a900473ffffffffffffffffffffffffffffffffffffffff1673ffffffffffffffffffffffffffffffffffffffff1663eb02c301856040518263ffffffff1660e01b81526004016107649190613cfe565b608060405180830381865afa158015610781573d6000803e3d6000fd5b505050506040513d601f19601f820116820180604052508101906107a59190614144565b905060008160000151905060008460020160008373ffffffffffffffffffffffffffffffffffffffff1673ffffffffffffffffffffffffffffffffffffffff1681526020019081526020016000209050600061080087612f8b565b90508082600201600082825461081691906141a0565b925050819055508082600101600082825461083191906141d4565b925050819055508160030154826004016000898152602001908152602001600020819055508560010160009054906101000a900473ffffffffffffffffffffffffffffffffffffffff1673ffffffffffffffffffffffffffffffffffffffff1663018629928884600301546040518363ffffffff1660e01b81526004016108b9929190614208565b600060405180830381600087803b1580156108d357600080fd5b505af11580156108e7573d6000803e3d6000fd5b505050508560000160009054906101000a900473ffffffffffffffffffffffffffffffffffffffff1673ffffffffffffffffffffffffffffffffffffffff1663a9059cbb610933612f83565b836040518363ffffffff1660e01b8152600401610951929190614231565b6020604051808303816000875af1158015610970573d6000803e3d6000fd5b505050506040513d601f19601f820116820180604052508101906109949190614286565b5061099d612f83565b73ffffffffffffffffffffffffffffffffffffffff168373ffffffffffffffffffffffffffffffffffffffff167f0aa4d283470c904c551d18bb894d37e17674920f3261a7f854be501e25f421b7836040516109f99190613cfe565b60405180910390a3505050505050610a0f61311e565b50565b610a1a612ec3565b610a22612f04565b6000610a2c612f5b565b905060008160010160009054906101000a900473ffffffffffffffffffffffffffffffffffffffff1673ffffffffffffffffffffffffffffffffffffffff16636352211e856040518263ffffffff1660e01b8152600401610a8d9190613cfe565b602060405180830381865afa158015610aaa573d6000803e3d6000fd5b505050506040513d601f19601f82011682018060405250810190610ace9190614085565b9050610ad8612f83565b73ffffffffffffffffffffffffffffffffffffffff168173ffffffffffffffffffffffffffffffffffffffff1614610b3c576040517fee77070400000000000000000000000000000000000000000000000000000000815260040160405180910390fd5b60008260010160009054906101000a900473ffffffffffffffffffffffffffffffffffffffff1673ffffffffffffffffffffffffffffffffffffffff1663eb02c301866040518263ffffffff1660e01b8152600401610b9b9190613cfe565b608060405180830381865afa158015610bb8573d6000803e3d6000fd5b505050506040513d601f19601f82011682018060405250810190610bdc9190614144565b90508060200151841115610c1c576040517fb372601600000000000000000000000000000000000000000000000000000000815260040160405180910390fd5b6000610c2786612f8b565b905060008186610c3791906141d4565b90506000868460200151610c4b91906141a0565b905060008460000151905060008760020160008373ffffffffffffffffffffffffffffffffffffffff1673ffffffffffffffffffffffffffffffffffffffff1681526020019081526020016000209050888160000154610cab91906141a0565b8160000181905550848160020154610cc391906141a0565b8160020181905550848160010154610cdb91906141d4565b816001018190555080600301548160040160008c8152602001908152602001600020819055508760010160009054906101000a900473ffffffffffffffffffffffffffffffffffffffff1673ffffffffffffffffffffffffffffffffffffffff16630602e13a8b8584600301546040518463ffffffff1660e01b8152600401610d66939291906142b3565b600060405180830381600087803b158015610d8057600080fd5b505af1158015610d94573d6000803e3d6000fd5b505050508760000160009054906101000a900473ffffffffffffffffffffffffffffffffffffffff1673ffffffffffffffffffffffffffffffffffffffff1663a9059cbb610de0612f83565b866040518363ffffffff1660e01b8152600401610dfe929190614231565b6020604051808303816000875af1158015610e1d573d6000803e3d6000fd5b505050506040513d601f19601f82011682018060405250810190610e419190614286565b50610e4a612f83565b73ffffffffffffffffffffffffffffffffffffffff168273ffffffffffffffffffffffffffffffffffffffff167fd8654fcc8cf5b36d30b3f5e4688fc78118e6d68de60b9994e09902268b57c3e38b604051610ea69190613cfe565b60405180910390a3610eb6612f83565b73ffffffffffffffffffffffffffffffffffffffff168273ffffffffffffffffffffffffffffffffffffffff167f0aa4d283470c904c551d18bb894d37e17674920f3261a7f854be501e25f421b787604051610f129190613cfe565b60405180910390a35050505050505050610f2a61311e565b5050565b600080610f39612f5b565b90508060020160008473ffffffffffffffffffffffffffffffffffffffff1673ffffffffffffffffffffffffffffffffffffffff16815260200190815260200160002060000154915050919050565b610f90612ec3565b610f98612f04565b6000610fa2612f5b565b905060008160010160009054906101000a900473ffffffffffffffffffffffffffffffffffffffff1673ffffffffffffffffffffffffffffffffffffffff16636352211e846040518263ffffffff1660e01b81526004016110039190613cfe565b602060405180830381865afa158015611020573d6000803e3d6000fd5b505050506040513d601f19601f820116820180604052508101906110449190614085565b905061104e612f83565b73ffffffffffffffffffffffffffffffffffffffff168173ffffffffffffffffffffffffffffffffffffffff16146110b2576040517fee77070400000000000000000000000000000000000000000000000000000000815260040160405180910390fd5b60008260010160009054906101000a900473ffffffffffffffffffffffffffffffffffffffff1673ffffffffffffffffffffffffffffffffffffffff1663eb02c301856040518263ffffffff1660e01b81526004016111119190613cfe565b608060405180830381865afa15801561112e573d6000803e3d6000fd5b505050506040513d601f19601f820116820180604052508101906111529190614144565b9050600081602001519050600061116886612f8b565b90506000818361117891906141d4565b905060008460000151905060008760020160008373ffffffffffffffffffffffffffffffffffffffff1673ffffffffffffffffffffffffffffffffffffffff16815260200190815260200160002090508481600001546111d891906141a0565b81600001819055508381600101546111f091906141d4565b816001018190555083816002015461120891906141a0565b81600201819055508060040160008a8152602001908152602001600020600090558760010160009054906101000a900473ffffffffffffffffffffffffffffffffffffffff1673ffffffffffffffffffffffffffffffffffffffff166338ca63bc8a6040518263ffffffff1660e01b81526004016112869190613cfe565b600060405180830381600087803b1580156112a057600080fd5b505af11580156112b4573d6000803e3d6000fd5b505050508760000160009054906101000a900473ffffffffffffffffffffffffffffffffffffffff1673ffffffffffffffffffffffffffffffffffffffff1663a9059cbb611300612f83565b856040518363ffffffff1660e01b815260040161131e929190614231565b6020604051808303816000875af115801561133d573d6000803e3d6000fd5b505050506040513d601f19601f820116820180604052508101906113619190614286565b5061136a612f83565b73ffffffffffffffffffffffffffffffffffffffff168273ffffffffffffffffffffffffffffffffffffffff167f0aa4d283470c904c551d18bb894d37e17674920f3261a7f854be501e25f421b7866040516113c69190613cfe565b60405180910390a36113d6612f83565b73ffffffffffffffffffffffffffffffffffffffff168273ffffffffffffffffffffffffffffffffffffffff167fd8654fcc8cf5b36d30b3f5e4688fc78118e6d68de60b9994e09902268b57c3e3876040516114329190613cfe565b60405180910390a3505050505050505061144a61311e565b50565b611455613137565b61145d6131be565b565b60008061146a612f5b565b905060008160010160009054906101000a900473ffffffffffffffffffffffffffffffffffffffff1673ffffffffffffffffffffffffffffffffffffffff16630d998e5d86866040518363ffffffff1660e01b81526004016114cd9291906142ea565b600060405180830381865afa1580156114ea573d6000803e3d6000fd5b505050506040513d6000823e3d601f19601f8201168201806040525081019061151391906143db565b90506000805b82518110156115f6578360010160009054906101000a900473ffffffffffffffffffffffffffffffffffffffff1673ffffffffffffffffffffffffffffffffffffffff1663eb02c30184838151811061157557611574614424565b5b60200260200101516040518263ffffffff1660e01b81526004016115999190613cfe565b608060405180830381865afa1580156115b6573d6000803e3d6000fd5b505050506040513d601f19601f820116820180604052508101906115da9190614144565b60200151826115e991906141d4565b9150806001019050611519565b5080935050505092915050565b61160b613230565b61161482613316565b61161e8282613321565b5050565b61162a612ec3565b611632612f04565b600061163c612f5b565b905060008160020160008573ffffffffffffffffffffffffffffffffffffffff1673ffffffffffffffffffffffffffffffffffffffff16815260200190815260200160002090508160000160009054906101000a900473ffffffffffffffffffffffffffffffffffffffff1673ffffffffffffffffffffffffffffffffffffffff166323b872dd6116cb612f83565b30866040518463ffffffff1660e01b81526004016116eb93929190614453565b6020604051808303816000875af115801561170a573d6000803e3d6000fd5b505050506040513d601f19601f8201168201806040525081019061172e9190614286565b5060008260010160009054906101000a900473ffffffffffffffffffffffffffffffffffffffff1673ffffffffffffffffffffffffffffffffffffffff166309fbb2d7611779612f83565b878786600301546040518563ffffffff1660e01b815260040161179f949392919061448a565b6020604051808303816000875af11580156117be573d6000803e3d6000fd5b505050506040513d601f19601f820116820180604052508101906117e291906144cf565b90508382600001546117f491906141d4565b8260000181905550816003015482600401600083815260200190815260200160002081905550611822612f83565b73ffffffffffffffffffffffffffffffffffffffff168573ffffffffffffffffffffffffffffffffffffffff167f5dac0c1b1112564a045ba943c9d50270893e8e826c49be8e7073adc713ab7bd78660405161187e9190613cfe565b60405180910390a350505061189161311e565b5050565b600061189f613440565b7f360894a13ba1a3210667c828492db98dca3e2076cc3735a920a3ca505d382bbc60001b905090565b6000806118d36134c7565b90508060000160009054906101000a900460ff1691505090565b6118f5613137565b6118ff60006134ef565b565b611909613137565b6000611913612f5b565b9050818160000160006101000a81548173ffffffffffffffffffffffffffffffffffffffff021916908373ffffffffffffffffffffffffffffffffffffffff1602179055505050565b600080611967612f5b565b90508060020160008473ffffffffffffffffffffffffffffffffffffffff1673ffffffffffffffffffffffffffffffffffffffff16815260200190815260200160002060020154915050919050565b6119be612ec3565b60006119c8612f5b565b90508060000160009054906101000a900473ffffffffffffffffffffffffffffffffffffffff1673ffffffffffffffffffffffffffffffffffffffff166323b872dd611a12612f83565b30856040518463ffffffff1660e01b8152600401611a3293929190614453565b6020604051808303816000875af1158015611a51573d6000803e3d6000fd5b505050506040513d601f19601f82011682018060405250810190611a759190614286565b5060008160020160008573ffffffffffffffffffffffffffffffffffffffff1673ffffffffffffffffffffffffffffffffffffffff168152602001908152602001600020905082816002016000828254611acf91906141d4565b925050819055508060000154670de0b6b3a764000084611aef91906144fc565b611af9919061456d565b816003016000828254611b0c91906141d4565b92505081905550611b1b612f83565b73ffffffffffffffffffffffffffffffffffffffff168473ffffffffffffffffffffffffffffffffffffffff167fecc7fa2c9c08fa68f2c2942d64a9c92b602004694d2a128c2a034cff48990f5185604051611b779190613cfe565b60405180910390a350505050565b611b8d613137565b611b956135c6565b565b600080611ba2613638565b90508060000160009054906101000a900473ffffffffffffffffffffffffffffffffffffffff1691505090565b611bd7612ec3565b611bdf612f04565b6000611be9612f5b565b905060008160010160009054906101000a900473ffffffffffffffffffffffffffffffffffffffff1673ffffffffffffffffffffffffffffffffffffffff16636352211e856040518263ffffffff1660e01b8152600401611c4a9190613cfe565b602060405180830381865afa158015611c67573d6000803e3d6000fd5b505050506040513d601f19601f82011682018060405250810190611c8b9190614085565b9050611c95612f83565b73ffffffffffffffffffffffffffffffffffffffff168173ffffffffffffffffffffffffffffffffffffffff1614611cf9576040517fee77070400000000000000000000000000000000000000000000000000000000815260040160405180910390fd5b8160000160009054906101000a900473ffffffffffffffffffffffffffffffffffffffff1673ffffffffffffffffffffffffffffffffffffffff166323b872dd611d41612f83565b30866040518463ffffffff1660e01b8152600401611d6193929190614453565b6020604051808303816000875af1158015611d80573d6000803e3d6000fd5b505050506040513d601f19601f82011682018060405250810190611da49190614286565b5060008260010160009054906101000a900473ffffffffffffffffffffffffffffffffffffffff1673ffffffffffffffffffffffffffffffffffffffff1663eb02c301866040518263ffffffff1660e01b8152600401611e049190613cfe565b608060405180830381865afa158015611e21573d6000803e3d6000fd5b505050506040513d601f19601f82011682018060405250810190611e459190614144565b90506000611e5286612f8b565b9050600081868460200151611e6791906141d4565b611e7191906141d4565b905060008360000151905060008660020160008373ffffffffffffffffffffffffffffffffffffffff1673ffffffffffffffffffffffffffffffffffffffff1681526020019081526020016000209050878160000154611ed191906141d4565b8160000181905550838160020154611ee991906141a0565b8160020181905550838160010154611f0191906141d4565b816001018190555080600301548160040160008b8152602001908152602001600020819055508660010160009054906101000a900473ffffffffffffffffffffffffffffffffffffffff1673ffffffffffffffffffffffffffffffffffffffff16630602e13a8a8584600301546040518463ffffffff1660e01b8152600401611f8c939291906142b3565b600060405180830381600087803b158015611fa657600080fd5b505af1158015611fba573d6000803e3d6000fd5b50505050611fc6612f83565b73ffffffffffffffffffffffffffffffffffffffff168273ffffffffffffffffffffffffffffffffffffffff167f5dac0c1b1112564a045ba943c9d50270893e8e826c49be8e7073adc713ab7bd78a6040516120229190613cfe565b60405180910390a3612032612f83565b73ffffffffffffffffffffffffffffffffffffffff168273ffffffffffffffffffffffffffffffffffffffff167f0aa4d283470c904c551d18bb894d37e17674920f3261a7f854be501e25f421b78660405161208e9190613cfe565b60405180910390a3505050505050506120a561311e565b5050565b6040518060400160405280600581526020017f352e302e3000000000000000000000000000000000000000000000000000000081525081565b6000806120ed612f5b565b905060008160020160008573ffffffffffffffffffffffffffffffffffffffff1673ffffffffffffffffffffffffffffffffffffffff16815260200190815260200160002060030154905060008260010160009054906101000a900473ffffffffffffffffffffffffffffffffffffffff1673ffffffffffffffffffffffffffffffffffffffff16630d998e5d87876040518363ffffffff1660e01b81526004016121999291906142ea565b600060405180830381865afa1580156121b6573d6000803e3d6000fd5b505050506040513d6000823e3d601f19601f820116820180604052508101906121df91906143db565b90506000805b82518110156122fb5760008560010160009054906101000a900473ffffffffffffffffffffffffffffffffffffffff1673ffffffffffffffffffffffffffffffffffffffff1663eb02c30185848151811061224357612242614424565b5b60200260200101516040518263ffffffff1660e01b81526004016122679190613cfe565b608060405180830381865afa158015612284573d6000803e3d6000fd5b505050506040513d601f19601f820116820180604052508101906122a89190614144565b90506000670de0b6b3a76400008260400151876122c591906141a0565b83602001516122d491906144fc565b6122de919061456d565b905080846122ec91906141d4565b935050508060010190506121e5565b508094505050505092915050565b6000612313613660565b905060008160000160089054906101000a900460ff1615905060008260000160009054906101000a900467ffffffffffffffff1690506000808267ffffffffffffffff161480156123615750825b9050600060018367ffffffffffffffff16148015612396575060003073ffffffffffffffffffffffffffffffffffffffff163b145b9050811580156123a4575080155b156123db576040517ff92ee8a900000000000000000000000000000000000000000000000000000000815260040160405180910390fd5b60018560000160006101000a81548167ffffffffffffffff021916908367ffffffffffffffff160217905550831561242b5760018560000160086101000a81548160ff0219169083151502179055505b612433613674565b61243c8661367e565b612444613692565b61244c61369c565b83156124a85760008560000160086101000a81548160ff0219169083151502179055507fc7f505b2f371ae2175ee4913f4499e1f2633a7b5936321eed1cdaeb6115181d2600160405161249f91906145f7565b60405180910390a15b505050505050565b60006124bb82612f8b565b9050919050565b6124ca612ec3565b6124d2612f04565b60006124dc612f5b565b905060008160010160009054906101000a900473ffffffffffffffffffffffffffffffffffffffff1673ffffffffffffffffffffffffffffffffffffffff16636352211e846040518263ffffffff1660e01b815260040161253d9190613cfe565b602060405180830381865afa15801561255a573d6000803e3d6000fd5b505050506040513d601f19601f8201168201806040525081019061257e9190614085565b9050612588612f83565b73ffffffffffffffffffffffffffffffffffffffff168173ffffffffffffffffffffffffffffffffffffffff16146125ec576040517fee77070400000000000000000000000000000000000000000000000000000000815260040160405180910390fd5b60008260010160009054906101000a900473ffffffffffffffffffffffffffffffffffffffff1673ffffffffffffffffffffffffffffffffffffffff1663eb02c301856040518263ffffffff1660e01b815260040161264b9190613cfe565b608060405180830381865afa158015612668573d6000803e3d6000fd5b505050506040513d601f19601f8201168201806040525081019061268c9190614144565b9050600061269985612f8b565b905060008260000151905060008560020160008373ffffffffffffffffffffffffffffffffffffffff1673ffffffffffffffffffffffffffffffffffffffff1681526020019081526020016000209050828160020160008282546126fd91906141a0565b925050819055508281600101600082825461271891906141d4565b925050819055508060030154816004016000898152602001908152602001600020819055508560010160009054906101000a900473ffffffffffffffffffffffffffffffffffffffff1673ffffffffffffffffffffffffffffffffffffffff16630602e13a8885876020015161278e91906141d4565b84600301546040518463ffffffff1660e01b81526004016127b1939291906142b3565b600060405180830381600087803b1580156127cb57600080fd5b505af11580156127df573d6000803e3d6000fd5b505050506127eb612f83565b73ffffffffffffffffffffffffffffffffffffffff168273ffffffffffffffffffffffffffffffffffffffff167f0aa4d283470c904c551d18bb894d37e17674920f3261a7f854be501e25f421b7856040516128479190613cfe565b60405180910390a3612857612f83565b73ffffffffffffffffffffffffffffffffffffffff168273ffffffffffffffffffffffffffffffffffffffff167f5dac0c1b1112564a045ba943c9d50270893e8e826c49be8e7073adc713ab7bd7856040516128b39190613cfe565b60405180910390a35050505050506128c961311e565b50565b670de0b6b3a764000081565b6128e0613137565b60006128ea612f5b565b9050818160010160006101000a81548173ffffffffffffffffffffffffffffffffffffffff021916908373ffffffffffffffffffffffffffffffffffffffff1602179055505050565b61293b612ec3565b612943612f04565b61294b612f83565b73ffffffffffffffffffffffffffffffffffffffff168173ffffffffffffffffffffffffffffffffffffffff16146129af576040517fee77070400000000000000000000000000000000000000000000000000000000815260040160405180910390fd5b60006129b9612f5b565b905060008160010160009054906101000a900473ffffffffffffffffffffffffffffffffffffffff1673ffffffffffffffffffffffffffffffffffffffff16632a6bc2dd846040518263ffffffff1660e01b8152600401612a1a9190613fb4565b600060405180830381865afa158015612a37573d6000803e3d6000fd5b505050506040513d6000823e3d601f19601f82011682018060405250810190612a6091906143db565b9050600080825167ffffffffffffffff811115612a8057612a7f613d74565b5b604051908082528060200260200182016040528015612ab957816020015b612aa6613b7d565b815260200190600190039081612a9e5790505b50905060005b8351811015612d2e576000848281518110612add57612adc614424565b5b602002602001015190506000612af282612f8b565b905060008760010160009054906101000a900473ffffffffffffffffffffffffffffffffffffffff1673ffffffffffffffffffffffffffffffffffffffff1663eb02c301846040518263ffffffff1660e01b8152600401612b539190613cfe565b608060405180830381865afa158015612b70573d6000803e3d6000fd5b505050506040513d601f19601f82011682018060405250810190612b949190614144565b60000151905060008860020160008373ffffffffffffffffffffffffffffffffffffffff1673ffffffffffffffffffffffffffffffffffffffff168152602001908152602001600020905082816002016000828254612bf391906141a0565b9250508190555082816001016000828254612c0e91906141d4565b925050819055508060030154816004016000868152602001908152602001600020819055508860010160009054906101000a900473ffffffffffffffffffffffffffffffffffffffff1673ffffffffffffffffffffffffffffffffffffffff1663018629928583600301546040518363ffffffff1660e01b8152600401612c96929190614208565b600060405180830381600087803b158015612cb057600080fd5b505af1158015612cc4573d6000803e3d6000fd5b5050505060405180604001604052808373ffffffffffffffffffffffffffffffffffffffff16815260200184815250868681518110612d0657612d05614424565b5b60200260200101819052508287612d1d91906141d4565b965050505050806001019050612abf565b508360000160009054906101000a900473ffffffffffffffffffffffffffffffffffffffff1673ffffffffffffffffffffffffffffffffffffffff1663a9059cbb612d77612f83565b846040518363ffffffff1660e01b8152600401612d95929190614231565b6020604051808303816000875af1158015612db4573d6000803e3d6000fd5b505050506040513d601f19601f82011682018060405250810190612dd89190614286565b50612de1612f83565b73ffffffffffffffffffffffffffffffffffffffff167f445449d0ab504db2855634394b8408e0b876b052ce974f14e16baa7cfe2a987c82604051612e26919061470e565b60405180910390a250505050612e3a61311e565b50565b612e45613137565b600073ffffffffffffffffffffffffffffffffffffffff168173ffffffffffffffffffffffffffffffffffffffff1603612eb75760006040517f1e4fbdf7000000000000000000000000000000000000000000000000000000008152600401612eae9190613fb4565b60405180910390fd5b612ec0816134ef565b50565b612ecb6118c8565b15612f02576040517fd93c066500000000000000000000000000000000000000000000000000000000815260040160405180910390fd5b565b6000612f0e6136ae565b90506002816000015403612f4e576040517f3ee5aeb500000000000000000000000000000000000000000000000000000000815260040160405180910390fd5b6002816000018190555050565b60007fe9c9d9e1df02920d747aa7516ca1d4362d70267096e6330bcfb24b265ac2ee00905090565b600033905090565b600080612f96612f5b565b905060008160010160009054906101000a900473ffffffffffffffffffffffffffffffffffffffff1673ffffffffffffffffffffffffffffffffffffffff1663eb02c301856040518263ffffffff1660e01b8152600401612ff79190613cfe565b608060405180830381865afa158015613014573d6000803e3d6000fd5b505050506040513d601f19601f820116820180604052508101906130389190614144565b90506000826002016000836000015173ffffffffffffffffffffffffffffffffffffffff1673ffffffffffffffffffffffffffffffffffffffff1681526020019081526020016000206003015490506000836002016000846000015173ffffffffffffffffffffffffffffffffffffffff1673ffffffffffffffffffffffffffffffffffffffff1681526020019081526020016000206004016000878152602001908152602001600020549050670de0b6b3a764000081836130fa91906141a0565b846020015161310991906144fc565b613113919061456d565b945050505050919050565b60006131286136ae565b90506001816000018190555050565b61313f612f83565b73ffffffffffffffffffffffffffffffffffffffff1661315d611b97565b73ffffffffffffffffffffffffffffffffffffffff16146131bc57613180612f83565b6040517f118cdaa70000000000000000000000000000000000000000000000000000000081526004016131b39190613fb4565b60405180910390fd5b565b6131c66136d6565b60006131d06134c7565b905060008160000160006101000a81548160ff0219169083151502179055507f5db9ee0a495bf2e6ff9c91a7834c1ba4fdd244a5e8aa4e537bd38aeae4b073aa613218612f83565b6040516132259190613fb4565b60405180910390a150565b7f000000000000000000000000000000000000000000000000000000000000000073ffffffffffffffffffffffffffffffffffffffff163073ffffffffffffffffffffffffffffffffffffffff1614806132dd57507f000000000000000000000000000000000000000000000000000000000000000073ffffffffffffffffffffffffffffffffffffffff166132c4613716565b73ffffffffffffffffffffffffffffffffffffffff1614155b15613314576040517fe07c8dba00000000000000000000000000000000000000000000000000000000815260040160405180910390fd5b565b61331e613137565b50565b8173ffffffffffffffffffffffffffffffffffffffff166352d1902d6040518163ffffffff1660e01b8152600401602060405180830381865afa92505050801561338957506040513d601f19601f82011682018060405250810190613386919061475c565b60015b6133ca57816040517f4c9c8ce30000000000000000000000000000000000000000000000000000000081526004016133c19190613fb4565b60405180910390fd5b7f360894a13ba1a3210667c828492db98dca3e2076cc3735a920a3ca505d382bbc60001b811461343157806040517faa1d49a40000000000000000000000000000000000000000000000000000000081526004016134289190613f54565b60405180910390fd5b61343b838361376d565b505050565b7f000000000000000000000000000000000000000000000000000000000000000073ffffffffffffffffffffffffffffffffffffffff163073ffffffffffffffffffffffffffffffffffffffff16146134c5576040517fe07c8dba00000000000000000000000000000000000000000000000000000000815260040160405180910390fd5b565b60007fcd5ed15c6e187e77e9aee88184c21f4f2182ab5827cb3b7e07fbedcd63f03300905090565b60006134f9613638565b905060008160000160009054906101000a900473ffffffffffffffffffffffffffffffffffffffff169050828260000160006101000a81548173ffffffffffffffffffffffffffffffffffffffff021916908373ffffffffffffffffffffffffffffffffffffffff1602179055508273ffffffffffffffffffffffffffffffffffffffff168173ffffffffffffffffffffffffffffffffffffffff167f8be0079c531659141344cd1fd0a4f28419497f9722a3daafe3b4186f6b6457e060405160405180910390a3505050565b6135ce612ec3565b60006135d86134c7565b905060018160000160006101000a81548160ff0219169083151502179055507f62e78cea01bee320cd4e420270b5ea74000d11b0c9f74754ebdbfc544b05a258613620612f83565b60405161362d9190613fb4565b60405180910390a150565b60007f9016d09d72d40fdae2fd8ceac6b6234c7706214fd39c1cd1e609a0528c199300905090565b60008061366b6137e0565b90508091505090565b61367c61380b565b565b61368661380b565b61368f8161384b565b50565b61369a61380b565b565b6136a461380b565b6136ac6138d1565b565b60007f9b779b17422d0df92223018b32b4d1fa46e071723d6817e2486d003becc55f00905090565b6136de6118c8565b613714576040517f8dfc202b00000000000000000000000000000000000000000000000000000000815260040160405180910390fd5b565b60006137447f360894a13ba1a3210667c828492db98dca3e2076cc3735a920a3ca505d382bbc60001b6138f2565b60000160009054906101000a900473ffffffffffffffffffffffffffffffffffffffff16905090565b613776826138fc565b8173ffffffffffffffffffffffffffffffffffffffff167fbc7cd75a20ee27fd9adebab32041f755214dbc6bffa90cc0225b39da2e5c2d3b60405160405180910390a26000815111156137d3576137cd82826139c9565b506137dc565b6137db613a4d565b5b5050565b60007ff0c57e16840df040f15088dc2f81fe391c3923bec73e23a9662efc9c229c6a0060001b905090565b613813613a8a565b613849576040517fd7e6bcf800000000000000000000000000000000000000000000000000000000815260040160405180910390fd5b565b61385361380b565b600073ffffffffffffffffffffffffffffffffffffffff168173ffffffffffffffffffffffffffffffffffffffff16036138c55760006040517f1e4fbdf70000000000000000000000000000000000000000000000000000000081526004016138bc9190613fb4565b60405180910390fd5b6138ce816134ef565b50565b6138d961380b565b60006138e36136ae565b90506001816000018190555050565b6000819050919050565b60008173ffffffffffffffffffffffffffffffffffffffff163b0361395857806040517f4c9c8ce300000000000000000000000000000000000000000000000000000000815260040161394f9190613fb4565b60405180910390fd5b806139857f360894a13ba1a3210667c828492db98dca3e2076cc3735a920a3ca505d382bbc60001b6138f2565b60000160006101000a81548173ffffffffffffffffffffffffffffffffffffffff021916908373ffffffffffffffffffffffffffffffffffffffff16021790555050565b60606000808473ffffffffffffffffffffffffffffffffffffffff16846040516139f391906147d0565b600060405180830381855af49150503d8060008114613a2e576040519150601f19603f3d011682016040523d82523d6000602084013e613a33565b606091505b5091509150613a43858383613aaa565b9250505092915050565b6000341115613a88576040517fb398979f00000000000000000000000000000000000000000000000000000000815260040160405180910390fd5b565b6000613a94613660565b60000160089054906101000a900460ff16905090565b606082613abf57613aba82613b39565b613b31565b60008251148015613ae7575060008473ffffffffffffffffffffffffffffffffffffffff163b145b15613b2957836040517f9996b315000000000000000000000000000000000000000000000000000000008152600401613b209190613fb4565b60405180910390fd5b819050613b32565b5b9392505050565b600081511115613b4b57805160208201fd5b6040517fd6bda27500000000000000000000000000000000000000000000000000000000815260040160405180910390fd5b6040518060400160405280600073ffffffffffffffffffffffffffffffffffffffff168152602001600081525090565b6000604051905090565b600080fd5b600080fd5b6000819050919050565b613bd481613bc1565b8114613bdf57600080fd5b50565b600081359050613bf181613bcb565b92915050565b600060208284031215613c0d57613c0c613bb7565b5b6000613c1b84828501613be2565b91505092915050565b60008060408385031215613c3b57613c3a613bb7565b5b6000613c4985828601613be2565b9250506020613c5a85828601613be2565b9150509250929050565b600073ffffffffffffffffffffffffffffffffffffffff82169050919050565b6000613c8f82613c64565b9050919050565b613c9f81613c84565b8114613caa57600080fd5b50565b600081359050613cbc81613c96565b92915050565b600060208284031215613cd857613cd7613bb7565b5b6000613ce684828501613cad565b91505092915050565b613cf881613bc1565b82525050565b6000602082019050613d136000830184613cef565b92915050565b60008060408385031215613d3057613d2f613bb7565b5b6000613d3e85828601613cad565b9250506020613d4f85828601613cad565b9150509250929050565b600080fd5b600080fd5b6000601f19601f8301169050919050565b7f4e487b7100000000000000000000000000000000000000000000000000000000600052604160045260246000fd5b613dac82613d63565b810181811067ffffffffffffffff82111715613dcb57613dca613d74565b5b80604052505050565b6000613dde613bad565b9050613dea8282613da3565b919050565b600067ffffffffffffffff821115613e0a57613e09613d74565b5b613e1382613d63565b9050602081019050919050565b82818337600083830152505050565b6000613e42613e3d84613def565b613dd4565b905082815260208101848484011115613e5e57613e5d613d5e565b5b613e69848285613e20565b509392505050565b600082601f830112613e8657613e85613d59565b5b8135613e96848260208601613e2f565b91505092915050565b60008060408385031215613eb657613eb5613bb7565b5b6000613ec485828601613cad565b925050602083013567ffffffffffffffff811115613ee557613ee4613bbc565b5b613ef185828601613e71565b9150509250929050565b60008060408385031215613f1257613f11613bb7565b5b6000613f2085828601613cad565b9250506020613f3185828601613be2565b9150509250929050565b6000819050919050565b613f4e81613f3b565b82525050565b6000602082019050613f696000830184613f45565b92915050565b60008115159050919050565b613f8481613f6f565b82525050565b6000602082019050613f9f6000830184613f7b565b92915050565b613fae81613c84565b82525050565b6000602082019050613fc96000830184613fa5565b92915050565b600081519050919050565b600082825260208201905092915050565b60005b83811015614009578082015181840152602081019050613fee565b60008484015250505050565b600061402082613fcf565b61402a8185613fda565b935061403a818560208601613feb565b61404381613d63565b840191505092915050565b600060208201905081810360008301526140688184614015565b905092915050565b60008151905061407f81613c96565b92915050565b60006020828403121561409b5761409a613bb7565b5b60006140a984828501614070565b91505092915050565b600080fd5b6000815190506140c681613bcb565b92915050565b6000608082840312156140e2576140e16140b2565b5b6140ec6080613dd4565b905060006140fc84828501614070565b6000830152506020614110848285016140b7565b6020830152506040614124848285016140b7565b604083015250606061413884828501614070565b60608301525092915050565b60006080828403121561415a57614159613bb7565b5b6000614168848285016140cc565b91505092915050565b7f4e487b7100000000000000000000000000000000000000000000000000000000600052601160045260246000fd5b60006141ab82613bc1565b91506141b683613bc1565b92508282039050818111156141ce576141cd614171565b5b92915050565b60006141df82613bc1565b91506141ea83613bc1565b925082820190508082111561420257614201614171565b5b92915050565b600060408201905061421d6000830185613cef565b61422a6020830184613cef565b9392505050565b60006040820190506142466000830185613fa5565b6142536020830184613cef565b9392505050565b61426381613f6f565b811461426e57600080fd5b50565b6000815190506142808161425a565b92915050565b60006020828403121561429c5761429b613bb7565b5b60006142aa84828501614271565b91505092915050565b60006060820190506142c86000830186613cef565b6142d56020830185613cef565b6142e26040830184613cef565b949350505050565b60006040820190506142ff6000830185613fa5565b61430c6020830184613fa5565b9392505050565b600067ffffffffffffffff82111561432e5761432d613d74565b5b602082029050602081019050919050565b600080fd5b600061435761435284614313565b613dd4565b9050808382526020820190506020840283018581111561437a5761437961433f565b5b835b818110156143a3578061438f88826140b7565b84526020840193505060208101905061437c565b5050509392505050565b600082601f8301126143c2576143c1613d59565b5b81516143d2848260208601614344565b91505092915050565b6000602082840312156143f1576143f0613bb7565b5b600082015167ffffffffffffffff81111561440f5761440e613bbc565b5b61441b848285016143ad565b91505092915050565b7f4e487b7100000000000000000000000000000000000000000000000000000000600052603260045260246000fd5b60006060820190506144686000830186613fa5565b6144756020830185613fa5565b6144826040830184613cef565b949350505050565b600060808201905061449f6000830187613fa5565b6144ac6020830186613fa5565b6144b96040830185613cef565b6144c66060830184613cef565b95945050505050565b6000602082840312156144e5576144e4613bb7565b5b60006144f3848285016140b7565b91505092915050565b600061450782613bc1565b915061451283613bc1565b925082820261452081613bc1565b9150828204841483151761453757614536614171565b5b5092915050565b7f4e487b7100000000000000000000000000000000000000000000000000000000600052601260045260246000fd5b600061457882613bc1565b915061458383613bc1565b9250826145935761459261453e565b5b828204905092915050565b6000819050919050565b600067ffffffffffffffff82169050919050565b6000819050919050565b60006145e16145dc6145d78461459e565b6145bc565b6145a8565b9050919050565b6145f1816145c6565b82525050565b600060208201905061460c60008301846145e8565b92915050565b600081519050919050565b600082825260208201905092915050565b6000819050602082019050919050565b61464781613c84565b82525050565b61465681613bc1565b82525050565b604082016000820151614672600085018261463e565b506020820151614685602085018261464d565b50505050565b6000614697838361465c565b60408301905092915050565b6000602082019050919050565b60006146bb82614612565b6146c5818561461d565b93506146d08361462e565b8060005b838110156147015781516146e8888261468b565b97506146f3836146a3565b9250506001810190506146d4565b5085935050505092915050565b6000602082019050818103600083015261472881846146b0565b905092915050565b61473981613f3b565b811461474457600080fd5b50565b60008151905061475681614730565b92915050565b60006020828403121561477257614771613bb7565b5b600061478084828501614747565b91505092915050565b600081519050919050565b600081905092915050565b60006147aa82614789565b6147b48185614794565b93506147c4818560208601613feb565b80840191505092915050565b60006147dc828461479f565b91508190509291505056fea264697066735822122090c0048b5c13a76aa0924b9f6c91efa0f7bb2c3544aa0bd6856f2294d038d62564736f6c634300081c0033",
  "linkReferences": {},
  "deployedLinkReferences": {}
}