{
  "_format": "hh-sol-artifact-1",
  "contractName": "LikeProtocol",
  "sourceName": "contracts/LikeProtocol.sol",
  "abi": [
    {
      "inputs": [],
      "stateMutability": "nonpayable",
      "type": "constructor"
    },
    {
      "inputs": [
        {
          "internalType": "address",
          "name": "target",
          "type": "address"
        }
      ],
      "name": "AddressEmptyCode",
      "type": "error"
    },
    {
      "inputs": [
        {
          "internalType": "address",
          "name": "implementation",
          "type": "address"
        }
      ],
      "name": "BookNFTInvalidImplementation",
      "type": "error"
    },
    {
      "inputs": [],
      "name": "Create2EmptyBytecode",
      "type": "error"
    },
    {
      "inputs": [
        {
          "internalType": "address",
          "name": "implementation",
          "type": "address"
        }
      ],
      "name": "ERC1967InvalidImplementation",
      "type": "error"
    },
    {
      "inputs": [],
      "name": "ERC1967NonPayable",
      "type": "error"
    },
    {
      "inputs": [],
      "name": "EnforcedPause",
      "type": "error"
    },
    {
      "inputs": [],
      "name": "ErrInvalidSalt",
      "type": "error"
    },
    {
      "inputs": [],
      "name": "ExpectedPause",
      "type": "error"
    },
    {
      "inputs": [],
      "name": "FailedCall",
      "type": "error"
    },
    {
      "inputs": [],
      "name": "FailedDeployment",
      "type": "error"
    },
    {
      "inputs": [
        {
          "internalType": "uint256",
          "name": "balance",
          "type": "uint256"
        },
        {
          "internalType": "uint256",
          "name": "needed",
          "type": "uint256"
        }
      ],
      "name": "InsufficientBalance",
      "type": "error"
    },
    {
      "inputs": [],
      "name": "InvalidInitialization",
      "type": "error"
    },
    {
      "inputs": [],
      "name": "NotInitializing",
      "type": "error"
    },
    {
      "inputs": [
        {
          "internalType": "address",
          "name": "owner",
          "type": "address"
        }
      ],
      "name": "OwnableInvalidOwner",
      "type": "error"
    },
    {
      "inputs": [
        {
          "internalType": "address",
          "name": "account",
          "type": "address"
        }
      ],
      "name": "OwnableUnauthorizedAccount",
      "type": "error"
    },
    {
      "inputs": [],
      "name": "UUPSUnauthorizedCallContext",
      "type": "error"
    },
    {
      "inputs": [
        {
          "internalType": "bytes32",
          "name": "slot",
          "type": "bytes32"
        }
      ],
      "name": "UUPSUnsupportedProxiableUUID",
      "type": "error"
    },
    {
      "anonymous": false,
      "inputs": [
        {
          "indexed": false,
          "internalType": "address",
          "name": "newImplementation",
          "type": "address"
        }
      ],
      "name": "BookNFTImplementationUpgraded",
      "type": "event"
    },
    {
      "anonymous": false,
      "inputs": [
        {
          "indexed": false,
          "internalType": "uint64",
          "name": "version",
          "type": "uint64"
        }
      ],
      "name": "Initialized",
      "type": "event"
    },
    {
      "anonymous": false,
      "inputs": [
        {
          "indexed": false,
          "internalType": "address",
          "name": "bookNFT",
          "type": "address"
        },
        {
          "components": [
            {
              "internalType": "string",
              "name": "name",
              "type": "string"
            },
            {
              "internalType": "string",
              "name": "symbol",
              "type": "string"
            },
            {
              "internalType": "string",
              "name": "metadata",
              "type": "string"
            },
            {
              "internalType": "uint64",
              "name": "max_supply",
              "type": "uint64"
            }
          ],
          "indexed": false,
          "internalType": "struct BookConfig",
          "name": "config",
          "type": "tuple"
        }
      ],
      "name": "NewBookNFT",
      "type": "event"
    },
    {
      "anonymous": false,
      "inputs": [
        {
          "indexed": true,
          "internalType": "address",
          "name": "previousOwner",
          "type": "address"
        },
        {
          "indexed": true,
          "internalType": "address",
          "name": "newOwner",
          "type": "address"
        }
      ],
      "name": "OwnershipTransferred",
      "type": "event"
    },
    {
      "anonymous": false,
      "inputs": [
        {
          "indexed": false,
          "internalType": "address",
          "name": "account",
          "type": "address"
        }
      ],
      "name": "Paused",
      "type": "event"
    },
    {
      "anonymous": false,
      "inputs": [
        {
          "indexed": false,
          "internalType": "address",
          "name": "account",
          "type": "address"
        }
      ],
      "name": "Unpaused",
      "type": "event"
    },
    {
      "anonymous": false,
      "inputs": [
        {
          "indexed": true,
          "internalType": "address",
          "name": "implementation",
          "type": "address"
        }
      ],
      "name": "Upgraded",
      "type": "event"
    },
    {
      "inputs": [],
      "name": "UPGRADE_INTERFACE_VERSION",
      "outputs": [
        {
          "internalType": "string",
          "name": "",
          "type": "string"
        }
      ],
      "stateMutability": "view",
      "type": "function"
    },
    {
      "inputs": [],
      "name": "getRoyaltyReceiver",
      "outputs": [
        {
          "internalType": "address",
          "name": "",
          "type": "address"
        }
      ],
      "stateMutability": "view",
      "type": "function"
    },
    {
      "inputs": [],
      "name": "implementation",
      "outputs": [
        {
          "internalType": "address",
          "name": "",
          "type": "address"
        }
      ],
      "stateMutability": "view",
      "type": "function"
    },
    {
      "inputs": [
        {
          "internalType": "address",
          "name": "initialOwner",
          "type": "address"
        }
      ],
      "name": "initialize",
      "outputs": [],
      "stateMutability": "nonpayable",
      "type": "function"
    },
    {
      "inputs": [
        {
          "internalType": "address",
          "name": "classId",
          "type": "address"
        }
      ],
      "name": "isBookNFT",
      "outputs": [
        {
          "internalType": "bool",
          "name": "",
          "type": "bool"
        }
      ],
      "stateMutability": "view",
      "type": "function"
    },
    {
      "inputs": [
        {
          "components": [
            {
              "internalType": "address",
              "name": "creator",
              "type": "address"
            },
            {
              "internalType": "address[]",
              "name": "updaters",
              "type": "address[]"
            },
            {
              "internalType": "address[]",
              "name": "minters",
              "type": "address[]"
            },
            {
              "components": [
                {
                  "internalType": "string",
                  "name": "name",
                  "type": "string"
                },
                {
                  "internalType": "string",
                  "name": "symbol",
                  "type": "string"
                },
                {
                  "internalType": "string",
                  "name": "metadata",
                  "type": "string"
                },
                {
                  "internalType": "uint64",
                  "name": "max_supply",
                  "type": "uint64"
                }
              ],
              "internalType": "struct BookConfig",
              "name": "config",
              "type": "tuple"
            }
          ],
          "internalType": "struct MsgNewBookNFT",
          "name": "msgNewBookNFT",
          "type": "tuple"
        }
      ],
      "name": "newBookNFT",
      "outputs": [
        {
          "internalType": "address",
          "name": "bookAddress",
          "type": "address"
        }
      ],
      "stateMutability": "nonpayable",
      "type": "function"
    },
    {
      "inputs": [
        {
          "components": [
            {
              "internalType": "address",
              "name": "creator",
              "type": "address"
            },
            {
              "internalType": "address[]",
              "name": "updaters",
              "type": "address[]"
            },
            {
              "internalType": "address[]",
              "name": "minters",
              "type": "address[]"
            },
            {
              "components": [
                {
                  "internalType": "string",
                  "name": "name",
                  "type": "string"
                },
                {
                  "internalType": "string",
                  "name": "symbol",
                  "type": "string"
                },
                {
                  "internalType": "string",
                  "name": "metadata",
                  "type": "string"
                },
                {
                  "internalType": "uint64",
                  "name": "max_supply",
                  "type": "uint64"
                }
              ],
              "internalType": "struct BookConfig",
              "name": "config",
              "type": "tuple"
            }
          ],
          "internalType": "struct MsgNewBookNFT",
          "name": "msgNewBookNFT",
          "type": "tuple"
        },
        {
          "internalType": "uint96",
          "name": "royaltyFraction",
          "type": "uint96"
        }
      ],
      "name": "newBookNFTWithRoyalty",
      "outputs": [
        {
          "internalType": "address",
          "name": "bookAddress",
          "type": "address"
        }
      ],
      "stateMutability": "nonpayable",
      "type": "function"
    },
    {
      "inputs": [
        {
          "internalType": "bytes32",
          "name": "salt",
          "type": "bytes32"
        },
        {
          "components": [
            {
              "internalType": "address",
              "name": "creator",
              "type": "address"
            },
            {
              "internalType": "address[]",
              "name": "updaters",
              "type": "address[]"
            },
            {
              "internalType": "address[]",
              "name": "minters",
              "type": "address[]"
            },
            {
              "components": [
                {
                  "internalType": "string",
                  "name": "name",
                  "type": "string"
                },
                {
                  "internalType": "string",
                  "name": "symbol",
                  "type": "string"
                },
                {
                  "internalType": "string",
                  "name": "metadata",
                  "type": "string"
                },
                {
                  "internalType": "uint64",
                  "name": "max_supply",
                  "type": "uint64"
                }
              ],
              "internalType": "struct BookConfig",
              "name": "config",
              "type": "tuple"
            }
          ],
          "internalType": "struct MsgNewBookNFT",
          "name": "msgNewBookNFT",
          "type": "tuple"
        },
        {
          "internalType": "uint96",
          "name": "royaltyFraction",
          "type": "uint96"
        }
      ],
      "name": "newBookNFTWithRoyaltyAndSalt",
      "outputs": [
        {
          "internalType": "address",
          "name": "bookAddress",
          "type": "address"
        }
      ],
      "stateMutability": "nonpayable",
      "type": "function"
    },
    {
      "inputs": [
        {
          "internalType": "bytes32",
          "name": "salt",
          "type": "bytes32"
        },
        {
          "components": [
            {
              "internalType": "address",
              "name": "creator",
              "type": "address"
            },
            {
              "internalType": "address[]",
              "name": "updaters",
              "type": "address[]"
            },
            {
              "internalType": "address[]",
              "name": "minters",
              "type": "address[]"
            },
            {
              "components": [
                {
                  "internalType": "string",
                  "name": "name",
                  "type": "string"
                },
                {
                  "internalType": "string",
                  "name": "symbol",
                  "type": "string"
                },
                {
                  "internalType": "string",
                  "name": "metadata",
                  "type": "string"
                },
                {
                  "internalType": "uint64",
                  "name": "max_supply",
                  "type": "uint64"
                }
              ],
              "internalType": "struct BookConfig",
              "name": "config",
              "type": "tuple"
            }
          ],
          "internalType": "struct MsgNewBookNFT",
          "name": "msgNewBookNFT",
          "type": "tuple"
        }
      ],
      "name": "newBookNFTWithSalt",
      "outputs": [
        {
          "internalType": "address",
          "name": "bookAddress",
          "type": "address"
        }
      ],
      "stateMutability": "nonpayable",
      "type": "function"
    },
    {
      "inputs": [
        {
          "components": [
            {
              "internalType": "address",
              "name": "creator",
              "type": "address"
            },
            {
              "internalType": "address[]",
              "name": "updaters",
              "type": "address[]"
            },
            {
              "internalType": "address[]",
              "name": "minters",
              "type": "address[]"
            },
            {
              "components": [
                {
                  "internalType": "string",
                  "name": "name",
                  "type": "string"
                },
                {
                  "internalType": "string",
                  "name": "symbol",
                  "type": "string"
                },
                {
                  "internalType": "string",
                  "name": "metadata",
                  "type": "string"
                },
                {
                  "internalType": "uint64",
                  "name": "max_supply",
                  "type": "uint64"
                }
              ],
              "internalType": "struct BookConfig",
              "name": "config",
              "type": "tuple"
            }
          ],
          "internalType": "struct MsgNewBookNFT[]",
          "name": "msgNewBookNFTs",
          "type": "tuple[]"
        }
      ],
      "name": "newBookNFTs",
      "outputs": [],
      "stateMutability": "nonpayable",
      "type": "function"
    },
    {
      "inputs": [],
      "name": "owner",
      "outputs": [
        {
          "internalType": "address",
          "name": "",
          "type": "address"
        }
      ],
      "stateMutability": "view",
      "type": "function"
    },
    {
      "inputs": [],
      "name": "pause",
      "outputs": [],
      "stateMutability": "nonpayable",
      "type": "function"
    },
    {
      "inputs": [],
      "name": "paused",
      "outputs": [
        {
          "internalType": "bool",
          "name": "",
          "type": "bool"
        }
      ],
      "stateMutability": "view",
      "type": "function"
    },
    {
      "inputs": [
        {
          "internalType": "bytes32",
          "name": "salt",
          "type": "bytes32"
        },
        {
          "components": [
            {
              "internalType": "address",
              "name": "creator",
              "type": "address"
            },
            {
              "internalType": "address[]",
              "name": "updaters",
              "type": "address[]"
            },
            {
              "internalType": "address[]",
              "name": "minters",
              "type": "address[]"
            },
            {
              "components": [
                {
                  "internalType": "string",
                  "name": "name",
                  "type": "string"
                },
                {
                  "internalType": "string",
                  "name": "symbol",
                  "type": "string"
                },
                {
                  "internalType": "string",
                  "name": "metadata",
                  "type": "string"
                },
                {
                  "internalType": "uint64",
                  "name": "max_supply",
                  "type": "uint64"
                }
              ],
              "internalType": "struct BookConfig",
              "name": "config",
              "type": "tuple"
            }
          ],
          "internalType": "struct MsgNewBookNFT",
          "name": "msgNewBookNFT",
          "type": "tuple"
        }
      ],
      "name": "precomputeBookNFTAddress",
      "outputs": [
        {
          "internalType": "address",
          "name": "bookAddress",
          "type": "address"
        }
      ],
      "stateMutability": "view",
      "type": "function"
    },
    {
      "inputs": [],
      "name": "proxiableUUID",
      "outputs": [
        {
          "internalType": "bytes32",
          "name": "",
          "type": "bytes32"
        }
      ],
      "stateMutability": "view",
      "type": "function"
    },
    {
      "inputs": [],
      "name": "renounceOwnership",
      "outputs": [],
      "stateMutability": "nonpayable",
      "type": "function"
    },
    {
      "inputs": [
        {
          "internalType": "address",
          "name": "royaltyReceiver",
          "type": "address"
        }
      ],
      "name": "setRoyaltyReceiver",
      "outputs": [],
      "stateMutability": "nonpayable",
      "type": "function"
    },
    {
      "inputs": [
        {
          "internalType": "address",
          "name": "newOwner",
          "type": "address"
        }
      ],
      "name": "transferOwnership",
      "outputs": [],
      "stateMutability": "nonpayable",
      "type": "function"
    },
    {
      "inputs": [],
      "name": "unpause",
      "outputs": [],
      "stateMutability": "nonpayable",
      "type": "function"
    },
    {
      "inputs": [
        {
          "internalType": "address",
          "name": "newImplementation",
          "type": "address"
        }
      ],
      "name": "upgradeTo",
      "outputs": [],
      "stateMutability": "nonpayable",
      "type": "function"
    },
    {
      "inputs": [
        {
          "internalType": "address",
          "name": "newImplementation",
          "type": "address"
        },
        {
          "internalType": "bytes",
          "name": "data",
          "type": "bytes"
        }
      ],
      "name": "upgradeToAndCall",
      "outputs": [],
      "stateMutability": "payable",
      "type": "function"
    }
  ],
  "bytecode": "0x60a06040523073ffffffffffffffffffffffffffffffffffffffff1660809073ffffffffffffffffffffffffffffffffffffffff1681525034801561004357600080fd5b5061005261005760201b60201c565b6101de565b600061006761015b60201b60201c565b90508060000160089054906101000a900460ff16156100b2576040517ff92ee8a900000000000000000000000000000000000000000000000000000000815260040160405180910390fd5b67ffffffffffffffff80168160000160009054906101000a900467ffffffffffffffff1667ffffffffffffffff16146101585767ffffffffffffffff8160000160006101000a81548167ffffffffffffffff021916908367ffffffffffffffff1602179055507fc7f505b2f371ae2175ee4913f4499e1f2633a7b5936321eed1cdaeb6115181d267ffffffffffffffff60405161014f91906101c3565b60405180910390a15b50565b60008061016c61017560201b60201c565b90508091505090565b60007ff0c57e16840df040f15088dc2f81fe391c3923bec73e23a9662efc9c229c6a0060001b905090565b600067ffffffffffffffff82169050919050565b6101bd816101a0565b82525050565b60006020820190506101d860008301846101b4565b92915050565b6080516133a961020760003960008181610e2a01528181610e7f015261103a01526133a96000f3fe60806040526004361061012a5760003560e01c80638dc251e3116100ab578063b18093ea1161006f578063b18093ea1461039b578063b2de5022146103d8578063c4d66de814610415578063d2380f1d1461043e578063d274a43f1461047b578063f2fde38b146104a45761012a565b80638dc251e3146102a257806396cdf411146102cb578063a43e8cfa14610308578063a5bd523514610345578063ad3cb1cc146103705761012a565b80635c60da1b116100f25780635c60da1b146101f35780635c975abb1461021e578063715018a6146102495780638456cb59146102605780638da5cb5b146102775761012a565b80633659cfe61461012f5780633f4ba83a14610158578063498a1c331461016f5780634f1ef286146101ac57806352d1902d146101c8575b600080fd5b34801561013b57600080fd5b5061015660048036038101906101519190611c10565b6104cd565b005b34801561016457600080fd5b5061016d6105b5565b005b34801561017b57600080fd5b5061019660048036038101906101919190612071565b6105c7565b6040516101a391906120dc565b60405180910390f35b6101c660048036038101906101c19190612198565b61064d565b005b3480156101d457600080fd5b506101dd61066c565b6040516101ea919061220d565b60405180910390f35b3480156101ff57600080fd5b5061020861069f565b60405161021591906120dc565b60405180910390f35b34801561022a57600080fd5b506102336106d2565b6040516102409190612243565b60405180910390f35b34801561025557600080fd5b5061025e6106f7565b005b34801561026c57600080fd5b5061027561070b565b005b34801561028357600080fd5b5061028c61071d565b60405161029991906120dc565b60405180910390f35b3480156102ae57600080fd5b506102c960048036038101906102c49190611c10565b610755565b005b3480156102d757600080fd5b506102f260048036038101906102ed919061228a565b6107aa565b6040516102ff91906120dc565b60405180910390f35b34801561031457600080fd5b5061032f600480360381019061032a91906122e6565b6107e3565b60405161033c91906120dc565b60405180910390f35b34801561035157600080fd5b5061035a610865565b60405161036791906120dc565b60405180910390f35b34801561037c57600080fd5b50610385610898565b60405161039291906123ae565b60405180910390f35b3480156103a757600080fd5b506103c260048036038101906103bd919061228a565b6108d1565b6040516103cf91906120dc565b60405180910390f35b3480156103e457600080fd5b506103ff60048036038101906103fa91906123d0565b6108f6565b60405161040c91906120dc565b60405180910390f35b34801561042157600080fd5b5061043c60048036038101906104379190611c10565b61097e565b005b34801561044a57600080fd5b5061046560048036038101906104609190611c10565b610b6d565b6040516104729190612243565b60405180910390f35b34801561048757600080fd5b506104a2600480360381019061049d919061249a565b610bd1565b005b3480156104b057600080fd5b506104cb60048036038101906104c69190611c10565b610c40565b005b6104d5610cc6565b60008173ffffffffffffffffffffffffffffffffffffffff163b0361053157806040517fb9a6ab6400000000000000000000000000000000000000000000000000000000815260040161052891906120dc565b60405180910390fd5b8061053a610d4d565b60010160006101000a81548173ffffffffffffffffffffffffffffffffffffffff021916908373ffffffffffffffffffffffffffffffffffffffff1602179055507f079b6b58f11e5758083fb4e9adbfbee490af256ccca51426658d4349450125f1816040516105aa91906120dc565b60405180910390a150565b6105bd610cc6565b6105c5610d75565b565b60006105d1610de7565b6105da836107e3565b90508073ffffffffffffffffffffffffffffffffffffffff1663bc09e593836040518263ffffffff1660e01b815260040161061591906124f6565b600060405180830381600087803b15801561062f57600080fd5b505af1158015610643573d6000803e3d6000fd5b5050505092915050565b610655610e28565b61065e82610f0e565b6106688282610f19565b5050565b6000610676611038565b7f360894a13ba1a3210667c828492db98dca3e2076cc3735a920a3ca505d382bbc60001b905090565b60006106a9610d4d565b60010160009054906101000a900473ffffffffffffffffffffffffffffffffffffffff16905090565b6000806106dd6110bf565b90508060000160009054906101000a900460ff1691505090565b6106ff610cc6565b61070960006110e7565b565b610713610cc6565b61071b6111be565b565b600080610728611230565b90508060000160009054906101000a900473ffffffffffffffffffffffffffffffffffffffff1691505090565b61075d610cc6565b80610766610d4d565b60020160006101000a81548173ffffffffffffffffffffffffffffffffffffffff021916908373ffffffffffffffffffffffffffffffffffffffff16021790555050565b6000806107c7836060015160000151846060015160200151611258565b90506107da848280519060200120611351565b91505092915050565b60006107ed610de7565b60006107f7611366565b73ffffffffffffffffffffffffffffffffffffffff1660001b9050826060015160000151836060015160200151604051602001610835929190612511565b6040516020818303038152906040528051906020012060001c60001b905061085d818461136e565b915050919050565b600061086f610d4d565b60020160009054906101000a900473ffffffffffffffffffffffffffffffffffffffff16905090565b6040518060400160405280600581526020017f352e302e3000000000000000000000000000000000000000000000000000000081525081565b60006108db610de7565b6108e4836114c7565b6108ee838361136e565b905092915050565b6000610900610de7565b61090a84846108d1565b90508073ffffffffffffffffffffffffffffffffffffffff1663bc09e593836040518263ffffffff1660e01b815260040161094591906124f6565b600060405180830381600087803b15801561095f57600080fd5b505af1158015610973573d6000803e3d6000fd5b505050509392505050565b600061098861157b565b905060008160000160089054906101000a900460ff1615905060008260000160009054906101000a900467ffffffffffffffff1690506000808267ffffffffffffffff161480156109d65750825b9050600060018367ffffffffffffffff16148015610a0b575060003073ffffffffffffffffffffffffffffffffffffffff163b145b905081158015610a19575080155b15610a50576040517ff92ee8a900000000000000000000000000000000000000000000000000000000815260040160405180910390fd5b60018560000160006101000a81548167ffffffffffffffff021916908367ffffffffffffffff1602179055508315610aa05760018560000160086101000a81548160ff0219169083151502179055505b610aa861158f565b610ab186611599565b610ab96115ad565b6000610ac3610d4d565b9050868160020160006101000a81548173ffffffffffffffffffffffffffffffffffffffff021916908373ffffffffffffffffffffffffffffffffffffffff160217905550508315610b655760008560000160086101000a81548160ff0219169083151502179055507fc7f505b2f371ae2175ee4913f4499e1f2633a7b5936321eed1cdaeb6115181d26001604051610b5c919061258d565b60405180910390a15b505050505050565b600080610b78610d4d565b90508060000160008473ffffffffffffffffffffffffffffffffffffffff1673ffffffffffffffffffffffffffffffffffffffff16815260200190815260200160002060009054906101000a900460ff16915050919050565b610bd9610de7565b60005b828290508163ffffffff161015610c3b57610c2983838363ffffffff16818110610c0957610c086125a8565b5b9050602002810190610c1b91906125dc565b610c2490612604565b6107e3565b5080610c3490612656565b9050610bdc565b505050565b610c48610cc6565b600073ffffffffffffffffffffffffffffffffffffffff168173ffffffffffffffffffffffffffffffffffffffff1603610cba5760006040517f1e4fbdf7000000000000000000000000000000000000000000000000000000008152600401610cb191906120dc565b60405180910390fd5b610cc3816110e7565b50565b610cce611366565b73ffffffffffffffffffffffffffffffffffffffff16610cec61071d565b73ffffffffffffffffffffffffffffffffffffffff1614610d4b57610d0f611366565b6040517f118cdaa7000000000000000000000000000000000000000000000000000000008152600401610d4291906120dc565b60405180910390fd5b565b60007fe3ffde652b1592025b57f85d2c64876717f9cdf4e44b57422a295c18d0719a00905090565b610d7d6115b7565b6000610d876110bf565b905060008160000160006101000a81548160ff0219169083151502179055507f5db9ee0a495bf2e6ff9c91a7834c1ba4fdd244a5e8aa4e537bd38aeae4b073aa610dcf611366565b604051610ddc91906120dc565b60405180910390a150565b610def6106d2565b15610e26576040517fd93c066500000000000000000000000000000000000000000000000000000000815260040160405180910390fd5b565b7f000000000000000000000000000000000000000000000000000000000000000073ffffffffffffffffffffffffffffffffffffffff163073ffffffffffffffffffffffffffffffffffffffff161480610ed557507f000000000000000000000000000000000000000000000000000000000000000073ffffffffffffffffffffffffffffffffffffffff16610ebc6115f7565b73ffffffffffffffffffffffffffffffffffffffff1614155b15610f0c576040517fe07c8dba00000000000000000000000000000000000000000000000000000000815260040160405180910390fd5b565b610f16610cc6565b50565b8173ffffffffffffffffffffffffffffffffffffffff166352d1902d6040518163ffffffff1660e01b8152600401602060405180830381865afa925050508015610f8157506040513d601f19601f82011682018060405250810190610f7e9190612697565b60015b610fc257816040517f4c9c8ce3000000000000000000000000000000000000000000000000000000008152600401610fb991906120dc565b60405180910390fd5b7f360894a13ba1a3210667c828492db98dca3e2076cc3735a920a3ca505d382bbc60001b811461102957806040517faa1d49a4000000000000000000000000000000000000000000000000000000008152600401611020919061220d565b60405180910390fd5b611033838361164e565b505050565b7f000000000000000000000000000000000000000000000000000000000000000073ffffffffffffffffffffffffffffffffffffffff163073ffffffffffffffffffffffffffffffffffffffff16146110bd576040517fe07c8dba00000000000000000000000000000000000000000000000000000000815260040160405180910390fd5b565b60007fcd5ed15c6e187e77e9aee88184c21f4f2182ab5827cb3b7e07fbedcd63f03300905090565b60006110f1611230565b905060008160000160009054906101000a900473ffffffffffffffffffffffffffffffffffffffff169050828260000160006101000a81548173ffffffffffffffffffffffffffffffffffffffff021916908373ffffffffffffffffffffffffffffffffffffffff1602179055508273ffffffffffffffffffffffffffffffffffffffff168173ffffffffffffffffffffffffffffffffffffffff167f8be0079c531659141344cd1fd0a4f28419497f9722a3daafe3b4186f6b6457e060405160405180910390a3505050565b6111c6610de7565b60006111d06110bf565b905060018160000160006101000a81548160ff0219169083151502179055507f62e78cea01bee320cd4e420270b5ea74000d11b0c9f74754ebdbfc544b05a258611218611366565b60405161122591906120dc565b60405180910390a150565b60007f9016d09d72d40fdae2fd8ceac6b6234c7706214fd39c1cd1e609a0528c199300905090565b606060003090506000634cd88b7660e01b858560405160240161127c929190612511565b604051602081830303815290604052907bffffffffffffffffffffffffffffffffffffffffffffffffffffffff19166020820180517bffffffffffffffffffffffffffffffffffffffffffffffffffffffff838183161783525050505090506000604051806020016112ed90611b91565b6020820181038252601f19601f820116604052508383604051602001611314929190612719565b604051602081830303815290604052604051602001611334929190612785565b604051602081830303815290604052905080935050505092915050565b600061135e8383306116c1565b905092915050565b600033905090565b600080611379610d4d565b90506000611397846060015160000151856060015160200151611258565b90506113a560008683611702565b925060018260000160008573ffffffffffffffffffffffffffffffffffffffff1673ffffffffffffffffffffffffffffffffffffffff16815260200190815260200160002060006101000a81548160ff0219169083151502179055508273ffffffffffffffffffffffffffffffffffffffff16631e4cd0b485600001518660400151876020015188606001516040518563ffffffff1660e01b81526004016114509493929190612931565b600060405180830381600087803b15801561146a57600080fd5b505af115801561147e573d6000803e3d6000fd5b505050507fac1baa76250109980b8de5e2b9fcb185acd2bd5127c85c3e83cc05fb3aae5df88385606001516040516114b792919061298b565b60405180910390a1505092915050565b6000801b8103611503576040517f89a3077800000000000000000000000000000000000000000000000000000000815260040160405180910390fd5b60008160601c9050611513611366565b73ffffffffffffffffffffffffffffffffffffffff168173ffffffffffffffffffffffffffffffffffffffff1614611577576040517f89a3077800000000000000000000000000000000000000000000000000000000815260040160405180910390fd5b5050565b600080611586611815565b90508091505090565b611597611840565b565b6115a1611840565b6115aa81611880565b50565b6115b5611840565b565b6115bf6106d2565b6115f5576040517f8dfc202b00000000000000000000000000000000000000000000000000000000815260040160405180910390fd5b565b60006116257f360894a13ba1a3210667c828492db98dca3e2076cc3735a920a3ca505d382bbc60001b611906565b60000160009054906101000a900473ffffffffffffffffffffffffffffffffffffffff16905090565b61165782611910565b8173ffffffffffffffffffffffffffffffffffffffff167fbc7cd75a20ee27fd9adebab32041f755214dbc6bffa90cc0225b39da2e5c2d3b60405160405180910390a26000815111156116b4576116ae82826119dd565b506116bd565b6116bc611a61565b5b5050565b6000604051836040820152846020820152828152600b810160ff815373ffffffffffffffffffffffffffffffffffffffff6055822016925050509392505050565b60008347101561174b5747846040517fcf4791810000000000000000000000000000000000000000000000000000000081526004016117429291906129d4565b60405180910390fd5b6000825103611786576040517f4ca249dc00000000000000000000000000000000000000000000000000000000815260040160405180910390fd5b8282516020840186f590503d1519811516156117a8576040513d6000823e3d81fd5b600073ffffffffffffffffffffffffffffffffffffffff168173ffffffffffffffffffffffffffffffffffffffff160361180e576040517fb06ebf3d00000000000000000000000000000000000000000000000000000000815260040160405180910390fd5b9392505050565b60007ff0c57e16840df040f15088dc2f81fe391c3923bec73e23a9662efc9c229c6a0060001b905090565b611848611a9e565b61187e576040517fd7e6bcf800000000000000000000000000000000000000000000000000000000815260040160405180910390fd5b565b611888611840565b600073ffffffffffffffffffffffffffffffffffffffff168173ffffffffffffffffffffffffffffffffffffffff16036118fa5760006040517f1e4fbdf70000000000000000000000000000000000000000000000000000000081526004016118f191906120dc565b60405180910390fd5b611903816110e7565b50565b6000819050919050565b60008173ffffffffffffffffffffffffffffffffffffffff163b0361196c57806040517f4c9c8ce300000000000000000000000000000000000000000000000000000000815260040161196391906120dc565b60405180910390fd5b806119997f360894a13ba1a3210667c828492db98dca3e2076cc3735a920a3ca505d382bbc60001b611906565b60000160006101000a81548173ffffffffffffffffffffffffffffffffffffffff021916908373ffffffffffffffffffffffffffffffffffffffff16021790555050565b60606000808473ffffffffffffffffffffffffffffffffffffffff1684604051611a0791906129fd565b600060405180830381855af49150503d8060008114611a42576040519150601f19603f3d011682016040523d82523d6000602084013e611a47565b606091505b5091509150611a57858383611abe565b9250505092915050565b6000341115611a9c576040517fb398979f00000000000000000000000000000000000000000000000000000000815260040160405180910390fd5b565b6000611aa861157b565b60000160089054906101000a900460ff16905090565b606082611ad357611ace82611b4d565b611b45565b60008251148015611afb575060008473ffffffffffffffffffffffffffffffffffffffff163b145b15611b3d57836040517f9996b315000000000000000000000000000000000000000000000000000000008152600401611b3491906120dc565b60405180910390fd5b819050611b46565b5b9392505050565b600081511115611b5f57805160208201fd5b6040517fd6bda27500000000000000000000000000000000000000000000000000000000815260040160405180910390fd5b61095f80612a1583390190565b6000604051905090565b600080fd5b600080fd5b600073ffffffffffffffffffffffffffffffffffffffff82169050919050565b6000611bdd82611bb2565b9050919050565b611bed81611bd2565b8114611bf857600080fd5b50565b600081359050611c0a81611be4565b92915050565b600060208284031215611c2657611c25611ba8565b5b6000611c3484828501611bfb565b91505092915050565b600080fd5b6000601f19601f8301169050919050565b7f4e487b7100000000000000000000000000000000000000000000000000000000600052604160045260246000fd5b611c8b82611c42565b810181811067ffffffffffffffff82111715611caa57611ca9611c53565b5b80604052505050565b6000611cbd611b9e565b9050611cc98282611c82565b919050565b600080fd5b600080fd5b600067ffffffffffffffff821115611cf357611cf2611c53565b5b602082029050602081019050919050565b600080fd5b6000611d1c611d1784611cd8565b611cb3565b90508083825260208201905060208402830185811115611d3f57611d3e611d04565b5b835b81811015611d685780611d548882611bfb565b845260208401935050602081019050611d41565b5050509392505050565b600082601f830112611d8757611d86611cd3565b5b8135611d97848260208601611d09565b91505092915050565b600080fd5b600067ffffffffffffffff821115611dc057611dbf611c53565b5b611dc982611c42565b9050602081019050919050565b82818337600083830152505050565b6000611df8611df384611da5565b611cb3565b905082815260208101848484011115611e1457611e13611da0565b5b611e1f848285611dd6565b509392505050565b600082601f830112611e3c57611e3b611cd3565b5b8135611e4c848260208601611de5565b91505092915050565b600067ffffffffffffffff82169050919050565b611e7281611e55565b8114611e7d57600080fd5b50565b600081359050611e8f81611e69565b92915050565b600060808284031215611eab57611eaa611c3d565b5b611eb56080611cb3565b9050600082013567ffffffffffffffff811115611ed557611ed4611cce565b5b611ee184828501611e27565b600083015250602082013567ffffffffffffffff811115611f0557611f04611cce565b5b611f1184828501611e27565b602083015250604082013567ffffffffffffffff811115611f3557611f34611cce565b5b611f4184828501611e27565b6040830152506060611f5584828501611e80565b60608301525092915050565b600060808284031215611f7757611f76611c3d565b5b611f816080611cb3565b90506000611f9184828501611bfb565b600083015250602082013567ffffffffffffffff811115611fb557611fb4611cce565b5b611fc184828501611d72565b602083015250604082013567ffffffffffffffff811115611fe557611fe4611cce565b5b611ff184828501611d72565b604083015250606082013567ffffffffffffffff81111561201557612014611cce565b5b61202184828501611e95565b60608301525092915050565b60006bffffffffffffffffffffffff82169050919050565b61204e8161202d565b811461205957600080fd5b50565b60008135905061206b81612045565b92915050565b6000806040838503121561208857612087611ba8565b5b600083013567ffffffffffffffff8111156120a6576120a5611bad565b5b6120b285828601611f61565b92505060206120c38582860161205c565b9150509250929050565b6120d681611bd2565b82525050565b60006020820190506120f160008301846120cd565b92915050565b600067ffffffffffffffff82111561211257612111611c53565b5b61211b82611c42565b9050602081019050919050565b600061213b612136846120f7565b611cb3565b90508281526020810184848401111561215757612156611da0565b5b612162848285611dd6565b509392505050565b600082601f83011261217f5761217e611cd3565b5b813561218f848260208601612128565b91505092915050565b600080604083850312156121af576121ae611ba8565b5b60006121bd85828601611bfb565b925050602083013567ffffffffffffffff8111156121de576121dd611bad565b5b6121ea8582860161216a565b9150509250929050565b6000819050919050565b612207816121f4565b82525050565b600060208201905061222260008301846121fe565b92915050565b60008115159050919050565b61223d81612228565b82525050565b60006020820190506122586000830184612234565b92915050565b612267816121f4565b811461227257600080fd5b50565b6000813590506122848161225e565b92915050565b600080604083850312156122a1576122a0611ba8565b5b60006122af85828601612275565b925050602083013567ffffffffffffffff8111156122d0576122cf611bad565b5b6122dc85828601611f61565b9150509250929050565b6000602082840312156122fc576122fb611ba8565b5b600082013567ffffffffffffffff81111561231a57612319611bad565b5b61232684828501611f61565b91505092915050565b600081519050919050565b600082825260208201905092915050565b60005b8381101561236957808201518184015260208101905061234e565b60008484015250505050565b60006123808261232f565b61238a818561233a565b935061239a81856020860161234b565b6123a381611c42565b840191505092915050565b600060208201905081810360008301526123c88184612375565b905092915050565b6000806000606084860312156123e9576123e8611ba8565b5b60006123f786828701612275565b935050602084013567ffffffffffffffff81111561241857612417611bad565b5b61242486828701611f61565b92505060406124358682870161205c565b9150509250925092565b600080fd5b60008083601f84011261245a57612459611cd3565b5b8235905067ffffffffffffffff8111156124775761247661243f565b5b60208301915083602082028301111561249357612492611d04565b5b9250929050565b600080602083850312156124b1576124b0611ba8565b5b600083013567ffffffffffffffff8111156124cf576124ce611bad565b5b6124db85828601612444565b92509250509250929050565b6124f08161202d565b82525050565b600060208201905061250b60008301846124e7565b92915050565b6000604082019050818103600083015261252b8185612375565b9050818103602083015261253f8184612375565b90509392505050565b6000819050919050565b6000819050919050565b600061257761257261256d84612548565b612552565b611e55565b9050919050565b6125878161255c565b82525050565b60006020820190506125a2600083018461257e565b92915050565b7f4e487b7100000000000000000000000000000000000000000000000000000000600052603260045260246000fd5b600080fd5b6000823560016080038336030381126125f8576125f76125d7565b5b80830191505092915050565b60006126103683611f61565b9050919050565b7f4e487b7100000000000000000000000000000000000000000000000000000000600052601160045260246000fd5b600063ffffffff82169050919050565b600061266182612646565b915063ffffffff820361267757612676612617565b5b600182019050919050565b6000815190506126918161225e565b92915050565b6000602082840312156126ad576126ac611ba8565b5b60006126bb84828501612682565b91505092915050565b600081519050919050565b600082825260208201905092915050565b60006126eb826126c4565b6126f581856126cf565b935061270581856020860161234b565b61270e81611c42565b840191505092915050565b600060408201905061272e60008301856120cd565b818103602083015261274081846126e0565b90509392505050565b600081905092915050565b600061275f826126c4565b6127698185612749565b935061277981856020860161234b565b80840191505092915050565b60006127918285612754565b915061279d8284612754565b91508190509392505050565b600081519050919050565b600082825260208201905092915050565b6000819050602082019050919050565b6127de81611bd2565b82525050565b60006127f083836127d5565b60208301905092915050565b6000602082019050919050565b6000612814826127a9565b61281e81856127b4565b9350612829836127c5565b8060005b8381101561285a57815161284188826127e4565b975061284c836127fc565b92505060018101905061282d565b5085935050505092915050565b600082825260208201905092915050565b60006128838261232f565b61288d8185612867565b935061289d81856020860161234b565b6128a681611c42565b840191505092915050565b6128ba81611e55565b82525050565b600060808301600083015184820360008601526128dd8282612878565b915050602083015184820360208601526128f78282612878565b915050604083015184820360408601526129118282612878565b915050606083015161292660608601826128b1565b508091505092915050565b600060808201905061294660008301876120cd565b81810360208301526129588186612809565b9050818103604083015261296c8185612809565b9050818103606083015261298081846128c0565b905095945050505050565b60006040820190506129a060008301856120cd565b81810360208301526129b281846128c0565b90509392505050565b6000819050919050565b6129ce816129bb565b82525050565b60006040820190506129e960008301856129c5565b6129f660208301846129c5565b9392505050565b6000612a098284612754565b91508190509291505056fe60a060405260405161095f38038061095f83398181016040528101906100259190610683565b610035828261007060201b60201c565b8173ffffffffffffffffffffffffffffffffffffffff1660808173ffffffffffffffffffffffffffffffffffffffff16815250505050610794565b61007f8261016360201b60201c565b8173ffffffffffffffffffffffffffffffffffffffff167f1cf3b03a6cf19fa2baba4df148e9dcabedea7f8a5c07840e207e5c089be95d3e60405160405180910390a26000815111156101505761014a8273ffffffffffffffffffffffffffffffffffffffff16635c60da1b6040518163ffffffff1660e01b8152600401602060405180830381865afa15801561011a573d6000803e3d6000fd5b505050506040513d601f19601f8201168201806040525081019061013e91906106df565b8261030660201b60201c565b5061015f565b61015e61039060201b60201c565b5b5050565b60008173ffffffffffffffffffffffffffffffffffffffff163b036101bf57806040517f64ced0ec0000000000000000000000000000000000000000000000000000000081526004016101b6919061071b565b60405180910390fd5b806101f27fa3f0ad74e5423aebfd80d3ef4346578335a9a72aeaee59ff6cb3582b35133d5060001b6103cd60201b60201c565b60000160006101000a81548173ffffffffffffffffffffffffffffffffffffffff021916908373ffffffffffffffffffffffffffffffffffffffff16021790555060008173ffffffffffffffffffffffffffffffffffffffff16635c60da1b6040518163ffffffff1660e01b8152600401602060405180830381865afa158015610280573d6000803e3d6000fd5b505050506040513d601f19601f820116820180604052508101906102a491906106df565b905060008173ffffffffffffffffffffffffffffffffffffffff163b0361030257806040517f4c9c8ce30000000000000000000000000000000000000000000000000000000081526004016102f9919061071b565b60405180910390fd5b5050565b60606000808473ffffffffffffffffffffffffffffffffffffffff1684604051610330919061077d565b600060405180830381855af49150503d806000811461036b576040519150601f19603f3d011682016040523d82523d6000602084013e610370565b606091505b50915091506103868583836103d760201b60201c565b9250505092915050565b60003411156103cb576040517fb398979f00000000000000000000000000000000000000000000000000000000815260040160405180910390fd5b565b6000819050919050565b6060826103f2576103ed8261046c60201b60201c565b610464565b6000825114801561041a575060008473ffffffffffffffffffffffffffffffffffffffff163b145b1561045c57836040517f9996b315000000000000000000000000000000000000000000000000000000008152600401610453919061071b565b60405180910390fd5b819050610465565b5b9392505050565b60008151111561047e57805160208201fd5b6040517fd6bda27500000000000000000000000000000000000000000000000000000000815260040160405180910390fd5b6000604051905090565b600080fd5b600080fd5b600073ffffffffffffffffffffffffffffffffffffffff82169050919050565b60006104ef826104c4565b9050919050565b6104ff816104e4565b811461050a57600080fd5b50565b60008151905061051c816104f6565b92915050565b600080fd5b600080fd5b6000601f19601f8301169050919050565b7f4e487b7100000000000000000000000000000000000000000000000000000000600052604160045260246000fd5b6105758261052c565b810181811067ffffffffffffffff821117156105945761059361053d565b5b80604052505050565b60006105a76104b0565b90506105b3828261056c565b919050565b600067ffffffffffffffff8211156105d3576105d261053d565b5b6105dc8261052c565b9050602081019050919050565b60005b838110156106075780820151818401526020810190506105ec565b60008484015250505050565b6000610626610621846105b8565b61059d565b90508281526020810184848401111561064257610641610527565b5b61064d8482856105e9565b509392505050565b600082601f83011261066a57610669610522565b5b815161067a848260208601610613565b91505092915050565b6000806040838503121561069a576106996104ba565b5b60006106a88582860161050d565b925050602083015167ffffffffffffffff8111156106c9576106c86104bf565b5b6106d585828601610655565b9150509250929050565b6000602082840312156106f5576106f46104ba565b5b60006107038482850161050d565b91505092915050565b610715816104e4565b82525050565b6000602082019050610730600083018461070c565b92915050565b600081519050919050565b600081905092915050565b600061075782610736565b6107618185610741565b93506107718185602086016105e9565b80840191505092915050565b6000610789828461074c565b915081905092915050565b6080516101b16107ae600039600060c701526101b16000f3fe608060405261000c61000e565b005b61001e610019610020565b61009d565b565b600061002a6100c3565b73ffffffffffffffffffffffffffffffffffffffff16635c60da1b6040518163ffffffff1660e01b8152600401602060405180830381865afa158015610074573d6000803e3d6000fd5b505050506040513d601f19601f82011682018060405250810190610098919061014e565b905090565b3660008037600080366000845af43d6000803e80600081146100be573d6000f35b3d6000fd5b60007f0000000000000000000000000000000000000000000000000000000000000000905090565b600080fd5b600073ffffffffffffffffffffffffffffffffffffffff82169050919050565b600061011b826100f0565b9050919050565b61012b81610110565b811461013657600080fd5b50565b60008151905061014881610122565b92915050565b600060208284031215610164576101636100eb565b5b600061017284828501610139565b9150509291505056fea2646970667358221220b6cffd5e8865f5cde3a0fcea2d237a44c9b3cc4ba526d0c535f3119307fe533d64736f6c634300081c0033a264697066735822122044d634f95ba4a520e33b26379eb1cc4d9b362bb7853ca9bdd368a7ebfdc7739164736f6c634300081c0033",
  "linkReferences": {},
  "deployedLinkReferences": {}
}