{
  "_format": "hh-sol-artifact-1",
  "contractName": "LikeProtocolV0",
  "sourceName": "contracts/LikeProtocolV0.sol",
  "abi": [
    {
      "inputs": [],
      "stateMutability": "nonpayable",
      "type": "constructor"
    },
    {
      "inputs": [
        {
          "internalType": "address",
          "name": "target",
          "type": "address"
        }
      ],
      "name": "AddressEmptyCode",
      "type": "error"
    },
    {
      "inputs": [
        {
          "internalType": "address",
          "name": "implementation",
          "type": "address"
        }
      ],
      "name": "ERC1967InvalidImplementation",
      "type": "error"
    },
    {
      "inputs": [],
      "name": "ERC1967NonPayable",
      "type": "error"
    },
    {
      "inputs": [],
      "name": "EnforcedPause",
      "type": "error"
    },
    {
      "inputs": [],
      "name": "ExpectedPause",
      "type": "error"
    },
    {
      "inputs": [],
      "name": "FailedCall",
      "type": "error"
    },
    {
      "inputs": [],
      "name": "InvalidInitialization",
      "type": "error"
    },
    {
      "inputs": [],
      "name": "NotInitializing",
      "type": "error"
    },
    {
      "inputs": [
        {
          "internalType": "address",
          "name": "owner",
          "type": "address"
        }
      ],
      "name": "OwnableInvalidOwner",
      "type": "error"
    },
    {
      "inputs": [
        {
          "internalType": "address",
          "name": "account",
          "type": "address"
        }
      ],
      "name": "OwnableUnauthorizedAccount",
      "type": "error"
    },
    {
      "inputs": [],
      "name": "UUPSUnauthorizedCallContext",
      "type": "error"
    },
    {
      "inputs": [
        {
          "internalType": "bytes32",
          "name": "slot",
          "type": "bytes32"
        }
      ],
      "name": "UUPSUnsupportedProxiableUUID",
      "type": "error"
    },
    {
      "anonymous": false,
      "inputs": [
        {
          "indexed": false,
          "internalType": "uint64",
          "name": "version",
          "type": "uint64"
        }
      ],
      "name": "Initialized",
      "type": "event"
    },
    {
      "anonymous": false,
      "inputs": [
        {
          "indexed": true,
          "internalType": "address",
          "name": "previousOwner",
          "type": "address"
        },
        {
          "indexed": true,
          "internalType": "address",
          "name": "newOwner",
          "type": "address"
        }
      ],
      "name": "OwnershipTransferred",
      "type": "event"
    },
    {
      "anonymous": false,
      "inputs": [
        {
          "indexed": false,
          "internalType": "address",
          "name": "account",
          "type": "address"
        }
      ],
      "name": "Paused",
      "type": "event"
    },
    {
      "anonymous": false,
      "inputs": [
        {
          "indexed": false,
          "internalType": "address",
          "name": "account",
          "type": "address"
        }
      ],
      "name": "Unpaused",
      "type": "event"
    },
    {
      "anonymous": false,
      "inputs": [
        {
          "indexed": true,
          "internalType": "address",
          "name": "implementation",
          "type": "address"
        }
      ],
      "name": "Upgraded",
      "type": "event"
    },
    {
      "inputs": [],
      "name": "UPGRADE_INTERFACE_VERSION",
      "outputs": [
        {
          "internalType": "string",
          "name": "",
          "type": "string"
        }
      ],
      "stateMutability": "view",
      "type": "function"
    },
    {
      "inputs": [],
      "name": "implementation",
      "outputs": [
        {
          "internalType": "address",
          "name": "",
          "type": "address"
        }
      ],
      "stateMutability": "pure",
      "type": "function"
    },
    {
      "inputs": [
        {
          "internalType": "address",
          "name": "initialOwner",
          "type": "address"
        }
      ],
      "name": "initialize",
      "outputs": [],
      "stateMutability": "nonpayable",
      "type": "function"
    },
    {
      "inputs": [],
      "name": "owner",
      "outputs": [
        {
          "internalType": "address",
          "name": "",
          "type": "address"
        }
      ],
      "stateMutability": "view",
      "type": "function"
    },
    {
      "inputs": [],
      "name": "pause",
      "outputs": [],
      "stateMutability": "nonpayable",
      "type": "function"
    },
    {
      "inputs": [],
      "name": "paused",
      "outputs": [
        {
          "internalType": "bool",
          "name": "",
          "type": "bool"
        }
      ],
      "stateMutability": "view",
      "type": "function"
    },
    {
      "inputs": [],
      "name": "proxiableUUID",
      "outputs": [
        {
          "internalType": "bytes32",
          "name": "",
          "type": "bytes32"
        }
      ],
      "stateMutability": "view",
      "type": "function"
    },
    {
      "inputs": [],
      "name": "renounceOwnership",
      "outputs": [],
      "stateMutability": "nonpayable",
      "type": "function"
    },
    {
      "inputs": [
        {
          "internalType": "address",
          "name": "newOwner",
          "type": "address"
        }
      ],
      "name": "transferOwnership",
      "outputs": [],
      "stateMutability": "nonpayable",
      "type": "function"
    },
    {
      "inputs": [],
      "name": "unpause",
      "outputs": [],
      "stateMutability": "nonpayable",
      "type": "function"
    },
    {
      "inputs": [
        {
          "internalType": "address",
          "name": "",
          "type": "address"
        }
      ],
      "name": "upgradeTo",
      "outputs": [],
      "stateMutability": "nonpayable",
      "type": "function"
    },
    {
      "inputs": [
        {
          "internalType": "address",
          "name": "newImplementation",
          "type": "address"
        },
        {
          "internalType": "bytes",
          "name": "data",
          "type": "bytes"
        }
      ],
      "name": "upgradeToAndCall",
      "outputs": [],
      "stateMutability": "payable",
      "type": "function"
    }
  ],
  "bytecode": "0x60a06040523073ffffffffffffffffffffffffffffffffffffffff1660809073ffffffffffffffffffffffffffffffffffffffff1681525034801561004357600080fd5b5061005261005760201b60201c565b6101de565b600061006761015b60201b60201c565b90508060000160089054906101000a900460ff16156100b2576040517ff92ee8a900000000000000000000000000000000000000000000000000000000815260040160405180910390fd5b67ffffffffffffffff80168160000160009054906101000a900467ffffffffffffffff1667ffffffffffffffff16146101585767ffffffffffffffff8160000160006101000a81548167ffffffffffffffff021916908367ffffffffffffffff1602179055507fc7f505b2f371ae2175ee4913f4499e1f2633a7b5936321eed1cdaeb6115181d267ffffffffffffffff60405161014f91906101c3565b60405180910390a15b50565b60008061016c61017560201b60201c565b90508091505090565b60007ff0c57e16840df040f15088dc2f81fe391c3923bec73e23a9662efc9c229c6a0060001b905090565b600067ffffffffffffffff82169050919050565b6101bd816101a0565b82525050565b60006020820190506101d860008301846101b4565b92915050565b6080516114bf610207600039600081816106af0152818161070401526108bf01526114bf6000f3fe6080604052600436106100a75760003560e01c8063715018a611610064578063715018a6146101895780638456cb59146101a05780638da5cb5b146101b7578063ad3cb1cc146101e2578063c4d66de81461020d578063f2fde38b14610236576100a7565b80633659cfe6146100ac5780633f4ba83a146100d55780634f1ef286146100ec57806352d1902d146101085780635c60da1b146101335780635c975abb1461015e575b600080fd5b3480156100b857600080fd5b506100d360048036038101906100ce919061105a565b61025f565b005b3480156100e157600080fd5b506100ea61026a565b005b610106600480360381019061010191906111cd565b61027c565b005b34801561011457600080fd5b5061011d61029b565b60405161012a9190611242565b60405180910390f35b34801561013f57600080fd5b506101486102ce565b604051610155919061126c565b60405180910390f35b34801561016a57600080fd5b506101736102d3565b60405161018091906112a2565b60405180910390f35b34801561019557600080fd5b5061019e6102f8565b005b3480156101ac57600080fd5b506101b561030c565b005b3480156101c357600080fd5b506101cc61031e565b6040516101d9919061126c565b60405180910390f35b3480156101ee57600080fd5b506101f7610356565b604051610204919061133c565b60405180910390f35b34801561021957600080fd5b50610234600480360381019061022f919061105a565b61038f565b005b34801561024257600080fd5b5061025d6004803603810190610258919061105a565b61052e565b005b6102676105b4565b50565b6102726105b4565b61027a61063b565b565b6102846106ad565b61028d82610793565b610297828261079e565b5050565b60006102a56108bd565b7f360894a13ba1a3210667c828492db98dca3e2076cc3735a920a3ca505d382bbc60001b905090565b600090565b6000806102de610944565b90508060000160009054906101000a900460ff1691505090565b6103006105b4565b61030a600061096c565b565b6103146105b4565b61031c610a43565b565b600080610329610ab5565b90508060000160009054906101000a900473ffffffffffffffffffffffffffffffffffffffff1691505090565b6040518060400160405280600581526020017f352e302e3000000000000000000000000000000000000000000000000000000081525081565b6000610399610add565b905060008160000160089054906101000a900460ff1615905060008260000160009054906101000a900467ffffffffffffffff1690506000808267ffffffffffffffff161480156103e75750825b9050600060018367ffffffffffffffff1614801561041c575060003073ffffffffffffffffffffffffffffffffffffffff163b145b90508115801561042a575080155b15610461576040517ff92ee8a900000000000000000000000000000000000000000000000000000000815260040160405180910390fd5b60018560000160006101000a81548167ffffffffffffffff021916908367ffffffffffffffff16021790555083156104b15760018560000160086101000a81548160ff0219169083151502179055505b6104b9610af1565b6104c286610afb565b6104ca610b0f565b83156105265760008560000160086101000a81548160ff0219169083151502179055507fc7f505b2f371ae2175ee4913f4499e1f2633a7b5936321eed1cdaeb6115181d2600160405161051d91906113b7565b60405180910390a15b505050505050565b6105366105b4565b600073ffffffffffffffffffffffffffffffffffffffff168173ffffffffffffffffffffffffffffffffffffffff16036105a85760006040517f1e4fbdf700000000000000000000000000000000000000000000000000000000815260040161059f919061126c565b60405180910390fd5b6105b18161096c565b50565b6105bc610b19565b73ffffffffffffffffffffffffffffffffffffffff166105da61031e565b73ffffffffffffffffffffffffffffffffffffffff1614610639576105fd610b19565b6040517f118cdaa7000000000000000000000000000000000000000000000000000000008152600401610630919061126c565b60405180910390fd5b565b610643610b21565b600061064d610944565b905060008160000160006101000a81548160ff0219169083151502179055507f5db9ee0a495bf2e6ff9c91a7834c1ba4fdd244a5e8aa4e537bd38aeae4b073aa610695610b19565b6040516106a2919061126c565b60405180910390a150565b7f000000000000000000000000000000000000000000000000000000000000000073ffffffffffffffffffffffffffffffffffffffff163073ffffffffffffffffffffffffffffffffffffffff16148061075a57507f000000000000000000000000000000000000000000000000000000000000000073ffffffffffffffffffffffffffffffffffffffff16610741610b61565b73ffffffffffffffffffffffffffffffffffffffff1614155b15610791576040517fe07c8dba00000000000000000000000000000000000000000000000000000000815260040160405180910390fd5b565b61079b6105b4565b50565b8173ffffffffffffffffffffffffffffffffffffffff166352d1902d6040518163ffffffff1660e01b8152600401602060405180830381865afa92505050801561080657506040513d601f19601f8201168201806040525081019061080391906113fe565b60015b61084757816040517f4c9c8ce300000000000000000000000000000000000000000000000000000000815260040161083e919061126c565b60405180910390fd5b7f360894a13ba1a3210667c828492db98dca3e2076cc3735a920a3ca505d382bbc60001b81146108ae57806040517faa1d49a40000000000000000000000000000000000000000000000000000000081526004016108a59190611242565b60405180910390fd5b6108b88383610bb8565b505050565b7f000000000000000000000000000000000000000000000000000000000000000073ffffffffffffffffffffffffffffffffffffffff163073ffffffffffffffffffffffffffffffffffffffff1614610942576040517fe07c8dba00000000000000000000000000000000000000000000000000000000815260040160405180910390fd5b565b60007fcd5ed15c6e187e77e9aee88184c21f4f2182ab5827cb3b7e07fbedcd63f03300905090565b6000610976610ab5565b905060008160000160009054906101000a900473ffffffffffffffffffffffffffffffffffffffff169050828260000160006101000a81548173ffffffffffffffffffffffffffffffffffffffff021916908373ffffffffffffffffffffffffffffffffffffffff1602179055508273ffffffffffffffffffffffffffffffffffffffff168173ffffffffffffffffffffffffffffffffffffffff167f8be0079c531659141344cd1fd0a4f28419497f9722a3daafe3b4186f6b6457e060405160405180910390a3505050565b610a4b610c2b565b6000610a55610944565b905060018160000160006101000a81548160ff0219169083151502179055507f62e78cea01bee320cd4e420270b5ea74000d11b0c9f74754ebdbfc544b05a258610a9d610b19565b604051610aaa919061126c565b60405180910390a150565b60007f9016d09d72d40fdae2fd8ceac6b6234c7706214fd39c1cd1e609a0528c199300905090565b600080610ae8610c6c565b90508091505090565b610af9610c97565b565b610b03610c97565b610b0c81610cd7565b50565b610b17610c97565b565b600033905090565b610b296102d3565b610b5f576040517f8dfc202b00000000000000000000000000000000000000000000000000000000815260040160405180910390fd5b565b6000610b8f7f360894a13ba1a3210667c828492db98dca3e2076cc3735a920a3ca505d382bbc60001b610d5d565b60000160009054906101000a900473ffffffffffffffffffffffffffffffffffffffff16905090565b610bc182610d67565b8173ffffffffffffffffffffffffffffffffffffffff167fbc7cd75a20ee27fd9adebab32041f755214dbc6bffa90cc0225b39da2e5c2d3b60405160405180910390a2600081511115610c1e57610c188282610e34565b50610c27565b610c26610eb8565b5b5050565b610c336102d3565b15610c6a576040517fd93c066500000000000000000000000000000000000000000000000000000000815260040160405180910390fd5b565b60007ff0c57e16840df040f15088dc2f81fe391c3923bec73e23a9662efc9c229c6a0060001b905090565b610c9f610ef5565b610cd5576040517fd7e6bcf800000000000000000000000000000000000000000000000000000000815260040160405180910390fd5b565b610cdf610c97565b600073ffffffffffffffffffffffffffffffffffffffff168173ffffffffffffffffffffffffffffffffffffffff1603610d515760006040517f1e4fbdf7000000000000000000000000000000000000000000000000000000008152600401610d48919061126c565b60405180910390fd5b610d5a8161096c565b50565b6000819050919050565b60008173ffffffffffffffffffffffffffffffffffffffff163b03610dc357806040517f4c9c8ce3000000000000000000000000000000000000000000000000000000008152600401610dba919061126c565b60405180910390fd5b80610df07f360894a13ba1a3210667c828492db98dca3e2076cc3735a920a3ca505d382bbc60001b610d5d565b60000160006101000a81548173ffffffffffffffffffffffffffffffffffffffff021916908373ffffffffffffffffffffffffffffffffffffffff16021790555050565b60606000808473ffffffffffffffffffffffffffffffffffffffff1684604051610e5e9190611472565b600060405180830381855af49150503d8060008114610e99576040519150601f19603f3d011682016040523d82523d6000602084013e610e9e565b606091505b5091509150610eae858383610f15565b9250505092915050565b6000341115610ef3576040517fb398979f00000000000000000000000000000000000000000000000000000000815260040160405180910390fd5b565b6000610eff610add565b60000160089054906101000a900460ff16905090565b606082610f2a57610f2582610fa4565b610f9c565b60008251148015610f52575060008473ffffffffffffffffffffffffffffffffffffffff163b145b15610f9457836040517f9996b315000000000000000000000000000000000000000000000000000000008152600401610f8b919061126c565b60405180910390fd5b819050610f9d565b5b9392505050565b600081511115610fb657805160208201fd5b6040517fd6bda27500000000000000000000000000000000000000000000000000000000815260040160405180910390fd5b6000604051905090565b600080fd5b600080fd5b600073ffffffffffffffffffffffffffffffffffffffff82169050919050565b600061102782610ffc565b9050919050565b6110378161101c565b811461104257600080fd5b50565b6000813590506110548161102e565b92915050565b6000602082840312156110705761106f610ff2565b5b600061107e84828501611045565b91505092915050565b600080fd5b600080fd5b6000601f19601f8301169050919050565b7f4e487b7100000000000000000000000000000000000000000000000000000000600052604160045260246000fd5b6110da82611091565b810181811067ffffffffffffffff821117156110f9576110f86110a2565b5b80604052505050565b600061110c610fe8565b905061111882826110d1565b919050565b600067ffffffffffffffff821115611138576111376110a2565b5b61114182611091565b9050602081019050919050565b82818337600083830152505050565b600061117061116b8461111d565b611102565b90508281526020810184848401111561118c5761118b61108c565b5b61119784828561114e565b509392505050565b600082601f8301126111b4576111b3611087565b5b81356111c484826020860161115d565b91505092915050565b600080604083850312156111e4576111e3610ff2565b5b60006111f285828601611045565b925050602083013567ffffffffffffffff81111561121357611212610ff7565b5b61121f8582860161119f565b9150509250929050565b6000819050919050565b61123c81611229565b82525050565b60006020820190506112576000830184611233565b92915050565b6112668161101c565b82525050565b6000602082019050611281600083018461125d565b92915050565b60008115159050919050565b61129c81611287565b82525050565b60006020820190506112b76000830184611293565b92915050565b600081519050919050565b600082825260208201905092915050565b60005b838110156112f75780820151818401526020810190506112dc565b60008484015250505050565b600061130e826112bd565b61131881856112c8565b93506113288185602086016112d9565b61133181611091565b840191505092915050565b600060208201905081810360008301526113568184611303565b905092915050565b6000819050919050565b600067ffffffffffffffff82169050919050565b6000819050919050565b60006113a161139c6113978461135e565b61137c565b611368565b9050919050565b6113b181611386565b82525050565b60006020820190506113cc60008301846113a8565b92915050565b6113db81611229565b81146113e657600080fd5b50565b6000815190506113f8816113d2565b92915050565b60006020828403121561141457611413610ff2565b5b6000611422848285016113e9565b91505092915050565b600081519050919050565b600081905092915050565b600061144c8261142b565b6114568185611436565b93506114668185602086016112d9565b80840191505092915050565b600061147e8284611441565b91508190509291505056fea2646970667358221220c979077c5c837243eb1ebc66df59d52ee5d29098e851a812be54fd2884ae360a64736f6c634300081c0033",
  "linkReferences": {},
  "deployedLinkReferences": {}
}