{
  "_format": "hh-sol-artifact-1",
  "contractName": "veLikeRewardNoLock",
  "sourceName": "contracts/veLikeRewardNoLockV2P2.sol",
  "abi": [
    {
      "inputs": [],
      "stateMutability": "nonpayable",
      "type": "constructor"
    },
    {
      "inputs": [
        {
          "internalType": "address",
          "name": "target",
          "type": "address"
        }
      ],
      "name": "AddressEmptyCode",
      "type": "error"
    },
    {
      "inputs": [
        {
          "internalType": "address",
          "name": "implementation",
          "type": "address"
        }
      ],
      "name": "ERC1967InvalidImplementation",
      "type": "error"
    },
    {
      "inputs": [],
      "name": "ERC1967NonPayable",
      "type": "error"
    },
    {
      "inputs": [],
      "name": "EnforcedPause",
      "type": "error"
    },
    {
      "inputs": [],
      "name": "ErrAlreadySynced",
      "type": "error"
    },
    {
      "inputs": [],
      "name": "ErrConflictCondition",
      "type": "error"
    },
    {
      "inputs": [],
      "name": "ErrMismatchSync",
      "type": "error"
    },
    {
      "inputs": [],
      "name": "ErrNoRewardToClaim",
      "type": "error"
    },
    {
      "inputs": [],
      "name": "ErrUnauthorized",
      "type": "error"
    },
    {
      "inputs": [],
      "name": "ExpectedPause",
      "type": "error"
    },
    {
      "inputs": [],
      "name": "FailedCall",
      "type": "error"
    },
    {
      "inputs": [],
      "name": "InvalidInitialization",
      "type": "error"
    },
    {
      "inputs": [],
      "name": "NotInitializing",
      "type": "error"
    },
    {
      "inputs": [
        {
          "internalType": "address",
          "name": "owner",
          "type": "address"
        }
      ],
      "name": "OwnableInvalidOwner",
      "type": "error"
    },
    {
      "inputs": [
        {
          "internalType": "address",
          "name": "account",
          "type": "address"
        }
      ],
      "name": "OwnableUnauthorizedAccount",
      "type": "error"
    },
    {
      "inputs": [],
      "name": "ReentrancyGuardReentrantCall",
      "type": "error"
    },
    {
      "inputs": [
        {
          "internalType": "address",
          "name": "token",
          "type": "address"
        }
      ],
      "name": "SafeERC20FailedOperation",
      "type": "error"
    },
    {
      "inputs": [],
      "name": "UUPSUnauthorizedCallContext",
      "type": "error"
    },
    {
      "inputs": [
        {
          "internalType": "bytes32",
          "name": "slot",
          "type": "bytes32"
        }
      ],
      "name": "UUPSUnsupportedProxiableUUID",
      "type": "error"
    },
    {
      "anonymous": false,
      "inputs": [
        {
          "indexed": false,
          "internalType": "uint64",
          "name": "version",
          "type": "uint64"
        }
      ],
      "name": "Initialized",
      "type": "event"
    },
    {
      "anonymous": false,
      "inputs": [
        {
          "indexed": true,
          "internalType": "address",
          "name": "previousOwner",
          "type": "address"
        },
        {
          "indexed": true,
          "internalType": "address",
          "name": "newOwner",
          "type": "address"
        }
      ],
      "name": "OwnershipTransferred",
      "type": "event"
    },
    {
      "anonymous": false,
      "inputs": [
        {
          "indexed": false,
          "internalType": "address",
          "name": "account",
          "type": "address"
        }
      ],
      "name": "Paused",
      "type": "event"
    },
    {
      "anonymous": false,
      "inputs": [
        {
          "indexed": false,
          "internalType": "address",
          "name": "account",
          "type": "address"
        }
      ],
      "name": "Unpaused",
      "type": "event"
    },
    {
      "anonymous": false,
      "inputs": [
        {
          "indexed": true,
          "internalType": "address",
          "name": "implementation",
          "type": "address"
        }
      ],
      "name": "Upgraded",
      "type": "event"
    },
    {
      "inputs": [],
      "name": "ACC_REWARD_PRECISION",
      "outputs": [
        {
          "internalType": "uint256",
          "name": "",
          "type": "uint256"
        }
      ],
      "stateMutability": "view",
      "type": "function"
    },
    {
      "inputs": [],
      "name": "UPGRADE_INTERFACE_VERSION",
      "outputs": [
        {
          "internalType": "string",
          "name": "",
          "type": "string"
        }
      ],
      "stateMutability": "view",
      "type": "function"
    },
    {
      "inputs": [
        {
          "internalType": "address",
          "name": "account",
          "type": "address"
        },
        {
          "internalType": "bool",
          "name": "restake",
          "type": "bool"
        }
      ],
      "name": "_claimReward",
      "outputs": [
        {
          "internalType": "uint256",
          "name": "",
          "type": "uint256"
        }
      ],
      "stateMutability": "nonpayable",
      "type": "function"
    },
    {
      "inputs": [
        {
          "internalType": "address",
          "name": "drawer",
          "type": "address"
        },
        {
          "internalType": "uint256",
          "name": "rewardAmount",
          "type": "uint256"
        },
        {
          "internalType": "uint256",
          "name": "startTime",
          "type": "uint256"
        },
        {
          "internalType": "uint256",
          "name": "endTime",
          "type": "uint256"
        }
      ],
      "name": "addReward",
      "outputs": [],
      "stateMutability": "nonpayable",
      "type": "function"
    },
    {
      "inputs": [
        {
          "internalType": "address",
          "name": "account",
          "type": "address"
        },
        {
          "internalType": "bool",
          "name": "restake",
          "type": "bool"
        }
      ],
      "name": "claimReward",
      "outputs": [
        {
          "internalType": "uint256",
          "name": "",
          "type": "uint256"
        }
      ],
      "stateMutability": "nonpayable",
      "type": "function"
    },
    {
      "inputs": [
        {
          "internalType": "address",
          "name": "account",
          "type": "address"
        },
        {
          "internalType": "uint256",
          "name": "stakedAmount",
          "type": "uint256"
        }
      ],
      "name": "deposit",
      "outputs": [],
      "stateMutability": "nonpayable",
      "type": "function"
    },
    {
      "inputs": [],
      "name": "finalizeSync",
      "outputs": [],
      "stateMutability": "nonpayable",
      "type": "function"
    },
    {
      "inputs": [
        {
          "internalType": "address",
          "name": "account",
          "type": "address"
        }
      ],
      "name": "getClaimedReward",
      "outputs": [
        {
          "internalType": "uint256",
          "name": "",
          "type": "uint256"
        }
      ],
      "stateMutability": "view",
      "type": "function"
    },
    {
      "inputs": [],
      "name": "getConfig",
      "outputs": [
        {
          "internalType": "address",
          "name": "",
          "type": "address"
        },
        {
          "internalType": "address",
          "name": "",
          "type": "address"
        },
        {
          "internalType": "uint256",
          "name": "",
          "type": "uint256"
        },
        {
          "internalType": "uint256",
          "name": "",
          "type": "uint256"
        },
        {
          "internalType": "uint256",
          "name": "",
          "type": "uint256"
        }
      ],
      "stateMutability": "view",
      "type": "function"
    },
    {
      "inputs": [],
      "name": "getCurrentCondition",
      "outputs": [
        {
          "components": [
            {
              "internalType": "uint256",
              "name": "startTime",
              "type": "uint256"
            },
            {
              "internalType": "uint256",
              "name": "endTime",
              "type": "uint256"
            },
            {
              "internalType": "uint256",
              "name": "rewardAmount",
              "type": "uint256"
            },
            {
              "internalType": "uint256",
              "name": "rewardIndex",
              "type": "uint256"
            }
          ],
          "internalType": "struct veLikeRewardNoLock.StakingCondition",
          "name": "",
          "type": "tuple"
        }
      ],
      "stateMutability": "view",
      "type": "function"
    },
    {
      "inputs": [],
      "name": "getLastRewardTime",
      "outputs": [
        {
          "internalType": "uint256",
          "name": "",
          "type": "uint256"
        }
      ],
      "stateMutability": "view",
      "type": "function"
    },
    {
      "inputs": [
        {
          "internalType": "address",
          "name": "account",
          "type": "address"
        }
      ],
      "name": "getPendingReward",
      "outputs": [
        {
          "internalType": "uint256",
          "name": "",
          "type": "uint256"
        }
      ],
      "stateMutability": "view",
      "type": "function"
    },
    {
      "inputs": [],
      "name": "getRewardPool",
      "outputs": [
        {
          "internalType": "uint256",
          "name": "",
          "type": "uint256"
        }
      ],
      "stateMutability": "view",
      "type": "function"
    },
    {
      "inputs": [],
      "name": "initTotalStaked",
      "outputs": [],
      "stateMutability": "nonpayable",
      "type": "function"
    },
    {
      "inputs": [
        {
          "internalType": "address",
          "name": "initialOwner",
          "type": "address"
        }
      ],
      "name": "initialize",
      "outputs": [],
      "stateMutability": "nonpayable",
      "type": "function"
    },
    {
      "inputs": [],
      "name": "owner",
      "outputs": [
        {
          "internalType": "address",
          "name": "",
          "type": "address"
        }
      ],
      "stateMutability": "view",
      "type": "function"
    },
    {
      "inputs": [],
      "name": "pause",
      "outputs": [],
      "stateMutability": "nonpayable",
      "type": "function"
    },
    {
      "inputs": [],
      "name": "paused",
      "outputs": [
        {
          "internalType": "bool",
          "name": "",
          "type": "bool"
        }
      ],
      "stateMutability": "view",
      "type": "function"
    },
    {
      "inputs": [],
      "name": "proxiableUUID",
      "outputs": [
        {
          "internalType": "bytes32",
          "name": "",
          "type": "bytes32"
        }
      ],
      "stateMutability": "view",
      "type": "function"
    },
    {
      "inputs": [],
      "name": "renounceOwnership",
      "outputs": [],
      "stateMutability": "nonpayable",
      "type": "function"
    },
    {
      "inputs": [
        {
          "internalType": "address",
          "name": "likecoin",
          "type": "address"
        }
      ],
      "name": "setLikecoin",
      "outputs": [],
      "stateMutability": "nonpayable",
      "type": "function"
    },
    {
      "inputs": [
        {
          "internalType": "address",
          "name": "vault",
          "type": "address"
        }
      ],
      "name": "setVault",
      "outputs": [],
      "stateMutability": "nonpayable",
      "type": "function"
    },
    {
      "inputs": [
        {
          "internalType": "address[]",
          "name": "accounts",
          "type": "address[]"
        }
      ],
      "name": "syncStakers",
      "outputs": [],
      "stateMutability": "nonpayable",
      "type": "function"
    },
    {
      "inputs": [
        {
          "internalType": "address",
          "name": "newOwner",
          "type": "address"
        }
      ],
      "name": "transferOwnership",
      "outputs": [],
      "stateMutability": "nonpayable",
      "type": "function"
    },
    {
      "inputs": [],
      "name": "unpause",
      "outputs": [],
      "stateMutability": "nonpayable",
      "type": "function"
    },
    {
      "inputs": [
        {
          "internalType": "address",
          "name": "newImplementation",
          "type": "address"
        },
        {
          "internalType": "bytes",
          "name": "data",
          "type": "bytes"
        }
      ],
      "name": "upgradeToAndCall",
      "outputs": [],
      "stateMutability": "payable",
      "type": "function"
    },
    {
      "inputs": [
        {
          "internalType": "address",
          "name": "account",
          "type": "address"
        },
        {
          "internalType": "uint256",
          "name": "amount",
          "type": "uint256"
        }
      ],
      "name": "withdraw",
      "outputs": [],
      "stateMutability": "nonpayable",
      "type": "function"
    }
  ],
  "bytecode": "0x60a06040523073ffffffffffffffffffffffffffffffffffffffff1660809073ffffffffffffffffffffffffffffffffffffffff1681525034801561004357600080fd5b5061005261005760201b60201c565b6101de565b600061006761015b60201b60201c565b90508060000160089054906101000a900460ff16156100b2576040517ff92ee8a900000000000000000000000000000000000000000000000000000000815260040160405180910390fd5b67ffffffffffffffff80168160000160009054906101000a900467ffffffffffffffff1667ffffffffffffffff16146101585767ffffffffffffffff8160000160006101000a81548167ffffffffffffffff021916908367ffffffffffffffff1602179055507fc7f505b2f371ae2175ee4913f4499e1f2633a7b5936321eed1cdaeb6115181d267ffffffffffffffff60405161014f91906101c3565b60405180910390a15b50565b60008061016c61017560201b60201c565b90508091505090565b60007ff0c57e16840df040f15088dc2f81fe391c3923bec73e23a9662efc9c229c6a0060001b905090565b600067ffffffffffffffff82169050919050565b6101bd816101a0565b82525050565b60006020820190506101d860008301846101b4565b92915050565b60805161333b61020760003960008181611dbc01528181611e110152611fcc015261333b6000f3fe60806040526004361061019c5760003560e01c806370dc5ca5116100ec578063ba2311d71161008a578063d1c6a23111610064578063d1c6a2311461055f578063f2fde38b1461058a578063f3fef3a3146105b3578063f5694451146105dc5761019c565b8063ba2311d7146104ca578063c3f909d414610507578063c4d66de8146105365761019c565b80638456cb59116100c65780638456cb59146104205780638da5cb5b14610437578063ad3cb1cc14610462578063aeb51b371461048d5761019c565b806370dc5ca5146103b7578063715018a6146103e057806372a3ae9d146103f75761019c565b80634df9d6ba116101595780635c975abb116101335780635c975abb14610321578063650d64251461034c5780636817031b14610377578063707f891e146103a05761019c565b80634df9d6ba1461029d5780634f1ef286146102da57806352d1902d146102f65761019c565b80631359e6f7146101a157806315b332d3146101de5780631b8b13a7146102075780633e340dae146102325780633f4ba83a1461025d57806347e7ef2414610274575b600080fd5b3480156101ad57600080fd5b506101c860048036038101906101c39190612905565b6105f3565b6040516101d5919061294b565b60405180910390f35b3480156101ea57600080fd5b50610205600480360381019061020091906129cb565b61067c565b005b34801561021357600080fd5b5061021c61089c565b604051610229919061294b565b60405180910390f35b34801561023e57600080fd5b506102476108b4565b604051610254919061294b565b60405180910390f35b34801561026957600080fd5b506102726108cc565b005b34801561028057600080fd5b5061029b60048036038101906102969190612a44565b6108de565b005b3480156102a957600080fd5b506102c460048036038101906102bf9190612905565b610a27565b6040516102d1919061294b565b60405180910390f35b6102f460048036038101906102ef9190612bc5565b610b58565b005b34801561030257600080fd5b5061030b610b77565b6040516103189190612c3a565b60405180910390f35b34801561032d57600080fd5b50610336610baa565b6040516103439190612c70565b60405180910390f35b34801561035857600080fd5b50610361610bcf565b60405161036e9190612cef565b60405180910390f35b34801561038357600080fd5b5061039e60048036038101906103999190612905565b610c20565b005b3480156103ac57600080fd5b506103b5610c7b565b005b3480156103c357600080fd5b506103de60048036038101906103d99190612d0a565b610d00565b005b3480156103ec57600080fd5b506103f5610ec3565b005b34801561040357600080fd5b5061041e60048036038101906104199190612905565b610ed7565b005b34801561042c57600080fd5b50610435610f32565b005b34801561044357600080fd5b5061044c610f44565b6040516104599190612d80565b60405180910390f35b34801561046e57600080fd5b50610477610f7c565b6040516104849190612e1a565b60405180910390f35b34801561049957600080fd5b506104b460048036038101906104af9190612e68565b610fb5565b6040516104c1919061294b565b60405180910390f35b3480156104d657600080fd5b506104f160048036038101906104ec9190612e68565b6110bf565b6040516104fe919061294b565b60405180910390f35b34801561051357600080fd5b5061051c6112c0565b60405161052d959493929190612ea8565b60405180910390f35b34801561054257600080fd5b5061055d60048036038101906105589190612905565b61133e565b005b34801561056b57600080fd5b506105746114e5565b604051610581919061294b565b60405180910390f35b34801561059657600080fd5b506105b160048036038101906105ac9190612905565b6114f1565b005b3480156105bf57600080fd5b506105da60048036038101906105d59190612a44565b611577565b005b3480156105e857600080fd5b506105f16116c0565b005b6000806105fe6117e1565b905060008160090160008573ffffffffffffffffffffffffffffffffffffffff1673ffffffffffffffffffffffffffffffffffffffff16815260200190815260200160002060405180606001604052908160008201548152602001600182015481526020016002820154815250509050806040015192505050919050565b610684611809565b600061068e6117e1565b905080600a0160149054906101000a900460ff166106e1576040517f08c379a00000000000000000000000000000000000000000000000000000000081526004016106d890612f6d565b60405180910390fd5b60005b8383905081101561089657600084848381811061070457610703612f8d565b5b90506020020160208101906107199190612905565b905060008360000160009054906101000a900473ffffffffffffffffffffffffffffffffffffffff1673ffffffffffffffffffffffffffffffffffffffff166370a08231836040518263ffffffff1660e01b815260040161077a9190612d80565b602060405180830381865afa158015610797573d6000803e3d6000fd5b505050506040513d601f19601f820116820180604052508101906107bb9190612fd1565b905060008460090160008473ffffffffffffffffffffffffffffffffffffffff1673ffffffffffffffffffffffffffffffffffffffff1681526020019081526020016000209050600081600001541461087d578181600001540361084b576040517f1e0908f000000000000000000000000000000000000000000000000000000000815260040160405180910390fd5b6040517f0eb03fb200000000000000000000000000000000000000000000000000000000815260040160405180910390fd5b81816000018190555050505080806001019150506106e4565b50505050565b6000806108a76117e1565b9050806002015491505090565b6000806108bf6117e1565b9050806004015491505090565b6108d4611809565b6108dc611890565b565b6108e6611902565b60006108f06117e1565b90508060000160009054906101000a900473ffffffffffffffffffffffffffffffffffffffff1673ffffffffffffffffffffffffffffffffffffffff16610935611943565b73ffffffffffffffffffffffffffffffffffffffff1614610982576040517fcc12cef600000000000000000000000000000000000000000000000000000000815260040160405180910390fd5b600061098c6117e1565b90506109978461194b565b61099f611a8d565b6109aa8460006110bf565b50828160090160008673ffffffffffffffffffffffffffffffffffffffff1673ffffffffffffffffffffffffffffffffffffffff16815260200190815260200160002060000160008282546109ff919061302d565b9250508190555082816003016000828254610a1a919061302d565b9250508190555050505050565b600080610a326117e1565b90506000610a3f84611b89565b90506000610a4c85611c50565b90506000811480610a61575060008360030154145b80610a7a57508260050160000154836005016001015411155b15610a8a57819350505050610b53565b60004290508360050160010154811115610aa957836005016001015490505b6000846004015482610abb9190613061565b90506000610afe86600501604051806080016040529081600082015481526020016001820154815260200160028201548152602001600382015481525050611d7b565b82610b099190613095565b90506000670de0b6b3a76400008760030154610b259190613095565b8583610b319190613095565b610b3b9190613106565b90508086610b49919061302d565b9750505050505050505b919050565b610b60611dba565b610b6982611ea0565b610b738282611eab565b5050565b6000610b81611fca565b7f360894a13ba1a3210667c828492db98dca3e2076cc3735a920a3ca505d382bbc60001b905090565b600080610bb5612051565b90508060000160009054906101000a900460ff1691505090565b610bd761286b565b6000610be16117e1565b90508060050160405180608001604052908160008201548152602001600182015481526020016002820154815260200160038201548152505091505090565b610c28611809565b6000610c326117e1565b9050818160000160006101000a81548173ffffffffffffffffffffffffffffffffffffffff021916908373ffffffffffffffffffffffffffffffffffffffff1602179055505050565b610c83611809565b6000610c8d6117e1565b905080600a0160149054906101000a900460ff16610ce0576040517f08c379a0000000000000000000000000000000000000000000000000000000008152600401610cd790612f6d565b60405180910390fd5b600081600a0160146101000a81548160ff02191690831515021790555050565b610d08611809565b610d10612079565b15610d47576040517fff31bc8f00000000000000000000000000000000000000000000000000000000815260040160405180910390fd5b6000610d516117e1565b905080600401548311610d90576040517fff31bc8f00000000000000000000000000000000000000000000000000000000815260040160405180910390fd5b82821015610dca576040517fff31bc8f00000000000000000000000000000000000000000000000000000000815260040160405180910390fd5b42821015610e04576040517fff31bc8f00000000000000000000000000000000000000000000000000000000815260040160405180910390fd5b8281600401819055508481600a0160006101000a81548173ffffffffffffffffffffffffffffffffffffffff021916908373ffffffffffffffffffffffffffffffffffffffff16021790555083816002016000828254610e64919061302d565b925050819055506040518060800160405280848152602001838152602001858152602001600081525081600501600082015181600001556020820151816001015560408201518160020155606082015181600301559050505050505050565b610ecb611809565b610ed560006120b9565b565b610edf611809565b6000610ee96117e1565b9050818160010160006101000a81548173ffffffffffffffffffffffffffffffffffffffff021916908373ffffffffffffffffffffffffffffffffffffffff1602179055505050565b610f3a611809565b610f42612190565b565b600080610f4f612202565b90508060000160009054906101000a900473ffffffffffffffffffffffffffffffffffffffff1691505090565b6040518060400160405280600581526020017f352e302e3000000000000000000000000000000000000000000000000000000081525081565b6000610fbf611902565b6000610fc96117e1565b90508060000160009054906101000a900473ffffffffffffffffffffffffffffffffffffffff1673ffffffffffffffffffffffffffffffffffffffff1661100e611943565b73ffffffffffffffffffffffffffffffffffffffff161461105b576040517fcc12cef600000000000000000000000000000000000000000000000000000000815260040160405180910390fd5b6110648461194b565b600061106f85610a27565b9050600081036110ab576040517f1e09881a00000000000000000000000000000000000000000000000000000000815260040160405180910390fd5b6110b585856110bf565b9250505092915050565b6000806110ca6117e1565b90508060000160009054906101000a900473ffffffffffffffffffffffffffffffffffffffff1673ffffffffffffffffffffffffffffffffffffffff1661110f611943565b73ffffffffffffffffffffffffffffffffffffffff161461115c576040517fcc12cef600000000000000000000000000000000000000000000000000000000815260040160405180910390fd5b60006111666117e1565b905060008160090160008773ffffffffffffffffffffffffffffffffffffffff1673ffffffffffffffffffffffffffffffffffffffff16815260200190815260200160002090506111b5611a8d565b60006111c087611b89565b9050808260020160008282546111d6919061302d565b9250508190555082600501600301548260010181905550808360020160008282546112019190613061565b925050819055506000810361121c57600094505050506112b9565b851561125d5780826000016000828254611236919061302d565b9250508190555080836003016000828254611251919061302d565b925050819055506112b2565b6112b18360010160009054906101000a900473ffffffffffffffffffffffffffffffffffffffff1684600a0160009054906101000a900473ffffffffffffffffffffffffffffffffffffffff16898461222a565b5b8094505050505b5092915050565b6000806000806000806112d16117e1565b90508060000160009054906101000a900473ffffffffffffffffffffffffffffffffffffffff168160010160009054906101000a900473ffffffffffffffffffffffffffffffffffffffff1682600201548360030154846004015495509550955095509550509091929394565b60006113486122ac565b905060008160000160089054906101000a900460ff1615905060008260000160009054906101000a900467ffffffffffffffff1690506000808267ffffffffffffffff161480156113965750825b9050600060018367ffffffffffffffff161480156113cb575060003073ffffffffffffffffffffffffffffffffffffffff163b145b9050811580156113d9575080155b15611410576040517ff92ee8a900000000000000000000000000000000000000000000000000000000815260040160405180910390fd5b60018560000160006101000a81548167ffffffffffffffff021916908367ffffffffffffffff16021790555083156114605760018560000160086101000a81548160ff0219169083151502179055505b6114686122c0565b6114706122ca565b611479866122dc565b6114816122f0565b83156114dd5760008560000160086101000a81548160ff0219169083151502179055507fc7f505b2f371ae2175ee4913f4499e1f2633a7b5936321eed1cdaeb6115181d260016040516114d49190613190565b60405180910390a15b505050505050565b670de0b6b3a764000081565b6114f9611809565b600073ffffffffffffffffffffffffffffffffffffffff168173ffffffffffffffffffffffffffffffffffffffff160361156b5760006040517f1e4fbdf70000000000000000000000000000000000000000000000000000000081526004016115629190612d80565b60405180910390fd5b611574816120b9565b50565b61157f611902565b60006115896117e1565b90508060000160009054906101000a900473ffffffffffffffffffffffffffffffffffffffff1673ffffffffffffffffffffffffffffffffffffffff166115ce611943565b73ffffffffffffffffffffffffffffffffffffffff161461161b576040517fcc12cef600000000000000000000000000000000000000000000000000000000815260040160405180910390fd5b60006116256117e1565b90506116308461194b565b611638611a8d565b6116438460006110bf565b50828160030160008282546116589190613061565b92505081905550828160090160008673ffffffffffffffffffffffffffffffffffffffff1673ffffffffffffffffffffffffffffffffffffffff16815260200190815260200160002060000160008282546116b39190613061565b9250508190555050505050565b6116c8611809565b60006116d26117e1565b905080600a0160149054906101000a900460ff1615611726576040517f08c379a000000000000000000000000000000000000000000000000000000000815260040161171d906131f7565b60405180910390fd5b8060000160009054906101000a900473ffffffffffffffffffffffffffffffffffffffff1673ffffffffffffffffffffffffffffffffffffffff166318160ddd6040518163ffffffff1660e01b8152600401602060405180830381865afa158015611795573d6000803e3d6000fd5b505050506040513d601f19601f820116820180604052508101906117b99190612fd1565b8160030181905550600181600a0160146101000a81548160ff02191690831515021790555050565b60007fe9672d2c676bb94d428d6ce523668c779079df8febe4142a9972a2a2313d2c00905090565b611811611943565b73ffffffffffffffffffffffffffffffffffffffff1661182f610f44565b73ffffffffffffffffffffffffffffffffffffffff161461188e57611852611943565b6040517f118cdaa70000000000000000000000000000000000000000000000000000000081526004016118859190612d80565b60405180910390fd5b565b6118986122fa565b60006118a2612051565b905060008160000160006101000a81548160ff0219169083151502179055507f5db9ee0a495bf2e6ff9c91a7834c1ba4fdd244a5e8aa4e537bd38aeae4b073aa6118ea611943565b6040516118f79190612d80565b60405180910390a150565b61190a610baa565b15611941576040517fd93c066500000000000000000000000000000000000000000000000000000000815260040160405180910390fd5b565b600033905090565b60006119556117e1565b905080600a0160149054906101000a900460ff166119735750611a8a565b60008160090160008473ffffffffffffffffffffffffffffffffffffffff1673ffffffffffffffffffffffffffffffffffffffff168152602001908152602001600020905060008160000154146119cb575050611a8a565b60008260000160009054906101000a900473ffffffffffffffffffffffffffffffffffffffff1673ffffffffffffffffffffffffffffffffffffffff166370a08231856040518263ffffffff1660e01b8152600401611a2a9190612d80565b602060405180830381865afa158015611a47573d6000803e3d6000fd5b505050506040513d601f19601f82011682018060405250810190611a6b9190612fd1565b905060008103611a7d57505050611a8a565b8082600001819055505050505b50565b6000611a976117e1565b9050600081600501905060004290508160000154811015611aba57816000015490505b8160010154811115611ace57816001015490505b82600401548103611ae157505050611b87565b600083600301541115611b83576000836004015482611b009190613061565b90506000611b4084604051806080016040529081600082015481526020016001820154815260200160028201548152602001600382015481525050611d7b565b82611b4b9190613095565b9050846003015481611b5d9190613106565b846003016000828254611b70919061302d565b9250508190555082856004018190555050505b5050505b565b600080611b946117e1565b905060008160090160008573ffffffffffffffffffffffffffffffffffffffff1673ffffffffffffffffffffffffffffffffffffffff168152602001908152602001600020604051806060016040529081600082015481526020016001820154815260200160028201548152505090506000611c0f85611c50565b9050670de0b6b3a764000082602001518460050160030154611c319190613061565b82611c3c9190613095565b611c469190613106565b9350505050919050565b600080611c5b6117e1565b905060008160090160008573ffffffffffffffffffffffffffffffffffffffff1673ffffffffffffffffffffffffffffffffffffffff168152602001908152602001600020600001549050600081148015611cc4575081600a0160149054906101000a900460ff165b15611d70578160000160009054906101000a900473ffffffffffffffffffffffffffffffffffffffff1673ffffffffffffffffffffffffffffffffffffffff166370a08231856040518263ffffffff1660e01b8152600401611d269190612d80565b602060405180830381865afa158015611d43573d6000803e3d6000fd5b505050506040513d601f19601f82011682018060405250810190611d679190612fd1565b92505050611d76565b80925050505b919050565b600081600001518260200151611d919190613061565b8260400151670de0b6b3a7640000611da99190613095565b611db39190613106565b9050919050565b7f000000000000000000000000000000000000000000000000000000000000000073ffffffffffffffffffffffffffffffffffffffff163073ffffffffffffffffffffffffffffffffffffffff161480611e6757507f000000000000000000000000000000000000000000000000000000000000000073ffffffffffffffffffffffffffffffffffffffff16611e4e61233a565b73ffffffffffffffffffffffffffffffffffffffff1614155b15611e9e576040517fe07c8dba00000000000000000000000000000000000000000000000000000000815260040160405180910390fd5b565b611ea8611809565b50565b8173ffffffffffffffffffffffffffffffffffffffff166352d1902d6040518163ffffffff1660e01b8152600401602060405180830381865afa925050508015611f1357506040513d601f19601f82011682018060405250810190611f109190613243565b60015b611f5457816040517f4c9c8ce3000000000000000000000000000000000000000000000000000000008152600401611f4b9190612d80565b60405180910390fd5b7f360894a13ba1a3210667c828492db98dca3e2076cc3735a920a3ca505d382bbc60001b8114611fbb57806040517faa1d49a4000000000000000000000000000000000000000000000000000000008152600401611fb29190612c3a565b60405180910390fd5b611fc58383612391565b505050565b7f000000000000000000000000000000000000000000000000000000000000000073ffffffffffffffffffffffffffffffffffffffff163073ffffffffffffffffffffffffffffffffffffffff161461204f576040517fe07c8dba00000000000000000000000000000000000000000000000000000000815260040160405180910390fd5b565b60007fcd5ed15c6e187e77e9aee88184c21f4f2182ab5827cb3b7e07fbedcd63f03300905090565b6000806120846117e1565b905080600501600001544210806120a15750806005016001015442115b156120b05760009150506120b6565b60019150505b90565b60006120c3612202565b905060008160000160009054906101000a900473ffffffffffffffffffffffffffffffffffffffff169050828260000160006101000a81548173ffffffffffffffffffffffffffffffffffffffff021916908373ffffffffffffffffffffffffffffffffffffffff1602179055508273ffffffffffffffffffffffffffffffffffffffff168173ffffffffffffffffffffffffffffffffffffffff167f8be0079c531659141344cd1fd0a4f28419497f9722a3daafe3b4186f6b6457e060405160405180910390a3505050565b612198611902565b60006121a2612051565b905060018160000160006101000a81548160ff0219169083151502179055507f62e78cea01bee320cd4e420270b5ea74000d11b0c9f74754ebdbfc544b05a2586121ea611943565b6040516121f79190612d80565b60405180910390a150565b60007f9016d09d72d40fdae2fd8ceac6b6234c7706214fd39c1cd1e609a0528c199300905090565b6122a6848573ffffffffffffffffffffffffffffffffffffffff166323b872dd86868660405160240161225f93929190613270565b604051602081830303815290604052915060e01b6020820180517bffffffffffffffffffffffffffffffffffffffffffffffffffffffff8381831617835250505050612404565b50505050565b6000806122b76124a6565b90508091505090565b6122c86124d1565b565b6122d26124d1565b6122da612511565b565b6122e46124d1565b6122ed81612532565b50565b6122f86124d1565b565b612302610baa565b612338576040517f8dfc202b00000000000000000000000000000000000000000000000000000000815260040160405180910390fd5b565b60006123687f360894a13ba1a3210667c828492db98dca3e2076cc3735a920a3ca505d382bbc60001b6125b8565b60000160009054906101000a900473ffffffffffffffffffffffffffffffffffffffff16905090565b61239a826125c2565b8173ffffffffffffffffffffffffffffffffffffffff167fbc7cd75a20ee27fd9adebab32041f755214dbc6bffa90cc0225b39da2e5c2d3b60405160405180910390a26000815111156123f7576123f1828261268f565b50612400565b6123ff612713565b5b5050565b600080602060008451602086016000885af180612427576040513d6000823e3d81fd5b3d92506000519150506000821461244257600181141561245e565b60008473ffffffffffffffffffffffffffffffffffffffff163b145b156124a057836040517f5274afe70000000000000000000000000000000000000000000000000000000081526004016124979190612d80565b60405180910390fd5b50505050565b60007ff0c57e16840df040f15088dc2f81fe391c3923bec73e23a9662efc9c229c6a0060001b905090565b6124d9612750565b61250f576040517fd7e6bcf800000000000000000000000000000000000000000000000000000000815260040160405180910390fd5b565b6125196124d1565b6000612523612770565b90506001816000018190555050565b61253a6124d1565b600073ffffffffffffffffffffffffffffffffffffffff168173ffffffffffffffffffffffffffffffffffffffff16036125ac5760006040517f1e4fbdf70000000000000000000000000000000000000000000000000000000081526004016125a39190612d80565b60405180910390fd5b6125b5816120b9565b50565b6000819050919050565b60008173ffffffffffffffffffffffffffffffffffffffff163b0361261e57806040517f4c9c8ce30000000000000000000000000000000000000000000000000000000081526004016126159190612d80565b60405180910390fd5b8061264b7f360894a13ba1a3210667c828492db98dca3e2076cc3735a920a3ca505d382bbc60001b6125b8565b60000160006101000a81548173ffffffffffffffffffffffffffffffffffffffff021916908373ffffffffffffffffffffffffffffffffffffffff16021790555050565b60606000808473ffffffffffffffffffffffffffffffffffffffff16846040516126b991906132ee565b600060405180830381855af49150503d80600081146126f4576040519150601f19603f3d011682016040523d82523d6000602084013e6126f9565b606091505b5091509150612709858383612798565b9250505092915050565b600034111561274e576040517fb398979f00000000000000000000000000000000000000000000000000000000815260040160405180910390fd5b565b600061275a6122ac565b60000160089054906101000a900460ff16905090565b60007f9b779b17422d0df92223018b32b4d1fa46e071723d6817e2486d003becc55f00905090565b6060826127ad576127a882612827565b61281f565b600082511480156127d5575060008473ffffffffffffffffffffffffffffffffffffffff163b145b1561281757836040517f9996b31500000000000000000000000000000000000000000000000000000000815260040161280e9190612d80565b60405180910390fd5b819050612820565b5b9392505050565b60008151111561283957805160208201fd5b6040517fd6bda27500000000000000000000000000000000000000000000000000000000815260040160405180910390fd5b6040518060800160405280600081526020016000815260200160008152602001600081525090565b6000604051905090565b600080fd5b600080fd5b600073ffffffffffffffffffffffffffffffffffffffff82169050919050565b60006128d2826128a7565b9050919050565b6128e2816128c7565b81146128ed57600080fd5b50565b6000813590506128ff816128d9565b92915050565b60006020828403121561291b5761291a61289d565b5b6000612929848285016128f0565b91505092915050565b6000819050919050565b61294581612932565b82525050565b6000602082019050612960600083018461293c565b92915050565b600080fd5b600080fd5b600080fd5b60008083601f84011261298b5761298a612966565b5b8235905067ffffffffffffffff8111156129a8576129a761296b565b5b6020830191508360208202830111156129c4576129c3612970565b5b9250929050565b600080602083850312156129e2576129e161289d565b5b600083013567ffffffffffffffff811115612a00576129ff6128a2565b5b612a0c85828601612975565b92509250509250929050565b612a2181612932565b8114612a2c57600080fd5b50565b600081359050612a3e81612a18565b92915050565b60008060408385031215612a5b57612a5a61289d565b5b6000612a69858286016128f0565b9250506020612a7a85828601612a2f565b9150509250929050565b600080fd5b6000601f19601f8301169050919050565b7f4e487b7100000000000000000000000000000000000000000000000000000000600052604160045260246000fd5b612ad282612a89565b810181811067ffffffffffffffff82111715612af157612af0612a9a565b5b80604052505050565b6000612b04612893565b9050612b108282612ac9565b919050565b600067ffffffffffffffff821115612b3057612b2f612a9a565b5b612b3982612a89565b9050602081019050919050565b82818337600083830152505050565b6000612b68612b6384612b15565b612afa565b905082815260208101848484011115612b8457612b83612a84565b5b612b8f848285612b46565b509392505050565b600082601f830112612bac57612bab612966565b5b8135612bbc848260208601612b55565b91505092915050565b60008060408385031215612bdc57612bdb61289d565b5b6000612bea858286016128f0565b925050602083013567ffffffffffffffff811115612c0b57612c0a6128a2565b5b612c1785828601612b97565b9150509250929050565b6000819050919050565b612c3481612c21565b82525050565b6000602082019050612c4f6000830184612c2b565b92915050565b60008115159050919050565b612c6a81612c55565b82525050565b6000602082019050612c856000830184612c61565b92915050565b612c9481612932565b82525050565b608082016000820151612cb06000850182612c8b565b506020820151612cc36020850182612c8b565b506040820151612cd66040850182612c8b565b506060820151612ce96060850182612c8b565b50505050565b6000608082019050612d046000830184612c9a565b92915050565b60008060008060808587031215612d2457612d2361289d565b5b6000612d32878288016128f0565b9450506020612d4387828801612a2f565b9350506040612d5487828801612a2f565b9250506060612d6587828801612a2f565b91505092959194509250565b612d7a816128c7565b82525050565b6000602082019050612d956000830184612d71565b92915050565b600081519050919050565b600082825260208201905092915050565b60005b83811015612dd5578082015181840152602081019050612dba565b60008484015250505050565b6000612dec82612d9b565b612df68185612da6565b9350612e06818560208601612db7565b612e0f81612a89565b840191505092915050565b60006020820190508181036000830152612e348184612de1565b905092915050565b612e4581612c55565b8114612e5057600080fd5b50565b600081359050612e6281612e3c565b92915050565b60008060408385031215612e7f57612e7e61289d565b5b6000612e8d858286016128f0565b9250506020612e9e85828601612e53565b9150509250929050565b600060a082019050612ebd6000830188612d71565b612eca6020830187612d71565b612ed7604083018661293c565b612ee4606083018561293c565b612ef1608083018461293c565b9695505050505050565b7f4e6f7420696e697469616c697a6564206f7220616c72656164792066696e616c60008201527f697a656400000000000000000000000000000000000000000000000000000000602082015250565b6000612f57602483612da6565b9150612f6282612efb565b604082019050919050565b60006020820190508181036000830152612f8681612f4a565b9050919050565b7f4e487b7100000000000000000000000000000000000000000000000000000000600052603260045260246000fd5b600081519050612fcb81612a18565b92915050565b600060208284031215612fe757612fe661289d565b5b6000612ff584828501612fbc565b91505092915050565b7f4e487b7100000000000000000000000000000000000000000000000000000000600052601160045260246000fd5b600061303882612932565b915061304383612932565b925082820190508082111561305b5761305a612ffe565b5b92915050565b600061306c82612932565b915061307783612932565b925082820390508181111561308f5761308e612ffe565b5b92915050565b60006130a082612932565b91506130ab83612932565b92508282026130b981612932565b915082820484148315176130d0576130cf612ffe565b5b5092915050565b7f4e487b7100000000000000000000000000000000000000000000000000000000600052601260045260246000fd5b600061311182612932565b915061311c83612932565b92508261312c5761312b6130d7565b5b828204905092915050565b6000819050919050565b600067ffffffffffffffff82169050919050565b6000819050919050565b600061317a61317561317084613137565b613155565b613141565b9050919050565b61318a8161315f565b82525050565b60006020820190506131a56000830184613181565b92915050565b7f416c726561647920696e697469616c697a656400000000000000000000000000600082015250565b60006131e1601383612da6565b91506131ec826131ab565b602082019050919050565b60006020820190508181036000830152613210816131d4565b9050919050565b61322081612c21565b811461322b57600080fd5b50565b60008151905061323d81613217565b92915050565b6000602082840312156132595761325861289d565b5b60006132678482850161322e565b91505092915050565b60006060820190506132856000830186612d71565b6132926020830185612d71565b61329f604083018461293c565b949350505050565b600081519050919050565b600081905092915050565b60006132c8826132a7565b6132d281856132b2565b93506132e2818560208601612db7565b80840191505092915050565b60006132fa82846132bd565b91508190509291505056fea2646970667358221220805a02b2e4344065665996ba406f013f957a6cc90236796e9ecd592e25235f2564736f6c634300081c0033",
  "linkReferences": {},
  "deployedLinkReferences": {}
}