{
  "_format": "hh-sol-artifact-1",
  "contractName": "veLikeV0",
  "sourceName": "contracts/veLikeV0.sol",
  "abi": [
    {
      "inputs": [],
      "stateMutability": "nonpayable",
      "type": "constructor"
    },
    {
      "inputs": [
        {
          "internalType": "address",
          "name": "target",
          "type": "address"
        }
      ],
      "name": "AddressEmptyCode",
      "type": "error"
    },
    {
      "inputs": [
        {
          "internalType": "address",
          "name": "implementation",
          "type": "address"
        }
      ],
      "name": "ERC1967InvalidImplementation",
      "type": "error"
    },
    {
      "inputs": [],
      "name": "ERC1967NonPayable",
      "type": "error"
    },
    {
      "inputs": [
        {
          "internalType": "address",
          "name": "spender",
          "type": "address"
        },
        {
          "internalType": "uint256",
          "name": "allowance",
          "type": "uint256"
        },
        {
          "internalType": "uint256",
          "name": "needed",
          "type": "uint256"
        }
      ],
      "name": "ERC20InsufficientAllowance",
      "type": "error"
    },
    {
      "inputs": [
        {
          "internalType": "address",
          "name": "sender",
          "type": "address"
        },
        {
          "internalType": "uint256",
          "name": "balance",
          "type": "uint256"
        },
        {
          "internalType": "uint256",
          "name": "needed",
          "type": "uint256"
        }
      ],
      "name": "ERC20InsufficientBalance",
      "type": "error"
    },
    {
      "inputs": [
        {
          "internalType": "address",
          "name": "approver",
          "type": "address"
        }
      ],
      "name": "ERC20InvalidApprover",
      "type": "error"
    },
    {
      "inputs": [
        {
          "internalType": "address",
          "name": "receiver",
          "type": "address"
        }
      ],
      "name": "ERC20InvalidReceiver",
      "type": "error"
    },
    {
      "inputs": [
        {
          "internalType": "address",
          "name": "sender",
          "type": "address"
        }
      ],
      "name": "ERC20InvalidSender",
      "type": "error"
    },
    {
      "inputs": [
        {
          "internalType": "address",
          "name": "spender",
          "type": "address"
        }
      ],
      "name": "ERC20InvalidSpender",
      "type": "error"
    },
    {
      "inputs": [
        {
          "internalType": "address",
          "name": "receiver",
          "type": "address"
        },
        {
          "internalType": "uint256",
          "name": "assets",
          "type": "uint256"
        },
        {
          "internalType": "uint256",
          "name": "max",
          "type": "uint256"
        }
      ],
      "name": "ERC4626ExceededMaxDeposit",
      "type": "error"
    },
    {
      "inputs": [
        {
          "internalType": "address",
          "name": "receiver",
          "type": "address"
        },
        {
          "internalType": "uint256",
          "name": "shares",
          "type": "uint256"
        },
        {
          "internalType": "uint256",
          "name": "max",
          "type": "uint256"
        }
      ],
      "name": "ERC4626ExceededMaxMint",
      "type": "error"
    },
    {
      "inputs": [
        {
          "internalType": "address",
          "name": "owner",
          "type": "address"
        },
        {
          "internalType": "uint256",
          "name": "shares",
          "type": "uint256"
        },
        {
          "internalType": "uint256",
          "name": "max",
          "type": "uint256"
        }
      ],
      "name": "ERC4626ExceededMaxRedeem",
      "type": "error"
    },
    {
      "inputs": [
        {
          "internalType": "address",
          "name": "owner",
          "type": "address"
        },
        {
          "internalType": "uint256",
          "name": "assets",
          "type": "uint256"
        },
        {
          "internalType": "uint256",
          "name": "max",
          "type": "uint256"
        }
      ],
      "name": "ERC4626ExceededMaxWithdraw",
      "type": "error"
    },
    {
      "inputs": [],
      "name": "EnforcedPause",
      "type": "error"
    },
    {
      "inputs": [],
      "name": "ExpectedPause",
      "type": "error"
    },
    {
      "inputs": [],
      "name": "FailedCall",
      "type": "error"
    },
    {
      "inputs": [],
      "name": "InvalidInitialization",
      "type": "error"
    },
    {
      "inputs": [],
      "name": "NotInitializing",
      "type": "error"
    },
    {
      "inputs": [
        {
          "internalType": "address",
          "name": "owner",
          "type": "address"
        }
      ],
      "name": "OwnableInvalidOwner",
      "type": "error"
    },
    {
      "inputs": [
        {
          "internalType": "address",
          "name": "account",
          "type": "address"
        }
      ],
      "name": "OwnableUnauthorizedAccount",
      "type": "error"
    },
    {
      "inputs": [],
      "name": "ReentrancyGuardReentrantCall",
      "type": "error"
    },
    {
      "inputs": [
        {
          "internalType": "address",
          "name": "token",
          "type": "address"
        }
      ],
      "name": "SafeERC20FailedOperation",
      "type": "error"
    },
    {
      "inputs": [],
      "name": "UUPSUnauthorizedCallContext",
      "type": "error"
    },
    {
      "inputs": [
        {
          "internalType": "bytes32",
          "name": "slot",
          "type": "bytes32"
        }
      ],
      "name": "UUPSUnsupportedProxiableUUID",
      "type": "error"
    },
    {
      "anonymous": false,
      "inputs": [
        {
          "indexed": true,
          "internalType": "address",
          "name": "owner",
          "type": "address"
        },
        {
          "indexed": true,
          "internalType": "address",
          "name": "spender",
          "type": "address"
        },
        {
          "indexed": false,
          "internalType": "uint256",
          "name": "value",
          "type": "uint256"
        }
      ],
      "name": "Approval",
      "type": "event"
    },
    {
      "anonymous": false,
      "inputs": [
        {
          "indexed": true,
          "internalType": "address",
          "name": "sender",
          "type": "address"
        },
        {
          "indexed": true,
          "internalType": "address",
          "name": "owner",
          "type": "address"
        },
        {
          "indexed": false,
          "internalType": "uint256",
          "name": "assets",
          "type": "uint256"
        },
        {
          "indexed": false,
          "internalType": "uint256",
          "name": "shares",
          "type": "uint256"
        }
      ],
      "name": "Deposit",
      "type": "event"
    },
    {
      "anonymous": false,
      "inputs": [
        {
          "indexed": false,
          "internalType": "uint64",
          "name": "version",
          "type": "uint64"
        }
      ],
      "name": "Initialized",
      "type": "event"
    },
    {
      "anonymous": false,
      "inputs": [
        {
          "indexed": true,
          "internalType": "address",
          "name": "previousOwner",
          "type": "address"
        },
        {
          "indexed": true,
          "internalType": "address",
          "name": "newOwner",
          "type": "address"
        }
      ],
      "name": "OwnershipTransferred",
      "type": "event"
    },
    {
      "anonymous": false,
      "inputs": [
        {
          "indexed": false,
          "internalType": "address",
          "name": "account",
          "type": "address"
        }
      ],
      "name": "Paused",
      "type": "event"
    },
    {
      "anonymous": false,
      "inputs": [
        {
          "indexed": true,
          "internalType": "address",
          "name": "from",
          "type": "address"
        },
        {
          "indexed": true,
          "internalType": "address",
          "name": "to",
          "type": "address"
        },
        {
          "indexed": false,
          "internalType": "uint256",
          "name": "value",
          "type": "uint256"
        }
      ],
      "name": "Transfer",
      "type": "event"
    },
    {
      "anonymous": false,
      "inputs": [
        {
          "indexed": false,
          "internalType": "address",
          "name": "account",
          "type": "address"
        }
      ],
      "name": "Unpaused",
      "type": "event"
    },
    {
      "anonymous": false,
      "inputs": [
        {
          "indexed": true,
          "internalType": "address",
          "name": "implementation",
          "type": "address"
        }
      ],
      "name": "Upgraded",
      "type": "event"
    },
    {
      "anonymous": false,
      "inputs": [
        {
          "indexed": true,
          "internalType": "address",
          "name": "sender",
          "type": "address"
        },
        {
          "indexed": true,
          "internalType": "address",
          "name": "receiver",
          "type": "address"
        },
        {
          "indexed": true,
          "internalType": "address",
          "name": "owner",
          "type": "address"
        },
        {
          "indexed": false,
          "internalType": "uint256",
          "name": "assets",
          "type": "uint256"
        },
        {
          "indexed": false,
          "internalType": "uint256",
          "name": "shares",
          "type": "uint256"
        }
      ],
      "name": "Withdraw",
      "type": "event"
    },
    {
      "inputs": [],
      "name": "UPGRADE_INTERFACE_VERSION",
      "outputs": [
        {
          "internalType": "string",
          "name": "",
          "type": "string"
        }
      ],
      "stateMutability": "view",
      "type": "function"
    },
    {
      "inputs": [
        {
          "internalType": "address",
          "name": "owner",
          "type": "address"
        },
        {
          "internalType": "address",
          "name": "spender",
          "type": "address"
        }
      ],
      "name": "allowance",
      "outputs": [
        {
          "internalType": "uint256",
          "name": "",
          "type": "uint256"
        }
      ],
      "stateMutability": "view",
      "type": "function"
    },
    {
      "inputs": [
        {
          "internalType": "address",
          "name": "spender",
          "type": "address"
        },
        {
          "internalType": "uint256",
          "name": "value",
          "type": "uint256"
        }
      ],
      "name": "approve",
      "outputs": [
        {
          "internalType": "bool",
          "name": "",
          "type": "bool"
        }
      ],
      "stateMutability": "nonpayable",
      "type": "function"
    },
    {
      "inputs": [],
      "name": "asset",
      "outputs": [
        {
          "internalType": "address",
          "name": "",
          "type": "address"
        }
      ],
      "stateMutability": "view",
      "type": "function"
    },
    {
      "inputs": [
        {
          "internalType": "address",
          "name": "account",
          "type": "address"
        }
      ],
      "name": "balanceOf",
      "outputs": [
        {
          "internalType": "uint256",
          "name": "",
          "type": "uint256"
        }
      ],
      "stateMutability": "view",
      "type": "function"
    },
    {
      "inputs": [
        {
          "internalType": "uint256",
          "name": "shares",
          "type": "uint256"
        }
      ],
      "name": "convertToAssets",
      "outputs": [
        {
          "internalType": "uint256",
          "name": "",
          "type": "uint256"
        }
      ],
      "stateMutability": "view",
      "type": "function"
    },
    {
      "inputs": [
        {
          "internalType": "uint256",
          "name": "assets",
          "type": "uint256"
        }
      ],
      "name": "convertToShares",
      "outputs": [
        {
          "internalType": "uint256",
          "name": "",
          "type": "uint256"
        }
      ],
      "stateMutability": "view",
      "type": "function"
    },
    {
      "inputs": [],
      "name": "decimals",
      "outputs": [
        {
          "internalType": "uint8",
          "name": "",
          "type": "uint8"
        }
      ],
      "stateMutability": "view",
      "type": "function"
    },
    {
      "inputs": [
        {
          "internalType": "uint256",
          "name": "assets",
          "type": "uint256"
        },
        {
          "internalType": "address",
          "name": "receiver",
          "type": "address"
        }
      ],
      "name": "deposit",
      "outputs": [
        {
          "internalType": "uint256",
          "name": "",
          "type": "uint256"
        }
      ],
      "stateMutability": "nonpayable",
      "type": "function"
    },
    {
      "inputs": [
        {
          "internalType": "address",
          "name": "initialOwner",
          "type": "address"
        },
        {
          "internalType": "address",
          "name": "like",
          "type": "address"
        }
      ],
      "name": "initialize",
      "outputs": [],
      "stateMutability": "nonpayable",
      "type": "function"
    },
    {
      "inputs": [
        {
          "internalType": "address",
          "name": "",
          "type": "address"
        }
      ],
      "name": "maxDeposit",
      "outputs": [
        {
          "internalType": "uint256",
          "name": "",
          "type": "uint256"
        }
      ],
      "stateMutability": "view",
      "type": "function"
    },
    {
      "inputs": [
        {
          "internalType": "address",
          "name": "",
          "type": "address"
        }
      ],
      "name": "maxMint",
      "outputs": [
        {
          "internalType": "uint256",
          "name": "",
          "type": "uint256"
        }
      ],
      "stateMutability": "view",
      "type": "function"
    },
    {
      "inputs": [
        {
          "internalType": "address",
          "name": "owner",
          "type": "address"
        }
      ],
      "name": "maxRedeem",
      "outputs": [
        {
          "internalType": "uint256",
          "name": "",
          "type": "uint256"
        }
      ],
      "stateMutability": "view",
      "type": "function"
    },
    {
      "inputs": [
        {
          "internalType": "address",
          "name": "owner",
          "type": "address"
        }
      ],
      "name": "maxWithdraw",
      "outputs": [
        {
          "internalType": "uint256",
          "name": "",
          "type": "uint256"
        }
      ],
      "stateMutability": "view",
      "type": "function"
    },
    {
      "inputs": [
        {
          "internalType": "uint256",
          "name": "shares",
          "type": "uint256"
        },
        {
          "internalType": "address",
          "name": "receiver",
          "type": "address"
        }
      ],
      "name": "mint",
      "outputs": [
        {
          "internalType": "uint256",
          "name": "",
          "type": "uint256"
        }
      ],
      "stateMutability": "nonpayable",
      "type": "function"
    },
    {
      "inputs": [],
      "name": "name",
      "outputs": [
        {
          "internalType": "string",
          "name": "",
          "type": "string"
        }
      ],
      "stateMutability": "view",
      "type": "function"
    },
    {
      "inputs": [],
      "name": "owner",
      "outputs": [
        {
          "internalType": "address",
          "name": "",
          "type": "address"
        }
      ],
      "stateMutability": "view",
      "type": "function"
    },
    {
      "inputs": [],
      "name": "paused",
      "outputs": [
        {
          "internalType": "bool",
          "name": "",
          "type": "bool"
        }
      ],
      "stateMutability": "view",
      "type": "function"
    },
    {
      "inputs": [
        {
          "internalType": "uint256",
          "name": "assets",
          "type": "uint256"
        }
      ],
      "name": "previewDeposit",
      "outputs": [
        {
          "internalType": "uint256",
          "name": "",
          "type": "uint256"
        }
      ],
      "stateMutability": "view",
      "type": "function"
    },
    {
      "inputs": [
        {
          "internalType": "uint256",
          "name": "shares",
          "type": "uint256"
        }
      ],
      "name": "previewMint",
      "outputs": [
        {
          "internalType": "uint256",
          "name": "",
          "type": "uint256"
        }
      ],
      "stateMutability": "view",
      "type": "function"
    },
    {
      "inputs": [
        {
          "internalType": "uint256",
          "name": "shares",
          "type": "uint256"
        }
      ],
      "name": "previewRedeem",
      "outputs": [
        {
          "internalType": "uint256",
          "name": "",
          "type": "uint256"
        }
      ],
      "stateMutability": "view",
      "type": "function"
    },
    {
      "inputs": [
        {
          "internalType": "uint256",
          "name": "assets",
          "type": "uint256"
        }
      ],
      "name": "previewWithdraw",
      "outputs": [
        {
          "internalType": "uint256",
          "name": "",
          "type": "uint256"
        }
      ],
      "stateMutability": "view",
      "type": "function"
    },
    {
      "inputs": [],
      "name": "proxiableUUID",
      "outputs": [
        {
          "internalType": "bytes32",
          "name": "",
          "type": "bytes32"
        }
      ],
      "stateMutability": "view",
      "type": "function"
    },
    {
      "inputs": [
        {
          "internalType": "uint256",
          "name": "shares",
          "type": "uint256"
        },
        {
          "internalType": "address",
          "name": "receiver",
          "type": "address"
        },
        {
          "internalType": "address",
          "name": "owner",
          "type": "address"
        }
      ],
      "name": "redeem",
      "outputs": [
        {
          "internalType": "uint256",
          "name": "",
          "type": "uint256"
        }
      ],
      "stateMutability": "nonpayable",
      "type": "function"
    },
    {
      "inputs": [],
      "name": "renounceOwnership",
      "outputs": [],
      "stateMutability": "nonpayable",
      "type": "function"
    },
    {
      "inputs": [],
      "name": "symbol",
      "outputs": [
        {
          "internalType": "string",
          "name": "",
          "type": "string"
        }
      ],
      "stateMutability": "view",
      "type": "function"
    },
    {
      "inputs": [],
      "name": "totalAssets",
      "outputs": [
        {
          "internalType": "uint256",
          "name": "",
          "type": "uint256"
        }
      ],
      "stateMutability": "view",
      "type": "function"
    },
    {
      "inputs": [],
      "name": "totalSupply",
      "outputs": [
        {
          "internalType": "uint256",
          "name": "",
          "type": "uint256"
        }
      ],
      "stateMutability": "view",
      "type": "function"
    },
    {
      "inputs": [
        {
          "internalType": "address",
          "name": "to",
          "type": "address"
        },
        {
          "internalType": "uint256",
          "name": "value",
          "type": "uint256"
        }
      ],
      "name": "transfer",
      "outputs": [
        {
          "internalType": "bool",
          "name": "",
          "type": "bool"
        }
      ],
      "stateMutability": "nonpayable",
      "type": "function"
    },
    {
      "inputs": [
        {
          "internalType": "address",
          "name": "from",
          "type": "address"
        },
        {
          "internalType": "address",
          "name": "to",
          "type": "address"
        },
        {
          "internalType": "uint256",
          "name": "value",
          "type": "uint256"
        }
      ],
      "name": "transferFrom",
      "outputs": [
        {
          "internalType": "bool",
          "name": "",
          "type": "bool"
        }
      ],
      "stateMutability": "nonpayable",
      "type": "function"
    },
    {
      "inputs": [
        {
          "internalType": "address",
          "name": "newOwner",
          "type": "address"
        }
      ],
      "name": "transferOwnership",
      "outputs": [],
      "stateMutability": "nonpayable",
      "type": "function"
    },
    {
      "inputs": [
        {
          "internalType": "address",
          "name": "newImplementation",
          "type": "address"
        },
        {
          "internalType": "bytes",
          "name": "data",
          "type": "bytes"
        }
      ],
      "name": "upgradeToAndCall",
      "outputs": [],
      "stateMutability": "payable",
      "type": "function"
    },
    {
      "inputs": [
        {
          "internalType": "uint256",
          "name": "assets",
          "type": "uint256"
        },
        {
          "internalType": "address",
          "name": "receiver",
          "type": "address"
        },
        {
          "internalType": "address",
          "name": "owner",
          "type": "address"
        }
      ],
      "name": "withdraw",
      "outputs": [
        {
          "internalType": "uint256",
          "name": "",
          "type": "uint256"
        }
      ],
      "stateMutability": "nonpayable",
      "type": "function"
    }
  ],
  "bytecode": "0x60a06040523073ffffffffffffffffffffffffffffffffffffffff1660809073ffffffffffffffffffffffffffffffffffffffff1681525034801561004357600080fd5b5061005261005760201b60201c565b6101de565b600061006761015b60201b60201c565b90508060000160089054906101000a900460ff16156100b2576040517ff92ee8a900000000000000000000000000000000000000000000000000000000815260040160405180910390fd5b67ffffffffffffffff80168160000160009054906101000a900467ffffffffffffffff1667ffffffffffffffff16146101585767ffffffffffffffff8160000160006101000a81548167ffffffffffffffff021916908367ffffffffffffffff1602179055507fc7f505b2f371ae2175ee4913f4499e1f2633a7b5936321eed1cdaeb6115181d267ffffffffffffffff60405161014f91906101c3565b60405180910390a15b50565b60008061016c61017560201b60201c565b90508091505090565b60007ff0c57e16840df040f15088dc2f81fe391c3923bec73e23a9662efc9c229c6a0060001b905090565b600067ffffffffffffffff82169050919050565b6101bd816101a0565b82525050565b60006020820190506101d860008301846101b4565b92915050565b6080516138546102076000396000818161163001528181611685015261184001526138546000f3fe6080604052600436106101ee5760003560e01c806370a082311161010d578063b460af94116100a0578063ce96cb771161006f578063ce96cb7714610790578063d905777e146107cd578063dd62ed3e1461080a578063ef8b30f714610847578063f2fde38b14610884576101ee565b8063b460af941461069c578063ba087652146106d9578063c63d75b614610716578063c6e6f59214610753576101ee565b806395d89b41116100dc57806395d89b41146105cc578063a9059cbb146105f7578063ad3cb1cc14610634578063b3d7f6b91461065f576101ee565b806370a0823114610510578063715018a61461054d5780638da5cb5b1461056457806394bf804d1461058f576101ee565b806338d52e0f116101855780634f1ef286116101545780634f1ef2861461046157806352d1902d1461047d5780635c975abb146104a85780636e553f65146104d3576101ee565b806338d52e0f14610393578063402d267d146103be578063485cc955146103fb5780634cdad50614610424576101ee565b80630a28a477116101c15780630a28a477146102c357806318160ddd1461030057806323b872dd1461032b578063313ce56714610368576101ee565b806301e1d114146101f357806306fdde031461021e57806307a2d13a14610249578063095ea7b314610286575b600080fd5b3480156101ff57600080fd5b506102086108ad565b6040516102159190612af1565b60405180910390f35b34801561022a57600080fd5b50610233610935565b6040516102409190612b9c565b60405180910390f35b34801561025557600080fd5b50610270600480360381019061026b9190612bfe565b6109d6565b60405161027d9190612af1565b60405180910390f35b34801561029257600080fd5b506102ad60048036038101906102a89190612c89565b6109ea565b6040516102ba9190612ce4565b60405180910390f35b3480156102cf57600080fd5b506102ea60048036038101906102e59190612bfe565b610a0d565b6040516102f79190612af1565b60405180910390f35b34801561030c57600080fd5b50610315610a21565b6040516103229190612af1565b60405180910390f35b34801561033757600080fd5b50610352600480360381019061034d9190612cff565b610a39565b60405161035f9190612ce4565b60405180910390f35b34801561037457600080fd5b5061037d610a68565b60405161038a9190612d6e565b60405180910390f35b34801561039f57600080fd5b506103a8610a9f565b6040516103b59190612d98565b60405180910390f35b3480156103ca57600080fd5b506103e560048036038101906103e09190612db3565b610ad7565b6040516103f29190612af1565b60405180910390f35b34801561040757600080fd5b50610422600480360381019061041d9190612de0565b610b01565b005b34801561043057600080fd5b5061044b60048036038101906104469190612bfe565b610d26565b6040516104589190612af1565b60405180910390f35b61047b60048036038101906104769190612f55565b610d3a565b005b34801561048957600080fd5b50610492610d59565b60405161049f9190612fca565b60405180910390f35b3480156104b457600080fd5b506104bd610d8c565b6040516104ca9190612ce4565b60405180910390f35b3480156104df57600080fd5b506104fa60048036038101906104f59190612fe5565b610db1565b6040516105079190612af1565b60405180910390f35b34801561051c57600080fd5b5061053760048036038101906105329190612db3565b610e33565b6040516105449190612af1565b60405180910390f35b34801561055957600080fd5b50610562610e8a565b005b34801561057057600080fd5b50610579610e9e565b6040516105869190612d98565b60405180910390f35b34801561059b57600080fd5b506105b660048036038101906105b19190612fe5565b610ed6565b6040516105c39190612af1565b60405180910390f35b3480156105d857600080fd5b506105e1610f58565b6040516105ee9190612b9c565b60405180910390f35b34801561060357600080fd5b5061061e60048036038101906106199190612c89565b610ff9565b60405161062b9190612ce4565b60405180910390f35b34801561064057600080fd5b5061064961101c565b6040516106569190612b9c565b60405180910390f35b34801561066b57600080fd5b5061068660048036038101906106819190612bfe565b611055565b6040516106939190612af1565b60405180910390f35b3480156106a857600080fd5b506106c360048036038101906106be9190613025565b611069565b6040516106d09190612af1565b60405180910390f35b3480156106e557600080fd5b5061070060048036038101906106fb9190613025565b6110ed565b60405161070d9190612af1565b60405180910390f35b34801561072257600080fd5b5061073d60048036038101906107389190612db3565b611171565b60405161074a9190612af1565b60405180910390f35b34801561075f57600080fd5b5061077a60048036038101906107759190612bfe565b61119b565b6040516107879190612af1565b60405180910390f35b34801561079c57600080fd5b506107b760048036038101906107b29190612db3565b6111af565b6040516107c49190612af1565b60405180910390f35b3480156107d957600080fd5b506107f460048036038101906107ef9190612db3565b6111cb565b6040516108019190612af1565b60405180910390f35b34801561081657600080fd5b50610831600480360381019061082c9190612de0565b6111dd565b60405161083e9190612af1565b60405180910390f35b34801561085357600080fd5b5061086e60048036038101906108699190612bfe565b611272565b60405161087b9190612af1565b60405180910390f35b34801561089057600080fd5b506108ab60048036038101906108a69190612db3565b611286565b005b60006108b7610a9f565b73ffffffffffffffffffffffffffffffffffffffff166370a08231306040518263ffffffff1660e01b81526004016108ef9190612d98565b602060405180830381865afa15801561090c573d6000803e3d6000fd5b505050506040513d601f19601f82011682018060405250810190610930919061308d565b905090565b6060600061094161130c565b9050806003018054610952906130e9565b80601f016020809104026020016040519081016040528092919081815260200182805461097e906130e9565b80156109cb5780601f106109a0576101008083540402835291602001916109cb565b820191906000526020600020905b8154815290600101906020018083116109ae57829003601f168201915b505050505091505090565b60006109e3826000611334565b9050919050565b6000806109f561138d565b9050610a02818585611395565b600191505092915050565b6000610a1a8260016113a7565b9050919050565b600080610a2c61130c565b9050806002015491505090565b600080610a4461138d565b9050610a51858285611400565b610a5c858585611495565b60019150509392505050565b600080610a73611589565b9050610a7d6115b1565b8160000160149054906101000a900460ff16610a999190613149565b91505090565b600080610aaa611589565b90508060000160009054906101000a900473ffffffffffffffffffffffffffffffffffffffff1691505090565b60007fffffffffffffffffffffffffffffffffffffffffffffffffffffffffffffffff9050919050565b6000610b0b6115b6565b905060008160000160089054906101000a900460ff1615905060008260000160009054906101000a900467ffffffffffffffff1690506000808267ffffffffffffffff16148015610b595750825b9050600060018367ffffffffffffffff16148015610b8e575060003073ffffffffffffffffffffffffffffffffffffffff163b145b905081158015610b9c575080155b15610bd3576040517ff92ee8a900000000000000000000000000000000000000000000000000000000815260040160405180910390fd5b60018560000160006101000a81548167ffffffffffffffff021916908367ffffffffffffffff1602179055508315610c235760018560000160086101000a81548160ff0219169083151502179055505b610c2c866115ca565b610ca06040518060400160405280601681526020017f766f74652d657363726f776564204c696b65436f696e000000000000000000008152506040518060400160405280600681526020017f76654c494b4500000000000000000000000000000000000000000000000000008152506115de565b610ca86115f4565b610cb06115fe565b610cb987611610565b610cc1611624565b8315610d1d5760008560000160086101000a81548160ff0219169083151502179055507fc7f505b2f371ae2175ee4913f4499e1f2633a7b5936321eed1cdaeb6115181d26001604051610d1491906131d7565b60405180910390a15b50505050505050565b6000610d33826000611334565b9050919050565b610d4261162e565b610d4b82611714565b610d55828261171f565b5050565b6000610d6361183e565b7f360894a13ba1a3210667c828492db98dca3e2076cc3735a920a3ca505d382bbc60001b905090565b600080610d976118c5565b90508060000160009054906101000a900460ff1691505090565b600080610dbd83610ad7565b905080841115610e08578284826040517f79012fb2000000000000000000000000000000000000000000000000000000008152600401610dff939291906131f2565b60405180910390fd5b6000610e1385611272565b9050610e28610e2061138d565b8587846118ed565b809250505092915050565b600080610e3e61130c565b90508060000160008473ffffffffffffffffffffffffffffffffffffffff1673ffffffffffffffffffffffffffffffffffffffff16815260200190815260200160002054915050919050565b610e92611977565b610e9c60006119fe565b565b600080610ea9611ad5565b90508060000160009054906101000a900473ffffffffffffffffffffffffffffffffffffffff1691505090565b600080610ee283611171565b905080841115610f2d578284826040517f284ff667000000000000000000000000000000000000000000000000000000008152600401610f24939291906131f2565b60405180910390fd5b6000610f3885611055565b9050610f4d610f4561138d565b8583886118ed565b809250505092915050565b60606000610f6461130c565b9050806004018054610f75906130e9565b80601f0160208091040260200160405190810160405280929190818152602001828054610fa1906130e9565b8015610fee5780601f10610fc357610100808354040283529160200191610fee565b820191906000526020600020905b815481529060010190602001808311610fd157829003601f168201915b505050505091505090565b60008061100461138d565b9050611011818585611495565b600191505092915050565b6040518060400160405280600581526020017f352e302e3000000000000000000000000000000000000000000000000000000081525081565b6000611062826001611334565b9050919050565b600080611075836111af565b9050808511156110c0578285826040517ffe9cceec0000000000000000000000000000000000000000000000000000000081526004016110b7939291906131f2565b60405180910390fd5b60006110cb86610a0d565b90506110e16110d861138d565b86868985611afd565b80925050509392505050565b6000806110f9836111cb565b905080851115611144578285826040517fb94abeec00000000000000000000000000000000000000000000000000000000815260040161113b939291906131f2565b60405180910390fd5b600061114f86610d26565b905061116561115c61138d565b8686848a611afd565b80925050509392505050565b60007fffffffffffffffffffffffffffffffffffffffffffffffffffffffffffffffff9050919050565b60006111a88260006113a7565b9050919050565b60006111c46111bd83610e33565b6000611334565b9050919050565b60006111d682610e33565b9050919050565b6000806111e861130c565b90508060010160008573ffffffffffffffffffffffffffffffffffffffff1673ffffffffffffffffffffffffffffffffffffffff16815260200190815260200160002060008473ffffffffffffffffffffffffffffffffffffffff1673ffffffffffffffffffffffffffffffffffffffff1681526020019081526020016000205491505092915050565b600061127f8260006113a7565b9050919050565b61128e611977565b600073ffffffffffffffffffffffffffffffffffffffff168173ffffffffffffffffffffffffffffffffffffffff16036113005760006040517f1e4fbdf70000000000000000000000000000000000000000000000000000000081526004016112f79190612d98565b60405180910390fd5b611309816119fe565b50565b60007f52c63247e1f47db19d5ce0460030c497f067ca4cebf71ba98eeadabe20bace00905090565b600061138560016113436108ad565b61134d9190613229565b6113556115b1565b600a6113619190613390565b611369610a21565b6113739190613229565b8486611bdd909392919063ffffffff16565b905092915050565b600033905090565b6113a28383836001611c2c565b505050565b60006113f86113b46115b1565b600a6113c09190613390565b6113c8610a21565b6113d29190613229565b60016113dc6108ad565b6113e69190613229565b8486611bdd909392919063ffffffff16565b905092915050565b600061140c84846111dd565b90507fffffffffffffffffffffffffffffffffffffffffffffffffffffffffffffffff81101561148f578181101561147f578281836040517ffb8f41b2000000000000000000000000000000000000000000000000000000008152600401611476939291906131f2565b60405180910390fd5b61148e84848484036000611c2c565b5b50505050565b600073ffffffffffffffffffffffffffffffffffffffff168373ffffffffffffffffffffffffffffffffffffffff16036115075760006040517f96c6fd1e0000000000000000000000000000000000000000000000000000000081526004016114fe9190612d98565b60405180910390fd5b600073ffffffffffffffffffffffffffffffffffffffff168273ffffffffffffffffffffffffffffffffffffffff16036115795760006040517fec442f050000000000000000000000000000000000000000000000000000000081526004016115709190612d98565b60405180910390fd5b611584838383611e12565b505050565b60007f0773e532dfede91f04b12a73d3d2acd361424f41f76b4fb79f090161e36b4e00905090565b600090565b6000806115c1612051565b90508091505090565b6115d261207c565b6115db816120bc565b50565b6115e661207c565b6115f08282612153565b5050565b6115fc61207c565b565b61160661207c565b61160e612190565b565b61161861207c565b611621816121b1565b50565b61162c61207c565b565b7f000000000000000000000000000000000000000000000000000000000000000073ffffffffffffffffffffffffffffffffffffffff163073ffffffffffffffffffffffffffffffffffffffff1614806116db57507f000000000000000000000000000000000000000000000000000000000000000073ffffffffffffffffffffffffffffffffffffffff166116c2612237565b73ffffffffffffffffffffffffffffffffffffffff1614155b15611712576040517fe07c8dba00000000000000000000000000000000000000000000000000000000815260040160405180910390fd5b565b61171c611977565b50565b8173ffffffffffffffffffffffffffffffffffffffff166352d1902d6040518163ffffffff1660e01b8152600401602060405180830381865afa92505050801561178757506040513d601f19601f820116820180604052508101906117849190613407565b60015b6117c857816040517f4c9c8ce30000000000000000000000000000000000000000000000000000000081526004016117bf9190612d98565b60405180910390fd5b7f360894a13ba1a3210667c828492db98dca3e2076cc3735a920a3ca505d382bbc60001b811461182f57806040517faa1d49a40000000000000000000000000000000000000000000000000000000081526004016118269190612fca565b60405180910390fd5b611839838361228e565b505050565b7f000000000000000000000000000000000000000000000000000000000000000073ffffffffffffffffffffffffffffffffffffffff163073ffffffffffffffffffffffffffffffffffffffff16146118c3576040517fe07c8dba00000000000000000000000000000000000000000000000000000000815260040160405180910390fd5b565b60007fcd5ed15c6e187e77e9aee88184c21f4f2182ab5827cb3b7e07fbedcd63f03300905090565b6119006118f8610a9f565b853085612301565b61190a8382612383565b8273ffffffffffffffffffffffffffffffffffffffff168473ffffffffffffffffffffffffffffffffffffffff167fdcbc1c05240f31ff3ad067ef1ee35ce4997762752e3a095284754544f4c709d78484604051611969929190613434565b60405180910390a350505050565b61197f61138d565b73ffffffffffffffffffffffffffffffffffffffff1661199d610e9e565b73ffffffffffffffffffffffffffffffffffffffff16146119fc576119c061138d565b6040517f118cdaa70000000000000000000000000000000000000000000000000000000081526004016119f39190612d98565b60405180910390fd5b565b6000611a08611ad5565b905060008160000160009054906101000a900473ffffffffffffffffffffffffffffffffffffffff169050828260000160006101000a81548173ffffffffffffffffffffffffffffffffffffffff021916908373ffffffffffffffffffffffffffffffffffffffff1602179055508273ffffffffffffffffffffffffffffffffffffffff168173ffffffffffffffffffffffffffffffffffffffff167f8be0079c531659141344cd1fd0a4f28419497f9722a3daafe3b4186f6b6457e060405160405180910390a3505050565b60007f9016d09d72d40fdae2fd8ceac6b6234c7706214fd39c1cd1e609a0528c199300905090565b8273ffffffffffffffffffffffffffffffffffffffff168573ffffffffffffffffffffffffffffffffffffffff1614611b3c57611b3b838683611400565b5b611b468382612405565b611b58611b51610a9f565b8584612487565b8273ffffffffffffffffffffffffffffffffffffffff168473ffffffffffffffffffffffffffffffffffffffff168673ffffffffffffffffffffffffffffffffffffffff167ffbde797d201c681b91056529119e0b02407c7bb96a4a2c75c01fc9667232c8db8585604051611bce929190613434565b60405180910390a45050505050565b6000611c0d611beb83612506565b8015611c08575060008480611c0357611c0261345d565b5b868809115b612534565b611c18868686612540565b611c229190613229565b9050949350505050565b6000611c3661130c565b9050600073ffffffffffffffffffffffffffffffffffffffff168573ffffffffffffffffffffffffffffffffffffffff1603611caa5760006040517fe602df05000000000000000000000000000000000000000000000000000000008152600401611ca19190612d98565b60405180910390fd5b600073ffffffffffffffffffffffffffffffffffffffff168473ffffffffffffffffffffffffffffffffffffffff1603611d1c5760006040517f94280d62000000000000000000000000000000000000000000000000000000008152600401611d139190612d98565b60405180910390fd5b828160010160008773ffffffffffffffffffffffffffffffffffffffff1673ffffffffffffffffffffffffffffffffffffffff16815260200190815260200160002060008673ffffffffffffffffffffffffffffffffffffffff1673ffffffffffffffffffffffffffffffffffffffff168152602001908152602001600020819055508115611e0b578373ffffffffffffffffffffffffffffffffffffffff168573ffffffffffffffffffffffffffffffffffffffff167f8c5be1e5ebec7d5bd14f71427d1e84f3dd0314c0f7b2291e5b200ac8c7c3b92585604051611e029190612af1565b60405180910390a35b5050505050565b6000611e1c61130c565b9050600073ffffffffffffffffffffffffffffffffffffffff168473ffffffffffffffffffffffffffffffffffffffff1603611e725781816002016000828254611e669190613229565b92505081905550611f4b565b60008160000160008673ffffffffffffffffffffffffffffffffffffffff1673ffffffffffffffffffffffffffffffffffffffff16815260200190815260200160002054905082811015611f01578481846040517fe450d38c000000000000000000000000000000000000000000000000000000008152600401611ef8939291906131f2565b60405180910390fd5b8281038260000160008773ffffffffffffffffffffffffffffffffffffffff1673ffffffffffffffffffffffffffffffffffffffff16815260200190815260200160002081905550505b600073ffffffffffffffffffffffffffffffffffffffff168373ffffffffffffffffffffffffffffffffffffffff1603611f9657818160020160008282540392505081905550611fe6565b818160000160008573ffffffffffffffffffffffffffffffffffffffff1673ffffffffffffffffffffffffffffffffffffffff168152602001908152602001600020600082825401925050819055505b8273ffffffffffffffffffffffffffffffffffffffff168473ffffffffffffffffffffffffffffffffffffffff167fddf252ad1be2c89b69c2b068fc378daa952ba7f163c4a11628f55a4df523b3ef846040516120439190612af1565b60405180910390a350505050565b60007ff0c57e16840df040f15088dc2f81fe391c3923bec73e23a9662efc9c229c6a0060001b905090565b612084612628565b6120ba576040517fd7e6bcf800000000000000000000000000000000000000000000000000000000815260040160405180910390fd5b565b6120c461207c565b60006120ce611589565b90506000806120dc84612648565b91509150816120ec5760126120ee565b805b8360000160146101000a81548160ff021916908360ff160217905550838360000160006101000a81548173ffffffffffffffffffffffffffffffffffffffff021916908373ffffffffffffffffffffffffffffffffffffffff16021790555050505050565b61215b61207c565b600061216561130c565b905082816003019081612178919061362e565b508181600401908161218a919061362e565b50505050565b61219861207c565b60006121a2612758565b90506001816000018190555050565b6121b961207c565b600073ffffffffffffffffffffffffffffffffffffffff168173ffffffffffffffffffffffffffffffffffffffff160361222b5760006040517f1e4fbdf70000000000000000000000000000000000000000000000000000000081526004016122229190612d98565b60405180910390fd5b612234816119fe565b50565b60006122657f360894a13ba1a3210667c828492db98dca3e2076cc3735a920a3ca505d382bbc60001b612780565b60000160009054906101000a900473ffffffffffffffffffffffffffffffffffffffff16905090565b6122978261278a565b8173ffffffffffffffffffffffffffffffffffffffff167fbc7cd75a20ee27fd9adebab32041f755214dbc6bffa90cc0225b39da2e5c2d3b60405160405180910390a26000815111156122f4576122ee8282612857565b506122fd565b6122fc6128db565b5b5050565b61237d848573ffffffffffffffffffffffffffffffffffffffff166323b872dd86868660405160240161233693929190613700565b604051602081830303815290604052915060e01b6020820180517bffffffffffffffffffffffffffffffffffffffffffffffffffffffff8381831617835250505050612918565b50505050565b600073ffffffffffffffffffffffffffffffffffffffff168273ffffffffffffffffffffffffffffffffffffffff16036123f55760006040517fec442f050000000000000000000000000000000000000000000000000000000081526004016123ec9190612d98565b60405180910390fd5b61240160008383611e12565b5050565b600073ffffffffffffffffffffffffffffffffffffffff168273ffffffffffffffffffffffffffffffffffffffff16036124775760006040517f96c6fd1e00000000000000000000000000000000000000000000000000000000815260040161246e9190612d98565b60405180910390fd5b61248382600083611e12565b5050565b612501838473ffffffffffffffffffffffffffffffffffffffff1663a9059cbb85856040516024016124ba929190613737565b604051602081830303815290604052915060e01b6020820180517bffffffffffffffffffffffffffffffffffffffffffffffffffffffff8381831617835250505050612918565b505050565b60006001600283600381111561251f5761251e613760565b5b612529919061378f565b60ff16149050919050565b60008115159050919050565b600080600061254f86866129ba565b91509150600082036125755783818161256b5761256a61345d565b5b0492505050612621565b8184116125955761259461258f60008614601260116129d9565b6129f3565b5b600084868809905081811183039250808203915060008560000386169050808604955080830492506001818260000304019050808402831792506000600287600302189050808702600203810290508087026002038102905080870260020381029050808702600203810290508087026002038102905080870260020381029050808402955050505050505b9392505050565b60006126326115b6565b60000160089054906101000a900460ff16905090565b6000806000808473ffffffffffffffffffffffffffffffffffffffff1660405160240160405160208183030381529060405263313ce56760e01b6020820180517bffffffffffffffffffffffffffffffffffffffffffffffffffffffff83818316178352505050506040516126bd9190613807565b600060405180830381855afa9150503d80600081146126f8576040519150601f19603f3d011682016040523d82523d6000602084013e6126fd565b606091505b509150915081801561271157506020815110155b156127495760008180602001905181019061272c919061308d565b905060ff801681116127475760018194509450505050612753565b505b6000809350935050505b915091565b60007f9b779b17422d0df92223018b32b4d1fa46e071723d6817e2486d003becc55f00905090565b6000819050919050565b60008173ffffffffffffffffffffffffffffffffffffffff163b036127e657806040517f4c9c8ce30000000000000000000000000000000000000000000000000000000081526004016127dd9190612d98565b60405180910390fd5b806128137f360894a13ba1a3210667c828492db98dca3e2076cc3735a920a3ca505d382bbc60001b612780565b60000160006101000a81548173ffffffffffffffffffffffffffffffffffffffff021916908373ffffffffffffffffffffffffffffffffffffffff16021790555050565b60606000808473ffffffffffffffffffffffffffffffffffffffff16846040516128819190613807565b600060405180830381855af49150503d80600081146128bc576040519150601f19603f3d011682016040523d82523d6000602084013e6128c1565b606091505b50915091506128d1858383612a05565b9250505092915050565b6000341115612916576040517fb398979f00000000000000000000000000000000000000000000000000000000815260040160405180910390fd5b565b600080602060008451602086016000885af18061293b576040513d6000823e3d81fd5b3d925060005191505060008214612956576001811415612972565b60008473ffffffffffffffffffffffffffffffffffffffff163b145b156129b457836040517f5274afe70000000000000000000000000000000000000000000000000000000081526004016129ab9190612d98565b60405180910390fd5b50505050565b6000806000198385098385029150818110828203039250509250929050565b60006129e484612534565b82841802821890509392505050565b634e487b71600052806020526024601cfd5b606082612a1a57612a1582612a94565b612a8c565b60008251148015612a42575060008473ffffffffffffffffffffffffffffffffffffffff163b145b15612a8457836040517f9996b315000000000000000000000000000000000000000000000000000000008152600401612a7b9190612d98565b60405180910390fd5b819050612a8d565b5b9392505050565b600081511115612aa657805160208201fd5b6040517fd6bda27500000000000000000000000000000000000000000000000000000000815260040160405180910390fd5b6000819050919050565b612aeb81612ad8565b82525050565b6000602082019050612b066000830184612ae2565b92915050565b600081519050919050565b600082825260208201905092915050565b60005b83811015612b46578082015181840152602081019050612b2b565b60008484015250505050565b6000601f19601f8301169050919050565b6000612b6e82612b0c565b612b788185612b17565b9350612b88818560208601612b28565b612b9181612b52565b840191505092915050565b60006020820190508181036000830152612bb68184612b63565b905092915050565b6000604051905090565b600080fd5b600080fd5b612bdb81612ad8565b8114612be657600080fd5b50565b600081359050612bf881612bd2565b92915050565b600060208284031215612c1457612c13612bc8565b5b6000612c2284828501612be9565b91505092915050565b600073ffffffffffffffffffffffffffffffffffffffff82169050919050565b6000612c5682612c2b565b9050919050565b612c6681612c4b565b8114612c7157600080fd5b50565b600081359050612c8381612c5d565b92915050565b60008060408385031215612ca057612c9f612bc8565b5b6000612cae85828601612c74565b9250506020612cbf85828601612be9565b9150509250929050565b60008115159050919050565b612cde81612cc9565b82525050565b6000602082019050612cf96000830184612cd5565b92915050565b600080600060608486031215612d1857612d17612bc8565b5b6000612d2686828701612c74565b9350506020612d3786828701612c74565b9250506040612d4886828701612be9565b9150509250925092565b600060ff82169050919050565b612d6881612d52565b82525050565b6000602082019050612d836000830184612d5f565b92915050565b612d9281612c4b565b82525050565b6000602082019050612dad6000830184612d89565b92915050565b600060208284031215612dc957612dc8612bc8565b5b6000612dd784828501612c74565b91505092915050565b60008060408385031215612df757612df6612bc8565b5b6000612e0585828601612c74565b9250506020612e1685828601612c74565b9150509250929050565b600080fd5b600080fd5b7f4e487b7100000000000000000000000000000000000000000000000000000000600052604160045260246000fd5b612e6282612b52565b810181811067ffffffffffffffff82111715612e8157612e80612e2a565b5b80604052505050565b6000612e94612bbe565b9050612ea08282612e59565b919050565b600067ffffffffffffffff821115612ec057612ebf612e2a565b5b612ec982612b52565b9050602081019050919050565b82818337600083830152505050565b6000612ef8612ef384612ea5565b612e8a565b905082815260208101848484011115612f1457612f13612e25565b5b612f1f848285612ed6565b509392505050565b600082601f830112612f3c57612f3b612e20565b5b8135612f4c848260208601612ee5565b91505092915050565b60008060408385031215612f6c57612f6b612bc8565b5b6000612f7a85828601612c74565b925050602083013567ffffffffffffffff811115612f9b57612f9a612bcd565b5b612fa785828601612f27565b9150509250929050565b6000819050919050565b612fc481612fb1565b82525050565b6000602082019050612fdf6000830184612fbb565b92915050565b60008060408385031215612ffc57612ffb612bc8565b5b600061300a85828601612be9565b925050602061301b85828601612c74565b9150509250929050565b60008060006060848603121561303e5761303d612bc8565b5b600061304c86828701612be9565b935050602061305d86828701612c74565b925050604061306e86828701612c74565b9150509250925092565b60008151905061308781612bd2565b92915050565b6000602082840312156130a3576130a2612bc8565b5b60006130b184828501613078565b91505092915050565b7f4e487b7100000000000000000000000000000000000000000000000000000000600052602260045260246000fd5b6000600282049050600182168061310157607f821691505b602082108103613114576131136130ba565b5b50919050565b7f4e487b7100000000000000000000000000000000000000000000000000000000600052601160045260246000fd5b600061315482612d52565b915061315f83612d52565b9250828201905060ff8111156131785761317761311a565b5b92915050565b6000819050919050565b600067ffffffffffffffff82169050919050565b6000819050919050565b60006131c16131bc6131b78461317e565b61319c565b613188565b9050919050565b6131d1816131a6565b82525050565b60006020820190506131ec60008301846131c8565b92915050565b60006060820190506132076000830186612d89565b6132146020830185612ae2565b6132216040830184612ae2565b949350505050565b600061323482612ad8565b915061323f83612ad8565b92508282019050808211156132575761325661311a565b5b92915050565b60008160011c9050919050565b6000808291508390505b60018511156132b4578086048111156132905761328f61311a565b5b600185161561329f5780820291505b80810290506132ad8561325d565b9450613274565b94509492505050565b6000826132cd5760019050613389565b816132db5760009050613389565b81600181146132f157600281146132fb5761332a565b6001915050613389565b60ff84111561330d5761330c61311a565b5b8360020a9150848211156133245761332361311a565b5b50613389565b5060208310610133831016604e8410600b841016171561335f5782820a90508381111561335a5761335961311a565b5b613389565b61336c848484600161326a565b925090508184048111156133835761338261311a565b5b81810290505b9392505050565b600061339b82612ad8565b91506133a683612d52565b92506133d37fffffffffffffffffffffffffffffffffffffffffffffffffffffffffffffffff84846132bd565b905092915050565b6133e481612fb1565b81146133ef57600080fd5b50565b600081519050613401816133db565b92915050565b60006020828403121561341d5761341c612bc8565b5b600061342b848285016133f2565b91505092915050565b60006040820190506134496000830185612ae2565b6134566020830184612ae2565b9392505050565b7f4e487b7100000000000000000000000000000000000000000000000000000000600052601260045260246000fd5b60008190508160005260206000209050919050565b60006020601f8301049050919050565b600082821b905092915050565b6000600883026134ee7fffffffffffffffffffffffffffffffffffffffffffffffffffffffffffffffff826134b1565b6134f886836134b1565b95508019841693508086168417925050509392505050565b600061352b61352661352184612ad8565b61319c565b612ad8565b9050919050565b6000819050919050565b61354583613510565b61355961355182613532565b8484546134be565b825550505050565b600090565b61356e613561565b61357981848461353c565b505050565b5b8181101561359d57613592600082613566565b60018101905061357f565b5050565b601f8211156135e2576135b38161348c565b6135bc846134a1565b810160208510156135cb578190505b6135df6135d7856134a1565b83018261357e565b50505b505050565b600082821c905092915050565b6000613605600019846008026135e7565b1980831691505092915050565b600061361e83836135f4565b9150826002028217905092915050565b61363782612b0c565b67ffffffffffffffff8111156136505761364f612e2a565b5b61365a82546130e9565b6136658282856135a1565b600060209050601f8311600181146136985760008415613686578287015190505b6136908582613612565b8655506136f8565b601f1984166136a68661348c565b60005b828110156136ce578489015182556001820191506020850194506020810190506136a9565b868310156136eb57848901516136e7601f8916826135f4565b8355505b6001600288020188555050505b505050505050565b60006060820190506137156000830186612d89565b6137226020830185612d89565b61372f6040830184612ae2565b949350505050565b600060408201905061374c6000830185612d89565b6137596020830184612ae2565b9392505050565b7f4e487b7100000000000000000000000000000000000000000000000000000000600052602160045260246000fd5b600061379a82612d52565b91506137a583612d52565b9250826137b5576137b461345d565b5b828206905092915050565b600081519050919050565b600081905092915050565b60006137e1826137c0565b6137eb81856137cb565b93506137fb818560208601612b28565b80840191505092915050565b600061381382846137d6565b91508190509291505056fea2646970667358221220ec98ddecabe60d102b409b7c93c3417109648d004e401a212cb3ef2eb96f89b964736f6c634300081c0033",
  "linkReferences": {},
  "deployedLinkReferences": {}
}