{
  "_format": "hh-sol-artifact-1",
  "contractName": "veLikeReward",
  "sourceName": "contracts/veLikeRewardV2.sol",
  "abi": [
    {
      "inputs": [],
      "stateMutability": "nonpayable",
      "type": "constructor"
    },
    {
      "inputs": [
        {
          "internalType": "address",
          "name": "target",
          "type": "address"
        }
      ],
      "name": "AddressEmptyCode",
      "type": "error"
    },
    {
      "inputs": [
        {
          "internalType": "address",
          "name": "implementation",
          "type": "address"
        }
      ],
      "name": "ERC1967InvalidImplementation",
      "type": "error"
    },
    {
      "inputs": [],
      "name": "ERC1967NonPayable",
      "type": "error"
    },
    {
      "inputs": [],
      "name": "EnforcedPause",
      "type": "error"
    },
    {
      "inputs": [],
      "name": "ErrConflictCondition",
      "type": "error"
    },
    {
      "inputs": [],
      "name": "ErrNoRewardToClaim",
      "type": "error"
    },
    {
      "inputs": [],
      "name": "ErrUnauthorized",
      "type": "error"
    },
    {
      "inputs": [],
      "name": "ErrWithdrawLocked",
      "type": "error"
    },
    {
      "inputs": [],
      "name": "ExpectedPause",
      "type": "error"
    },
    {
      "inputs": [],
      "name": "FailedCall",
      "type": "error"
    },
    {
      "inputs": [],
      "name": "InvalidInitialization",
      "type": "error"
    },
    {
      "inputs": [],
      "name": "NotInitializing",
      "type": "error"
    },
    {
      "inputs": [
        {
          "internalType": "address",
          "name": "owner",
          "type": "address"
        }
      ],
      "name": "OwnableInvalidOwner",
      "type": "error"
    },
    {
      "inputs": [
        {
          "internalType": "address",
          "name": "account",
          "type": "address"
        }
      ],
      "name": "OwnableUnauthorizedAccount",
      "type": "error"
    },
    {
      "inputs": [],
      "name": "ReentrancyGuardReentrantCall",
      "type": "error"
    },
    {
      "inputs": [
        {
          "internalType": "address",
          "name": "token",
          "type": "address"
        }
      ],
      "name": "SafeERC20FailedOperation",
      "type": "error"
    },
    {
      "inputs": [],
      "name": "UUPSUnauthorizedCallContext",
      "type": "error"
    },
    {
      "inputs": [
        {
          "internalType": "bytes32",
          "name": "slot",
          "type": "bytes32"
        }
      ],
      "name": "UUPSUnsupportedProxiableUUID",
      "type": "error"
    },
    {
      "anonymous": false,
      "inputs": [
        {
          "indexed": false,
          "internalType": "uint64",
          "name": "version",
          "type": "uint64"
        }
      ],
      "name": "Initialized",
      "type": "event"
    },
    {
      "anonymous": false,
      "inputs": [
        {
          "indexed": true,
          "internalType": "address",
          "name": "previousOwner",
          "type": "address"
        },
        {
          "indexed": true,
          "internalType": "address",
          "name": "newOwner",
          "type": "address"
        }
      ],
      "name": "OwnershipTransferred",
      "type": "event"
    },
    {
      "anonymous": false,
      "inputs": [
        {
          "indexed": false,
          "internalType": "address",
          "name": "account",
          "type": "address"
        }
      ],
      "name": "Paused",
      "type": "event"
    },
    {
      "anonymous": false,
      "inputs": [
        {
          "indexed": false,
          "internalType": "address",
          "name": "account",
          "type": "address"
        }
      ],
      "name": "Unpaused",
      "type": "event"
    },
    {
      "anonymous": false,
      "inputs": [
        {
          "indexed": true,
          "internalType": "address",
          "name": "implementation",
          "type": "address"
        }
      ],
      "name": "Upgraded",
      "type": "event"
    },
    {
      "inputs": [],
      "name": "ACC_REWARD_PRECISION",
      "outputs": [
        {
          "internalType": "uint256",
          "name": "",
          "type": "uint256"
        }
      ],
      "stateMutability": "view",
      "type": "function"
    },
    {
      "inputs": [],
      "name": "UPGRADE_INTERFACE_VERSION",
      "outputs": [
        {
          "internalType": "string",
          "name": "",
          "type": "string"
        }
      ],
      "stateMutability": "view",
      "type": "function"
    },
    {
      "inputs": [
        {
          "internalType": "address",
          "name": "account",
          "type": "address"
        },
        {
          "internalType": "bool",
          "name": "restake",
          "type": "bool"
        }
      ],
      "name": "_claimReward",
      "outputs": [
        {
          "internalType": "uint256",
          "name": "",
          "type": "uint256"
        }
      ],
      "stateMutability": "nonpayable",
      "type": "function"
    },
    {
      "inputs": [
        {
          "internalType": "address",
          "name": "drawer",
          "type": "address"
        },
        {
          "internalType": "uint256",
          "name": "rewardAmount",
          "type": "uint256"
        },
        {
          "internalType": "uint256",
          "name": "startTime",
          "type": "uint256"
        },
        {
          "internalType": "uint256",
          "name": "endTime",
          "type": "uint256"
        }
      ],
      "name": "addReward",
      "outputs": [],
      "stateMutability": "nonpayable",
      "type": "function"
    },
    {
      "inputs": [
        {
          "internalType": "address",
          "name": "account",
          "type": "address"
        },
        {
          "internalType": "bool",
          "name": "restake",
          "type": "bool"
        }
      ],
      "name": "claimReward",
      "outputs": [
        {
          "internalType": "uint256",
          "name": "",
          "type": "uint256"
        }
      ],
      "stateMutability": "nonpayable",
      "type": "function"
    },
    {
      "inputs": [
        {
          "internalType": "address",
          "name": "account",
          "type": "address"
        },
        {
          "internalType": "uint256",
          "name": "stakedAmount",
          "type": "uint256"
        }
      ],
      "name": "deposit",
      "outputs": [],
      "stateMutability": "nonpayable",
      "type": "function"
    },
    {
      "inputs": [
        {
          "internalType": "address",
          "name": "account",
          "type": "address"
        }
      ],
      "name": "getClaimedReward",
      "outputs": [
        {
          "internalType": "uint256",
          "name": "",
          "type": "uint256"
        }
      ],
      "stateMutability": "view",
      "type": "function"
    },
    {
      "inputs": [],
      "name": "getConfig",
      "outputs": [
        {
          "internalType": "address",
          "name": "",
          "type": "address"
        },
        {
          "internalType": "address",
          "name": "",
          "type": "address"
        },
        {
          "internalType": "uint256",
          "name": "",
          "type": "uint256"
        },
        {
          "internalType": "uint256",
          "name": "",
          "type": "uint256"
        },
        {
          "internalType": "uint256",
          "name": "",
          "type": "uint256"
        }
      ],
      "stateMutability": "view",
      "type": "function"
    },
    {
      "inputs": [],
      "name": "getCurrentCondition",
      "outputs": [
        {
          "components": [
            {
              "internalType": "uint256",
              "name": "startTime",
              "type": "uint256"
            },
            {
              "internalType": "uint256",
              "name": "endTime",
              "type": "uint256"
            },
            {
              "internalType": "uint256",
              "name": "rewardAmount",
              "type": "uint256"
            },
            {
              "internalType": "uint256",
              "name": "rewardIndex",
              "type": "uint256"
            }
          ],
          "internalType": "struct veLikeReward.StakingCondition",
          "name": "",
          "type": "tuple"
        }
      ],
      "stateMutability": "view",
      "type": "function"
    },
    {
      "inputs": [],
      "name": "getLastRewardTime",
      "outputs": [
        {
          "internalType": "uint256",
          "name": "",
          "type": "uint256"
        }
      ],
      "stateMutability": "view",
      "type": "function"
    },
    {
      "inputs": [
        {
          "internalType": "address",
          "name": "account",
          "type": "address"
        }
      ],
      "name": "getPendingReward",
      "outputs": [
        {
          "internalType": "uint256",
          "name": "",
          "type": "uint256"
        }
      ],
      "stateMutability": "view",
      "type": "function"
    },
    {
      "inputs": [],
      "name": "getRewardPool",
      "outputs": [
        {
          "internalType": "uint256",
          "name": "",
          "type": "uint256"
        }
      ],
      "stateMutability": "view",
      "type": "function"
    },
    {
      "inputs": [
        {
          "internalType": "address",
          "name": "initialOwner",
          "type": "address"
        }
      ],
      "name": "initialize",
      "outputs": [],
      "stateMutability": "nonpayable",
      "type": "function"
    },
    {
      "inputs": [],
      "name": "owner",
      "outputs": [
        {
          "internalType": "address",
          "name": "",
          "type": "address"
        }
      ],
      "stateMutability": "view",
      "type": "function"
    },
    {
      "inputs": [],
      "name": "pause",
      "outputs": [],
      "stateMutability": "nonpayable",
      "type": "function"
    },
    {
      "inputs": [],
      "name": "paused",
      "outputs": [
        {
          "internalType": "bool",
          "name": "",
          "type": "bool"
        }
      ],
      "stateMutability": "view",
      "type": "function"
    },
    {
      "inputs": [],
      "name": "proxiableUUID",
      "outputs": [
        {
          "internalType": "bytes32",
          "name": "",
          "type": "bytes32"
        }
      ],
      "stateMutability": "view",
      "type": "function"
    },
    {
      "inputs": [],
      "name": "renounceOwnership",
      "outputs": [],
      "stateMutability": "nonpayable",
      "type": "function"
    },
    {
      "inputs": [
        {
          "internalType": "address",
          "name": "likecoin",
          "type": "address"
        }
      ],
      "name": "setLikecoin",
      "outputs": [],
      "stateMutability": "nonpayable",
      "type": "function"
    },
    {
      "inputs": [
        {
          "internalType": "address",
          "name": "vault",
          "type": "address"
        }
      ],
      "name": "setVault",
      "outputs": [],
      "stateMutability": "nonpayable",
      "type": "function"
    },
    {
      "inputs": [
        {
          "internalType": "address",
          "name": "newOwner",
          "type": "address"
        }
      ],
      "name": "transferOwnership",
      "outputs": [],
      "stateMutability": "nonpayable",
      "type": "function"
    },
    {
      "inputs": [],
      "name": "unpause",
      "outputs": [],
      "stateMutability": "nonpayable",
      "type": "function"
    },
    {
      "inputs": [
        {
          "internalType": "address",
          "name": "newImplementation",
          "type": "address"
        },
        {
          "internalType": "bytes",
          "name": "data",
          "type": "bytes"
        }
      ],
      "name": "upgradeToAndCall",
      "outputs": [],
      "stateMutability": "payable",
      "type": "function"
    },
    {
      "inputs": [
        {
          "internalType": "address",
          "name": "account",
          "type": "address"
        },
        {
          "internalType": "uint256",
          "name": "amount",
          "type": "uint256"
        }
      ],
      "name": "withdraw",
      "outputs": [],
      "stateMutability": "nonpayable",
      "type": "function"
    }
  ],
  "bytecode": "0x60a06040523073ffffffffffffffffffffffffffffffffffffffff1660809073ffffffffffffffffffffffffffffffffffffffff1681525034801561004357600080fd5b5061005261005760201b60201c565b6101de565b600061006761015b60201b60201c565b90508060000160089054906101000a900460ff16156100b2576040517ff92ee8a900000000000000000000000000000000000000000000000000000000815260040160405180910390fd5b67ffffffffffffffff80168160000160009054906101000a900467ffffffffffffffff1667ffffffffffffffff16146101585767ffffffffffffffff8160000160006101000a81548167ffffffffffffffff021916908367ffffffffffffffff1602179055507fc7f505b2f371ae2175ee4913f4499e1f2633a7b5936321eed1cdaeb6115181d267ffffffffffffffff60405161014f91906101c3565b60405180910390a15b50565b60008061016c61017560201b60201c565b90508091505090565b60007ff0c57e16840df040f15088dc2f81fe391c3923bec73e23a9662efc9c229c6a0060001b905090565b600067ffffffffffffffff82169050919050565b6101bd816101a0565b82525050565b60006020820190506101d860008301846101b4565b92915050565b608051612a32610207600039600081816116cf0152818161172401526118df0152612a326000f3fe60806040526004361061014b5760003560e01c8063715018a6116100b6578063ba2311d71161006f578063ba2311d714610439578063c3f909d414610476578063c4d66de8146104a5578063d1c6a231146104ce578063f2fde38b146104f9578063f3fef3a3146105225761014b565b8063715018a61461034f57806372a3ae9d146103665780638456cb591461038f5780638da5cb5b146103a6578063ad3cb1cc146103d1578063aeb51b37146103fc5761014b565b80634f1ef286116101085780634f1ef2861461026057806352d1902d1461027c5780635c975abb146102a7578063650d6425146102d25780636817031b146102fd57806370dc5ca5146103265761014b565b80631359e6f7146101505780631b8b13a71461018d5780633e340dae146101b85780633f4ba83a146101e357806347e7ef24146101fa5780634df9d6ba14610223575b600080fd5b34801561015c57600080fd5b5061017760048036038101906101729190612218565b61054b565b604051610184919061225e565b60405180910390f35b34801561019957600080fd5b506101a26105d4565b6040516101af919061225e565b60405180910390f35b3480156101c457600080fd5b506101cd6105ec565b6040516101da919061225e565b60405180910390f35b3480156101ef57600080fd5b506101f8610604565b005b34801561020657600080fd5b50610221600480360381019061021c91906122a5565b610616565b005b34801561022f57600080fd5b5061024a60048036038101906102459190612218565b610756565b604051610257919061225e565b60405180910390f35b61027a6004803603810190610275919061242b565b61089a565b005b34801561028857600080fd5b506102916108b9565b60405161029e91906124a0565b60405180910390f35b3480156102b357600080fd5b506102bc6108ec565b6040516102c991906124d6565b60405180910390f35b3480156102de57600080fd5b506102e7610911565b6040516102f49190612555565b60405180910390f35b34801561030957600080fd5b50610324600480360381019061031f9190612218565b610962565b005b34801561033257600080fd5b5061034d60048036038101906103489190612570565b6109bd565b005b34801561035b57600080fd5b50610364610b80565b005b34801561037257600080fd5b5061038d60048036038101906103889190612218565b610b94565b005b34801561039b57600080fd5b506103a4610bef565b005b3480156103b257600080fd5b506103bb610c01565b6040516103c891906125e6565b60405180910390f35b3480156103dd57600080fd5b506103e6610c39565b6040516103f39190612680565b60405180910390f35b34801561040857600080fd5b50610423600480360381019061041e91906126ce565b610c72565b604051610430919061225e565b60405180910390f35b34801561044557600080fd5b50610460600480360381019061045b91906126ce565b610d73565b60405161046d919061225e565b60405180910390f35b34801561048257600080fd5b5061048b610f74565b60405161049c95949392919061270e565b60405180910390f35b3480156104b157600080fd5b506104cc60048036038101906104c79190612218565b610ff2565b005b3480156104da57600080fd5b506104e3611199565b6040516104f0919061225e565b60405180910390f35b34801561050557600080fd5b50610520600480360381019061051b9190612218565b6111a5565b005b34801561052e57600080fd5b50610549600480360381019061054491906122a5565b61122b565b005b60008061055661136b565b905060008160090160008573ffffffffffffffffffffffffffffffffffffffff1673ffffffffffffffffffffffffffffffffffffffff16815260200190815260200160002060405180606001604052908160008201548152602001600182015481526020016002820154815250509050806040015192505050919050565b6000806105df61136b565b9050806002015491505090565b6000806105f761136b565b9050806004015491505090565b61060c611393565b61061461141a565b565b61061e61148c565b600061062861136b565b90508060000160009054906101000a900473ffffffffffffffffffffffffffffffffffffffff1673ffffffffffffffffffffffffffffffffffffffff1661066d6114cd565b73ffffffffffffffffffffffffffffffffffffffff16146106ba576040517fcc12cef600000000000000000000000000000000000000000000000000000000815260040160405180910390fd5b60006106c461136b565b90506106ce6114d5565b6106d9846000610d73565b50828160090160008673ffffffffffffffffffffffffffffffffffffffff1673ffffffffffffffffffffffffffffffffffffffff168152602001908152602001600020600001600082825461072e9190612790565b92505081905550828160030160008282546107499190612790565b9250508190555050505050565b60008061076161136b565b9050600061076e846115d1565b905060008260090160008673ffffffffffffffffffffffffffffffffffffffff1673ffffffffffffffffffffffffffffffffffffffff168152602001908152602001600020600001549050600081036107cc57819350505050610895565b600042905083600501600101548111156107eb57836005016001015490505b60008460040154826107fd91906127c4565b905060006108408660050160405180608001604052908160008201548152602001600182015481526020016002820154815260200160038201548152505061168e565b8261084b91906127f8565b90506000670de0b6b3a7640000876003015461086791906127f8565b858361087391906127f8565b61087d9190612869565b9050808661088b9190612790565b9750505050505050505b919050565b6108a26116cd565b6108ab826117b3565b6108b582826117be565b5050565b60006108c36118dd565b7f360894a13ba1a3210667c828492db98dca3e2076cc3735a920a3ca505d382bbc60001b905090565b6000806108f7611964565b90508060000160009054906101000a900460ff1691505090565b61091961217e565b600061092361136b565b90508060050160405180608001604052908160008201548152602001600182015481526020016002820154815260200160038201548152505091505090565b61096a611393565b600061097461136b565b9050818160000160006101000a81548173ffffffffffffffffffffffffffffffffffffffff021916908373ffffffffffffffffffffffffffffffffffffffff1602179055505050565b6109c5611393565b6109cd61198c565b15610a04576040517fff31bc8f00000000000000000000000000000000000000000000000000000000815260040160405180910390fd5b6000610a0e61136b565b905080600401548311610a4d576040517fff31bc8f00000000000000000000000000000000000000000000000000000000815260040160405180910390fd5b82821015610a87576040517fff31bc8f00000000000000000000000000000000000000000000000000000000815260040160405180910390fd5b42821015610ac1576040517fff31bc8f00000000000000000000000000000000000000000000000000000000815260040160405180910390fd5b8281600401819055508481600a0160006101000a81548173ffffffffffffffffffffffffffffffffffffffff021916908373ffffffffffffffffffffffffffffffffffffffff16021790555083816002016000828254610b219190612790565b925050819055506040518060800160405280848152602001838152602001858152602001600081525081600501600082015181600001556020820151816001015560408201518160020155606082015181600301559050505050505050565b610b88611393565b610b9260006119cc565b565b610b9c611393565b6000610ba661136b565b9050818160010160006101000a81548173ffffffffffffffffffffffffffffffffffffffff021916908373ffffffffffffffffffffffffffffffffffffffff1602179055505050565b610bf7611393565b610bff611aa3565b565b600080610c0c611b15565b90508060000160009054906101000a900473ffffffffffffffffffffffffffffffffffffffff1691505090565b6040518060400160405280600581526020017f352e302e3000000000000000000000000000000000000000000000000000000081525081565b6000610c7c61148c565b6000610c8661136b565b90508060000160009054906101000a900473ffffffffffffffffffffffffffffffffffffffff1673ffffffffffffffffffffffffffffffffffffffff16610ccb6114cd565b73ffffffffffffffffffffffffffffffffffffffff1614610d18576040517fcc12cef600000000000000000000000000000000000000000000000000000000815260040160405180910390fd5b6000610d2385610756565b905060008103610d5f576040517f1e09881a00000000000000000000000000000000000000000000000000000000815260040160405180910390fd5b610d698585610d73565b9250505092915050565b600080610d7e61136b565b90508060000160009054906101000a900473ffffffffffffffffffffffffffffffffffffffff1673ffffffffffffffffffffffffffffffffffffffff16610dc36114cd565b73ffffffffffffffffffffffffffffffffffffffff1614610e10576040517fcc12cef600000000000000000000000000000000000000000000000000000000815260040160405180910390fd5b6000610e1a61136b565b905060008160090160008773ffffffffffffffffffffffffffffffffffffffff1673ffffffffffffffffffffffffffffffffffffffff1681526020019081526020016000209050610e696114d5565b6000610e74876115d1565b905080826002016000828254610e8a9190612790565b925050819055508260050160030154826001018190555080836002016000828254610eb591906127c4565b9250508190555060008103610ed05760009450505050610f6d565b8515610f115780826000016000828254610eea9190612790565b9250508190555080836003016000828254610f059190612790565b92505081905550610f66565b610f658360010160009054906101000a900473ffffffffffffffffffffffffffffffffffffffff1684600a0160009054906101000a900473ffffffffffffffffffffffffffffffffffffffff168984611b3d565b5b8094505050505b5092915050565b600080600080600080610f8561136b565b90508060000160009054906101000a900473ffffffffffffffffffffffffffffffffffffffff168160010160009054906101000a900473ffffffffffffffffffffffffffffffffffffffff1682600201548360030154846004015495509550955095509550509091929394565b6000610ffc611bbf565b905060008160000160089054906101000a900460ff1615905060008260000160009054906101000a900467ffffffffffffffff1690506000808267ffffffffffffffff1614801561104a5750825b9050600060018367ffffffffffffffff1614801561107f575060003073ffffffffffffffffffffffffffffffffffffffff163b145b90508115801561108d575080155b156110c4576040517ff92ee8a900000000000000000000000000000000000000000000000000000000815260040160405180910390fd5b60018560000160006101000a81548167ffffffffffffffff021916908367ffffffffffffffff16021790555083156111145760018560000160086101000a81548160ff0219169083151502179055505b61111c611bd3565b611124611bdd565b61112d86611bef565b611135611c03565b83156111915760008560000160086101000a81548160ff0219169083151502179055507fc7f505b2f371ae2175ee4913f4499e1f2633a7b5936321eed1cdaeb6115181d2600160405161118891906128f3565b60405180910390a15b505050505050565b670de0b6b3a764000081565b6111ad611393565b600073ffffffffffffffffffffffffffffffffffffffff168173ffffffffffffffffffffffffffffffffffffffff160361121f5760006040517f1e4fbdf700000000000000000000000000000000000000000000000000000000815260040161121691906125e6565b60405180910390fd5b611228816119cc565b50565b61123361148c565b600061123d61136b565b90508060000160009054906101000a900473ffffffffffffffffffffffffffffffffffffffff1673ffffffffffffffffffffffffffffffffffffffff166112826114cd565b73ffffffffffffffffffffffffffffffffffffffff16146112cf576040517fcc12cef600000000000000000000000000000000000000000000000000000000815260040160405180910390fd5b60006112d961136b565b90506112e36114d5565b6112ee846000610d73565b508281600301600082825461130391906127c4565b92505081905550828160090160008673ffffffffffffffffffffffffffffffffffffffff1673ffffffffffffffffffffffffffffffffffffffff168152602001908152602001600020600001600082825461135e91906127c4565b9250508190555050505050565b60007fe9672d2c676bb94d428d6ce523668c779079df8febe4142a9972a2a2313d2c00905090565b61139b6114cd565b73ffffffffffffffffffffffffffffffffffffffff166113b9610c01565b73ffffffffffffffffffffffffffffffffffffffff1614611418576113dc6114cd565b6040517f118cdaa700000000000000000000000000000000000000000000000000000000815260040161140f91906125e6565b60405180910390fd5b565b611422611c0d565b600061142c611964565b905060008160000160006101000a81548160ff0219169083151502179055507f5db9ee0a495bf2e6ff9c91a7834c1ba4fdd244a5e8aa4e537bd38aeae4b073aa6114746114cd565b60405161148191906125e6565b60405180910390a150565b6114946108ec565b156114cb576040517fd93c066500000000000000000000000000000000000000000000000000000000815260040160405180910390fd5b565b600033905090565b60006114df61136b565b905060008160050190506000429050816000015481101561150257816000015490505b816001015481111561151657816001015490505b82600401548103611529575050506115cf565b6000836003015411156115cb57600083600401548261154891906127c4565b905060006115888460405180608001604052908160008201548152602001600182015481526020016002820154815260200160038201548152505061168e565b8261159391906127f8565b90508460030154816115a59190612869565b8460030160008282546115b89190612790565b9250508190555082856004018190555050505b5050505b565b6000806115dc61136b565b905060008160090160008573ffffffffffffffffffffffffffffffffffffffff1673ffffffffffffffffffffffffffffffffffffffff16815260200190815260200160002060405180606001604052908160008201548152602001600182015481526020016002820154815250509050670de0b6b3a76400008160200151836005016003015461166c91906127c4565b826000015161167b91906127f8565b6116859190612869565b92505050919050565b6000816000015182602001516116a491906127c4565b8260400151670de0b6b3a76400006116bc91906127f8565b6116c69190612869565b9050919050565b7f000000000000000000000000000000000000000000000000000000000000000073ffffffffffffffffffffffffffffffffffffffff163073ffffffffffffffffffffffffffffffffffffffff16148061177a57507f000000000000000000000000000000000000000000000000000000000000000073ffffffffffffffffffffffffffffffffffffffff16611761611c4d565b73ffffffffffffffffffffffffffffffffffffffff1614155b156117b1576040517fe07c8dba00000000000000000000000000000000000000000000000000000000815260040160405180910390fd5b565b6117bb611393565b50565b8173ffffffffffffffffffffffffffffffffffffffff166352d1902d6040518163ffffffff1660e01b8152600401602060405180830381865afa92505050801561182657506040513d601f19601f82011682018060405250810190611823919061293a565b60015b61186757816040517f4c9c8ce300000000000000000000000000000000000000000000000000000000815260040161185e91906125e6565b60405180910390fd5b7f360894a13ba1a3210667c828492db98dca3e2076cc3735a920a3ca505d382bbc60001b81146118ce57806040517faa1d49a40000000000000000000000000000000000000000000000000000000081526004016118c591906124a0565b60405180910390fd5b6118d88383611ca4565b505050565b7f000000000000000000000000000000000000000000000000000000000000000073ffffffffffffffffffffffffffffffffffffffff163073ffffffffffffffffffffffffffffffffffffffff1614611962576040517fe07c8dba00000000000000000000000000000000000000000000000000000000815260040160405180910390fd5b565b60007fcd5ed15c6e187e77e9aee88184c21f4f2182ab5827cb3b7e07fbedcd63f03300905090565b60008061199761136b565b905080600501600001544210806119b45750806005016001015442115b156119c35760009150506119c9565b60019150505b90565b60006119d6611b15565b905060008160000160009054906101000a900473ffffffffffffffffffffffffffffffffffffffff169050828260000160006101000a81548173ffffffffffffffffffffffffffffffffffffffff021916908373ffffffffffffffffffffffffffffffffffffffff1602179055508273ffffffffffffffffffffffffffffffffffffffff168173ffffffffffffffffffffffffffffffffffffffff167f8be0079c531659141344cd1fd0a4f28419497f9722a3daafe3b4186f6b6457e060405160405180910390a3505050565b611aab61148c565b6000611ab5611964565b905060018160000160006101000a81548160ff0219169083151502179055507f62e78cea01bee320cd4e420270b5ea74000d11b0c9f74754ebdbfc544b05a258611afd6114cd565b604051611b0a91906125e6565b60405180910390a150565b60007f9016d09d72d40fdae2fd8ceac6b6234c7706214fd39c1cd1e609a0528c199300905090565b611bb9848573ffffffffffffffffffffffffffffffffffffffff166323b872dd868686604051602401611b7293929190612967565b604051602081830303815290604052915060e01b6020820180517bffffffffffffffffffffffffffffffffffffffffffffffffffffffff8381831617835250505050611d17565b50505050565b600080611bca611db9565b90508091505090565b611bdb611de4565b565b611be5611de4565b611bed611e24565b565b611bf7611de4565b611c0081611e45565b50565b611c0b611de4565b565b611c156108ec565b611c4b576040517f8dfc202b00000000000000000000000000000000000000000000000000000000815260040160405180910390fd5b565b6000611c7b7f360894a13ba1a3210667c828492db98dca3e2076cc3735a920a3ca505d382bbc60001b611ecb565b60000160009054906101000a900473ffffffffffffffffffffffffffffffffffffffff16905090565b611cad82611ed5565b8173ffffffffffffffffffffffffffffffffffffffff167fbc7cd75a20ee27fd9adebab32041f755214dbc6bffa90cc0225b39da2e5c2d3b60405160405180910390a2600081511115611d0a57611d048282611fa2565b50611d13565b611d12612026565b5b5050565b600080602060008451602086016000885af180611d3a576040513d6000823e3d81fd5b3d925060005191505060008214611d55576001811415611d71565b60008473ffffffffffffffffffffffffffffffffffffffff163b145b15611db357836040517f5274afe7000000000000000000000000000000000000000000000000000000008152600401611daa91906125e6565b60405180910390fd5b50505050565b60007ff0c57e16840df040f15088dc2f81fe391c3923bec73e23a9662efc9c229c6a0060001b905090565b611dec612063565b611e22576040517fd7e6bcf800000000000000000000000000000000000000000000000000000000815260040160405180910390fd5b565b611e2c611de4565b6000611e36612083565b90506001816000018190555050565b611e4d611de4565b600073ffffffffffffffffffffffffffffffffffffffff168173ffffffffffffffffffffffffffffffffffffffff1603611ebf5760006040517f1e4fbdf7000000000000000000000000000000000000000000000000000000008152600401611eb691906125e6565b60405180910390fd5b611ec8816119cc565b50565b6000819050919050565b60008173ffffffffffffffffffffffffffffffffffffffff163b03611f3157806040517f4c9c8ce3000000000000000000000000000000000000000000000000000000008152600401611f2891906125e6565b60405180910390fd5b80611f5e7f360894a13ba1a3210667c828492db98dca3e2076cc3735a920a3ca505d382bbc60001b611ecb565b60000160006101000a81548173ffffffffffffffffffffffffffffffffffffffff021916908373ffffffffffffffffffffffffffffffffffffffff16021790555050565b60606000808473ffffffffffffffffffffffffffffffffffffffff1684604051611fcc91906129e5565b600060405180830381855af49150503d8060008114612007576040519150601f19603f3d011682016040523d82523d6000602084013e61200c565b606091505b509150915061201c8583836120ab565b9250505092915050565b6000341115612061576040517fb398979f00000000000000000000000000000000000000000000000000000000815260040160405180910390fd5b565b600061206d611bbf565b60000160089054906101000a900460ff16905090565b60007f9b779b17422d0df92223018b32b4d1fa46e071723d6817e2486d003becc55f00905090565b6060826120c0576120bb8261213a565b612132565b600082511480156120e8575060008473ffffffffffffffffffffffffffffffffffffffff163b145b1561212a57836040517f9996b31500000000000000000000000000000000000000000000000000000000815260040161212191906125e6565b60405180910390fd5b819050612133565b5b9392505050565b60008151111561214c57805160208201fd5b6040517fd6bda27500000000000000000000000000000000000000000000000000000000815260040160405180910390fd5b6040518060800160405280600081526020016000815260200160008152602001600081525090565b6000604051905090565b600080fd5b600080fd5b600073ffffffffffffffffffffffffffffffffffffffff82169050919050565b60006121e5826121ba565b9050919050565b6121f5816121da565b811461220057600080fd5b50565b600081359050612212816121ec565b92915050565b60006020828403121561222e5761222d6121b0565b5b600061223c84828501612203565b91505092915050565b6000819050919050565b61225881612245565b82525050565b6000602082019050612273600083018461224f565b92915050565b61228281612245565b811461228d57600080fd5b50565b60008135905061229f81612279565b92915050565b600080604083850312156122bc576122bb6121b0565b5b60006122ca85828601612203565b92505060206122db85828601612290565b9150509250929050565b600080fd5b600080fd5b6000601f19601f8301169050919050565b7f4e487b7100000000000000000000000000000000000000000000000000000000600052604160045260246000fd5b612338826122ef565b810181811067ffffffffffffffff8211171561235757612356612300565b5b80604052505050565b600061236a6121a6565b9050612376828261232f565b919050565b600067ffffffffffffffff82111561239657612395612300565b5b61239f826122ef565b9050602081019050919050565b82818337600083830152505050565b60006123ce6123c98461237b565b612360565b9050828152602081018484840111156123ea576123e96122ea565b5b6123f58482856123ac565b509392505050565b600082601f830112612412576124116122e5565b5b81356124228482602086016123bb565b91505092915050565b60008060408385031215612442576124416121b0565b5b600061245085828601612203565b925050602083013567ffffffffffffffff811115612471576124706121b5565b5b61247d858286016123fd565b9150509250929050565b6000819050919050565b61249a81612487565b82525050565b60006020820190506124b56000830184612491565b92915050565b60008115159050919050565b6124d0816124bb565b82525050565b60006020820190506124eb60008301846124c7565b92915050565b6124fa81612245565b82525050565b60808201600082015161251660008501826124f1565b50602082015161252960208501826124f1565b50604082015161253c60408501826124f1565b50606082015161254f60608501826124f1565b50505050565b600060808201905061256a6000830184612500565b92915050565b6000806000806080858703121561258a576125896121b0565b5b600061259887828801612203565b94505060206125a987828801612290565b93505060406125ba87828801612290565b92505060606125cb87828801612290565b91505092959194509250565b6125e0816121da565b82525050565b60006020820190506125fb60008301846125d7565b92915050565b600081519050919050565b600082825260208201905092915050565b60005b8381101561263b578082015181840152602081019050612620565b60008484015250505050565b600061265282612601565b61265c818561260c565b935061266c81856020860161261d565b612675816122ef565b840191505092915050565b6000602082019050818103600083015261269a8184612647565b905092915050565b6126ab816124bb565b81146126b657600080fd5b50565b6000813590506126c8816126a2565b92915050565b600080604083850312156126e5576126e46121b0565b5b60006126f385828601612203565b9250506020612704858286016126b9565b9150509250929050565b600060a08201905061272360008301886125d7565b61273060208301876125d7565b61273d604083018661224f565b61274a606083018561224f565b612757608083018461224f565b9695505050505050565b7f4e487b7100000000000000000000000000000000000000000000000000000000600052601160045260246000fd5b600061279b82612245565b91506127a683612245565b92508282019050808211156127be576127bd612761565b5b92915050565b60006127cf82612245565b91506127da83612245565b92508282039050818111156127f2576127f1612761565b5b92915050565b600061280382612245565b915061280e83612245565b925082820261281c81612245565b9150828204841483151761283357612832612761565b5b5092915050565b7f4e487b7100000000000000000000000000000000000000000000000000000000600052601260045260246000fd5b600061287482612245565b915061287f83612245565b92508261288f5761288e61283a565b5b828204905092915050565b6000819050919050565b600067ffffffffffffffff82169050919050565b6000819050919050565b60006128dd6128d86128d38461289a565b6128b8565b6128a4565b9050919050565b6128ed816128c2565b82525050565b600060208201905061290860008301846128e4565b92915050565b61291781612487565b811461292257600080fd5b50565b6000815190506129348161290e565b92915050565b6000602082840312156129505761294f6121b0565b5b600061295e84828501612925565b91505092915050565b600060608201905061297c60008301866125d7565b61298960208301856125d7565b612996604083018461224f565b949350505050565b600081519050919050565b600081905092915050565b60006129bf8261299e565b6129c981856129a9565b93506129d981856020860161261d565b80840191505092915050565b60006129f182846129b4565b91508190509291505056fea2646970667358221220e131df5e2e66c54e62ff01d8f07b9b75c1d29a26d67628f103078cb7ac161c8e64736f6c634300081c0033",
  "linkReferences": {},
  "deployedLinkReferences": {}
}