{
  "_format": "hh-sol-artifact-1",
  "contractName": "veLikeReward",
  "sourceName": "contracts/veLikeReward.sol",
  "abi": [
    {
      "inputs": [],
      "stateMutability": "nonpayable",
      "type": "constructor"
    },
    {
      "inputs": [
        {
          "internalType": "address",
          "name": "target",
          "type": "address"
        }
      ],
      "name": "AddressEmptyCode",
      "type": "error"
    },
    {
      "inputs": [
        {
          "internalType": "address",
          "name": "implementation",
          "type": "address"
        }
      ],
      "name": "ERC1967InvalidImplementation",
      "type": "error"
    },
    {
      "inputs": [],
      "name": "ERC1967NonPayable",
      "type": "error"
    },
    {
      "inputs": [],
      "name": "EnforcedPause",
      "type": "error"
    },
    {
      "inputs": [],
      "name": "ErrConflictCondition",
      "type": "error"
    },
    {
      "inputs": [],
      "name": "ErrNoRewardToClaim",
      "type": "error"
    },
    {
      "inputs": [],
      "name": "ErrUnauthorized",
      "type": "error"
    },
    {
      "inputs": [],
      "name": "ErrWithdrawLocked",
      "type": "error"
    },
    {
      "inputs": [],
      "name": "ExpectedPause",
      "type": "error"
    },
    {
      "inputs": [],
      "name": "FailedCall",
      "type": "error"
    },
    {
      "inputs": [],
      "name": "InvalidInitialization",
      "type": "error"
    },
    {
      "inputs": [],
      "name": "NotInitializing",
      "type": "error"
    },
    {
      "inputs": [
        {
          "internalType": "address",
          "name": "owner",
          "type": "address"
        }
      ],
      "name": "OwnableInvalidOwner",
      "type": "error"
    },
    {
      "inputs": [
        {
          "internalType": "address",
          "name": "account",
          "type": "address"
        }
      ],
      "name": "OwnableUnauthorizedAccount",
      "type": "error"
    },
    {
      "inputs": [],
      "name": "ReentrancyGuardReentrantCall",
      "type": "error"
    },
    {
      "inputs": [
        {
          "internalType": "address",
          "name": "token",
          "type": "address"
        }
      ],
      "name": "SafeERC20FailedOperation",
      "type": "error"
    },
    {
      "inputs": [],
      "name": "UUPSUnauthorizedCallContext",
      "type": "error"
    },
    {
      "inputs": [
        {
          "internalType": "bytes32",
          "name": "slot",
          "type": "bytes32"
        }
      ],
      "name": "UUPSUnsupportedProxiableUUID",
      "type": "error"
    },
    {
      "anonymous": false,
      "inputs": [
        {
          "indexed": false,
          "internalType": "uint64",
          "name": "version",
          "type": "uint64"
        }
      ],
      "name": "Initialized",
      "type": "event"
    },
    {
      "anonymous": false,
      "inputs": [
        {
          "indexed": true,
          "internalType": "address",
          "name": "previousOwner",
          "type": "address"
        },
        {
          "indexed": true,
          "internalType": "address",
          "name": "newOwner",
          "type": "address"
        }
      ],
      "name": "OwnershipTransferred",
      "type": "event"
    },
    {
      "anonymous": false,
      "inputs": [
        {
          "indexed": false,
          "internalType": "address",
          "name": "account",
          "type": "address"
        }
      ],
      "name": "Paused",
      "type": "event"
    },
    {
      "anonymous": false,
      "inputs": [
        {
          "indexed": false,
          "internalType": "address",
          "name": "account",
          "type": "address"
        }
      ],
      "name": "Unpaused",
      "type": "event"
    },
    {
      "anonymous": false,
      "inputs": [
        {
          "indexed": true,
          "internalType": "address",
          "name": "implementation",
          "type": "address"
        }
      ],
      "name": "Upgraded",
      "type": "event"
    },
    {
      "inputs": [],
      "name": "ACC_REWARD_PRECISION",
      "outputs": [
        {
          "internalType": "uint256",
          "name": "",
          "type": "uint256"
        }
      ],
      "stateMutability": "view",
      "type": "function"
    },
    {
      "inputs": [],
      "name": "UPGRADE_INTERFACE_VERSION",
      "outputs": [
        {
          "internalType": "string",
          "name": "",
          "type": "string"
        }
      ],
      "stateMutability": "view",
      "type": "function"
    },
    {
      "inputs": [
        {
          "internalType": "address",
          "name": "account",
          "type": "address"
        },
        {
          "internalType": "bool",
          "name": "restake",
          "type": "bool"
        }
      ],
      "name": "_claimReward",
      "outputs": [
        {
          "internalType": "uint256",
          "name": "",
          "type": "uint256"
        }
      ],
      "stateMutability": "nonpayable",
      "type": "function"
    },
    {
      "inputs": [
        {
          "internalType": "uint256",
          "name": "rewardAmount",
          "type": "uint256"
        },
        {
          "internalType": "uint256",
          "name": "startTime",
          "type": "uint256"
        },
        {
          "internalType": "uint256",
          "name": "endTime",
          "type": "uint256"
        }
      ],
      "name": "addReward",
      "outputs": [],
      "stateMutability": "nonpayable",
      "type": "function"
    },
    {
      "inputs": [
        {
          "internalType": "address",
          "name": "account",
          "type": "address"
        },
        {
          "internalType": "bool",
          "name": "restake",
          "type": "bool"
        }
      ],
      "name": "claimReward",
      "outputs": [
        {
          "internalType": "uint256",
          "name": "",
          "type": "uint256"
        }
      ],
      "stateMutability": "nonpayable",
      "type": "function"
    },
    {
      "inputs": [
        {
          "internalType": "address",
          "name": "account",
          "type": "address"
        },
        {
          "internalType": "uint256",
          "name": "stakedAmount",
          "type": "uint256"
        }
      ],
      "name": "deposit",
      "outputs": [],
      "stateMutability": "nonpayable",
      "type": "function"
    },
    {
      "inputs": [
        {
          "internalType": "address",
          "name": "account",
          "type": "address"
        }
      ],
      "name": "getClaimedReward",
      "outputs": [
        {
          "internalType": "uint256",
          "name": "",
          "type": "uint256"
        }
      ],
      "stateMutability": "view",
      "type": "function"
    },
    {
      "inputs": [],
      "name": "getConfig",
      "outputs": [
        {
          "internalType": "address",
          "name": "",
          "type": "address"
        },
        {
          "internalType": "address",
          "name": "",
          "type": "address"
        },
        {
          "internalType": "uint256",
          "name": "",
          "type": "uint256"
        },
        {
          "internalType": "uint256",
          "name": "",
          "type": "uint256"
        },
        {
          "internalType": "uint256",
          "name": "",
          "type": "uint256"
        }
      ],
      "stateMutability": "view",
      "type": "function"
    },
    {
      "inputs": [],
      "name": "getCurrentCondition",
      "outputs": [
        {
          "components": [
            {
              "internalType": "uint256",
              "name": "startTime",
              "type": "uint256"
            },
            {
              "internalType": "uint256",
              "name": "endTime",
              "type": "uint256"
            },
            {
              "internalType": "uint256",
              "name": "rewardAmount",
              "type": "uint256"
            },
            {
              "internalType": "uint256",
              "name": "rewardIndex",
              "type": "uint256"
            }
          ],
          "internalType": "struct veLikeReward.StakingCondition",
          "name": "",
          "type": "tuple"
        }
      ],
      "stateMutability": "view",
      "type": "function"
    },
    {
      "inputs": [],
      "name": "getLastRewardTime",
      "outputs": [
        {
          "internalType": "uint256",
          "name": "",
          "type": "uint256"
        }
      ],
      "stateMutability": "view",
      "type": "function"
    },
    {
      "inputs": [
        {
          "internalType": "address",
          "name": "account",
          "type": "address"
        }
      ],
      "name": "getPendingReward",
      "outputs": [
        {
          "internalType": "uint256",
          "name": "",
          "type": "uint256"
        }
      ],
      "stateMutability": "view",
      "type": "function"
    },
    {
      "inputs": [],
      "name": "getRewardPool",
      "outputs": [
        {
          "internalType": "uint256",
          "name": "",
          "type": "uint256"
        }
      ],
      "stateMutability": "view",
      "type": "function"
    },
    {
      "inputs": [
        {
          "internalType": "address",
          "name": "initialOwner",
          "type": "address"
        }
      ],
      "name": "initialize",
      "outputs": [],
      "stateMutability": "nonpayable",
      "type": "function"
    },
    {
      "inputs": [],
      "name": "owner",
      "outputs": [
        {
          "internalType": "address",
          "name": "",
          "type": "address"
        }
      ],
      "stateMutability": "view",
      "type": "function"
    },
    {
      "inputs": [],
      "name": "pause",
      "outputs": [],
      "stateMutability": "nonpayable",
      "type": "function"
    },
    {
      "inputs": [],
      "name": "paused",
      "outputs": [
        {
          "internalType": "bool",
          "name": "",
          "type": "bool"
        }
      ],
      "stateMutability": "view",
      "type": "function"
    },
    {
      "inputs": [],
      "name": "proxiableUUID",
      "outputs": [
        {
          "internalType": "bytes32",
          "name": "",
          "type": "bytes32"
        }
      ],
      "stateMutability": "view",
      "type": "function"
    },
    {
      "inputs": [],
      "name": "renounceOwnership",
      "outputs": [],
      "stateMutability": "nonpayable",
      "type": "function"
    },
    {
      "inputs": [
        {
          "internalType": "address",
          "name": "likecoin",
          "type": "address"
        }
      ],
      "name": "setLikecoin",
      "outputs": [],
      "stateMutability": "nonpayable",
      "type": "function"
    },
    {
      "inputs": [
        {
          "internalType": "address",
          "name": "vault",
          "type": "address"
        }
      ],
      "name": "setVault",
      "outputs": [],
      "stateMutability": "nonpayable",
      "type": "function"
    },
    {
      "inputs": [
        {
          "internalType": "address",
          "name": "newOwner",
          "type": "address"
        }
      ],
      "name": "transferOwnership",
      "outputs": [],
      "stateMutability": "nonpayable",
      "type": "function"
    },
    {
      "inputs": [],
      "name": "unpause",
      "outputs": [],
      "stateMutability": "nonpayable",
      "type": "function"
    },
    {
      "inputs": [
        {
          "internalType": "address",
          "name": "newImplementation",
          "type": "address"
        },
        {
          "internalType": "bytes",
          "name": "data",
          "type": "bytes"
        }
      ],
      "name": "upgradeToAndCall",
      "outputs": [],
      "stateMutability": "payable",
      "type": "function"
    },
    {
      "inputs": [
        {
          "internalType": "address",
          "name": "account",
          "type": "address"
        }
      ],
      "name": "withdraw",
      "outputs": [],
      "stateMutability": "nonpayable",
      "type": "function"
    }
  ],
  "bytecode": "0x60a06040523073ffffffffffffffffffffffffffffffffffffffff1660809073ffffffffffffffffffffffffffffffffffffffff1681525034801561004357600080fd5b5061005261005760201b60201c565b6101de565b600061006761015b60201b60201c565b90508060000160089054906101000a900460ff16156100b2576040517ff92ee8a900000000000000000000000000000000000000000000000000000000815260040160405180910390fd5b67ffffffffffffffff80168160000160009054906101000a900467ffffffffffffffff1667ffffffffffffffff16146101585767ffffffffffffffff8160000160006101000a81548167ffffffffffffffff021916908367ffffffffffffffff1602179055507fc7f505b2f371ae2175ee4913f4499e1f2633a7b5936321eed1cdaeb6115181d267ffffffffffffffff60405161014f91906101c3565b60405180910390a15b50565b60008061016c61017560201b60201c565b90508091505090565b60007ff0c57e16840df040f15088dc2f81fe391c3923bec73e23a9662efc9c229c6a0060001b905090565b600067ffffffffffffffff82169050919050565b6101bd816101a0565b82525050565b60006020820190506101d860008301846101b4565b92915050565b608051612af0610207600039600081816117bb0152818161181001526119cb0152612af06000f3fe60806040526004361061014b5760003560e01c80636817031b116100b6578063aeb51b371161006f578063aeb51b3714610425578063ba2311d714610462578063c3f909d41461049f578063c4d66de8146104ce578063d1c6a231146104f7578063f2fde38b146105225761014b565b80636817031b1461034f578063715018a61461037857806372a3ae9d1461038f5780638456cb59146103b85780638da5cb5b146103cf578063ad3cb1cc146103fa5761014b565b80634df9d6ba116101085780634df9d6ba1461024c5780634f1ef2861461028957806351cff8d9146102a557806352d1902d146102ce5780635c975abb146102f9578063650d6425146103245761014b565b80631359e6f7146101505780631b8b13a71461018d5780633e340dae146101b85780633f4ba83a146101e357806346816290146101fa57806347e7ef2414610223575b600080fd5b34801561015c57600080fd5b50610177600480360381019061017291906122c1565b61054b565b6040516101849190612307565b60405180910390f35b34801561019957600080fd5b506101a26105d4565b6040516101af9190612307565b60405180910390f35b3480156101c457600080fd5b506101cd6105ec565b6040516101da9190612307565b60405180910390f35b3480156101ef57600080fd5b506101f8610604565b005b34801561020657600080fd5b50610221600480360381019061021c919061234e565b610616565b005b34801561022f57600080fd5b5061024a600480360381019061024591906123a1565b6107cc565b005b34801561025857600080fd5b50610273600480360381019061026e91906122c1565b61090c565b6040516102809190612307565b60405180910390f35b6102a3600480360381019061029e9190612527565b610a50565b005b3480156102b157600080fd5b506102cc60048036038101906102c791906122c1565b610a6f565b005b3480156102da57600080fd5b506102e3610c20565b6040516102f0919061259c565b60405180910390f35b34801561030557600080fd5b5061030e610c53565b60405161031b91906125d2565b60405180910390f35b34801561033057600080fd5b50610339610c78565b6040516103469190612651565b60405180910390f35b34801561035b57600080fd5b50610376600480360381019061037191906122c1565b610cc9565b005b34801561038457600080fd5b5061038d610d24565b005b34801561039b57600080fd5b506103b660048036038101906103b191906122c1565b610d38565b005b3480156103c457600080fd5b506103cd610d93565b005b3480156103db57600080fd5b506103e4610da5565b6040516103f1919061267b565b60405180910390f35b34801561040657600080fd5b5061040f610ddd565b60405161041c9190612715565b60405180910390f35b34801561043157600080fd5b5061044c60048036038101906104479190612763565b610e16565b6040516104599190612307565b60405180910390f35b34801561046e57600080fd5b5061048960048036038101906104849190612763565b610f17565b6040516104969190612307565b60405180910390f35b3480156104ab57600080fd5b506104b46110de565b6040516104c59594939291906127a3565b60405180910390f35b3480156104da57600080fd5b506104f560048036038101906104f091906122c1565b61115c565b005b34801561050357600080fd5b5061050c611303565b6040516105199190612307565b60405180910390f35b34801561052e57600080fd5b50610549600480360381019061054491906122c1565b61130f565b005b600080610556611395565b905060008160090160008573ffffffffffffffffffffffffffffffffffffffff1673ffffffffffffffffffffffffffffffffffffffff16815260200190815260200160002060405180606001604052908160008201548152602001600182015481526020016002820154815250509050806040015192505050919050565b6000806105df611395565b9050806002015491505090565b6000806105f7611395565b9050806004015491505090565b61060c6113bd565b610614611444565b565b61061e6113bd565b6106266114b6565b1561065d576040517fff31bc8f00000000000000000000000000000000000000000000000000000000815260040160405180910390fd5b6000610667611395565b9050806004015483116106a6576040517fff31bc8f00000000000000000000000000000000000000000000000000000000815260040160405180910390fd5b828210156106e0576040517fff31bc8f00000000000000000000000000000000000000000000000000000000815260040160405180910390fd5b4282101561071a576040517fff31bc8f00000000000000000000000000000000000000000000000000000000815260040160405180910390fd5b82816004018190555061075a8160010160009054906101000a900473ffffffffffffffffffffffffffffffffffffffff166107536114f6565b30876114fe565b8381600201600082825461076e9190612825565b9250508190555060405180608001604052808481526020018381526020018581526020016000815250816005016000820151816000015560208201518160010155604082015181600201556060820151816003015590505050505050565b6107d4611580565b60006107de611395565b90508060000160009054906101000a900473ffffffffffffffffffffffffffffffffffffffff1673ffffffffffffffffffffffffffffffffffffffff166108236114f6565b73ffffffffffffffffffffffffffffffffffffffff1614610870576040517fcc12cef600000000000000000000000000000000000000000000000000000000815260040160405180910390fd5b600061087a611395565b90506108846115c1565b61088f846000610f17565b50828160090160008673ffffffffffffffffffffffffffffffffffffffff1673ffffffffffffffffffffffffffffffffffffffff16815260200190815260200160002060000160008282546108e49190612825565b92505081905550828160030160008282546108ff9190612825565b9250508190555050505050565b600080610917611395565b90506000610924846116bd565b905060008260090160008673ffffffffffffffffffffffffffffffffffffffff1673ffffffffffffffffffffffffffffffffffffffff1681526020019081526020016000206000015490506000810361098257819350505050610a4b565b600042905083600501600101548111156109a157836005016001015490505b60008460040154826109b39190612859565b905060006109f68660050160405180608001604052908160008201548152602001600182015481526020016002820154815260200160038201548152505061177a565b82610a01919061288d565b90506000670de0b6b3a76400008760030154610a1d919061288d565b8583610a29919061288d565b610a3391906128fe565b90508086610a419190612825565b9750505050505050505b919050565b610a586117b9565b610a618261189f565b610a6b82826118aa565b5050565b610a77611580565b6000610a81611395565b90508060000160009054906101000a900473ffffffffffffffffffffffffffffffffffffffff1673ffffffffffffffffffffffffffffffffffffffff16610ac66114f6565b73ffffffffffffffffffffffffffffffffffffffff1614610b13576040517fcc12cef600000000000000000000000000000000000000000000000000000000815260040160405180910390fd5b6000610b1d611395565b9050610b276114b6565b15610b5e576040517fd6b0a7de00000000000000000000000000000000000000000000000000000000815260040160405180910390fd5b610b666115c1565b610b71836000610f17565b508060090160008473ffffffffffffffffffffffffffffffffffffffff1673ffffffffffffffffffffffffffffffffffffffff16815260200190815260200160002060000154816003016000828254610bca9190612859565b9250508190555060008160090160008573ffffffffffffffffffffffffffffffffffffffff1673ffffffffffffffffffffffffffffffffffffffff16815260200190815260200160002060000181905550505050565b6000610c2a6119c9565b7f360894a13ba1a3210667c828492db98dca3e2076cc3735a920a3ca505d382bbc60001b905090565b600080610c5e611a50565b90508060000160009054906101000a900460ff1691505090565b610c80612227565b6000610c8a611395565b90508060050160405180608001604052908160008201548152602001600182015481526020016002820154815260200160038201548152505091505090565b610cd16113bd565b6000610cdb611395565b9050818160000160006101000a81548173ffffffffffffffffffffffffffffffffffffffff021916908373ffffffffffffffffffffffffffffffffffffffff1602179055505050565b610d2c6113bd565b610d366000611a78565b565b610d406113bd565b6000610d4a611395565b9050818160010160006101000a81548173ffffffffffffffffffffffffffffffffffffffff021916908373ffffffffffffffffffffffffffffffffffffffff1602179055505050565b610d9b6113bd565b610da3611b4f565b565b600080610db0611bc1565b90508060000160009054906101000a900473ffffffffffffffffffffffffffffffffffffffff1691505090565b6040518060400160405280600581526020017f352e302e3000000000000000000000000000000000000000000000000000000081525081565b6000610e20611580565b6000610e2a611395565b90508060000160009054906101000a900473ffffffffffffffffffffffffffffffffffffffff1673ffffffffffffffffffffffffffffffffffffffff16610e6f6114f6565b73ffffffffffffffffffffffffffffffffffffffff1614610ebc576040517fcc12cef600000000000000000000000000000000000000000000000000000000815260040160405180910390fd5b6000610ec78561090c565b905060008103610f03576040517f1e09881a00000000000000000000000000000000000000000000000000000000815260040160405180910390fd5b610f0d8585610f17565b9250505092915050565b600080610f22611395565b90508060000160009054906101000a900473ffffffffffffffffffffffffffffffffffffffff1673ffffffffffffffffffffffffffffffffffffffff16610f676114f6565b73ffffffffffffffffffffffffffffffffffffffff1614610fb4576040517fcc12cef600000000000000000000000000000000000000000000000000000000815260040160405180910390fd5b6000610fbe611395565b905060008160090160008773ffffffffffffffffffffffffffffffffffffffff1673ffffffffffffffffffffffffffffffffffffffff168152602001908152602001600020905061100d6115c1565b6000611018876116bd565b90508082600201600082825461102e9190612825565b9250508190555082600501600301548260010181905550808360020160008282546110599190612859565b9250508190555085156110a1578082600001600082825461107a9190612825565b92505081905550808360030160008282546110959190612825565b925050819055506110d1565b6110d08360010160009054906101000a900473ffffffffffffffffffffffffffffffffffffffff168883611be9565b5b8094505050505092915050565b6000806000806000806110ef611395565b90508060000160009054906101000a900473ffffffffffffffffffffffffffffffffffffffff168160010160009054906101000a900473ffffffffffffffffffffffffffffffffffffffff1682600201548360030154846004015495509550955095509550509091929394565b6000611166611c68565b905060008160000160089054906101000a900460ff1615905060008260000160009054906101000a900467ffffffffffffffff1690506000808267ffffffffffffffff161480156111b45750825b9050600060018367ffffffffffffffff161480156111e9575060003073ffffffffffffffffffffffffffffffffffffffff163b145b9050811580156111f7575080155b1561122e576040517ff92ee8a900000000000000000000000000000000000000000000000000000000815260040160405180910390fd5b60018560000160006101000a81548167ffffffffffffffff021916908367ffffffffffffffff160217905550831561127e5760018560000160086101000a81548160ff0219169083151502179055505b611286611c7c565b61128e611c86565b61129786611c98565b61129f611cac565b83156112fb5760008560000160086101000a81548160ff0219169083151502179055507fc7f505b2f371ae2175ee4913f4499e1f2633a7b5936321eed1cdaeb6115181d260016040516112f29190612988565b60405180910390a15b505050505050565b670de0b6b3a764000081565b6113176113bd565b600073ffffffffffffffffffffffffffffffffffffffff168173ffffffffffffffffffffffffffffffffffffffff16036113895760006040517f1e4fbdf7000000000000000000000000000000000000000000000000000000008152600401611380919061267b565b60405180910390fd5b61139281611a78565b50565b60007fe9672d2c676bb94d428d6ce523668c779079df8febe4142a9972a2a2313d2c00905090565b6113c56114f6565b73ffffffffffffffffffffffffffffffffffffffff166113e3610da5565b73ffffffffffffffffffffffffffffffffffffffff1614611442576114066114f6565b6040517f118cdaa7000000000000000000000000000000000000000000000000000000008152600401611439919061267b565b60405180910390fd5b565b61144c611cb6565b6000611456611a50565b905060008160000160006101000a81548160ff0219169083151502179055507f5db9ee0a495bf2e6ff9c91a7834c1ba4fdd244a5e8aa4e537bd38aeae4b073aa61149e6114f6565b6040516114ab919061267b565b60405180910390a150565b6000806114c1611395565b905080600501600001544210806114de5750806005016001015442115b156114ed5760009150506114f3565b60019150505b90565b600033905090565b61157a848573ffffffffffffffffffffffffffffffffffffffff166323b872dd868686604051602401611533939291906129a3565b604051602081830303815290604052915060e01b6020820180517bffffffffffffffffffffffffffffffffffffffffffffffffffffffff8381831617835250505050611cf6565b50505050565b611588610c53565b156115bf576040517fd93c066500000000000000000000000000000000000000000000000000000000815260040160405180910390fd5b565b60006115cb611395565b90506000816005019050600042905081600001548110156115ee57816000015490505b816001015481111561160257816001015490505b82600401548103611615575050506116bb565b6000836003015411156116b75760008360040154826116349190612859565b905060006116748460405180608001604052908160008201548152602001600182015481526020016002820154815260200160038201548152505061177a565b8261167f919061288d565b905084600301548161169191906128fe565b8460030160008282546116a49190612825565b9250508190555082856004018190555050505b5050505b565b6000806116c8611395565b905060008160090160008573ffffffffffffffffffffffffffffffffffffffff1673ffffffffffffffffffffffffffffffffffffffff16815260200190815260200160002060405180606001604052908160008201548152602001600182015481526020016002820154815250509050670de0b6b3a7640000816020015183600501600301546117589190612859565b8260000151611767919061288d565b61177191906128fe565b92505050919050565b6000816000015182602001516117909190612859565b8260400151670de0b6b3a76400006117a8919061288d565b6117b291906128fe565b9050919050565b7f000000000000000000000000000000000000000000000000000000000000000073ffffffffffffffffffffffffffffffffffffffff163073ffffffffffffffffffffffffffffffffffffffff16148061186657507f000000000000000000000000000000000000000000000000000000000000000073ffffffffffffffffffffffffffffffffffffffff1661184d611d98565b73ffffffffffffffffffffffffffffffffffffffff1614155b1561189d576040517fe07c8dba00000000000000000000000000000000000000000000000000000000815260040160405180910390fd5b565b6118a76113bd565b50565b8173ffffffffffffffffffffffffffffffffffffffff166352d1902d6040518163ffffffff1660e01b8152600401602060405180830381865afa92505050801561191257506040513d601f19601f8201168201806040525081019061190f9190612a06565b60015b61195357816040517f4c9c8ce300000000000000000000000000000000000000000000000000000000815260040161194a919061267b565b60405180910390fd5b7f360894a13ba1a3210667c828492db98dca3e2076cc3735a920a3ca505d382bbc60001b81146119ba57806040517faa1d49a40000000000000000000000000000000000000000000000000000000081526004016119b1919061259c565b60405180910390fd5b6119c48383611def565b505050565b7f000000000000000000000000000000000000000000000000000000000000000073ffffffffffffffffffffffffffffffffffffffff163073ffffffffffffffffffffffffffffffffffffffff1614611a4e576040517fe07c8dba00000000000000000000000000000000000000000000000000000000815260040160405180910390fd5b565b60007fcd5ed15c6e187e77e9aee88184c21f4f2182ab5827cb3b7e07fbedcd63f03300905090565b6000611a82611bc1565b905060008160000160009054906101000a900473ffffffffffffffffffffffffffffffffffffffff169050828260000160006101000a81548173ffffffffffffffffffffffffffffffffffffffff021916908373ffffffffffffffffffffffffffffffffffffffff1602179055508273ffffffffffffffffffffffffffffffffffffffff168173ffffffffffffffffffffffffffffffffffffffff167f8be0079c531659141344cd1fd0a4f28419497f9722a3daafe3b4186f6b6457e060405160405180910390a3505050565b611b57611580565b6000611b61611a50565b905060018160000160006101000a81548160ff0219169083151502179055507f62e78cea01bee320cd4e420270b5ea74000d11b0c9f74754ebdbfc544b05a258611ba96114f6565b604051611bb6919061267b565b60405180910390a150565b60007f9016d09d72d40fdae2fd8ceac6b6234c7706214fd39c1cd1e609a0528c199300905090565b611c63838473ffffffffffffffffffffffffffffffffffffffff1663a9059cbb8585604051602401611c1c929190612a33565b604051602081830303815290604052915060e01b6020820180517bffffffffffffffffffffffffffffffffffffffffffffffffffffffff8381831617835250505050611cf6565b505050565b600080611c73611e62565b90508091505090565b611c84611e8d565b565b611c8e611e8d565b611c96611ecd565b565b611ca0611e8d565b611ca981611eee565b50565b611cb4611e8d565b565b611cbe610c53565b611cf4576040517f8dfc202b00000000000000000000000000000000000000000000000000000000815260040160405180910390fd5b565b600080602060008451602086016000885af180611d19576040513d6000823e3d81fd5b3d925060005191505060008214611d34576001811415611d50565b60008473ffffffffffffffffffffffffffffffffffffffff163b145b15611d9257836040517f5274afe7000000000000000000000000000000000000000000000000000000008152600401611d89919061267b565b60405180910390fd5b50505050565b6000611dc67f360894a13ba1a3210667c828492db98dca3e2076cc3735a920a3ca505d382bbc60001b611f74565b60000160009054906101000a900473ffffffffffffffffffffffffffffffffffffffff16905090565b611df882611f7e565b8173ffffffffffffffffffffffffffffffffffffffff167fbc7cd75a20ee27fd9adebab32041f755214dbc6bffa90cc0225b39da2e5c2d3b60405160405180910390a2600081511115611e5557611e4f828261204b565b50611e5e565b611e5d6120cf565b5b5050565b60007ff0c57e16840df040f15088dc2f81fe391c3923bec73e23a9662efc9c229c6a0060001b905090565b611e9561210c565b611ecb576040517fd7e6bcf800000000000000000000000000000000000000000000000000000000815260040160405180910390fd5b565b611ed5611e8d565b6000611edf61212c565b90506001816000018190555050565b611ef6611e8d565b600073ffffffffffffffffffffffffffffffffffffffff168173ffffffffffffffffffffffffffffffffffffffff1603611f685760006040517f1e4fbdf7000000000000000000000000000000000000000000000000000000008152600401611f5f919061267b565b60405180910390fd5b611f7181611a78565b50565b6000819050919050565b60008173ffffffffffffffffffffffffffffffffffffffff163b03611fda57806040517f4c9c8ce3000000000000000000000000000000000000000000000000000000008152600401611fd1919061267b565b60405180910390fd5b806120077f360894a13ba1a3210667c828492db98dca3e2076cc3735a920a3ca505d382bbc60001b611f74565b60000160006101000a81548173ffffffffffffffffffffffffffffffffffffffff021916908373ffffffffffffffffffffffffffffffffffffffff16021790555050565b60606000808473ffffffffffffffffffffffffffffffffffffffff16846040516120759190612aa3565b600060405180830381855af49150503d80600081146120b0576040519150601f19603f3d011682016040523d82523d6000602084013e6120b5565b606091505b50915091506120c5858383612154565b9250505092915050565b600034111561210a576040517fb398979f00000000000000000000000000000000000000000000000000000000815260040160405180910390fd5b565b6000612116611c68565b60000160089054906101000a900460ff16905090565b60007f9b779b17422d0df92223018b32b4d1fa46e071723d6817e2486d003becc55f00905090565b60608261216957612164826121e3565b6121db565b60008251148015612191575060008473ffffffffffffffffffffffffffffffffffffffff163b145b156121d357836040517f9996b3150000000000000000000000000000000000000000000000000000000081526004016121ca919061267b565b60405180910390fd5b8190506121dc565b5b9392505050565b6000815111156121f557805160208201fd5b6040517fd6bda27500000000000000000000000000000000000000000000000000000000815260040160405180910390fd5b6040518060800160405280600081526020016000815260200160008152602001600081525090565b6000604051905090565b600080fd5b600080fd5b600073ffffffffffffffffffffffffffffffffffffffff82169050919050565b600061228e82612263565b9050919050565b61229e81612283565b81146122a957600080fd5b50565b6000813590506122bb81612295565b92915050565b6000602082840312156122d7576122d6612259565b5b60006122e5848285016122ac565b91505092915050565b6000819050919050565b612301816122ee565b82525050565b600060208201905061231c60008301846122f8565b92915050565b61232b816122ee565b811461233657600080fd5b50565b60008135905061234881612322565b92915050565b60008060006060848603121561236757612366612259565b5b600061237586828701612339565b935050602061238686828701612339565b925050604061239786828701612339565b9150509250925092565b600080604083850312156123b8576123b7612259565b5b60006123c6858286016122ac565b92505060206123d785828601612339565b9150509250929050565b600080fd5b600080fd5b6000601f19601f8301169050919050565b7f4e487b7100000000000000000000000000000000000000000000000000000000600052604160045260246000fd5b612434826123eb565b810181811067ffffffffffffffff82111715612453576124526123fc565b5b80604052505050565b600061246661224f565b9050612472828261242b565b919050565b600067ffffffffffffffff821115612492576124916123fc565b5b61249b826123eb565b9050602081019050919050565b82818337600083830152505050565b60006124ca6124c584612477565b61245c565b9050828152602081018484840111156124e6576124e56123e6565b5b6124f18482856124a8565b509392505050565b600082601f83011261250e5761250d6123e1565b5b813561251e8482602086016124b7565b91505092915050565b6000806040838503121561253e5761253d612259565b5b600061254c858286016122ac565b925050602083013567ffffffffffffffff81111561256d5761256c61225e565b5b612579858286016124f9565b9150509250929050565b6000819050919050565b61259681612583565b82525050565b60006020820190506125b1600083018461258d565b92915050565b60008115159050919050565b6125cc816125b7565b82525050565b60006020820190506125e760008301846125c3565b92915050565b6125f6816122ee565b82525050565b60808201600082015161261260008501826125ed565b50602082015161262560208501826125ed565b50604082015161263860408501826125ed565b50606082015161264b60608501826125ed565b50505050565b600060808201905061266660008301846125fc565b92915050565b61267581612283565b82525050565b6000602082019050612690600083018461266c565b92915050565b600081519050919050565b600082825260208201905092915050565b60005b838110156126d05780820151818401526020810190506126b5565b60008484015250505050565b60006126e782612696565b6126f181856126a1565b93506127018185602086016126b2565b61270a816123eb565b840191505092915050565b6000602082019050818103600083015261272f81846126dc565b905092915050565b612740816125b7565b811461274b57600080fd5b50565b60008135905061275d81612737565b92915050565b6000806040838503121561277a57612779612259565b5b6000612788858286016122ac565b92505060206127998582860161274e565b9150509250929050565b600060a0820190506127b8600083018861266c565b6127c5602083018761266c565b6127d260408301866122f8565b6127df60608301856122f8565b6127ec60808301846122f8565b9695505050505050565b7f4e487b7100000000000000000000000000000000000000000000000000000000600052601160045260246000fd5b6000612830826122ee565b915061283b836122ee565b9250828201905080821115612853576128526127f6565b5b92915050565b6000612864826122ee565b915061286f836122ee565b9250828203905081811115612887576128866127f6565b5b92915050565b6000612898826122ee565b91506128a3836122ee565b92508282026128b1816122ee565b915082820484148315176128c8576128c76127f6565b5b5092915050565b7f4e487b7100000000000000000000000000000000000000000000000000000000600052601260045260246000fd5b6000612909826122ee565b9150612914836122ee565b925082612924576129236128cf565b5b828204905092915050565b6000819050919050565b600067ffffffffffffffff82169050919050565b6000819050919050565b600061297261296d6129688461292f565b61294d565b612939565b9050919050565b61298281612957565b82525050565b600060208201905061299d6000830184612979565b92915050565b60006060820190506129b8600083018661266c565b6129c5602083018561266c565b6129d260408301846122f8565b949350505050565b6129e381612583565b81146129ee57600080fd5b50565b600081519050612a00816129da565b92915050565b600060208284031215612a1c57612a1b612259565b5b6000612a2a848285016129f1565b91505092915050565b6000604082019050612a48600083018561266c565b612a5560208301846122f8565b9392505050565b600081519050919050565b600081905092915050565b6000612a7d82612a5c565b612a878185612a67565b9350612a978185602086016126b2565b80840191505092915050565b6000612aaf8284612a72565b91508190509291505056fea26469706673582212207328da7a86b93fbbf3362025e3c1d29f22aa429e58251136184ca5d9b69553f264736f6c634300081c0033",
  "linkReferences": {},
  "deployedLinkReferences": {}
}