{
  "_format": "hh-sol-artifact-1",
  "contractName": "veLike",
  "sourceName": "contracts/veLike.sol",
  "abi": [
    {
      "inputs": [],
      "stateMutability": "nonpayable",
      "type": "constructor"
    },
    {
      "inputs": [
        {
          "internalType": "address",
          "name": "target",
          "type": "address"
        }
      ],
      "name": "AddressEmptyCode",
      "type": "error"
    },
    {
      "inputs": [
        {
          "internalType": "address",
          "name": "implementation",
          "type": "address"
        }
      ],
      "name": "ERC1967InvalidImplementation",
      "type": "error"
    },
    {
      "inputs": [],
      "name": "ERC1967NonPayable",
      "type": "error"
    },
    {
      "inputs": [
        {
          "internalType": "address",
          "name": "spender",
          "type": "address"
        },
        {
          "internalType": "uint256",
          "name": "allowance",
          "type": "uint256"
        },
        {
          "internalType": "uint256",
          "name": "needed",
          "type": "uint256"
        }
      ],
      "name": "ERC20InsufficientAllowance",
      "type": "error"
    },
    {
      "inputs": [
        {
          "internalType": "address",
          "name": "sender",
          "type": "address"
        },
        {
          "internalType": "uint256",
          "name": "balance",
          "type": "uint256"
        },
        {
          "internalType": "uint256",
          "name": "needed",
          "type": "uint256"
        }
      ],
      "name": "ERC20InsufficientBalance",
      "type": "error"
    },
    {
      "inputs": [
        {
          "internalType": "address",
          "name": "approver",
          "type": "address"
        }
      ],
      "name": "ERC20InvalidApprover",
      "type": "error"
    },
    {
      "inputs": [
        {
          "internalType": "address",
          "name": "receiver",
          "type": "address"
        }
      ],
      "name": "ERC20InvalidReceiver",
      "type": "error"
    },
    {
      "inputs": [
        {
          "internalType": "address",
          "name": "sender",
          "type": "address"
        }
      ],
      "name": "ERC20InvalidSender",
      "type": "error"
    },
    {
      "inputs": [
        {
          "internalType": "address",
          "name": "spender",
          "type": "address"
        }
      ],
      "name": "ERC20InvalidSpender",
      "type": "error"
    },
    {
      "inputs": [
        {
          "internalType": "address",
          "name": "receiver",
          "type": "address"
        },
        {
          "internalType": "uint256",
          "name": "assets",
          "type": "uint256"
        },
        {
          "internalType": "uint256",
          "name": "max",
          "type": "uint256"
        }
      ],
      "name": "ERC4626ExceededMaxDeposit",
      "type": "error"
    },
    {
      "inputs": [
        {
          "internalType": "address",
          "name": "receiver",
          "type": "address"
        },
        {
          "internalType": "uint256",
          "name": "shares",
          "type": "uint256"
        },
        {
          "internalType": "uint256",
          "name": "max",
          "type": "uint256"
        }
      ],
      "name": "ERC4626ExceededMaxMint",
      "type": "error"
    },
    {
      "inputs": [
        {
          "internalType": "address",
          "name": "owner",
          "type": "address"
        },
        {
          "internalType": "uint256",
          "name": "shares",
          "type": "uint256"
        },
        {
          "internalType": "uint256",
          "name": "max",
          "type": "uint256"
        }
      ],
      "name": "ERC4626ExceededMaxRedeem",
      "type": "error"
    },
    {
      "inputs": [
        {
          "internalType": "address",
          "name": "owner",
          "type": "address"
        },
        {
          "internalType": "uint256",
          "name": "assets",
          "type": "uint256"
        },
        {
          "internalType": "uint256",
          "name": "max",
          "type": "uint256"
        }
      ],
      "name": "ERC4626ExceededMaxWithdraw",
      "type": "error"
    },
    {
      "inputs": [],
      "name": "EnforcedPause",
      "type": "error"
    },
    {
      "inputs": [],
      "name": "ErrNoRewardToClaim",
      "type": "error"
    },
    {
      "inputs": [],
      "name": "ErrNonTransferable",
      "type": "error"
    },
    {
      "inputs": [],
      "name": "ErrWithdrawLocked",
      "type": "error"
    },
    {
      "inputs": [],
      "name": "ExpectedPause",
      "type": "error"
    },
    {
      "inputs": [],
      "name": "FailedCall",
      "type": "error"
    },
    {
      "inputs": [],
      "name": "InvalidInitialization",
      "type": "error"
    },
    {
      "inputs": [],
      "name": "NotInitializing",
      "type": "error"
    },
    {
      "inputs": [
        {
          "internalType": "address",
          "name": "owner",
          "type": "address"
        }
      ],
      "name": "OwnableInvalidOwner",
      "type": "error"
    },
    {
      "inputs": [
        {
          "internalType": "address",
          "name": "account",
          "type": "address"
        }
      ],
      "name": "OwnableUnauthorizedAccount",
      "type": "error"
    },
    {
      "inputs": [],
      "name": "ReentrancyGuardReentrantCall",
      "type": "error"
    },
    {
      "inputs": [
        {
          "internalType": "address",
          "name": "token",
          "type": "address"
        }
      ],
      "name": "SafeERC20FailedOperation",
      "type": "error"
    },
    {
      "inputs": [],
      "name": "UUPSUnauthorizedCallContext",
      "type": "error"
    },
    {
      "inputs": [
        {
          "internalType": "bytes32",
          "name": "slot",
          "type": "bytes32"
        }
      ],
      "name": "UUPSUnsupportedProxiableUUID",
      "type": "error"
    },
    {
      "anonymous": false,
      "inputs": [
        {
          "indexed": true,
          "internalType": "address",
          "name": "owner",
          "type": "address"
        },
        {
          "indexed": true,
          "internalType": "address",
          "name": "spender",
          "type": "address"
        },
        {
          "indexed": false,
          "internalType": "uint256",
          "name": "value",
          "type": "uint256"
        }
      ],
      "name": "Approval",
      "type": "event"
    },
    {
      "anonymous": false,
      "inputs": [
        {
          "indexed": true,
          "internalType": "address",
          "name": "sender",
          "type": "address"
        },
        {
          "indexed": true,
          "internalType": "address",
          "name": "owner",
          "type": "address"
        },
        {
          "indexed": false,
          "internalType": "uint256",
          "name": "assets",
          "type": "uint256"
        },
        {
          "indexed": false,
          "internalType": "uint256",
          "name": "shares",
          "type": "uint256"
        }
      ],
      "name": "Deposit",
      "type": "event"
    },
    {
      "anonymous": false,
      "inputs": [
        {
          "indexed": false,
          "internalType": "uint64",
          "name": "version",
          "type": "uint64"
        }
      ],
      "name": "Initialized",
      "type": "event"
    },
    {
      "anonymous": false,
      "inputs": [
        {
          "indexed": true,
          "internalType": "address",
          "name": "previousOwner",
          "type": "address"
        },
        {
          "indexed": true,
          "internalType": "address",
          "name": "newOwner",
          "type": "address"
        }
      ],
      "name": "OwnershipTransferred",
      "type": "event"
    },
    {
      "anonymous": false,
      "inputs": [
        {
          "indexed": false,
          "internalType": "address",
          "name": "account",
          "type": "address"
        }
      ],
      "name": "Paused",
      "type": "event"
    },
    {
      "anonymous": false,
      "inputs": [
        {
          "indexed": true,
          "internalType": "address",
          "name": "from",
          "type": "address"
        },
        {
          "indexed": true,
          "internalType": "address",
          "name": "to",
          "type": "address"
        },
        {
          "indexed": false,
          "internalType": "uint256",
          "name": "value",
          "type": "uint256"
        }
      ],
      "name": "Transfer",
      "type": "event"
    },
    {
      "anonymous": false,
      "inputs": [
        {
          "indexed": false,
          "internalType": "address",
          "name": "account",
          "type": "address"
        }
      ],
      "name": "Unpaused",
      "type": "event"
    },
    {
      "anonymous": false,
      "inputs": [
        {
          "indexed": true,
          "internalType": "address",
          "name": "implementation",
          "type": "address"
        }
      ],
      "name": "Upgraded",
      "type": "event"
    },
    {
      "anonymous": false,
      "inputs": [
        {
          "indexed": true,
          "internalType": "address",
          "name": "sender",
          "type": "address"
        },
        {
          "indexed": true,
          "internalType": "address",
          "name": "receiver",
          "type": "address"
        },
        {
          "indexed": true,
          "internalType": "address",
          "name": "owner",
          "type": "address"
        },
        {
          "indexed": false,
          "internalType": "uint256",
          "name": "assets",
          "type": "uint256"
        },
        {
          "indexed": false,
          "internalType": "uint256",
          "name": "shares",
          "type": "uint256"
        }
      ],
      "name": "Withdraw",
      "type": "event"
    },
    {
      "inputs": [],
      "name": "UPGRADE_INTERFACE_VERSION",
      "outputs": [
        {
          "internalType": "string",
          "name": "",
          "type": "string"
        }
      ],
      "stateMutability": "view",
      "type": "function"
    },
    {
      "inputs": [
        {
          "internalType": "address",
          "name": "owner",
          "type": "address"
        },
        {
          "internalType": "address",
          "name": "spender",
          "type": "address"
        }
      ],
      "name": "allowance",
      "outputs": [
        {
          "internalType": "uint256",
          "name": "",
          "type": "uint256"
        }
      ],
      "stateMutability": "view",
      "type": "function"
    },
    {
      "inputs": [
        {
          "internalType": "address",
          "name": "spender",
          "type": "address"
        },
        {
          "internalType": "uint256",
          "name": "value",
          "type": "uint256"
        }
      ],
      "name": "approve",
      "outputs": [
        {
          "internalType": "bool",
          "name": "",
          "type": "bool"
        }
      ],
      "stateMutability": "nonpayable",
      "type": "function"
    },
    {
      "inputs": [],
      "name": "asset",
      "outputs": [
        {
          "internalType": "address",
          "name": "",
          "type": "address"
        }
      ],
      "stateMutability": "view",
      "type": "function"
    },
    {
      "inputs": [
        {
          "internalType": "address",
          "name": "account",
          "type": "address"
        }
      ],
      "name": "balanceOf",
      "outputs": [
        {
          "internalType": "uint256",
          "name": "",
          "type": "uint256"
        }
      ],
      "stateMutability": "view",
      "type": "function"
    },
    {
      "inputs": [
        {
          "internalType": "address",
          "name": "account",
          "type": "address"
        }
      ],
      "name": "claimReward",
      "outputs": [
        {
          "internalType": "uint256",
          "name": "",
          "type": "uint256"
        }
      ],
      "stateMutability": "nonpayable",
      "type": "function"
    },
    {
      "inputs": [
        {
          "internalType": "uint256",
          "name": "shares",
          "type": "uint256"
        }
      ],
      "name": "convertToAssets",
      "outputs": [
        {
          "internalType": "uint256",
          "name": "",
          "type": "uint256"
        }
      ],
      "stateMutability": "view",
      "type": "function"
    },
    {
      "inputs": [
        {
          "internalType": "uint256",
          "name": "assets",
          "type": "uint256"
        }
      ],
      "name": "convertToShares",
      "outputs": [
        {
          "internalType": "uint256",
          "name": "",
          "type": "uint256"
        }
      ],
      "stateMutability": "view",
      "type": "function"
    },
    {
      "inputs": [],
      "name": "decimals",
      "outputs": [
        {
          "internalType": "uint8",
          "name": "",
          "type": "uint8"
        }
      ],
      "stateMutability": "view",
      "type": "function"
    },
    {
      "inputs": [
        {
          "internalType": "uint256",
          "name": "assets",
          "type": "uint256"
        },
        {
          "internalType": "address",
          "name": "receiver",
          "type": "address"
        }
      ],
      "name": "deposit",
      "outputs": [
        {
          "internalType": "uint256",
          "name": "",
          "type": "uint256"
        }
      ],
      "stateMutability": "nonpayable",
      "type": "function"
    },
    {
      "inputs": [],
      "name": "getCurrentRewardContract",
      "outputs": [
        {
          "internalType": "contract IRewardContract",
          "name": "",
          "type": "address"
        }
      ],
      "stateMutability": "view",
      "type": "function"
    },
    {
      "inputs": [],
      "name": "getLockTime",
      "outputs": [
        {
          "internalType": "uint256",
          "name": "",
          "type": "uint256"
        }
      ],
      "stateMutability": "view",
      "type": "function"
    },
    {
      "inputs": [
        {
          "internalType": "address",
          "name": "account",
          "type": "address"
        }
      ],
      "name": "getPendingReward",
      "outputs": [
        {
          "internalType": "uint256",
          "name": "",
          "type": "uint256"
        }
      ],
      "stateMutability": "view",
      "type": "function"
    },
    {
      "inputs": [
        {
          "internalType": "address",
          "name": "initialOwner",
          "type": "address"
        },
        {
          "internalType": "address",
          "name": "like",
          "type": "address"
        }
      ],
      "name": "initialize",
      "outputs": [],
      "stateMutability": "nonpayable",
      "type": "function"
    },
    {
      "inputs": [
        {
          "internalType": "address",
          "name": "",
          "type": "address"
        }
      ],
      "name": "maxDeposit",
      "outputs": [
        {
          "internalType": "uint256",
          "name": "",
          "type": "uint256"
        }
      ],
      "stateMutability": "view",
      "type": "function"
    },
    {
      "inputs": [
        {
          "internalType": "address",
          "name": "",
          "type": "address"
        }
      ],
      "name": "maxMint",
      "outputs": [
        {
          "internalType": "uint256",
          "name": "",
          "type": "uint256"
        }
      ],
      "stateMutability": "view",
      "type": "function"
    },
    {
      "inputs": [
        {
          "internalType": "address",
          "name": "owner",
          "type": "address"
        }
      ],
      "name": "maxRedeem",
      "outputs": [
        {
          "internalType": "uint256",
          "name": "",
          "type": "uint256"
        }
      ],
      "stateMutability": "view",
      "type": "function"
    },
    {
      "inputs": [
        {
          "internalType": "address",
          "name": "owner",
          "type": "address"
        }
      ],
      "name": "maxWithdraw",
      "outputs": [
        {
          "internalType": "uint256",
          "name": "",
          "type": "uint256"
        }
      ],
      "stateMutability": "view",
      "type": "function"
    },
    {
      "inputs": [
        {
          "internalType": "uint256",
          "name": "shares",
          "type": "uint256"
        },
        {
          "internalType": "address",
          "name": "receiver",
          "type": "address"
        }
      ],
      "name": "mint",
      "outputs": [
        {
          "internalType": "uint256",
          "name": "",
          "type": "uint256"
        }
      ],
      "stateMutability": "nonpayable",
      "type": "function"
    },
    {
      "inputs": [],
      "name": "name",
      "outputs": [
        {
          "internalType": "string",
          "name": "",
          "type": "string"
        }
      ],
      "stateMutability": "view",
      "type": "function"
    },
    {
      "inputs": [],
      "name": "owner",
      "outputs": [
        {
          "internalType": "address",
          "name": "",
          "type": "address"
        }
      ],
      "stateMutability": "view",
      "type": "function"
    },
    {
      "inputs": [],
      "name": "pause",
      "outputs": [],
      "stateMutability": "nonpayable",
      "type": "function"
    },
    {
      "inputs": [],
      "name": "paused",
      "outputs": [
        {
          "internalType": "bool",
          "name": "",
          "type": "bool"
        }
      ],
      "stateMutability": "view",
      "type": "function"
    },
    {
      "inputs": [
        {
          "internalType": "uint256",
          "name": "assets",
          "type": "uint256"
        }
      ],
      "name": "previewDeposit",
      "outputs": [
        {
          "internalType": "uint256",
          "name": "",
          "type": "uint256"
        }
      ],
      "stateMutability": "view",
      "type": "function"
    },
    {
      "inputs": [
        {
          "internalType": "uint256",
          "name": "shares",
          "type": "uint256"
        }
      ],
      "name": "previewMint",
      "outputs": [
        {
          "internalType": "uint256",
          "name": "",
          "type": "uint256"
        }
      ],
      "stateMutability": "view",
      "type": "function"
    },
    {
      "inputs": [
        {
          "internalType": "uint256",
          "name": "shares",
          "type": "uint256"
        }
      ],
      "name": "previewRedeem",
      "outputs": [
        {
          "internalType": "uint256",
          "name": "",
          "type": "uint256"
        }
      ],
      "stateMutability": "view",
      "type": "function"
    },
    {
      "inputs": [
        {
          "internalType": "uint256",
          "name": "assets",
          "type": "uint256"
        }
      ],
      "name": "previewWithdraw",
      "outputs": [
        {
          "internalType": "uint256",
          "name": "",
          "type": "uint256"
        }
      ],
      "stateMutability": "view",
      "type": "function"
    },
    {
      "inputs": [],
      "name": "proxiableUUID",
      "outputs": [
        {
          "internalType": "bytes32",
          "name": "",
          "type": "bytes32"
        }
      ],
      "stateMutability": "view",
      "type": "function"
    },
    {
      "inputs": [
        {
          "internalType": "uint256",
          "name": "shares",
          "type": "uint256"
        },
        {
          "internalType": "address",
          "name": "receiver",
          "type": "address"
        },
        {
          "internalType": "address",
          "name": "owner",
          "type": "address"
        }
      ],
      "name": "redeem",
      "outputs": [
        {
          "internalType": "uint256",
          "name": "",
          "type": "uint256"
        }
      ],
      "stateMutability": "nonpayable",
      "type": "function"
    },
    {
      "inputs": [],
      "name": "renounceOwnership",
      "outputs": [],
      "stateMutability": "nonpayable",
      "type": "function"
    },
    {
      "inputs": [
        {
          "internalType": "address",
          "name": "account",
          "type": "address"
        }
      ],
      "name": "restakeReward",
      "outputs": [
        {
          "internalType": "uint256",
          "name": "",
          "type": "uint256"
        }
      ],
      "stateMutability": "nonpayable",
      "type": "function"
    },
    {
      "inputs": [
        {
          "internalType": "uint256",
          "name": "lockTime",
          "type": "uint256"
        }
      ],
      "name": "setLockTime",
      "outputs": [],
      "stateMutability": "nonpayable",
      "type": "function"
    },
    {
      "inputs": [
        {
          "internalType": "address",
          "name": "rewardContract",
          "type": "address"
        }
      ],
      "name": "setRewardContract",
      "outputs": [],
      "stateMutability": "nonpayable",
      "type": "function"
    },
    {
      "inputs": [],
      "name": "symbol",
      "outputs": [
        {
          "internalType": "string",
          "name": "",
          "type": "string"
        }
      ],
      "stateMutability": "view",
      "type": "function"
    },
    {
      "inputs": [],
      "name": "totalAssets",
      "outputs": [
        {
          "internalType": "uint256",
          "name": "",
          "type": "uint256"
        }
      ],
      "stateMutability": "view",
      "type": "function"
    },
    {
      "inputs": [],
      "name": "totalSupply",
      "outputs": [
        {
          "internalType": "uint256",
          "name": "",
          "type": "uint256"
        }
      ],
      "stateMutability": "view",
      "type": "function"
    },
    {
      "inputs": [
        {
          "internalType": "address",
          "name": "",
          "type": "address"
        },
        {
          "internalType": "uint256",
          "name": "",
          "type": "uint256"
        }
      ],
      "name": "transfer",
      "outputs": [
        {
          "internalType": "bool",
          "name": "",
          "type": "bool"
        }
      ],
      "stateMutability": "nonpayable",
      "type": "function"
    },
    {
      "inputs": [
        {
          "internalType": "address",
          "name": "",
          "type": "address"
        },
        {
          "internalType": "address",
          "name": "",
          "type": "address"
        },
        {
          "internalType": "uint256",
          "name": "",
          "type": "uint256"
        }
      ],
      "name": "transferFrom",
      "outputs": [
        {
          "internalType": "bool",
          "name": "",
          "type": "bool"
        }
      ],
      "stateMutability": "nonpayable",
      "type": "function"
    },
    {
      "inputs": [
        {
          "internalType": "address",
          "name": "newOwner",
          "type": "address"
        }
      ],
      "name": "transferOwnership",
      "outputs": [],
      "stateMutability": "nonpayable",
      "type": "function"
    },
    {
      "inputs": [],
      "name": "unpause",
      "outputs": [],
      "stateMutability": "nonpayable",
      "type": "function"
    },
    {
      "inputs": [
        {
          "internalType": "address",
          "name": "newImplementation",
          "type": "address"
        },
        {
          "internalType": "bytes",
          "name": "data",
          "type": "bytes"
        }
      ],
      "name": "upgradeToAndCall",
      "outputs": [],
      "stateMutability": "payable",
      "type": "function"
    },
    {
      "inputs": [
        {
          "internalType": "uint256",
          "name": "assets",
          "type": "uint256"
        },
        {
          "internalType": "address",
          "name": "receiver",
          "type": "address"
        },
        {
          "internalType": "address",
          "name": "owner",
          "type": "address"
        }
      ],
      "name": "withdraw",
      "outputs": [
        {
          "internalType": "uint256",
          "name": "",
          "type": "uint256"
        }
      ],
      "stateMutability": "nonpayable",
      "type": "function"
    }
  ],
  "bytecode": "0x60a06040523073ffffffffffffffffffffffffffffffffffffffff1660809073ffffffffffffffffffffffffffffffffffffffff1681525034801561004357600080fd5b5061005261005760201b60201c565b6101de565b600061006761015b60201b60201c565b90508060000160089054906101000a900460ff16156100b2576040517ff92ee8a900000000000000000000000000000000000000000000000000000000815260040160405180910390fd5b67ffffffffffffffff80168160000160009054906101000a900467ffffffffffffffff1667ffffffffffffffff16146101585767ffffffffffffffff8160000160006101000a81548167ffffffffffffffff021916908367ffffffffffffffff1602179055507fc7f505b2f371ae2175ee4913f4499e1f2633a7b5936321eed1cdaeb6115181d267ffffffffffffffff60405161014f91906101c3565b60405180910390a15b50565b60008061016c61017560201b60201c565b90508091505090565b60007ff0c57e16840df040f15088dc2f81fe391c3923bec73e23a9662efc9c229c6a0060001b905090565b600067ffffffffffffffff82169050919050565b6101bd816101a0565b82525050565b60006020820190506101d860008301846101b4565b92915050565b60805161413461020760003960008181611b4f01528181611ba40152611d5f01526141346000f3fe6080604052600436106102515760003560e01c8063715018a611610139578063ba087652116100b6578063d279c1911161007a578063d279c19114610943578063d905777e14610980578063dd62ed3e146109bd578063ef8b30f7146109fa578063efb1413914610a37578063f2fde38b14610a7457610251565b8063ba08765214610824578063c0a4d64d14610861578063c63d75b61461088c578063c6e6f592146108c9578063ce96cb771461090657610251565b8063a9059cbb116100fd578063a9059cbb14610719578063ad3cb1cc14610756578063ae04d45d14610781578063b3d7f6b9146107aa578063b460af94146107e757610251565b8063715018a6146106585780638456cb591461066f5780638da5cb5b1461068657806394bf804d146106b157806395d89b41146106ee57610251565b80633f4ba83a116101d25780634f1ef286116101965780634f1ef2861461054357806351508f0a1461055f57806352d1902d146105885780635c975abb146105b35780636e553f65146105de57806370a082311461061b57610251565b80633f4ba83a1461044c578063402d267d14610463578063485cc955146104a05780634cdad506146104c95780634df9d6ba1461050657610251565b806318160ddd1161021957806318160ddd1461036357806323b872dd1461038e578063313ce567146103cb57806338d52e0f146103f65780633a8d0b311461042157610251565b806301e1d1141461025657806306fdde031461028157806307a2d13a146102ac578063095ea7b3146102e95780630a28a47714610326575b600080fd5b34801561026257600080fd5b5061026b610a9d565b6040516102789190613338565b60405180910390f35b34801561028d57600080fd5b50610296610aac565b6040516102a391906133e3565b60405180910390f35b3480156102b857600080fd5b506102d360048036038101906102ce9190613445565b610b4d565b6040516102e09190613338565b60405180910390f35b3480156102f557600080fd5b50610310600480360381019061030b91906134d0565b610b61565b60405161031d919061352b565b60405180910390f35b34801561033257600080fd5b5061034d60048036038101906103489190613445565b610b84565b60405161035a9190613338565b60405180910390f35b34801561036f57600080fd5b50610378610b98565b6040516103859190613338565b60405180910390f35b34801561039a57600080fd5b506103b560048036038101906103b09190613546565b610bb0565b6040516103c2919061352b565b60405180910390f35b3480156103d757600080fd5b506103e0610be4565b6040516103ed91906135b5565b60405180910390f35b34801561040257600080fd5b5061040b610c1b565b60405161041891906135df565b60405180910390f35b34801561042d57600080fd5b50610436610c53565b6040516104439190613659565b60405180910390f35b34801561045857600080fd5b50610461610c8b565b005b34801561046f57600080fd5b5061048a60048036038101906104859190613674565b610c9d565b6040516104979190613338565b60405180910390f35b3480156104ac57600080fd5b506104c760048036038101906104c291906136a1565b610cc7565b005b3480156104d557600080fd5b506104f060048036038101906104eb9190613445565b610eec565b6040516104fd9190613338565b60405180910390f35b34801561051257600080fd5b5061052d60048036038101906105289190613674565b610f00565b60405161053a9190613338565b60405180910390f35b61055d60048036038101906105589190613816565b610fce565b005b34801561056b57600080fd5b5061058660048036038101906105819190613674565b610fed565b005b34801561059457600080fd5b5061059d611048565b6040516105aa919061388b565b60405180910390f35b3480156105bf57600080fd5b506105c861107b565b6040516105d5919061352b565b60405180910390f35b3480156105ea57600080fd5b50610605600480360381019061060091906138a6565b6110a0565b6040516106129190613338565b60405180910390f35b34801561062757600080fd5b50610642600480360381019061063d9190613674565b611122565b60405161064f9190613338565b60405180910390f35b34801561066457600080fd5b5061066d611179565b005b34801561067b57600080fd5b5061068461118d565b005b34801561069257600080fd5b5061069b61119f565b6040516106a891906135df565b60405180910390f35b3480156106bd57600080fd5b506106d860048036038101906106d391906138a6565b6111d7565b6040516106e59190613338565b60405180910390f35b3480156106fa57600080fd5b50610703611259565b60405161071091906133e3565b60405180910390f35b34801561072557600080fd5b50610740600480360381019061073b91906134d0565b6112fa565b60405161074d919061352b565b60405180910390f35b34801561076257600080fd5b5061076b61132e565b60405161077891906133e3565b60405180910390f35b34801561078d57600080fd5b506107a860048036038101906107a39190613445565b611367565b005b3480156107b657600080fd5b506107d160048036038101906107cc9190613445565b611388565b6040516107de9190613338565b60405180910390f35b3480156107f357600080fd5b5061080e600480360381019061080991906138e6565b61139c565b60405161081b9190613338565b60405180910390f35b34801561083057600080fd5b5061084b600480360381019061084691906138e6565b611420565b6040516108589190613338565b60405180910390f35b34801561086d57600080fd5b506108766114a4565b6040516108839190613338565b60405180910390f35b34801561089857600080fd5b506108b360048036038101906108ae9190613674565b6114bc565b6040516108c09190613338565b60405180910390f35b3480156108d557600080fd5b506108f060048036038101906108eb9190613445565b6114e6565b6040516108fd9190613338565b60405180910390f35b34801561091257600080fd5b5061092d60048036038101906109289190613674565b6114fa565b60405161093a9190613338565b60405180910390f35b34801561094f57600080fd5b5061096a60048036038101906109659190613674565b611516565b6040516109779190613338565b60405180910390f35b34801561098c57600080fd5b506109a760048036038101906109a29190613674565b61162f565b6040516109b49190613338565b60405180910390f35b3480156109c957600080fd5b506109e460048036038101906109df91906136a1565b611641565b6040516109f19190613338565b60405180910390f35b348015610a0657600080fd5b50610a216004803603810190610a1c9190613445565b6116d6565b604051610a2e9190613338565b60405180910390f35b348015610a4357600080fd5b50610a5e6004803603810190610a599190613674565b6116ea565b604051610a6b9190613338565b60405180910390f35b348015610a8057600080fd5b50610a9b6004803603810190610a969190613674565b61180d565b005b6000610aa7610b98565b905090565b60606000610ab8611893565b9050806003018054610ac990613968565b80601f0160208091040260200160405190810160405280929190818152602001828054610af590613968565b8015610b425780601f10610b1757610100808354040283529160200191610b42565b820191906000526020600020905b815481529060010190602001808311610b2557829003601f168201915b505050505091505090565b6000610b5a8260006118bb565b9050919050565b600080610b6c611914565b9050610b7981858561191c565b600191505092915050565b6000610b9182600161192e565b9050919050565b600080610ba3611893565b9050806002015491505090565b60006040517f1ed771f800000000000000000000000000000000000000000000000000000000815260040160405180910390fd5b600080610bef611987565b9050610bf96119af565b8160000160149054906101000a900460ff16610c1591906139c8565b91505090565b600080610c26611987565b90508060000160009054906101000a900473ffffffffffffffffffffffffffffffffffffffff1691505090565b600080610c5e6119b4565b90508060000160009054906101000a900473ffffffffffffffffffffffffffffffffffffffff1691505090565b610c936119dc565b610c9b611a63565b565b60007fffffffffffffffffffffffffffffffffffffffffffffffffffffffffffffffff9050919050565b6000610cd1611ad5565b905060008160000160089054906101000a900460ff1615905060008260000160009054906101000a900467ffffffffffffffff1690506000808267ffffffffffffffff16148015610d1f5750825b9050600060018367ffffffffffffffff16148015610d54575060003073ffffffffffffffffffffffffffffffffffffffff163b145b905081158015610d62575080155b15610d99576040517ff92ee8a900000000000000000000000000000000000000000000000000000000815260040160405180910390fd5b60018560000160006101000a81548167ffffffffffffffff021916908367ffffffffffffffff1602179055508315610de95760018560000160086101000a81548160ff0219169083151502179055505b610df286611ae9565b610e666040518060400160405280601681526020017f766f74652d657363726f776564204c696b65436f696e000000000000000000008152506040518060400160405280600681526020017f76654c494b450000000000000000000000000000000000000000000000000000815250611afd565b610e6e611b13565b610e76611b1d565b610e7f87611b2f565b610e87611b43565b8315610ee35760008560000160086101000a81548160ff0219169083151502179055507fc7f505b2f371ae2175ee4913f4499e1f2633a7b5936321eed1cdaeb6115181d26001604051610eda9190613a4c565b60405180910390a15b50505050505050565b6000610ef98260006118bb565b9050919050565b600080610f0b610c53565b9050600073ffffffffffffffffffffffffffffffffffffffff168173ffffffffffffffffffffffffffffffffffffffff1603610f4b576000915050610fc9565b8073ffffffffffffffffffffffffffffffffffffffff16634df9d6ba846040518263ffffffff1660e01b8152600401610f8491906135df565b602060405180830381865afa158015610fa1573d6000803e3d6000fd5b505050506040513d601f19601f82011682018060405250810190610fc59190613a7c565b9150505b919050565b610fd6611b4d565b610fdf82611c33565b610fe98282611c3e565b5050565b610ff56119dc565b6000610fff6119b4565b9050818160000160006101000a81548173ffffffffffffffffffffffffffffffffffffffff021916908373ffffffffffffffffffffffffffffffffffffffff1602179055505050565b6000611052611d5d565b7f360894a13ba1a3210667c828492db98dca3e2076cc3735a920a3ca505d382bbc60001b905090565b600080611086611de4565b90508060000160009054906101000a900460ff1691505090565b6000806110ac83610c9d565b9050808411156110f7578284826040517f79012fb20000000000000000000000000000000000000000000000000000000081526004016110ee93929190613aa9565b60405180910390fd5b6000611102856116d6565b905061111761110f611914565b858784611e0c565b809250505092915050565b60008061112d611893565b90508060000160008473ffffffffffffffffffffffffffffffffffffffff1673ffffffffffffffffffffffffffffffffffffffff16815260200190815260200160002054915050919050565b6111816119dc565b61118b6000611f4d565b565b6111956119dc565b61119d612024565b565b6000806111aa612096565b90508060000160009054906101000a900473ffffffffffffffffffffffffffffffffffffffff1691505090565b6000806111e3836114bc565b90508084111561122e578284826040517f284ff66700000000000000000000000000000000000000000000000000000000815260040161122593929190613aa9565b60405180910390fd5b600061123985611388565b905061124e611246611914565b858388611e0c565b809250505092915050565b60606000611265611893565b905080600401805461127690613968565b80601f01602080910402602001604051908101604052809291908181526020018280546112a290613968565b80156112ef5780601f106112c4576101008083540402835291602001916112ef565b820191906000526020600020905b8154815290600101906020018083116112d257829003601f168201915b505050505091505090565b60006040517f1ed771f800000000000000000000000000000000000000000000000000000000815260040160405180910390fd5b6040518060400160405280600581526020017f352e302e3000000000000000000000000000000000000000000000000000000081525081565b61136f6119dc565b60006113796119b4565b90508181600101819055505050565b60006113958260016118bb565b9050919050565b6000806113a8836114fa565b9050808511156113f3578285826040517ffe9cceec0000000000000000000000000000000000000000000000000000000081526004016113ea93929190613aa9565b60405180910390fd5b60006113fe86610b84565b905061141461140b611914565b868689856120be565b80925050509392505050565b60008061142c8361162f565b905080851115611477578285826040517fb94abeec00000000000000000000000000000000000000000000000000000000815260040161146e93929190613aa9565b60405180910390fd5b600061148286610eec565b905061149861148f611914565b8686848a6120be565b80925050509392505050565b6000806114af6119b4565b9050806001015491505090565b60007fffffffffffffffffffffffffffffffffffffffffffffffffffffffffffffffff9050919050565b60006114f382600061192e565b9050919050565b600061150f61150883611122565b60006118bb565b9050919050565b600061152061229e565b6115286122df565b6000611532610c53565b9050600073ffffffffffffffffffffffffffffffffffffffff168173ffffffffffffffffffffffffffffffffffffffff160361159a576040517f1e09881a00000000000000000000000000000000000000000000000000000000815260040160405180910390fd5b60008173ffffffffffffffffffffffffffffffffffffffff1663aeb51b378560006040518363ffffffff1660e01b81526004016115d8929190613ae0565b6020604051808303816000875af11580156115f7573d6000803e3d6000fd5b505050506040513d601f19601f8201168201806040525081019061161b9190613a7c565b9050809250505061162a612336565b919050565b600061163a82611122565b9050919050565b60008061164c611893565b90508060010160008573ffffffffffffffffffffffffffffffffffffffff1673ffffffffffffffffffffffffffffffffffffffff16815260200190815260200160002060008473ffffffffffffffffffffffffffffffffffffffff1673ffffffffffffffffffffffffffffffffffffffff1681526020019081526020016000205491505092915050565b60006116e382600061192e565b9050919050565b60006116f461229e565b6116fc6122df565b6000611706610c53565b9050600073ffffffffffffffffffffffffffffffffffffffff168173ffffffffffffffffffffffffffffffffffffffff160361176e576040517f1e09881a00000000000000000000000000000000000000000000000000000000815260040160405180910390fd5b60008173ffffffffffffffffffffffffffffffffffffffff1663aeb51b378560016040518363ffffffff1660e01b81526004016117ac929190613ae0565b6020604051808303816000875af11580156117cb573d6000803e3d6000fd5b505050506040513d601f19601f820116820180604052508101906117ef9190613a7c565b90506117fb848261234f565b8092505050611808612336565b919050565b6118156119dc565b600073ffffffffffffffffffffffffffffffffffffffff168173ffffffffffffffffffffffffffffffffffffffff16036118875760006040517f1e4fbdf700000000000000000000000000000000000000000000000000000000815260040161187e91906135df565b60405180910390fd5b61189081611f4d565b50565b60007f52c63247e1f47db19d5ce0460030c497f067ca4cebf71ba98eeadabe20bace00905090565b600061190c60016118ca610a9d565b6118d49190613b09565b6118dc6119af565b600a6118e89190613c70565b6118f0610b98565b6118fa9190613b09565b84866123d1909392919063ffffffff16565b905092915050565b600033905090565b6119298383836001612420565b505050565b600061197f61193b6119af565b600a6119479190613c70565b61194f610b98565b6119599190613b09565b6001611963610a9d565b61196d9190613b09565b84866123d1909392919063ffffffff16565b905092915050565b60007f0773e532dfede91f04b12a73d3d2acd361424f41f76b4fb79f090161e36b4e00905090565b600090565b60007fb9e14b2a89d227541697d62a06ecbf5ccc9ad849800745b40b2826662a177600905090565b6119e4611914565b73ffffffffffffffffffffffffffffffffffffffff16611a0261119f565b73ffffffffffffffffffffffffffffffffffffffff1614611a6157611a25611914565b6040517f118cdaa7000000000000000000000000000000000000000000000000000000008152600401611a5891906135df565b60405180910390fd5b565b611a6b612606565b6000611a75611de4565b905060008160000160006101000a81548160ff0219169083151502179055507f5db9ee0a495bf2e6ff9c91a7834c1ba4fdd244a5e8aa4e537bd38aeae4b073aa611abd611914565b604051611aca91906135df565b60405180910390a150565b600080611ae0612646565b90508091505090565b611af1612671565b611afa816126b1565b50565b611b05612671565b611b0f8282612748565b5050565b611b1b612671565b565b611b25612671565b611b2d612785565b565b611b37612671565b611b40816127a6565b50565b611b4b612671565b565b7f000000000000000000000000000000000000000000000000000000000000000073ffffffffffffffffffffffffffffffffffffffff163073ffffffffffffffffffffffffffffffffffffffff161480611bfa57507f000000000000000000000000000000000000000000000000000000000000000073ffffffffffffffffffffffffffffffffffffffff16611be161282c565b73ffffffffffffffffffffffffffffffffffffffff1614155b15611c31576040517fe07c8dba00000000000000000000000000000000000000000000000000000000815260040160405180910390fd5b565b611c3b6119dc565b50565b8173ffffffffffffffffffffffffffffffffffffffff166352d1902d6040518163ffffffff1660e01b8152600401602060405180830381865afa925050508015611ca657506040513d601f19601f82011682018060405250810190611ca39190613ce7565b60015b611ce757816040517f4c9c8ce3000000000000000000000000000000000000000000000000000000008152600401611cde91906135df565b60405180910390fd5b7f360894a13ba1a3210667c828492db98dca3e2076cc3735a920a3ca505d382bbc60001b8114611d4e57806040517faa1d49a4000000000000000000000000000000000000000000000000000000008152600401611d45919061388b565b60405180910390fd5b611d588383612883565b505050565b7f000000000000000000000000000000000000000000000000000000000000000073ffffffffffffffffffffffffffffffffffffffff163073ffffffffffffffffffffffffffffffffffffffff1614611de2576040517fe07c8dba00000000000000000000000000000000000000000000000000000000815260040160405180910390fd5b565b60007fcd5ed15c6e187e77e9aee88184c21f4f2182ab5827cb3b7e07fbedcd63f03300905090565b611e1461229e565b611e27611e1f610c1b565b8530856128f6565b611e31838261234f565b6000611e3b610c53565b9050600073ffffffffffffffffffffffffffffffffffffffff168173ffffffffffffffffffffffffffffffffffffffff1614611edf578073ffffffffffffffffffffffffffffffffffffffff166347e7ef2485856040518363ffffffff1660e01b8152600401611eac929190613d14565b600060405180830381600087803b158015611ec657600080fd5b505af1158015611eda573d6000803e3d6000fd5b505050505b8373ffffffffffffffffffffffffffffffffffffffff168573ffffffffffffffffffffffffffffffffffffffff167fdcbc1c05240f31ff3ad067ef1ee35ce4997762752e3a095284754544f4c709d78585604051611f3e929190613d3d565b60405180910390a35050505050565b6000611f57612096565b905060008160000160009054906101000a900473ffffffffffffffffffffffffffffffffffffffff169050828260000160006101000a81548173ffffffffffffffffffffffffffffffffffffffff021916908373ffffffffffffffffffffffffffffffffffffffff1602179055508273ffffffffffffffffffffffffffffffffffffffff168173ffffffffffffffffffffffffffffffffffffffff167f8be0079c531659141344cd1fd0a4f28419497f9722a3daafe3b4186f6b6457e060405160405180910390a3505050565b61202c61229e565b6000612036611de4565b905060018160000160006101000a81548160ff0219169083151502179055507f62e78cea01bee320cd4e420270b5ea74000d11b0c9f74754ebdbfc544b05a25861207e611914565b60405161208b91906135df565b60405180910390a150565b60007f9016d09d72d40fdae2fd8ceac6b6234c7706214fd39c1cd1e609a0528c199300905090565b6120c661229e565b60006120d06119b4565b90508060010154421015612110576040517fd6b0a7de00000000000000000000000000000000000000000000000000000000815260040160405180910390fd5b8373ffffffffffffffffffffffffffffffffffffffff168673ffffffffffffffffffffffffffffffffffffffff161461214f5761214e848784612978565b5b6000612159610c53565b9050600073ffffffffffffffffffffffffffffffffffffffff168173ffffffffffffffffffffffffffffffffffffffff16146121fb578073ffffffffffffffffffffffffffffffffffffffff166351cff8d9866040518263ffffffff1660e01b81526004016121c891906135df565b600060405180830381600087803b1580156121e257600080fd5b505af11580156121f6573d6000803e3d6000fd5b505050505b6122058584612a0d565b612217612210610c1b565b8786612a8f565b8473ffffffffffffffffffffffffffffffffffffffff168673ffffffffffffffffffffffffffffffffffffffff168873ffffffffffffffffffffffffffffffffffffffff167ffbde797d201c681b91056529119e0b02407c7bb96a4a2c75c01fc9667232c8db878760405161228d929190613d3d565b60405180910390a450505050505050565b6122a661107b565b156122dd576040517fd93c066500000000000000000000000000000000000000000000000000000000815260040160405180910390fd5b565b60006122e9612b0e565b90506002816000015403612329576040517f3ee5aeb500000000000000000000000000000000000000000000000000000000815260040160405180910390fd5b6002816000018190555050565b6000612340612b0e565b90506001816000018190555050565b600073ffffffffffffffffffffffffffffffffffffffff168273ffffffffffffffffffffffffffffffffffffffff16036123c15760006040517fec442f050000000000000000000000000000000000000000000000000000000081526004016123b891906135df565b60405180910390fd5b6123cd60008383612b36565b5050565b60006124016123df83612d75565b80156123fc5750600084806123f7576123f6613d66565b5b868809115b612da3565b61240c868686612daf565b6124169190613b09565b9050949350505050565b600061242a611893565b9050600073ffffffffffffffffffffffffffffffffffffffff168573ffffffffffffffffffffffffffffffffffffffff160361249e5760006040517fe602df0500000000000000000000000000000000000000000000000000000000815260040161249591906135df565b60405180910390fd5b600073ffffffffffffffffffffffffffffffffffffffff168473ffffffffffffffffffffffffffffffffffffffff16036125105760006040517f94280d6200000000000000000000000000000000000000000000000000000000815260040161250791906135df565b60405180910390fd5b828160010160008773ffffffffffffffffffffffffffffffffffffffff1673ffffffffffffffffffffffffffffffffffffffff16815260200190815260200160002060008673ffffffffffffffffffffffffffffffffffffffff1673ffffffffffffffffffffffffffffffffffffffff1681526020019081526020016000208190555081156125ff578373ffffffffffffffffffffffffffffffffffffffff168573ffffffffffffffffffffffffffffffffffffffff167f8c5be1e5ebec7d5bd14f71427d1e84f3dd0314c0f7b2291e5b200ac8c7c3b925856040516125f69190613338565b60405180910390a35b5050505050565b61260e61107b565b612644576040517f8dfc202b00000000000000000000000000000000000000000000000000000000815260040160405180910390fd5b565b60007ff0c57e16840df040f15088dc2f81fe391c3923bec73e23a9662efc9c229c6a0060001b905090565b612679612e97565b6126af576040517fd7e6bcf800000000000000000000000000000000000000000000000000000000815260040160405180910390fd5b565b6126b9612671565b60006126c3611987565b90506000806126d184612eb7565b91509150816126e15760126126e3565b805b8360000160146101000a81548160ff021916908360ff160217905550838360000160006101000a81548173ffffffffffffffffffffffffffffffffffffffff021916908373ffffffffffffffffffffffffffffffffffffffff16021790555050505050565b612750612671565b600061275a611893565b90508281600301908161276d9190613f37565b508181600401908161277f9190613f37565b50505050565b61278d612671565b6000612797612b0e565b90506001816000018190555050565b6127ae612671565b600073ffffffffffffffffffffffffffffffffffffffff168173ffffffffffffffffffffffffffffffffffffffff16036128205760006040517f1e4fbdf700000000000000000000000000000000000000000000000000000000815260040161281791906135df565b60405180910390fd5b61282981611f4d565b50565b600061285a7f360894a13ba1a3210667c828492db98dca3e2076cc3735a920a3ca505d382bbc60001b612fc7565b60000160009054906101000a900473ffffffffffffffffffffffffffffffffffffffff16905090565b61288c82612fd1565b8173ffffffffffffffffffffffffffffffffffffffff167fbc7cd75a20ee27fd9adebab32041f755214dbc6bffa90cc0225b39da2e5c2d3b60405160405180910390a26000815111156128e9576128e3828261309e565b506128f2565b6128f1613122565b5b5050565b612972848573ffffffffffffffffffffffffffffffffffffffff166323b872dd86868660405160240161292b93929190614009565b604051602081830303815290604052915060e01b6020820180517bffffffffffffffffffffffffffffffffffffffffffffffffffffffff838183161783525050505061315f565b50505050565b60006129848484611641565b90507fffffffffffffffffffffffffffffffffffffffffffffffffffffffffffffffff811015612a0757818110156129f7578281836040517ffb8f41b20000000000000000000000000000000000000000000000000000000081526004016129ee93929190613aa9565b60405180910390fd5b612a0684848484036000612420565b5b50505050565b600073ffffffffffffffffffffffffffffffffffffffff168273ffffffffffffffffffffffffffffffffffffffff1603612a7f5760006040517f96c6fd1e000000000000000000000000000000000000000000000000000000008152600401612a7691906135df565b60405180910390fd5b612a8b82600083612b36565b5050565b612b09838473ffffffffffffffffffffffffffffffffffffffff1663a9059cbb8585604051602401612ac2929190613d14565b604051602081830303815290604052915060e01b6020820180517bffffffffffffffffffffffffffffffffffffffffffffffffffffffff838183161783525050505061315f565b505050565b60007f9b779b17422d0df92223018b32b4d1fa46e071723d6817e2486d003becc55f00905090565b6000612b40611893565b9050600073ffffffffffffffffffffffffffffffffffffffff168473ffffffffffffffffffffffffffffffffffffffff1603612b965781816002016000828254612b8a9190613b09565b92505081905550612c6f565b60008160000160008673ffffffffffffffffffffffffffffffffffffffff1673ffffffffffffffffffffffffffffffffffffffff16815260200190815260200160002054905082811015612c25578481846040517fe450d38c000000000000000000000000000000000000000000000000000000008152600401612c1c93929190613aa9565b60405180910390fd5b8281038260000160008773ffffffffffffffffffffffffffffffffffffffff1673ffffffffffffffffffffffffffffffffffffffff16815260200190815260200160002081905550505b600073ffffffffffffffffffffffffffffffffffffffff168373ffffffffffffffffffffffffffffffffffffffff1603612cba57818160020160008282540392505081905550612d0a565b818160000160008573ffffffffffffffffffffffffffffffffffffffff1673ffffffffffffffffffffffffffffffffffffffff168152602001908152602001600020600082825401925050819055505b8273ffffffffffffffffffffffffffffffffffffffff168473ffffffffffffffffffffffffffffffffffffffff167fddf252ad1be2c89b69c2b068fc378daa952ba7f163c4a11628f55a4df523b3ef84604051612d679190613338565b60405180910390a350505050565b600060016002836003811115612d8e57612d8d614040565b5b612d98919061406f565b60ff16149050919050565b60008115159050919050565b6000806000612dbe8686613201565b9150915060008203612de457838181612dda57612dd9613d66565b5b0492505050612e90565b818411612e0457612e03612dfe6000861460126011613220565b61323a565b5b600084868809905081811183039250808203915060008560000386169050808604955080830492506001818260000304019050808402831792506000600287600302189050808702600203810290508087026002038102905080870260020381029050808702600203810290508087026002038102905080870260020381029050808402955050505050505b9392505050565b6000612ea1611ad5565b60000160089054906101000a900460ff16905090565b6000806000808473ffffffffffffffffffffffffffffffffffffffff1660405160240160405160208183030381529060405263313ce56760e01b6020820180517bffffffffffffffffffffffffffffffffffffffffffffffffffffffff8381831617835250505050604051612f2c91906140e7565b600060405180830381855afa9150503d8060008114612f67576040519150601f19603f3d011682016040523d82523d6000602084013e612f6c565b606091505b5091509150818015612f8057506020815110155b15612fb857600081806020019051810190612f9b9190613a7c565b905060ff80168111612fb65760018194509450505050612fc2565b505b6000809350935050505b915091565b6000819050919050565b60008173ffffffffffffffffffffffffffffffffffffffff163b0361302d57806040517f4c9c8ce300000000000000000000000000000000000000000000000000000000815260040161302491906135df565b60405180910390fd5b8061305a7f360894a13ba1a3210667c828492db98dca3e2076cc3735a920a3ca505d382bbc60001b612fc7565b60000160006101000a81548173ffffffffffffffffffffffffffffffffffffffff021916908373ffffffffffffffffffffffffffffffffffffffff16021790555050565b60606000808473ffffffffffffffffffffffffffffffffffffffff16846040516130c891906140e7565b600060405180830381855af49150503d8060008114613103576040519150601f19603f3d011682016040523d82523d6000602084013e613108565b606091505b509150915061311885838361324c565b9250505092915050565b600034111561315d576040517fb398979f00000000000000000000000000000000000000000000000000000000815260040160405180910390fd5b565b600080602060008451602086016000885af180613182576040513d6000823e3d81fd5b3d92506000519150506000821461319d5760018114156131b9565b60008473ffffffffffffffffffffffffffffffffffffffff163b145b156131fb57836040517f5274afe70000000000000000000000000000000000000000000000000000000081526004016131f291906135df565b60405180910390fd5b50505050565b6000806000198385098385029150818110828203039250509250929050565b600061322b84612da3565b82841802821890509392505050565b634e487b71600052806020526024601cfd5b6060826132615761325c826132db565b6132d3565b60008251148015613289575060008473ffffffffffffffffffffffffffffffffffffffff163b145b156132cb57836040517f9996b3150000000000000000000000000000000000000000000000000000000081526004016132c291906135df565b60405180910390fd5b8190506132d4565b5b9392505050565b6000815111156132ed57805160208201fd5b6040517fd6bda27500000000000000000000000000000000000000000000000000000000815260040160405180910390fd5b6000819050919050565b6133328161331f565b82525050565b600060208201905061334d6000830184613329565b92915050565b600081519050919050565b600082825260208201905092915050565b60005b8381101561338d578082015181840152602081019050613372565b60008484015250505050565b6000601f19601f8301169050919050565b60006133b582613353565b6133bf818561335e565b93506133cf81856020860161336f565b6133d881613399565b840191505092915050565b600060208201905081810360008301526133fd81846133aa565b905092915050565b6000604051905090565b600080fd5b600080fd5b6134228161331f565b811461342d57600080fd5b50565b60008135905061343f81613419565b92915050565b60006020828403121561345b5761345a61340f565b5b600061346984828501613430565b91505092915050565b600073ffffffffffffffffffffffffffffffffffffffff82169050919050565b600061349d82613472565b9050919050565b6134ad81613492565b81146134b857600080fd5b50565b6000813590506134ca816134a4565b92915050565b600080604083850312156134e7576134e661340f565b5b60006134f5858286016134bb565b925050602061350685828601613430565b9150509250929050565b60008115159050919050565b61352581613510565b82525050565b6000602082019050613540600083018461351c565b92915050565b60008060006060848603121561355f5761355e61340f565b5b600061356d868287016134bb565b935050602061357e868287016134bb565b925050604061358f86828701613430565b9150509250925092565b600060ff82169050919050565b6135af81613599565b82525050565b60006020820190506135ca60008301846135a6565b92915050565b6135d981613492565b82525050565b60006020820190506135f460008301846135d0565b92915050565b6000819050919050565b600061361f61361a61361584613472565b6135fa565b613472565b9050919050565b600061363182613604565b9050919050565b600061364382613626565b9050919050565b61365381613638565b82525050565b600060208201905061366e600083018461364a565b92915050565b60006020828403121561368a5761368961340f565b5b6000613698848285016134bb565b91505092915050565b600080604083850312156136b8576136b761340f565b5b60006136c6858286016134bb565b92505060206136d7858286016134bb565b9150509250929050565b600080fd5b600080fd5b7f4e487b7100000000000000000000000000000000000000000000000000000000600052604160045260246000fd5b61372382613399565b810181811067ffffffffffffffff82111715613742576137416136eb565b5b80604052505050565b6000613755613405565b9050613761828261371a565b919050565b600067ffffffffffffffff821115613781576137806136eb565b5b61378a82613399565b9050602081019050919050565b82818337600083830152505050565b60006137b96137b484613766565b61374b565b9050828152602081018484840111156137d5576137d46136e6565b5b6137e0848285613797565b509392505050565b600082601f8301126137fd576137fc6136e1565b5b813561380d8482602086016137a6565b91505092915050565b6000806040838503121561382d5761382c61340f565b5b600061383b858286016134bb565b925050602083013567ffffffffffffffff81111561385c5761385b613414565b5b613868858286016137e8565b9150509250929050565b6000819050919050565b61388581613872565b82525050565b60006020820190506138a0600083018461387c565b92915050565b600080604083850312156138bd576138bc61340f565b5b60006138cb85828601613430565b92505060206138dc858286016134bb565b9150509250929050565b6000806000606084860312156138ff576138fe61340f565b5b600061390d86828701613430565b935050602061391e868287016134bb565b925050604061392f868287016134bb565b9150509250925092565b7f4e487b7100000000000000000000000000000000000000000000000000000000600052602260045260246000fd5b6000600282049050600182168061398057607f821691505b60208210810361399357613992613939565b5b50919050565b7f4e487b7100000000000000000000000000000000000000000000000000000000600052601160045260246000fd5b60006139d382613599565b91506139de83613599565b9250828201905060ff8111156139f7576139f6613999565b5b92915050565b6000819050919050565b600067ffffffffffffffff82169050919050565b6000613a36613a31613a2c846139fd565b6135fa565b613a07565b9050919050565b613a4681613a1b565b82525050565b6000602082019050613a616000830184613a3d565b92915050565b600081519050613a7681613419565b92915050565b600060208284031215613a9257613a9161340f565b5b6000613aa084828501613a67565b91505092915050565b6000606082019050613abe60008301866135d0565b613acb6020830185613329565b613ad86040830184613329565b949350505050565b6000604082019050613af560008301856135d0565b613b02602083018461351c565b9392505050565b6000613b148261331f565b9150613b1f8361331f565b9250828201905080821115613b3757613b36613999565b5b92915050565b60008160011c9050919050565b6000808291508390505b6001851115613b9457808604811115613b7057613b6f613999565b5b6001851615613b7f5780820291505b8081029050613b8d85613b3d565b9450613b54565b94509492505050565b600082613bad5760019050613c69565b81613bbb5760009050613c69565b8160018114613bd15760028114613bdb57613c0a565b6001915050613c69565b60ff841115613bed57613bec613999565b5b8360020a915084821115613c0457613c03613999565b5b50613c69565b5060208310610133831016604e8410600b8410161715613c3f5782820a905083811115613c3a57613c39613999565b5b613c69565b613c4c8484846001613b4a565b92509050818404811115613c6357613c62613999565b5b81810290505b9392505050565b6000613c7b8261331f565b9150613c8683613599565b9250613cb37fffffffffffffffffffffffffffffffffffffffffffffffffffffffffffffffff8484613b9d565b905092915050565b613cc481613872565b8114613ccf57600080fd5b50565b600081519050613ce181613cbb565b92915050565b600060208284031215613cfd57613cfc61340f565b5b6000613d0b84828501613cd2565b91505092915050565b6000604082019050613d2960008301856135d0565b613d366020830184613329565b9392505050565b6000604082019050613d526000830185613329565b613d5f6020830184613329565b9392505050565b7f4e487b7100000000000000000000000000000000000000000000000000000000600052601260045260246000fd5b60008190508160005260206000209050919050565b60006020601f8301049050919050565b600082821b905092915050565b600060088302613df77fffffffffffffffffffffffffffffffffffffffffffffffffffffffffffffffff82613dba565b613e018683613dba565b95508019841693508086168417925050509392505050565b6000613e34613e2f613e2a8461331f565b6135fa565b61331f565b9050919050565b6000819050919050565b613e4e83613e19565b613e62613e5a82613e3b565b848454613dc7565b825550505050565b600090565b613e77613e6a565b613e82818484613e45565b505050565b5b81811015613ea657613e9b600082613e6f565b600181019050613e88565b5050565b601f821115613eeb57613ebc81613d95565b613ec584613daa565b81016020851015613ed4578190505b613ee8613ee085613daa565b830182613e87565b50505b505050565b600082821c905092915050565b6000613f0e60001984600802613ef0565b1980831691505092915050565b6000613f278383613efd565b9150826002028217905092915050565b613f4082613353565b67ffffffffffffffff811115613f5957613f586136eb565b5b613f638254613968565b613f6e828285613eaa565b600060209050601f831160018114613fa15760008415613f8f578287015190505b613f998582613f1b565b865550614001565b601f198416613faf86613d95565b60005b82811015613fd757848901518255600182019150602085019450602081019050613fb2565b86831015613ff45784890151613ff0601f891682613efd565b8355505b6001600288020188555050505b505050505050565b600060608201905061401e60008301866135d0565b61402b60208301856135d0565b6140386040830184613329565b949350505050565b7f4e487b7100000000000000000000000000000000000000000000000000000000600052602160045260246000fd5b600061407a82613599565b915061408583613599565b92508261409557614094613d66565b5b828206905092915050565b600081519050919050565b600081905092915050565b60006140c1826140a0565b6140cb81856140ab565b93506140db81856020860161336f565b80840191505092915050565b60006140f382846140b6565b91508190509291505056fea2646970667358221220e5e2a9efee3ef4f023e161501164e1df57ba881da1da9cd22e6d770cd2ca3f2d64736f6c634300081c0033",
  "linkReferences": {},
  "deployedLinkReferences": {}
}