{
  "contracts/veLikeReward.sol": {
    "veLikeReward": {
      "abi": [
        {
          "inputs": [],
          "stateMutability": "nonpayable",
          "type": "constructor"
        },
        {
          "inputs": [
            {
              "internalType": "address",
              "name": "target",
              "type": "address"
            }
          ],
          "name": "AddressEmptyCode",
          "type": "error"
        },
        {
          "inputs": [
            {
              "internalType": "address",
              "name": "implementation",
              "type": "address"
            }
          ],
          "name": "ERC1967InvalidImplementation",
          "type": "error"
        },
        {
          "inputs": [],
          "name": "ERC1967NonPayable",
          "type": "error"
        },
        {
          "inputs": [],
          "name": "EnforcedPause",
          "type": "error"
        },
        {
          "inputs": [],
          "name": "ErrConflictCondition",
          "type": "error"
        },
        {
          "inputs": [],
          "name": "ErrNoRewardToClaim",
          "type": "error"
        },
        {
          "inputs": [],
          "name": "ErrUnauthorized",
          "type": "error"
        },
        {
          "inputs": [],
          "name": "ErrWithdrawLocked",
          "type": "error"
        },
        {
          "inputs": [],
          "name": "ExpectedPause",
          "type": "error"
        },
        {
          "inputs": [],
          "name": "FailedCall",
          "type": "error"
        },
        {
          "inputs": [],
          "name": "InvalidInitialization",
          "type": "error"
        },
        {
          "inputs": [],
          "name": "NotInitializing",
          "type": "error"
        },
        {
          "inputs": [
            {
              "internalType": "address",
              "name": "owner",
              "type": "address"
            }
          ],
          "name": "OwnableInvalidOwner",
          "type": "error"
        },
        {
          "inputs": [
            {
              "internalType": "address",
              "name": "account",
              "type": "address"
            }
          ],
          "name": "OwnableUnauthorizedAccount",
          "type": "error"
        },
        {
          "inputs": [],
          "name": "ReentrancyGuardReentrantCall",
          "type": "error"
        },
        {
          "inputs": [
            {
              "internalType": "address",
              "name": "token",
              "type": "address"
            }
          ],
          "name": "SafeERC20FailedOperation",
          "type": "error"
        },
        {
          "inputs": [],
          "name": "UUPSUnauthorizedCallContext",
          "type": "error"
        },
        {
          "inputs": [
            {
              "internalType": "bytes32",
              "name": "slot",
              "type": "bytes32"
            }
          ],
          "name": "UUPSUnsupportedProxiableUUID",
          "type": "error"
        },
        {
          "anonymous": false,
          "inputs": [
            {
              "indexed": false,
              "internalType": "uint64",
              "name": "version",
              "type": "uint64"
            }
          ],
          "name": "Initialized",
          "type": "event"
        },
        {
          "anonymous": false,
          "inputs": [
            {
              "indexed": true,
              "internalType": "address",
              "name": "previousOwner",
              "type": "address"
            },
            {
              "indexed": true,
              "internalType": "address",
              "name": "newOwner",
              "type": "address"
            }
          ],
          "name": "OwnershipTransferred",
          "type": "event"
        },
        {
          "anonymous": false,
          "inputs": [
            {
              "indexed": false,
              "internalType": "address",
              "name": "account",
              "type": "address"
            }
          ],
          "name": "Paused",
          "type": "event"
        },
        {
          "anonymous": false,
          "inputs": [
            {
              "indexed": false,
              "internalType": "address",
              "name": "account",
              "type": "address"
            }
          ],
          "name": "Unpaused",
          "type": "event"
        },
        {
          "anonymous": false,
          "inputs": [
            {
              "indexed": true,
              "internalType": "address",
              "name": "implementation",
              "type": "address"
            }
          ],
          "name": "Upgraded",
          "type": "event"
        },
        {
          "inputs": [],
          "name": "ACC_REWARD_PRECISION",
          "outputs": [
            {
              "internalType": "uint256",
              "name": "",
              "type": "uint256"
            }
          ],
          "stateMutability": "view",
          "type": "function"
        },
        {
          "inputs": [],
          "name": "UPGRADE_INTERFACE_VERSION",
          "outputs": [
            {
              "internalType": "string",
              "name": "",
              "type": "string"
            }
          ],
          "stateMutability": "view",
          "type": "function"
        },
        {
          "inputs": [
            {
              "internalType": "address",
              "name": "account",
              "type": "address"
            },
            {
              "internalType": "bool",
              "name": "restake",
              "type": "bool"
            }
          ],
          "name": "_claimReward",
          "outputs": [
            {
              "internalType": "uint256",
              "name": "",
              "type": "uint256"
            }
          ],
          "stateMutability": "nonpayable",
          "type": "function"
        },
        {
          "inputs": [
            {
              "internalType": "address",
              "name": "drawer",
              "type": "address"
            },
            {
              "internalType": "uint256",
              "name": "rewardAmount",
              "type": "uint256"
            },
            {
              "internalType": "uint256",
              "name": "startTime",
              "type": "uint256"
            },
            {
              "internalType": "uint256",
              "name": "endTime",
              "type": "uint256"
            }
          ],
          "name": "addReward",
          "outputs": [],
          "stateMutability": "nonpayable",
          "type": "function"
        },
        {
          "inputs": [
            {
              "internalType": "address",
              "name": "account",
              "type": "address"
            },
            {
              "internalType": "bool",
              "name": "restake",
              "type": "bool"
            }
          ],
          "name": "claimReward",
          "outputs": [
            {
              "internalType": "uint256",
              "name": "",
              "type": "uint256"
            }
          ],
          "stateMutability": "nonpayable",
          "type": "function"
        },
        {
          "inputs": [
            {
              "internalType": "address",
              "name": "account",
              "type": "address"
            },
            {
              "internalType": "uint256",
              "name": "stakedAmount",
              "type": "uint256"
            }
          ],
          "name": "deposit",
          "outputs": [],
          "stateMutability": "nonpayable",
          "type": "function"
        },
        {
          "inputs": [
            {
              "internalType": "address",
              "name": "account",
              "type": "address"
            }
          ],
          "name": "getClaimedReward",
          "outputs": [
            {
              "internalType": "uint256",
              "name": "",
              "type": "uint256"
            }
          ],
          "stateMutability": "view",
          "type": "function"
        },
        {
          "inputs": [],
          "name": "getConfig",
          "outputs": [
            {
              "internalType": "address",
              "name": "",
              "type": "address"
            },
            {
              "internalType": "address",
              "name": "",
              "type": "address"
            },
            {
              "internalType": "uint256",
              "name": "",
              "type": "uint256"
            },
            {
              "internalType": "uint256",
              "name": "",
              "type": "uint256"
            },
            {
              "internalType": "uint256",
              "name": "",
              "type": "uint256"
            }
          ],
          "stateMutability": "view",
          "type": "function"
        },
        {
          "inputs": [],
          "name": "getCurrentCondition",
          "outputs": [
            {
              "components": [
                {
                  "internalType": "uint256",
                  "name": "startTime",
                  "type": "uint256"
                },
                {
                  "internalType": "uint256",
                  "name": "endTime",
                  "type": "uint256"
                },
                {
                  "internalType": "uint256",
                  "name": "rewardAmount",
                  "type": "uint256"
                },
                {
                  "internalType": "uint256",
                  "name": "rewardIndex",
                  "type": "uint256"
                }
              ],
              "internalType": "struct veLikeReward.StakingCondition",
              "name": "",
              "type": "tuple"
            }
          ],
          "stateMutability": "view",
          "type": "function"
        },
        {
          "inputs": [],
          "name": "getLastRewardTime",
          "outputs": [
            {
              "internalType": "uint256",
              "name": "",
              "type": "uint256"
            }
          ],
          "stateMutability": "view",
          "type": "function"
        },
        {
          "inputs": [
            {
              "internalType": "address",
              "name": "account",
              "type": "address"
            }
          ],
          "name": "getPendingReward",
          "outputs": [
            {
              "internalType": "uint256",
              "name": "",
              "type": "uint256"
            }
          ],
          "stateMutability": "view",
          "type": "function"
        },
        {
          "inputs": [],
          "name": "getRewardPool",
          "outputs": [
            {
              "internalType": "uint256",
              "name": "",
              "type": "uint256"
            }
          ],
          "stateMutability": "view",
          "type": "function"
        },
        {
          "inputs": [
            {
              "internalType": "address",
              "name": "initialOwner",
              "type": "address"
            }
          ],
          "name": "initialize",
          "outputs": [],
          "stateMutability": "nonpayable",
          "type": "function"
        },
        {
          "inputs": [],
          "name": "owner",
          "outputs": [
            {
              "internalType": "address",
              "name": "",
              "type": "address"
            }
          ],
          "stateMutability": "view",
          "type": "function"
        },
        {
          "inputs": [],
          "name": "pause",
          "outputs": [],
          "stateMutability": "nonpayable",
          "type": "function"
        },
        {
          "inputs": [],
          "name": "paused",
          "outputs": [
            {
              "internalType": "bool",
              "name": "",
              "type": "bool"
            }
          ],
          "stateMutability": "view",
          "type": "function"
        },
        {
          "inputs": [],
          "name": "proxiableUUID",
          "outputs": [
            {
              "internalType": "bytes32",
              "name": "",
              "type": "bytes32"
            }
          ],
          "stateMutability": "view",
          "type": "function"
        },
        {
          "inputs": [],
          "name": "renounceOwnership",
          "outputs": [],
          "stateMutability": "nonpayable",
          "type": "function"
        },
        {
          "inputs": [
            {
              "internalType": "address",
              "name": "likecoin",
              "type": "address"
            }
          ],
          "name": "setLikecoin",
          "outputs": [],
          "stateMutability": "nonpayable",
          "type": "function"
        },
        {
          "inputs": [
            {
              "internalType": "address",
              "name": "vault",
              "type": "address"
            }
          ],
          "name": "setVault",
          "outputs": [],
          "stateMutability": "nonpayable",
          "type": "function"
        },
        {
          "inputs": [
            {
              "internalType": "address",
              "name": "newOwner",
              "type": "address"
            }
          ],
          "name": "transferOwnership",
          "outputs": [],
          "stateMutability": "nonpayable",
          "type": "function"
        },
        {
          "inputs": [],
          "name": "unpause",
          "outputs": [],
          "stateMutability": "nonpayable",
          "type": "function"
        },
        {
          "inputs": [
            {
              "internalType": "address",
              "name": "newImplementation",
              "type": "address"
            },
            {
              "internalType": "bytes",
              "name": "data",
              "type": "bytes"
            }
          ],
          "name": "upgradeToAndCall",
          "outputs": [],
          "stateMutability": "payable",
          "type": "function"
        },
        {
          "inputs": [
            {
              "internalType": "address",
              "name": "account",
              "type": "address"
            }
          ],
          "name": "withdraw",
          "outputs": [],
          "stateMutability": "nonpayable",
          "type": "function"
        }
      ],
      "evm": {
        "bytecode": {
          "linkReferences": {},
          "object": "60a06040523073ffffffffffffffffffffffffffffffffffffffff1660809073ffffffffffffffffffffffffffffffffffffffff1681525034801561004357600080fd5b5061005261005760201b60201c565b6101de565b600061006761015b60201b60201c565b90508060000160089054906101000a900460ff16156100b2576040517ff92ee8a900000000000000000000000000000000000000000000000000000000815260040160405180910390fd5b67ffffffffffffffff80168160000160009054906101000a900467ffffffffffffffff1667ffffffffffffffff16146101585767ffffffffffffffff8160000160006101000a81548167ffffffffffffffff021916908367ffffffffffffffff1602179055507fc7f505b2f371ae2175ee4913f4499e1f2633a7b5936321eed1cdaeb6115181d267ffffffffffffffff60405161014f91906101c3565b60405180910390a15b50565b60008061016c61017560201b60201c565b90508091505090565b60007ff0c57e16840df040f15088dc2f81fe391c3923bec73e23a9662efc9c229c6a0060001b905090565b600067ffffffffffffffff82169050919050565b6101bd816101a0565b82525050565b60006020820190506101d860008301846101b4565b92915050565b608051612aa3610207600039600081816117400152818161179501526119900152612aa36000f3fe60806040526004361061014b5760003560e01c806370dc5ca5116100b6578063aeb51b371161006f578063aeb51b3714610425578063ba2311d714610462578063c3f909d41461049f578063c4d66de8146104ce578063d1c6a231146104f7578063f2fde38b146105225761014b565b806370dc5ca51461034f578063715018a61461037857806372a3ae9d1461038f5780638456cb59146103b85780638da5cb5b146103cf578063ad3cb1cc146103fa5761014b565b80634f1ef286116101085780634f1ef2861461026057806351cff8d91461027c57806352d1902d146102a55780635c975abb146102d0578063650d6425146102fb5780636817031b146103265761014b565b80631359e6f7146101505780631b8b13a71461018d5780633e340dae146101b85780633f4ba83a146101e357806347e7ef24146101fa5780634df9d6ba14610223575b600080fd5b34801561015c57600080fd5b5061017760048036038101906101729190612289565b61054b565b60405161018491906122cf565b60405180910390f35b34801561019957600080fd5b506101a26105d4565b6040516101af91906122cf565b60405180910390f35b3480156101c457600080fd5b506101cd6105ec565b6040516101da91906122cf565b60405180910390f35b3480156101ef57600080fd5b506101f8610604565b005b34801561020657600080fd5b50610221600480360381019061021c9190612316565b610616565b005b34801561022f57600080fd5b5061024a60048036038101906102459190612289565b610756565b60405161025791906122cf565b60405180910390f35b61027a6004803603810190610275919061249c565b61089a565b005b34801561028857600080fd5b506102a3600480360381019061029e9190612289565b6108b9565b005b3480156102b157600080fd5b506102ba610a6a565b6040516102c79190612511565b60405180910390f35b3480156102dc57600080fd5b506102e5610a9d565b6040516102f29190612547565b60405180910390f35b34801561030757600080fd5b50610310610ac2565b60405161031d91906125c6565b60405180910390f35b34801561033257600080fd5b5061034d60048036038101906103489190612289565b610b13565b005b34801561035b57600080fd5b50610376600480360381019061037191906125e1565b610b6e565b005b34801561038457600080fd5b5061038d610d31565b005b34801561039b57600080fd5b506103b660048036038101906103b19190612289565b610d45565b005b3480156103c457600080fd5b506103cd610da0565b005b3480156103db57600080fd5b506103e4610db2565b6040516103f19190612657565b60405180910390f35b34801561040657600080fd5b5061040f610dea565b60405161041c91906126f1565b60405180910390f35b34801561043157600080fd5b5061044c6004803603810190610447919061273f565b610e23565b60405161045991906122cf565b60405180910390f35b34801561046e57600080fd5b506104896004803603810190610484919061273f565b610f24565b60405161049691906122cf565b60405180910390f35b3480156104ab57600080fd5b506104b4611125565b6040516104c595949392919061277f565b60405180910390f35b3480156104da57600080fd5b506104f560048036038101906104f09190612289565b6111a3565b005b34801561050357600080fd5b5061050c61134a565b60405161051991906122cf565b60405180910390f35b34801561052e57600080fd5b5061054960048036038101906105449190612289565b611356565b005b6000806105566113dc565b905060008160090160008573ffffffffffffffffffffffffffffffffffffffff1673ffffffffffffffffffffffffffffffffffffffff16815260200190815260200160002060405180606001604052908160008201548152602001600182015481526020016002820154815250509050806040015192505050919050565b6000806105df6113dc565b9050806002015491505090565b6000806105f76113dc565b9050806004015491505090565b61060c611404565b61061461148b565b565b61061e6114fd565b60006106286113dc565b90508060000160009054906101000a900473ffffffffffffffffffffffffffffffffffffffff1673ffffffffffffffffffffffffffffffffffffffff1661066d61153e565b73ffffffffffffffffffffffffffffffffffffffff16146106ba576040517fcc12cef600000000000000000000000000000000000000000000000000000000815260040160405180910390fd5b60006106c46113dc565b90506106ce611546565b6106d9846000610f24565b50828160090160008673ffffffffffffffffffffffffffffffffffffffff1673ffffffffffffffffffffffffffffffffffffffff168152602001908152602001600020600001600082825461072e9190612801565b92505081905550828160030160008282546107499190612801565b9250508190555050505050565b6000806107616113dc565b9050600061076e84611642565b905060008260090160008673ffffffffffffffffffffffffffffffffffffffff1673ffffffffffffffffffffffffffffffffffffffff168152602001908152602001600020600001549050600081036107cc57819350505050610895565b600042905083600501600101548111156107eb57836005016001015490505b60008460040154826107fd9190612835565b90506000610840866005016040518060800160405290816000820154815260200160018201548152602001600282015481526020016003820154815250506116ff565b8261084b9190612869565b90506000670de0b6b3a764000087600301546108679190612869565b85836108739190612869565b61087d91906128da565b9050808661088b9190612801565b9750505050505050505b919050565b6108a261173e565b6108ab82611824565b6108b5828261182f565b5050565b6108c16114fd565b60006108cb6113dc565b90508060000160009054906101000a900473ffffffffffffffffffffffffffffffffffffffff1673ffffffffffffffffffffffffffffffffffffffff1661091061153e565b73ffffffffffffffffffffffffffffffffffffffff161461095d576040517fcc12cef600000000000000000000000000000000000000000000000000000000815260040160405180910390fd5b60006109676113dc565b905061097161194e565b156109a8576040517fd6b0a7de00000000000000000000000000000000000000000000000000000000815260040160405180910390fd5b6109b0611546565b6109bb836000610f24565b508060090160008473ffffffffffffffffffffffffffffffffffffffff1673ffffffffffffffffffffffffffffffffffffffff16815260200190815260200160002060000154816003016000828254610a149190612835565b9250508190555060008160090160008573ffffffffffffffffffffffffffffffffffffffff1673ffffffffffffffffffffffffffffffffffffffff16815260200190815260200160002060000181905550505050565b6000610a7461198e565b7f360894a13ba1a3210667c828492db98dca3e2076cc3735a920a3ca505d382bbc60001b905090565b600080610aa8611a15565b90508060000160009054906101000a900460ff1691505090565b610aca6121ef565b6000610ad46113dc565b90508060050160405180608001604052908160008201548152602001600182015481526020016002820154815260200160038201548152505091505090565b610b1b611404565b6000610b256113dc565b9050818160000160006101000a81548173ffffffffffffffffffffffffffffffffffffffff021916908373ffffffffffffffffffffffffffffffffffffffff1602179055505050565b610b76611404565b610b7e61194e565b15610bb5576040517fff31bc8f00000000000000000000000000000000000000000000000000000000815260040160405180910390fd5b6000610bbf6113dc565b905080600401548311610bfe576040517fff31bc8f00000000000000000000000000000000000000000000000000000000815260040160405180910390fd5b82821015610c38576040517fff31bc8f00000000000000000000000000000000000000000000000000000000815260040160405180910390fd5b42821015610c72576040517fff31bc8f00000000000000000000000000000000000000000000000000000000815260040160405180910390fd5b8281600401819055508481600a0160006101000a81548173ffffffffffffffffffffffffffffffffffffffff021916908373ffffffffffffffffffffffffffffffffffffffff16021790555083816002016000828254610cd29190612801565b925050819055506040518060800160405280848152602001838152602001858152602001600081525081600501600082015181600001556020820151816001015560408201518160020155606082015181600301559050505050505050565b610d39611404565b610d436000611a3d565b565b610d4d611404565b6000610d576113dc565b9050818160010160006101000a81548173ffffffffffffffffffffffffffffffffffffffff021916908373ffffffffffffffffffffffffffffffffffffffff1602179055505050565b610da8611404565b610db0611b14565b565b600080610dbd611b86565b90508060000160009054906101000a900473ffffffffffffffffffffffffffffffffffffffff1691505090565b6040518060400160405280600581526020017f352e302e3000000000000000000000000000000000000000000000000000000081525081565b6000610e2d6114fd565b6000610e376113dc565b90508060000160009054906101000a900473ffffffffffffffffffffffffffffffffffffffff1673ffffffffffffffffffffffffffffffffffffffff16610e7c61153e565b73ffffffffffffffffffffffffffffffffffffffff1614610ec9576040517fcc12cef600000000000000000000000000000000000000000000000000000000815260040160405180910390fd5b6000610ed485610756565b905060008103610f10576040517f1e09881a00000000000000000000000000000000000000000000000000000000815260040160405180910390fd5b610f1a8585610f24565b9250505092915050565b600080610f2f6113dc565b90508060000160009054906101000a900473ffffffffffffffffffffffffffffffffffffffff1673ffffffffffffffffffffffffffffffffffffffff16610f7461153e565b73ffffffffffffffffffffffffffffffffffffffff1614610fc1576040517fcc12cef600000000000000000000000000000000000000000000000000000000815260040160405180910390fd5b6000610fcb6113dc565b905060008160090160008773ffffffffffffffffffffffffffffffffffffffff1673ffffffffffffffffffffffffffffffffffffffff168152602001908152602001600020905061101a611546565b600061102587611642565b90508082600201600082825461103b9190612801565b9250508190555082600501600301548260010181905550808360020160008282546110669190612835565b9250508190555060008103611081576000945050505061111e565b85156110c2578082600001600082825461109b9190612801565b92505081905550808360030160008282546110b69190612801565b92505081905550611117565b6111168360010160009054906101000a900473ffffffffffffffffffffffffffffffffffffffff1684600a0160009054906101000a900473ffffffffffffffffffffffffffffffffffffffff168984611bae565b5b8094505050505b5092915050565b6000806000806000806111366113dc565b90508060000160009054906101000a900473ffffffffffffffffffffffffffffffffffffffff168160010160009054906101000a900473ffffffffffffffffffffffffffffffffffffffff1682600201548360030154846004015495509550955095509550509091929394565b60006111ad611c30565b905060008160000160089054906101000a900460ff1615905060008260000160009054906101000a900467ffffffffffffffff1690506000808267ffffffffffffffff161480156111fb5750825b9050600060018367ffffffffffffffff16148015611230575060003073ffffffffffffffffffffffffffffffffffffffff163b145b90508115801561123e575080155b15611275576040517ff92ee8a900000000000000000000000000000000000000000000000000000000815260040160405180910390fd5b60018560000160006101000a81548167ffffffffffffffff021916908367ffffffffffffffff16021790555083156112c55760018560000160086101000a81548160ff0219169083151502179055505b6112cd611c44565b6112d5611c4e565b6112de86611c60565b6112e6611c74565b83156113425760008560000160086101000a81548160ff0219169083151502179055507fc7f505b2f371ae2175ee4913f4499e1f2633a7b5936321eed1cdaeb6115181d260016040516113399190612964565b60405180910390a15b505050505050565b670de0b6b3a764000081565b61135e611404565b600073ffffffffffffffffffffffffffffffffffffffff168173ffffffffffffffffffffffffffffffffffffffff16036113d05760006040517f1e4fbdf70000000000000000000000000000000000000000000000000000000081526004016113c79190612657565b60405180910390fd5b6113d981611a3d565b50565b60007fe9672d2c676bb94d428d6ce523668c779079df8febe4142a9972a2a2313d2c00905090565b61140c61153e565b73ffffffffffffffffffffffffffffffffffffffff1661142a610db2565b73ffffffffffffffffffffffffffffffffffffffff16146114895761144d61153e565b6040517f118cdaa70000000000000000000000000000000000000000000000000000000081526004016114809190612657565b60405180910390fd5b565b611493611c7e565b600061149d611a15565b905060008160000160006101000a81548160ff0219169083151502179055507f5db9ee0a495bf2e6ff9c91a7834c1ba4fdd244a5e8aa4e537bd38aeae4b073aa6114e561153e565b6040516114f29190612657565b60405180910390a150565b611505610a9d565b1561153c576040517fd93c066500000000000000000000000000000000000000000000000000000000815260040160405180910390fd5b565b600033905090565b60006115506113dc565b905060008160050190506000429050816000015481101561157357816000015490505b816001015481111561158757816001015490505b8260040154810361159a57505050611640565b60008360030154111561163c5760008360040154826115b99190612835565b905060006115f9846040518060800160405290816000820154815260200160018201548152602001600282015481526020016003820154815250506116ff565b826116049190612869565b905084600301548161161691906128da565b8460030160008282546116299190612801565b9250508190555082856004018190555050505b5050505b565b60008061164d6113dc565b905060008160090160008573ffffffffffffffffffffffffffffffffffffffff1673ffffffffffffffffffffffffffffffffffffffff16815260200190815260200160002060405180606001604052908160008201548152602001600182015481526020016002820154815250509050670de0b6b3a7640000816020015183600501600301546116dd9190612835565b82600001516116ec9190612869565b6116f691906128da565b92505050919050565b6000816000015182602001516117159190612835565b8260400151670de0b6b3a764000061172d9190612869565b61173791906128da565b9050919050565b7f000000000000000000000000000000000000000000000000000000000000000073ffffffffffffffffffffffffffffffffffffffff163073ffffffffffffffffffffffffffffffffffffffff1614806117eb57507f000000000000000000000000000000000000000000000000000000000000000073ffffffffffffffffffffffffffffffffffffffff166117d2611cbe565b73ffffffffffffffffffffffffffffffffffffffff1614155b15611822576040517fe07c8dba00000000000000000000000000000000000000000000000000000000815260040160405180910390fd5b565b61182c611404565b50565b8173ffffffffffffffffffffffffffffffffffffffff166352d1902d6040518163ffffffff1660e01b8152600401602060405180830381865afa92505050801561189757506040513d601f19601f8201168201806040525081019061189491906129ab565b60015b6118d857816040517f4c9c8ce30000000000000000000000000000000000000000000000000000000081526004016118cf9190612657565b60405180910390fd5b7f360894a13ba1a3210667c828492db98dca3e2076cc3735a920a3ca505d382bbc60001b811461193f57806040517faa1d49a40000000000000000000000000000000000000000000000000000000081526004016119369190612511565b60405180910390fd5b6119498383611d15565b505050565b6000806119596113dc565b905080600501600001544210806119765750806005016001015442115b1561198557600091505061198b565b60019150505b90565b7f000000000000000000000000000000000000000000000000000000000000000073ffffffffffffffffffffffffffffffffffffffff163073ffffffffffffffffffffffffffffffffffffffff1614611a13576040517fe07c8dba00000000000000000000000000000000000000000000000000000000815260040160405180910390fd5b565b60007fcd5ed15c6e187e77e9aee88184c21f4f2182ab5827cb3b7e07fbedcd63f03300905090565b6000611a47611b86565b905060008160000160009054906101000a900473ffffffffffffffffffffffffffffffffffffffff169050828260000160006101000a81548173ffffffffffffffffffffffffffffffffffffffff021916908373ffffffffffffffffffffffffffffffffffffffff1602179055508273ffffffffffffffffffffffffffffffffffffffff168173ffffffffffffffffffffffffffffffffffffffff167f8be0079c531659141344cd1fd0a4f28419497f9722a3daafe3b4186f6b6457e060405160405180910390a3505050565b611b1c6114fd565b6000611b26611a15565b905060018160000160006101000a81548160ff0219169083151502179055507f62e78cea01bee320cd4e420270b5ea74000d11b0c9f74754ebdbfc544b05a258611b6e61153e565b604051611b7b9190612657565b60405180910390a150565b60007f9016d09d72d40fdae2fd8ceac6b6234c7706214fd39c1cd1e609a0528c199300905090565b611c2a848573ffffffffffffffffffffffffffffffffffffffff166323b872dd868686604051602401611be3939291906129d8565b604051602081830303815290604052915060e01b6020820180517bffffffffffffffffffffffffffffffffffffffffffffffffffffffff8381831617835250505050611d88565b50505050565b600080611c3b611e2a565b90508091505090565b611c4c611e55565b565b611c56611e55565b611c5e611e95565b565b611c68611e55565b611c7181611eb6565b50565b611c7c611e55565b565b611c86610a9d565b611cbc576040517f8dfc202b00000000000000000000000000000000000000000000000000000000815260040160405180910390fd5b565b6000611cec7f360894a13ba1a3210667c828492db98dca3e2076cc3735a920a3ca505d382bbc60001b611f3c565b60000160009054906101000a900473ffffffffffffffffffffffffffffffffffffffff16905090565b611d1e82611f46565b8173ffffffffffffffffffffffffffffffffffffffff167fbc7cd75a20ee27fd9adebab32041f755214dbc6bffa90cc0225b39da2e5c2d3b60405160405180910390a2600081511115611d7b57611d758282612013565b50611d84565b611d83612097565b5b5050565b600080602060008451602086016000885af180611dab576040513d6000823e3d81fd5b3d925060005191505060008214611dc6576001811415611de2565b60008473ffffffffffffffffffffffffffffffffffffffff163b145b15611e2457836040517f5274afe7000000000000000000000000000000000000000000000000000000008152600401611e1b9190612657565b60405180910390fd5b50505050565b60007ff0c57e16840df040f15088dc2f81fe391c3923bec73e23a9662efc9c229c6a0060001b905090565b611e5d6120d4565b611e93576040517fd7e6bcf800000000000000000000000000000000000000000000000000000000815260040160405180910390fd5b565b611e9d611e55565b6000611ea76120f4565b90506001816000018190555050565b611ebe611e55565b600073ffffffffffffffffffffffffffffffffffffffff168173ffffffffffffffffffffffffffffffffffffffff1603611f305760006040517f1e4fbdf7000000000000000000000000000000000000000000000000000000008152600401611f279190612657565b60405180910390fd5b611f3981611a3d565b50565b6000819050919050565b60008173ffffffffffffffffffffffffffffffffffffffff163b03611fa257806040517f4c9c8ce3000000000000000000000000000000000000000000000000000000008152600401611f999190612657565b60405180910390fd5b80611fcf7f360894a13ba1a3210667c828492db98dca3e2076cc3735a920a3ca505d382bbc60001b611f3c565b60000160006101000a81548173ffffffffffffffffffffffffffffffffffffffff021916908373ffffffffffffffffffffffffffffffffffffffff16021790555050565b60606000808473ffffffffffffffffffffffffffffffffffffffff168460405161203d9190612a56565b600060405180830381855af49150503d8060008114612078576040519150601f19603f3d011682016040523d82523d6000602084013e61207d565b606091505b509150915061208d85838361211c565b9250505092915050565b60003411156120d2576040517fb398979f00000000000000000000000000000000000000000000000000000000815260040160405180910390fd5b565b60006120de611c30565b60000160089054906101000a900460ff16905090565b60007f9b779b17422d0df92223018b32b4d1fa46e071723d6817e2486d003becc55f00905090565b6060826121315761212c826121ab565b6121a3565b60008251148015612159575060008473ffffffffffffffffffffffffffffffffffffffff163b145b1561219b57836040517f9996b3150000000000000000000000000000000000000000000000000000000081526004016121929190612657565b60405180910390fd5b8190506121a4565b5b9392505050565b6000815111156121bd57805160208201fd5b6040517fd6bda27500000000000000000000000000000000000000000000000000000000815260040160405180910390fd5b6040518060800160405280600081526020016000815260200160008152602001600081525090565b6000604051905090565b600080fd5b600080fd5b600073ffffffffffffffffffffffffffffffffffffffff82169050919050565b60006122568261222b565b9050919050565b6122668161224b565b811461227157600080fd5b50565b6000813590506122838161225d565b92915050565b60006020828403121561229f5761229e612221565b5b60006122ad84828501612274565b91505092915050565b6000819050919050565b6122c9816122b6565b82525050565b60006020820190506122e460008301846122c0565b92915050565b6122f3816122b6565b81146122fe57600080fd5b50565b600081359050612310816122ea565b92915050565b6000806040838503121561232d5761232c612221565b5b600061233b85828601612274565b925050602061234c85828601612301565b9150509250929050565b600080fd5b600080fd5b6000601f19601f8301169050919050565b7f4e487b7100000000000000000000000000000000000000000000000000000000600052604160045260246000fd5b6123a982612360565b810181811067ffffffffffffffff821117156123c8576123c7612371565b5b80604052505050565b60006123db612217565b90506123e782826123a0565b919050565b600067ffffffffffffffff82111561240757612406612371565b5b61241082612360565b9050602081019050919050565b82818337600083830152505050565b600061243f61243a846123ec565b6123d1565b90508281526020810184848401111561245b5761245a61235b565b5b61246684828561241d565b509392505050565b600082601f83011261248357612482612356565b5b813561249384826020860161242c565b91505092915050565b600080604083850312156124b3576124b2612221565b5b60006124c185828601612274565b925050602083013567ffffffffffffffff8111156124e2576124e1612226565b5b6124ee8582860161246e565b9150509250929050565b6000819050919050565b61250b816124f8565b82525050565b60006020820190506125266000830184612502565b92915050565b60008115159050919050565b6125418161252c565b82525050565b600060208201905061255c6000830184612538565b92915050565b61256b816122b6565b82525050565b6080820160008201516125876000850182612562565b50602082015161259a6020850182612562565b5060408201516125ad6040850182612562565b5060608201516125c06060850182612562565b50505050565b60006080820190506125db6000830184612571565b92915050565b600080600080608085870312156125fb576125fa612221565b5b600061260987828801612274565b945050602061261a87828801612301565b935050604061262b87828801612301565b925050606061263c87828801612301565b91505092959194509250565b6126518161224b565b82525050565b600060208201905061266c6000830184612648565b92915050565b600081519050919050565b600082825260208201905092915050565b60005b838110156126ac578082015181840152602081019050612691565b60008484015250505050565b60006126c382612672565b6126cd818561267d565b93506126dd81856020860161268e565b6126e681612360565b840191505092915050565b6000602082019050818103600083015261270b81846126b8565b905092915050565b61271c8161252c565b811461272757600080fd5b50565b60008135905061273981612713565b92915050565b6000806040838503121561275657612755612221565b5b600061276485828601612274565b92505060206127758582860161272a565b9150509250929050565b600060a0820190506127946000830188612648565b6127a16020830187612648565b6127ae60408301866122c0565b6127bb60608301856122c0565b6127c860808301846122c0565b9695505050505050565b7f4e487b7100000000000000000000000000000000000000000000000000000000600052601160045260246000fd5b600061280c826122b6565b9150612817836122b6565b925082820190508082111561282f5761282e6127d2565b5b92915050565b6000612840826122b6565b915061284b836122b6565b9250828203905081811115612863576128626127d2565b5b92915050565b6000612874826122b6565b915061287f836122b6565b925082820261288d816122b6565b915082820484148315176128a4576128a36127d2565b5b5092915050565b7f4e487b7100000000000000000000000000000000000000000000000000000000600052601260045260246000fd5b60006128e5826122b6565b91506128f0836122b6565b925082612900576128ff6128ab565b5b828204905092915050565b6000819050919050565b600067ffffffffffffffff82169050919050565b6000819050919050565b600061294e6129496129448461290b565b612929565b612915565b9050919050565b61295e81612933565b82525050565b60006020820190506129796000830184612955565b92915050565b612988816124f8565b811461299357600080fd5b50565b6000815190506129a58161297f565b92915050565b6000602082840312156129c1576129c0612221565b5b60006129cf84828501612996565b91505092915050565b60006060820190506129ed6000830186612648565b6129fa6020830185612648565b612a0760408301846122c0565b949350505050565b600081519050919050565b600081905092915050565b6000612a3082612a0f565b612a3a8185612a1a565b9350612a4a81856020860161268e565b80840191505092915050565b6000612a628284612a25565b91508190509291505056fea2646970667358221220bbd86f11bb644b8f416fb5ea1980f9bbce4868794fa534f78fb4e13df1fd7e1c64736f6c634300081c0033",
          "opcodes": "PUSH1 0xA0 PUSH1 0x40 MSTORE ADDRESS PUSH20 0xFFFFFFFFFFFFFFFFFFFFFFFFFFFFFFFFFFFFFFFF AND PUSH1 0x80 SWAP1 PUSH20 0xFFFFFFFFFFFFFFFFFFFFFFFFFFFFFFFFFFFFFFFF AND DUP2 MSTORE POP CALLVALUE DUP1 ISZERO PUSH2 0x43 JUMPI PUSH1 0x0 DUP1 REVERT JUMPDEST POP PUSH2 0x52 PUSH2 0x57 PUSH1 0x20 SHL PUSH1 0x20 SHR JUMP JUMPDEST PUSH2 0x1DE JUMP JUMPDEST PUSH1 0x0 PUSH2 0x67 PUSH2 0x15B PUSH1 0x20 SHL PUSH1 0x20 SHR JUMP JUMPDEST SWAP1 POP DUP1 PUSH1 0x0 ADD PUSH1 0x8 SWAP1 SLOAD SWAP1 PUSH2 0x100 EXP SWAP1 DIV PUSH1 0xFF AND ISZERO PUSH2 0xB2 JUMPI PUSH1 0x40 MLOAD PUSH32 0xF92EE8A900000000000000000000000000000000000000000000000000000000 DUP2 MSTORE PUSH1 0x4 ADD PUSH1 0x40 MLOAD DUP1 SWAP2 SUB SWAP1 REVERT JUMPDEST PUSH8 0xFFFFFFFFFFFFFFFF DUP1 AND DUP2 PUSH1 0x0 ADD PUSH1 0x0 SWAP1 SLOAD SWAP1 PUSH2 0x100 EXP SWAP1 DIV PUSH8 0xFFFFFFFFFFFFFFFF AND PUSH8 0xFFFFFFFFFFFFFFFF AND EQ PUSH2 0x158 JUMPI PUSH8 0xFFFFFFFFFFFFFFFF DUP2 PUSH1 0x0 ADD PUSH1 0x0 PUSH2 0x100 EXP DUP2 SLOAD DUP2 PUSH8 0xFFFFFFFFFFFFFFFF MUL NOT AND SWAP1 DUP4 PUSH8 0xFFFFFFFFFFFFFFFF AND MUL OR SWAP1 SSTORE POP PUSH32 0xC7F505B2F371AE2175EE4913F4499E1F2633A7B5936321EED1CDAEB6115181D2 PUSH8 0xFFFFFFFFFFFFFFFF PUSH1 0x40 MLOAD PUSH2 0x14F SWAP2 SWAP1 PUSH2 0x1C3 JUMP JUMPDEST PUSH1 0x40 MLOAD DUP1 SWAP2 SUB SWAP1 LOG1 JUMPDEST POP JUMP JUMPDEST PUSH1 0x0 DUP1 PUSH2 0x16C PUSH2 0x175 PUSH1 0x20 SHL PUSH1 0x20 SHR JUMP JUMPDEST SWAP1 POP DUP1 SWAP2 POP POP SWAP1 JUMP JUMPDEST PUSH1 0x0 PUSH32 0xF0C57E16840DF040F15088DC2F81FE391C3923BEC73E23A9662EFC9C229C6A00 PUSH1 0x0 SHL SWAP1 POP SWAP1 JUMP JUMPDEST PUSH1 0x0 PUSH8 0xFFFFFFFFFFFFFFFF DUP3 AND SWAP1 POP SWAP2 SWAP1 POP JUMP JUMPDEST PUSH2 0x1BD DUP2 PUSH2 0x1A0 JUMP JUMPDEST DUP3 MSTORE POP POP JUMP JUMPDEST PUSH1 0x0 PUSH1 0x20 DUP3 ADD SWAP1 POP PUSH2 0x1D8 PUSH1 0x0 DUP4 ADD DUP5 PUSH2 0x1B4 JUMP JUMPDEST SWAP3 SWAP2 POP POP JUMP JUMPDEST PUSH1 0x80 MLOAD PUSH2 0x2AA3 PUSH2 0x207 PUSH1 0x0 CODECOPY PUSH1 0x0 DUP2 DUP2 PUSH2 0x1740 ADD MSTORE DUP2 DUP2 PUSH2 0x1795 ADD MSTORE PUSH2 0x1990 ADD MSTORE PUSH2 0x2AA3 PUSH1 0x0 RETURN INVALID PUSH1 0x80 PUSH1 0x40 MSTORE PUSH1 0x4 CALLDATASIZE LT PUSH2 0x14B JUMPI PUSH1 0x0 CALLDATALOAD PUSH1 0xE0 SHR DUP1 PUSH4 0x70DC5CA5 GT PUSH2 0xB6 JUMPI DUP1 PUSH4 0xAEB51B37 GT PUSH2 0x6F JUMPI DUP1 PUSH4 0xAEB51B37 EQ PUSH2 0x425 JUMPI DUP1 PUSH4 0xBA2311D7 EQ PUSH2 0x462 JUMPI DUP1 PUSH4 0xC3F909D4 EQ PUSH2 0x49F JUMPI DUP1 PUSH4 0xC4D66DE8 EQ PUSH2 0x4CE JUMPI DUP1 PUSH4 0xD1C6A231 EQ PUSH2 0x4F7 JUMPI DUP1 PUSH4 0xF2FDE38B EQ PUSH2 0x522 JUMPI PUSH2 0x14B JUMP JUMPDEST DUP1 PUSH4 0x70DC5CA5 EQ PUSH2 0x34F JUMPI DUP1 PUSH4 0x715018A6 EQ PUSH2 0x378 JUMPI DUP1 PUSH4 0x72A3AE9D EQ PUSH2 0x38F JUMPI DUP1 PUSH4 0x8456CB59 EQ PUSH2 0x3B8 JUMPI DUP1 PUSH4 0x8DA5CB5B EQ PUSH2 0x3CF JUMPI DUP1 PUSH4 0xAD3CB1CC EQ PUSH2 0x3FA JUMPI PUSH2 0x14B JUMP JUMPDEST DUP1 PUSH4 0x4F1EF286 GT PUSH2 0x108 JUMPI DUP1 PUSH4 0x4F1EF286 EQ PUSH2 0x260 JUMPI DUP1 PUSH4 0x51CFF8D9 EQ PUSH2 0x27C JUMPI DUP1 PUSH4 0x52D1902D EQ PUSH2 0x2A5 JUMPI DUP1 PUSH4 0x5C975ABB EQ PUSH2 0x2D0 JUMPI DUP1 PUSH4 0x650D6425 EQ PUSH2 0x2FB JUMPI DUP1 PUSH4 0x6817031B EQ PUSH2 0x326 JUMPI PUSH2 0x14B JUMP JUMPDEST DUP1 PUSH4 0x1359E6F7 EQ PUSH2 0x150 JUMPI DUP1 PUSH4 0x1B8B13A7 EQ PUSH2 0x18D JUMPI DUP1 PUSH4 0x3E340DAE EQ PUSH2 0x1B8 JUMPI DUP1 PUSH4 0x3F4BA83A EQ PUSH2 0x1E3 JUMPI DUP1 PUSH4 0x47E7EF24 EQ PUSH2 0x1FA JUMPI DUP1 PUSH4 0x4DF9D6BA EQ PUSH2 0x223 JUMPI JUMPDEST PUSH1 0x0 DUP1 REVERT JUMPDEST CALLVALUE DUP1 ISZERO PUSH2 0x15C JUMPI PUSH1 0x0 DUP1 REVERT JUMPDEST POP PUSH2 0x177 PUSH1 0x4 DUP1 CALLDATASIZE SUB DUP2 ADD SWAP1 PUSH2 0x172 SWAP2 SWAP1 PUSH2 0x2289 JUMP JUMPDEST PUSH2 0x54B JUMP JUMPDEST PUSH1 0x40 MLOAD PUSH2 0x184 SWAP2 SWAP1 PUSH2 0x22CF JUMP JUMPDEST PUSH1 0x40 MLOAD DUP1 SWAP2 SUB SWAP1 RETURN JUMPDEST CALLVALUE DUP1 ISZERO PUSH2 0x199 JUMPI PUSH1 0x0 DUP1 REVERT JUMPDEST POP PUSH2 0x1A2 PUSH2 0x5D4 JUMP JUMPDEST PUSH1 0x40 MLOAD PUSH2 0x1AF SWAP2 SWAP1 PUSH2 0x22CF JUMP JUMPDEST PUSH1 0x40 MLOAD DUP1 SWAP2 SUB SWAP1 RETURN JUMPDEST CALLVALUE DUP1 ISZERO PUSH2 0x1C4 JUMPI PUSH1 0x0 DUP1 REVERT JUMPDEST POP PUSH2 0x1CD PUSH2 0x5EC JUMP JUMPDEST PUSH1 0x40 MLOAD PUSH2 0x1DA SWAP2 SWAP1 PUSH2 0x22CF JUMP JUMPDEST PUSH1 0x40 MLOAD DUP1 SWAP2 SUB SWAP1 RETURN JUMPDEST CALLVALUE DUP1 ISZERO PUSH2 0x1EF JUMPI PUSH1 0x0 DUP1 REVERT JUMPDEST POP PUSH2 0x1F8 PUSH2 0x604 JUMP JUMPDEST STOP JUMPDEST CALLVALUE DUP1 ISZERO PUSH2 0x206 JUMPI PUSH1 0x0 DUP1 REVERT JUMPDEST POP PUSH2 0x221 PUSH1 0x4 DUP1 CALLDATASIZE SUB DUP2 ADD SWAP1 PUSH2 0x21C SWAP2 SWAP1 PUSH2 0x2316 JUMP JUMPDEST PUSH2 0x616 JUMP JUMPDEST STOP JUMPDEST CALLVALUE DUP1 ISZERO PUSH2 0x22F JUMPI PUSH1 0x0 DUP1 REVERT JUMPDEST POP PUSH2 0x24A PUSH1 0x4 DUP1 CALLDATASIZE SUB DUP2 ADD SWAP1 PUSH2 0x245 SWAP2 SWAP1 PUSH2 0x2289 JUMP JUMPDEST PUSH2 0x756 JUMP JUMPDEST PUSH1 0x40 MLOAD PUSH2 0x257 SWAP2 SWAP1 PUSH2 0x22CF JUMP JUMPDEST PUSH1 0x40 MLOAD DUP1 SWAP2 SUB SWAP1 RETURN JUMPDEST PUSH2 0x27A PUSH1 0x4 DUP1 CALLDATASIZE SUB DUP2 ADD SWAP1 PUSH2 0x275 SWAP2 SWAP1 PUSH2 0x249C JUMP JUMPDEST PUSH2 0x89A JUMP JUMPDEST STOP JUMPDEST CALLVALUE DUP1 ISZERO PUSH2 0x288 JUMPI PUSH1 0x0 DUP1 REVERT JUMPDEST POP PUSH2 0x2A3 PUSH1 0x4 DUP1 CALLDATASIZE SUB DUP2 ADD SWAP1 PUSH2 0x29E SWAP2 SWAP1 PUSH2 0x2289 JUMP JUMPDEST PUSH2 0x8B9 JUMP JUMPDEST STOP JUMPDEST CALLVALUE DUP1 ISZERO PUSH2 0x2B1 JUMPI PUSH1 0x0 DUP1 REVERT JUMPDEST POP PUSH2 0x2BA PUSH2 0xA6A JUMP JUMPDEST PUSH1 0x40 MLOAD PUSH2 0x2C7 SWAP2 SWAP1 PUSH2 0x2511 JUMP JUMPDEST PUSH1 0x40 MLOAD DUP1 SWAP2 SUB SWAP1 RETURN JUMPDEST CALLVALUE DUP1 ISZERO PUSH2 0x2DC JUMPI PUSH1 0x0 DUP1 REVERT JUMPDEST POP PUSH2 0x2E5 PUSH2 0xA9D JUMP JUMPDEST PUSH1 0x40 MLOAD PUSH2 0x2F2 SWAP2 SWAP1 PUSH2 0x2547 JUMP JUMPDEST PUSH1 0x40 MLOAD DUP1 SWAP2 SUB SWAP1 RETURN JUMPDEST CALLVALUE DUP1 ISZERO PUSH2 0x307 JUMPI PUSH1 0x0 DUP1 REVERT JUMPDEST POP PUSH2 0x310 PUSH2 0xAC2 JUMP JUMPDEST PUSH1 0x40 MLOAD PUSH2 0x31D SWAP2 SWAP1 PUSH2 0x25C6 JUMP JUMPDEST PUSH1 0x40 MLOAD DUP1 SWAP2 SUB SWAP1 RETURN JUMPDEST CALLVALUE DUP1 ISZERO PUSH2 0x332 JUMPI PUSH1 0x0 DUP1 REVERT JUMPDEST POP PUSH2 0x34D PUSH1 0x4 DUP1 CALLDATASIZE SUB DUP2 ADD SWAP1 PUSH2 0x348 SWAP2 SWAP1 PUSH2 0x2289 JUMP JUMPDEST PUSH2 0xB13 JUMP JUMPDEST STOP JUMPDEST CALLVALUE DUP1 ISZERO PUSH2 0x35B JUMPI PUSH1 0x0 DUP1 REVERT JUMPDEST POP PUSH2 0x376 PUSH1 0x4 DUP1 CALLDATASIZE SUB DUP2 ADD SWAP1 PUSH2 0x371 SWAP2 SWAP1 PUSH2 0x25E1 JUMP JUMPDEST PUSH2 0xB6E JUMP JUMPDEST STOP JUMPDEST CALLVALUE DUP1 ISZERO PUSH2 0x384 JUMPI PUSH1 0x0 DUP1 REVERT JUMPDEST POP PUSH2 0x38D PUSH2 0xD31 JUMP JUMPDEST STOP JUMPDEST CALLVALUE DUP1 ISZERO PUSH2 0x39B JUMPI PUSH1 0x0 DUP1 REVERT JUMPDEST POP PUSH2 0x3B6 PUSH1 0x4 DUP1 CALLDATASIZE SUB DUP2 ADD SWAP1 PUSH2 0x3B1 SWAP2 SWAP1 PUSH2 0x2289 JUMP JUMPDEST PUSH2 0xD45 JUMP JUMPDEST STOP JUMPDEST CALLVALUE DUP1 ISZERO PUSH2 0x3C4 JUMPI PUSH1 0x0 DUP1 REVERT JUMPDEST POP PUSH2 0x3CD PUSH2 0xDA0 JUMP JUMPDEST STOP JUMPDEST CALLVALUE DUP1 ISZERO PUSH2 0x3DB JUMPI PUSH1 0x0 DUP1 REVERT JUMPDEST POP PUSH2 0x3E4 PUSH2 0xDB2 JUMP JUMPDEST PUSH1 0x40 MLOAD PUSH2 0x3F1 SWAP2 SWAP1 PUSH2 0x2657 JUMP JUMPDEST PUSH1 0x40 MLOAD DUP1 SWAP2 SUB SWAP1 RETURN JUMPDEST CALLVALUE DUP1 ISZERO PUSH2 0x406 JUMPI PUSH1 0x0 DUP1 REVERT JUMPDEST POP PUSH2 0x40F PUSH2 0xDEA JUMP JUMPDEST PUSH1 0x40 MLOAD PUSH2 0x41C SWAP2 SWAP1 PUSH2 0x26F1 JUMP JUMPDEST PUSH1 0x40 MLOAD DUP1 SWAP2 SUB SWAP1 RETURN JUMPDEST CALLVALUE DUP1 ISZERO PUSH2 0x431 JUMPI PUSH1 0x0 DUP1 REVERT JUMPDEST POP PUSH2 0x44C PUSH1 0x4 DUP1 CALLDATASIZE SUB DUP2 ADD SWAP1 PUSH2 0x447 SWAP2 SWAP1 PUSH2 0x273F JUMP JUMPDEST PUSH2 0xE23 JUMP JUMPDEST PUSH1 0x40 MLOAD PUSH2 0x459 SWAP2 SWAP1 PUSH2 0x22CF JUMP JUMPDEST PUSH1 0x40 MLOAD DUP1 SWAP2 SUB SWAP1 RETURN JUMPDEST CALLVALUE DUP1 ISZERO PUSH2 0x46E JUMPI PUSH1 0x0 DUP1 REVERT JUMPDEST POP PUSH2 0x489 PUSH1 0x4 DUP1 CALLDATASIZE SUB DUP2 ADD SWAP1 PUSH2 0x484 SWAP2 SWAP1 PUSH2 0x273F JUMP JUMPDEST PUSH2 0xF24 JUMP JUMPDEST PUSH1 0x40 MLOAD PUSH2 0x496 SWAP2 SWAP1 PUSH2 0x22CF JUMP JUMPDEST PUSH1 0x40 MLOAD DUP1 SWAP2 SUB SWAP1 RETURN JUMPDEST CALLVALUE DUP1 ISZERO PUSH2 0x4AB JUMPI PUSH1 0x0 DUP1 REVERT JUMPDEST POP PUSH2 0x4B4 PUSH2 0x1125 JUMP JUMPDEST PUSH1 0x40 MLOAD PUSH2 0x4C5 SWAP6 SWAP5 SWAP4 SWAP3 SWAP2 SWAP1 PUSH2 0x277F JUMP JUMPDEST PUSH1 0x40 MLOAD DUP1 SWAP2 SUB SWAP1 RETURN JUMPDEST CALLVALUE DUP1 ISZERO PUSH2 0x4DA JUMPI PUSH1 0x0 DUP1 REVERT JUMPDEST POP PUSH2 0x4F5 PUSH1 0x4 DUP1 CALLDATASIZE SUB DUP2 ADD SWAP1 PUSH2 0x4F0 SWAP2 SWAP1 PUSH2 0x2289 JUMP JUMPDEST PUSH2 0x11A3 JUMP JUMPDEST STOP JUMPDEST CALLVALUE DUP1 ISZERO PUSH2 0x503 JUMPI PUSH1 0x0 DUP1 REVERT JUMPDEST POP PUSH2 0x50C PUSH2 0x134A JUMP JUMPDEST PUSH1 0x40 MLOAD PUSH2 0x519 SWAP2 SWAP1 PUSH2 0x22CF JUMP JUMPDEST PUSH1 0x40 MLOAD DUP1 SWAP2 SUB SWAP1 RETURN JUMPDEST CALLVALUE DUP1 ISZERO PUSH2 0x52E JUMPI PUSH1 0x0 DUP1 REVERT JUMPDEST POP PUSH2 0x549 PUSH1 0x4 DUP1 CALLDATASIZE SUB DUP2 ADD SWAP1 PUSH2 0x544 SWAP2 SWAP1 PUSH2 0x2289 JUMP JUMPDEST PUSH2 0x1356 JUMP JUMPDEST STOP JUMPDEST PUSH1 0x0 DUP1 PUSH2 0x556 PUSH2 0x13DC JUMP JUMPDEST SWAP1 POP PUSH1 0x0 DUP2 PUSH1 0x9 ADD PUSH1 0x0 DUP6 PUSH20 0xFFFFFFFFFFFFFFFFFFFFFFFFFFFFFFFFFFFFFFFF AND PUSH20 0xFFFFFFFFFFFFFFFFFFFFFFFFFFFFFFFFFFFFFFFF AND DUP2 MSTORE PUSH1 0x20 ADD SWAP1 DUP2 MSTORE PUSH1 0x20 ADD PUSH1 0x0 KECCAK256 PUSH1 0x40 MLOAD DUP1 PUSH1 0x60 ADD PUSH1 0x40 MSTORE SWAP1 DUP2 PUSH1 0x0 DUP3 ADD SLOAD DUP2 MSTORE PUSH1 0x20 ADD PUSH1 0x1 DUP3 ADD SLOAD DUP2 MSTORE PUSH1 0x20 ADD PUSH1 0x2 DUP3 ADD SLOAD DUP2 MSTORE POP POP SWAP1 POP DUP1 PUSH1 0x40 ADD MLOAD SWAP3 POP POP POP SWAP2 SWAP1 POP JUMP JUMPDEST PUSH1 0x0 DUP1 PUSH2 0x5DF PUSH2 0x13DC JUMP JUMPDEST SWAP1 POP DUP1 PUSH1 0x2 ADD SLOAD SWAP2 POP POP SWAP1 JUMP JUMPDEST PUSH1 0x0 DUP1 PUSH2 0x5F7 PUSH2 0x13DC JUMP JUMPDEST SWAP1 POP DUP1 PUSH1 0x4 ADD SLOAD SWAP2 POP POP SWAP1 JUMP JUMPDEST PUSH2 0x60C PUSH2 0x1404 JUMP JUMPDEST PUSH2 0x614 PUSH2 0x148B JUMP JUMPDEST JUMP JUMPDEST PUSH2 0x61E PUSH2 0x14FD JUMP JUMPDEST PUSH1 0x0 PUSH2 0x628 PUSH2 0x13DC JUMP JUMPDEST SWAP1 POP DUP1 PUSH1 0x0 ADD PUSH1 0x0 SWAP1 SLOAD SWAP1 PUSH2 0x100 EXP SWAP1 DIV PUSH20 0xFFFFFFFFFFFFFFFFFFFFFFFFFFFFFFFFFFFFFFFF AND PUSH20 0xFFFFFFFFFFFFFFFFFFFFFFFFFFFFFFFFFFFFFFFF AND PUSH2 0x66D PUSH2 0x153E JUMP JUMPDEST PUSH20 0xFFFFFFFFFFFFFFFFFFFFFFFFFFFFFFFFFFFFFFFF AND EQ PUSH2 0x6BA JUMPI PUSH1 0x40 MLOAD PUSH32 0xCC12CEF600000000000000000000000000000000000000000000000000000000 DUP2 MSTORE PUSH1 0x4 ADD PUSH1 0x40 MLOAD DUP1 SWAP2 SUB SWAP1 REVERT JUMPDEST PUSH1 0x0 PUSH2 0x6C4 PUSH2 0x13DC JUMP JUMPDEST SWAP1 POP PUSH2 0x6CE PUSH2 0x1546 JUMP JUMPDEST PUSH2 0x6D9 DUP5 PUSH1 0x0 PUSH2 0xF24 JUMP JUMPDEST POP DUP3 DUP2 PUSH1 0x9 ADD PUSH1 0x0 DUP7 PUSH20 0xFFFFFFFFFFFFFFFFFFFFFFFFFFFFFFFFFFFFFFFF AND PUSH20 0xFFFFFFFFFFFFFFFFFFFFFFFFFFFFFFFFFFFFFFFF AND DUP2 MSTORE PUSH1 0x20 ADD SWAP1 DUP2 MSTORE PUSH1 0x20 ADD PUSH1 0x0 KECCAK256 PUSH1 0x0 ADD PUSH1 0x0 DUP3 DUP3 SLOAD PUSH2 0x72E SWAP2 SWAP1 PUSH2 0x2801 JUMP JUMPDEST SWAP3 POP POP DUP2 SWAP1 SSTORE POP DUP3 DUP2 PUSH1 0x3 ADD PUSH1 0x0 DUP3 DUP3 SLOAD PUSH2 0x749 SWAP2 SWAP1 PUSH2 0x2801 JUMP JUMPDEST SWAP3 POP POP DUP2 SWAP1 SSTORE POP POP POP POP POP JUMP JUMPDEST PUSH1 0x0 DUP1 PUSH2 0x761 PUSH2 0x13DC JUMP JUMPDEST SWAP1 POP PUSH1 0x0 PUSH2 0x76E DUP5 PUSH2 0x1642 JUMP JUMPDEST SWAP1 POP PUSH1 0x0 DUP3 PUSH1 0x9 ADD PUSH1 0x0 DUP7 PUSH20 0xFFFFFFFFFFFFFFFFFFFFFFFFFFFFFFFFFFFFFFFF AND PUSH20 0xFFFFFFFFFFFFFFFFFFFFFFFFFFFFFFFFFFFFFFFF AND DUP2 MSTORE PUSH1 0x20 ADD SWAP1 DUP2 MSTORE PUSH1 0x20 ADD PUSH1 0x0 KECCAK256 PUSH1 0x0 ADD SLOAD SWAP1 POP PUSH1 0x0 DUP2 SUB PUSH2 0x7CC JUMPI DUP2 SWAP4 POP POP POP POP PUSH2 0x895 JUMP JUMPDEST PUSH1 0x0 TIMESTAMP SWAP1 POP DUP4 PUSH1 0x5 ADD PUSH1 0x1 ADD SLOAD DUP2 GT ISZERO PUSH2 0x7EB JUMPI DUP4 PUSH1 0x5 ADD PUSH1 0x1 ADD SLOAD SWAP1 POP JUMPDEST PUSH1 0x0 DUP5 PUSH1 0x4 ADD SLOAD DUP3 PUSH2 0x7FD SWAP2 SWAP1 PUSH2 0x2835 JUMP JUMPDEST SWAP1 POP PUSH1 0x0 PUSH2 0x840 DUP7 PUSH1 0x5 ADD PUSH1 0x40 MLOAD DUP1 PUSH1 0x80 ADD PUSH1 0x40 MSTORE SWAP1 DUP2 PUSH1 0x0 DUP3 ADD SLOAD DUP2 MSTORE PUSH1 0x20 ADD PUSH1 0x1 DUP3 ADD SLOAD DUP2 MSTORE PUSH1 0x20 ADD PUSH1 0x2 DUP3 ADD SLOAD DUP2 MSTORE PUSH1 0x20 ADD PUSH1 0x3 DUP3 ADD SLOAD DUP2 MSTORE POP POP PUSH2 0x16FF JUMP JUMPDEST DUP3 PUSH2 0x84B SWAP2 SWAP1 PUSH2 0x2869 JUMP JUMPDEST SWAP1 POP PUSH1 0x0 PUSH8 0xDE0B6B3A7640000 DUP8 PUSH1 0x3 ADD SLOAD PUSH2 0x867 SWAP2 SWAP1 PUSH2 0x2869 JUMP JUMPDEST DUP6 DUP4 PUSH2 0x873 SWAP2 SWAP1 PUSH2 0x2869 JUMP JUMPDEST PUSH2 0x87D SWAP2 SWAP1 PUSH2 0x28DA JUMP JUMPDEST SWAP1 POP DUP1 DUP7 PUSH2 0x88B SWAP2 SWAP1 PUSH2 0x2801 JUMP JUMPDEST SWAP8 POP POP POP POP POP POP POP POP JUMPDEST SWAP2 SWAP1 POP JUMP JUMPDEST PUSH2 0x8A2 PUSH2 0x173E JUMP JUMPDEST PUSH2 0x8AB DUP3 PUSH2 0x1824 JUMP JUMPDEST PUSH2 0x8B5 DUP3 DUP3 PUSH2 0x182F JUMP JUMPDEST POP POP JUMP JUMPDEST PUSH2 0x8C1 PUSH2 0x14FD JUMP JUMPDEST PUSH1 0x0 PUSH2 0x8CB PUSH2 0x13DC JUMP JUMPDEST SWAP1 POP DUP1 PUSH1 0x0 ADD PUSH1 0x0 SWAP1 SLOAD SWAP1 PUSH2 0x100 EXP SWAP1 DIV PUSH20 0xFFFFFFFFFFFFFFFFFFFFFFFFFFFFFFFFFFFFFFFF AND PUSH20 0xFFFFFFFFFFFFFFFFFFFFFFFFFFFFFFFFFFFFFFFF AND PUSH2 0x910 PUSH2 0x153E JUMP JUMPDEST PUSH20 0xFFFFFFFFFFFFFFFFFFFFFFFFFFFFFFFFFFFFFFFF AND EQ PUSH2 0x95D JUMPI PUSH1 0x40 MLOAD PUSH32 0xCC12CEF600000000000000000000000000000000000000000000000000000000 DUP2 MSTORE PUSH1 0x4 ADD PUSH1 0x40 MLOAD DUP1 SWAP2 SUB SWAP1 REVERT JUMPDEST PUSH1 0x0 PUSH2 0x967 PUSH2 0x13DC JUMP JUMPDEST SWAP1 POP PUSH2 0x971 PUSH2 0x194E JUMP JUMPDEST ISZERO PUSH2 0x9A8 JUMPI PUSH1 0x40 MLOAD PUSH32 0xD6B0A7DE00000000000000000000000000000000000000000000000000000000 DUP2 MSTORE PUSH1 0x4 ADD PUSH1 0x40 MLOAD DUP1 SWAP2 SUB SWAP1 REVERT JUMPDEST PUSH2 0x9B0 PUSH2 0x1546 JUMP JUMPDEST PUSH2 0x9BB DUP4 PUSH1 0x0 PUSH2 0xF24 JUMP JUMPDEST POP DUP1 PUSH1 0x9 ADD PUSH1 0x0 DUP5 PUSH20 0xFFFFFFFFFFFFFFFFFFFFFFFFFFFFFFFFFFFFFFFF AND PUSH20 0xFFFFFFFFFFFFFFFFFFFFFFFFFFFFFFFFFFFFFFFF AND DUP2 MSTORE PUSH1 0x20 ADD SWAP1 DUP2 MSTORE PUSH1 0x20 ADD PUSH1 0x0 KECCAK256 PUSH1 0x0 ADD SLOAD DUP2 PUSH1 0x3 ADD PUSH1 0x0 DUP3 DUP3 SLOAD PUSH2 0xA14 SWAP2 SWAP1 PUSH2 0x2835 JUMP JUMPDEST SWAP3 POP POP DUP2 SWAP1 SSTORE POP PUSH1 0x0 DUP2 PUSH1 0x9 ADD PUSH1 0x0 DUP6 PUSH20 0xFFFFFFFFFFFFFFFFFFFFFFFFFFFFFFFFFFFFFFFF AND PUSH20 0xFFFFFFFFFFFFFFFFFFFFFFFFFFFFFFFFFFFFFFFF AND DUP2 MSTORE PUSH1 0x20 ADD SWAP1 DUP2 MSTORE PUSH1 0x20 ADD PUSH1 0x0 KECCAK256 PUSH1 0x0 ADD DUP2 SWAP1 SSTORE POP POP POP POP JUMP JUMPDEST PUSH1 0x0 PUSH2 0xA74 PUSH2 0x198E JUMP JUMPDEST PUSH32 0x360894A13BA1A3210667C828492DB98DCA3E2076CC3735A920A3CA505D382BBC PUSH1 0x0 SHL SWAP1 POP SWAP1 JUMP JUMPDEST PUSH1 0x0 DUP1 PUSH2 0xAA8 PUSH2 0x1A15 JUMP JUMPDEST SWAP1 POP DUP1 PUSH1 0x0 ADD PUSH1 0x0 SWAP1 SLOAD SWAP1 PUSH2 0x100 EXP SWAP1 DIV PUSH1 0xFF AND SWAP2 POP POP SWAP1 JUMP JUMPDEST PUSH2 0xACA PUSH2 0x21EF JUMP JUMPDEST PUSH1 0x0 PUSH2 0xAD4 PUSH2 0x13DC JUMP JUMPDEST SWAP1 POP DUP1 PUSH1 0x5 ADD PUSH1 0x40 MLOAD DUP1 PUSH1 0x80 ADD PUSH1 0x40 MSTORE SWAP1 DUP2 PUSH1 0x0 DUP3 ADD SLOAD DUP2 MSTORE PUSH1 0x20 ADD PUSH1 0x1 DUP3 ADD SLOAD DUP2 MSTORE PUSH1 0x20 ADD PUSH1 0x2 DUP3 ADD SLOAD DUP2 MSTORE PUSH1 0x20 ADD PUSH1 0x3 DUP3 ADD SLOAD DUP2 MSTORE POP POP SWAP2 POP POP SWAP1 JUMP JUMPDEST PUSH2 0xB1B PUSH2 0x1404 JUMP JUMPDEST PUSH1 0x0 PUSH2 0xB25 PUSH2 0x13DC JUMP JUMPDEST SWAP1 POP DUP2 DUP2 PUSH1 0x0 ADD PUSH1 0x0 PUSH2 0x100 EXP DUP2 SLOAD DUP2 PUSH20 0xFFFFFFFFFFFFFFFFFFFFFFFFFFFFFFFFFFFFFFFF MUL NOT AND SWAP1 DUP4 PUSH20 0xFFFFFFFFFFFFFFFFFFFFFFFFFFFFFFFFFFFFFFFF AND MUL OR SWAP1 SSTORE POP POP POP JUMP JUMPDEST PUSH2 0xB76 PUSH2 0x1404 JUMP JUMPDEST PUSH2 0xB7E PUSH2 0x194E JUMP JUMPDEST ISZERO PUSH2 0xBB5 JUMPI PUSH1 0x40 MLOAD PUSH32 0xFF31BC8F00000000000000000000000000000000000000000000000000000000 DUP2 MSTORE PUSH1 0x4 ADD PUSH1 0x40 MLOAD DUP1 SWAP2 SUB SWAP1 REVERT JUMPDEST PUSH1 0x0 PUSH2 0xBBF PUSH2 0x13DC JUMP JUMPDEST SWAP1 POP DUP1 PUSH1 0x4 ADD SLOAD DUP4 GT PUSH2 0xBFE JUMPI PUSH1 0x40 MLOAD PUSH32 0xFF31BC8F00000000000000000000000000000000000000000000000000000000 DUP2 MSTORE PUSH1 0x4 ADD PUSH1 0x40 MLOAD DUP1 SWAP2 SUB SWAP1 REVERT JUMPDEST DUP3 DUP3 LT ISZERO PUSH2 0xC38 JUMPI PUSH1 0x40 MLOAD PUSH32 0xFF31BC8F00000000000000000000000000000000000000000000000000000000 DUP2 MSTORE PUSH1 0x4 ADD PUSH1 0x40 MLOAD DUP1 SWAP2 SUB SWAP1 REVERT JUMPDEST TIMESTAMP DUP3 LT ISZERO PUSH2 0xC72 JUMPI PUSH1 0x40 MLOAD PUSH32 0xFF31BC8F00000000000000000000000000000000000000000000000000000000 DUP2 MSTORE PUSH1 0x4 ADD PUSH1 0x40 MLOAD DUP1 SWAP2 SUB SWAP1 REVERT JUMPDEST DUP3 DUP2 PUSH1 0x4 ADD DUP2 SWAP1 SSTORE POP DUP5 DUP2 PUSH1 0xA ADD PUSH1 0x0 PUSH2 0x100 EXP DUP2 SLOAD DUP2 PUSH20 0xFFFFFFFFFFFFFFFFFFFFFFFFFFFFFFFFFFFFFFFF MUL NOT AND SWAP1 DUP4 PUSH20 0xFFFFFFFFFFFFFFFFFFFFFFFFFFFFFFFFFFFFFFFF AND MUL OR SWAP1 SSTORE POP DUP4 DUP2 PUSH1 0x2 ADD PUSH1 0x0 DUP3 DUP3 SLOAD PUSH2 0xCD2 SWAP2 SWAP1 PUSH2 0x2801 JUMP JUMPDEST SWAP3 POP POP DUP2 SWAP1 SSTORE POP PUSH1 0x40 MLOAD DUP1 PUSH1 0x80 ADD PUSH1 0x40 MSTORE DUP1 DUP5 DUP2 MSTORE PUSH1 0x20 ADD DUP4 DUP2 MSTORE PUSH1 0x20 ADD DUP6 DUP2 MSTORE PUSH1 0x20 ADD PUSH1 0x0 DUP2 MSTORE POP DUP2 PUSH1 0x5 ADD PUSH1 0x0 DUP3 ADD MLOAD DUP2 PUSH1 0x0 ADD SSTORE PUSH1 0x20 DUP3 ADD MLOAD DUP2 PUSH1 0x1 ADD SSTORE PUSH1 0x40 DUP3 ADD MLOAD DUP2 PUSH1 0x2 ADD SSTORE PUSH1 0x60 DUP3 ADD MLOAD DUP2 PUSH1 0x3 ADD SSTORE SWAP1 POP POP POP POP POP POP POP JUMP JUMPDEST PUSH2 0xD39 PUSH2 0x1404 JUMP JUMPDEST PUSH2 0xD43 PUSH1 0x0 PUSH2 0x1A3D JUMP JUMPDEST JUMP JUMPDEST PUSH2 0xD4D PUSH2 0x1404 JUMP JUMPDEST PUSH1 0x0 PUSH2 0xD57 PUSH2 0x13DC JUMP JUMPDEST SWAP1 POP DUP2 DUP2 PUSH1 0x1 ADD PUSH1 0x0 PUSH2 0x100 EXP DUP2 SLOAD DUP2 PUSH20 0xFFFFFFFFFFFFFFFFFFFFFFFFFFFFFFFFFFFFFFFF MUL NOT AND SWAP1 DUP4 PUSH20 0xFFFFFFFFFFFFFFFFFFFFFFFFFFFFFFFFFFFFFFFF AND MUL OR SWAP1 SSTORE POP POP POP JUMP JUMPDEST PUSH2 0xDA8 PUSH2 0x1404 JUMP JUMPDEST PUSH2 0xDB0 PUSH2 0x1B14 JUMP JUMPDEST JUMP JUMPDEST PUSH1 0x0 DUP1 PUSH2 0xDBD PUSH2 0x1B86 JUMP JUMPDEST SWAP1 POP DUP1 PUSH1 0x0 ADD PUSH1 0x0 SWAP1 SLOAD SWAP1 PUSH2 0x100 EXP SWAP1 DIV PUSH20 0xFFFFFFFFFFFFFFFFFFFFFFFFFFFFFFFFFFFFFFFF AND SWAP2 POP POP SWAP1 JUMP JUMPDEST PUSH1 0x40 MLOAD DUP1 PUSH1 0x40 ADD PUSH1 0x40 MSTORE DUP1 PUSH1 0x5 DUP2 MSTORE PUSH1 0x20 ADD PUSH32 0x352E302E30000000000000000000000000000000000000000000000000000000 DUP2 MSTORE POP DUP2 JUMP JUMPDEST PUSH1 0x0 PUSH2 0xE2D PUSH2 0x14FD JUMP JUMPDEST PUSH1 0x0 PUSH2 0xE37 PUSH2 0x13DC JUMP JUMPDEST SWAP1 POP DUP1 PUSH1 0x0 ADD PUSH1 0x0 SWAP1 SLOAD SWAP1 PUSH2 0x100 EXP SWAP1 DIV PUSH20 0xFFFFFFFFFFFFFFFFFFFFFFFFFFFFFFFFFFFFFFFF AND PUSH20 0xFFFFFFFFFFFFFFFFFFFFFFFFFFFFFFFFFFFFFFFF AND PUSH2 0xE7C PUSH2 0x153E JUMP JUMPDEST PUSH20 0xFFFFFFFFFFFFFFFFFFFFFFFFFFFFFFFFFFFFFFFF AND EQ PUSH2 0xEC9 JUMPI PUSH1 0x40 MLOAD PUSH32 0xCC12CEF600000000000000000000000000000000000000000000000000000000 DUP2 MSTORE PUSH1 0x4 ADD PUSH1 0x40 MLOAD DUP1 SWAP2 SUB SWAP1 REVERT JUMPDEST PUSH1 0x0 PUSH2 0xED4 DUP6 PUSH2 0x756 JUMP JUMPDEST SWAP1 POP PUSH1 0x0 DUP2 SUB PUSH2 0xF10 JUMPI PUSH1 0x40 MLOAD PUSH32 0x1E09881A00000000000000000000000000000000000000000000000000000000 DUP2 MSTORE PUSH1 0x4 ADD PUSH1 0x40 MLOAD DUP1 SWAP2 SUB SWAP1 REVERT JUMPDEST PUSH2 0xF1A DUP6 DUP6 PUSH2 0xF24 JUMP JUMPDEST SWAP3 POP POP POP SWAP3 SWAP2 POP POP JUMP JUMPDEST PUSH1 0x0 DUP1 PUSH2 0xF2F PUSH2 0x13DC JUMP JUMPDEST SWAP1 POP DUP1 PUSH1 0x0 ADD PUSH1 0x0 SWAP1 SLOAD SWAP1 PUSH2 0x100 EXP SWAP1 DIV PUSH20 0xFFFFFFFFFFFFFFFFFFFFFFFFFFFFFFFFFFFFFFFF AND PUSH20 0xFFFFFFFFFFFFFFFFFFFFFFFFFFFFFFFFFFFFFFFF AND PUSH2 0xF74 PUSH2 0x153E JUMP JUMPDEST PUSH20 0xFFFFFFFFFFFFFFFFFFFFFFFFFFFFFFFFFFFFFFFF AND EQ PUSH2 0xFC1 JUMPI PUSH1 0x40 MLOAD PUSH32 0xCC12CEF600000000000000000000000000000000000000000000000000000000 DUP2 MSTORE PUSH1 0x4 ADD PUSH1 0x40 MLOAD DUP1 SWAP2 SUB SWAP1 REVERT JUMPDEST PUSH1 0x0 PUSH2 0xFCB PUSH2 0x13DC JUMP JUMPDEST SWAP1 POP PUSH1 0x0 DUP2 PUSH1 0x9 ADD PUSH1 0x0 DUP8 PUSH20 0xFFFFFFFFFFFFFFFFFFFFFFFFFFFFFFFFFFFFFFFF AND PUSH20 0xFFFFFFFFFFFFFFFFFFFFFFFFFFFFFFFFFFFFFFFF AND DUP2 MSTORE PUSH1 0x20 ADD SWAP1 DUP2 MSTORE PUSH1 0x20 ADD PUSH1 0x0 KECCAK256 SWAP1 POP PUSH2 0x101A PUSH2 0x1546 JUMP JUMPDEST PUSH1 0x0 PUSH2 0x1025 DUP8 PUSH2 0x1642 JUMP JUMPDEST SWAP1 POP DUP1 DUP3 PUSH1 0x2 ADD PUSH1 0x0 DUP3 DUP3 SLOAD PUSH2 0x103B SWAP2 SWAP1 PUSH2 0x2801 JUMP JUMPDEST SWAP3 POP POP DUP2 SWAP1 SSTORE POP DUP3 PUSH1 0x5 ADD PUSH1 0x3 ADD SLOAD DUP3 PUSH1 0x1 ADD DUP2 SWAP1 SSTORE POP DUP1 DUP4 PUSH1 0x2 ADD PUSH1 0x0 DUP3 DUP3 SLOAD PUSH2 0x1066 SWAP2 SWAP1 PUSH2 0x2835 JUMP JUMPDEST SWAP3 POP POP DUP2 SWAP1 SSTORE POP PUSH1 0x0 DUP2 SUB PUSH2 0x1081 JUMPI PUSH1 0x0 SWAP5 POP POP POP POP PUSH2 0x111E JUMP JUMPDEST DUP6 ISZERO PUSH2 0x10C2 JUMPI DUP1 DUP3 PUSH1 0x0 ADD PUSH1 0x0 DUP3 DUP3 SLOAD PUSH2 0x109B SWAP2 SWAP1 PUSH2 0x2801 JUMP JUMPDEST SWAP3 POP POP DUP2 SWAP1 SSTORE POP DUP1 DUP4 PUSH1 0x3 ADD PUSH1 0x0 DUP3 DUP3 SLOAD PUSH2 0x10B6 SWAP2 SWAP1 PUSH2 0x2801 JUMP JUMPDEST SWAP3 POP POP DUP2 SWAP1 SSTORE POP PUSH2 0x1117 JUMP JUMPDEST PUSH2 0x1116 DUP4 PUSH1 0x1 ADD PUSH1 0x0 SWAP1 SLOAD SWAP1 PUSH2 0x100 EXP SWAP1 DIV PUSH20 0xFFFFFFFFFFFFFFFFFFFFFFFFFFFFFFFFFFFFFFFF AND DUP5 PUSH1 0xA ADD PUSH1 0x0 SWAP1 SLOAD SWAP1 PUSH2 0x100 EXP SWAP1 DIV PUSH20 0xFFFFFFFFFFFFFFFFFFFFFFFFFFFFFFFFFFFFFFFF AND DUP10 DUP5 PUSH2 0x1BAE JUMP JUMPDEST JUMPDEST DUP1 SWAP5 POP POP POP POP JUMPDEST POP SWAP3 SWAP2 POP POP JUMP JUMPDEST PUSH1 0x0 DUP1 PUSH1 0x0 DUP1 PUSH1 0x0 DUP1 PUSH2 0x1136 PUSH2 0x13DC JUMP JUMPDEST SWAP1 POP DUP1 PUSH1 0x0 ADD PUSH1 0x0 SWAP1 SLOAD SWAP1 PUSH2 0x100 EXP SWAP1 DIV PUSH20 0xFFFFFFFFFFFFFFFFFFFFFFFFFFFFFFFFFFFFFFFF AND DUP2 PUSH1 0x1 ADD PUSH1 0x0 SWAP1 SLOAD SWAP1 PUSH2 0x100 EXP SWAP1 DIV PUSH20 0xFFFFFFFFFFFFFFFFFFFFFFFFFFFFFFFFFFFFFFFF AND DUP3 PUSH1 0x2 ADD SLOAD DUP4 PUSH1 0x3 ADD SLOAD DUP5 PUSH1 0x4 ADD SLOAD SWAP6 POP SWAP6 POP SWAP6 POP SWAP6 POP SWAP6 POP POP SWAP1 SWAP2 SWAP3 SWAP4 SWAP5 JUMP JUMPDEST PUSH1 0x0 PUSH2 0x11AD PUSH2 0x1C30 JUMP JUMPDEST SWAP1 POP PUSH1 0x0 DUP2 PUSH1 0x0 ADD PUSH1 0x8 SWAP1 SLOAD SWAP1 PUSH2 0x100 EXP SWAP1 DIV PUSH1 0xFF AND ISZERO SWAP1 POP PUSH1 0x0 DUP3 PUSH1 0x0 ADD PUSH1 0x0 SWAP1 SLOAD SWAP1 PUSH2 0x100 EXP SWAP1 DIV PUSH8 0xFFFFFFFFFFFFFFFF AND SWAP1 POP PUSH1 0x0 DUP1 DUP3 PUSH8 0xFFFFFFFFFFFFFFFF AND EQ DUP1 ISZERO PUSH2 0x11FB JUMPI POP DUP3 JUMPDEST SWAP1 POP PUSH1 0x0 PUSH1 0x1 DUP4 PUSH8 0xFFFFFFFFFFFFFFFF AND EQ DUP1 ISZERO PUSH2 0x1230 JUMPI POP PUSH1 0x0 ADDRESS PUSH20 0xFFFFFFFFFFFFFFFFFFFFFFFFFFFFFFFFFFFFFFFF AND EXTCODESIZE EQ JUMPDEST SWAP1 POP DUP2 ISZERO DUP1 ISZERO PUSH2 0x123E JUMPI POP DUP1 ISZERO JUMPDEST ISZERO PUSH2 0x1275 JUMPI PUSH1 0x40 MLOAD PUSH32 0xF92EE8A900000000000000000000000000000000000000000000000000000000 DUP2 MSTORE PUSH1 0x4 ADD PUSH1 0x40 MLOAD DUP1 SWAP2 SUB SWAP1 REVERT JUMPDEST PUSH1 0x1 DUP6 PUSH1 0x0 ADD PUSH1 0x0 PUSH2 0x100 EXP DUP2 SLOAD DUP2 PUSH8 0xFFFFFFFFFFFFFFFF MUL NOT AND SWAP1 DUP4 PUSH8 0xFFFFFFFFFFFFFFFF AND MUL OR SWAP1 SSTORE POP DUP4 ISZERO PUSH2 0x12C5 JUMPI PUSH1 0x1 DUP6 PUSH1 0x0 ADD PUSH1 0x8 PUSH2 0x100 EXP DUP2 SLOAD DUP2 PUSH1 0xFF MUL NOT AND SWAP1 DUP4 ISZERO ISZERO MUL OR SWAP1 SSTORE POP JUMPDEST PUSH2 0x12CD PUSH2 0x1C44 JUMP JUMPDEST PUSH2 0x12D5 PUSH2 0x1C4E JUMP JUMPDEST PUSH2 0x12DE DUP7 PUSH2 0x1C60 JUMP JUMPDEST PUSH2 0x12E6 PUSH2 0x1C74 JUMP JUMPDEST DUP4 ISZERO PUSH2 0x1342 JUMPI PUSH1 0x0 DUP6 PUSH1 0x0 ADD PUSH1 0x8 PUSH2 0x100 EXP DUP2 SLOAD DUP2 PUSH1 0xFF MUL NOT AND SWAP1 DUP4 ISZERO ISZERO MUL OR SWAP1 SSTORE POP PUSH32 0xC7F505B2F371AE2175EE4913F4499E1F2633A7B5936321EED1CDAEB6115181D2 PUSH1 0x1 PUSH1 0x40 MLOAD PUSH2 0x1339 SWAP2 SWAP1 PUSH2 0x2964 JUMP JUMPDEST PUSH1 0x40 MLOAD DUP1 SWAP2 SUB SWAP1 LOG1 JUMPDEST POP POP POP POP POP POP JUMP JUMPDEST PUSH8 0xDE0B6B3A7640000 DUP2 JUMP JUMPDEST PUSH2 0x135E PUSH2 0x1404 JUMP JUMPDEST PUSH1 0x0 PUSH20 0xFFFFFFFFFFFFFFFFFFFFFFFFFFFFFFFFFFFFFFFF AND DUP2 PUSH20 0xFFFFFFFFFFFFFFFFFFFFFFFFFFFFFFFFFFFFFFFF AND SUB PUSH2 0x13D0 JUMPI PUSH1 0x0 PUSH1 0x40 MLOAD PUSH32 0x1E4FBDF700000000000000000000000000000000000000000000000000000000 DUP2 MSTORE PUSH1 0x4 ADD PUSH2 0x13C7 SWAP2 SWAP1 PUSH2 0x2657 JUMP JUMPDEST PUSH1 0x40 MLOAD DUP1 SWAP2 SUB SWAP1 REVERT JUMPDEST PUSH2 0x13D9 DUP2 PUSH2 0x1A3D JUMP JUMPDEST POP JUMP JUMPDEST PUSH1 0x0 PUSH32 0xE9672D2C676BB94D428D6CE523668C779079DF8FEBE4142A9972A2A2313D2C00 SWAP1 POP SWAP1 JUMP JUMPDEST PUSH2 0x140C PUSH2 0x153E JUMP JUMPDEST PUSH20 0xFFFFFFFFFFFFFFFFFFFFFFFFFFFFFFFFFFFFFFFF AND PUSH2 0x142A PUSH2 0xDB2 JUMP JUMPDEST PUSH20 0xFFFFFFFFFFFFFFFFFFFFFFFFFFFFFFFFFFFFFFFF AND EQ PUSH2 0x1489 JUMPI PUSH2 0x144D PUSH2 0x153E JUMP JUMPDEST PUSH1 0x40 MLOAD PUSH32 0x118CDAA700000000000000000000000000000000000000000000000000000000 DUP2 MSTORE PUSH1 0x4 ADD PUSH2 0x1480 SWAP2 SWAP1 PUSH2 0x2657 JUMP JUMPDEST PUSH1 0x40 MLOAD DUP1 SWAP2 SUB SWAP1 REVERT JUMPDEST JUMP JUMPDEST PUSH2 0x1493 PUSH2 0x1C7E JUMP JUMPDEST PUSH1 0x0 PUSH2 0x149D PUSH2 0x1A15 JUMP JUMPDEST SWAP1 POP PUSH1 0x0 DUP2 PUSH1 0x0 ADD PUSH1 0x0 PUSH2 0x100 EXP DUP2 SLOAD DUP2 PUSH1 0xFF MUL NOT AND SWAP1 DUP4 ISZERO ISZERO MUL OR SWAP1 SSTORE POP PUSH32 0x5DB9EE0A495BF2E6FF9C91A7834C1BA4FDD244A5E8AA4E537BD38AEAE4B073AA PUSH2 0x14E5 PUSH2 0x153E JUMP JUMPDEST PUSH1 0x40 MLOAD PUSH2 0x14F2 SWAP2 SWAP1 PUSH2 0x2657 JUMP JUMPDEST PUSH1 0x40 MLOAD DUP1 SWAP2 SUB SWAP1 LOG1 POP JUMP JUMPDEST PUSH2 0x1505 PUSH2 0xA9D JUMP JUMPDEST ISZERO PUSH2 0x153C JUMPI PUSH1 0x40 MLOAD PUSH32 0xD93C066500000000000000000000000000000000000000000000000000000000 DUP2 MSTORE PUSH1 0x4 ADD PUSH1 0x40 MLOAD DUP1 SWAP2 SUB SWAP1 REVERT JUMPDEST JUMP JUMPDEST PUSH1 0x0 CALLER SWAP1 POP SWAP1 JUMP JUMPDEST PUSH1 0x0 PUSH2 0x1550 PUSH2 0x13DC JUMP JUMPDEST SWAP1 POP PUSH1 0x0 DUP2 PUSH1 0x5 ADD SWAP1 POP PUSH1 0x0 TIMESTAMP SWAP1 POP DUP2 PUSH1 0x0 ADD SLOAD DUP2 LT ISZERO PUSH2 0x1573 JUMPI DUP2 PUSH1 0x0 ADD SLOAD SWAP1 POP JUMPDEST DUP2 PUSH1 0x1 ADD SLOAD DUP2 GT ISZERO PUSH2 0x1587 JUMPI DUP2 PUSH1 0x1 ADD SLOAD SWAP1 POP JUMPDEST DUP3 PUSH1 0x4 ADD SLOAD DUP2 SUB PUSH2 0x159A JUMPI POP POP POP PUSH2 0x1640 JUMP JUMPDEST PUSH1 0x0 DUP4 PUSH1 0x3 ADD SLOAD GT ISZERO PUSH2 0x163C JUMPI PUSH1 0x0 DUP4 PUSH1 0x4 ADD SLOAD DUP3 PUSH2 0x15B9 SWAP2 SWAP1 PUSH2 0x2835 JUMP JUMPDEST SWAP1 POP PUSH1 0x0 PUSH2 0x15F9 DUP5 PUSH1 0x40 MLOAD DUP1 PUSH1 0x80 ADD PUSH1 0x40 MSTORE SWAP1 DUP2 PUSH1 0x0 DUP3 ADD SLOAD DUP2 MSTORE PUSH1 0x20 ADD PUSH1 0x1 DUP3 ADD SLOAD DUP2 MSTORE PUSH1 0x20 ADD PUSH1 0x2 DUP3 ADD SLOAD DUP2 MSTORE PUSH1 0x20 ADD PUSH1 0x3 DUP3 ADD SLOAD DUP2 MSTORE POP POP PUSH2 0x16FF JUMP JUMPDEST DUP3 PUSH2 0x1604 SWAP2 SWAP1 PUSH2 0x2869 JUMP JUMPDEST SWAP1 POP DUP5 PUSH1 0x3 ADD SLOAD DUP2 PUSH2 0x1616 SWAP2 SWAP1 PUSH2 0x28DA JUMP JUMPDEST DUP5 PUSH1 0x3 ADD PUSH1 0x0 DUP3 DUP3 SLOAD PUSH2 0x1629 SWAP2 SWAP1 PUSH2 0x2801 JUMP JUMPDEST SWAP3 POP POP DUP2 SWAP1 SSTORE POP DUP3 DUP6 PUSH1 0x4 ADD DUP2 SWAP1 SSTORE POP POP POP JUMPDEST POP POP POP JUMPDEST JUMP JUMPDEST PUSH1 0x0 DUP1 PUSH2 0x164D PUSH2 0x13DC JUMP JUMPDEST SWAP1 POP PUSH1 0x0 DUP2 PUSH1 0x9 ADD PUSH1 0x0 DUP6 PUSH20 0xFFFFFFFFFFFFFFFFFFFFFFFFFFFFFFFFFFFFFFFF AND PUSH20 0xFFFFFFFFFFFFFFFFFFFFFFFFFFFFFFFFFFFFFFFF AND DUP2 MSTORE PUSH1 0x20 ADD SWAP1 DUP2 MSTORE PUSH1 0x20 ADD PUSH1 0x0 KECCAK256 PUSH1 0x40 MLOAD DUP1 PUSH1 0x60 ADD PUSH1 0x40 MSTORE SWAP1 DUP2 PUSH1 0x0 DUP3 ADD SLOAD DUP2 MSTORE PUSH1 0x20 ADD PUSH1 0x1 DUP3 ADD SLOAD DUP2 MSTORE PUSH1 0x20 ADD PUSH1 0x2 DUP3 ADD SLOAD DUP2 MSTORE POP POP SWAP1 POP PUSH8 0xDE0B6B3A7640000 DUP2 PUSH1 0x20 ADD MLOAD DUP4 PUSH1 0x5 ADD PUSH1 0x3 ADD SLOAD PUSH2 0x16DD SWAP2 SWAP1 PUSH2 0x2835 JUMP JUMPDEST DUP3 PUSH1 0x0 ADD MLOAD PUSH2 0x16EC SWAP2 SWAP1 PUSH2 0x2869 JUMP JUMPDEST PUSH2 0x16F6 SWAP2 SWAP1 PUSH2 0x28DA JUMP JUMPDEST SWAP3 POP POP POP SWAP2 SWAP1 POP JUMP JUMPDEST PUSH1 0x0 DUP2 PUSH1 0x0 ADD MLOAD DUP3 PUSH1 0x20 ADD MLOAD PUSH2 0x1715 SWAP2 SWAP1 PUSH2 0x2835 JUMP JUMPDEST DUP3 PUSH1 0x40 ADD MLOAD PUSH8 0xDE0B6B3A7640000 PUSH2 0x172D SWAP2 SWAP1 PUSH2 0x2869 JUMP JUMPDEST PUSH2 0x1737 SWAP2 SWAP1 PUSH2 0x28DA JUMP JUMPDEST SWAP1 POP SWAP2 SWAP1 POP JUMP JUMPDEST PUSH32 0x0 PUSH20 0xFFFFFFFFFFFFFFFFFFFFFFFFFFFFFFFFFFFFFFFF AND ADDRESS PUSH20 0xFFFFFFFFFFFFFFFFFFFFFFFFFFFFFFFFFFFFFFFF AND EQ DUP1 PUSH2 0x17EB JUMPI POP PUSH32 0x0 PUSH20 0xFFFFFFFFFFFFFFFFFFFFFFFFFFFFFFFFFFFFFFFF AND PUSH2 0x17D2 PUSH2 0x1CBE JUMP JUMPDEST PUSH20 0xFFFFFFFFFFFFFFFFFFFFFFFFFFFFFFFFFFFFFFFF AND EQ ISZERO JUMPDEST ISZERO PUSH2 0x1822 JUMPI PUSH1 0x40 MLOAD PUSH32 0xE07C8DBA00000000000000000000000000000000000000000000000000000000 DUP2 MSTORE PUSH1 0x4 ADD PUSH1 0x40 MLOAD DUP1 SWAP2 SUB SWAP1 REVERT JUMPDEST JUMP JUMPDEST PUSH2 0x182C PUSH2 0x1404 JUMP JUMPDEST POP JUMP JUMPDEST DUP2 PUSH20 0xFFFFFFFFFFFFFFFFFFFFFFFFFFFFFFFFFFFFFFFF AND PUSH4 0x52D1902D PUSH1 0x40 MLOAD DUP2 PUSH4 0xFFFFFFFF AND PUSH1 0xE0 SHL DUP2 MSTORE PUSH1 0x4 ADD PUSH1 0x20 PUSH1 0x40 MLOAD DUP1 DUP4 SUB DUP2 DUP7 GAS STATICCALL SWAP3 POP POP POP DUP1 ISZERO PUSH2 0x1897 JUMPI POP PUSH1 0x40 MLOAD RETURNDATASIZE PUSH1 0x1F NOT PUSH1 0x1F DUP3 ADD AND DUP3 ADD DUP1 PUSH1 0x40 MSTORE POP DUP2 ADD SWAP1 PUSH2 0x1894 SWAP2 SWAP1 PUSH2 0x29AB JUMP JUMPDEST PUSH1 0x1 JUMPDEST PUSH2 0x18D8 JUMPI DUP2 PUSH1 0x40 MLOAD PUSH32 0x4C9C8CE300000000000000000000000000000000000000000000000000000000 DUP2 MSTORE PUSH1 0x4 ADD PUSH2 0x18CF SWAP2 SWAP1 PUSH2 0x2657 JUMP JUMPDEST PUSH1 0x40 MLOAD DUP1 SWAP2 SUB SWAP1 REVERT JUMPDEST PUSH32 0x360894A13BA1A3210667C828492DB98DCA3E2076CC3735A920A3CA505D382BBC PUSH1 0x0 SHL DUP2 EQ PUSH2 0x193F JUMPI DUP1 PUSH1 0x40 MLOAD PUSH32 0xAA1D49A400000000000000000000000000000000000000000000000000000000 DUP2 MSTORE PUSH1 0x4 ADD PUSH2 0x1936 SWAP2 SWAP1 PUSH2 0x2511 JUMP JUMPDEST PUSH1 0x40 MLOAD DUP1 SWAP2 SUB SWAP1 REVERT JUMPDEST PUSH2 0x1949 DUP4 DUP4 PUSH2 0x1D15 JUMP JUMPDEST POP POP POP JUMP JUMPDEST PUSH1 0x0 DUP1 PUSH2 0x1959 PUSH2 0x13DC JUMP JUMPDEST SWAP1 POP DUP1 PUSH1 0x5 ADD PUSH1 0x0 ADD SLOAD TIMESTAMP LT DUP1 PUSH2 0x1976 JUMPI POP DUP1 PUSH1 0x5 ADD PUSH1 0x1 ADD SLOAD TIMESTAMP GT JUMPDEST ISZERO PUSH2 0x1985 JUMPI PUSH1 0x0 SWAP2 POP POP PUSH2 0x198B JUMP JUMPDEST PUSH1 0x1 SWAP2 POP POP JUMPDEST SWAP1 JUMP JUMPDEST PUSH32 0x0 PUSH20 0xFFFFFFFFFFFFFFFFFFFFFFFFFFFFFFFFFFFFFFFF AND ADDRESS PUSH20 0xFFFFFFFFFFFFFFFFFFFFFFFFFFFFFFFFFFFFFFFF AND EQ PUSH2 0x1A13 JUMPI PUSH1 0x40 MLOAD PUSH32 0xE07C8DBA00000000000000000000000000000000000000000000000000000000 DUP2 MSTORE PUSH1 0x4 ADD PUSH1 0x40 MLOAD DUP1 SWAP2 SUB SWAP1 REVERT JUMPDEST JUMP JUMPDEST PUSH1 0x0 PUSH32 0xCD5ED15C6E187E77E9AEE88184C21F4F2182AB5827CB3B7E07FBEDCD63F03300 SWAP1 POP SWAP1 JUMP JUMPDEST PUSH1 0x0 PUSH2 0x1A47 PUSH2 0x1B86 JUMP JUMPDEST SWAP1 POP PUSH1 0x0 DUP2 PUSH1 0x0 ADD PUSH1 0x0 SWAP1 SLOAD SWAP1 PUSH2 0x100 EXP SWAP1 DIV PUSH20 0xFFFFFFFFFFFFFFFFFFFFFFFFFFFFFFFFFFFFFFFF AND SWAP1 POP DUP3 DUP3 PUSH1 0x0 ADD PUSH1 0x0 PUSH2 0x100 EXP DUP2 SLOAD DUP2 PUSH20 0xFFFFFFFFFFFFFFFFFFFFFFFFFFFFFFFFFFFFFFFF MUL NOT AND SWAP1 DUP4 PUSH20 0xFFFFFFFFFFFFFFFFFFFFFFFFFFFFFFFFFFFFFFFF AND MUL OR SWAP1 SSTORE POP DUP3 PUSH20 0xFFFFFFFFFFFFFFFFFFFFFFFFFFFFFFFFFFFFFFFF AND DUP2 PUSH20 0xFFFFFFFFFFFFFFFFFFFFFFFFFFFFFFFFFFFFFFFF AND PUSH32 0x8BE0079C531659141344CD1FD0A4F28419497F9722A3DAAFE3B4186F6B6457E0 PUSH1 0x40 MLOAD PUSH1 0x40 MLOAD DUP1 SWAP2 SUB SWAP1 LOG3 POP POP POP JUMP JUMPDEST PUSH2 0x1B1C PUSH2 0x14FD JUMP JUMPDEST PUSH1 0x0 PUSH2 0x1B26 PUSH2 0x1A15 JUMP JUMPDEST SWAP1 POP PUSH1 0x1 DUP2 PUSH1 0x0 ADD PUSH1 0x0 PUSH2 0x100 EXP DUP2 SLOAD DUP2 PUSH1 0xFF MUL NOT AND SWAP1 DUP4 ISZERO ISZERO MUL OR SWAP1 SSTORE POP PUSH32 0x62E78CEA01BEE320CD4E420270B5EA74000D11B0C9F74754EBDBFC544B05A258 PUSH2 0x1B6E PUSH2 0x153E JUMP JUMPDEST PUSH1 0x40 MLOAD PUSH2 0x1B7B SWAP2 SWAP1 PUSH2 0x2657 JUMP JUMPDEST PUSH1 0x40 MLOAD DUP1 SWAP2 SUB SWAP1 LOG1 POP JUMP JUMPDEST PUSH1 0x0 PUSH32 0x9016D09D72D40FDAE2FD8CEAC6B6234C7706214FD39C1CD1E609A0528C199300 SWAP1 POP SWAP1 JUMP JUMPDEST PUSH2 0x1C2A DUP5 DUP6 PUSH20 0xFFFFFFFFFFFFFFFFFFFFFFFFFFFFFFFFFFFFFFFF AND PUSH4 0x23B872DD DUP7 DUP7 DUP7 PUSH1 0x40 MLOAD PUSH1 0x24 ADD PUSH2 0x1BE3 SWAP4 SWAP3 SWAP2 SWAP1 PUSH2 0x29D8 JUMP JUMPDEST PUSH1 0x40 MLOAD PUSH1 0x20 DUP2 DUP4 SUB SUB DUP2 MSTORE SWAP1 PUSH1 0x40 MSTORE SWAP2 POP PUSH1 0xE0 SHL PUSH1 0x20 DUP3 ADD DUP1 MLOAD PUSH28 0xFFFFFFFFFFFFFFFFFFFFFFFFFFFFFFFFFFFFFFFFFFFFFFFFFFFFFFFF DUP4 DUP2 DUP4 AND OR DUP4 MSTORE POP POP POP POP PUSH2 0x1D88 JUMP JUMPDEST POP POP POP POP JUMP JUMPDEST PUSH1 0x0 DUP1 PUSH2 0x1C3B PUSH2 0x1E2A JUMP JUMPDEST SWAP1 POP DUP1 SWAP2 POP POP SWAP1 JUMP JUMPDEST PUSH2 0x1C4C PUSH2 0x1E55 JUMP JUMPDEST JUMP JUMPDEST PUSH2 0x1C56 PUSH2 0x1E55 JUMP JUMPDEST PUSH2 0x1C5E PUSH2 0x1E95 JUMP JUMPDEST JUMP JUMPDEST PUSH2 0x1C68 PUSH2 0x1E55 JUMP JUMPDEST PUSH2 0x1C71 DUP2 PUSH2 0x1EB6 JUMP JUMPDEST POP JUMP JUMPDEST PUSH2 0x1C7C PUSH2 0x1E55 JUMP JUMPDEST JUMP JUMPDEST PUSH2 0x1C86 PUSH2 0xA9D JUMP JUMPDEST PUSH2 0x1CBC JUMPI PUSH1 0x40 MLOAD PUSH32 0x8DFC202B00000000000000000000000000000000000000000000000000000000 DUP2 MSTORE PUSH1 0x4 ADD PUSH1 0x40 MLOAD DUP1 SWAP2 SUB SWAP1 REVERT JUMPDEST JUMP JUMPDEST PUSH1 0x0 PUSH2 0x1CEC PUSH32 0x360894A13BA1A3210667C828492DB98DCA3E2076CC3735A920A3CA505D382BBC PUSH1 0x0 SHL PUSH2 0x1F3C JUMP JUMPDEST PUSH1 0x0 ADD PUSH1 0x0 SWAP1 SLOAD SWAP1 PUSH2 0x100 EXP SWAP1 DIV PUSH20 0xFFFFFFFFFFFFFFFFFFFFFFFFFFFFFFFFFFFFFFFF AND SWAP1 POP SWAP1 JUMP JUMPDEST PUSH2 0x1D1E DUP3 PUSH2 0x1F46 JUMP JUMPDEST DUP2 PUSH20 0xFFFFFFFFFFFFFFFFFFFFFFFFFFFFFFFFFFFFFFFF AND PUSH32 0xBC7CD75A20EE27FD9ADEBAB32041F755214DBC6BFFA90CC0225B39DA2E5C2D3B PUSH1 0x40 MLOAD PUSH1 0x40 MLOAD DUP1 SWAP2 SUB SWAP1 LOG2 PUSH1 0x0 DUP2 MLOAD GT ISZERO PUSH2 0x1D7B JUMPI PUSH2 0x1D75 DUP3 DUP3 PUSH2 0x2013 JUMP JUMPDEST POP PUSH2 0x1D84 JUMP JUMPDEST PUSH2 0x1D83 PUSH2 0x2097 JUMP JUMPDEST JUMPDEST POP POP JUMP JUMPDEST PUSH1 0x0 DUP1 PUSH1 0x20 PUSH1 0x0 DUP5 MLOAD PUSH1 0x20 DUP7 ADD PUSH1 0x0 DUP9 GAS CALL DUP1 PUSH2 0x1DAB JUMPI PUSH1 0x40 MLOAD RETURNDATASIZE PUSH1 0x0 DUP3 RETURNDATACOPY RETURNDATASIZE DUP2 REVERT JUMPDEST RETURNDATASIZE SWAP3 POP PUSH1 0x0 MLOAD SWAP2 POP POP PUSH1 0x0 DUP3 EQ PUSH2 0x1DC6 JUMPI PUSH1 0x1 DUP2 EQ ISZERO PUSH2 0x1DE2 JUMP JUMPDEST PUSH1 0x0 DUP5 PUSH20 0xFFFFFFFFFFFFFFFFFFFFFFFFFFFFFFFFFFFFFFFF AND EXTCODESIZE EQ JUMPDEST ISZERO PUSH2 0x1E24 JUMPI DUP4 PUSH1 0x40 MLOAD PUSH32 0x5274AFE700000000000000000000000000000000000000000000000000000000 DUP2 MSTORE PUSH1 0x4 ADD PUSH2 0x1E1B SWAP2 SWAP1 PUSH2 0x2657 JUMP JUMPDEST PUSH1 0x40 MLOAD DUP1 SWAP2 SUB SWAP1 REVERT JUMPDEST POP POP POP POP JUMP JUMPDEST PUSH1 0x0 PUSH32 0xF0C57E16840DF040F15088DC2F81FE391C3923BEC73E23A9662EFC9C229C6A00 PUSH1 0x0 SHL SWAP1 POP SWAP1 JUMP JUMPDEST PUSH2 0x1E5D PUSH2 0x20D4 JUMP JUMPDEST PUSH2 0x1E93 JUMPI PUSH1 0x40 MLOAD PUSH32 0xD7E6BCF800000000000000000000000000000000000000000000000000000000 DUP2 MSTORE PUSH1 0x4 ADD PUSH1 0x40 MLOAD DUP1 SWAP2 SUB SWAP1 REVERT JUMPDEST JUMP JUMPDEST PUSH2 0x1E9D PUSH2 0x1E55 JUMP JUMPDEST PUSH1 0x0 PUSH2 0x1EA7 PUSH2 0x20F4 JUMP JUMPDEST SWAP1 POP PUSH1 0x1 DUP2 PUSH1 0x0 ADD DUP2 SWAP1 SSTORE POP POP JUMP JUMPDEST PUSH2 0x1EBE PUSH2 0x1E55 JUMP JUMPDEST PUSH1 0x0 PUSH20 0xFFFFFFFFFFFFFFFFFFFFFFFFFFFFFFFFFFFFFFFF AND DUP2 PUSH20 0xFFFFFFFFFFFFFFFFFFFFFFFFFFFFFFFFFFFFFFFF AND SUB PUSH2 0x1F30 JUMPI PUSH1 0x0 PUSH1 0x40 MLOAD PUSH32 0x1E4FBDF700000000000000000000000000000000000000000000000000000000 DUP2 MSTORE PUSH1 0x4 ADD PUSH2 0x1F27 SWAP2 SWAP1 PUSH2 0x2657 JUMP JUMPDEST PUSH1 0x40 MLOAD DUP1 SWAP2 SUB SWAP1 REVERT JUMPDEST PUSH2 0x1F39 DUP2 PUSH2 0x1A3D JUMP JUMPDEST POP JUMP JUMPDEST PUSH1 0x0 DUP2 SWAP1 POP SWAP2 SWAP1 POP JUMP JUMPDEST PUSH1 0x0 DUP2 PUSH20 0xFFFFFFFFFFFFFFFFFFFFFFFFFFFFFFFFFFFFFFFF AND EXTCODESIZE SUB PUSH2 0x1FA2 JUMPI DUP1 PUSH1 0x40 MLOAD PUSH32 0x4C9C8CE300000000000000000000000000000000000000000000000000000000 DUP2 MSTORE PUSH1 0x4 ADD PUSH2 0x1F99 SWAP2 SWAP1 PUSH2 0x2657 JUMP JUMPDEST PUSH1 0x40 MLOAD DUP1 SWAP2 SUB SWAP1 REVERT JUMPDEST DUP1 PUSH2 0x1FCF PUSH32 0x360894A13BA1A3210667C828492DB98DCA3E2076CC3735A920A3CA505D382BBC PUSH1 0x0 SHL PUSH2 0x1F3C JUMP JUMPDEST PUSH1 0x0 ADD PUSH1 0x0 PUSH2 0x100 EXP DUP2 SLOAD DUP2 PUSH20 0xFFFFFFFFFFFFFFFFFFFFFFFFFFFFFFFFFFFFFFFF MUL NOT AND SWAP1 DUP4 PUSH20 0xFFFFFFFFFFFFFFFFFFFFFFFFFFFFFFFFFFFFFFFF AND MUL OR SWAP1 SSTORE POP POP JUMP JUMPDEST PUSH1 0x60 PUSH1 0x0 DUP1 DUP5 PUSH20 0xFFFFFFFFFFFFFFFFFFFFFFFFFFFFFFFFFFFFFFFF AND DUP5 PUSH1 0x40 MLOAD PUSH2 0x203D SWAP2 SWAP1 PUSH2 0x2A56 JUMP JUMPDEST PUSH1 0x0 PUSH1 0x40 MLOAD DUP1 DUP4 SUB DUP2 DUP6 GAS DELEGATECALL SWAP2 POP POP RETURNDATASIZE DUP1 PUSH1 0x0 DUP2 EQ PUSH2 0x2078 JUMPI PUSH1 0x40 MLOAD SWAP2 POP PUSH1 0x1F NOT PUSH1 0x3F RETURNDATASIZE ADD AND DUP3 ADD PUSH1 0x40 MSTORE RETURNDATASIZE DUP3 MSTORE RETURNDATASIZE PUSH1 0x0 PUSH1 0x20 DUP5 ADD RETURNDATACOPY PUSH2 0x207D JUMP JUMPDEST PUSH1 0x60 SWAP2 POP JUMPDEST POP SWAP2 POP SWAP2 POP PUSH2 0x208D DUP6 DUP4 DUP4 PUSH2 0x211C JUMP JUMPDEST SWAP3 POP POP POP SWAP3 SWAP2 POP POP JUMP JUMPDEST PUSH1 0x0 CALLVALUE GT ISZERO PUSH2 0x20D2 JUMPI PUSH1 0x40 MLOAD PUSH32 0xB398979F00000000000000000000000000000000000000000000000000000000 DUP2 MSTORE PUSH1 0x4 ADD PUSH1 0x40 MLOAD DUP1 SWAP2 SUB SWAP1 REVERT JUMPDEST JUMP JUMPDEST PUSH1 0x0 PUSH2 0x20DE PUSH2 0x1C30 JUMP JUMPDEST PUSH1 0x0 ADD PUSH1 0x8 SWAP1 SLOAD SWAP1 PUSH2 0x100 EXP SWAP1 DIV PUSH1 0xFF AND SWAP1 POP SWAP1 JUMP JUMPDEST PUSH1 0x0 PUSH32 0x9B779B17422D0DF92223018B32B4D1FA46E071723D6817E2486D003BECC55F00 SWAP1 POP SWAP1 JUMP JUMPDEST PUSH1 0x60 DUP3 PUSH2 0x2131 JUMPI PUSH2 0x212C DUP3 PUSH2 0x21AB JUMP JUMPDEST PUSH2 0x21A3 JUMP JUMPDEST PUSH1 0x0 DUP3 MLOAD EQ DUP1 ISZERO PUSH2 0x2159 JUMPI POP PUSH1 0x0 DUP5 PUSH20 0xFFFFFFFFFFFFFFFFFFFFFFFFFFFFFFFFFFFFFFFF AND EXTCODESIZE EQ JUMPDEST ISZERO PUSH2 0x219B JUMPI DUP4 PUSH1 0x40 MLOAD PUSH32 0x9996B31500000000000000000000000000000000000000000000000000000000 DUP2 MSTORE PUSH1 0x4 ADD PUSH2 0x2192 SWAP2 SWAP1 PUSH2 0x2657 JUMP JUMPDEST PUSH1 0x40 MLOAD DUP1 SWAP2 SUB SWAP1 REVERT JUMPDEST DUP2 SWAP1 POP PUSH2 0x21A4 JUMP JUMPDEST JUMPDEST SWAP4 SWAP3 POP POP POP JUMP JUMPDEST PUSH1 0x0 DUP2 MLOAD GT ISZERO PUSH2 0x21BD JUMPI DUP1 MLOAD PUSH1 0x20 DUP3 ADD REVERT JUMPDEST PUSH1 0x40 MLOAD PUSH32 0xD6BDA27500000000000000000000000000000000000000000000000000000000 DUP2 MSTORE PUSH1 0x4 ADD PUSH1 0x40 MLOAD DUP1 SWAP2 SUB SWAP1 REVERT JUMPDEST PUSH1 0x40 MLOAD DUP1 PUSH1 0x80 ADD PUSH1 0x40 MSTORE DUP1 PUSH1 0x0 DUP2 MSTORE PUSH1 0x20 ADD PUSH1 0x0 DUP2 MSTORE PUSH1 0x20 ADD PUSH1 0x0 DUP2 MSTORE PUSH1 0x20 ADD PUSH1 0x0 DUP2 MSTORE POP SWAP1 JUMP JUMPDEST PUSH1 0x0 PUSH1 0x40 MLOAD SWAP1 POP SWAP1 JUMP JUMPDEST PUSH1 0x0 DUP1 REVERT JUMPDEST PUSH1 0x0 DUP1 REVERT JUMPDEST PUSH1 0x0 PUSH20 0xFFFFFFFFFFFFFFFFFFFFFFFFFFFFFFFFFFFFFFFF DUP3 AND SWAP1 POP SWAP2 SWAP1 POP JUMP JUMPDEST PUSH1 0x0 PUSH2 0x2256 DUP3 PUSH2 0x222B JUMP JUMPDEST SWAP1 POP SWAP2 SWAP1 POP JUMP JUMPDEST PUSH2 0x2266 DUP2 PUSH2 0x224B JUMP JUMPDEST DUP2 EQ PUSH2 0x2271 JUMPI PUSH1 0x0 DUP1 REVERT JUMPDEST POP JUMP JUMPDEST PUSH1 0x0 DUP2 CALLDATALOAD SWAP1 POP PUSH2 0x2283 DUP2 PUSH2 0x225D JUMP JUMPDEST SWAP3 SWAP2 POP POP JUMP JUMPDEST PUSH1 0x0 PUSH1 0x20 DUP3 DUP5 SUB SLT ISZERO PUSH2 0x229F JUMPI PUSH2 0x229E PUSH2 0x2221 JUMP JUMPDEST JUMPDEST PUSH1 0x0 PUSH2 0x22AD DUP5 DUP3 DUP6 ADD PUSH2 0x2274 JUMP JUMPDEST SWAP2 POP POP SWAP3 SWAP2 POP POP JUMP JUMPDEST PUSH1 0x0 DUP2 SWAP1 POP SWAP2 SWAP1 POP JUMP JUMPDEST PUSH2 0x22C9 DUP2 PUSH2 0x22B6 JUMP JUMPDEST DUP3 MSTORE POP POP JUMP JUMPDEST PUSH1 0x0 PUSH1 0x20 DUP3 ADD SWAP1 POP PUSH2 0x22E4 PUSH1 0x0 DUP4 ADD DUP5 PUSH2 0x22C0 JUMP JUMPDEST SWAP3 SWAP2 POP POP JUMP JUMPDEST PUSH2 0x22F3 DUP2 PUSH2 0x22B6 JUMP JUMPDEST DUP2 EQ PUSH2 0x22FE JUMPI PUSH1 0x0 DUP1 REVERT JUMPDEST POP JUMP JUMPDEST PUSH1 0x0 DUP2 CALLDATALOAD SWAP1 POP PUSH2 0x2310 DUP2 PUSH2 0x22EA JUMP JUMPDEST SWAP3 SWAP2 POP POP JUMP JUMPDEST PUSH1 0x0 DUP1 PUSH1 0x40 DUP4 DUP6 SUB SLT ISZERO PUSH2 0x232D JUMPI PUSH2 0x232C PUSH2 0x2221 JUMP JUMPDEST JUMPDEST PUSH1 0x0 PUSH2 0x233B DUP6 DUP3 DUP7 ADD PUSH2 0x2274 JUMP JUMPDEST SWAP3 POP POP PUSH1 0x20 PUSH2 0x234C DUP6 DUP3 DUP7 ADD PUSH2 0x2301 JUMP JUMPDEST SWAP2 POP POP SWAP3 POP SWAP3 SWAP1 POP JUMP JUMPDEST PUSH1 0x0 DUP1 REVERT JUMPDEST PUSH1 0x0 DUP1 REVERT JUMPDEST PUSH1 0x0 PUSH1 0x1F NOT PUSH1 0x1F DUP4 ADD AND SWAP1 POP SWAP2 SWAP1 POP JUMP JUMPDEST PUSH32 0x4E487B7100000000000000000000000000000000000000000000000000000000 PUSH1 0x0 MSTORE PUSH1 0x41 PUSH1 0x4 MSTORE PUSH1 0x24 PUSH1 0x0 REVERT JUMPDEST PUSH2 0x23A9 DUP3 PUSH2 0x2360 JUMP JUMPDEST DUP2 ADD DUP2 DUP2 LT PUSH8 0xFFFFFFFFFFFFFFFF DUP3 GT OR ISZERO PUSH2 0x23C8 JUMPI PUSH2 0x23C7 PUSH2 0x2371 JUMP JUMPDEST JUMPDEST DUP1 PUSH1 0x40 MSTORE POP POP POP JUMP JUMPDEST PUSH1 0x0 PUSH2 0x23DB PUSH2 0x2217 JUMP JUMPDEST SWAP1 POP PUSH2 0x23E7 DUP3 DUP3 PUSH2 0x23A0 JUMP JUMPDEST SWAP2 SWAP1 POP JUMP JUMPDEST PUSH1 0x0 PUSH8 0xFFFFFFFFFFFFFFFF DUP3 GT ISZERO PUSH2 0x2407 JUMPI PUSH2 0x2406 PUSH2 0x2371 JUMP JUMPDEST JUMPDEST PUSH2 0x2410 DUP3 PUSH2 0x2360 JUMP JUMPDEST SWAP1 POP PUSH1 0x20 DUP2 ADD SWAP1 POP SWAP2 SWAP1 POP JUMP JUMPDEST DUP3 DUP2 DUP4 CALLDATACOPY PUSH1 0x0 DUP4 DUP4 ADD MSTORE POP POP POP JUMP JUMPDEST PUSH1 0x0 PUSH2 0x243F PUSH2 0x243A DUP5 PUSH2 0x23EC JUMP JUMPDEST PUSH2 0x23D1 JUMP JUMPDEST SWAP1 POP DUP3 DUP2 MSTORE PUSH1 0x20 DUP2 ADD DUP5 DUP5 DUP5 ADD GT ISZERO PUSH2 0x245B JUMPI PUSH2 0x245A PUSH2 0x235B JUMP JUMPDEST JUMPDEST PUSH2 0x2466 DUP5 DUP3 DUP6 PUSH2 0x241D JUMP JUMPDEST POP SWAP4 SWAP3 POP POP POP JUMP JUMPDEST PUSH1 0x0 DUP3 PUSH1 0x1F DUP4 ADD SLT PUSH2 0x2483 JUMPI PUSH2 0x2482 PUSH2 0x2356 JUMP JUMPDEST JUMPDEST DUP2 CALLDATALOAD PUSH2 0x2493 DUP5 DUP3 PUSH1 0x20 DUP7 ADD PUSH2 0x242C JUMP JUMPDEST SWAP2 POP POP SWAP3 SWAP2 POP POP JUMP JUMPDEST PUSH1 0x0 DUP1 PUSH1 0x40 DUP4 DUP6 SUB SLT ISZERO PUSH2 0x24B3 JUMPI PUSH2 0x24B2 PUSH2 0x2221 JUMP JUMPDEST JUMPDEST PUSH1 0x0 PUSH2 0x24C1 DUP6 DUP3 DUP7 ADD PUSH2 0x2274 JUMP JUMPDEST SWAP3 POP POP PUSH1 0x20 DUP4 ADD CALLDATALOAD PUSH8 0xFFFFFFFFFFFFFFFF DUP2 GT ISZERO PUSH2 0x24E2 JUMPI PUSH2 0x24E1 PUSH2 0x2226 JUMP JUMPDEST JUMPDEST PUSH2 0x24EE DUP6 DUP3 DUP7 ADD PUSH2 0x246E JUMP JUMPDEST SWAP2 POP POP SWAP3 POP SWAP3 SWAP1 POP JUMP JUMPDEST PUSH1 0x0 DUP2 SWAP1 POP SWAP2 SWAP1 POP JUMP JUMPDEST PUSH2 0x250B DUP2 PUSH2 0x24F8 JUMP JUMPDEST DUP3 MSTORE POP POP JUMP JUMPDEST PUSH1 0x0 PUSH1 0x20 DUP3 ADD SWAP1 POP PUSH2 0x2526 PUSH1 0x0 DUP4 ADD DUP5 PUSH2 0x2502 JUMP JUMPDEST SWAP3 SWAP2 POP POP JUMP JUMPDEST PUSH1 0x0 DUP2 ISZERO ISZERO SWAP1 POP SWAP2 SWAP1 POP JUMP JUMPDEST PUSH2 0x2541 DUP2 PUSH2 0x252C JUMP JUMPDEST DUP3 MSTORE POP POP JUMP JUMPDEST PUSH1 0x0 PUSH1 0x20 DUP3 ADD SWAP1 POP PUSH2 0x255C PUSH1 0x0 DUP4 ADD DUP5 PUSH2 0x2538 JUMP JUMPDEST SWAP3 SWAP2 POP POP JUMP JUMPDEST PUSH2 0x256B DUP2 PUSH2 0x22B6 JUMP JUMPDEST DUP3 MSTORE POP POP JUMP JUMPDEST PUSH1 0x80 DUP3 ADD PUSH1 0x0 DUP3 ADD MLOAD PUSH2 0x2587 PUSH1 0x0 DUP6 ADD DUP3 PUSH2 0x2562 JUMP JUMPDEST POP PUSH1 0x20 DUP3 ADD MLOAD PUSH2 0x259A PUSH1 0x20 DUP6 ADD DUP3 PUSH2 0x2562 JUMP JUMPDEST POP PUSH1 0x40 DUP3 ADD MLOAD PUSH2 0x25AD PUSH1 0x40 DUP6 ADD DUP3 PUSH2 0x2562 JUMP JUMPDEST POP PUSH1 0x60 DUP3 ADD MLOAD PUSH2 0x25C0 PUSH1 0x60 DUP6 ADD DUP3 PUSH2 0x2562 JUMP JUMPDEST POP POP POP POP JUMP JUMPDEST PUSH1 0x0 PUSH1 0x80 DUP3 ADD SWAP1 POP PUSH2 0x25DB PUSH1 0x0 DUP4 ADD DUP5 PUSH2 0x2571 JUMP JUMPDEST SWAP3 SWAP2 POP POP JUMP JUMPDEST PUSH1 0x0 DUP1 PUSH1 0x0 DUP1 PUSH1 0x80 DUP6 DUP8 SUB SLT ISZERO PUSH2 0x25FB JUMPI PUSH2 0x25FA PUSH2 0x2221 JUMP JUMPDEST JUMPDEST PUSH1 0x0 PUSH2 0x2609 DUP8 DUP3 DUP9 ADD PUSH2 0x2274 JUMP JUMPDEST SWAP5 POP POP PUSH1 0x20 PUSH2 0x261A DUP8 DUP3 DUP9 ADD PUSH2 0x2301 JUMP JUMPDEST SWAP4 POP POP PUSH1 0x40 PUSH2 0x262B DUP8 DUP3 DUP9 ADD PUSH2 0x2301 JUMP JUMPDEST SWAP3 POP POP PUSH1 0x60 PUSH2 0x263C DUP8 DUP3 DUP9 ADD PUSH2 0x2301 JUMP JUMPDEST SWAP2 POP POP SWAP3 SWAP6 SWAP2 SWAP5 POP SWAP3 POP JUMP JUMPDEST PUSH2 0x2651 DUP2 PUSH2 0x224B JUMP JUMPDEST DUP3 MSTORE POP POP JUMP JUMPDEST PUSH1 0x0 PUSH1 0x20 DUP3 ADD SWAP1 POP PUSH2 0x266C PUSH1 0x0 DUP4 ADD DUP5 PUSH2 0x2648 JUMP JUMPDEST SWAP3 SWAP2 POP POP JUMP JUMPDEST PUSH1 0x0 DUP2 MLOAD SWAP1 POP SWAP2 SWAP1 POP JUMP JUMPDEST PUSH1 0x0 DUP3 DUP3 MSTORE PUSH1 0x20 DUP3 ADD SWAP1 POP SWAP3 SWAP2 POP POP JUMP JUMPDEST PUSH1 0x0 JUMPDEST DUP4 DUP2 LT ISZERO PUSH2 0x26AC JUMPI DUP1 DUP3 ADD MLOAD DUP2 DUP5 ADD MSTORE PUSH1 0x20 DUP2 ADD SWAP1 POP PUSH2 0x2691 JUMP JUMPDEST PUSH1 0x0 DUP5 DUP5 ADD MSTORE POP POP POP POP JUMP JUMPDEST PUSH1 0x0 PUSH2 0x26C3 DUP3 PUSH2 0x2672 JUMP JUMPDEST PUSH2 0x26CD DUP2 DUP6 PUSH2 0x267D JUMP JUMPDEST SWAP4 POP PUSH2 0x26DD DUP2 DUP6 PUSH1 0x20 DUP7 ADD PUSH2 0x268E JUMP JUMPDEST PUSH2 0x26E6 DUP2 PUSH2 0x2360 JUMP JUMPDEST DUP5 ADD SWAP2 POP POP SWAP3 SWAP2 POP POP JUMP JUMPDEST PUSH1 0x0 PUSH1 0x20 DUP3 ADD SWAP1 POP DUP2 DUP2 SUB PUSH1 0x0 DUP4 ADD MSTORE PUSH2 0x270B DUP2 DUP5 PUSH2 0x26B8 JUMP JUMPDEST SWAP1 POP SWAP3 SWAP2 POP POP JUMP JUMPDEST PUSH2 0x271C DUP2 PUSH2 0x252C JUMP JUMPDEST DUP2 EQ PUSH2 0x2727 JUMPI PUSH1 0x0 DUP1 REVERT JUMPDEST POP JUMP JUMPDEST PUSH1 0x0 DUP2 CALLDATALOAD SWAP1 POP PUSH2 0x2739 DUP2 PUSH2 0x2713 JUMP JUMPDEST SWAP3 SWAP2 POP POP JUMP JUMPDEST PUSH1 0x0 DUP1 PUSH1 0x40 DUP4 DUP6 SUB SLT ISZERO PUSH2 0x2756 JUMPI PUSH2 0x2755 PUSH2 0x2221 JUMP JUMPDEST JUMPDEST PUSH1 0x0 PUSH2 0x2764 DUP6 DUP3 DUP7 ADD PUSH2 0x2274 JUMP JUMPDEST SWAP3 POP POP PUSH1 0x20 PUSH2 0x2775 DUP6 DUP3 DUP7 ADD PUSH2 0x272A JUMP JUMPDEST SWAP2 POP POP SWAP3 POP SWAP3 SWAP1 POP JUMP JUMPDEST PUSH1 0x0 PUSH1 0xA0 DUP3 ADD SWAP1 POP PUSH2 0x2794 PUSH1 0x0 DUP4 ADD DUP9 PUSH2 0x2648 JUMP JUMPDEST PUSH2 0x27A1 PUSH1 0x20 DUP4 ADD DUP8 PUSH2 0x2648 JUMP JUMPDEST PUSH2 0x27AE PUSH1 0x40 DUP4 ADD DUP7 PUSH2 0x22C0 JUMP JUMPDEST PUSH2 0x27BB PUSH1 0x60 DUP4 ADD DUP6 PUSH2 0x22C0 JUMP JUMPDEST PUSH2 0x27C8 PUSH1 0x80 DUP4 ADD DUP5 PUSH2 0x22C0 JUMP JUMPDEST SWAP7 SWAP6 POP POP POP POP POP POP JUMP JUMPDEST PUSH32 0x4E487B7100000000000000000000000000000000000000000000000000000000 PUSH1 0x0 MSTORE PUSH1 0x11 PUSH1 0x4 MSTORE PUSH1 0x24 PUSH1 0x0 REVERT JUMPDEST PUSH1 0x0 PUSH2 0x280C DUP3 PUSH2 0x22B6 JUMP JUMPDEST SWAP2 POP PUSH2 0x2817 DUP4 PUSH2 0x22B6 JUMP JUMPDEST SWAP3 POP DUP3 DUP3 ADD SWAP1 POP DUP1 DUP3 GT ISZERO PUSH2 0x282F JUMPI PUSH2 0x282E PUSH2 0x27D2 JUMP JUMPDEST JUMPDEST SWAP3 SWAP2 POP POP JUMP JUMPDEST PUSH1 0x0 PUSH2 0x2840 DUP3 PUSH2 0x22B6 JUMP JUMPDEST SWAP2 POP PUSH2 0x284B DUP4 PUSH2 0x22B6 JUMP JUMPDEST SWAP3 POP DUP3 DUP3 SUB SWAP1 POP DUP2 DUP2 GT ISZERO PUSH2 0x2863 JUMPI PUSH2 0x2862 PUSH2 0x27D2 JUMP JUMPDEST JUMPDEST SWAP3 SWAP2 POP POP JUMP JUMPDEST PUSH1 0x0 PUSH2 0x2874 DUP3 PUSH2 0x22B6 JUMP JUMPDEST SWAP2 POP PUSH2 0x287F DUP4 PUSH2 0x22B6 JUMP JUMPDEST SWAP3 POP DUP3 DUP3 MUL PUSH2 0x288D DUP2 PUSH2 0x22B6 JUMP JUMPDEST SWAP2 POP DUP3 DUP3 DIV DUP5 EQ DUP4 ISZERO OR PUSH2 0x28A4 JUMPI PUSH2 0x28A3 PUSH2 0x27D2 JUMP JUMPDEST JUMPDEST POP SWAP3 SWAP2 POP POP JUMP JUMPDEST PUSH32 0x4E487B7100000000000000000000000000000000000000000000000000000000 PUSH1 0x0 MSTORE PUSH1 0x12 PUSH1 0x4 MSTORE PUSH1 0x24 PUSH1 0x0 REVERT JUMPDEST PUSH1 0x0 PUSH2 0x28E5 DUP3 PUSH2 0x22B6 JUMP JUMPDEST SWAP2 POP PUSH2 0x28F0 DUP4 PUSH2 0x22B6 JUMP JUMPDEST SWAP3 POP DUP3 PUSH2 0x2900 JUMPI PUSH2 0x28FF PUSH2 0x28AB JUMP JUMPDEST JUMPDEST DUP3 DUP3 DIV SWAP1 POP SWAP3 SWAP2 POP POP JUMP JUMPDEST PUSH1 0x0 DUP2 SWAP1 POP SWAP2 SWAP1 POP JUMP JUMPDEST PUSH1 0x0 PUSH8 0xFFFFFFFFFFFFFFFF DUP3 AND SWAP1 POP SWAP2 SWAP1 POP JUMP JUMPDEST PUSH1 0x0 DUP2 SWAP1 POP SWAP2 SWAP1 POP JUMP JUMPDEST PUSH1 0x0 PUSH2 0x294E PUSH2 0x2949 PUSH2 0x2944 DUP5 PUSH2 0x290B JUMP JUMPDEST PUSH2 0x2929 JUMP JUMPDEST PUSH2 0x2915 JUMP JUMPDEST SWAP1 POP SWAP2 SWAP1 POP JUMP JUMPDEST PUSH2 0x295E DUP2 PUSH2 0x2933 JUMP JUMPDEST DUP3 MSTORE POP POP JUMP JUMPDEST PUSH1 0x0 PUSH1 0x20 DUP3 ADD SWAP1 POP PUSH2 0x2979 PUSH1 0x0 DUP4 ADD DUP5 PUSH2 0x2955 JUMP JUMPDEST SWAP3 SWAP2 POP POP JUMP JUMPDEST PUSH2 0x2988 DUP2 PUSH2 0x24F8 JUMP JUMPDEST DUP2 EQ PUSH2 0x2993 JUMPI PUSH1 0x0 DUP1 REVERT JUMPDEST POP JUMP JUMPDEST PUSH1 0x0 DUP2 MLOAD SWAP1 POP PUSH2 0x29A5 DUP2 PUSH2 0x297F JUMP JUMPDEST SWAP3 SWAP2 POP POP JUMP JUMPDEST PUSH1 0x0 PUSH1 0x20 DUP3 DUP5 SUB SLT ISZERO PUSH2 0x29C1 JUMPI PUSH2 0x29C0 PUSH2 0x2221 JUMP JUMPDEST JUMPDEST PUSH1 0x0 PUSH2 0x29CF DUP5 DUP3 DUP6 ADD PUSH2 0x2996 JUMP JUMPDEST SWAP2 POP POP SWAP3 SWAP2 POP POP JUMP JUMPDEST PUSH1 0x0 PUSH1 0x60 DUP3 ADD SWAP1 POP PUSH2 0x29ED PUSH1 0x0 DUP4 ADD DUP7 PUSH2 0x2648 JUMP JUMPDEST PUSH2 0x29FA PUSH1 0x20 DUP4 ADD DUP6 PUSH2 0x2648 JUMP JUMPDEST PUSH2 0x2A07 PUSH1 0x40 DUP4 ADD DUP5 PUSH2 0x22C0 JUMP JUMPDEST SWAP5 SWAP4 POP POP POP POP JUMP JUMPDEST PUSH1 0x0 DUP2 MLOAD SWAP1 POP SWAP2 SWAP1 POP JUMP JUMPDEST PUSH1 0x0 DUP2 SWAP1 POP SWAP3 SWAP2 POP POP JUMP JUMPDEST PUSH1 0x0 PUSH2 0x2A30 DUP3 PUSH2 0x2A0F JUMP JUMPDEST PUSH2 0x2A3A DUP2 DUP6 PUSH2 0x2A1A JUMP JUMPDEST SWAP4 POP PUSH2 0x2A4A DUP2 DUP6 PUSH1 0x20 DUP7 ADD PUSH2 0x268E JUMP JUMPDEST DUP1 DUP5 ADD SWAP2 POP POP SWAP3 SWAP2 POP POP JUMP JUMPDEST PUSH1 0x0 PUSH2 0x2A62 DUP3 DUP5 PUSH2 0x2A25 JUMP JUMPDEST SWAP2 POP DUP2 SWAP1 POP SWAP3 SWAP2 POP POP JUMP INVALID LOG2 PUSH5 0x6970667358 0x22 SLT KECCAK256 0xBB 0xD8 PUSH16 0x11BB644B8F416FB5EA1980F9BBCE4868 PUSH26 0x4FA534F78FB4E13DF1FD7E1C64736F6C634300081C0033000000 "
        },
        "methodIdentifiers": {
          "ACC_REWARD_PRECISION()": "d1c6a231",
          "UPGRADE_INTERFACE_VERSION()": "ad3cb1cc",
          "_claimReward(address,bool)": "ba2311d7",
          "addReward(address,uint256,uint256,uint256)": "70dc5ca5",
          "claimReward(address,bool)": "aeb51b37",
          "deposit(address,uint256)": "47e7ef24",
          "getClaimedReward(address)": "1359e6f7",
          "getConfig()": "c3f909d4",
          "getCurrentCondition()": "650d6425",
          "getLastRewardTime()": "3e340dae",
          "getPendingReward(address)": "4df9d6ba",
          "getRewardPool()": "1b8b13a7",
          "initialize(address)": "c4d66de8",
          "owner()": "8da5cb5b",
          "pause()": "8456cb59",
          "paused()": "5c975abb",
          "proxiableUUID()": "52d1902d",
          "renounceOwnership()": "715018a6",
          "setLikecoin(address)": "72a3ae9d",
          "setVault(address)": "6817031b",
          "transferOwnership(address)": "f2fde38b",
          "unpause()": "3f4ba83a",
          "upgradeToAndCall(address,bytes)": "4f1ef286",
          "withdraw(address)": "51cff8d9"
        }
      },
      "storageLayout": {
        "storage": [],
        "types": null
      }
    }
  }
}