{
  "_format": "hh-sol-artifact-1",
  "contractName": "BookNFT",
  "sourceName": "contracts/BookNFT.sol",
  "abi": [
    {
      "inputs": [],
      "stateMutability": "nonpayable",
      "type": "constructor"
    },
    {
      "inputs": [],
      "name": "AccessControlBadConfirmation",
      "type": "error"
    },
    {
      "inputs": [
        {
          "internalType": "address",
          "name": "account",
          "type": "address"
        },
        {
          "internalType": "bytes32",
          "name": "neededRole",
          "type": "bytes32"
        }
      ],
      "name": "AccessControlUnauthorizedAccount",
      "type": "error"
    },
    {
      "inputs": [],
      "name": "ERC721EnumerableForbiddenBatchMint",
      "type": "error"
    },
    {
      "inputs": [
        {
          "internalType": "address",
          "name": "sender",
          "type": "address"
        },
        {
          "internalType": "uint256",
          "name": "tokenId",
          "type": "uint256"
        },
        {
          "internalType": "address",
          "name": "owner",
          "type": "address"
        }
      ],
      "name": "ERC721IncorrectOwner",
      "type": "error"
    },
    {
      "inputs": [
        {
          "internalType": "address",
          "name": "operator",
          "type": "address"
        },
        {
          "internalType": "uint256",
          "name": "tokenId",
          "type": "uint256"
        }
      ],
      "name": "ERC721InsufficientApproval",
      "type": "error"
    },
    {
      "inputs": [
        {
          "internalType": "address",
          "name": "approver",
          "type": "address"
        }
      ],
      "name": "ERC721InvalidApprover",
      "type": "error"
    },
    {
      "inputs": [
        {
          "internalType": "address",
          "name": "operator",
          "type": "address"
        }
      ],
      "name": "ERC721InvalidOperator",
      "type": "error"
    },
    {
      "inputs": [
        {
          "internalType": "address",
          "name": "owner",
          "type": "address"
        }
      ],
      "name": "ERC721InvalidOwner",
      "type": "error"
    },
    {
      "inputs": [
        {
          "internalType": "address",
          "name": "receiver",
          "type": "address"
        }
      ],
      "name": "ERC721InvalidReceiver",
      "type": "error"
    },
    {
      "inputs": [
        {
          "internalType": "address",
          "name": "sender",
          "type": "address"
        }
      ],
      "name": "ERC721InvalidSender",
      "type": "error"
    },
    {
      "inputs": [
        {
          "internalType": "uint256",
          "name": "tokenId",
          "type": "uint256"
        }
      ],
      "name": "ERC721NonexistentToken",
      "type": "error"
    },
    {
      "inputs": [
        {
          "internalType": "address",
          "name": "owner",
          "type": "address"
        },
        {
          "internalType": "uint256",
          "name": "index",
          "type": "uint256"
        }
      ],
      "name": "ERC721OutOfBoundsIndex",
      "type": "error"
    },
    {
      "inputs": [],
      "name": "ErrEmptyName",
      "type": "error"
    },
    {
      "inputs": [],
      "name": "ErrInvalidSymbol",
      "type": "error"
    },
    {
      "inputs": [],
      "name": "ErrMaxSupplyZero",
      "type": "error"
    },
    {
      "inputs": [],
      "name": "ErrMemoMetadataLengthMismatch",
      "type": "error"
    },
    {
      "inputs": [],
      "name": "ErrNftNoSupply",
      "type": "error"
    },
    {
      "inputs": [],
      "name": "ErrSupplyDecrease",
      "type": "error"
    },
    {
      "inputs": [
        {
          "internalType": "uint256",
          "name": "nextTokenId",
          "type": "uint256"
        }
      ],
      "name": "ErrTokenIdMintFails",
      "type": "error"
    },
    {
      "inputs": [],
      "name": "ErrUnauthorized",
      "type": "error"
    },
    {
      "inputs": [],
      "name": "InvalidInitialization",
      "type": "error"
    },
    {
      "inputs": [],
      "name": "NotInitializing",
      "type": "error"
    },
    {
      "inputs": [
        {
          "internalType": "address",
          "name": "owner",
          "type": "address"
        }
      ],
      "name": "OwnableInvalidOwner",
      "type": "error"
    },
    {
      "inputs": [
        {
          "internalType": "address",
          "name": "account",
          "type": "address"
        }
      ],
      "name": "OwnableUnauthorizedAccount",
      "type": "error"
    },
    {
      "anonymous": false,
      "inputs": [
        {
          "indexed": false,
          "internalType": "address",
          "name": "previousAdmin",
          "type": "address"
        },
        {
          "indexed": false,
          "internalType": "address",
          "name": "newAdmin",
          "type": "address"
        }
      ],
      "name": "AdminChanged",
      "type": "event"
    },
    {
      "anonymous": false,
      "inputs": [
        {
          "indexed": true,
          "internalType": "address",
          "name": "owner",
          "type": "address"
        },
        {
          "indexed": true,
          "internalType": "address",
          "name": "approved",
          "type": "address"
        },
        {
          "indexed": true,
          "internalType": "uint256",
          "name": "tokenId",
          "type": "uint256"
        }
      ],
      "name": "Approval",
      "type": "event"
    },
    {
      "anonymous": false,
      "inputs": [
        {
          "indexed": true,
          "internalType": "address",
          "name": "owner",
          "type": "address"
        },
        {
          "indexed": true,
          "internalType": "address",
          "name": "operator",
          "type": "address"
        },
        {
          "indexed": false,
          "internalType": "bool",
          "name": "approved",
          "type": "bool"
        }
      ],
      "name": "ApprovalForAll",
      "type": "event"
    },
    {
      "anonymous": false,
      "inputs": [
        {
          "indexed": false,
          "internalType": "uint256",
          "name": "_fromTokenId",
          "type": "uint256"
        },
        {
          "indexed": false,
          "internalType": "uint256",
          "name": "_toTokenId",
          "type": "uint256"
        }
      ],
      "name": "BatchMetadataUpdate",
      "type": "event"
    },
    {
      "anonymous": false,
      "inputs": [
        {
          "indexed": true,
          "internalType": "address",
          "name": "beacon",
          "type": "address"
        }
      ],
      "name": "BeaconUpgraded",
      "type": "event"
    },
    {
      "anonymous": false,
      "inputs": [],
      "name": "ContractURIUpdated",
      "type": "event"
    },
    {
      "anonymous": false,
      "inputs": [
        {
          "indexed": false,
          "internalType": "uint64",
          "name": "version",
          "type": "uint64"
        }
      ],
      "name": "Initialized",
      "type": "event"
    },
    {
      "anonymous": false,
      "inputs": [
        {
          "indexed": false,
          "internalType": "uint256",
          "name": "_tokenId",
          "type": "uint256"
        }
      ],
      "name": "MetadataUpdate",
      "type": "event"
    },
    {
      "anonymous": false,
      "inputs": [
        {
          "indexed": true,
          "internalType": "address",
          "name": "previousOwner",
          "type": "address"
        },
        {
          "indexed": true,
          "internalType": "address",
          "name": "newOwner",
          "type": "address"
        }
      ],
      "name": "OwnershipTransferred",
      "type": "event"
    },
    {
      "anonymous": false,
      "inputs": [
        {
          "indexed": true,
          "internalType": "bytes32",
          "name": "role",
          "type": "bytes32"
        },
        {
          "indexed": true,
          "internalType": "bytes32",
          "name": "previousAdminRole",
          "type": "bytes32"
        },
        {
          "indexed": true,
          "internalType": "bytes32",
          "name": "newAdminRole",
          "type": "bytes32"
        }
      ],
      "name": "RoleAdminChanged",
      "type": "event"
    },
    {
      "anonymous": false,
      "inputs": [
        {
          "indexed": true,
          "internalType": "bytes32",
          "name": "role",
          "type": "bytes32"
        },
        {
          "indexed": true,
          "internalType": "address",
          "name": "account",
          "type": "address"
        },
        {
          "indexed": true,
          "internalType": "address",
          "name": "sender",
          "type": "address"
        }
      ],
      "name": "RoleGranted",
      "type": "event"
    },
    {
      "anonymous": false,
      "inputs": [
        {
          "indexed": true,
          "internalType": "bytes32",
          "name": "role",
          "type": "bytes32"
        },
        {
          "indexed": true,
          "internalType": "address",
          "name": "account",
          "type": "address"
        },
        {
          "indexed": true,
          "internalType": "address",
          "name": "sender",
          "type": "address"
        }
      ],
      "name": "RoleRevoked",
      "type": "event"
    },
    {
      "anonymous": false,
      "inputs": [
        {
          "indexed": true,
          "internalType": "address",
          "name": "from",
          "type": "address"
        },
        {
          "indexed": true,
          "internalType": "address",
          "name": "to",
          "type": "address"
        },
        {
          "indexed": true,
          "internalType": "uint256",
          "name": "tokenId",
          "type": "uint256"
        }
      ],
      "name": "Transfer",
      "type": "event"
    },
    {
      "anonymous": false,
      "inputs": [
        {
          "indexed": true,
          "internalType": "address",
          "name": "from",
          "type": "address"
        },
        {
          "indexed": true,
          "internalType": "address",
          "name": "to",
          "type": "address"
        },
        {
          "indexed": true,
          "internalType": "uint256",
          "name": "tokenId",
          "type": "uint256"
        },
        {
          "indexed": false,
          "internalType": "string",
          "name": "memo",
          "type": "string"
        }
      ],
      "name": "TransferWithMemo",
      "type": "event"
    },
    {
      "anonymous": false,
      "inputs": [
        {
          "indexed": true,
          "internalType": "address",
          "name": "implementation",
          "type": "address"
        }
      ],
      "name": "Upgraded",
      "type": "event"
    },
    {
      "inputs": [],
      "name": "DEFAULT_ADMIN_ROLE",
      "outputs": [
        {
          "internalType": "bytes32",
          "name": "",
          "type": "bytes32"
        }
      ],
      "stateMutability": "view",
      "type": "function"
    },
    {
      "inputs": [],
      "name": "MINTER_ROLE",
      "outputs": [
        {
          "internalType": "bytes32",
          "name": "",
          "type": "bytes32"
        }
      ],
      "stateMutability": "view",
      "type": "function"
    },
    {
      "inputs": [],
      "name": "UPDATER_ROLE",
      "outputs": [
        {
          "internalType": "bytes32",
          "name": "",
          "type": "bytes32"
        }
      ],
      "stateMutability": "view",
      "type": "function"
    },
    {
      "inputs": [
        {
          "internalType": "address",
          "name": "to",
          "type": "address"
        },
        {
          "internalType": "uint256",
          "name": "tokenId",
          "type": "uint256"
        }
      ],
      "name": "approve",
      "outputs": [],
      "stateMutability": "nonpayable",
      "type": "function"
    },
    {
      "inputs": [
        {
          "internalType": "address",
          "name": "owner",
          "type": "address"
        }
      ],
      "name": "balanceOf",
      "outputs": [
        {
          "internalType": "uint256",
          "name": "",
          "type": "uint256"
        }
      ],
      "stateMutability": "view",
      "type": "function"
    },
    {
      "inputs": [
        {
          "internalType": "address[]",
          "name": "tos",
          "type": "address[]"
        },
        {
          "internalType": "string[]",
          "name": "memos",
          "type": "string[]"
        },
        {
          "internalType": "string[]",
          "name": "metadataList",
          "type": "string[]"
        }
      ],
      "name": "batchMint",
      "outputs": [],
      "stateMutability": "nonpayable",
      "type": "function"
    },
    {
      "inputs": [
        {
          "internalType": "address",
          "name": "from",
          "type": "address"
        },
        {
          "internalType": "address[]",
          "name": "tos",
          "type": "address[]"
        },
        {
          "internalType": "uint256[]",
          "name": "tokenIds",
          "type": "uint256[]"
        },
        {
          "internalType": "string[]",
          "name": "memos",
          "type": "string[]"
        }
      ],
      "name": "batchTransferWithMemo",
      "outputs": [],
      "stateMutability": "nonpayable",
      "type": "function"
    },
    {
      "inputs": [
        {
          "internalType": "uint256",
          "name": "tokenId",
          "type": "uint256"
        }
      ],
      "name": "burn",
      "outputs": [],
      "stateMutability": "nonpayable",
      "type": "function"
    },
    {
      "inputs": [],
      "name": "contractURI",
      "outputs": [
        {
          "internalType": "string",
          "name": "",
          "type": "string"
        }
      ],
      "stateMutability": "view",
      "type": "function"
    },
    {
      "inputs": [
        {
          "internalType": "uint256",
          "name": "tokenId",
          "type": "uint256"
        }
      ],
      "name": "getApproved",
      "outputs": [
        {
          "internalType": "address",
          "name": "",
          "type": "address"
        }
      ],
      "stateMutability": "view",
      "type": "function"
    },
    {
      "inputs": [],
      "name": "getBookConfig",
      "outputs": [
        {
          "components": [
            {
              "internalType": "string",
              "name": "name",
              "type": "string"
            },
            {
              "internalType": "string",
              "name": "symbol",
              "type": "string"
            },
            {
              "internalType": "string",
              "name": "metadata",
              "type": "string"
            },
            {
              "internalType": "uint64",
              "name": "max_supply",
              "type": "uint64"
            }
          ],
          "internalType": "struct BookConfig",
          "name": "",
          "type": "tuple"
        }
      ],
      "stateMutability": "view",
      "type": "function"
    },
    {
      "inputs": [],
      "name": "getCurrentIndex",
      "outputs": [
        {
          "internalType": "uint256",
          "name": "",
          "type": "uint256"
        }
      ],
      "stateMutability": "view",
      "type": "function"
    },
    {
      "inputs": [],
      "name": "getProtocolBeacon",
      "outputs": [
        {
          "internalType": "address",
          "name": "",
          "type": "address"
        }
      ],
      "stateMutability": "view",
      "type": "function"
    },
    {
      "inputs": [
        {
          "internalType": "bytes32",
          "name": "role",
          "type": "bytes32"
        }
      ],
      "name": "getRoleAdmin",
      "outputs": [
        {
          "internalType": "bytes32",
          "name": "",
          "type": "bytes32"
        }
      ],
      "stateMutability": "view",
      "type": "function"
    },
    {
      "inputs": [
        {
          "internalType": "bytes32",
          "name": "role",
          "type": "bytes32"
        },
        {
          "internalType": "address",
          "name": "account",
          "type": "address"
        }
      ],
      "name": "grantRole",
      "outputs": [],
      "stateMutability": "nonpayable",
      "type": "function"
    },
    {
      "inputs": [
        {
          "internalType": "bytes32",
          "name": "role",
          "type": "bytes32"
        },
        {
          "internalType": "address",
          "name": "account",
          "type": "address"
        }
      ],
      "name": "hasRole",
      "outputs": [
        {
          "internalType": "bool",
          "name": "",
          "type": "bool"
        }
      ],
      "stateMutability": "view",
      "type": "function"
    },
    {
      "inputs": [
        {
          "internalType": "address",
          "name": "creator",
          "type": "address"
        },
        {
          "internalType": "address[]",
          "name": "minters",
          "type": "address[]"
        },
        {
          "internalType": "address[]",
          "name": "updaters",
          "type": "address[]"
        },
        {
          "components": [
            {
              "internalType": "string",
              "name": "name",
              "type": "string"
            },
            {
              "internalType": "string",
              "name": "symbol",
              "type": "string"
            },
            {
              "internalType": "string",
              "name": "metadata",
              "type": "string"
            },
            {
              "internalType": "uint64",
              "name": "max_supply",
              "type": "uint64"
            }
          ],
          "internalType": "struct BookConfig",
          "name": "config",
          "type": "tuple"
        }
      ],
      "name": "initConfig",
      "outputs": [],
      "stateMutability": "nonpayable",
      "type": "function"
    },
    {
      "inputs": [
        {
          "internalType": "string",
          "name": "name_",
          "type": "string"
        },
        {
          "internalType": "string",
          "name": "symbol_",
          "type": "string"
        }
      ],
      "name": "initialize",
      "outputs": [],
      "stateMutability": "nonpayable",
      "type": "function"
    },
    {
      "inputs": [
        {
          "internalType": "address",
          "name": "owner",
          "type": "address"
        },
        {
          "internalType": "address",
          "name": "operator",
          "type": "address"
        }
      ],
      "name": "isApprovedForAll",
      "outputs": [
        {
          "internalType": "bool",
          "name": "",
          "type": "bool"
        }
      ],
      "stateMutability": "view",
      "type": "function"
    },
    {
      "inputs": [],
      "name": "maxSupply",
      "outputs": [
        {
          "internalType": "uint64",
          "name": "",
          "type": "uint64"
        }
      ],
      "stateMutability": "view",
      "type": "function"
    },
    {
      "inputs": [
        {
          "internalType": "address",
          "name": "to",
          "type": "address"
        },
        {
          "internalType": "string[]",
          "name": "memos",
          "type": "string[]"
        },
        {
          "internalType": "string[]",
          "name": "metadataList",
          "type": "string[]"
        }
      ],
      "name": "mint",
      "outputs": [],
      "stateMutability": "nonpayable",
      "type": "function"
    },
    {
      "inputs": [],
      "name": "name",
      "outputs": [
        {
          "internalType": "string",
          "name": "",
          "type": "string"
        }
      ],
      "stateMutability": "view",
      "type": "function"
    },
    {
      "inputs": [],
      "name": "owner",
      "outputs": [
        {
          "internalType": "address",
          "name": "",
          "type": "address"
        }
      ],
      "stateMutability": "view",
      "type": "function"
    },
    {
      "inputs": [
        {
          "internalType": "bytes32",
          "name": "role",
          "type": "bytes32"
        },
        {
          "internalType": "address",
          "name": "account",
          "type": "address"
        }
      ],
      "name": "ownerGrantRole",
      "outputs": [],
      "stateMutability": "nonpayable",
      "type": "function"
    },
    {
      "inputs": [
        {
          "internalType": "uint256",
          "name": "tokenId",
          "type": "uint256"
        }
      ],
      "name": "ownerOf",
      "outputs": [
        {
          "internalType": "address",
          "name": "",
          "type": "address"
        }
      ],
      "stateMutability": "view",
      "type": "function"
    },
    {
      "inputs": [
        {
          "internalType": "bytes32",
          "name": "role",
          "type": "bytes32"
        },
        {
          "internalType": "address",
          "name": "account",
          "type": "address"
        }
      ],
      "name": "ownerRevokeRole",
      "outputs": [],
      "stateMutability": "nonpayable",
      "type": "function"
    },
    {
      "inputs": [],
      "name": "renounceOwnership",
      "outputs": [],
      "stateMutability": "nonpayable",
      "type": "function"
    },
    {
      "inputs": [
        {
          "internalType": "bytes32",
          "name": "role",
          "type": "bytes32"
        },
        {
          "internalType": "address",
          "name": "callerConfirmation",
          "type": "address"
        }
      ],
      "name": "renounceRole",
      "outputs": [],
      "stateMutability": "nonpayable",
      "type": "function"
    },
    {
      "inputs": [
        {
          "internalType": "bytes32",
          "name": "role",
          "type": "bytes32"
        },
        {
          "internalType": "address",
          "name": "account",
          "type": "address"
        }
      ],
      "name": "revokeRole",
      "outputs": [],
      "stateMutability": "nonpayable",
      "type": "function"
    },
    {
      "inputs": [
        {
          "internalType": "uint256",
          "name": "",
          "type": "uint256"
        },
        {
          "internalType": "uint256",
          "name": "salePrice",
          "type": "uint256"
        }
      ],
      "name": "royaltyInfo",
      "outputs": [
        {
          "internalType": "address",
          "name": "receiver",
          "type": "address"
        },
        {
          "internalType": "uint256",
          "name": "royaltyAmount",
          "type": "uint256"
        }
      ],
      "stateMutability": "view",
      "type": "function"
    },
    {
      "inputs": [
        {
          "internalType": "uint256",
          "name": "fromTokenId",
          "type": "uint256"
        },
        {
          "internalType": "address[]",
          "name": "tos",
          "type": "address[]"
        },
        {
          "internalType": "string[]",
          "name": "memos",
          "type": "string[]"
        },
        {
          "internalType": "string[]",
          "name": "metadataList",
          "type": "string[]"
        }
      ],
      "name": "safeMintWithTokenId",
      "outputs": [],
      "stateMutability": "nonpayable",
      "type": "function"
    },
    {
      "inputs": [
        {
          "internalType": "address",
          "name": "from",
          "type": "address"
        },
        {
          "internalType": "address",
          "name": "to",
          "type": "address"
        },
        {
          "internalType": "uint256",
          "name": "tokenId",
          "type": "uint256"
        }
      ],
      "name": "safeTransferFrom",
      "outputs": [],
      "stateMutability": "nonpayable",
      "type": "function"
    },
    {
      "inputs": [
        {
          "internalType": "address",
          "name": "from",
          "type": "address"
        },
        {
          "internalType": "address",
          "name": "to",
          "type": "address"
        },
        {
          "internalType": "uint256",
          "name": "tokenId",
          "type": "uint256"
        },
        {
          "internalType": "bytes",
          "name": "data",
          "type": "bytes"
        }
      ],
      "name": "safeTransferFrom",
      "outputs": [],
      "stateMutability": "nonpayable",
      "type": "function"
    },
    {
      "inputs": [
        {
          "internalType": "address",
          "name": "operator",
          "type": "address"
        },
        {
          "internalType": "bool",
          "name": "approved",
          "type": "bool"
        }
      ],
      "name": "setApprovalForAll",
      "outputs": [],
      "stateMutability": "nonpayable",
      "type": "function"
    },
    {
      "inputs": [
        {
          "internalType": "uint96",
          "name": "royaltyFraction",
          "type": "uint96"
        }
      ],
      "name": "setRoyaltyFraction",
      "outputs": [],
      "stateMutability": "nonpayable",
      "type": "function"
    },
    {
      "inputs": [
        {
          "internalType": "bytes4",
          "name": "interfaceId",
          "type": "bytes4"
        }
      ],
      "name": "supportsInterface",
      "outputs": [
        {
          "internalType": "bool",
          "name": "",
          "type": "bool"
        }
      ],
      "stateMutability": "view",
      "type": "function"
    },
    {
      "inputs": [],
      "name": "symbol",
      "outputs": [
        {
          "internalType": "string",
          "name": "",
          "type": "string"
        }
      ],
      "stateMutability": "view",
      "type": "function"
    },
    {
      "inputs": [
        {
          "internalType": "uint256",
          "name": "index",
          "type": "uint256"
        }
      ],
      "name": "tokenByIndex",
      "outputs": [
        {
          "internalType": "uint256",
          "name": "",
          "type": "uint256"
        }
      ],
      "stateMutability": "view",
      "type": "function"
    },
    {
      "inputs": [
        {
          "internalType": "address",
          "name": "owner",
          "type": "address"
        },
        {
          "internalType": "uint256",
          "name": "index",
          "type": "uint256"
        }
      ],
      "name": "tokenOfOwnerByIndex",
      "outputs": [
        {
          "internalType": "uint256",
          "name": "",
          "type": "uint256"
        }
      ],
      "stateMutability": "view",
      "type": "function"
    },
    {
      "inputs": [
        {
          "internalType": "uint256",
          "name": "_tokenId",
          "type": "uint256"
        }
      ],
      "name": "tokenURI",
      "outputs": [
        {
          "internalType": "string",
          "name": "",
          "type": "string"
        }
      ],
      "stateMutability": "view",
      "type": "function"
    },
    {
      "inputs": [],
      "name": "totalSupply",
      "outputs": [
        {
          "internalType": "uint256",
          "name": "",
          "type": "uint256"
        }
      ],
      "stateMutability": "view",
      "type": "function"
    },
    {
      "inputs": [
        {
          "internalType": "address",
          "name": "from",
          "type": "address"
        },
        {
          "internalType": "address",
          "name": "to",
          "type": "address"
        },
        {
          "internalType": "uint256",
          "name": "tokenId",
          "type": "uint256"
        }
      ],
      "name": "transferFrom",
      "outputs": [],
      "stateMutability": "nonpayable",
      "type": "function"
    },
    {
      "inputs": [
        {
          "internalType": "address",
          "name": "newOwner",
          "type": "address"
        }
      ],
      "name": "transferOwnership",
      "outputs": [],
      "stateMutability": "nonpayable",
      "type": "function"
    },
    {
      "inputs": [
        {
          "internalType": "address",
          "name": "from",
          "type": "address"
        },
        {
          "internalType": "address",
          "name": "to",
          "type": "address"
        },
        {
          "internalType": "uint256",
          "name": "_tokenId",
          "type": "uint256"
        },
        {
          "internalType": "string",
          "name": "memo",
          "type": "string"
        }
      ],
      "name": "transferWithMemo",
      "outputs": [],
      "stateMutability": "nonpayable",
      "type": "function"
    },
    {
      "inputs": [
        {
          "components": [
            {
              "internalType": "string",
              "name": "name",
              "type": "string"
            },
            {
              "internalType": "string",
              "name": "symbol",
              "type": "string"
            },
            {
              "internalType": "string",
              "name": "metadata",
              "type": "string"
            },
            {
              "internalType": "uint64",
              "name": "max_supply",
              "type": "uint64"
            }
          ],
          "internalType": "struct BookConfig",
          "name": "config",
          "type": "tuple"
        }
      ],
      "name": "update",
      "outputs": [],
      "stateMutability": "nonpayable",
      "type": "function"
    },
    {
      "inputs": [
        {
          "internalType": "uint256",
          "name": "tokenId",
          "type": "uint256"
        },
        {
          "internalType": "string",
          "name": "metadata",
          "type": "string"
        }
      ],
      "name": "updateTokenMetadata",
      "outputs": [],
      "stateMutability": "nonpayable",
      "type": "function"
    }
  ],
  "bytecode": "0x608060405234801561001057600080fd5b5061001f61002460201b60201c565b6101ab565b600061003461012860201b60201c565b90508060000160089054906101000a900460ff161561007f576040517ff92ee8a900000000000000000000000000000000000000000000000000000000815260040160405180910390fd5b67ffffffffffffffff80168160000160009054906101000a900467ffffffffffffffff1667ffffffffffffffff16146101255767ffffffffffffffff8160000160006101000a81548167ffffffffffffffff021916908367ffffffffffffffff1602179055507fc7f505b2f371ae2175ee4913f4499e1f2633a7b5936321eed1cdaeb6115181d267ffffffffffffffff60405161011c9190610190565b60405180910390a15b50565b60008061013961014260201b60201c565b90508091505090565b60007ff0c57e16840df040f15088dc2f81fe391c3923bec73e23a9662efc9c229c6a0060001b905090565b600067ffffffffffffffff82169050919050565b61018a8161016d565b82525050565b60006020820190506101a56000830184610181565b92915050565b615dcc806101ba6000396000f3fe608060405234801561001057600080fd5b506004361061028a5760003560e01c8063715018a61161015c578063c7c48e70116100ce578063db0b09b911610087578063db0b09b9146107b8578063dcb49c73146107d6578063e8a3d485146107f2578063e985e9c514610810578063f2fde38b14610840578063f570d1741461085c5761028a565b8063c7c48e70146106f8578063c87b56dd14610714578063d539139314610744578063d547741f14610762578063d5abeb011461077e578063dab45bbd1461079c5761028a565b8063a217fddf11610120578063a217fddf1461064e578063a22cb4651461066c578063a5210ff614610688578063a75c72bd146106a4578063b88d4fde146106c0578063bc09e593146106dc5761028a565b8063715018a6146105bc5780638da5cb5b146105c657806391106144146105e457806391d148541461060057806395d89b41146106305761028a565b80632b5880911161020057806342966c68116101b957806342966c68146104d657806347e63380146104f25780634cd88b76146105105780634f6ccce71461052c5780636352211e1461055c57806370a082311461058c5761028a565b80632b5880911461041a5780632cb2f52e146104365780632f2ff15d146104525780632f745c591461046e57806336568abe1461049e57806342842e0e146104ba5761028a565b80631251a888116102525780631251a8881461034757806318160ddd146103635780631e4cd0b41461038157806323b872dd1461039d578063248a9ca3146103b95780632a55205a146103e95761028a565b806301ffc9a71461028f57806306fdde03146102bf578063081812fc146102dd578063095ea7b31461030d5780630d9005ae14610329575b600080fd5b6102a960048036038101906102a4919061411e565b61087a565b6040516102b69190614166565b60405180910390f35b6102c7610943565b6040516102d49190614211565b60405180910390f35b6102f760048036038101906102f29190614269565b6109e4565b60405161030491906142d7565b60405180910390f35b6103276004803603810190610322919061431e565b610a00565b005b610331610a16565b60405161033e919061436d565b60405180910390f35b610361600480360381019061035c91906143be565b610a2e565b005b61036b610a45565b604051610378919061436d565b60405180910390f35b61039b60048036038101906103969190614711565b610a60565b005b6103b760048036038101906103b291906147cc565b610c25565b005b6103d360048036038101906103ce919061481f565b610d27565b6040516103e0919061485b565b60405180910390f35b61040360048036038101906103fe9190614876565b610d55565b6040516104119291906148b6565b60405180910390f35b610434600480360381019061042f9190614903565b610e2f565b005b610450600480360381019061044b91906149a7565b6110bd565b005b61046c600480360381019061046791906143be565b6111da565b005b6104886004803603810190610483919061431e565b6111fc565b604051610495919061436d565b60405180910390f35b6104b860048036038101906104b391906143be565b6112b3565b005b6104d460048036038101906104cf91906147cc565b61132e565b005b6104f060048036038101906104eb9190614269565b61134e565b005b6104fa611365565b604051610507919061485b565b60405180910390f35b61052a60048036038101906105259190614a07565b611389565b005b61054660048036038101906105419190614269565b611599565b604051610553919061436d565b60405180910390f35b61057660048036038101906105719190614269565b61161d565b60405161058391906142d7565b60405180910390f35b6105a660048036038101906105a19190614a7f565b61162f565b6040516105b3919061436d565b60405180910390f35b6105c46116f8565b005b6105ce61170c565b6040516105db91906142d7565b60405180910390f35b6105fe60048036038101906105f991906143be565b611744565b005b61061a600480360381019061061591906143be565b61175b565b6040516106279190614166565b60405180910390f35b6106386117d4565b6040516106459190614211565b60405180910390f35b610656611875565b604051610663919061485b565b60405180910390f35b61068660048036038101906106819190614ad8565b61187c565b005b6106a2600480360381019061069d9190614b6e565b611892565b005b6106be60048036038101906106b99190614caf565b611a20565b005b6106da60048036038101906106d59190614e19565b611b83565b005b6106f660048036038101906106f19190614ee0565b611ba8565b005b610712600480360381019061070d9190614f0d565b611c88565b005b61072e60048036038101906107299190614269565b611e58565b60405161073b9190614211565b60405180910390f35b61074c611ec9565b604051610759919061485b565b60405180910390f35b61077c600480360381019061077791906143be565b611eed565b005b610786611f0f565b6040516107939190614fe5565b60405180910390f35b6107b660048036038101906107b19190615000565b611f3b565b005b6107c06120b8565b6040516107cd919061517e565b60405180910390f35b6107f060048036038101906107eb91906151a0565b6122b9565b005b6107fa612333565b6040516108079190614211565b60405180910390f35b61082a60048036038101906108259190615228565b612391565b6040516108379190614166565b60405180910390f35b61085a60048036038101906108559190614a7f565b612433565b005b6108646124b9565b60405161087191906142d7565b60405180910390f35b60007f2a55205a000000000000000000000000000000000000000000000000000000007bffffffffffffffffffffffffffffffffffffffffffffffffffffffff1916827bffffffffffffffffffffffffffffffffffffffffffffffffffffffff1916148061092c5750634906490660e01b7bffffffffffffffffffffffffffffffffffffffffffffffffffffffff1916827bffffffffffffffffffffffffffffffffffffffffffffffffffffffff1916145b8061093c575061093b826124f1565b5b9050919050565b6060600061094f61256b565b905080600001805461096090615297565b80601f016020809104026020016040519081016040528092919081815260200182805461098c90615297565b80156109d95780601f106109ae576101008083540402835291602001916109d9565b820191906000526020600020905b8154815290600101906020018083116109bc57829003601f168201915b505050505091505090565b60006109ef82612593565b506109f98261261b565b9050919050565b610a128282610a0d612666565b61266e565b5050565b600080610a2161256b565b9050806004015491505090565b610a36612680565b610a408282612707565b505050565b600080610a50612809565b9050806002018054905091505090565b610a68612680565b610a7181612831565b6000610a7b61256b565b9050600081600401541115610abc576040517ff92ee8a900000000000000000000000000000000000000000000000000000000815260040160405180910390fd5b8160000151816000019081610ad19190615474565b508160200151816001019081610ae79190615474565b5081606001518160030160006101000a81548167ffffffffffffffff021916908367ffffffffffffffff1602179055508160400151816002019081610b2c9190615474565b5060008160040181905550610b4085612433565b60005b84518163ffffffff161015610bae57610b9c7f9f2df0fed2c77648de5860a4cc508cd0818c85b8b8a1ab4ceeef8d981c8956a6868363ffffffff1681518110610b8f57610b8e615546565b5b60200260200101516128fa565b5080610ba7906155b4565b9050610b43565b5060005b83518163ffffffff161015610c1d57610c0b7f73e573f9566d61418a34d5de3ff49360f9c51fec37f7486551670290f6285dab858363ffffffff1681518110610bfe57610bfd615546565b5b60200260200101516128fa565b5080610c16906155b4565b9050610bb2565b505050505050565b600073ffffffffffffffffffffffffffffffffffffffff168273ffffffffffffffffffffffffffffffffffffffff1603610c975760006040517f64a0ae92000000000000000000000000000000000000000000000000000000008152600401610c8e91906142d7565b60405180910390fd5b6000610cab8383610ca6612666565b6129fb565b90508373ffffffffffffffffffffffffffffffffffffffff168173ffffffffffffffffffffffffffffffffffffffff1614610d21578382826040517f64283d7b000000000000000000000000000000000000000000000000000000008152600401610d18939291906155e0565b60405180910390fd5b50505050565b600080610d32612a11565b905080600001600084815260200190815260200160002060010154915050919050565b6000806000610d6261256b565b90506127108160060160009054906101000a90046bffffffffffffffffffffffff166bffffffffffffffffffffffff1685610d9d9190615617565b610da79190615688565b91506000610db36124b9565b90508073ffffffffffffffffffffffffffffffffffffffff1663a5bd52356040518163ffffffff1660e01b8152600401602060405180830381865afa158015610e00573d6000803e3d6000fd5b505050506040513d601f19601f82011682018060405250810190610e2491906156ce565b935050509250929050565b610e3761170c565b73ffffffffffffffffffffffffffffffffffffffff16610e55612666565b73ffffffffffffffffffffffffffffffffffffffff1614158015610ea75750610ea57f73e573f9566d61418a34d5de3ff49360f9c51fec37f7486551670290f6285dab610ea0612666565b61175b565b155b15610ede576040517fcc12cef600000000000000000000000000000000000000000000000000000000815260040160405180910390fd5b610ef081610eeb906156fb565b612831565b6000610efa61256b565b90508060030160009054906101000a900467ffffffffffffffff1667ffffffffffffffff16826060016020810190610f32919061570e565b67ffffffffffffffff161015610f74576040517f70f9689c00000000000000000000000000000000000000000000000000000000815260040160405180910390fd5b80600101604051610f8591906157de565b6040518091039020828060200190610f9d9190615804565b604051610fab92919061588c565b604051809103902014610fea576040517fbc2a02e200000000000000000000000000000000000000000000000000000000815260040160405180910390fd5b818060000190610ffa9190615804565b82600001918261100b9291906158b0565b5081806020019061101c9190615804565b82600101918261102d9291906158b0565b50816060016020810190611041919061570e565b8160030160006101000a81548167ffffffffffffffff021916908367ffffffffffffffff16021790555081806040019061107b9190615804565b82600201918261108c9291906158b0565b507fa5d4097edda6d87cb9329af83fb3712ef77eeb13738ffe43cc35a4ce305ad96260405160405180910390a15050565b6110c561170c565b73ffffffffffffffffffffffffffffffffffffffff166110e3612666565b73ffffffffffffffffffffffffffffffffffffffff161415801561113557506111337f73e573f9566d61418a34d5de3ff49360f9c51fec37f7486551670290f6285dab61112e612666565b61175b565b155b1561116c576040517fcc12cef600000000000000000000000000000000000000000000000000000000815260040160405180910390fd5b600061117661256b565b90508282826005016000878152602001908152602001600020918261119c9291906158b0565b507ff8e1a15aba9398e019f0b49df1a4fde98ee17ae345cb5f6b5e2c27f5033e8ce7846040516111cc919061436d565b60405180910390a150505050565b6111e382610d27565b6111ec81612a39565b6111f683836128fa565b50505050565b600080611207612809565b90506112128461162f565b83106112575783836040517fa57d13dc00000000000000000000000000000000000000000000000000000000815260040161124e9291906148b6565b60405180910390fd5b8060000160008573ffffffffffffffffffffffffffffffffffffffff1673ffffffffffffffffffffffffffffffffffffffff16815260200190815260200160002060008481526020019081526020016000205491505092915050565b6112bb612666565b73ffffffffffffffffffffffffffffffffffffffff168173ffffffffffffffffffffffffffffffffffffffff161461131f576040517f6697b23200000000000000000000000000000000000000000000000000000000815260040160405180910390fd5b6113298282612707565b505050565b61134983838360405180602001604052806000815250611b83565b505050565b61136160008261135c612666565b6129fb565b5050565b7f73e573f9566d61418a34d5de3ff49360f9c51fec37f7486551670290f6285dab81565b6000611393612a4d565b905060008160000160089054906101000a900460ff1615905060008260000160009054906101000a900467ffffffffffffffff1690506000808267ffffffffffffffff161480156113e15750825b9050600060018367ffffffffffffffff16148015611416575060003073ffffffffffffffffffffffffffffffffffffffff163b145b905081158015611424575080155b1561145b576040517ff92ee8a900000000000000000000000000000000000000000000000000000000815260040160405180910390fd5b60018560000160006101000a81548167ffffffffffffffff021916908367ffffffffffffffff16021790555083156114ab5760018560000160086101000a81548160ff0219169083151502179055505b6114b58787612a61565b6114bd612a77565b6114c5612a81565b6114d56114d0612666565b612a8b565b6114dd612a9f565b60006114e761256b565b90506114f1612666565b81600601600c6101000a81548173ffffffffffffffffffffffffffffffffffffffff021916908373ffffffffffffffffffffffffffffffffffffffff1602179055505083156115905760008560000160086101000a81548160ff0219169083151502179055507fc7f505b2f371ae2175ee4913f4499e1f2633a7b5936321eed1cdaeb6115181d2600160405161158791906159bb565b60405180910390a15b50505050505050565b6000806115a4612809565b90506115ae610a45565b83106115f4576000836040517fa57d13dc0000000000000000000000000000000000000000000000000000000081526004016115eb9291906148b6565b60405180910390fd5b80600201838154811061160a57611609615546565b5b9060005260206000200154915050919050565b600061162882612593565b9050919050565b60008061163a612aa9565b9050600073ffffffffffffffffffffffffffffffffffffffff168373ffffffffffffffffffffffffffffffffffffffff16036116ae5760006040517f89c62b640000000000000000000000000000000000000000000000000000000081526004016116a591906142d7565b60405180910390fd5b8060030160008473ffffffffffffffffffffffffffffffffffffffff1673ffffffffffffffffffffffffffffffffffffffff16815260200190815260200160002054915050919050565b611700612680565b61170a6000612ad1565b565b600080611717612ba8565b90508060000160009054906101000a900473ffffffffffffffffffffffffffffffffffffffff1691505090565b61174c612680565b61175682826128fa565b505050565b600080611766612a11565b905080600001600085815260200190815260200160002060000160008473ffffffffffffffffffffffffffffffffffffffff1673ffffffffffffffffffffffffffffffffffffffff16815260200190815260200160002060009054906101000a900460ff1691505092915050565b606060006117e061256b565b90508060010180546117f190615297565b80601f016020809104026020016040519081016040528092919081815260200182805461181d90615297565b801561186a5780601f1061183f5761010080835404028352916020019161186a565b820191906000526020600020905b81548152906001019060200180831161184d57829003601f168201915b505050505091505090565b6000801b81565b61188e611887612666565b8383612bd0565b5050565b61189a61170c565b73ffffffffffffffffffffffffffffffffffffffff166118b8612666565b73ffffffffffffffffffffffffffffffffffffffff161415801561190a57506119087f9f2df0fed2c77648de5860a4cc508cd0818c85b8b8a1ab4ceeef8d981c8956a6611903612666565b61175b565b155b15611941576040517fcc12cef600000000000000000000000000000000000000000000000000000000815260040160405180910390fd5b818190508484905014611980576040517f1a1e1b4200000000000000000000000000000000000000000000000000000000815260040160405180910390fd5b61198c82829050612d4e565b60005b828290508163ffffffff161015611a1857611a076119ab612666565b8787878563ffffffff168181106119c5576119c4615546565b5b90506020028101906119d79190615804565b87878763ffffffff168181106119f0576119ef615546565b5b9050602002810190611a029190615804565b612dcc565b80611a11906155b4565b905061198f565b505050505050565b60005b848490508163ffffffff161015611b7957611a8b8888888463ffffffff16818110611a5157611a50615546565b5b9050602002016020810190611a669190614a7f565b87878563ffffffff16818110611a7f57611a7e615546565b5b9050602002013561132e565b84848263ffffffff16818110611aa457611aa3615546565b5b9050602002013587878363ffffffff16818110611ac457611ac3615546565b5b9050602002016020810190611ad99190614a7f565b73ffffffffffffffffffffffffffffffffffffffff168973ffffffffffffffffffffffffffffffffffffffff167fbd5c95affecf80a51b513bb4eddd42724421b80ef31b07cee1b5b25d8ce5a05b86868663ffffffff16818110611b4057611b3f615546565b5b9050602002810190611b529190615804565b604051611b60929190615a03565b60405180910390a480611b72906155b4565b9050611a23565b5050505050505050565b611b8e848484610c25565b611ba2611b99612666565b85858585612e9c565b50505050565b6000611bb261256b565b905080600601600c9054906101000a900473ffffffffffffffffffffffffffffffffffffffff1673ffffffffffffffffffffffffffffffffffffffff16611bf7612666565b73ffffffffffffffffffffffffffffffffffffffff1614611c44576040517fcc12cef600000000000000000000000000000000000000000000000000000000815260040160405180910390fd5b6000611c4e61256b565b9050828160060160006101000a8154816bffffffffffffffffffffffff02191690836bffffffffffffffffffffffff160217905550505050565b611c9061170c565b73ffffffffffffffffffffffffffffffffffffffff16611cae612666565b73ffffffffffffffffffffffffffffffffffffffff1614158015611d005750611cfe7f9f2df0fed2c77648de5860a4cc508cd0818c85b8b8a1ab4ceeef8d981c8956a6611cf9612666565b61175b565b155b15611d37576040517fcc12cef600000000000000000000000000000000000000000000000000000000815260040160405180910390fd5b86611d40610a45565b14611d8957611d4d610a45565b6040517f0499fe0b000000000000000000000000000000000000000000000000000000008152600401611d80919061436d565b60405180910390fd5b611d9582829050612d4e565b60005b828290508163ffffffff161015611e4e57611e3d611db4612666565b88888463ffffffff16818110611dcd57611dcc615546565b5b9050602002016020810190611de29190614a7f565b87878563ffffffff16818110611dfb57611dfa615546565b5b9050602002810190611e0d9190615804565b87878763ffffffff16818110611e2657611e25615546565b5b9050602002810190611e389190615804565b612dcc565b80611e47906155b4565b9050611d98565b5050505050505050565b60606000611e6461256b565b9050611ea2816005016000858152602001908152602001600020604051602001611e8e9190615ab5565b60405160208183030381529060405261304d565b604051602001611eb29190615b49565b604051602081830303815290604052915050919050565b7f9f2df0fed2c77648de5860a4cc508cd0818c85b8b8a1ab4ceeef8d981c8956a681565b611ef682610d27565b611eff81612a39565b611f098383612707565b50505050565b600080611f1a61256b565b90508060030160009054906101000a900467ffffffffffffffff1691505090565b611f4361170c565b73ffffffffffffffffffffffffffffffffffffffff16611f61612666565b73ffffffffffffffffffffffffffffffffffffffff1614158015611fb35750611fb17f9f2df0fed2c77648de5860a4cc508cd0818c85b8b8a1ab4ceeef8d981c8956a6611fac612666565b61175b565b155b15611fea576040517fcc12cef600000000000000000000000000000000000000000000000000000000815260040160405180910390fd5b611ff682829050612d4e565b60005b868690508163ffffffff1610156120af5761209e612015612666565b88888463ffffffff1681811061202e5761202d615546565b5b90506020020160208101906120439190614a7f565b87878563ffffffff1681811061205c5761205b615546565b5b905060200281019061206e9190615804565b87878763ffffffff1681811061208757612086615546565b5b90506020028101906120999190615804565b612dcc565b806120a8906155b4565b9050611ff9565b50505050505050565b6120c0614080565b60006120ca61256b565b905060405180608001604052808260000180546120e690615297565b80601f016020809104026020016040519081016040528092919081815260200182805461211290615297565b801561215f5780601f106121345761010080835404028352916020019161215f565b820191906000526020600020905b81548152906001019060200180831161214257829003601f168201915b5050505050815260200182600101805461217890615297565b80601f01602080910402602001604051908101604052809291908181526020018280546121a490615297565b80156121f15780601f106121c6576101008083540402835291602001916121f1565b820191906000526020600020905b8154815290600101906020018083116121d457829003601f168201915b5050505050815260200182600201805461220a90615297565b80601f016020809104026020016040519081016040528092919081815260200182805461223690615297565b80156122835780601f1061225857610100808354040283529160200191612283565b820191906000526020600020905b81548152906001019060200180831161226657829003601f168201915b505050505081526020018260030160009054906101000a900467ffffffffffffffff1667ffffffffffffffff1681525091505090565b6122c485858561132e565b828473ffffffffffffffffffffffffffffffffffffffff168673ffffffffffffffffffffffffffffffffffffffff167fbd5c95affecf80a51b513bb4eddd42724421b80ef31b07cee1b5b25d8ce5a05b8585604051612324929190615a03565b60405180910390a45050505050565b6060600061233f61256b565b905061236c816002016040516020016123589190615ab5565b60405160208183030381529060405261304d565b60405160200161237c9190615b49565b60405160208183030381529060405291505090565b60008061239c612aa9565b90508060050160008573ffffffffffffffffffffffffffffffffffffffff1673ffffffffffffffffffffffffffffffffffffffff16815260200190815260200160002060008473ffffffffffffffffffffffffffffffffffffffff1673ffffffffffffffffffffffffffffffffffffffff16815260200190815260200160002060009054906101000a900460ff1691505092915050565b61243b612680565b600073ffffffffffffffffffffffffffffffffffffffff168173ffffffffffffffffffffffffffffffffffffffff16036124ad5760006040517f1e4fbdf70000000000000000000000000000000000000000000000000000000081526004016124a491906142d7565b60405180910390fd5b6124b681612ad1565b50565b6000806124c461256b565b905080600601600c9054906101000a900473ffffffffffffffffffffffffffffffffffffffff1691505090565b60007f7965db0b000000000000000000000000000000000000000000000000000000007bffffffffffffffffffffffffffffffffffffffffffffffffffffffff1916827bffffffffffffffffffffffffffffffffffffffffffffffffffffffff1916148061256457506125638261307a565b5b9050919050565b60007f8303e9d27d04c843c8d4a08966b1e1be0214fc0b3375d79db0a8252068c41f00905090565b60008061259f836130f4565b9050600073ffffffffffffffffffffffffffffffffffffffff168173ffffffffffffffffffffffffffffffffffffffff160361261257826040517f7e273289000000000000000000000000000000000000000000000000000000008152600401612609919061436d565b60405180910390fd5b80915050919050565b600080612626612aa9565b905080600401600084815260200190815260200160002060009054906101000a900473ffffffffffffffffffffffffffffffffffffffff16915050919050565b600033905090565b61267b838383600161313f565b505050565b612688612666565b73ffffffffffffffffffffffffffffffffffffffff166126a661170c565b73ffffffffffffffffffffffffffffffffffffffff1614612705576126c9612666565b6040517f118cdaa70000000000000000000000000000000000000000000000000000000081526004016126fc91906142d7565b60405180910390fd5b565b600080612712612a11565b905061271e848461175b565b156127fd57600081600001600086815260200190815260200160002060000160008573ffffffffffffffffffffffffffffffffffffffff1673ffffffffffffffffffffffffffffffffffffffff16815260200190815260200160002060006101000a81548160ff021916908315150217905550612799612666565b73ffffffffffffffffffffffffffffffffffffffff168373ffffffffffffffffffffffffffffffffffffffff16857ff6391f5c32d9c69d2a47ea670b442974b53935d1edc7fd64eb21e047a839171b60405160405180910390a46001915050612803565b60009150505b92915050565b60007f645e039705490088daad89bae25049a34f4a9072d398537b1ab2425f24cbed00905090565b600081600001515103612870576040517f293330c600000000000000000000000000000000000000000000000000000000815260040160405180910390fd5b6000816020015151036128af576040517fbc2a02e200000000000000000000000000000000000000000000000000000000815260040160405180910390fd5b6000816060015167ffffffffffffffff16036128f7576040517fb798bafb00000000000000000000000000000000000000000000000000000000815260040160405180910390fd5b50565b600080612905612a11565b9050612911848461175b565b6129ef57600181600001600086815260200190815260200160002060000160008573ffffffffffffffffffffffffffffffffffffffff1673ffffffffffffffffffffffffffffffffffffffff16815260200190815260200160002060006101000a81548160ff02191690831515021790555061298b612666565b73ffffffffffffffffffffffffffffffffffffffff168373ffffffffffffffffffffffffffffffffffffffff16857f2f8788117e7eff1d82e926ec794901d17c78024a50270940304540a733656f0d60405160405180910390a460019150506129f5565b60009150505b92915050565b6000612a08848484613313565b90509392505050565b60007f02dd7bc7dec4dceedda775e58dd541e08a116c6c53815c0bd028192f7b626800905090565b612a4a81612a45612666565b613430565b50565b600080612a58613481565b90508091505090565b612a696134ac565b612a7382826134ec565b5050565b612a7f6134ac565b565b612a896134ac565b565b612a936134ac565b612a9c81613529565b50565b612aa76134ac565b565b60007f80bb2b638cc20bc4d0a60d66940f3ab4a00c1d7b313497ca82fb0b4ab0079300905090565b6000612adb612ba8565b905060008160000160009054906101000a900473ffffffffffffffffffffffffffffffffffffffff169050828260000160006101000a81548173ffffffffffffffffffffffffffffffffffffffff021916908373ffffffffffffffffffffffffffffffffffffffff1602179055508273ffffffffffffffffffffffffffffffffffffffff168173ffffffffffffffffffffffffffffffffffffffff167f8be0079c531659141344cd1fd0a4f28419497f9722a3daafe3b4186f6b6457e060405160405180910390a3505050565b60007f9016d09d72d40fdae2fd8ceac6b6234c7706214fd39c1cd1e609a0528c199300905090565b6000612bda612aa9565b9050600073ffffffffffffffffffffffffffffffffffffffff168373ffffffffffffffffffffffffffffffffffffffff1603612c4d57826040517f5b08ba18000000000000000000000000000000000000000000000000000000008152600401612c4491906142d7565b60405180910390fd5b818160050160008673ffffffffffffffffffffffffffffffffffffffff1673ffffffffffffffffffffffffffffffffffffffff16815260200190815260200160002060008573ffffffffffffffffffffffffffffffffffffffff1673ffffffffffffffffffffffffffffffffffffffff16815260200190815260200160002060006101000a81548160ff0219169083151502179055508273ffffffffffffffffffffffffffffffffffffffff168473ffffffffffffffffffffffffffffffffffffffff167f17307eab39ab6107e8899845ad3d59bd9653f200f220920489ca2b5937696c3184604051612d409190614166565b60405180910390a350505050565b6000612d5861256b565b90508060030160009054906101000a900467ffffffffffffffff1667ffffffffffffffff1682612d86610a45565b612d909190615b6b565b1115612dc8576040517f6a29267100000000000000000000000000000000000000000000000000000000815260040160405180910390fd5b5050565b6000612dd661256b565b90508282826005016000846004015481526020019081526020016000209182612e009291906158b0565b50612e0f8682600401546135af565b80600401548673ffffffffffffffffffffffffffffffffffffffff168873ffffffffffffffffffffffffffffffffffffffff167fbd5c95affecf80a51b513bb4eddd42724421b80ef31b07cee1b5b25d8ce5a05b8888604051612e73929190615a03565b60405180910390a48060040160008154612e8c90615b9f565b9190508190555050505050505050565b60008373ffffffffffffffffffffffffffffffffffffffff163b1115613046578273ffffffffffffffffffffffffffffffffffffffff1663150b7a02868685856040518563ffffffff1660e01b8152600401612efb9493929190615c3c565b6020604051808303816000875af1925050508015612f3757506040513d601f19601f82011682018060405250810190612f349190615c9d565b60015b612fbb573d8060008114612f67576040519150601f19603f3d011682016040523d82523d6000602084013e612f6c565b606091505b506000815103612fb357836040517f64a0ae92000000000000000000000000000000000000000000000000000000008152600401612faa91906142d7565b60405180910390fd5b805160208201fd5b63150b7a0260e01b7bffffffffffffffffffffffffffffffffffffffffffffffffffffffff1916817bffffffffffffffffffffffffffffffffffffffffffffffffffffffff19161461304457836040517f64a0ae9200000000000000000000000000000000000000000000000000000000815260040161303b91906142d7565b60405180910390fd5b505b5050505050565b606061307382604051806060016040528060408152602001615d576040913960016135cd565b9050919050565b60007f780e9d63000000000000000000000000000000000000000000000000000000007bffffffffffffffffffffffffffffffffffffffffffffffffffffffff1916827bffffffffffffffffffffffffffffffffffffffffffffffffffffffff191614806130ed57506130ec82613761565b5b9050919050565b6000806130ff612aa9565b905080600201600084815260200190815260200160002060009054906101000a900473ffffffffffffffffffffffffffffffffffffffff16915050919050565b6000613149612aa9565b905081806131845750600073ffffffffffffffffffffffffffffffffffffffff168373ffffffffffffffffffffffffffffffffffffffff1614155b156132b857600061319485612593565b9050600073ffffffffffffffffffffffffffffffffffffffff168473ffffffffffffffffffffffffffffffffffffffff16141580156131ff57508373ffffffffffffffffffffffffffffffffffffffff168173ffffffffffffffffffffffffffffffffffffffff1614155b801561321257506132108185612391565b155b1561325457836040517fa9fbf51f00000000000000000000000000000000000000000000000000000000815260040161324b91906142d7565b60405180910390fd5b82156132b657848673ffffffffffffffffffffffffffffffffffffffff168273ffffffffffffffffffffffffffffffffffffffff167f8c5be1e5ebec7d5bd14f71427d1e84f3dd0314c0f7b2291e5b200ac8c7c3b92560405160405180910390a45b505b8481600401600086815260200190815260200160002060006101000a81548173ffffffffffffffffffffffffffffffffffffffff021916908373ffffffffffffffffffffffffffffffffffffffff1602179055505050505050565b600080613321858585613843565b9050600073ffffffffffffffffffffffffffffffffffffffff168173ffffffffffffffffffffffffffffffffffffffff16036133655761336084613a70565b6133a4565b8473ffffffffffffffffffffffffffffffffffffffff168173ffffffffffffffffffffffffffffffffffffffff16146133a3576133a28185613acc565b5b5b600073ffffffffffffffffffffffffffffffffffffffff168573ffffffffffffffffffffffffffffffffffffffff16036133e6576133e184613bcc565b613425565b8473ffffffffffffffffffffffffffffffffffffffff168173ffffffffffffffffffffffffffffffffffffffff1614613424576134238585613cb8565b5b5b809150509392505050565b61343a828261175b565b61347d5780826040517fe2517d3f000000000000000000000000000000000000000000000000000000008152600401613474929190615cca565b60405180910390fd5b5050565b60007ff0c57e16840df040f15088dc2f81fe391c3923bec73e23a9662efc9c229c6a0060001b905090565b6134b4613d54565b6134ea576040517fd7e6bcf800000000000000000000000000000000000000000000000000000000815260040160405180910390fd5b565b6134f46134ac565b60006134fe612aa9565b9050828160000190816135119190615474565b50818160010190816135239190615474565b50505050565b6135316134ac565b600073ffffffffffffffffffffffffffffffffffffffff168173ffffffffffffffffffffffffffffffffffffffff16036135a35760006040517f1e4fbdf700000000000000000000000000000000000000000000000000000000815260040161359a91906142d7565b60405180910390fd5b6135ac81612ad1565b50565b6135c9828260405180602001604052806000815250613d74565b5050565b606060008451036135ef5760405180602001604052806000815250905061375a565b6000826136215760036002865160046136089190615617565b6136129190615b6b565b61361c9190615688565b613648565b6003600286516136319190615b6b565b61363b9190615688565b60046136479190615617565b5b905060008167ffffffffffffffff81111561366657613665614403565b5b6040519080825280601f01601f1916602001820160405280156136985781602001600182028036833780820191505090505b50905060018501602082018788518901602081018051600082525b8284101561370e576003840193508351603f8160121c168701518653600186019550603f81600c1c168701518653600186019550603f8160061c168701518653600186019550603f81168701518653600186019550506136b3565b808252891561374e5760038c51066001811461373157600281146137445761374c565b603d6001870353603d600287035361374c565b603d60018703535b505b50505050505080925050505b9392505050565b60007f80ac58cd000000000000000000000000000000000000000000000000000000007bffffffffffffffffffffffffffffffffffffffffffffffffffffffff1916827bffffffffffffffffffffffffffffffffffffffffffffffffffffffff1916148061382c57507f5b5e139f000000000000000000000000000000000000000000000000000000007bffffffffffffffffffffffffffffffffffffffffffffffffffffffff1916827bffffffffffffffffffffffffffffffffffffffffffffffffffffffff1916145b8061383c575061383b82613d98565b5b9050919050565b60008061384e612aa9565b9050600061385b856130f4565b9050600073ffffffffffffffffffffffffffffffffffffffff168473ffffffffffffffffffffffffffffffffffffffff161461389d5761389c818587613e02565b5b600073ffffffffffffffffffffffffffffffffffffffff168173ffffffffffffffffffffffffffffffffffffffff1614613930576138df60008660008061313f565b60018260030160008373ffffffffffffffffffffffffffffffffffffffff1673ffffffffffffffffffffffffffffffffffffffff168152602001908152602001600020600082825403925050819055505b600073ffffffffffffffffffffffffffffffffffffffff168673ffffffffffffffffffffffffffffffffffffffff16146139b55760018260030160008873ffffffffffffffffffffffffffffffffffffffff1673ffffffffffffffffffffffffffffffffffffffff168152602001908152602001600020600082825401925050819055505b8582600201600087815260200190815260200160002060006101000a81548173ffffffffffffffffffffffffffffffffffffffff021916908373ffffffffffffffffffffffffffffffffffffffff160217905550848673ffffffffffffffffffffffffffffffffffffffff168273ffffffffffffffffffffffffffffffffffffffff167fddf252ad1be2c89b69c2b068fc378daa952ba7f163c4a11628f55a4df523b3ef60405160405180910390a480925050509392505050565b6000613a7a612809565b9050806002018054905081600301600084815260200190815260200160002081905550806002018290806001815401808255809150506001900390600052602060002001600090919091909150555050565b6000613ad6612809565b90506000613ae38461162f565b9050600082600101600085815260200190815260200160002054905060008360000160008773ffffffffffffffffffffffffffffffffffffffff1673ffffffffffffffffffffffffffffffffffffffff1681526020019081526020016000209050828214613b9557600081600085815260200190815260200160002054905080826000858152602001908152602001600020819055508285600101600083815260200190815260200160002081905550505b8360010160008681526020019081526020016000206000905580600084815260200190815260200160002060009055505050505050565b6000613bd6612809565b9050600060018260020180549050613bee9190615cf3565b905060008260030160008581526020019081526020016000205490506000836002018381548110613c2257613c21615546565b5b9060005260206000200154905080846002018381548110613c4657613c45615546565b5b906000526020600020018190555081846003016000838152602001908152602001600020819055508360030160008681526020019081526020016000206000905583600201805480613c9b57613c9a615d27565b5b600190038181906000526020600020016000905590555050505050565b6000613cc2612809565b905060006001613cd18561162f565b613cdb9190615cf3565b9050828260000160008673ffffffffffffffffffffffffffffffffffffffff1673ffffffffffffffffffffffffffffffffffffffff168152602001908152602001600020600083815260200190815260200160002081905550808260010160008581526020019081526020016000208190555050505050565b6000613d5e612a4d565b60000160089054906101000a900460ff16905090565b613d7e8383613ec6565b613d93613d89612666565b6000858585612e9c565b505050565b60007f01ffc9a7000000000000000000000000000000000000000000000000000000007bffffffffffffffffffffffffffffffffffffffffffffffffffffffff1916827bffffffffffffffffffffffffffffffffffffffffffffffffffffffff1916149050919050565b613e0d838383613fbf565b613ec157600073ffffffffffffffffffffffffffffffffffffffff168373ffffffffffffffffffffffffffffffffffffffff1603613e8257806040517f7e273289000000000000000000000000000000000000000000000000000000008152600401613e79919061436d565b60405180910390fd5b81816040517f177e802f000000000000000000000000000000000000000000000000000000008152600401613eb89291906148b6565b60405180910390fd5b505050565b600073ffffffffffffffffffffffffffffffffffffffff168273ffffffffffffffffffffffffffffffffffffffff1603613f385760006040517f64a0ae92000000000000000000000000000000000000000000000000000000008152600401613f2f91906142d7565b60405180910390fd5b6000613f46838360006129fb565b9050600073ffffffffffffffffffffffffffffffffffffffff168173ffffffffffffffffffffffffffffffffffffffff1614613fba5760006040517f73c6ac6e000000000000000000000000000000000000000000000000000000008152600401613fb191906142d7565b60405180910390fd5b505050565b60008073ffffffffffffffffffffffffffffffffffffffff168373ffffffffffffffffffffffffffffffffffffffff161415801561407757508273ffffffffffffffffffffffffffffffffffffffff168473ffffffffffffffffffffffffffffffffffffffff16148061403857506140378484612391565b5b8061407657508273ffffffffffffffffffffffffffffffffffffffff1661405e8361261b565b73ffffffffffffffffffffffffffffffffffffffff16145b5b90509392505050565b6040518060800160405280606081526020016060815260200160608152602001600067ffffffffffffffff1681525090565b6000604051905090565b600080fd5b600080fd5b60007fffffffff0000000000000000000000000000000000000000000000000000000082169050919050565b6140fb816140c6565b811461410657600080fd5b50565b600081359050614118816140f2565b92915050565b600060208284031215614134576141336140bc565b5b600061414284828501614109565b91505092915050565b60008115159050919050565b6141608161414b565b82525050565b600060208201905061417b6000830184614157565b92915050565b600081519050919050565b600082825260208201905092915050565b60005b838110156141bb5780820151818401526020810190506141a0565b60008484015250505050565b6000601f19601f8301169050919050565b60006141e382614181565b6141ed818561418c565b93506141fd81856020860161419d565b614206816141c7565b840191505092915050565b6000602082019050818103600083015261422b81846141d8565b905092915050565b6000819050919050565b61424681614233565b811461425157600080fd5b50565b6000813590506142638161423d565b92915050565b60006020828403121561427f5761427e6140bc565b5b600061428d84828501614254565b91505092915050565b600073ffffffffffffffffffffffffffffffffffffffff82169050919050565b60006142c182614296565b9050919050565b6142d1816142b6565b82525050565b60006020820190506142ec60008301846142c8565b92915050565b6142fb816142b6565b811461430657600080fd5b50565b600081359050614318816142f2565b92915050565b60008060408385031215614335576143346140bc565b5b600061434385828601614309565b925050602061435485828601614254565b9150509250929050565b61436781614233565b82525050565b6000602082019050614382600083018461435e565b92915050565b6000819050919050565b61439b81614388565b81146143a657600080fd5b50565b6000813590506143b881614392565b92915050565b600080604083850312156143d5576143d46140bc565b5b60006143e3858286016143a9565b92505060206143f485828601614309565b9150509250929050565b600080fd5b7f4e487b7100000000000000000000000000000000000000000000000000000000600052604160045260246000fd5b61443b826141c7565b810181811067ffffffffffffffff8211171561445a57614459614403565b5b80604052505050565b600061446d6140b2565b90506144798282614432565b919050565b600067ffffffffffffffff82111561449957614498614403565b5b602082029050602081019050919050565b600080fd5b60006144c26144bd8461447e565b614463565b905080838252602082019050602084028301858111156144e5576144e46144aa565b5b835b8181101561450e57806144fa8882614309565b8452602084019350506020810190506144e7565b5050509392505050565b600082601f83011261452d5761452c6143fe565b5b813561453d8482602086016144af565b91505092915050565b600080fd5b600080fd5b600080fd5b600067ffffffffffffffff8211156145705761456f614403565b5b614579826141c7565b9050602081019050919050565b82818337600083830152505050565b60006145a86145a384614555565b614463565b9050828152602081018484840111156145c4576145c3614550565b5b6145cf848285614586565b509392505050565b600082601f8301126145ec576145eb6143fe565b5b81356145fc848260208601614595565b91505092915050565b600067ffffffffffffffff82169050919050565b61462281614605565b811461462d57600080fd5b50565b60008135905061463f81614619565b92915050565b60006080828403121561465b5761465a614546565b5b6146656080614463565b9050600082013567ffffffffffffffff8111156146855761468461454b565b5b614691848285016145d7565b600083015250602082013567ffffffffffffffff8111156146b5576146b461454b565b5b6146c1848285016145d7565b602083015250604082013567ffffffffffffffff8111156146e5576146e461454b565b5b6146f1848285016145d7565b604083015250606061470584828501614630565b60608301525092915050565b6000806000806080858703121561472b5761472a6140bc565b5b600061473987828801614309565b945050602085013567ffffffffffffffff81111561475a576147596140c1565b5b61476687828801614518565b935050604085013567ffffffffffffffff811115614787576147866140c1565b5b61479387828801614518565b925050606085013567ffffffffffffffff8111156147b4576147b36140c1565b5b6147c087828801614645565b91505092959194509250565b6000806000606084860312156147e5576147e46140bc565b5b60006147f386828701614309565b935050602061480486828701614309565b925050604061481586828701614254565b9150509250925092565b600060208284031215614835576148346140bc565b5b6000614843848285016143a9565b91505092915050565b61485581614388565b82525050565b6000602082019050614870600083018461484c565b92915050565b6000806040838503121561488d5761488c6140bc565b5b600061489b85828601614254565b92505060206148ac85828601614254565b9150509250929050565b60006040820190506148cb60008301856142c8565b6148d8602083018461435e565b9392505050565b600080fd5b6000608082840312156148fa576148f96148df565b5b81905092915050565b600060208284031215614919576149186140bc565b5b600082013567ffffffffffffffff811115614937576149366140c1565b5b614943848285016148e4565b91505092915050565b600080fd5b60008083601f840112614967576149666143fe565b5b8235905067ffffffffffffffff8111156149845761498361494c565b5b6020830191508360018202830111156149a05761499f6144aa565b5b9250929050565b6000806000604084860312156149c0576149bf6140bc565b5b60006149ce86828701614254565b935050602084013567ffffffffffffffff8111156149ef576149ee6140c1565b5b6149fb86828701614951565b92509250509250925092565b60008060408385031215614a1e57614a1d6140bc565b5b600083013567ffffffffffffffff811115614a3c57614a3b6140c1565b5b614a48858286016145d7565b925050602083013567ffffffffffffffff811115614a6957614a686140c1565b5b614a75858286016145d7565b9150509250929050565b600060208284031215614a9557614a946140bc565b5b6000614aa384828501614309565b91505092915050565b614ab58161414b565b8114614ac057600080fd5b50565b600081359050614ad281614aac565b92915050565b60008060408385031215614aef57614aee6140bc565b5b6000614afd85828601614309565b9250506020614b0e85828601614ac3565b9150509250929050565b60008083601f840112614b2e57614b2d6143fe565b5b8235905067ffffffffffffffff811115614b4b57614b4a61494c565b5b602083019150836020820283011115614b6757614b666144aa565b5b9250929050565b600080600080600060608688031215614b8a57614b896140bc565b5b6000614b9888828901614309565b955050602086013567ffffffffffffffff811115614bb957614bb86140c1565b5b614bc588828901614b18565b9450945050604086013567ffffffffffffffff811115614be857614be76140c1565b5b614bf488828901614b18565b92509250509295509295909350565b60008083601f840112614c1957614c186143fe565b5b8235905067ffffffffffffffff811115614c3657614c3561494c565b5b602083019150836020820283011115614c5257614c516144aa565b5b9250929050565b60008083601f840112614c6f57614c6e6143fe565b5b8235905067ffffffffffffffff811115614c8c57614c8b61494c565b5b602083019150836020820283011115614ca857614ca76144aa565b5b9250929050565b60008060008060008060006080888a031215614cce57614ccd6140bc565b5b6000614cdc8a828b01614309565b975050602088013567ffffffffffffffff811115614cfd57614cfc6140c1565b5b614d098a828b01614c03565b9650965050604088013567ffffffffffffffff811115614d2c57614d2b6140c1565b5b614d388a828b01614c59565b9450945050606088013567ffffffffffffffff811115614d5b57614d5a6140c1565b5b614d678a828b01614b18565b925092505092959891949750929550565b600067ffffffffffffffff821115614d9357614d92614403565b5b614d9c826141c7565b9050602081019050919050565b6000614dbc614db784614d78565b614463565b905082815260208101848484011115614dd857614dd7614550565b5b614de3848285614586565b509392505050565b600082601f830112614e0057614dff6143fe565b5b8135614e10848260208601614da9565b91505092915050565b60008060008060808587031215614e3357614e326140bc565b5b6000614e4187828801614309565b9450506020614e5287828801614309565b9350506040614e6387828801614254565b925050606085013567ffffffffffffffff811115614e8457614e836140c1565b5b614e9087828801614deb565b91505092959194509250565b60006bffffffffffffffffffffffff82169050919050565b614ebd81614e9c565b8114614ec857600080fd5b50565b600081359050614eda81614eb4565b92915050565b600060208284031215614ef657614ef56140bc565b5b6000614f0484828501614ecb565b91505092915050565b60008060008060008060006080888a031215614f2c57614f2b6140bc565b5b6000614f3a8a828b01614254565b975050602088013567ffffffffffffffff811115614f5b57614f5a6140c1565b5b614f678a828b01614c03565b9650965050604088013567ffffffffffffffff811115614f8a57614f896140c1565b5b614f968a828b01614b18565b9450945050606088013567ffffffffffffffff811115614fb957614fb86140c1565b5b614fc58a828b01614b18565b925092505092959891949750929550565b614fdf81614605565b82525050565b6000602082019050614ffa6000830184614fd6565b92915050565b6000806000806000806060878903121561501d5761501c6140bc565b5b600087013567ffffffffffffffff81111561503b5761503a6140c1565b5b61504789828a01614c03565b9650965050602087013567ffffffffffffffff81111561506a576150696140c1565b5b61507689828a01614b18565b9450945050604087013567ffffffffffffffff811115615099576150986140c1565b5b6150a589828a01614b18565b92509250509295509295509295565b600082825260208201905092915050565b60006150d082614181565b6150da81856150b4565b93506150ea81856020860161419d565b6150f3816141c7565b840191505092915050565b61510781614605565b82525050565b6000608083016000830151848203600086015261512a82826150c5565b9150506020830151848203602086015261514482826150c5565b9150506040830151848203604086015261515e82826150c5565b915050606083015161517360608601826150fe565b508091505092915050565b60006020820190508181036000830152615198818461510d565b905092915050565b6000806000806000608086880312156151bc576151bb6140bc565b5b60006151ca88828901614309565b95505060206151db88828901614309565b94505060406151ec88828901614254565b935050606086013567ffffffffffffffff81111561520d5761520c6140c1565b5b61521988828901614951565b92509250509295509295909350565b6000806040838503121561523f5761523e6140bc565b5b600061524d85828601614309565b925050602061525e85828601614309565b9150509250929050565b7f4e487b7100000000000000000000000000000000000000000000000000000000600052602260045260246000fd5b600060028204905060018216806152af57607f821691505b6020821081036152c2576152c1615268565b5b50919050565b60008190508160005260206000209050919050565b60006020601f8301049050919050565b600082821b905092915050565b60006008830261532a7fffffffffffffffffffffffffffffffffffffffffffffffffffffffffffffffff826152ed565b61533486836152ed565b95508019841693508086168417925050509392505050565b6000819050919050565b600061537161536c61536784614233565b61534c565b614233565b9050919050565b6000819050919050565b61538b83615356565b61539f61539782615378565b8484546152fa565b825550505050565b600090565b6153b46153a7565b6153bf818484615382565b505050565b5b818110156153e3576153d86000826153ac565b6001810190506153c5565b5050565b601f821115615428576153f9816152c8565b615402846152dd565b81016020851015615411578190505b61542561541d856152dd565b8301826153c4565b50505b505050565b600082821c905092915050565b600061544b6000198460080261542d565b1980831691505092915050565b6000615464838361543a565b9150826002028217905092915050565b61547d82614181565b67ffffffffffffffff81111561549657615495614403565b5b6154a08254615297565b6154ab8282856153e7565b600060209050601f8311600181146154de57600084156154cc578287015190505b6154d68582615458565b86555061553e565b601f1984166154ec866152c8565b60005b82811015615514578489015182556001820191506020850194506020810190506154ef565b86831015615531578489015161552d601f89168261543a565b8355505b6001600288020188555050505b505050505050565b7f4e487b7100000000000000000000000000000000000000000000000000000000600052603260045260246000fd5b7f4e487b7100000000000000000000000000000000000000000000000000000000600052601160045260246000fd5b600063ffffffff82169050919050565b60006155bf826155a4565b915063ffffffff82036155d5576155d4615575565b5b600182019050919050565b60006060820190506155f560008301866142c8565b615602602083018561435e565b61560f60408301846142c8565b949350505050565b600061562282614233565b915061562d83614233565b925082820261563b81614233565b9150828204841483151761565257615651615575565b5b5092915050565b7f4e487b7100000000000000000000000000000000000000000000000000000000600052601260045260246000fd5b600061569382614233565b915061569e83614233565b9250826156ae576156ad615659565b5b828204905092915050565b6000815190506156c8816142f2565b92915050565b6000602082840312156156e4576156e36140bc565b5b60006156f2848285016156b9565b91505092915050565b60006157073683614645565b9050919050565b600060208284031215615724576157236140bc565b5b600061573284828501614630565b91505092915050565b600081905092915050565b60008190508160005260206000209050919050565b6000815461576881615297565b615772818661573b565b9450600182166000811461578d57600181146157a2576157d5565b60ff19831686528115158202860193506157d5565b6157ab85615746565b60005b838110156157cd578154818901526001820191506020810190506157ae565b838801955050505b50505092915050565b60006157ea828461575b565b915081905092915050565b600080fd5b600080fd5b600080fd5b60008083356001602003843603038112615821576158206157f5565b5b80840192508235915067ffffffffffffffff821115615843576158426157fa565b5b60208301925060018202360383131561585f5761585e6157ff565b5b509250929050565b6000615873838561573b565b9350615880838584614586565b82840190509392505050565b6000615899828486615867565b91508190509392505050565b600082905092915050565b6158ba83836158a5565b67ffffffffffffffff8111156158d3576158d2614403565b5b6158dd8254615297565b6158e88282856153e7565b6000601f8311600181146159175760008415615905578287013590505b61590f8582615458565b865550615977565b601f198416615925866152c8565b60005b8281101561594d57848901358255600182019150602085019450602081019050615928565b8683101561596a5784890135615966601f89168261543a565b8355505b6001600288020188555050505b50505050505050565b6000819050919050565b60006159a56159a061599b84615980565b61534c565b614605565b9050919050565b6159b58161598a565b82525050565b60006020820190506159d060008301846159ac565b92915050565b60006159e2838561418c565b93506159ef838584614586565b6159f8836141c7565b840190509392505050565b60006020820190508181036000830152615a1e8184866159d6565b90509392505050565b600081905092915050565b60008154615a3f81615297565b615a498186615a27565b94506001821660008114615a645760018114615a7957615aac565b60ff1983168652811515820286019350615aac565b615a82856152c8565b60005b83811015615aa457815481890152600182019150602081019050615a85565b838801955050505b50505092915050565b6000615ac18284615a32565b915081905092915050565b7f646174613a6170706c69636174696f6e2f6a736f6e3b6261736536342c000000600082015250565b6000615b02601d83615a27565b9150615b0d82615acc565b601d82019050919050565b6000615b2382614181565b615b2d8185615a27565b9350615b3d81856020860161419d565b80840191505092915050565b6000615b5482615af5565b9150615b608284615b18565b915081905092915050565b6000615b7682614233565b9150615b8183614233565b9250828201905080821115615b9957615b98615575565b5b92915050565b6000615baa82614233565b91507fffffffffffffffffffffffffffffffffffffffffffffffffffffffffffffffff8203615bdc57615bdb615575565b5b600182019050919050565b600081519050919050565b600082825260208201905092915050565b6000615c0e82615be7565b615c188185615bf2565b9350615c2881856020860161419d565b615c31816141c7565b840191505092915050565b6000608082019050615c5160008301876142c8565b615c5e60208301866142c8565b615c6b604083018561435e565b8181036060830152615c7d8184615c03565b905095945050505050565b600081519050615c97816140f2565b92915050565b600060208284031215615cb357615cb26140bc565b5b6000615cc184828501615c88565b91505092915050565b6000604082019050615cdf60008301856142c8565b615cec602083018461484c565b9392505050565b6000615cfe82614233565b9150615d0983614233565b9250828203905081811115615d2157615d20615575565b5b92915050565b7f4e487b7100000000000000000000000000000000000000000000000000000000600052603160045260246000fdfe4142434445464748494a4b4c4d4e4f505152535455565758595a6162636465666768696a6b6c6d6e6f707172737475767778797a303132333435363738392b2fa2646970667358221220e1112c366c7c9c874de098a4e2243d14bea1e1210795e29973548b36252cfbc164736f6c634300081c0033",
  "linkReferences": {},
  "deployedLinkReferences": {}
}