{
  "_format": "hh-sol-artifact-1",
  "contractName": "BookNFT",
  "sourceName": "contracts/BookNFT.sol",
  "abi": [
    {
      "inputs": [],
      "name": "AccessControlBadConfirmation",
      "type": "error"
    },
    {
      "inputs": [
        {
          "internalType": "address",
          "name": "account",
          "type": "address"
        },
        {
          "internalType": "bytes32",
          "name": "neededRole",
          "type": "bytes32"
        }
      ],
      "name": "AccessControlUnauthorizedAccount",
      "type": "error"
    },
    {
      "inputs": [],
      "name": "ERC721EnumerableForbiddenBatchMint",
      "type": "error"
    },
    {
      "inputs": [
        {
          "internalType": "address",
          "name": "sender",
          "type": "address"
        },
        {
          "internalType": "uint256",
          "name": "tokenId",
          "type": "uint256"
        },
        {
          "internalType": "address",
          "name": "owner",
          "type": "address"
        }
      ],
      "name": "ERC721IncorrectOwner",
      "type": "error"
    },
    {
      "inputs": [
        {
          "internalType": "address",
          "name": "operator",
          "type": "address"
        },
        {
          "internalType": "uint256",
          "name": "tokenId",
          "type": "uint256"
        }
      ],
      "name": "ERC721InsufficientApproval",
      "type": "error"
    },
    {
      "inputs": [
        {
          "internalType": "address",
          "name": "approver",
          "type": "address"
        }
      ],
      "name": "ERC721InvalidApprover",
      "type": "error"
    },
    {
      "inputs": [
        {
          "internalType": "address",
          "name": "operator",
          "type": "address"
        }
      ],
      "name": "ERC721InvalidOperator",
      "type": "error"
    },
    {
      "inputs": [
        {
          "internalType": "address",
          "name": "owner",
          "type": "address"
        }
      ],
      "name": "ERC721InvalidOwner",
      "type": "error"
    },
    {
      "inputs": [
        {
          "internalType": "address",
          "name": "receiver",
          "type": "address"
        }
      ],
      "name": "ERC721InvalidReceiver",
      "type": "error"
    },
    {
      "inputs": [
        {
          "internalType": "address",
          "name": "sender",
          "type": "address"
        }
      ],
      "name": "ERC721InvalidSender",
      "type": "error"
    },
    {
      "inputs": [
        {
          "internalType": "uint256",
          "name": "tokenId",
          "type": "uint256"
        }
      ],
      "name": "ERC721NonexistentToken",
      "type": "error"
    },
    {
      "inputs": [
        {
          "internalType": "address",
          "name": "owner",
          "type": "address"
        },
        {
          "internalType": "uint256",
          "name": "index",
          "type": "uint256"
        }
      ],
      "name": "ERC721OutOfBoundsIndex",
      "type": "error"
    },
    {
      "inputs": [],
      "name": "ErrEmptyName",
      "type": "error"
    },
    {
      "inputs": [],
      "name": "ErrInvalidSymbol",
      "type": "error"
    },
    {
      "inputs": [],
      "name": "ErrMaxSupplyZero",
      "type": "error"
    },
    {
      "inputs": [],
      "name": "ErrNftNoSupply",
      "type": "error"
    },
    {
      "inputs": [
        {
          "internalType": "uint256",
          "name": "nextTokenId",
          "type": "uint256"
        }
      ],
      "name": "ErrTokenIdMintFails",
      "type": "error"
    },
    {
      "inputs": [],
      "name": "ErrUnauthorized",
      "type": "error"
    },
    {
      "inputs": [],
      "name": "InvalidInitialization",
      "type": "error"
    },
    {
      "inputs": [],
      "name": "NotInitializing",
      "type": "error"
    },
    {
      "inputs": [
        {
          "internalType": "address",
          "name": "owner",
          "type": "address"
        }
      ],
      "name": "OwnableInvalidOwner",
      "type": "error"
    },
    {
      "inputs": [
        {
          "internalType": "address",
          "name": "account",
          "type": "address"
        }
      ],
      "name": "OwnableUnauthorizedAccount",
      "type": "error"
    },
    {
      "anonymous": false,
      "inputs": [
        {
          "indexed": false,
          "internalType": "address",
          "name": "previousAdmin",
          "type": "address"
        },
        {
          "indexed": false,
          "internalType": "address",
          "name": "newAdmin",
          "type": "address"
        }
      ],
      "name": "AdminChanged",
      "type": "event"
    },
    {
      "anonymous": false,
      "inputs": [
        {
          "indexed": true,
          "internalType": "address",
          "name": "owner",
          "type": "address"
        },
        {
          "indexed": true,
          "internalType": "address",
          "name": "approved",
          "type": "address"
        },
        {
          "indexed": true,
          "internalType": "uint256",
          "name": "tokenId",
          "type": "uint256"
        }
      ],
      "name": "Approval",
      "type": "event"
    },
    {
      "anonymous": false,
      "inputs": [
        {
          "indexed": true,
          "internalType": "address",
          "name": "owner",
          "type": "address"
        },
        {
          "indexed": true,
          "internalType": "address",
          "name": "operator",
          "type": "address"
        },
        {
          "indexed": false,
          "internalType": "bool",
          "name": "approved",
          "type": "bool"
        }
      ],
      "name": "ApprovalForAll",
      "type": "event"
    },
    {
      "anonymous": false,
      "inputs": [
        {
          "indexed": false,
          "internalType": "uint256",
          "name": "_fromTokenId",
          "type": "uint256"
        },
        {
          "indexed": false,
          "internalType": "uint256",
          "name": "_toTokenId",
          "type": "uint256"
        }
      ],
      "name": "BatchMetadataUpdate",
      "type": "event"
    },
    {
      "anonymous": false,
      "inputs": [
        {
          "indexed": true,
          "internalType": "address",
          "name": "beacon",
          "type": "address"
        }
      ],
      "name": "BeaconUpgraded",
      "type": "event"
    },
    {
      "anonymous": false,
      "inputs": [],
      "name": "ContractURIUpdated",
      "type": "event"
    },
    {
      "anonymous": false,
      "inputs": [
        {
          "indexed": false,
          "internalType": "uint64",
          "name": "version",
          "type": "uint64"
        }
      ],
      "name": "Initialized",
      "type": "event"
    },
    {
      "anonymous": false,
      "inputs": [
        {
          "indexed": false,
          "internalType": "uint256",
          "name": "_tokenId",
          "type": "uint256"
        }
      ],
      "name": "MetadataUpdate",
      "type": "event"
    },
    {
      "anonymous": false,
      "inputs": [
        {
          "indexed": true,
          "internalType": "address",
          "name": "previousOwner",
          "type": "address"
        },
        {
          "indexed": true,
          "internalType": "address",
          "name": "newOwner",
          "type": "address"
        }
      ],
      "name": "OwnershipTransferred",
      "type": "event"
    },
    {
      "anonymous": false,
      "inputs": [
        {
          "indexed": true,
          "internalType": "bytes32",
          "name": "role",
          "type": "bytes32"
        },
        {
          "indexed": true,
          "internalType": "bytes32",
          "name": "previousAdminRole",
          "type": "bytes32"
        },
        {
          "indexed": true,
          "internalType": "bytes32",
          "name": "newAdminRole",
          "type": "bytes32"
        }
      ],
      "name": "RoleAdminChanged",
      "type": "event"
    },
    {
      "anonymous": false,
      "inputs": [
        {
          "indexed": true,
          "internalType": "bytes32",
          "name": "role",
          "type": "bytes32"
        },
        {
          "indexed": true,
          "internalType": "address",
          "name": "account",
          "type": "address"
        },
        {
          "indexed": true,
          "internalType": "address",
          "name": "sender",
          "type": "address"
        }
      ],
      "name": "RoleGranted",
      "type": "event"
    },
    {
      "anonymous": false,
      "inputs": [
        {
          "indexed": true,
          "internalType": "bytes32",
          "name": "role",
          "type": "bytes32"
        },
        {
          "indexed": true,
          "internalType": "address",
          "name": "account",
          "type": "address"
        },
        {
          "indexed": true,
          "internalType": "address",
          "name": "sender",
          "type": "address"
        }
      ],
      "name": "RoleRevoked",
      "type": "event"
    },
    {
      "anonymous": false,
      "inputs": [
        {
          "indexed": true,
          "internalType": "address",
          "name": "from",
          "type": "address"
        },
        {
          "indexed": true,
          "internalType": "address",
          "name": "to",
          "type": "address"
        },
        {
          "indexed": true,
          "internalType": "uint256",
          "name": "tokenId",
          "type": "uint256"
        }
      ],
      "name": "Transfer",
      "type": "event"
    },
    {
      "anonymous": false,
      "inputs": [
        {
          "indexed": true,
          "internalType": "address",
          "name": "from",
          "type": "address"
        },
        {
          "indexed": true,
          "internalType": "address",
          "name": "to",
          "type": "address"
        },
        {
          "indexed": true,
          "internalType": "uint256",
          "name": "tokenId",
          "type": "uint256"
        },
        {
          "indexed": false,
          "internalType": "string",
          "name": "memo",
          "type": "string"
        }
      ],
      "name": "TransferWithMemo",
      "type": "event"
    },
    {
      "anonymous": false,
      "inputs": [
        {
          "indexed": true,
          "internalType": "address",
          "name": "implementation",
          "type": "address"
        }
      ],
      "name": "Upgraded",
      "type": "event"
    },
    {
      "inputs": [],
      "name": "DEFAULT_ADMIN_ROLE",
      "outputs": [
        {
          "internalType": "bytes32",
          "name": "",
          "type": "bytes32"
        }
      ],
      "stateMutability": "view",
      "type": "function"
    },
    {
      "inputs": [],
      "name": "MINTER_ROLE",
      "outputs": [
        {
          "internalType": "bytes32",
          "name": "",
          "type": "bytes32"
        }
      ],
      "stateMutability": "view",
      "type": "function"
    },
    {
      "inputs": [],
      "name": "UPDATER_ROLE",
      "outputs": [
        {
          "internalType": "bytes32",
          "name": "",
          "type": "bytes32"
        }
      ],
      "stateMutability": "view",
      "type": "function"
    },
    {
      "inputs": [
        {
          "internalType": "address",
          "name": "to",
          "type": "address"
        },
        {
          "internalType": "uint256",
          "name": "tokenId",
          "type": "uint256"
        }
      ],
      "name": "approve",
      "outputs": [],
      "stateMutability": "nonpayable",
      "type": "function"
    },
    {
      "inputs": [
        {
          "internalType": "address",
          "name": "owner",
          "type": "address"
        }
      ],
      "name": "balanceOf",
      "outputs": [
        {
          "internalType": "uint256",
          "name": "",
          "type": "uint256"
        }
      ],
      "stateMutability": "view",
      "type": "function"
    },
    {
      "inputs": [
        {
          "internalType": "address[]",
          "name": "tos",
          "type": "address[]"
        },
        {
          "internalType": "string[]",
          "name": "memos",
          "type": "string[]"
        },
        {
          "internalType": "string[]",
          "name": "metadataList",
          "type": "string[]"
        }
      ],
      "name": "batchMint",
      "outputs": [],
      "stateMutability": "nonpayable",
      "type": "function"
    },
    {
      "inputs": [
        {
          "internalType": "address",
          "name": "from",
          "type": "address"
        },
        {
          "internalType": "address[]",
          "name": "tos",
          "type": "address[]"
        },
        {
          "internalType": "uint256[]",
          "name": "tokenIds",
          "type": "uint256[]"
        },
        {
          "internalType": "string[]",
          "name": "memos",
          "type": "string[]"
        }
      ],
      "name": "batchTransferWithMemo",
      "outputs": [],
      "stateMutability": "nonpayable",
      "type": "function"
    },
    {
      "inputs": [
        {
          "internalType": "uint256",
          "name": "tokenId",
          "type": "uint256"
        }
      ],
      "name": "burn",
      "outputs": [],
      "stateMutability": "nonpayable",
      "type": "function"
    },
    {
      "inputs": [],
      "name": "contractURI",
      "outputs": [
        {
          "internalType": "string",
          "name": "",
          "type": "string"
        }
      ],
      "stateMutability": "view",
      "type": "function"
    },
    {
      "inputs": [
        {
          "internalType": "uint256",
          "name": "tokenId",
          "type": "uint256"
        }
      ],
      "name": "getApproved",
      "outputs": [
        {
          "internalType": "address",
          "name": "",
          "type": "address"
        }
      ],
      "stateMutability": "view",
      "type": "function"
    },
    {
      "inputs": [],
      "name": "getBookConfig",
      "outputs": [
        {
          "components": [
            {
              "internalType": "string",
              "name": "name",
              "type": "string"
            },
            {
              "internalType": "string",
              "name": "symbol",
              "type": "string"
            },
            {
              "internalType": "string",
              "name": "metadata",
              "type": "string"
            },
            {
              "internalType": "uint64",
              "name": "max_supply",
              "type": "uint64"
            }
          ],
          "internalType": "struct BookConfig",
          "name": "",
          "type": "tuple"
        }
      ],
      "stateMutability": "view",
      "type": "function"
    },
    {
      "inputs": [],
      "name": "getCurrentIndex",
      "outputs": [
        {
          "internalType": "uint256",
          "name": "",
          "type": "uint256"
        }
      ],
      "stateMutability": "view",
      "type": "function"
    },
    {
      "inputs": [],
      "name": "getProtocolBeacon",
      "outputs": [
        {
          "internalType": "address",
          "name": "",
          "type": "address"
        }
      ],
      "stateMutability": "view",
      "type": "function"
    },
    {
      "inputs": [
        {
          "internalType": "bytes32",
          "name": "role",
          "type": "bytes32"
        }
      ],
      "name": "getRoleAdmin",
      "outputs": [
        {
          "internalType": "bytes32",
          "name": "",
          "type": "bytes32"
        }
      ],
      "stateMutability": "view",
      "type": "function"
    },
    {
      "inputs": [
        {
          "internalType": "bytes32",
          "name": "role",
          "type": "bytes32"
        },
        {
          "internalType": "address",
          "name": "account",
          "type": "address"
        }
      ],
      "name": "grantRole",
      "outputs": [],
      "stateMutability": "nonpayable",
      "type": "function"
    },
    {
      "inputs": [
        {
          "internalType": "bytes32",
          "name": "role",
          "type": "bytes32"
        },
        {
          "internalType": "address",
          "name": "account",
          "type": "address"
        }
      ],
      "name": "hasRole",
      "outputs": [
        {
          "internalType": "bool",
          "name": "",
          "type": "bool"
        }
      ],
      "stateMutability": "view",
      "type": "function"
    },
    {
      "inputs": [
        {
          "components": [
            {
              "internalType": "address",
              "name": "creator",
              "type": "address"
            },
            {
              "internalType": "address[]",
              "name": "updaters",
              "type": "address[]"
            },
            {
              "internalType": "address[]",
              "name": "minters",
              "type": "address[]"
            },
            {
              "components": [
                {
                  "internalType": "string",
                  "name": "name",
                  "type": "string"
                },
                {
                  "internalType": "string",
                  "name": "symbol",
                  "type": "string"
                },
                {
                  "internalType": "string",
                  "name": "metadata",
                  "type": "string"
                },
                {
                  "internalType": "uint64",
                  "name": "max_supply",
                  "type": "uint64"
                }
              ],
              "internalType": "struct BookConfig",
              "name": "config",
              "type": "tuple"
            }
          ],
          "internalType": "struct MsgNewBookNFT",
          "name": "msgNewBookNFT",
          "type": "tuple"
        }
      ],
      "name": "initialize",
      "outputs": [],
      "stateMutability": "nonpayable",
      "type": "function"
    },
    {
      "inputs": [
        {
          "internalType": "address",
          "name": "owner",
          "type": "address"
        },
        {
          "internalType": "address",
          "name": "operator",
          "type": "address"
        }
      ],
      "name": "isApprovedForAll",
      "outputs": [
        {
          "internalType": "bool",
          "name": "",
          "type": "bool"
        }
      ],
      "stateMutability": "view",
      "type": "function"
    },
    {
      "inputs": [],
      "name": "maxSupply",
      "outputs": [
        {
          "internalType": "uint64",
          "name": "",
          "type": "uint64"
        }
      ],
      "stateMutability": "view",
      "type": "function"
    },
    {
      "inputs": [
        {
          "internalType": "address",
          "name": "to",
          "type": "address"
        },
        {
          "internalType": "string[]",
          "name": "memos",
          "type": "string[]"
        },
        {
          "internalType": "string[]",
          "name": "metadataList",
          "type": "string[]"
        }
      ],
      "name": "mint",
      "outputs": [],
      "stateMutability": "nonpayable",
      "type": "function"
    },
    {
      "inputs": [],
      "name": "name",
      "outputs": [
        {
          "internalType": "string",
          "name": "",
          "type": "string"
        }
      ],
      "stateMutability": "view",
      "type": "function"
    },
    {
      "inputs": [],
      "name": "owner",
      "outputs": [
        {
          "internalType": "address",
          "name": "",
          "type": "address"
        }
      ],
      "stateMutability": "view",
      "type": "function"
    },
    {
      "inputs": [
        {
          "internalType": "bytes32",
          "name": "role",
          "type": "bytes32"
        },
        {
          "internalType": "address",
          "name": "account",
          "type": "address"
        }
      ],
      "name": "ownerGrantRole",
      "outputs": [],
      "stateMutability": "nonpayable",
      "type": "function"
    },
    {
      "inputs": [
        {
          "internalType": "uint256",
          "name": "tokenId",
          "type": "uint256"
        }
      ],
      "name": "ownerOf",
      "outputs": [
        {
          "internalType": "address",
          "name": "",
          "type": "address"
        }
      ],
      "stateMutability": "view",
      "type": "function"
    },
    {
      "inputs": [
        {
          "internalType": "bytes32",
          "name": "role",
          "type": "bytes32"
        },
        {
          "internalType": "address",
          "name": "account",
          "type": "address"
        }
      ],
      "name": "ownerRevokeRole",
      "outputs": [],
      "stateMutability": "nonpayable",
      "type": "function"
    },
    {
      "inputs": [],
      "name": "renounceOwnership",
      "outputs": [],
      "stateMutability": "nonpayable",
      "type": "function"
    },
    {
      "inputs": [
        {
          "internalType": "bytes32",
          "name": "role",
          "type": "bytes32"
        },
        {
          "internalType": "address",
          "name": "callerConfirmation",
          "type": "address"
        }
      ],
      "name": "renounceRole",
      "outputs": [],
      "stateMutability": "nonpayable",
      "type": "function"
    },
    {
      "inputs": [
        {
          "internalType": "bytes32",
          "name": "role",
          "type": "bytes32"
        },
        {
          "internalType": "address",
          "name": "account",
          "type": "address"
        }
      ],
      "name": "revokeRole",
      "outputs": [],
      "stateMutability": "nonpayable",
      "type": "function"
    },
    {
      "inputs": [
        {
          "internalType": "uint256",
          "name": "",
          "type": "uint256"
        },
        {
          "internalType": "uint256",
          "name": "salePrice",
          "type": "uint256"
        }
      ],
      "name": "royaltyInfo",
      "outputs": [
        {
          "internalType": "address",
          "name": "receiver",
          "type": "address"
        },
        {
          "internalType": "uint256",
          "name": "royaltyAmount",
          "type": "uint256"
        }
      ],
      "stateMutability": "view",
      "type": "function"
    },
    {
      "inputs": [
        {
          "internalType": "uint256",
          "name": "fromTokenId",
          "type": "uint256"
        },
        {
          "internalType": "address[]",
          "name": "tos",
          "type": "address[]"
        },
        {
          "internalType": "string[]",
          "name": "memos",
          "type": "string[]"
        },
        {
          "internalType": "string[]",
          "name": "metadataList",
          "type": "string[]"
        }
      ],
      "name": "safeMintWithTokenId",
      "outputs": [],
      "stateMutability": "nonpayable",
      "type": "function"
    },
    {
      "inputs": [
        {
          "internalType": "address",
          "name": "from",
          "type": "address"
        },
        {
          "internalType": "address",
          "name": "to",
          "type": "address"
        },
        {
          "internalType": "uint256",
          "name": "tokenId",
          "type": "uint256"
        }
      ],
      "name": "safeTransferFrom",
      "outputs": [],
      "stateMutability": "nonpayable",
      "type": "function"
    },
    {
      "inputs": [
        {
          "internalType": "address",
          "name": "from",
          "type": "address"
        },
        {
          "internalType": "address",
          "name": "to",
          "type": "address"
        },
        {
          "internalType": "uint256",
          "name": "tokenId",
          "type": "uint256"
        },
        {
          "internalType": "bytes",
          "name": "data",
          "type": "bytes"
        }
      ],
      "name": "safeTransferFrom",
      "outputs": [],
      "stateMutability": "nonpayable",
      "type": "function"
    },
    {
      "inputs": [
        {
          "internalType": "address",
          "name": "operator",
          "type": "address"
        },
        {
          "internalType": "bool",
          "name": "approved",
          "type": "bool"
        }
      ],
      "name": "setApprovalForAll",
      "outputs": [],
      "stateMutability": "nonpayable",
      "type": "function"
    },
    {
      "inputs": [
        {
          "internalType": "uint96",
          "name": "royaltyFraction",
          "type": "uint96"
        }
      ],
      "name": "setRoyaltyFraction",
      "outputs": [],
      "stateMutability": "nonpayable",
      "type": "function"
    },
    {
      "inputs": [
        {
          "internalType": "bytes4",
          "name": "interfaceId",
          "type": "bytes4"
        }
      ],
      "name": "supportsInterface",
      "outputs": [
        {
          "internalType": "bool",
          "name": "",
          "type": "bool"
        }
      ],
      "stateMutability": "view",
      "type": "function"
    },
    {
      "inputs": [],
      "name": "symbol",
      "outputs": [
        {
          "internalType": "string",
          "name": "",
          "type": "string"
        }
      ],
      "stateMutability": "view",
      "type": "function"
    },
    {
      "inputs": [
        {
          "internalType": "uint256",
          "name": "index",
          "type": "uint256"
        }
      ],
      "name": "tokenByIndex",
      "outputs": [
        {
          "internalType": "uint256",
          "name": "",
          "type": "uint256"
        }
      ],
      "stateMutability": "view",
      "type": "function"
    },
    {
      "inputs": [
        {
          "internalType": "address",
          "name": "owner",
          "type": "address"
        },
        {
          "internalType": "uint256",
          "name": "index",
          "type": "uint256"
        }
      ],
      "name": "tokenOfOwnerByIndex",
      "outputs": [
        {
          "internalType": "uint256",
          "name": "",
          "type": "uint256"
        }
      ],
      "stateMutability": "view",
      "type": "function"
    },
    {
      "inputs": [
        {
          "internalType": "uint256",
          "name": "_tokenId",
          "type": "uint256"
        }
      ],
      "name": "tokenURI",
      "outputs": [
        {
          "internalType": "string",
          "name": "",
          "type": "string"
        }
      ],
      "stateMutability": "view",
      "type": "function"
    },
    {
      "inputs": [],
      "name": "totalSupply",
      "outputs": [
        {
          "internalType": "uint256",
          "name": "",
          "type": "uint256"
        }
      ],
      "stateMutability": "view",
      "type": "function"
    },
    {
      "inputs": [
        {
          "internalType": "address",
          "name": "from",
          "type": "address"
        },
        {
          "internalType": "address",
          "name": "to",
          "type": "address"
        },
        {
          "internalType": "uint256",
          "name": "tokenId",
          "type": "uint256"
        }
      ],
      "name": "transferFrom",
      "outputs": [],
      "stateMutability": "nonpayable",
      "type": "function"
    },
    {
      "inputs": [
        {
          "internalType": "address",
          "name": "newOwner",
          "type": "address"
        }
      ],
      "name": "transferOwnership",
      "outputs": [],
      "stateMutability": "nonpayable",
      "type": "function"
    },
    {
      "inputs": [
        {
          "internalType": "address",
          "name": "from",
          "type": "address"
        },
        {
          "internalType": "address",
          "name": "to",
          "type": "address"
        },
        {
          "internalType": "uint256",
          "name": "_tokenId",
          "type": "uint256"
        },
        {
          "internalType": "string",
          "name": "memo",
          "type": "string"
        }
      ],
      "name": "transferWithMemo",
      "outputs": [],
      "stateMutability": "nonpayable",
      "type": "function"
    },
    {
      "inputs": [
        {
          "components": [
            {
              "internalType": "string",
              "name": "name",
              "type": "string"
            },
            {
              "internalType": "string",
              "name": "symbol",
              "type": "string"
            },
            {
              "internalType": "string",
              "name": "metadata",
              "type": "string"
            },
            {
              "internalType": "uint64",
              "name": "max_supply",
              "type": "uint64"
            }
          ],
          "internalType": "struct BookConfig",
          "name": "config",
          "type": "tuple"
        }
      ],
      "name": "update",
      "outputs": [],
      "stateMutability": "nonpayable",
      "type": "function"
    },
    {
      "inputs": [
        {
          "internalType": "uint256",
          "name": "tokenId",
          "type": "uint256"
        },
        {
          "internalType": "string",
          "name": "metadata",
          "type": "string"
        }
      ],
      "name": "updateTokenMetadata",
      "outputs": [],
      "stateMutability": "nonpayable",
      "type": "function"
    }
  ],
  "bytecode": "0x608060405234601957604051613c7d61001f8239613c7d90f35b600080fdfe6080604052600436101561001257600080fd5b60003560e01c806301ffc9a7146102e257806306fdde03146102dd578063081812fc146102d8578063095ea7b3146102d35780630d9005ae146102ce5780631251a888146102c957806318160ddd146102c457806323b872dd146102bf578063248a9ca3146102ba5780632a55205a146102b55780632b588091146102b05780632cb2f52e146102ab5780632f2ff15d146102a65780632f745c59146102a157806336568abe1461029c57806342842e0e1461029757806342966c681461029257806347e633801461028d5780634f6ccce71461028857806352c375e2146102835780636352211e1461027e57806370a0823114610279578063715018a6146102745780638da5cb5b1461026f578063911061441461026a57806391d148541461026557806395d89b4114610260578063a217fddf1461025b578063a22cb46514610256578063a5210ff614610251578063a75c72bd1461024c578063b88d4fde14610247578063bc09e59314610242578063c7c48e701461023d578063c87b56dd14610238578063d539139314610233578063d547741f1461022e578063d5abeb0114610229578063dab45bbd14610224578063db0b09b91461021f578063dcb49c731461021a578063e8a3d48514610215578063e985e9c514610210578063f2fde38b1461020b5763f570d174036102fa5761102e565b611016565b610ffa565b610fc3565b610fa7565b610f31565b610ea5565b610e27565b610e0e565b610de7565b610dcc565b610dad565b610d7e565b610d32565b610cc4565b610c2f565b610b93565b610b40565b610b06565b610aea565b610ad1565b610ab6565b610a9e565b610a83565b610a54565b610a3c565b610785565b61075e565b610746565b61072d565b610714565b6106f8565b6106df565b6106c6565b610646565b6105e4565b610590565b610577565b610525565b61050c565b6104be565b6104a0565b61042c565b6103d2565b610329565b6001600160e01b031981165b036102fa57565b600080fd5b9050359061030c826102e7565b565b906020828203126102fa57610322916102ff565b90565b9052565b346102fa5761035761034461033f36600461030e565b611069565b6040515b91829182901515815260200190565b0390f35b60009103126102fa57565b60005b8381106103795750506000910152565b8181015183820152602001610369565b6103aa6103b36020936103bd9361039e815190565b80835293849260200190565b95869101610366565b601f01601f191690565b0190565b602080825261032292910190610389565b346102fa576103e236600461035b565b6103576103ed6111b5565b604051918291826103c1565b806102f3565b9050359061030c826103f9565b906020828203126102fa57610322916103ff565b6001600160a01b031690565b346102fa5761035761044761044236600461040c565b6111d0565b604051918291826001600160a01b03909116815260200190565b6001600160a01b0381166102f3565b9050359061030c82610461565b91906040838203126102fa576103229060206104998286610470565b94016103ff565b346102fa576104b96104b336600461047d565b906111e3565b604051005b346102fa576104ce36600461035b565b6103576104d96111ff565b6040519182918290815260200190565b91906040838203126102fa5761032290602061050582866103ff565b9401610470565b346102fa576104b961051f3660046104e9565b90611234565b346102fa5761053536600461035b565b6103576104d9600080516020613c088339815191525490565b90916060828403126102fa576103226105678484610470565b9360406104998260208701610470565b346102fa576104b961058a36600461054e565b9161128a565b346102fa576103576104d96105a636600461040c565b61132b565b91906040838203126102fa5761032290602061049982866103ff565b6001600160a01b03909116815260408101929161030c9160200152565b346102fa576105fd6105f73660046105ab565b90611442565b9061035761060a60405190565b928392836105c7565b908160809103126102fa5790565b906020828203126102fa5781356001600160401b0381116102fa576103229201610613565b346102fa576104b9610659366004610621565b611996565b909182601f830112156102fa578135916001600160401b0383116102fa5760200192600183028401116102fa57565b9190916040818403126102fa576106a483826103ff565b9260208201356001600160401b0381116102fa576106c2920161065e565b9091565b346102fa576104b96106d936600461068d565b91611a21565b346102fa576104b96106f23660046104e9565b90611a4c565b346102fa576103576104d961070e36600461047d565b90611a60565b346102fa576104b96107273660046104e9565b90611ab9565b346102fa576104b961074036600461054e565b91611b11565b346102fa576104b961075936600461040c565b611b25565b346102fa5761076e36600461035b565b610357600080516020613bc88339815191526104d9565b346102fa576103576104d961079b36600461040c565b611b8e565b634e487b7160e01b600052604160045260246000fd5b90601f01601f191681019081106001600160401b038211176107d757604052565b6107a0565b9061030c6107e960405190565b92836107b6565b6001600160401b0381116107d75760208091020190565b9092919261081c610817826107f0565b6107dc565b93818552602080860192028301928184116102fa57915b8383106108405750505050565b6020809161084e8486610470565b815201920191610833565b9080601f830112156102fa5781602061032293359101610807565b6001600160401b0381116107d757602090601f01601f19160190565b90826000939282370152565b909291926108ac61081782610874565b93818552818301116102fa5761030c916020850190610890565b9080601f830112156102fa578160206103229335910161089c565b6001600160401b0381166102f3565b9050359061030c826108e1565b9190916080818403126102fa5761091460806107dc565b9281356001600160401b0381116102fa57816109319184016108c6565b845260208201356001600160401b0381116102fa57816109529184016108c6565b602085015260408201356001600160401b0381116102fa578261097c8360609361098796016108c6565b6040870152016108f0565b6060830152565b9190916080818403126102fa576109a560806107dc565b926109b08183610470565b845260208201356001600160401b0381116102fa57816109d1918401610859565b602085015260408201356001600160401b0381116102fa57816109f5918401610859565b604085015260608201356001600160401b0381116102fa5761098792016108fd565b906020828203126102fa5781356001600160401b0381116102fa57610322920161098e565b346102fa576104b9610a4f366004610a17565b612040565b346102fa57610357610447610a6a36600461040c565b612049565b906020828203126102fa5761032291610470565b346102fa576103576104d9610a99366004610a6f565b612052565b346102fa57610aae36600461035b565b6104b96120d1565b346102fa57610ac636600461035b565b6103576104476120ec565b346102fa576104b9610ae43660046104e9565b90612122565b346102fa57610357610344610b003660046104e9565b9061213f565b346102fa57610b1636600461035b565b6103576103ed612175565b6103226103226103229290565b6103226000610b21565b610322610b2e565b346102fa57610b5036600461035b565b6103576104d9610b38565b8015156102f3565b9050359061030c82610b5b565b91906040838203126102fa57610322906020610b8c8286610470565b9401610b63565b346102fa576104b9610ba6366004610b70565b9061218e565b909182601f830112156102fa578135916001600160401b0383116102fa5760200192602083028401116102fa57565b6060818303126102fa57610bef8282610470565b9260208201356001600160401b0381116102fa5783610c0f918401610bac565b92909360408201356001600160401b0381116102fa576106c29201610bac565b346102fa576104b9610c42366004610bdb565b9392909261229d565b9190916080818403126102fa57610c628382610470565b9260208201356001600160401b0381116102fa5781610c82918401610bac565b92909360408201356001600160401b0381116102fa5783610ca4918401610bac565b92909360608201356001600160401b0381116102fa576106c29201610bac565b346102fa576104b9610cd7366004610c4b565b959490949391936122fd565b906080828203126102fa57610cf88183610470565b92610d068260208501610470565b92610d1483604083016103ff565b9260608201356001600160401b0381116102fa5761032292016108c6565b346102fa576104b9610d45366004610ce3565b929190916123e3565b6001600160601b0381166102f3565b9050359061030c82610d4e565b906020828203126102fa5761032291610d5d565b346102fa576104b9610d91366004610d6a565b61249e565b9190916080818403126102fa57610c6283826103ff565b346102fa576104b9610dc0366004610d96565b95949094939193612586565b346102fa576103576103ed610de236600461040c565b61266b565b346102fa57610df736600461035b565b610357600080516020613be88339815191526104d9565b346102fa576104b9610e213660046104e9565b906126ee565b346102fa57610e3736600461035b565b610357610e426126f8565b604051918291826001600160401b03909116815260200190565b906060828203126102fa5781356001600160401b0381116102fa5781610e83918401610bac565b92909360208201356001600160401b0381116102fa5783610c0f918401610bac565b346102fa576104b9610eb8366004610e5c565b949390939291926127ad565b9061032290606080610f0f610efd610eeb6080860160008901518782036000890152610389565b60208801518682036020880152610389565b60408701518582036040870152610389565b9401516001600160401b0316910152565b602080825261032292910190610ec4565b346102fa57610f4136600461035b565b610357610f4c6127f2565b60405191829182610f20565b906080828203126102fa57610f6d8183610470565b92610f7b8260208501610470565b92610f8983604083016103ff565b9260608201356001600160401b0381116102fa576106c2920161065e565b346102fa576104b9610fba366004610f58565b939290926128c0565b346102fa57610fd336600461035b565b6103576103ed61290c565b91906040838203126102fa576103229060206105058286610470565b346102fa57610357610344611010366004610fde565b90612930565b346102fa576104b9611029366004610a6f565b6129b7565b346102fa5761103e36600461035b565b6103576104476129c0565b61105c6110566103229290565b60e01b90565b6001600160e01b03191690565b63152a902d60e11b6001600160e01b0319821614908115611099575b811561108f575090565b61032291506129d7565b90506110ab61105c6349064906611049565b6001600160e01b031982161490611085565b634e487b7160e01b600052602260045260246000fd5b90600160028304921680156110f3575b60208310146110ee57565b6110bd565b91607f16916110e3565b8054600093929161111a611110836110d3565b8085529360200190565b916001811690811561116c575060011461113357505050565b6111469192939450600052602060002090565b916000925b8184106111585750500190565b80548484015260209093019260010161114b565b92949550505060ff1916825215156020020190565b90610322916110fd565b9061030c6111a59261119c60405190565b93848092611181565b03836107b6565b6103229061118b565b6103226000600080516020613b888339815191525b016111ac565b610322906111dd81612a00565b50612a41565b61030c913391612a6c565b6103229081565b61032290546111ee565b6103226004600080516020613b888339815191525b016111f5565b9061030c91611227612a79565b9061123191612ad6565b50565b9061030c9161121a565b6104206103226103229290565b6103229061123e565b6001600160a01b03909116815260608101939261030c92909160409161127b906020830152565b01906001600160a01b03169052565b90916000926112988461124b565b6001600160a01b0381166001600160a01b038316146112fe57506112bf9082335b91612b65565b916001600160a01b0381166001600160a01b038416036112df5750505050565b6364283d7b60e01b845283926112fa92909160048501611254565b0390fd5b633250574960e11b85526001600160a01b03166004850152602484fd5b905b600052602052604060002090565b60016112146103229261133c600090565b506000600080516020613c288339815191525b0161131b565b610322905b6001600160601b031690565b6103229054611355565b610322610322610322926001600160601b031690565b634e487b7160e01b600052601160045260246000fd5b91906113a7565b9290565b918083029281840414901517156113ba57565b611386565b634e487b7160e01b600052601260045260246000fd5b906113df565b9190565b9081156113ea570490565b6113bf565b61032290610420906001600160a01b031682565b610322906113ef565b61032290611403565b9050519061030c82610461565b906020828203126102fa5761032291611415565b6040513d6000823e3d90fd5b5061147861148991611452600090565b5061147261146d600080516020613ba8833981519152611366565b611370565b9061139c565b611483612710610b21565b906113d5565b61149c6114976114976129c0565b61140c565b60206114a760405190565b63a5bd523560e01b815291829060049082905afa9081156114f9576000916114cd575091565b6114ef915060203d6020116114f2575b6114e781836107b6565b810190611422565b91565b503d6114dd565b611436565b61151e61151a600080516020613bc88339815191525b33610b00565b1590565b61152b5761030c9061185b565b636609677b60e11b600090815260045b036000fd5b6103229036906108fd565b35610322816108e1565b610322905b6001600160401b031690565b6103229054611555565b1561157757565b60405162461bcd60e51b8152602060048201526011602482015270457272537570706c79446563726561736560781b6044820152606490fd5b903590601e1936829003018212156102fa57018035906001600160401b0382116102fa57602001913682900383136102fa57565b61032291369161089c565b80546000939291611602611110836110d3565b916001811690811561116c575060011461161b57505050565b61162e9192939450600052602060002090565b916000925b8184106116405750500190565b805484840152602090930192600101611633565b90610322916115ef565b9061030c6111a59261166f60405190565b93848092611654565b6103229061165e565b1561168857565b635e15017160e11b6000908152600490fd5b9160001960089290920291821b911b5b9181191691161790565b91906116c56103226116cd93610b21565b90835461169a565b9055565b61030c916000916116b4565b8181106116e8575050565b806116f660006001936116d1565b016116dd565b9190601f811161170b57505050565b61171d61030c93600052602060002090565b906020601f84018190048301931061173f575b6020601f9091010401906116dd565b9091508190611730565b91906001600160401b0382116107d75761176d8261176785546110d3565b856116fc565b600090601f83116001146117a8576116cd92916000918361179d575b5050600019600883021c1916906002021790565b013590503880611789565b90601f198316916117be85600052602060002090565b92825b8181106117fc575091600293918560019694106117e2575b50505002019055565b0135600019601f84166008021c19165b90553880806117d9565b929360206001819287860135815501950193016117c1565b9061030c9291611749565b906001600160401b03906116aa565b61155a610322610322926001600160401b031690565b906118546103226116cd9261182e565b825461181f565b60026119649161187261186d82611540565b612b70565b61193a600080516020613b888339815191529161195a606082016119546118988261154b565b916118c460038801936118bd6118b061155a87611566565b916001600160401b031690565b1015611570565b61194f602086016119496118e46118de6106c2848b6115b0565b906115e4565b6118f66118ef825190565b9160200190565b209161192a60018c01936119246113db6119156119108890565b611678565b6119206118ef825190565b2090565b14611681565b61194360008c61193a8c806115b0565b92909101611814565b886115b0565b91611814565b61154b565b90611844565b60408101906115b0565b7fa5d4097edda6d87cb9329af83fb3712ef77eeb13738ffe43cc35a4ce305ad96261198e60405190565b80805b0390a1565b61030c906114fe565b91906119bb61151a600080516020613bc8833981519152611514565b61152b5761030c926119d2565b9061131d90610b21565b6104d97ff8e1a15aba9398e019f0b49df1a4fde98ee17ae345cb5f6b5e2c27f5033e8ce79361199193611a1c846005611a16600080516020613b8883398151915290565b016119c8565b611814565b9061030c929161199f565b9061030c91611a42611a3d8261132b565b612c00565b9061123191612c0b565b9061030c91611a2c565b9061131d9061140c565b600080516020613b48833981519152611a7b61032283612052565b831015611aa05791611a96611a9b9260006103229501611a56565b6119c8565b6111f5565b63295f44f760e21b600090815261153b848460046105c7565b90611ac333610420565b6001600160a01b03821603611adb5761123191612ad6565b63334bd91960e11b6000908152600490fd5b90611afa61081783610874565b918252565b6103226000611aed565b610322611aff565b909161030c92611b1f611b09565b926123e3565b61123190611b33600061124b565b90336112b9565b634e487b7160e01b600052603260045260246000fd5b8054821015611b7357611b6a600191600052602060002090565b91020190600090565b611b3a565b610322916008021c81565b906103229154611b78565b600080516020613b48833981519152611bb6610322600080516020613c088339815191525490565b821015611bd357610322916002611bcd9201611b50565b90611b83565b6000806112fa84611be38361124b565b63295f44f760e21b8452600484016105c7565b6103229060401c5b60ff1690565b6103229054611bf6565b61155a6103226103229290565b9068ff00000000000000009060401b6116aa565b90611c3f6103226116cd92151590565b8254611c1b565b61032590611c0e565b60208101929161030c9190611c46565b611c67612c7c565b9081611c7e611c7861151a83611c04565b91611566565b90600092611c8b84611c0e565b6001600160401b0384161480611d73575b600193611cab6118b086611c0e565b149081611d4f575b155b9081611d46575b50611d3757611ce59082611cdc86611cd387611c0e565b98019788611844565b611d2857611eb3565b611cee57505050565b611d1c611991927fc7f505b2f371ae2175ee4913f4499e1f2633a7b5936321eed1cdaeb6115181d294611c2f565b60405191829182611c4f565b611d328487611c2f565b611eb3565b63f92ee8a960e01b8452600484fd5b15905038611cbc565b9050611cb5611d5d3061140c565b3b611d6a6113db88610b21565b14919050611cb3565b5081611c9c565b90611d83815190565b906001600160401b0382116107d757611da08261176785546110d3565b602090601f8311600114611dda576116cd929160009183611dcf575050600019600883021c1916906002021790565b015190503880611789565b601f19831691611def85600052602060002090565b9260005b818110611e2757509160029391856001969410611e135750505002019055565b01516000196008601f8516021c19166117f2565b91936020600181928787015181550195019201611df3565b9061030c91611d7a565b90600019906116aa565b90611e636103226116cd92610b21565b8254611e49565b906bffffffffffffffffffffffff199060601b6116aa565b90611e926103226116cd9261140c565b8254611e6a565b90611ea2825190565b811015611b73576020809102010190565b6060810191611ecd60008451015160208551015190612c9b565b611ed5612cad565b611edd612cad565b611ef6611ef183516001600160a01b031690565b612cca565b611efe612cad565b611f088351612b70565b611f6b6040600080516020613b88833981519152855151909590611f2c9087611e3f565b611f3e60208251015160018801611e3f565b611f5f611f566060835101516001600160401b031690565b60038801611844565b51015160028501611e3f565b611f90611f786000610b21565b93611f868560048301611e53565b6006339101611e82565b825b60408301611fa261032282515190565b821015611ff35790611fe7611fee92611fe1611fd484611fcd600080516020613be883398151915290565b9351611e99565b516001600160a01b031690565b90612c0b565b5060010190565b611f92565b5050915b6020820161200761032282515190565b82101561203b5781611fe761203492611fe1611fd4602096611fcd600080516020613bc883398151915290565b9050611ff7565b505050565b61030c90611c5f565b61032290612a00565b600080516020613b68833981519152600061206c8161124b565b6001600160a01b0381166001600160a01b03851614612097575050610322916003611a9b9201611a56565b6322718ad960e21b82526001600160a01b03166004820152602490fd5b6120bc612a79565b61030c61030c6120cc600061124b565b612cf9565b61030c6120b4565b61032290610420565b61032290546120d9565b6103227f9016d09d72d40fdae2fd8ceac6b6234c7706214fd39c1cd1e609a0528c1993006120e2565b9061030c91611a42612a79565b9061030c91612115565b61032290611bfe565b610322905461212c565b61032291600061216a61217093612154600090565b5082600080516020613c2883398151915261134f565b01611a56565b612135565b6103226001600080516020613b888339815191526111ca565b61030c919033612d66565b939291906121b761151a600080516020613be8833981519152611514565b61152b5761030c94612227565b156121cb57565b60405162461bcd60e51b815260206004820152601d60248201527f4572724d656d6f4d657461646174614c656e6774684d69736d617463680000006044820152606490fd5b90821015611b735760206106c292028101906115b0565b949092849290916122398483146121c4565b61224286612e1e565b61224c6000610b21565b865b8110156122935761228c61224e916122868a6122673390565b61227284898d612210565b9061227e868d8d612210565b949093612e8b565b60010190565b905061224c565b5095505050505050565b9061030c94939291612199565b9190811015611b73576020020190565b3561032281610461565b35610322816103f9565b91906103b3816122e5816103bd9560209181520190565b8095610890565b6020808252610322939101916122ce565b9493919096959661230e6000610b21565b838110156123d857808787877fbd5c95affecf80a51b513bb4eddd42724421b80ef31b07cee1b5b25d8ce5a05b6123a86123b48f6123a0886123ae9261239a8f8f9d8f916123d39f61237f8f828f9661238f879361238a9961074061238a878b61238461237f836123949e8b6122aa565b6122ba565b946122aa565b6122c4565b6122aa565b9b6122aa565b98612210565b93909761140c565b9461140c565b94610b21565b946123ca6123c160405190565b928392836122ec565b0390a460010190565b61230e565b505050505050509050565b9061030c9392916123f583838361128a565b33612fa9565b6103229060601c610420565b61032290546123fb565b3361243c61242f610420600080516020613ba8833981519152612407565b916001600160a01b031690565b0361152b5761030c90612486565b906001600160601b03906116aa565b61135a610322610322926001600160601b031690565b9061247f6103226116cd92612459565b825461244a565b61030c90600080516020613ba883398151915261246f565b61030c90612411565b9594939291906124c761151a600080516020613be8833981519152611514565b61152b5761030c959391909492966124f16113db6113a3600080516020613c088339815191525490565b0361255557839561250187612e1e565b61250b6000610b21565b875b81101561254a57612543816122868b8a8a8a61227e8661253b818e61239a8f61250d9e61237f916123943390565b949093612210565b905061250b565b509650505050505050565b600061153b612570600080516020613c088339815191525490565b630499fe0b60e01b835260048301526024820190565b9061030c9695949392916124a7565b805460009392916125ac6125a8836110d3565b9390565b91600181169081156125fd57506001146125c557505050565b6125d89192939450600052602060002090565b6000905b8382106125e95750500190565b6001816020925484860152019101906125dc565b60ff191683525050811515909102019150565b61032291612595565b6103bd6126319260209261262b815190565b94859290565b93849101610366565b7f646174613a6170706c69636174696f6e2f6a736f6e3b6261736536342c00000081526103229190601d0190612619565b6126c16126946103229261267d606090565b506005600080516020613b88833981519152611a16565b6126bc6126a060405190565b80926126b0602083019182612610565b908103825203826107b6565b613143565b6103226126cd60405190565b80926126b060208301918261263a565b9061030c91611227611a3d8261132b565b9061030c916126dd565b6103227f8303e9d27d04c843c8d4a08966b1e1be0214fc0b3375d79db0a8252068c41f03611566565b949392919061274061151a600080516020613be8833981519152611514565b61152b5761030c9593919594929061275d6127588590565b612e1e565b6127676000610b21565b818110156127a35761279e906122868988612792848861278c61237f838b33976122aa565b94612210565b9061227e868c8c612210565b612767565b5050505050509050565b9061030c9594939291612721565b61032260806107dc565b6127cd6127bb565b906060825260208080808501606081520160608152016000905250565b6103226127c5565b6127fa6127ea565b50600080516020613b888339815191526103227f8303e9d27d04c843c8d4a08966b1e1be0214fc0b3375d79db0a8252068c41f016128b06128a97f8303e9d27d04c843c8d4a08966b1e1be0214fc0b3375d79db0a8252068c41f0261289d6128a26128847f8303e9d27d04c843c8d4a08966b1e1be0214fc0b3375d79db0a8252068c41f03611566565b9561289d6128996128936127bb565b9a6111ac565b8a52565b6111ac565b6020880152565b6040850152565b6001600160401b03166060830152565b936128fa6123ae6123a87fbd5c95affecf80a51b513bb4eddd42724421b80ef31b07cee1b5b25d8ce5a05b94959697611497888883611b11565b946129076123c160405190565b0390a4565b6103226126c16002600080516020613b88833981519152016126bc6126a060405190565b6103229161295a61217092612943600090565b506005600080516020613b6883398151915261216a565b611a56565b61030c9061296b612a79565b60006129768161124b565b6001600160a01b0381166001600160a01b0384161461299a57505061030c90612cf9565b631e4fbdf760e01b82526001600160a01b03166004820152602490fd5b61030c9061295f565b610322600080516020613ba8833981519152612407565b637965db0b60e01b6001600160e01b03198216149081156129f6575090565b6103229150613160565b612a0981613189565b90600090612a196104208361124b565b6001600160a01b03841614612a2d57505090565b637e27328960e01b82526004820152602490fd5b612a6761032291612a50600090565b506004600080516020613b68833981519152611a16565b6120e2565b9160019161030c936131af565b612a816120ec565b3390612a8c8261242f565b03612a945750565b63118cdaa760e01b60009081526001600160a01b039091166004526024036000fd5b9060ff906116aa565b90612acf6103226116cd92151590565b8254612ab6565b600080516020613c28833981519152612aef838361213f565b15612b5d576000612b0a848261216a8682612b0f970161131b565b612abf565b612b29612b23612b1d339390565b9361140c565b9161140c565b917ff6391f5c32d9c69d2a47ea670b442974b53935d1edc7fd64eb21e047a839171b612b5460405190565b600090a4600190565b505050600090565b6103229291906132f7565b805151612b7c565b5190565b90600091612b8c6113db84610b21565b14612bf057612b9f612b78602083015190565b612bab6113db84610b21565b14612be057606001516001600160401b0316612bc96118b083611c0e565b14612bd15750565b63b798bafb60e01b8152600490fd5b50635e15017160e11b8152600490fd5b50631499986360e11b8152600490fd5b61030c903390613397565b600080516020613c28833981519152612c2761151a848461213f565b15612b5d576001612b0a84600061216a8682612c43970161131b565b612c51612b23612b1d339390565b917f2f8788117e7eff1d82e926ec794901d17c78024a50270940304540a733656f0d612b5460405190565b6103226133ef565b9061030c91612c916133f7565b9061030c91613453565b9061030c91612c84565b61030c6133f7565b61030c612ca5565b61030c90612cc16133f7565b61030c90613469565b61030c90612cb5565b906001600160a01b03906116aa565b90612cf26103226116cd9261140c565b8254612cd3565b612d33612b237f9016d09d72d40fdae2fd8ceac6b6234c7706214fd39c1cd1e609a0528c19930061149784612d2d836120e2565b92612ce2565b907f8be0079c531659141344cd1fd0a4f28419497f9722a3daafe3b4186f6b6457e0612d5e60405190565b80805b0390a3565b600080516020613b688339815191526000612d836104208261124b565b6001600160a01b03851614612ddd5750612dd3612b1d8361149787612b0a8861295a7f17307eab39ab6107e8899845ad3d59bd9653f200f220920489ca2b5937696c31996005612d619a01611a56565b9361034860405190565b630b61174360e31b81526001600160a01b0384166004820152602490fd5b919082018092116113ba57565b610322610322610322926001600160401b031690565b612e636113db612e5e6003612e57600080516020613b8883398151915295612e52600080516020613c088339815191525490565b612dfb565b9401611566565b612e08565b11612e6a57565b636a29267160e01b6000908152600490fd5b60001981146113ba5760010190565b91927fbd5c95affecf80a51b513bb4eddd42724421b80ef31b07cee1b5b25d8ce5a05b90612ee761030c97612ecb600080516020613b8883398151915290565b97611a1c600460058b019a0199612ee18b6111f5565b906119c8565b612ef9612ef3876111f5565b84613472565b612f116123ae6123a8612f0b896111f5565b9661140c565b94612f1e6123c160405190565b0390a4612f32612f2d826111f5565b612e7c565b90611e53565b9050519061030c826102e7565b906020828203126102fa5761032291612f38565b6001600160a01b03918216815291166020820152604081019190915260806060820181905261032292910190610389565b3d15612fa457612f993d611aed565b903d6000602084013e565b606090565b600094929390843b612fbd6113db88610b21565b11612fcb575b505050505050565b60209286612fdb6114978861140c565b92613002612fe860405190565b97889687958694630a85bd0160e11b865260048601612f59565b03925af1600091816130a9575b506130665750613025565b388080808080612fc3565b61302d612f8a565b805161303b6113db85610b21565b0361305e5750633250574960e11b82526001600160a01b03166004820152602490fd5b602081519101fd5b613080630a85bd0160e11b5b916001600160e01b03191690565b0361308c57505061301a565b633250574960e11b82526001600160a01b03166004820152602490fd5b6130cc91925060203d6020116130d3575b6130c481836107b6565b810190612f45565b903861300f565b503d6130ba565b6130e46040611aed565b7f4142434445464748494a4b4c4d4e4f505152535455565758595a61626364656660208201527f6768696a6b6c6d6e6f707172737475767778797a303132333435363738392b2f604082015290565b6103226130da565b610322613133565b600161032291613151606090565b5061315a61313b565b906134ac565b63780e9d6360e01b6001600160e01b031982161490811561317f575090565b61032291506135d7565b612a6761032291613198600090565b506002600080516020613b68833981519152611a16565b929091600080516020613b68833981519152918081156132d8575b6131e7575b505061030c929160046131e292016119c8565b612ce2565b6131f084612a00565b916000906132006104208361124b565b6001600160a01b0382161415806132bc575b806132a9575b61328c5750506131e29261030c95949260049261323c575b509250819394506131cf565b6132459061140c565b61324e8661140c565b61325785610b21565b917f8c5be1e5ebec7d5bd14f71427d1e84f3dd0314c0f7b2291e5b200ac8c7c3b92561328260405190565b600090a438613230565b63a9fbf51f60e01b82526001600160a01b03166004820152602490fd5b506132b761151a8286612930565b613218565b506001600160a01b0381166001600160a01b0385161415613212565b506132e6610420600061124b565b6001600160a01b03831614156131ca565b9091613304908383613622565b91613334613312600061124b565b6001600160a01b0381166001600160a01b03861603613374576104208361383b565b6001600160a01b0383160361334d57610322915061390c565b6001600160a01b0382166001600160a01b0384160361336b57505090565b61032291613880565b6001600160a01b0384166001600160a01b03861614610420576104208386613778565b906133a561151a828461213f565b6133ad575050565b63e2517d3f60e01b60009081529161153b9160046105c7565b6103227ff0c57e16840df040f15088dc2f81fe391c3923bec73e23a9662efc9c229c6a00610b21565b6103226133c6565b61340261151a613983565b61340857565b631afcd79f60e31b6000908152600490fd5b9061030c916134276133f7565b90600161030c9261344d613446600080516020613b6883398151915290565b9182611e3f565b01611e3f565b9061030c9161341a565b61030c9061296b6133f7565b61030c9061345d565b61030c9161347e611b09565b91613996565b369037565b9061030c61349f61349984611aed565b93610874565b601f190160208401613484565b90919080516134be6113db6000610b21565b146135cc5781156135b657600161350d6135086134f96134ef6134df865190565b6134e96002610b21565b90612dfb565b6114836003610b21565b6135036004610b21565b61139c565b613489565b93019160208401928290835184016020810191825193600084525b82811061356f575050505261353c57505090565b60039051068060011461355e57600214613554575090565b6001603d91035390565b50600281603d600181940353035390565b6003600191989293980191603f828080865194848660121c168901518153018385600c1c16880151815301828460061c168701518153019116840151815301969190613528565b600161350d6135086134ef6134df6134f9865190565b505050610322611b09565b6380ac58cd60e01b6001600160e01b0319821614908115613607575b81156135fd575090565b61032291506139b7565b6001600160e01b03198116635b5e139f60e01b1491506135f3565b906136b6826131e2836002600080516020613b688339815191526136a161364884613189565b9960008b866136568361124b565b936001600160a01b0385166001600160a01b03821603613767575b505050613684826001600160a01b031690565b6001600160a01b038d1603613729575b506001600160a01b031690565b6001600160a01b038616036136fd57016119c8565b6136cb6136c5612b1d8561140c565b91610b21565b917fddf252ad1be2c89b69c2b068fc378daa952ba7f163c4a11628f55a4df523b3ef6136f660405190565b600090a490565b61372461370a6001610b21565b612f3261371a8860038601611a56565b916103bd836111f5565b611a16565b613735908287816131af565b6137618b612f326137536137496001610b21565b9260038801611a56565b9161375d836111f5565b0390565b38613694565b613770926139cb565b8b8638613671565b6137d560009161030c93611a96846137d561379e600080516020613b4883398151915290565b936137a886612052565b956137c66001870191856137bf611a9b86866119c8565b9801611a56565b958781036137da575b506119c8565b6116d1565b613807906137fc6137ee611a9b8b8b6119c8565b613801816137fc858d6119c8565b611e53565b846119c8565b386137cf565b90815491680100000000000000008310156107d7578261383591600161030c95018155611b50565b906116b4565b61030c9061386e600080516020613b4883398151915261032260028201916137fc856003613867865490565b93016119c8565b61380d565b919082039182116113ba57565b6137fc61030c926001611a9693611a16836137fc6138a9600080516020613b4883398151915290565b936138c56138b682612052565b6138bf88610b21565b90613873565b98899186611a56565b634e487b7160e01b600052603160045260246000fd5b805480156139075760001901906139046138fe8383611b50565b906116d1565b55565b6138ce565b61397e61030c9161032260006137d5613930600080516020613b4883398151915290565b936002850194611a966003613950613946895490565b6138bf6001610b21565b9201916137fc613970611bcd613969611a9b88886119c8565b938b611b50565b61380181613835858d611b50565b6138e4565b6103226000613990612c7c565b01611c04565b9061030c92916139a68282613a2b565b336139b1600061124b565b90612fa9565b6139c76301ffc9a760e01b613072565b1490565b906139da61151a848385613ab2565b6139e357505050565b60009283926139f761242f6104208661124b565b03613a1457637e27328960e01b8352600483015250602481010390fd5b63177e802f60e01b83526112fa91600484016105c7565b600091613a378361124b565b916001600160a01b0383166001600160a01b03821614613a9457613a5c918391612b65565b613a6e6001600160a01b03831661242f565b03613a77575050565b6339e3563760e11b82526001600160a01b03166004820152602490fd5b633250574960e11b84526001600160a01b0383166004850152602484fd5b90613ac0610420600061124b565b6001600160a01b03821614159283613ad9575b50505090565b919250906001600160a01b0382166001600160a01b03841614928315613b33575b508215613b0c575b5050388080613ad3565b613b2b919250613b1e61242f91612a41565b926001600160a01b031690565b143880613b02565b613b409193508290612930565b9138613afa56fe645e039705490088daad89bae25049a34f4a9072d398537b1ab2425f24cbed0080bb2b638cc20bc4d0a60d66940f3ab4a00c1d7b313497ca82fb0b4ab00793008303e9d27d04c843c8d4a08966b1e1be0214fc0b3375d79db0a8252068c41f008303e9d27d04c843c8d4a08966b1e1be0214fc0b3375d79db0a8252068c41f0673e573f9566d61418a34d5de3ff49360f9c51fec37f7486551670290f6285dab9f2df0fed2c77648de5860a4cc508cd0818c85b8b8a1ab4ceeef8d981c8956a6645e039705490088daad89bae25049a34f4a9072d398537b1ab2425f24cbed0202dd7bc7dec4dceedda775e58dd541e08a116c6c53815c0bd028192f7b626800a264697066735822122071df77c788117723bbf6ef0d3cdd822dc7b189449f9e080dabd8858c7fd3635164736f6c634300081c0033",
  "linkReferences": {},
  "deployedLinkReferences": {}
}