{
  "_format": "hh-sol-artifact-1",
  "contractName": "BookNFT",
  "sourceName": "contracts/BookNFT.sol",
  "abi": [
    {
      "inputs": [],
      "name": "AccessControlBadConfirmation",
      "type": "error"
    },
    {
      "inputs": [
        {
          "internalType": "address",
          "name": "account",
          "type": "address"
        },
        {
          "internalType": "bytes32",
          "name": "neededRole",
          "type": "bytes32"
        }
      ],
      "name": "AccessControlUnauthorizedAccount",
      "type": "error"
    },
    {
      "inputs": [],
      "name": "ERC721EnumerableForbiddenBatchMint",
      "type": "error"
    },
    {
      "inputs": [
        {
          "internalType": "address",
          "name": "sender",
          "type": "address"
        },
        {
          "internalType": "uint256",
          "name": "tokenId",
          "type": "uint256"
        },
        {
          "internalType": "address",
          "name": "owner",
          "type": "address"
        }
      ],
      "name": "ERC721IncorrectOwner",
      "type": "error"
    },
    {
      "inputs": [
        {
          "internalType": "address",
          "name": "operator",
          "type": "address"
        },
        {
          "internalType": "uint256",
          "name": "tokenId",
          "type": "uint256"
        }
      ],
      "name": "ERC721InsufficientApproval",
      "type": "error"
    },
    {
      "inputs": [
        {
          "internalType": "address",
          "name": "approver",
          "type": "address"
        }
      ],
      "name": "ERC721InvalidApprover",
      "type": "error"
    },
    {
      "inputs": [
        {
          "internalType": "address",
          "name": "operator",
          "type": "address"
        }
      ],
      "name": "ERC721InvalidOperator",
      "type": "error"
    },
    {
      "inputs": [
        {
          "internalType": "address",
          "name": "owner",
          "type": "address"
        }
      ],
      "name": "ERC721InvalidOwner",
      "type": "error"
    },
    {
      "inputs": [
        {
          "internalType": "address",
          "name": "receiver",
          "type": "address"
        }
      ],
      "name": "ERC721InvalidReceiver",
      "type": "error"
    },
    {
      "inputs": [
        {
          "internalType": "address",
          "name": "sender",
          "type": "address"
        }
      ],
      "name": "ERC721InvalidSender",
      "type": "error"
    },
    {
      "inputs": [
        {
          "internalType": "uint256",
          "name": "tokenId",
          "type": "uint256"
        }
      ],
      "name": "ERC721NonexistentToken",
      "type": "error"
    },
    {
      "inputs": [
        {
          "internalType": "address",
          "name": "owner",
          "type": "address"
        },
        {
          "internalType": "uint256",
          "name": "index",
          "type": "uint256"
        }
      ],
      "name": "ERC721OutOfBoundsIndex",
      "type": "error"
    },
    {
      "inputs": [],
      "name": "ErrEmptyName",
      "type": "error"
    },
    {
      "inputs": [],
      "name": "ErrInvalidSymbol",
      "type": "error"
    },
    {
      "inputs": [],
      "name": "ErrMaxSupplyZero",
      "type": "error"
    },
    {
      "inputs": [],
      "name": "ErrNftNoSupply",
      "type": "error"
    },
    {
      "inputs": [
        {
          "internalType": "uint256",
          "name": "nextTokenId",
          "type": "uint256"
        }
      ],
      "name": "ErrTokenIdMintFails",
      "type": "error"
    },
    {
      "inputs": [],
      "name": "ErrUnauthorized",
      "type": "error"
    },
    {
      "inputs": [],
      "name": "InvalidInitialization",
      "type": "error"
    },
    {
      "inputs": [],
      "name": "NotInitializing",
      "type": "error"
    },
    {
      "inputs": [
        {
          "internalType": "address",
          "name": "owner",
          "type": "address"
        }
      ],
      "name": "OwnableInvalidOwner",
      "type": "error"
    },
    {
      "inputs": [
        {
          "internalType": "address",
          "name": "account",
          "type": "address"
        }
      ],
      "name": "OwnableUnauthorizedAccount",
      "type": "error"
    },
    {
      "anonymous": false,
      "inputs": [
        {
          "indexed": false,
          "internalType": "address",
          "name": "previousAdmin",
          "type": "address"
        },
        {
          "indexed": false,
          "internalType": "address",
          "name": "newAdmin",
          "type": "address"
        }
      ],
      "name": "AdminChanged",
      "type": "event"
    },
    {
      "anonymous": false,
      "inputs": [
        {
          "indexed": true,
          "internalType": "address",
          "name": "owner",
          "type": "address"
        },
        {
          "indexed": true,
          "internalType": "address",
          "name": "approved",
          "type": "address"
        },
        {
          "indexed": true,
          "internalType": "uint256",
          "name": "tokenId",
          "type": "uint256"
        }
      ],
      "name": "Approval",
      "type": "event"
    },
    {
      "anonymous": false,
      "inputs": [
        {
          "indexed": true,
          "internalType": "address",
          "name": "owner",
          "type": "address"
        },
        {
          "indexed": true,
          "internalType": "address",
          "name": "operator",
          "type": "address"
        },
        {
          "indexed": false,
          "internalType": "bool",
          "name": "approved",
          "type": "bool"
        }
      ],
      "name": "ApprovalForAll",
      "type": "event"
    },
    {
      "anonymous": false,
      "inputs": [
        {
          "indexed": true,
          "internalType": "address",
          "name": "beacon",
          "type": "address"
        }
      ],
      "name": "BeaconUpgraded",
      "type": "event"
    },
    {
      "anonymous": false,
      "inputs": [],
      "name": "ContractURIUpdated",
      "type": "event"
    },
    {
      "anonymous": false,
      "inputs": [
        {
          "indexed": false,
          "internalType": "uint64",
          "name": "version",
          "type": "uint64"
        }
      ],
      "name": "Initialized",
      "type": "event"
    },
    {
      "anonymous": false,
      "inputs": [
        {
          "indexed": true,
          "internalType": "address",
          "name": "previousOwner",
          "type": "address"
        },
        {
          "indexed": true,
          "internalType": "address",
          "name": "newOwner",
          "type": "address"
        }
      ],
      "name": "OwnershipTransferred",
      "type": "event"
    },
    {
      "anonymous": false,
      "inputs": [
        {
          "indexed": true,
          "internalType": "bytes32",
          "name": "role",
          "type": "bytes32"
        },
        {
          "indexed": true,
          "internalType": "bytes32",
          "name": "previousAdminRole",
          "type": "bytes32"
        },
        {
          "indexed": true,
          "internalType": "bytes32",
          "name": "newAdminRole",
          "type": "bytes32"
        }
      ],
      "name": "RoleAdminChanged",
      "type": "event"
    },
    {
      "anonymous": false,
      "inputs": [
        {
          "indexed": true,
          "internalType": "bytes32",
          "name": "role",
          "type": "bytes32"
        },
        {
          "indexed": true,
          "internalType": "address",
          "name": "account",
          "type": "address"
        },
        {
          "indexed": true,
          "internalType": "address",
          "name": "sender",
          "type": "address"
        }
      ],
      "name": "RoleGranted",
      "type": "event"
    },
    {
      "anonymous": false,
      "inputs": [
        {
          "indexed": true,
          "internalType": "bytes32",
          "name": "role",
          "type": "bytes32"
        },
        {
          "indexed": true,
          "internalType": "address",
          "name": "account",
          "type": "address"
        },
        {
          "indexed": true,
          "internalType": "address",
          "name": "sender",
          "type": "address"
        }
      ],
      "name": "RoleRevoked",
      "type": "event"
    },
    {
      "anonymous": false,
      "inputs": [
        {
          "indexed": true,
          "internalType": "address",
          "name": "from",
          "type": "address"
        },
        {
          "indexed": true,
          "internalType": "address",
          "name": "to",
          "type": "address"
        },
        {
          "indexed": true,
          "internalType": "uint256",
          "name": "tokenId",
          "type": "uint256"
        }
      ],
      "name": "Transfer",
      "type": "event"
    },
    {
      "anonymous": false,
      "inputs": [
        {
          "indexed": true,
          "internalType": "address",
          "name": "from",
          "type": "address"
        },
        {
          "indexed": true,
          "internalType": "address",
          "name": "to",
          "type": "address"
        },
        {
          "indexed": true,
          "internalType": "uint256",
          "name": "tokenId",
          "type": "uint256"
        },
        {
          "indexed": false,
          "internalType": "string",
          "name": "memo",
          "type": "string"
        }
      ],
      "name": "TransferWithMemo",
      "type": "event"
    },
    {
      "anonymous": false,
      "inputs": [
        {
          "indexed": true,
          "internalType": "address",
          "name": "implementation",
          "type": "address"
        }
      ],
      "name": "Upgraded",
      "type": "event"
    },
    {
      "inputs": [],
      "name": "DEFAULT_ADMIN_ROLE",
      "outputs": [
        {
          "internalType": "bytes32",
          "name": "",
          "type": "bytes32"
        }
      ],
      "stateMutability": "view",
      "type": "function"
    },
    {
      "inputs": [],
      "name": "MINTER_ROLE",
      "outputs": [
        {
          "internalType": "bytes32",
          "name": "",
          "type": "bytes32"
        }
      ],
      "stateMutability": "view",
      "type": "function"
    },
    {
      "inputs": [],
      "name": "UPDATER_ROLE",
      "outputs": [
        {
          "internalType": "bytes32",
          "name": "",
          "type": "bytes32"
        }
      ],
      "stateMutability": "view",
      "type": "function"
    },
    {
      "inputs": [
        {
          "internalType": "address",
          "name": "to",
          "type": "address"
        },
        {
          "internalType": "uint256",
          "name": "tokenId",
          "type": "uint256"
        }
      ],
      "name": "approve",
      "outputs": [],
      "stateMutability": "nonpayable",
      "type": "function"
    },
    {
      "inputs": [
        {
          "internalType": "address",
          "name": "owner",
          "type": "address"
        }
      ],
      "name": "balanceOf",
      "outputs": [
        {
          "internalType": "uint256",
          "name": "",
          "type": "uint256"
        }
      ],
      "stateMutability": "view",
      "type": "function"
    },
    {
      "inputs": [
        {
          "internalType": "address[]",
          "name": "tos",
          "type": "address[]"
        },
        {
          "internalType": "string[]",
          "name": "memos",
          "type": "string[]"
        },
        {
          "internalType": "string[]",
          "name": "metadataList",
          "type": "string[]"
        }
      ],
      "name": "batchMint",
      "outputs": [],
      "stateMutability": "nonpayable",
      "type": "function"
    },
    {
      "inputs": [
        {
          "internalType": "address",
          "name": "from",
          "type": "address"
        },
        {
          "internalType": "address[]",
          "name": "tos",
          "type": "address[]"
        },
        {
          "internalType": "uint256[]",
          "name": "tokenIds",
          "type": "uint256[]"
        },
        {
          "internalType": "string[]",
          "name": "memos",
          "type": "string[]"
        }
      ],
      "name": "batchTransferWithMemo",
      "outputs": [],
      "stateMutability": "nonpayable",
      "type": "function"
    },
    {
      "inputs": [
        {
          "internalType": "uint256",
          "name": "tokenId",
          "type": "uint256"
        }
      ],
      "name": "burn",
      "outputs": [],
      "stateMutability": "nonpayable",
      "type": "function"
    },
    {
      "inputs": [],
      "name": "contractURI",
      "outputs": [
        {
          "internalType": "string",
          "name": "",
          "type": "string"
        }
      ],
      "stateMutability": "view",
      "type": "function"
    },
    {
      "inputs": [
        {
          "internalType": "uint256",
          "name": "tokenId",
          "type": "uint256"
        }
      ],
      "name": "getApproved",
      "outputs": [
        {
          "internalType": "address",
          "name": "",
          "type": "address"
        }
      ],
      "stateMutability": "view",
      "type": "function"
    },
    {
      "inputs": [],
      "name": "getBookConfig",
      "outputs": [
        {
          "components": [
            {
              "internalType": "string",
              "name": "name",
              "type": "string"
            },
            {
              "internalType": "string",
              "name": "symbol",
              "type": "string"
            },
            {
              "internalType": "string",
              "name": "metadata",
              "type": "string"
            },
            {
              "internalType": "uint64",
              "name": "max_supply",
              "type": "uint64"
            }
          ],
          "internalType": "struct BookConfig",
          "name": "",
          "type": "tuple"
        }
      ],
      "stateMutability": "view",
      "type": "function"
    },
    {
      "inputs": [],
      "name": "getCurrentIndex",
      "outputs": [
        {
          "internalType": "uint256",
          "name": "",
          "type": "uint256"
        }
      ],
      "stateMutability": "view",
      "type": "function"
    },
    {
      "inputs": [],
      "name": "getProtocolBeacon",
      "outputs": [
        {
          "internalType": "address",
          "name": "",
          "type": "address"
        }
      ],
      "stateMutability": "view",
      "type": "function"
    },
    {
      "inputs": [
        {
          "internalType": "bytes32",
          "name": "role",
          "type": "bytes32"
        }
      ],
      "name": "getRoleAdmin",
      "outputs": [
        {
          "internalType": "bytes32",
          "name": "",
          "type": "bytes32"
        }
      ],
      "stateMutability": "view",
      "type": "function"
    },
    {
      "inputs": [
        {
          "internalType": "bytes32",
          "name": "role",
          "type": "bytes32"
        },
        {
          "internalType": "address",
          "name": "account",
          "type": "address"
        }
      ],
      "name": "grantRole",
      "outputs": [],
      "stateMutability": "nonpayable",
      "type": "function"
    },
    {
      "inputs": [
        {
          "internalType": "bytes32",
          "name": "role",
          "type": "bytes32"
        },
        {
          "internalType": "address",
          "name": "account",
          "type": "address"
        }
      ],
      "name": "hasRole",
      "outputs": [
        {
          "internalType": "bool",
          "name": "",
          "type": "bool"
        }
      ],
      "stateMutability": "view",
      "type": "function"
    },
    {
      "inputs": [
        {
          "components": [
            {
              "internalType": "address",
              "name": "creator",
              "type": "address"
            },
            {
              "internalType": "address[]",
              "name": "updaters",
              "type": "address[]"
            },
            {
              "internalType": "address[]",
              "name": "minters",
              "type": "address[]"
            },
            {
              "components": [
                {
                  "internalType": "string",
                  "name": "name",
                  "type": "string"
                },
                {
                  "internalType": "string",
                  "name": "symbol",
                  "type": "string"
                },
                {
                  "internalType": "string",
                  "name": "metadata",
                  "type": "string"
                },
                {
                  "internalType": "uint64",
                  "name": "max_supply",
                  "type": "uint64"
                }
              ],
              "internalType": "struct BookConfig",
              "name": "config",
              "type": "tuple"
            }
          ],
          "internalType": "struct MsgNewBookNFT",
          "name": "msgNewBookNFT",
          "type": "tuple"
        }
      ],
      "name": "initialize",
      "outputs": [],
      "stateMutability": "nonpayable",
      "type": "function"
    },
    {
      "inputs": [
        {
          "internalType": "address",
          "name": "owner",
          "type": "address"
        },
        {
          "internalType": "address",
          "name": "operator",
          "type": "address"
        }
      ],
      "name": "isApprovedForAll",
      "outputs": [
        {
          "internalType": "bool",
          "name": "",
          "type": "bool"
        }
      ],
      "stateMutability": "view",
      "type": "function"
    },
    {
      "inputs": [],
      "name": "maxSupply",
      "outputs": [
        {
          "internalType": "uint64",
          "name": "",
          "type": "uint64"
        }
      ],
      "stateMutability": "view",
      "type": "function"
    },
    {
      "inputs": [
        {
          "internalType": "address",
          "name": "to",
          "type": "address"
        },
        {
          "internalType": "string[]",
          "name": "memos",
          "type": "string[]"
        },
        {
          "internalType": "string[]",
          "name": "metadataList",
          "type": "string[]"
        }
      ],
      "name": "mint",
      "outputs": [],
      "stateMutability": "nonpayable",
      "type": "function"
    },
    {
      "inputs": [],
      "name": "name",
      "outputs": [
        {
          "internalType": "string",
          "name": "",
          "type": "string"
        }
      ],
      "stateMutability": "view",
      "type": "function"
    },
    {
      "inputs": [],
      "name": "owner",
      "outputs": [
        {
          "internalType": "address",
          "name": "",
          "type": "address"
        }
      ],
      "stateMutability": "view",
      "type": "function"
    },
    {
      "inputs": [
        {
          "internalType": "uint256",
          "name": "tokenId",
          "type": "uint256"
        }
      ],
      "name": "ownerOf",
      "outputs": [
        {
          "internalType": "address",
          "name": "",
          "type": "address"
        }
      ],
      "stateMutability": "view",
      "type": "function"
    },
    {
      "inputs": [],
      "name": "renounceOwnership",
      "outputs": [],
      "stateMutability": "nonpayable",
      "type": "function"
    },
    {
      "inputs": [
        {
          "internalType": "bytes32",
          "name": "role",
          "type": "bytes32"
        },
        {
          "internalType": "address",
          "name": "callerConfirmation",
          "type": "address"
        }
      ],
      "name": "renounceRole",
      "outputs": [],
      "stateMutability": "nonpayable",
      "type": "function"
    },
    {
      "inputs": [
        {
          "internalType": "bytes32",
          "name": "role",
          "type": "bytes32"
        },
        {
          "internalType": "address",
          "name": "account",
          "type": "address"
        }
      ],
      "name": "revokeRole",
      "outputs": [],
      "stateMutability": "nonpayable",
      "type": "function"
    },
    {
      "inputs": [
        {
          "internalType": "uint256",
          "name": "",
          "type": "uint256"
        },
        {
          "internalType": "uint256",
          "name": "salePrice",
          "type": "uint256"
        }
      ],
      "name": "royaltyInfo",
      "outputs": [
        {
          "internalType": "address",
          "name": "receiver",
          "type": "address"
        },
        {
          "internalType": "uint256",
          "name": "royaltyAmount",
          "type": "uint256"
        }
      ],
      "stateMutability": "view",
      "type": "function"
    },
    {
      "inputs": [
        {
          "internalType": "uint256",
          "name": "fromTokenId",
          "type": "uint256"
        },
        {
          "internalType": "address[]",
          "name": "tos",
          "type": "address[]"
        },
        {
          "internalType": "string[]",
          "name": "memos",
          "type": "string[]"
        },
        {
          "internalType": "string[]",
          "name": "metadataList",
          "type": "string[]"
        }
      ],
      "name": "safeMintWithTokenId",
      "outputs": [],
      "stateMutability": "nonpayable",
      "type": "function"
    },
    {
      "inputs": [
        {
          "internalType": "address",
          "name": "from",
          "type": "address"
        },
        {
          "internalType": "address",
          "name": "to",
          "type": "address"
        },
        {
          "internalType": "uint256",
          "name": "tokenId",
          "type": "uint256"
        }
      ],
      "name": "safeTransferFrom",
      "outputs": [],
      "stateMutability": "nonpayable",
      "type": "function"
    },
    {
      "inputs": [
        {
          "internalType": "address",
          "name": "from",
          "type": "address"
        },
        {
          "internalType": "address",
          "name": "to",
          "type": "address"
        },
        {
          "internalType": "uint256",
          "name": "tokenId",
          "type": "uint256"
        },
        {
          "internalType": "bytes",
          "name": "data",
          "type": "bytes"
        }
      ],
      "name": "safeTransferFrom",
      "outputs": [],
      "stateMutability": "nonpayable",
      "type": "function"
    },
    {
      "inputs": [
        {
          "internalType": "address",
          "name": "operator",
          "type": "address"
        },
        {
          "internalType": "bool",
          "name": "approved",
          "type": "bool"
        }
      ],
      "name": "setApprovalForAll",
      "outputs": [],
      "stateMutability": "nonpayable",
      "type": "function"
    },
    {
      "inputs": [
        {
          "internalType": "uint96",
          "name": "royaltyFraction",
          "type": "uint96"
        }
      ],
      "name": "setRoyaltyFraction",
      "outputs": [],
      "stateMutability": "nonpayable",
      "type": "function"
    },
    {
      "inputs": [
        {
          "internalType": "bytes4",
          "name": "interfaceId",
          "type": "bytes4"
        }
      ],
      "name": "supportsInterface",
      "outputs": [
        {
          "internalType": "bool",
          "name": "",
          "type": "bool"
        }
      ],
      "stateMutability": "view",
      "type": "function"
    },
    {
      "inputs": [],
      "name": "symbol",
      "outputs": [
        {
          "internalType": "string",
          "name": "",
          "type": "string"
        }
      ],
      "stateMutability": "view",
      "type": "function"
    },
    {
      "inputs": [
        {
          "internalType": "uint256",
          "name": "index",
          "type": "uint256"
        }
      ],
      "name": "tokenByIndex",
      "outputs": [
        {
          "internalType": "uint256",
          "name": "",
          "type": "uint256"
        }
      ],
      "stateMutability": "view",
      "type": "function"
    },
    {
      "inputs": [
        {
          "internalType": "address",
          "name": "owner",
          "type": "address"
        },
        {
          "internalType": "uint256",
          "name": "index",
          "type": "uint256"
        }
      ],
      "name": "tokenOfOwnerByIndex",
      "outputs": [
        {
          "internalType": "uint256",
          "name": "",
          "type": "uint256"
        }
      ],
      "stateMutability": "view",
      "type": "function"
    },
    {
      "inputs": [
        {
          "internalType": "uint256",
          "name": "_tokenId",
          "type": "uint256"
        }
      ],
      "name": "tokenURI",
      "outputs": [
        {
          "internalType": "string",
          "name": "",
          "type": "string"
        }
      ],
      "stateMutability": "view",
      "type": "function"
    },
    {
      "inputs": [],
      "name": "totalSupply",
      "outputs": [
        {
          "internalType": "uint256",
          "name": "",
          "type": "uint256"
        }
      ],
      "stateMutability": "view",
      "type": "function"
    },
    {
      "inputs": [
        {
          "internalType": "address",
          "name": "from",
          "type": "address"
        },
        {
          "internalType": "address",
          "name": "to",
          "type": "address"
        },
        {
          "internalType": "uint256",
          "name": "tokenId",
          "type": "uint256"
        }
      ],
      "name": "transferFrom",
      "outputs": [],
      "stateMutability": "nonpayable",
      "type": "function"
    },
    {
      "inputs": [
        {
          "internalType": "address",
          "name": "newOwner",
          "type": "address"
        }
      ],
      "name": "transferOwnership",
      "outputs": [],
      "stateMutability": "nonpayable",
      "type": "function"
    },
    {
      "inputs": [
        {
          "internalType": "address",
          "name": "from",
          "type": "address"
        },
        {
          "internalType": "address",
          "name": "to",
          "type": "address"
        },
        {
          "internalType": "uint256",
          "name": "_tokenId",
          "type": "uint256"
        },
        {
          "internalType": "string",
          "name": "memo",
          "type": "string"
        }
      ],
      "name": "transferWithMemo",
      "outputs": [],
      "stateMutability": "nonpayable",
      "type": "function"
    },
    {
      "inputs": [
        {
          "components": [
            {
              "internalType": "string",
              "name": "name",
              "type": "string"
            },
            {
              "internalType": "string",
              "name": "symbol",
              "type": "string"
            },
            {
              "internalType": "string",
              "name": "metadata",
              "type": "string"
            },
            {
              "internalType": "uint64",
              "name": "max_supply",
              "type": "uint64"
            }
          ],
          "internalType": "struct BookConfig",
          "name": "config",
          "type": "tuple"
        }
      ],
      "name": "update",
      "outputs": [],
      "stateMutability": "nonpayable",
      "type": "function"
    }
  ],
  "bytecode": "0x6080604052346019576040516138d661001f82396138d690f35b600080fdfe6080604052600436101561001257600080fd5b60003560e01c806301ffc9a7146102b257806306fdde03146102ad578063081812fc146102a8578063095ea7b3146102a35780630d9005ae1461029e57806318160ddd1461029957806323b872dd14610294578063248a9ca31461028f5780632a55205a1461028a5780632b588091146102855780632f2ff15d146102805780632f745c591461027b57806336568abe1461027657806342842e0e1461027157806342966c681461026c57806347e63380146102675780634f6ccce71461026257806352c375e21461025d5780636352211e1461025857806370a0823114610253578063715018a61461024e5780638da5cb5b1461024957806391d148541461024457806395d89b411461023f578063a217fddf1461023a578063a22cb46514610235578063a5210ff614610230578063a75c72bd1461022b578063b88d4fde14610226578063bc09e59314610221578063c7c48e701461021c578063c87b56dd14610217578063d539139314610212578063d547741f1461020d578063d5abeb0114610208578063dab45bbd14610203578063db0b09b9146101fe578063dcb49c73146101f9578063e8a3d485146101f4578063e985e9c5146101ef578063f2fde38b146101ea5763f570d174036102ca57610f90565b610f78565b610f5c565b610f25565b610f09565b610e64565b610dd8565b610d5a565b610d41565b610d1a565b610cff565b610ce0565b610cb1565b610c65565b610bf7565b610b62565b610ac2565b610a6f565b610a35565b610a19565b6109fe565b6109e6565b6109cb565b61099c565b610984565b6106cd565b610694565b61067c565b610663565b61064a565b61062e565b610615565b6105da565b610578565b610524565b61050b565b6104b9565b61048e565b610470565b6103fc565b6103a2565b6102f9565b6001600160e01b031981165b036102ca57565b600080fd5b905035906102dc826102b7565b565b906020828203126102ca576102f2916102cf565b90565b9052565b346102ca5761032761031461030f3660046102de565b610fab565b6040515b91829182901515815260200190565b0390f35b60009103126102ca57565b60005b8381106103495750506000910152565b8181015183820152602001610339565b61037a61038360209361038d9361036e815190565b80835293849260200190565b95869101610336565b601f01601f191690565b0190565b60208082526102f292910190610359565b346102ca576103b236600461032b565b6103276103bd6110cc565b60405191829182610391565b806102c3565b905035906102dc826103c9565b906020828203126102ca576102f2916103cf565b6001600160a01b031690565b346102ca576103276104176104123660046103dc565b6110e7565b604051918291826001600160a01b03909116815260200190565b6001600160a01b0381166102c3565b905035906102dc82610431565b91906040838203126102ca576102f29060206104698286610440565b94016103cf565b346102ca5761048961048336600461044d565b906110fa565b604051005b346102ca5761049e36600461032b565b6103276104a9611116565b6040519182918290815260200190565b346102ca576104c936600461032b565b6103276104a96000805160206138618339815191525490565b90916060828403126102ca576102f26104fb8484610440565b9360406104698260208701610440565b346102ca5761048961051e3660046104e2565b9161117d565b346102ca576103276104a961053a3660046103dc565b61121e565b91906040838203126102ca576102f290602061046982866103cf565b6001600160a01b0390911681526040810192916102dc9160200152565b346102ca5761059161058b36600461053f565b90611335565b9061032761059e60405190565b9283928361055b565b908160809103126102ca5790565b906020828203126102ca5781356001600160401b0381116102ca576102f292016105a7565b346102ca576104896105ed3660046105b5565b61189b565b91906040838203126102ca576102f290602061060e82866103cf565b9401610440565b346102ca576104896106283660046105f2565b906118c7565b346102ca576103276104a961064436600461044d565b906118e5565b346102ca5761048961065d3660046105f2565b9061193e565b346102ca576104896106763660046104e2565b91611996565b346102ca5761048961068f3660046103dc565b6119aa565b346102ca576106a436600461032b565b6103277f73e573f9566d61418a34d5de3ff49360f9c51fec37f7486551670290f6285dab6104a9565b346102ca576103276104a96106e33660046103dc565b611a13565b634e487b7160e01b600052604160045260246000fd5b90601f01601f191681019081106001600160401b0382111761071f57604052565b6106e8565b906102dc61073160405190565b92836106fe565b6001600160401b03811161071f5760208091020190565b9092919261076461075f82610738565b610724565b93818552602080860192028301928184116102ca57915b8383106107885750505050565b602080916107968486610440565b81520192019161077b565b9080601f830112156102ca578160206102f29335910161074f565b6001600160401b03811161071f57602090601f01601f19160190565b90826000939282370152565b909291926107f461075f826107bc565b93818552818301116102ca576102dc9160208501906107d8565b9080601f830112156102ca578160206102f2933591016107e4565b6001600160401b0381166102c3565b905035906102dc82610829565b9190916080818403126102ca5761085c6080610724565b9281356001600160401b0381116102ca578161087991840161080e565b845260208201356001600160401b0381116102ca578161089a91840161080e565b602085015260408201356001600160401b0381116102ca57826108c4836060936108cf960161080e565b604087015201610838565b6060830152565b9190916080818403126102ca576108ed6080610724565b926108f88183610440565b845260208201356001600160401b0381116102ca57816109199184016107a1565b602085015260408201356001600160401b0381116102ca578161093d9184016107a1565b604085015260608201356001600160401b0381116102ca576108cf9201610845565b906020828203126102ca5781356001600160401b0381116102ca576102f292016108d6565b346102ca5761048961099736600461095f565b611ef0565b346102ca576103276104176109b23660046103dc565b611ef9565b906020828203126102ca576102f291610440565b346102ca576103276104a96109e13660046109b7565b611f02565b346102ca576109f636600461032b565b610489611f81565b346102ca57610a0e36600461032b565b610327610417611f9c565b346102ca57610327610314610a2f3660046105f2565b90611fd8565b346102ca57610a4536600461032b565b6103276103bd61200e565b6102f26102f26102f29290565b6102f26000610a50565b6102f2610a5d565b346102ca57610a7f36600461032b565b6103276104a9610a67565b8015156102c3565b905035906102dc82610a8a565b91906040838203126102ca576102f2906020610abb8286610440565b9401610a92565b346102ca57610489610ad5366004610a9f565b90612027565b909182601f830112156102ca578135916001600160401b0383116102ca5760200192602083028401116102ca57565b6060818303126102ca57610b1e8282610440565b9260208201356001600160401b0381116102ca5783610b3e918401610adb565b92909360408201356001600160401b0381116102ca57610b5e9201610adb565b9091565b346102ca57610489610b75366004610b0a565b93929092612136565b9190916080818403126102ca57610b958382610440565b9260208201356001600160401b0381116102ca5781610bb5918401610adb565b92909360408201356001600160401b0381116102ca5783610bd7918401610adb565b92909360608201356001600160401b0381116102ca57610b5e9201610adb565b346102ca57610489610c0a366004610b7e565b95949094939193612196565b906080828203126102ca57610c2b8183610440565b92610c398260208501610440565b92610c4783604083016103cf565b9260608201356001600160401b0381116102ca576102f2920161080e565b346102ca57610489610c78366004610c16565b9291909161227c565b6001600160601b0381166102c3565b905035906102dc82610c81565b906020828203126102ca576102f291610c90565b346102ca57610489610cc4366004610c9d565b612337565b9190916080818403126102ca57610b9583826103cf565b346102ca57610489610cf3366004610cc9565b9594909493919361241f565b346102ca576103276103bd610d153660046103dc565b612511565b346102ca57610d2a36600461032b565b6103276000805160206138418339815191526104a9565b346102ca57610489610d543660046105f2565b90612559565b346102ca57610d6a36600461032b565b610327610d75612563565b604051918291826001600160401b03909116815260200190565b906060828203126102ca5781356001600160401b0381116102ca5781610db6918401610adb565b92909360208201356001600160401b0381116102ca5783610b3e918401610adb565b346102ca57610489610deb366004610d8f565b94939093929192612618565b906102f290606080610e42610e30610e1e6080860160008901518782036000890152610359565b60208801518682036020880152610359565b60408701518582036040870152610359565b9401516001600160401b0316910152565b60208082526102f292910190610df7565b346102ca57610e7436600461032b565b610327610e7f61265d565b60405191829182610e53565b909182601f830112156102ca578135916001600160401b0383116102ca5760200192600183028401116102ca57565b906080828203126102ca57610ecf8183610440565b92610edd8260208501610440565b92610eeb83604083016103cf565b9260608201356001600160401b0381116102ca57610b5e9201610e8b565b346102ca57610489610f1c366004610eba565b9392909261272b565b346102ca57610f3536600461032b565b6103276103bd612777565b91906040838203126102ca576102f290602061060e8286610440565b346102ca57610327610314610f72366004610f40565b906127a0565b346102ca57610489610f8b3660046109b7565b612827565b346102ca57610fa036600461032b565b610327610417612830565b63152a902d60e11b6001600160e01b0319821614908115610fca575090565b6102f29150612847565b634e487b7160e01b600052602260045260246000fd5b906001600283049216801561100a575b602083101461100557565b610fd4565b91607f1691610ffa565b8054600093929161103161102783610fea565b8085529360200190565b9160018116908115611083575060011461104a57505050565b61105d9192939450600052602060002090565b916000925b81841061106f5750500190565b805484840152602090930192600101611062565b92949550505060ff1916825215156020020190565b906102f291611014565b906102dc6110bc926110b360405190565b93848092611098565b03836106fe565b6102f2906110a2565b6102f260006000805160206138018339815191525b016110c3565b6102f2906110f481612870565b506128b1565b6102dc9133916128dc565b6102f29081565b6102f29054611105565b6102f260046000805160206138018339815191525b0161110c565b6103f06102f26102f29290565b6102f290611131565b6001600160a01b0390911681526060810193926102dc92909160409161116e906020830152565b01906001600160a01b03169052565b909160009261118b8461113e565b6001600160a01b0381166001600160a01b038316146111f157506111b29082335b916128e9565b916001600160a01b0381166001600160a01b038416036111d25750505050565b6364283d7b60e01b845283926111ed92909160048501611147565b0390fd5b633250574960e11b85526001600160a01b03166004850152602484fd5b905b600052602052604060002090565b600161112b6102f29261122f600090565b5060006000805160206138818339815191525b0161120e565b6102f2905b6001600160601b031690565b6102f29054611248565b6102f26102f26102f2926001600160601b031690565b634e487b7160e01b600052601160045260246000fd5b919061129a565b9290565b918083029281840414901517156112ad57565b611279565b634e487b7160e01b600052601260045260246000fd5b906112d2565b9190565b9081156112dd570490565b6112b2565b6102f2906103f0906001600160a01b031682565b6102f2906112e2565b6102f2906112f6565b905051906102dc82610431565b906020828203126102ca576102f291611308565b6040513d6000823e3d90fd5b5061136b61137c91611345600090565b50611365611360600080516020613821833981519152611259565b611263565b9061128f565b611376612710610a50565b906112c8565b61138f61138a61138a612830565b6112ff565b602061139a60405190565b63a5bd523560e01b815291829060049082905afa9081156113ec576000916113c0575091565b6113e2915060203d6020116113e5575b6113da81836106fe565b810190611315565b91565b503d6113d0565b611329565b61142361141f7f73e573f9566d61418a34d5de3ff49360f9c51fec37f7486551670290f6285dab5b33610a2f565b1590565b611430576102dc90611760565b636609677b60e11b600090815260045b036000fd5b6102f2903690610845565b356102f281610829565b6102f2905b6001600160401b031690565b6102f2905461145a565b1561147c57565b60405162461bcd60e51b8152602060048201526011602482015270457272537570706c79446563726561736560781b6044820152606490fd5b903590601e1936829003018212156102ca57018035906001600160401b0382116102ca57602001913682900383136102ca57565b6102f29136916107e4565b8054600093929161150761102783610fea565b9160018116908115611083575060011461152057505050565b6115339192939450600052602060002090565b916000925b8184106115455750500190565b805484840152602090930192600101611538565b906102f2916114f4565b906102dc6110bc9261157460405190565b93848092611559565b6102f290611563565b1561158d57565b635e15017160e11b6000908152600490fd5b9160001960089290920291821b911b5b9181191691161790565b91906115ca6102f26115d293610a50565b90835461159f565b9055565b6102dc916000916115b9565b8181106115ed575050565b806115fb60006001936115d6565b016115e2565b9190601f811161161057505050565b6116226102dc93600052602060002090565b906020601f840181900483019310611644575b6020601f9091010401906115e2565b9091508190611635565b91906001600160401b03821161071f576116728261166c8554610fea565b85611601565b600090601f83116001146116ad576115d29291600091836116a2575b5050600019600883021c1916906002021790565b01359050388061168e565b90601f198316916116c385600052602060002090565b92825b818110611701575091600293918560019694106116e7575b50505002019055565b0135600019601f84166008021c19165b90553880806116de565b929360206001819287860135815501950193016116c6565b906102dc929161164e565b906001600160401b03906115af565b61145f6102f26102f2926001600160401b031690565b906117596102f26115d292611733565b8254611724565b60026118699161177761177282611445565b6128f4565b61183f6000805160206138018339815191529161185f6060820161185961179d82611450565b916117c960038801936117c26117b561145f8761146b565b916001600160401b031690565b1015611475565b6118546020860161184e6117e96117e3610b5e848b6114b5565b906114e9565b6117fb6117f4825190565b9160200190565b209161182f60018c01936118296112ce61181a6118158890565b61157d565b6118256117f4825190565b2090565b14611586565b61184860008c61183f8c806114b5565b92909101611719565b886114b5565b91611719565b611450565b90611749565b60408101906114b5565b7fa5d4097edda6d87cb9329af83fb3712ef77eeb13738ffe43cc35a4ce305ad96261189360405190565b80805b0390a1565b6102dc906113f1565b906102dc916118ba6118b58261121e565b612984565b906118c4916129af565b50565b906102dc916118a4565b90611210906112ff565b9061121090610a50565b6000805160206137c18339815191526119006102f283611f02565b831015611925579161191b6119209260006102f295016118d1565b6118db565b61110c565b63295f44f760e21b60009081526114408484600461055b565b90611948336103f0565b6001600160a01b03821603611960576118c491612a42565b63334bd91960e11b6000908152600490fd5b9061197f61075f836107bc565b918252565b6102f26000611972565b6102f2611984565b90916102dc926119a461198e565b9261227c565b6118c4906119b8600061113e565b90336111ac565b634e487b7160e01b600052603260045260246000fd5b80548210156119f8576119ef600191600052602060002090565b91020190600090565b6119bf565b6102f2916008021c81565b906102f291546119fd565b6000805160206137c1833981519152611a3b6102f26000805160206138618339815191525490565b821015611a58576102f2916002611a5292016119d5565b90611a08565b6000806111ed84611a688361113e565b63295f44f760e21b84526004840161055b565b6102f29060401c5b60ff1690565b6102f29054611a7b565b61145f6102f26102f29290565b9068ff00000000000000009060401b6115af565b90611ac46102f26115d292151590565b8254611aa0565b6102f590611a93565b6020810192916102dc9190611acb565b7ff0c57e16840df040f15088dc2f81fe391c3923bec73e23a9662efc9c229c6a009081611b1c611b1661141f83611a89565b9161146b565b90600092611b2984611a93565b6001600160401b0384161480611c11575b600193611b496117b586611a93565b149081611bed575b155b9081611be4575b50611bd557611b839082611b7a86611b7187611a93565b98019788611749565b611bc657611d51565b611b8c57505050565b611bba611896927fc7f505b2f371ae2175ee4913f4499e1f2633a7b5936321eed1cdaeb6115181d294611ab4565b60405191829182611ad4565b611bd08487611ab4565b611d51565b63f92ee8a960e01b8452600484fd5b15905038611b5a565b9050611b53611bfb306112ff565b3b611c086112ce88610a50565b14919050611b51565b5081611b3a565b90611c21815190565b906001600160401b03821161071f57611c3e8261166c8554610fea565b602090601f8311600114611c78576115d2929160009183611c6d575050600019600883021c1916906002021790565b01519050388061168e565b601f19831691611c8d85600052602060002090565b9260005b818110611cc557509160029391856001969410611cb15750505002019055565b01516000196008601f8516021c19166116f7565b91936020600181928787015181550195019201611c91565b906102dc91611c18565b90600019906115af565b90611d016102f26115d292610a50565b8254611ce7565b906bffffffffffffffffffffffff199060601b6115af565b90611d306102f26115d2926112ff565b8254611d08565b90611d40825190565b8110156119f8576020809102010190565b6060810191611d6b60008451015160208551015190612ac6565b611d73612ad8565b611d7b612ad8565b611d94611d8f83516001600160a01b031690565b612af5565b611d9c612ad8565b611da683516128f4565b611e096040600080516020613801833981519152855151909590611dca9087611cdd565b611ddc60208251015160018801611cdd565b611dfd611df46060835101516001600160401b031690565b60038801611749565b51015160028501611cdd565b611e2e611e166000610a50565b93611e248560048301611cf1565b6006339101611d20565b825b60408301611e406102f282515190565b821015611e915790611e85611e8c92611e7f611e7284611e6b60008051602061384183398151915290565b9351611d37565b516001600160a01b031690565b906129af565b5060010190565b611e30565b5050915b60208201611ea56102f282515190565b821015611eeb5781611e85611ee492611e7f611e72602096611e6b7f73e573f9566d61418a34d5de3ff49360f9c51fec37f7486551670290f6285dab90565b9050611e95565b505050565b6102dc90611ae4565b6102f290612870565b6000805160206137e18339815191526000611f1c8161113e565b6001600160a01b0381166001600160a01b03851614611f475750506102f291600361192092016118d1565b6322718ad960e21b82526001600160a01b03166004820152602490fd5b611f6c612afe565b6102dc6102dc611f7c600061113e565b612b61565b6102dc611f64565b6102f2906103f0565b6102f29054611f89565b6102f27f9016d09d72d40fdae2fd8ceac6b6234c7706214fd39c1cd1e609a0528c199300611f92565b6102f290611a83565b6102f29054611fc5565b6102f291600061200361200993611fed600090565b5082600080516020613881833981519152611242565b016118d1565b611fce565b6102f260016000805160206138018339815191526110e1565b6102dc919033612bce565b9392919061205061141f600080516020613841833981519152611419565b611430576102dc946120c0565b1561206457565b60405162461bcd60e51b815260206004820152601d60248201527f4572724d656d6f4d657461646174614c656e6774684d69736d617463680000006044820152606490fd5b908210156119f8576020610b5e92028101906114b5565b949092849290916120d284831461205d565b6120db86612c86565b6120e56000610a50565b865b81101561212c576121256120e79161211f8a6121003390565b61210b84898d6120a9565b90612117868d8d6120a9565b949093612cf3565b60010190565b90506120e5565b5095505050505050565b906102dc94939291612032565b91908110156119f8576020020190565b356102f281610431565b356102f2816103c9565b91906103838161217e8161038d9560209181520190565b80956107d8565b60208082526102f293910191612167565b949391909695966121a76000610a50565b8381101561227157808787877fbd5c95affecf80a51b513bb4eddd42724421b80ef31b07cee1b5b25d8ce5a05b61224161224d8f61223988612247926122338f8f9d8f9161226c9f6122188f828f96612228879361222399610676612223878b61221d6122188361222d9e8b612143565b612153565b94612143565b61215d565b612143565b9b612143565b986120a9565b9390976112ff565b946112ff565b94610a50565b9461226361225a60405190565b92839283612185565b0390a460010190565b6121a7565b505050505050509050565b906102dc93929161228e83838361117d565b33612e16565b6102f29060601c6103f0565b6102f29054612294565b336122d56122c86103f06000805160206138218339815191526122a0565b916001600160a01b031690565b03611430576102dc9061231f565b906001600160601b03906115af565b61124d6102f26102f2926001600160601b031690565b906123186102f26115d2926122f2565b82546122e3565b6102dc90600080516020613821833981519152612308565b6102dc906122aa565b95949392919061236061141f600080516020613841833981519152611419565b611430576102dc9593919094929661238a6112ce6112966000805160206138618339815191525490565b036123ee57839561239a87612c86565b6123a46000610a50565b875b8110156123e3576123dc8161211f8b8a8a8a612117866123d4818e6122338f6123a69e6122189161222d3390565b9490936120a9565b90506123a4565b509650505050505050565b60006114406124096000805160206138618339815191525490565b630499fe0b60e01b835260048301526024820190565b906102dc969594939291612340565b8054600093929161244561244183610fea565b9390565b9160018116908115612496575060011461245e57505050565b6124719192939450600052602060002090565b6000905b8382106124825750500190565b600181602092548486015201910190612475565b60ff191683525050811515909102019150565b7f646174613a6170706c69636174696f6e2f6a736f6e3b20636861727365743d758152641d198b4e0b60da1b60208201526102f291906025019061242e565b906102dc6124f560405190565b80936125056020830191826124a9565b908103825203836106fe565b6125396102f291612520606090565b5060056000805160206138018339815191525b016118db565b6124e8565b906102dc9161254f6118b58261121e565b906118c491612a42565b906102dc9161253e565b6102f27f8303e9d27d04c843c8d4a08966b1e1be0214fc0b3375d79db0a8252068c41f0361146b565b94939291906125ab61141f600080516020613841833981519152611419565b611430576102dc959391959492906125c86125c38590565b612c86565b6125d26000610a50565b8181101561260e576126099061211f89886125fd84886125f7612218838b3397612143565b946120a9565b90612117868c8c6120a9565b6125d2565b5050505050509050565b906102dc959493929161258c565b6102f26080610724565b612638612626565b906060825260208080808501606081520160608152016000905250565b6102f2612630565b612665612655565b506000805160206138018339815191526102f27f8303e9d27d04c843c8d4a08966b1e1be0214fc0b3375d79db0a8252068c41f0161271b6127147f8303e9d27d04c843c8d4a08966b1e1be0214fc0b3375d79db0a8252068c41f0261270861270d6126ef7f8303e9d27d04c843c8d4a08966b1e1be0214fc0b3375d79db0a8252068c41f0361146b565b956127086127046126fe612626565b9a6110c3565b8a52565b6110c3565b6020880152565b6040850152565b6001600160401b03166060830152565b936127656122476122417fbd5c95affecf80a51b513bb4eddd42724421b80ef31b07cee1b5b25d8ce5a05b9495969761138a888883611996565b9461277261225a60405190565b0390a4565b6102f27f8303e9d27d04c843c8d4a08966b1e1be0214fc0b3375d79db0a8252068c41f026124e8565b6102f2916127ca612009926127b3600090565b5060056000805160206137e1833981519152612003565b6118d1565b6102dc906127db612afe565b60006127e68161113e565b6001600160a01b0381166001600160a01b0384161461280a5750506102dc90612b61565b631e4fbdf760e01b82526001600160a01b03166004820152602490fd5b6102dc906127cf565b6102f26000805160206138218339815191526122a0565b637965db0b60e01b6001600160e01b0319821614908115612866575090565b6102f29150612f47565b61287981612f70565b906000906128896103f08361113e565b6001600160a01b0384161461289d57505090565b637e27328960e01b82526004820152602490fd5b6128d76102f2916128c0600090565b5060046000805160206137e1833981519152612533565b611f92565b916001916102dc93612f96565b6102f29291906130de565b805151612900565b5190565b906000916129106112ce84610a50565b14612974576129236128fc602083015190565b61292f6112ce84610a50565b1461296457606001516001600160401b031661294d6117b583611a93565b146129555750565b63b798bafb60e01b8152600490fd5b50635e15017160e11b8152600490fd5b50631499986360e11b8152600490fd5b6102dc90339061317e565b9060ff906115af565b906129a86102f26115d292151590565b825461298f565b6000805160206138818339815191526129cb61141f8484611fd8565b15612a3a5760016129e784600061200386826129ec970161120e565b612998565b612a06612a006129fa339390565b936112ff565b916112ff565b917f2f8788117e7eff1d82e926ec794901d17c78024a50270940304540a733656f0d612a3160405190565b600090a4600190565b505050600090565b600080516020613881833981519152612a5b8383611fd8565b15612a3a5760006129e784826120038682612a76970161120e565b612a84612a006129fa339390565b917ff6391f5c32d9c69d2a47ea670b442974b53935d1edc7fd64eb21e047a839171b612a3160405190565b906102dc91612abc6131ad565b906102dc91613209565b906102dc91612aaf565b6102dc6131ad565b6102dc612ad0565b6102dc90612aec6131ad565b6102dc9061321f565b6102dc90612ae0565b612b06611f9c565b3390612b11826122c8565b03612b195750565b63118cdaa760e01b60009081526001600160a01b039091166004526024036000fd5b906001600160a01b03906115af565b90612b5a6102f26115d2926112ff565b8254612b3b565b612b9b612a007f9016d09d72d40fdae2fd8ceac6b6234c7706214fd39c1cd1e609a0528c19930061138a84612b9583611f92565b92612b4a565b907f8be0079c531659141344cd1fd0a4f28419497f9722a3daafe3b4186f6b6457e0612bc660405190565b80805b0390a3565b6000805160206137e18339815191526000612beb6103f08261113e565b6001600160a01b03851614612c455750612c3b6129fa8361138a876129e7886127ca7f17307eab39ab6107e8899845ad3d59bd9653f200f220920489ca2b5937696c31996005612bc99a016118d1565b9361031860405190565b630b61174360e31b81526001600160a01b0384166004820152602490fd5b919082018092116112ad57565b6102f26102f26102f2926001600160401b031690565b612ccb6112ce612cc66003612cbf60008051602061380183398151915295612cba6000805160206138618339815191525490565b612c63565b940161146b565b612c70565b11612cd257565b636a29267160e01b6000908152600490fd5b60001981146112ad5760010190565b91927fbd5c95affecf80a51b513bb4eddd42724421b80ef31b07cee1b5b25d8ce5a05b90612d546102dc97612d3360008051602061380183398151915290565b97612d4f600460058b019a0199612d498b61110c565b906118db565b611719565b612d66612d608761110c565b84613228565b612d7e612247612241612d788961110c565b966112ff565b94612d8b61225a60405190565b0390a4612d9f612d9a8261110c565b612ce4565b90611cf1565b905051906102dc826102b7565b906020828203126102ca576102f291612da5565b6001600160a01b0391821681529116602082015260408101919091526080606082018190526102f292910190610359565b3d15612e1157612e063d611972565b903d6000602084013e565b606090565b600094929390843b612e2a6112ce88610a50565b11612e38575b505050505050565b60209286612e4861138a886112ff565b92612e6f612e5560405190565b97889687958694630a85bd0160e11b865260048601612dc6565b03925af160009181612f16575b50612ed35750612e92565b388080808080612e30565b612e9a612df7565b8051612ea86112ce85610a50565b03612ecb5750633250574960e11b82526001600160a01b03166004820152602490fd5b805190602001fd5b612eed630a85bd0160e11b5b916001600160e01b03191690565b03612ef9575050612e87565b633250574960e11b82526001600160a01b03166004820152602490fd5b612f3991925060203d602011612f40575b612f3181836106fe565b810190612db2565b9038612e7c565b503d612f27565b63780e9d6360e01b6001600160e01b0319821614908115612f66575090565b6102f2915061323a565b6128d76102f291612f7f600090565b5060026000805160206137e1833981519152612533565b9290916000805160206137e1833981519152918081156130bf575b612fce575b50506102dc92916004612fc992016118db565b612b4a565b612fd784612870565b91600090612fe76103f08361113e565b6001600160a01b0382161415806130a3575b80613090575b613073575050612fc9926102dc959492600492613023575b50925081939450612fb6565b61302c906112ff565b613035866112ff565b61303e85610a50565b917f8c5be1e5ebec7d5bd14f71427d1e84f3dd0314c0f7b2291e5b200ac8c7c3b92561306960405190565b600090a438613017565b63a9fbf51f60e01b82526001600160a01b03166004820152602490fd5b5061309e61141f82866127a0565b612fff565b506001600160a01b0381166001600160a01b0385161415612ff9565b506130cd6103f0600061113e565b6001600160a01b0383161415612fb1565b90916130eb908383613285565b9161311b6130f9600061113e565b6001600160a01b0381166001600160a01b0386160361315b576103f08361349e565b6001600160a01b03831603613134576102f2915061356f565b6001600160a01b0382166001600160a01b0384160361315257505090565b6102f2916134e3565b6001600160a01b0384166001600160a01b038616146103f0576103f083866133db565b9061318c61141f8284611fd8565b613194575050565b63e2517d3f60e01b60009081529161144091600461055b565b6131b861141f6135e6565b6131be57565b631afcd79f60e31b6000908152600490fd5b906102dc916131dd6131ad565b9060016102dc926132036131fc6000805160206137e183398151915290565b9182611cdd565b01611cdd565b906102dc916131d0565b6102dc906127db6131ad565b6102dc90613213565b6102dc9161323461198e565b9161360f565b6380ac58cd60e01b6001600160e01b031982161490811561326a575b8115613260575090565b6102f29150613630565b6001600160e01b03198116635b5e139f60e01b149150613256565b9061331982612fc98360026000805160206137e18339815191526133046132ab84612f70565b9960008b866132b98361113e565b936001600160a01b0385166001600160a01b038216036133ca575b5050506132e7826001600160a01b031690565b6001600160a01b038d160361338c575b506001600160a01b031690565b6001600160a01b0386160361336057016118db565b61332e6133286129fa856112ff565b91610a50565b917fddf252ad1be2c89b69c2b068fc378daa952ba7f163c4a11628f55a4df523b3ef61335960405190565b600090a490565b61338761336d6001610a50565b612d9f61337d88600386016118d1565b9161038d8361110c565b612533565b61339890828781612f96565b6133c48b612d9f6133b66133ac6001610a50565b92600388016118d1565b916133c08361110c565b0390565b386132f7565b6133d392613644565b8b86386132d4565b6134386000916102dc9361191b846134386134016000805160206137c183398151915290565b9361340b86611f02565b9561342960018701918561342261192086866118db565b98016118d1565b9587810361343d575b506118db565b6115d6565b61346a9061345f6134516119208b8b6118db565b6134648161345f858d6118db565b611cf1565b846118db565b38613432565b908154916801000000000000000083101561071f57826134989160016102dc950181556119d5565b906115b9565b6102dc906134d16000805160206137c18339815191526102f2600282019161345f8560036134ca865490565b93016118db565b613470565b919082039182116112ad57565b61345f6102dc92600161191b936125338361345f61350c6000805160206137c183398151915290565b9361352861351982611f02565b61352288610a50565b906134d6565b988991866118d1565b634e487b7160e01b600052603160045260246000fd5b8054801561356a57600019019061356761356183836119d5565b906115d6565b55565b613531565b6135e16102dc916102f260006134386135936000805160206137c183398151915290565b93600285019461191b60036135b36135a9895490565b6135226001610a50565b92019161345f6135d3611a526135cc61192088886118db565b938b6119d5565b61346481613498858d6119d5565b613547565b6102f27ff0c57e16840df040f15088dc2f81fe391c3923bec73e23a9662efc9c229c6a00611a89565b906102dc929161361f82826136a4565b3361362a600061113e565b90612e16565b6136406301ffc9a760e01b612edf565b1490565b9061365361141f84838561372b565b61365c57505050565b60009283926136706122c86103f08661113e565b0361368d57637e27328960e01b8352600483015250602481010390fd5b63177e802f60e01b83526111ed916004840161055b565b6000916136b08361113e565b916001600160a01b0383166001600160a01b0382161461370d576136d59183916128e9565b6136e76001600160a01b0383166122c8565b036136f0575050565b6339e3563760e11b82526001600160a01b03166004820152602490fd5b633250574960e11b84526001600160a01b0383166004850152602484fd5b906137396103f0600061113e565b6001600160a01b03821614159283613752575b50505090565b919250906001600160a01b0382166001600160a01b038416149283156137ac575b508215613785575b505038808061374c565b6137a49192506137976122c8916128b1565b926001600160a01b031690565b14388061377b565b6137b991935082906127a0565b913861377356fe645e039705490088daad89bae25049a34f4a9072d398537b1ab2425f24cbed0080bb2b638cc20bc4d0a60d66940f3ab4a00c1d7b313497ca82fb0b4ab00793008303e9d27d04c843c8d4a08966b1e1be0214fc0b3375d79db0a8252068c41f008303e9d27d04c843c8d4a08966b1e1be0214fc0b3375d79db0a8252068c41f069f2df0fed2c77648de5860a4cc508cd0818c85b8b8a1ab4ceeef8d981c8956a6645e039705490088daad89bae25049a34f4a9072d398537b1ab2425f24cbed0202dd7bc7dec4dceedda775e58dd541e08a116c6c53815c0bd028192f7b626800a264697066735822122024a6f369106a6e1ec56a662f8e89ecd864b1c81c4f9869586e8b2788103fdf1f64736f6c634300081c0033",
  "linkReferences": {},
  "deployedLinkReferences": {}
}