{
  "_format": "hh-sol-artifact-1",
  "contractName": "LikeProtocol",
  "sourceName": "contracts/LikeProtocol.sol",
  "abi": [
    {
      "inputs": [
        {
          "internalType": "address",
          "name": "target",
          "type": "address"
        }
      ],
      "name": "AddressEmptyCode",
      "type": "error"
    },
    {
      "inputs": [
        {
          "internalType": "address",
          "name": "implementation",
          "type": "address"
        }
      ],
      "name": "BookNFTInvalidImplementation",
      "type": "error"
    },
    {
      "inputs": [
        {
          "internalType": "address",
          "name": "implementation",
          "type": "address"
        }
      ],
      "name": "ERC1967InvalidImplementation",
      "type": "error"
    },
    {
      "inputs": [],
      "name": "ERC1967NonPayable",
      "type": "error"
    },
    {
      "inputs": [],
      "name": "EnforcedPause",
      "type": "error"
    },
    {
      "inputs": [],
      "name": "ExpectedPause",
      "type": "error"
    },
    {
      "inputs": [],
      "name": "FailedCall",
      "type": "error"
    },
    {
      "inputs": [],
      "name": "InvalidInitialization",
      "type": "error"
    },
    {
      "inputs": [],
      "name": "NotInitializing",
      "type": "error"
    },
    {
      "inputs": [
        {
          "internalType": "address",
          "name": "owner",
          "type": "address"
        }
      ],
      "name": "OwnableInvalidOwner",
      "type": "error"
    },
    {
      "inputs": [
        {
          "internalType": "address",
          "name": "account",
          "type": "address"
        }
      ],
      "name": "OwnableUnauthorizedAccount",
      "type": "error"
    },
    {
      "inputs": [],
      "name": "UUPSUnauthorizedCallContext",
      "type": "error"
    },
    {
      "inputs": [
        {
          "internalType": "bytes32",
          "name": "slot",
          "type": "bytes32"
        }
      ],
      "name": "UUPSUnsupportedProxiableUUID",
      "type": "error"
    },
    {
      "anonymous": false,
      "inputs": [
        {
          "indexed": false,
          "internalType": "address",
          "name": "newImplementation",
          "type": "address"
        }
      ],
      "name": "BookNFTImplementationUpgraded",
      "type": "event"
    },
    {
      "anonymous": false,
      "inputs": [
        {
          "indexed": false,
          "internalType": "uint64",
          "name": "version",
          "type": "uint64"
        }
      ],
      "name": "Initialized",
      "type": "event"
    },
    {
      "anonymous": false,
      "inputs": [
        {
          "indexed": false,
          "internalType": "address",
          "name": "bookNFT",
          "type": "address"
        },
        {
          "components": [
            {
              "internalType": "string",
              "name": "name",
              "type": "string"
            },
            {
              "internalType": "string",
              "name": "symbol",
              "type": "string"
            },
            {
              "internalType": "string",
              "name": "metadata",
              "type": "string"
            },
            {
              "internalType": "uint64",
              "name": "max_supply",
              "type": "uint64"
            }
          ],
          "indexed": false,
          "internalType": "struct BookConfig",
          "name": "config",
          "type": "tuple"
        }
      ],
      "name": "NewBookNFT",
      "type": "event"
    },
    {
      "anonymous": false,
      "inputs": [
        {
          "indexed": true,
          "internalType": "address",
          "name": "previousOwner",
          "type": "address"
        },
        {
          "indexed": true,
          "internalType": "address",
          "name": "newOwner",
          "type": "address"
        }
      ],
      "name": "OwnershipTransferred",
      "type": "event"
    },
    {
      "anonymous": false,
      "inputs": [
        {
          "indexed": false,
          "internalType": "address",
          "name": "account",
          "type": "address"
        }
      ],
      "name": "Paused",
      "type": "event"
    },
    {
      "anonymous": false,
      "inputs": [
        {
          "indexed": false,
          "internalType": "address",
          "name": "account",
          "type": "address"
        }
      ],
      "name": "Unpaused",
      "type": "event"
    },
    {
      "anonymous": false,
      "inputs": [
        {
          "indexed": true,
          "internalType": "address",
          "name": "implementation",
          "type": "address"
        }
      ],
      "name": "Upgraded",
      "type": "event"
    },
    {
      "inputs": [],
      "name": "UPGRADE_INTERFACE_VERSION",
      "outputs": [
        {
          "internalType": "string",
          "name": "",
          "type": "string"
        }
      ],
      "stateMutability": "view",
      "type": "function"
    },
    {
      "inputs": [],
      "name": "getRoyaltyReceiver",
      "outputs": [
        {
          "internalType": "address",
          "name": "",
          "type": "address"
        }
      ],
      "stateMutability": "view",
      "type": "function"
    },
    {
      "inputs": [],
      "name": "implementation",
      "outputs": [
        {
          "internalType": "address",
          "name": "",
          "type": "address"
        }
      ],
      "stateMutability": "view",
      "type": "function"
    },
    {
      "inputs": [
        {
          "internalType": "address",
          "name": "initialOwner",
          "type": "address"
        },
        {
          "internalType": "address",
          "name": "bookNFTImplementation",
          "type": "address"
        }
      ],
      "name": "initialize",
      "outputs": [],
      "stateMutability": "nonpayable",
      "type": "function"
    },
    {
      "inputs": [
        {
          "internalType": "address",
          "name": "classId",
          "type": "address"
        }
      ],
      "name": "isBookNFT",
      "outputs": [
        {
          "internalType": "bool",
          "name": "",
          "type": "bool"
        }
      ],
      "stateMutability": "view",
      "type": "function"
    },
    {
      "inputs": [
        {
          "components": [
            {
              "internalType": "address",
              "name": "creator",
              "type": "address"
            },
            {
              "internalType": "address[]",
              "name": "updaters",
              "type": "address[]"
            },
            {
              "internalType": "address[]",
              "name": "minters",
              "type": "address[]"
            },
            {
              "components": [
                {
                  "internalType": "string",
                  "name": "name",
                  "type": "string"
                },
                {
                  "internalType": "string",
                  "name": "symbol",
                  "type": "string"
                },
                {
                  "internalType": "string",
                  "name": "metadata",
                  "type": "string"
                },
                {
                  "internalType": "uint64",
                  "name": "max_supply",
                  "type": "uint64"
                }
              ],
              "internalType": "struct BookConfig",
              "name": "config",
              "type": "tuple"
            }
          ],
          "internalType": "struct MsgNewBookNFT",
          "name": "msgNewBookNFT",
          "type": "tuple"
        }
      ],
      "name": "newBookNFT",
      "outputs": [
        {
          "internalType": "address",
          "name": "bookAddress",
          "type": "address"
        }
      ],
      "stateMutability": "nonpayable",
      "type": "function"
    },
    {
      "inputs": [
        {
          "components": [
            {
              "internalType": "address",
              "name": "creator",
              "type": "address"
            },
            {
              "internalType": "address[]",
              "name": "updaters",
              "type": "address[]"
            },
            {
              "internalType": "address[]",
              "name": "minters",
              "type": "address[]"
            },
            {
              "components": [
                {
                  "internalType": "string",
                  "name": "name",
                  "type": "string"
                },
                {
                  "internalType": "string",
                  "name": "symbol",
                  "type": "string"
                },
                {
                  "internalType": "string",
                  "name": "metadata",
                  "type": "string"
                },
                {
                  "internalType": "uint64",
                  "name": "max_supply",
                  "type": "uint64"
                }
              ],
              "internalType": "struct BookConfig",
              "name": "config",
              "type": "tuple"
            }
          ],
          "internalType": "struct MsgNewBookNFT",
          "name": "msgNewBookNFT",
          "type": "tuple"
        },
        {
          "internalType": "uint96",
          "name": "royaltyFraction",
          "type": "uint96"
        }
      ],
      "name": "newBookNFTWithRoyalty",
      "outputs": [
        {
          "internalType": "address",
          "name": "bookAddress",
          "type": "address"
        }
      ],
      "stateMutability": "nonpayable",
      "type": "function"
    },
    {
      "inputs": [
        {
          "components": [
            {
              "internalType": "address",
              "name": "creator",
              "type": "address"
            },
            {
              "internalType": "address[]",
              "name": "updaters",
              "type": "address[]"
            },
            {
              "internalType": "address[]",
              "name": "minters",
              "type": "address[]"
            },
            {
              "components": [
                {
                  "internalType": "string",
                  "name": "name",
                  "type": "string"
                },
                {
                  "internalType": "string",
                  "name": "symbol",
                  "type": "string"
                },
                {
                  "internalType": "string",
                  "name": "metadata",
                  "type": "string"
                },
                {
                  "internalType": "uint64",
                  "name": "max_supply",
                  "type": "uint64"
                }
              ],
              "internalType": "struct BookConfig",
              "name": "config",
              "type": "tuple"
            }
          ],
          "internalType": "struct MsgNewBookNFT[]",
          "name": "msgNewBookNFTs",
          "type": "tuple[]"
        }
      ],
      "name": "newBookNFTs",
      "outputs": [],
      "stateMutability": "nonpayable",
      "type": "function"
    },
    {
      "inputs": [],
      "name": "owner",
      "outputs": [
        {
          "internalType": "address",
          "name": "",
          "type": "address"
        }
      ],
      "stateMutability": "view",
      "type": "function"
    },
    {
      "inputs": [],
      "name": "pause",
      "outputs": [],
      "stateMutability": "nonpayable",
      "type": "function"
    },
    {
      "inputs": [],
      "name": "paused",
      "outputs": [
        {
          "internalType": "bool",
          "name": "",
          "type": "bool"
        }
      ],
      "stateMutability": "view",
      "type": "function"
    },
    {
      "inputs": [],
      "name": "proxiableUUID",
      "outputs": [
        {
          "internalType": "bytes32",
          "name": "",
          "type": "bytes32"
        }
      ],
      "stateMutability": "view",
      "type": "function"
    },
    {
      "inputs": [],
      "name": "renounceOwnership",
      "outputs": [],
      "stateMutability": "nonpayable",
      "type": "function"
    },
    {
      "inputs": [
        {
          "internalType": "address",
          "name": "royaltyReceiver",
          "type": "address"
        }
      ],
      "name": "setRoyaltyReceiver",
      "outputs": [],
      "stateMutability": "nonpayable",
      "type": "function"
    },
    {
      "inputs": [
        {
          "internalType": "address",
          "name": "newOwner",
          "type": "address"
        }
      ],
      "name": "transferOwnership",
      "outputs": [],
      "stateMutability": "nonpayable",
      "type": "function"
    },
    {
      "inputs": [],
      "name": "unpause",
      "outputs": [],
      "stateMutability": "nonpayable",
      "type": "function"
    },
    {
      "inputs": [
        {
          "internalType": "address",
          "name": "newImplementation",
          "type": "address"
        }
      ],
      "name": "upgradeTo",
      "outputs": [],
      "stateMutability": "nonpayable",
      "type": "function"
    },
    {
      "inputs": [
        {
          "internalType": "address",
          "name": "newImplementation",
          "type": "address"
        },
        {
          "internalType": "bytes",
          "name": "data",
          "type": "bytes"
        }
      ],
      "name": "upgradeToAndCall",
      "outputs": [],
      "stateMutability": "payable",
      "type": "function"
    }
  ],
  "bytecode": "0x60a060405234602f57600e6034565b604051611ec861008482396080518181816112c201526114590152611ec890f35b600080fd5b603a603c565b565b603a603a603a603a6077565b605a90605d906001600160a01b031682565b90565b6001600160a01b031690565b605a906048565b605a906069565b607e306070565b60805256fe6080604052600436101561001257600080fd5b60003560e01c80633659cfe6146101325780633f4ba83a1461012d578063485cc95514610128578063498a1c33146101235780634f1ef2861461011e57806352d1902d146101195780635c60da1b146101145780635c975abb1461010f578063715018a61461010a5780638456cb59146101055780638da5cb5b146101005780638dc251e3146100fb578063a43e8cfa146100f6578063a5bd5235146100f1578063ad3cb1cc146100ec578063d2380f1d146100e7578063d274a43f146100e25763f2fde38b03610158576107e6565b6107cd565b61075a565b610733565b61066b565b610650565b610613565b6105f8565b6105e0565b6105c8565b61059b565b610580565b610555565b610541565b6104d6565b6101e8565b6101ad565b610180565b6001600160a01b031690565b90565b6001600160a01b0381165b0361015857565b600080fd5b9050359061016a82610146565b565b90602082820312610158576101439161015d565b346101585761019861019336600461016c565b6108f7565b60405180805b0390f35b600091031261015857565b34610158576101bd3660046101a2565b610198610913565b9190604083820312610158576101439060206101e1828661015d565b940161015d565b34610158576101986101fb3660046101c5565b90610b5c565b634e487b7160e01b600052604160045260246000fd5b90601f01601f191681019081106001600160401b0382111761023857604052565b610201565b9061016a61024a60405190565b9283610217565b6001600160401b0381116102385760208091020190565b9092919261027d61027882610251565b61023d565b938185526020808601920283019281841161015857915b8383106102a15750505050565b602080916102af848661015d565b815201920191610294565b9080601f830112156101585781602061014393359101610268565b6001600160401b03811161023857602090601f01601f19160190565b0190565b90826000939282370152565b90929192610311610278826102d5565b93818552818301116101585761016a9160208501906102f5565b9080601f830112156101585781602061014393359101610301565b6001600160401b038116610151565b9050359061016a82610346565b91909160808184031261015857610379608061023d565b9281356001600160401b038111610158578161039691840161032b565b845260208201356001600160401b03811161015857816103b791840161032b565b602085015260408201356001600160401b03811161015857826103e1836060936103ec960161032b565b604087015201610355565b6060830152565b9190916080818403126101585761040a608061023d565b92610415818361015d565b845260208201356001600160401b03811161015857816104369184016102ba565b602085015260408201356001600160401b038111610158578161045a9184016102ba565b604085015260608201356001600160401b038111610158576103ec9201610362565b6bffffffffffffffffffffffff8116610151565b9050359061016a8261047c565b9190604083820312610158578235906001600160401b0382116101585760206104cb826101439487016103f3565b9401610490565b9052565b346101585761019e6104f26104ec36600461049d565b90610c19565b604051918291826001600160a01b03909116815260200190565b91909160408184031261015857610523838261015d565b9260208201356001600160401b03811161015857610143920161032b565b61019861054f36600461050c565b90610c45565b34610158576105653660046101a2565b61019e610570610c92565b6040519182918290815260200190565b34610158576105903660046101a2565b61019e6104f2610caf565b34610158576105ab3660046101a2565b61019e6105b6610cdd565b60405191829182901515815260200190565b34610158576105d83660046101a2565b610198610d3e565b34610158576105f03660046101a2565b610198610d59565b34610158576106083660046101a2565b61019e6104f2610d61565b346101585761019861062636600461016c565b610db2565b906020828203126101585781356001600160401b0381116101585761014392016103f3565b346101585761019e6104f261066636600461062b565b611052565b346101585761067b3660046101a2565b61019e6104f261105d565b90610693610278836102d5565b918252565b6106a26005610686565b640352e302e360dc1b602082015290565b610143610698565b6101436106b3565b6101436106bb565b60005b8381106106de5750506000910152565b81810151838201526020016106ce565b61070f6107186020936102f193610703815190565b80835293849260200190565b958691016106cb565b601f01601f191690565b6020808252610143929101906106ee565b34610158576107433660046101a2565b61019e61074e6106c3565b60405191829182610722565b346101585761019e6105b661077036600461016c565b611076565b909182601f83011215610158578135916001600160401b03831161015857602001926020830284011161015857565b906020828203126101585781356001600160401b038111610158576107c99201610775565b9091565b34610158576101986107e03660046107a4565b90611145565b34610158576101986107f936600461016c565b6111a7565b61016a9061080a6111b0565b610872565b6101436101436101439290565b906001600160a01b03905b9181191691161790565b61014390610137906001600160a01b031682565b61014390610831565b61014390610845565b9061086761014361086e9261084e565b825461081c565b9055565b6000813b6108866108828361080f565b9190565b146108d757506108d2816104f27f079b6b58f11e5758083fb4e9adbfbee490af256ccca51426658d4349450125f19360016108cc600080516020611e7383398151915290565b01610857565b0390a1565b632e69aad960e21b81526001600160a01b03919091166004820152602490fd5b61016a906107fe565b6109086111b0565b61016a61016a611259565b61016a610900565b6101439060401c5b60ff1690565b610143905461091b565b610143905b6001600160401b031690565b6101439054610933565b6109386101436101439290565b906001600160401b0390610827565b610938610143610143926001600160401b031690565b9061099061014361086e9261096a565b825461095b565b9068ff00000000000000009060401b610827565b906109bb61014361086e92151590565b8254610997565b6104d29061094e565b60208101929161016a91906109c2565b6109e3611261565b91826109fe6109f86109f483610929565b1590565b91610944565b91600093610a0b8561094e565b6001600160401b0385161480610b01575b600194610a38610a2b8761094e565b916001600160401b031690565b149081610add575b155b9081610ad4575b50610ac55790610a739183610a6a87610a618861094e565b99019889610980565b610ab657610b08565b610a7c57505050565b610aaa6108d2927fc7f505b2f371ae2175ee4913f4499e1f2633a7b5936321eed1cdaeb6115181d2946109ab565b604051918291826109cb565b610ac085886109ab565b610b08565b63f92ee8a960e01b8552600485fd5b15905038610a49565b9050610a42610aeb3061084e565b3b610af86108828961080f565b14919050610a40565b5082610a1c565b90610b11611271565b610b1a8261128e565b610b22611271565b600080516020611e73833981519152906000813b610b426108828361080f565b146108d75750816108cc600292600161016a969501610857565b9061016a916109db565b906101439291610b74611297565b610b85565b6040513d6000823e3d90fd5b50909190610b9290611052565b91610ba4610b9f8461084e565b61084e565b803b1561015857610beb600092918392610bbd60405190565b948593849283919063bc09e59360e01b8352600483016bffffffffffffffffffffffff909116815260200190565b03925af18015610c1457610bfc5750565b61016a906000610c0c8183610217565b8101906101a2565b610b79565b61014391906000610b66565b9061016a91610c326112b7565b9061016a91610c4081611344565b611374565b9061016a91610c25565b61014390610c5b611443565b610c89565b6101437f360894a13ba1a3210667c828492db98dca3e2076cc3735a920a3ca505d382bbc61080f565b50610143610c60565b6101436000610c4f565b61014390610137565b6101439054610c9c565b6101436001600080516020611e738339815191525b01610ca5565b61014390610923565b6101439054610cca565b6101437fcd5ed15c6e187e77e9aee88184c21f4f2182ab5827cb3b7e07fbedcd63f03300610cd3565b610d0e6111b0565b61016a610d2c565b6101376101436101439290565b61014390610d16565b61016a610d396000610d23565b611485565b61016a610d06565b610d4e6111b0565b61016a61016a611558565b61016a610d46565b61014360007f9016d09d72d40fdae2fd8ceac6b6234c7706214fd39c1cd1e609a0528c199300610cc4565b61016a90610d986111b0565b61016a906002600080516020611e738339815191526108cc565b61016a90610d8c565b9061014391610dc8611297565b610f69565b90610ded610de6610ddc845190565b8084529260200190565b9260200190565b9060005b818110610dfe5750505090565b909192610e24610e1d60019286516001600160a01b0316815260200190565b9460200190565b929101610df1565b9061014390606080610e77610e65610e5360808601600089015187820360008901526106ee565b602088015186820360208801526106ee565b604087015185820360408701526106ee565b9401516001600160401b0316910152565b80516001600160a01b03168252610143916060610ec9610eb76080840160208601518582036020870152610dcd565b60408501518482036040860152610dcd565b920151906060818403910152610e2c565b602080825261014392910190610e88565b6001600160a01b03909116815261014391604082019160208184039101526106ee565b90610f189061084e565b600052602052604060002090565b9060ff90610827565b90610f3f61014361086e92151590565b8254610f26565b6001600160a01b0390911681526101439160408201916020818403910152610e2c565b5090600080516020611e7383398151915291610f8460405190565b632961baf160e11b6020820152610fb181610fa28460248301610eda565b60208201810382520382610217565b610fba3061084e565b604051916106c08301908382106001600160401b03831117610238578392610fe9926106c06117b38639610eeb565b03906000f0908115610c145760606110217fac1baa76250109980b8de5e2b9fcb185acd2bd5127c85c3e83cc05fb3aae5df89361084e565b9161103a6001611035856000819a01610f0e565b610f2f565b0151906108d261104960405190565b92839283610f46565b610143906000610dbb565b6101436002600080516020611e73833981519152610cc4565b61109a61014391611085600090565b50600080516020611e73833981519152610f0e565b610cd3565b9061016a916110ac611297565b611104565b634e487b7160e01b600052603260045260246000fd5b903590607e193682900301821215610158570190565b908210156110f457602061014392028101906110c7565b6110b1565b6101439036906103f3565b919091611111600061080f565b8381101561113f578061113361066661112e61113a9488876110dd565b6110f9565b5060010190565b611111565b50509050565b9061016a9161109f565b61016a9061115b6111b0565b600061116681610d23565b6001600160a01b0381166001600160a01b0384161461118a57505061016a90611485565b631e4fbdf760e01b82526001600160a01b03166004820152602490fd5b61016a9061114f565b6111b8610d61565b33906111cc825b916001600160a01b031690565b036111d45750565b63118cdaa760e01b60009081526001600160a01b039091166004526024036000fd5b6111fe611560565b61016a61122f6000807fcd5ed15c6e187e77e9aee88184c21f4f2182ab5827cb3b7e07fbedcd63f033005b01610f2f565b7f5db9ee0a495bf2e6ff9c91a7834c1ba4fdd244a5e8aa4e537bd38aeae4b073aa6108d2336104f2565b61016a6111f6565b6101436115ac565b61016a6115b4565b61016a611269565b61016a906112856115b4565b61016a906115e3565b61016a90611279565b61129f610cdd565b6112a557565b63d93c066560e01b6000908152600490fd5b6112c03061084e565b7f0000000000000000000000000000000000000000000000000000000000000000906112f46001600160a01b0383166111bf565b14908115611316575b5061130457565b63703e46dd60e11b6000908152600490fd5b90506113336111bf6113266115ec565b926001600160a01b031690565b1415386112fd565b5061016a6111b0565b61016a9061133b565b80610151565b9050519061016a8261134d565b906020828203126101585761014391611353565b90611381610b9f8361084e565b90602061138d60405190565b6352d1902d60e01b815292839060049082905afa60009281611412575b506113dc57505060016113ba5750565b634c9c8ce360e01b60009081526001600160a01b039091166004526024036000fd5b9092916113ea610143610c60565b84036113fb5761016a9293506115fc565b632a87526960e21b60009081526004859052602490fd5b61143591935060203d60201161143c575b61142d8183610217565b810190611360565b91386113aa565b503d611423565b61144c3061084e565b61147e6001600160a01b037f0000000000000000000000000000000000000000000000000000000000000000166111bf565b0361130457565b6114c56114bf7f9016d09d72d40fdae2fd8ceac6b6234c7706214fd39c1cd1e609a0528c199300610b9f846114b983610ca5565b92610857565b9161084e565b907f8be0079c531659141344cd1fd0a4f28419497f9722a3daafe3b4186f6b6457e06114f060405190565b600090a3565b6114fe611297565b61016a61152e600160007fcd5ed15c6e187e77e9aee88184c21f4f2182ab5827cb3b7e07fbedcd63f03300611229565b7f62e78cea01bee320cd4e420270b5ea74000d11b0c9f74754ebdbfc544b05a2586108d2336104f2565b61016a6114f6565b61156b6109f4610cdd565b61157157565b638dfc202b60e01b6000908152600490fd5b6101437ff0c57e16840df040f15088dc2f81fe391c3923bec73e23a9662efc9c229c6a0061080f565b610143611583565b6115bf6109f4611668565b6115c557565b631afcd79f60e31b6000908152600490fd5b61016a9061115b6115b4565b61016a906115d7565b6101436000610cc4610143610c60565b906116068261167b565b61160f8261084e565b7fbc7cd75a20ee27fd9adebab32041f755214dbc6bffa90cc0225b39da2e5c2d3b61163960405190565b600090a2805161164c610882600061080f565b111561165e5761165b91611702565b50565b505061016a6116c0565b6101436000611675611261565b01610929565b6000813b61168b6108828361080f565b146116a0579061016a916108cc610143610c60565b634c9c8ce360e01b81526001600160a01b03919091166004820152602490fd5b60006116cb8161080f565b34116116d45750565b63b398979f60e01b8152600490fd5b3d156116fd576116f23d610686565b903d6000602084013e565b606090565b60008061014393611711606090565b50602081519101845af46117236116e3565b919061172f5750611783565b8151906000916117416108828461080f565b148061176e575b61175157505090565b639996b31560e01b82526001600160a01b03166004820152602490fd5b50803b61177d6108828461080f565b14611748565b80516000906117946108828361080f565b11156117a35750602081519101fd5b63d6bda27560e01b8152600490fdfe60a060405261001561000f610171565b90610193565b6040516101ac61051482396080518160cf01526101ac90f35b634e487b7160e01b600052604160045260246000fd5b90601f01601f191681019081106001600160401b0382111761006557604052565b61002e565b9061007e61007760405190565b9283610044565b565b6001600160a01b031690565b90565b6001600160a01b038116036100a057565b600080fd5b9050519061007e8261008f565b6001600160401b03811161006557602090601f01601f19160190565b60005b8381106100e15750506000910152565b81810151838201526020016100d1565b90929192610106610101826100b2565b61006a565b93818552818301116100a05761007e9160208501906100ce565b9080601f830112156100a057815161008c926020016100f1565b9190916040818403126100a05761015183826100a5565b60208201519093906001600160401b0381116100a05761008c9201610120565b61018f6106c0803803806101848161006a565b92833981019061013a565b9091565b9061019e90826101f6565b608052565b61008c90610080906001600160a01b031682565b61008c906101a3565b61008c906101b7565b61008c61008c61008c9290565b906020828203126100a05761008c916100a5565b6040513d6000823e3d90fd5b6101ff81610345565b610208816101c0565b7f1cf3b03a6cf19fa2baba4df148e9dcabedea7f8a5c07840e207e5c089be95d3e61023260405190565b600090a2815161024961024560006101c9565b9190565b11156102cf5761025b610260916101c0565b6101c0565b90602061026c60405190565b635c60da1b60e01b815292839060049082905afa80156102ca576102989260009161029b575b50610467565b50565b6102bd915060203d6020116102c3575b6102b58183610044565b8101906101d6565b38610292565b503d6102ab565b6101ea565b505061007e610413565b6001600160a01b03909116815260200190565b61008c7fa3f0ad74e5423aebfd80d3ef4346578335a9a72aeaee59ff6cb3582b35133d506101c9565b9061032561008c610341926101c0565b82546001600160a01b0319166001600160a01b03919091161790565b9055565b600090803b610356610245846101c9565b146103fa5761025b8161025b610378938561037261008c6102ec565b01610315565b602061038360405190565b635c60da1b60e01b815291829060049082905afa9081156102ca576000916103db575b50803b6103b5610245846101c9565b146103be575050565b634c9c8ce360e01b825281906103d790600483016102d9565b0390fd5b6103f4915060203d6020116102c3576102b58183610044565b386103a6565b631933b43b60e21b825281906103d790600483016102d9565b600061041e816101c9565b34116104275750565b63b398979f60e01b8152600490fd5b90610443610101836100b2565b918252565b3d15610462576104573d610436565b903d6000602084013e565b606090565b60008061008c93610476606090565b50602081519101845af4610488610448565b919061049457506104e4565b8151906000916104a6610245846101c9565b14806104cf575b6104b657505090565b639996b31560e01b825281906103d790600483016102d9565b50803b6104de610245846101c9565b146104ad565b80516000906104f5610245836101c9565b11156105045750602081519101fd5b63d6bda27560e01b8152600490fdfe608060405261000c6100c7565b610155565b61002590610028906001600160a01b031682565b90565b6001600160a01b031690565b61002590610011565b61002590610034565b634e487b7160e01b600052604160045260246000fd5b90601f01601f1916810190811067ffffffffffffffff82111761007e57604052565b610046565b61008c81610028565b0361009357565b600080fd5b905051906100a582610083565b565b906020828203126100935761002591610098565b6040513d6000823e3d90fd5b6100f66100f17f000000000000000000000000000000000000000000000000000000000000000081565b61003d565b602061010160405190565b635c60da1b60e01b815291829060049082905afa90811561015057600091610127575090565b610025915060203d602011610149575b610141818361005c565b8101906100a7565b503d610137565b6100bb565b60008091368280378136915af43d6000803e15610171573d6000f35b3d6000fdfea2646970667358221220c72d952a43310e309c0b8eb0a4e70bba6517591a3c86f0f55ec435fb71aa8c4d64736f6c634300081c0033e3ffde652b1592025b57f85d2c64876717f9cdf4e44b57422a295c18d0719a00a26469706673582212206837e1469185ac220853862daa869a969184b81fd1d59bfe95784ac61c74086564736f6c634300081c0033",
  "linkReferences": {},
  "deployedLinkReferences": {}
}