{
  "_format": "hh-sol-artifact-1",
  "contractName": "LikeProtocol",
  "sourceName": "contracts/LikeProtocol.sol",
  "abi": [
    {
      "inputs": [
        {
          "internalType": "address",
          "name": "target",
          "type": "address"
        }
      ],
      "name": "AddressEmptyCode",
      "type": "error"
    },
    {
      "inputs": [
        {
          "internalType": "address",
          "name": "implementation",
          "type": "address"
        }
      ],
      "name": "BookNFTInvalidImplementation",
      "type": "error"
    },
    {
      "inputs": [
        {
          "internalType": "address",
          "name": "implementation",
          "type": "address"
        }
      ],
      "name": "ERC1967InvalidImplementation",
      "type": "error"
    },
    {
      "inputs": [],
      "name": "ERC1967NonPayable",
      "type": "error"
    },
    {
      "inputs": [],
      "name": "EnforcedPause",
      "type": "error"
    },
    {
      "inputs": [],
      "name": "ExpectedPause",
      "type": "error"
    },
    {
      "inputs": [],
      "name": "FailedCall",
      "type": "error"
    },
    {
      "inputs": [],
      "name": "InvalidInitialization",
      "type": "error"
    },
    {
      "inputs": [],
      "name": "NotInitializing",
      "type": "error"
    },
    {
      "inputs": [
        {
          "internalType": "address",
          "name": "owner",
          "type": "address"
        }
      ],
      "name": "OwnableInvalidOwner",
      "type": "error"
    },
    {
      "inputs": [
        {
          "internalType": "address",
          "name": "account",
          "type": "address"
        }
      ],
      "name": "OwnableUnauthorizedAccount",
      "type": "error"
    },
    {
      "inputs": [],
      "name": "UUPSUnauthorizedCallContext",
      "type": "error"
    },
    {
      "inputs": [
        {
          "internalType": "bytes32",
          "name": "slot",
          "type": "bytes32"
        }
      ],
      "name": "UUPSUnsupportedProxiableUUID",
      "type": "error"
    },
    {
      "anonymous": false,
      "inputs": [
        {
          "indexed": false,
          "internalType": "address",
          "name": "newImplementation",
          "type": "address"
        }
      ],
      "name": "BookNFTImplementationUpgraded",
      "type": "event"
    },
    {
      "anonymous": false,
      "inputs": [
        {
          "indexed": false,
          "internalType": "uint64",
          "name": "version",
          "type": "uint64"
        }
      ],
      "name": "Initialized",
      "type": "event"
    },
    {
      "anonymous": false,
      "inputs": [
        {
          "indexed": false,
          "internalType": "address",
          "name": "bookNFT",
          "type": "address"
        },
        {
          "components": [
            {
              "internalType": "string",
              "name": "name",
              "type": "string"
            },
            {
              "internalType": "string",
              "name": "symbol",
              "type": "string"
            },
            {
              "internalType": "string",
              "name": "metadata",
              "type": "string"
            },
            {
              "internalType": "uint64",
              "name": "max_supply",
              "type": "uint64"
            }
          ],
          "indexed": false,
          "internalType": "struct BookConfig",
          "name": "config",
          "type": "tuple"
        }
      ],
      "name": "NewBookNFT",
      "type": "event"
    },
    {
      "anonymous": false,
      "inputs": [
        {
          "indexed": true,
          "internalType": "address",
          "name": "previousOwner",
          "type": "address"
        },
        {
          "indexed": true,
          "internalType": "address",
          "name": "newOwner",
          "type": "address"
        }
      ],
      "name": "OwnershipTransferred",
      "type": "event"
    },
    {
      "anonymous": false,
      "inputs": [
        {
          "indexed": false,
          "internalType": "address",
          "name": "account",
          "type": "address"
        }
      ],
      "name": "Paused",
      "type": "event"
    },
    {
      "anonymous": false,
      "inputs": [
        {
          "indexed": false,
          "internalType": "address",
          "name": "account",
          "type": "address"
        }
      ],
      "name": "Unpaused",
      "type": "event"
    },
    {
      "anonymous": false,
      "inputs": [
        {
          "indexed": true,
          "internalType": "address",
          "name": "implementation",
          "type": "address"
        }
      ],
      "name": "Upgraded",
      "type": "event"
    },
    {
      "inputs": [],
      "name": "UPGRADE_INTERFACE_VERSION",
      "outputs": [
        {
          "internalType": "string",
          "name": "",
          "type": "string"
        }
      ],
      "stateMutability": "view",
      "type": "function"
    },
    {
      "inputs": [],
      "name": "getRoyaltyReceiver",
      "outputs": [
        {
          "internalType": "address",
          "name": "",
          "type": "address"
        }
      ],
      "stateMutability": "view",
      "type": "function"
    },
    {
      "inputs": [],
      "name": "implementation",
      "outputs": [
        {
          "internalType": "address",
          "name": "",
          "type": "address"
        }
      ],
      "stateMutability": "view",
      "type": "function"
    },
    {
      "inputs": [
        {
          "internalType": "address",
          "name": "initialOwner",
          "type": "address"
        },
        {
          "internalType": "address",
          "name": "bookNFTImplementation",
          "type": "address"
        }
      ],
      "name": "initialize",
      "outputs": [],
      "stateMutability": "nonpayable",
      "type": "function"
    },
    {
      "inputs": [
        {
          "internalType": "address",
          "name": "classId",
          "type": "address"
        }
      ],
      "name": "isBookNFT",
      "outputs": [
        {
          "internalType": "bool",
          "name": "",
          "type": "bool"
        }
      ],
      "stateMutability": "view",
      "type": "function"
    },
    {
      "inputs": [
        {
          "components": [
            {
              "internalType": "address",
              "name": "creator",
              "type": "address"
            },
            {
              "internalType": "address[]",
              "name": "updaters",
              "type": "address[]"
            },
            {
              "internalType": "address[]",
              "name": "minters",
              "type": "address[]"
            },
            {
              "components": [
                {
                  "internalType": "string",
                  "name": "name",
                  "type": "string"
                },
                {
                  "internalType": "string",
                  "name": "symbol",
                  "type": "string"
                },
                {
                  "internalType": "string",
                  "name": "metadata",
                  "type": "string"
                },
                {
                  "internalType": "uint64",
                  "name": "max_supply",
                  "type": "uint64"
                }
              ],
              "internalType": "struct BookConfig",
              "name": "config",
              "type": "tuple"
            }
          ],
          "internalType": "struct MsgNewBookNFT",
          "name": "msgNewBookNFT",
          "type": "tuple"
        }
      ],
      "name": "newBookNFT",
      "outputs": [
        {
          "internalType": "address",
          "name": "bookAddress",
          "type": "address"
        }
      ],
      "stateMutability": "nonpayable",
      "type": "function"
    },
    {
      "inputs": [
        {
          "components": [
            {
              "internalType": "address",
              "name": "creator",
              "type": "address"
            },
            {
              "internalType": "address[]",
              "name": "updaters",
              "type": "address[]"
            },
            {
              "internalType": "address[]",
              "name": "minters",
              "type": "address[]"
            },
            {
              "components": [
                {
                  "internalType": "string",
                  "name": "name",
                  "type": "string"
                },
                {
                  "internalType": "string",
                  "name": "symbol",
                  "type": "string"
                },
                {
                  "internalType": "string",
                  "name": "metadata",
                  "type": "string"
                },
                {
                  "internalType": "uint64",
                  "name": "max_supply",
                  "type": "uint64"
                }
              ],
              "internalType": "struct BookConfig",
              "name": "config",
              "type": "tuple"
            }
          ],
          "internalType": "struct MsgNewBookNFT",
          "name": "msgNewBookNFT",
          "type": "tuple"
        },
        {
          "internalType": "uint96",
          "name": "royaltyFraction",
          "type": "uint96"
        }
      ],
      "name": "newBookNFTWithRoyalty",
      "outputs": [
        {
          "internalType": "address",
          "name": "bookAddress",
          "type": "address"
        }
      ],
      "stateMutability": "nonpayable",
      "type": "function"
    },
    {
      "inputs": [
        {
          "components": [
            {
              "internalType": "address",
              "name": "creator",
              "type": "address"
            },
            {
              "internalType": "address[]",
              "name": "updaters",
              "type": "address[]"
            },
            {
              "internalType": "address[]",
              "name": "minters",
              "type": "address[]"
            },
            {
              "components": [
                {
                  "internalType": "string",
                  "name": "name",
                  "type": "string"
                },
                {
                  "internalType": "string",
                  "name": "symbol",
                  "type": "string"
                },
                {
                  "internalType": "string",
                  "name": "metadata",
                  "type": "string"
                },
                {
                  "internalType": "uint64",
                  "name": "max_supply",
                  "type": "uint64"
                }
              ],
              "internalType": "struct BookConfig",
              "name": "config",
              "type": "tuple"
            }
          ],
          "internalType": "struct MsgNewBookNFT[]",
          "name": "msgNewBookNFTs",
          "type": "tuple[]"
        }
      ],
      "name": "newBookNFTs",
      "outputs": [],
      "stateMutability": "nonpayable",
      "type": "function"
    },
    {
      "inputs": [],
      "name": "owner",
      "outputs": [
        {
          "internalType": "address",
          "name": "",
          "type": "address"
        }
      ],
      "stateMutability": "view",
      "type": "function"
    },
    {
      "inputs": [],
      "name": "pause",
      "outputs": [],
      "stateMutability": "nonpayable",
      "type": "function"
    },
    {
      "inputs": [],
      "name": "paused",
      "outputs": [
        {
          "internalType": "bool",
          "name": "",
          "type": "bool"
        }
      ],
      "stateMutability": "view",
      "type": "function"
    },
    {
      "inputs": [],
      "name": "proxiableUUID",
      "outputs": [
        {
          "internalType": "bytes32",
          "name": "",
          "type": "bytes32"
        }
      ],
      "stateMutability": "view",
      "type": "function"
    },
    {
      "inputs": [],
      "name": "renounceOwnership",
      "outputs": [],
      "stateMutability": "nonpayable",
      "type": "function"
    },
    {
      "inputs": [
        {
          "internalType": "address",
          "name": "royaltyReceiver",
          "type": "address"
        }
      ],
      "name": "setRoyaltyReceiver",
      "outputs": [],
      "stateMutability": "nonpayable",
      "type": "function"
    },
    {
      "inputs": [
        {
          "internalType": "address",
          "name": "newOwner",
          "type": "address"
        }
      ],
      "name": "transferOwnership",
      "outputs": [],
      "stateMutability": "nonpayable",
      "type": "function"
    },
    {
      "inputs": [],
      "name": "unpause",
      "outputs": [],
      "stateMutability": "nonpayable",
      "type": "function"
    },
    {
      "inputs": [
        {
          "internalType": "address",
          "name": "newImplementation",
          "type": "address"
        }
      ],
      "name": "upgradeTo",
      "outputs": [],
      "stateMutability": "nonpayable",
      "type": "function"
    },
    {
      "inputs": [
        {
          "internalType": "address",
          "name": "newImplementation",
          "type": "address"
        },
        {
          "internalType": "bytes",
          "name": "data",
          "type": "bytes"
        }
      ],
      "name": "upgradeToAndCall",
      "outputs": [],
      "stateMutability": "payable",
      "type": "function"
    }
  ],
  "bytecode": "0x60a060405234602f57600e6034565b604051611ef061008482396080518181816112ca01526114610152611ef090f35b600080fd5b603a603c565b565b603a603a603a603a6077565b605a90605d906001600160a01b031682565b90565b6001600160a01b031690565b605a906048565b605a906069565b607e306070565b60805256fe6080604052600436101561001257600080fd5b60003560e01c80633659cfe6146101325780633f4ba83a1461012d578063485cc95514610128578063498a1c33146101235780634f1ef2861461011e57806352d1902d146101195780635c60da1b146101145780635c975abb1461010f578063715018a61461010a5780638456cb59146101055780638da5cb5b146101005780638dc251e3146100fb578063a43e8cfa146100f6578063a5bd5235146100f1578063ad3cb1cc146100ec578063d2380f1d146100e7578063d274a43f146100e25763f2fde38b03610158576107e6565b6107cd565b61075a565b610733565b61066b565b610650565b610613565b6105f8565b6105e0565b6105c8565b61059b565b610580565b610555565b610541565b6104d6565b6101e8565b6101ad565b610180565b6001600160a01b031690565b90565b6001600160a01b0381165b0361015857565b600080fd5b9050359061016a82610146565b565b90602082820312610158576101439161015d565b346101585761019861019336600461016c565b6108f7565b60405180805b0390f35b600091031261015857565b34610158576101bd3660046101a2565b610198610913565b9190604083820312610158576101439060206101e1828661015d565b940161015d565b34610158576101986101fb3660046101c5565b90610b75565b634e487b7160e01b600052604160045260246000fd5b90601f01601f191681019081106001600160401b0382111761023857604052565b610201565b9061016a61024a60405190565b9283610217565b6001600160401b0381116102385760208091020190565b9092919261027d61027882610251565b61023d565b938185526020808601920283019281841161015857915b8383106102a15750505050565b602080916102af848661015d565b815201920191610294565b9080601f830112156101585781602061014393359101610268565b6001600160401b03811161023857602090601f01601f19160190565b0190565b90826000939282370152565b90929192610311610278826102d5565b93818552818301116101585761016a9160208501906102f5565b9080601f830112156101585781602061014393359101610301565b6001600160401b038116610151565b9050359061016a82610346565b91909160808184031261015857610379608061023d565b9281356001600160401b038111610158578161039691840161032b565b845260208201356001600160401b03811161015857816103b791840161032b565b602085015260408201356001600160401b03811161015857826103e1836060936103ec960161032b565b604087015201610355565b6060830152565b9190916080818403126101585761040a608061023d565b92610415818361015d565b845260208201356001600160401b03811161015857816104369184016102ba565b602085015260408201356001600160401b038111610158578161045a9184016102ba565b604085015260608201356001600160401b038111610158576103ec9201610362565b6bffffffffffffffffffffffff8116610151565b9050359061016a8261047c565b9190604083820312610158578235906001600160401b0382116101585760206104cb826101439487016103f3565b9401610490565b9052565b346101585761019e6104f26104ec36600461049d565b90610c32565b604051918291826001600160a01b03909116815260200190565b91909160408184031261015857610523838261015d565b9260208201356001600160401b03811161015857610143920161032b565b61019861054f36600461050c565b90610c5e565b34610158576105653660046101a2565b61019e610570610cab565b6040519182918290815260200190565b34610158576105903660046101a2565b61019e6104f2610cc8565b34610158576105ab3660046101a2565b61019e6105b6610cf6565b60405191829182901515815260200190565b34610158576105d83660046101a2565b610198610d45565b34610158576105f03660046101a2565b610198610d60565b34610158576106083660046101a2565b61019e6104f2610d68565b346101585761019861062636600461016c565b610db9565b906020828203126101585781356001600160401b0381116101585761014392016103f3565b346101585761019e6104f261066636600461062b565b611059565b346101585761067b3660046101a2565b61019e6104f2611064565b90610693610278836102d5565b918252565b6106a26005610686565b640352e302e360dc1b602082015290565b610143610698565b6101436106b3565b6101436106bb565b60005b8381106106de5750506000910152565b81810151838201526020016106ce565b61070f6107186020936102f193610703815190565b80835293849260200190565b958691016106cb565b601f01601f191690565b6020808252610143929101906106ee565b34610158576107433660046101a2565b61019e61074e6106c3565b60405191829182610722565b346101585761019e6105b661077036600461016c565b61107d565b909182601f83011215610158578135916001600160401b03831161015857602001926020830284011161015857565b906020828203126101585781356001600160401b038111610158576107c99201610775565b9091565b34610158576101986107e03660046107a4565b9061114c565b34610158576101986107f936600461016c565b6111ae565b61016a9061080a6111b7565b610872565b6101436101436101439290565b906001600160a01b03905b9181191691161790565b61014390610137906001600160a01b031682565b61014390610831565b61014390610845565b9061086761014361086e9261084e565b825461081c565b9055565b6000813b6108866108828361080f565b9190565b146108d757506108d2816104f27f079b6b58f11e5758083fb4e9adbfbee490af256ccca51426658d4349450125f19360016108cc600080516020611e7b83398151915290565b01610857565b0390a1565b632e69aad960e21b81526001600160a01b03919091166004820152602490fd5b61016a906107fe565b6109086111b7565b61016a61016a61124e565b61016a610900565b6101439060401c5b60ff1690565b610143905461091b565b610143905b6001600160401b031690565b6101439054610933565b6109386101436101439290565b906001600160401b0390610827565b610938610143610143926001600160401b031690565b9061099061014361086e9261096a565b825461095b565b9068ff00000000000000009060401b610827565b906109bb61014361086e92151590565b8254610997565b6104d29061094e565b60208101929161016a91906109c2565b7ff0c57e16840df040f15088dc2f81fe391c3923bec73e23a9662efc9c229c6a009182610a17610a11610a0d83610929565b1590565b91610944565b91600093610a248561094e565b6001600160401b0385161480610b1a575b600194610a51610a448761094e565b916001600160401b031690565b149081610af6575b155b9081610aed575b50610ade5790610a8c9183610a8387610a7a8861094e565b99019889610980565b610acf57610b21565b610a9557505050565b610ac36108d2927fc7f505b2f371ae2175ee4913f4499e1f2633a7b5936321eed1cdaeb6115181d2946109ab565b604051918291826109cb565b610ad985886109ab565b610b21565b63f92ee8a960e01b8552600485fd5b15905038610a62565b9050610a5b610b043061084e565b3b610b116108828961080f565b14919050610a59565b5082610a35565b90610b2a61125e565b610b338261127b565b610b3b611297565b600080516020611e7b833981519152906000813b610b5b6108828361080f565b146108d75750816108cc600292600161016a969501610857565b9061016a916109db565b906101439291610b8d61129f565b610b9e565b6040513d6000823e3d90fd5b50909190610bab90611059565b91610bbd610bb88461084e565b61084e565b803b1561015857610c04600092918392610bd660405190565b948593849283919063bc09e59360e01b8352600483016bffffffffffffffffffffffff909116815260200190565b03925af18015610c2d57610c155750565b61016a906000610c258183610217565b8101906101a2565b610b92565b61014391906000610b7f565b9061016a91610c4b6112bf565b9061016a91610c598161134c565b61137c565b9061016a91610c3e565b61014390610c7461144b565b610ca2565b6101437f360894a13ba1a3210667c828492db98dca3e2076cc3735a920a3ca505d382bbc61080f565b50610143610c79565b6101436000610c68565b61014390610137565b6101439054610cb5565b6101436001600080516020611e7b8339815191525b01610cbe565b61014390610923565b6101439054610ce3565b610143600080516020611e9b833981519152610cec565b610d156111b7565b61016a610d33565b6101376101436101439290565b61014390610d1d565b61016a610d406000610d2a565b61148d565b61016a610d0d565b610d556111b7565b61016a61016a61154e565b61016a610d4d565b61014360007f9016d09d72d40fdae2fd8ceac6b6234c7706214fd39c1cd1e609a0528c199300610cdd565b61016a90610d9f6111b7565b61016a906002600080516020611e7b8339815191526108cc565b61016a90610d93565b9061014391610dcf61129f565b610f70565b90610df4610ded610de3845190565b8084529260200190565b9260200190565b9060005b818110610e055750505090565b909192610e2b610e2460019286516001600160a01b0316815260200190565b9460200190565b929101610df8565b9061014390606080610e7e610e6c610e5a60808601600089015187820360008901526106ee565b602088015186820360208801526106ee565b604087015185820360408701526106ee565b9401516001600160401b0316910152565b80516001600160a01b03168252610143916060610ed0610ebe6080840160208601518582036020870152610dd4565b60408501518482036040860152610dd4565b920151906060818403910152610e33565b602080825261014392910190610e8f565b6001600160a01b03909116815261014391604082019160208184039101526106ee565b90610f1f9061084e565b600052602052604060002090565b9060ff90610827565b90610f4661014361086e92151590565b8254610f2d565b6001600160a01b0390911681526101439160408201916020818403910152610e33565b5090600080516020611e7b83398151915291610f8b60405190565b632961baf160e11b6020820152610fb881610fa98460248301610ee1565b60208201810382520382610217565b610fc13061084e565b604051916106c08301908382106001600160401b03831117610238578392610ff0926106c06117bb8639610ef2565b03906000f0908115610c2d5760606110287fac1baa76250109980b8de5e2b9fcb185acd2bd5127c85c3e83cc05fb3aae5df89361084e565b91611041600161103c856000819a01610f15565b610f36565b0151906108d261105060405190565b92839283610f4d565b610143906000610dc2565b6101436002600080516020611e7b833981519152610cdd565b6110a16101439161108c600090565b50600080516020611e7b833981519152610f15565b610cec565b9061016a916110b361129f565b61110b565b634e487b7160e01b600052603260045260246000fd5b903590607e193682900301821215610158570190565b908210156110fb57602061014392028101906110ce565b6110b8565b6101439036906103f3565b919091611118600061080f565b83811015611146578061113a6106666111356111419488876110e4565b611100565b5060010190565b611118565b50509050565b9061016a916110a6565b61016a906111626111b7565b600061116d81610d2a565b6001600160a01b0381166001600160a01b0384161461119157505061016a9061148d565b631e4fbdf760e01b82526001600160a01b03166004820152602490fd5b61016a90611156565b6111bf610d68565b33906111d3825b916001600160a01b031690565b036111db5750565b63118cdaa760e01b60009081526001600160a01b039091166004526024036000fd5b611205611556565b61016a611224600080600080516020611e9b8339815191525b01610f36565b7f5db9ee0a495bf2e6ff9c91a7834c1ba4fdd244a5e8aa4e537bd38aeae4b073aa6108d2336104f2565b61016a6111fd565b61016a611579565b61016a611256565b61016a90611272611579565b61016a906115a8565b61016a90611266565b61128c611579565b61016a61016a6115d6565b61016a611284565b6112a7610cf6565b6112ad57565b63d93c066560e01b6000908152600490fd5b6112c83061084e565b7f0000000000000000000000000000000000000000000000000000000000000000906112fc6001600160a01b0383166111c6565b1490811561131e575b5061130c57565b63703e46dd60e11b6000908152600490fd5b905061133b6111c661132e6115de565b926001600160a01b031690565b141538611305565b5061016a6111b7565b61016a90611343565b80610151565b9050519061016a82611355565b90602082820312610158576101439161135b565b90611389610bb88361084e565b90602061139560405190565b6352d1902d60e01b815292839060049082905afa6000928161141a575b506113e457505060016113c25750565b634c9c8ce360e01b60009081526001600160a01b039091166004526024036000fd5b9092916113f2610143610c79565b84036114035761016a9293506115ee565b632a87526960e21b60009081526004859052602490fd5b61143d91935060203d602011611444575b6114358183610217565b810190611368565b91386113b2565b503d61142b565b6114543061084e565b6114866001600160a01b037f0000000000000000000000000000000000000000000000000000000000000000166111c6565b0361130c57565b6114cd6114c77f9016d09d72d40fdae2fd8ceac6b6234c7706214fd39c1cd1e609a0528c199300610bb8846114c183610cbe565b92610857565b9161084e565b907f8be0079c531659141344cd1fd0a4f28419497f9722a3daafe3b4186f6b6457e06114f860405190565b600090a3565b61150661129f565b61016a61152460016000600080516020611e9b83398151915261121e565b7f62e78cea01bee320cd4e420270b5ea74000d11b0c9f74754ebdbfc544b05a2586108d2336104f2565b61016a6114fe565b611561610a0d610cf6565b61156757565b638dfc202b60e01b6000908152600490fd5b611584610a0d61165a565b61158a57565b631afcd79f60e31b6000908152600490fd5b61016a90611162611579565b61016a9061159c565b6115b9611579565b61016a61016a600080600080516020611e9b83398151915261121e565b61016a6115b1565b6101436000610cdd610143610c79565b906115f882611683565b6116018261084e565b7fbc7cd75a20ee27fd9adebab32041f755214dbc6bffa90cc0225b39da2e5c2d3b61162b60405190565b600090a2805161163e610882600061080f565b11156116505761164d9161170a565b50565b505061016a6116c8565b6101437ff0c57e16840df040f15088dc2f81fe391c3923bec73e23a9662efc9c229c6a00610929565b6000813b6116936108828361080f565b146116a8579061016a916108cc610143610c79565b634c9c8ce360e01b81526001600160a01b03919091166004820152602490fd5b60006116d38161080f565b34116116dc5750565b63b398979f60e01b8152600490fd5b3d15611705576116fa3d610686565b903d6000602084013e565b606090565b60008061014393611719606090565b50602081519101845af461172b6116eb565b9190611737575061178b565b8151906000916117496108828461080f565b1480611776575b61175957505090565b639996b31560e01b82526001600160a01b03166004820152602490fd5b50803b6117856108828461080f565b14611750565b805160009061179c6108828361080f565b11156117ab5750805190602001fd5b63d6bda27560e01b8152600490fdfe60a060405261001561000f610171565b90610193565b6040516101ac61051482396080518160cf01526101ac90f35b634e487b7160e01b600052604160045260246000fd5b90601f01601f191681019081106001600160401b0382111761006557604052565b61002e565b9061007e61007760405190565b9283610044565b565b6001600160a01b031690565b90565b6001600160a01b038116036100a057565b600080fd5b9050519061007e8261008f565b6001600160401b03811161006557602090601f01601f19160190565b60005b8381106100e15750506000910152565b81810151838201526020016100d1565b90929192610106610101826100b2565b61006a565b93818552818301116100a05761007e9160208501906100ce565b9080601f830112156100a057815161008c926020016100f1565b9190916040818403126100a05761015183826100a5565b60208201519093906001600160401b0381116100a05761008c9201610120565b61018f6106c0803803806101848161006a565b92833981019061013a565b9091565b9061019e90826101f6565b608052565b61008c90610080906001600160a01b031682565b61008c906101a3565b61008c906101b7565b61008c61008c61008c9290565b906020828203126100a05761008c916100a5565b6040513d6000823e3d90fd5b6101ff81610345565b610208816101c0565b7f1cf3b03a6cf19fa2baba4df148e9dcabedea7f8a5c07840e207e5c089be95d3e61023260405190565b600090a2815161024961024560006101c9565b9190565b11156102cf5761025b610260916101c0565b6101c0565b90602061026c60405190565b635c60da1b60e01b815292839060049082905afa80156102ca576102989260009161029b575b50610467565b50565b6102bd915060203d6020116102c3575b6102b58183610044565b8101906101d6565b38610292565b503d6102ab565b6101ea565b505061007e610413565b6001600160a01b03909116815260200190565b61008c7fa3f0ad74e5423aebfd80d3ef4346578335a9a72aeaee59ff6cb3582b35133d506101c9565b9061032561008c610341926101c0565b82546001600160a01b0319166001600160a01b03919091161790565b9055565b600090803b610356610245846101c9565b146103fa5761025b8161025b610378938561037261008c6102ec565b01610315565b602061038360405190565b635c60da1b60e01b815291829060049082905afa9081156102ca576000916103db575b50803b6103b5610245846101c9565b146103be575050565b634c9c8ce360e01b825281906103d790600483016102d9565b0390fd5b6103f4915060203d6020116102c3576102b58183610044565b386103a6565b631933b43b60e21b825281906103d790600483016102d9565b600061041e816101c9565b34116104275750565b63b398979f60e01b8152600490fd5b90610443610101836100b2565b918252565b3d15610462576104573d610436565b903d6000602084013e565b606090565b60008061008c93610476606090565b50602081519101845af4610488610448565b919061049457506104e4565b8151906000916104a6610245846101c9565b14806104cf575b6104b657505090565b639996b31560e01b825281906103d790600483016102d9565b50803b6104de610245846101c9565b146104ad565b80516000906104f5610245836101c9565b11156105045750805190602001fd5b63d6bda27560e01b8152600490fdfe608060405261000c6100c7565b610155565b61002590610028906001600160a01b031682565b90565b6001600160a01b031690565b61002590610011565b61002590610034565b634e487b7160e01b600052604160045260246000fd5b90601f01601f1916810190811067ffffffffffffffff82111761007e57604052565b610046565b61008c81610028565b0361009357565b600080fd5b905051906100a582610083565b565b906020828203126100935761002591610098565b6040513d6000823e3d90fd5b6100f66100f17f000000000000000000000000000000000000000000000000000000000000000081565b61003d565b602061010160405190565b635c60da1b60e01b815291829060049082905afa90811561015057600091610127575090565b610025915060203d602011610149575b610141818361005c565b8101906100a7565b503d610137565b6100bb565b60008091368280378136915af43d6000803e15610171573d6000f35b3d6000fdfea26469706673582212208eb8e4abba920022404cb3199a4ceab505b9ca8991bb8e54ce3df61ef8774c4364736f6c634300081c0033e3ffde652b1592025b57f85d2c64876717f9cdf4e44b57422a295c18d0719a00cd5ed15c6e187e77e9aee88184c21f4f2182ab5827cb3b7e07fbedcd63f03300a2646970667358221220b654e9afaac5795887b468545baf3d802ccf8f0020e54f18184ad307243851cc64736f6c634300081c0033",
  "linkReferences": {},
  "deployedLinkReferences": {}
}