{
  "_format": "hh-sol-artifact-1",
  "contractName": "LikeProtocol",
  "sourceName": "contracts/LikeProtocol.sol",
  "abi": [
    {
      "inputs": [],
      "stateMutability": "nonpayable",
      "type": "constructor"
    },
    {
      "inputs": [
        {
          "internalType": "address",
          "name": "target",
          "type": "address"
        }
      ],
      "name": "AddressEmptyCode",
      "type": "error"
    },
    {
      "inputs": [
        {
          "internalType": "address",
          "name": "implementation",
          "type": "address"
        }
      ],
      "name": "BookNFTInvalidImplementation",
      "type": "error"
    },
    {
      "inputs": [],
      "name": "Create2EmptyBytecode",
      "type": "error"
    },
    {
      "inputs": [
        {
          "internalType": "address",
          "name": "implementation",
          "type": "address"
        }
      ],
      "name": "ERC1967InvalidImplementation",
      "type": "error"
    },
    {
      "inputs": [],
      "name": "ERC1967NonPayable",
      "type": "error"
    },
    {
      "inputs": [],
      "name": "EnforcedPause",
      "type": "error"
    },
    {
      "inputs": [],
      "name": "ErrInvalidSalt",
      "type": "error"
    },
    {
      "inputs": [],
      "name": "ExpectedPause",
      "type": "error"
    },
    {
      "inputs": [],
      "name": "FailedCall",
      "type": "error"
    },
    {
      "inputs": [],
      "name": "FailedDeployment",
      "type": "error"
    },
    {
      "inputs": [
        {
          "internalType": "uint256",
          "name": "balance",
          "type": "uint256"
        },
        {
          "internalType": "uint256",
          "name": "needed",
          "type": "uint256"
        }
      ],
      "name": "InsufficientBalance",
      "type": "error"
    },
    {
      "inputs": [],
      "name": "InvalidInitialization",
      "type": "error"
    },
    {
      "inputs": [],
      "name": "NotInitializing",
      "type": "error"
    },
    {
      "inputs": [
        {
          "internalType": "address",
          "name": "owner",
          "type": "address"
        }
      ],
      "name": "OwnableInvalidOwner",
      "type": "error"
    },
    {
      "inputs": [
        {
          "internalType": "address",
          "name": "account",
          "type": "address"
        }
      ],
      "name": "OwnableUnauthorizedAccount",
      "type": "error"
    },
    {
      "inputs": [],
      "name": "UUPSUnauthorizedCallContext",
      "type": "error"
    },
    {
      "inputs": [
        {
          "internalType": "bytes32",
          "name": "slot",
          "type": "bytes32"
        }
      ],
      "name": "UUPSUnsupportedProxiableUUID",
      "type": "error"
    },
    {
      "anonymous": false,
      "inputs": [
        {
          "indexed": false,
          "internalType": "address",
          "name": "newImplementation",
          "type": "address"
        }
      ],
      "name": "BookNFTImplementationUpgraded",
      "type": "event"
    },
    {
      "anonymous": false,
      "inputs": [
        {
          "indexed": false,
          "internalType": "uint64",
          "name": "version",
          "type": "uint64"
        }
      ],
      "name": "Initialized",
      "type": "event"
    },
    {
      "anonymous": false,
      "inputs": [
        {
          "indexed": false,
          "internalType": "address",
          "name": "bookNFT",
          "type": "address"
        },
        {
          "components": [
            {
              "internalType": "string",
              "name": "name",
              "type": "string"
            },
            {
              "internalType": "string",
              "name": "symbol",
              "type": "string"
            },
            {
              "internalType": "string",
              "name": "metadata",
              "type": "string"
            },
            {
              "internalType": "uint64",
              "name": "max_supply",
              "type": "uint64"
            }
          ],
          "indexed": false,
          "internalType": "struct BookConfig",
          "name": "config",
          "type": "tuple"
        }
      ],
      "name": "NewBookNFT",
      "type": "event"
    },
    {
      "anonymous": false,
      "inputs": [
        {
          "indexed": true,
          "internalType": "address",
          "name": "previousOwner",
          "type": "address"
        },
        {
          "indexed": true,
          "internalType": "address",
          "name": "newOwner",
          "type": "address"
        }
      ],
      "name": "OwnershipTransferred",
      "type": "event"
    },
    {
      "anonymous": false,
      "inputs": [
        {
          "indexed": false,
          "internalType": "address",
          "name": "account",
          "type": "address"
        }
      ],
      "name": "Paused",
      "type": "event"
    },
    {
      "anonymous": false,
      "inputs": [
        {
          "indexed": false,
          "internalType": "address",
          "name": "account",
          "type": "address"
        }
      ],
      "name": "Unpaused",
      "type": "event"
    },
    {
      "anonymous": false,
      "inputs": [
        {
          "indexed": true,
          "internalType": "address",
          "name": "implementation",
          "type": "address"
        }
      ],
      "name": "Upgraded",
      "type": "event"
    },
    {
      "inputs": [],
      "name": "UPGRADE_INTERFACE_VERSION",
      "outputs": [
        {
          "internalType": "string",
          "name": "",
          "type": "string"
        }
      ],
      "stateMutability": "view",
      "type": "function"
    },
    {
      "inputs": [],
      "name": "getRoyaltyReceiver",
      "outputs": [
        {
          "internalType": "address",
          "name": "",
          "type": "address"
        }
      ],
      "stateMutability": "view",
      "type": "function"
    },
    {
      "inputs": [],
      "name": "implementation",
      "outputs": [
        {
          "internalType": "address",
          "name": "",
          "type": "address"
        }
      ],
      "stateMutability": "view",
      "type": "function"
    },
    {
      "inputs": [
        {
          "internalType": "address",
          "name": "initialOwner",
          "type": "address"
        }
      ],
      "name": "initialize",
      "outputs": [],
      "stateMutability": "nonpayable",
      "type": "function"
    },
    {
      "inputs": [
        {
          "internalType": "address",
          "name": "classId",
          "type": "address"
        }
      ],
      "name": "isBookNFT",
      "outputs": [
        {
          "internalType": "bool",
          "name": "",
          "type": "bool"
        }
      ],
      "stateMutability": "view",
      "type": "function"
    },
    {
      "inputs": [
        {
          "internalType": "bytes32",
          "name": "salt",
          "type": "bytes32"
        },
        {
          "components": [
            {
              "internalType": "address",
              "name": "creator",
              "type": "address"
            },
            {
              "internalType": "address[]",
              "name": "updaters",
              "type": "address[]"
            },
            {
              "internalType": "address[]",
              "name": "minters",
              "type": "address[]"
            },
            {
              "components": [
                {
                  "internalType": "string",
                  "name": "name",
                  "type": "string"
                },
                {
                  "internalType": "string",
                  "name": "symbol",
                  "type": "string"
                },
                {
                  "internalType": "string",
                  "name": "metadata",
                  "type": "string"
                },
                {
                  "internalType": "uint64",
                  "name": "max_supply",
                  "type": "uint64"
                }
              ],
              "internalType": "struct BookConfig",
              "name": "config",
              "type": "tuple"
            }
          ],
          "internalType": "struct MsgNewBookNFT",
          "name": "msgNewBookNFT",
          "type": "tuple"
        },
        {
          "internalType": "uint96",
          "name": "royaltyFraction",
          "type": "uint96"
        }
      ],
      "name": "newBookNFT",
      "outputs": [
        {
          "internalType": "address",
          "name": "bookAddress",
          "type": "address"
        }
      ],
      "stateMutability": "nonpayable",
      "type": "function"
    },
    {
      "inputs": [],
      "name": "owner",
      "outputs": [
        {
          "internalType": "address",
          "name": "",
          "type": "address"
        }
      ],
      "stateMutability": "view",
      "type": "function"
    },
    {
      "inputs": [],
      "name": "pause",
      "outputs": [],
      "stateMutability": "nonpayable",
      "type": "function"
    },
    {
      "inputs": [],
      "name": "paused",
      "outputs": [
        {
          "internalType": "bool",
          "name": "",
          "type": "bool"
        }
      ],
      "stateMutability": "view",
      "type": "function"
    },
    {
      "inputs": [
        {
          "internalType": "bytes32",
          "name": "salt",
          "type": "bytes32"
        },
        {
          "components": [
            {
              "internalType": "address",
              "name": "creator",
              "type": "address"
            },
            {
              "internalType": "address[]",
              "name": "updaters",
              "type": "address[]"
            },
            {
              "internalType": "address[]",
              "name": "minters",
              "type": "address[]"
            },
            {
              "components": [
                {
                  "internalType": "string",
                  "name": "name",
                  "type": "string"
                },
                {
                  "internalType": "string",
                  "name": "symbol",
                  "type": "string"
                },
                {
                  "internalType": "string",
                  "name": "metadata",
                  "type": "string"
                },
                {
                  "internalType": "uint64",
                  "name": "max_supply",
                  "type": "uint64"
                }
              ],
              "internalType": "struct BookConfig",
              "name": "config",
              "type": "tuple"
            }
          ],
          "internalType": "struct MsgNewBookNFT",
          "name": "msgNewBookNFT",
          "type": "tuple"
        }
      ],
      "name": "precomputeBookNFTAddress",
      "outputs": [
        {
          "internalType": "address",
          "name": "bookAddress",
          "type": "address"
        }
      ],
      "stateMutability": "view",
      "type": "function"
    },
    {
      "inputs": [],
      "name": "proxiableUUID",
      "outputs": [
        {
          "internalType": "bytes32",
          "name": "",
          "type": "bytes32"
        }
      ],
      "stateMutability": "view",
      "type": "function"
    },
    {
      "inputs": [],
      "name": "renounceOwnership",
      "outputs": [],
      "stateMutability": "nonpayable",
      "type": "function"
    },
    {
      "inputs": [
        {
          "internalType": "address",
          "name": "royaltyReceiver",
          "type": "address"
        }
      ],
      "name": "setRoyaltyReceiver",
      "outputs": [],
      "stateMutability": "nonpayable",
      "type": "function"
    },
    {
      "inputs": [
        {
          "internalType": "address",
          "name": "newOwner",
          "type": "address"
        }
      ],
      "name": "transferOwnership",
      "outputs": [],
      "stateMutability": "nonpayable",
      "type": "function"
    },
    {
      "inputs": [],
      "name": "unpause",
      "outputs": [],
      "stateMutability": "nonpayable",
      "type": "function"
    },
    {
      "inputs": [
        {
          "internalType": "address",
          "name": "newImplementation",
          "type": "address"
        }
      ],
      "name": "upgradeTo",
      "outputs": [],
      "stateMutability": "nonpayable",
      "type": "function"
    },
    {
      "inputs": [
        {
          "internalType": "address",
          "name": "newImplementation",
          "type": "address"
        },
        {
          "internalType": "bytes",
          "name": "data",
          "type": "bytes"
        }
      ],
      "name": "upgradeToAndCall",
      "outputs": [],
      "stateMutability": "payable",
      "type": "function"
    }
  ],
  "bytecode": "0x60a06040523073ffffffffffffffffffffffffffffffffffffffff1660809073ffffffffffffffffffffffffffffffffffffffff1681525034801561004357600080fd5b5061005261005760201b60201c565b6101de565b600061006761015b60201b60201c565b90508060000160089054906101000a900460ff16156100b2576040517ff92ee8a900000000000000000000000000000000000000000000000000000000815260040160405180910390fd5b67ffffffffffffffff80168160000160009054906101000a900467ffffffffffffffff1667ffffffffffffffff16146101585767ffffffffffffffff8160000160006101000a81548167ffffffffffffffff021916908367ffffffffffffffff1602179055507fc7f505b2f371ae2175ee4913f4499e1f2633a7b5936321eed1cdaeb6115181d267ffffffffffffffff60405161014f91906101c3565b60405180910390a15b50565b60008061016c61017560201b60201c565b90508091505090565b60007ff0c57e16840df040f15088dc2f81fe391c3923bec73e23a9662efc9c229c6a0060001b905090565b600067ffffffffffffffff82169050919050565b6101bd816101a0565b82525050565b60006020820190506101d860008301846101b4565b92915050565b608051612ee361020760003960008181610b4a01528181610b9f0152610d5a0152612ee36000f3fe6080604052600436106100fe5760003560e01c80638da5cb5b11610095578063a5bd523511610064578063a5bd5235146102dc578063ad3cb1cc14610307578063c4d66de814610332578063d2380f1d1461035b578063f2fde38b14610398576100fe565b80638da5cb5b1461020e5780638dc251e31461023957806396cdf41114610262578063989a27d81461029f576100fe565b80635c60da1b116100d15780635c60da1b1461018a5780635c975abb146101b5578063715018a6146101e05780638456cb59146101f7576100fe565b80633659cfe6146101035780633f4ba83a1461012c5780634f1ef2861461014357806352d1902d1461015f575b600080fd5b34801561010f57600080fd5b5061012a60048036038101906101259190611971565b6103c1565b005b34801561013857600080fd5b506101416104a9565b005b61015d60048036038101906101589190611ae4565b6104bb565b005b34801561016b57600080fd5b506101746104da565b6040516101819190611b59565b60405180910390f35b34801561019657600080fd5b5061019f61050d565b6040516101ac9190611b83565b60405180910390f35b3480156101c157600080fd5b506101ca610540565b6040516101d79190611bb9565b60405180910390f35b3480156101ec57600080fd5b506101f5610565565b005b34801561020357600080fd5b5061020c610579565b005b34801561021a57600080fd5b5061022361058b565b6040516102309190611b83565b60405180910390f35b34801561024557600080fd5b50610260600480360381019061025b9190611971565b6105c3565b005b34801561026e57600080fd5b5061028960048036038101906102849190611f4b565b610618565b6040516102969190611b83565b60405180910390f35b3480156102ab57600080fd5b506102c660048036038101906102c19190611feb565b610651565b6040516102d39190611b83565b60405180910390f35b3480156102e857600080fd5b506102f16106e2565b6040516102fe9190611b83565b60405180910390f35b34801561031357600080fd5b5061031c610715565b60405161032991906120d9565b60405180910390f35b34801561033e57600080fd5b5061035960048036038101906103549190611971565b61074e565b005b34801561036757600080fd5b50610382600480360381019061037d9190611971565b61093d565b60405161038f9190611bb9565b60405180910390f35b3480156103a457600080fd5b506103bf60048036038101906103ba9190611971565b6109a1565b005b6103c9610a27565b60008173ffffffffffffffffffffffffffffffffffffffff163b0361042557806040517fb9a6ab6400000000000000000000000000000000000000000000000000000000815260040161041c9190611b83565b60405180910390fd5b8061042e610aae565b60010160006101000a81548173ffffffffffffffffffffffffffffffffffffffff021916908373ffffffffffffffffffffffffffffffffffffffff1602179055507f079b6b58f11e5758083fb4e9adbfbee490af256ccca51426658d4349450125f18160405161049e9190611b83565b60405180910390a150565b6104b1610a27565b6104b9610ad6565b565b6104c3610b48565b6104cc82610c2e565b6104d68282610c39565b5050565b60006104e4610d58565b7f360894a13ba1a3210667c828492db98dca3e2076cc3735a920a3ca505d382bbc60001b905090565b6000610517610aae565b60010160009054906101000a900473ffffffffffffffffffffffffffffffffffffffff16905090565b60008061054b610ddf565b90508060000160009054906101000a900460ff1691505090565b61056d610a27565b6105776000610e07565b565b610581610a27565b610589610ede565b565b600080610596610f50565b90508060000160009054906101000a900473ffffffffffffffffffffffffffffffffffffffff1691505090565b6105cb610a27565b806105d4610aae565b60020160006101000a81548173ffffffffffffffffffffffffffffffffffffffff021916908373ffffffffffffffffffffffffffffffffffffffff16021790555050565b600080610635836060015160000151846060015160200151610f78565b9050610648848280519060200120611071565b91505092915050565b600061065b611086565b610664846110c7565b61066e848461117b565b90508073ffffffffffffffffffffffffffffffffffffffff1663bc09e593836040518263ffffffff1660e01b81526004016106a9919061210a565b600060405180830381600087803b1580156106c357600080fd5b505af11580156106d7573d6000803e3d6000fd5b505050509392505050565b60006106ec610aae565b60020160009054906101000a900473ffffffffffffffffffffffffffffffffffffffff16905090565b6040518060400160405280600581526020017f352e302e3000000000000000000000000000000000000000000000000000000081525081565b60006107586112d4565b905060008160000160089054906101000a900460ff1615905060008260000160009054906101000a900467ffffffffffffffff1690506000808267ffffffffffffffff161480156107a65750825b9050600060018367ffffffffffffffff161480156107db575060003073ffffffffffffffffffffffffffffffffffffffff163b145b9050811580156107e9575080155b15610820576040517ff92ee8a900000000000000000000000000000000000000000000000000000000815260040160405180910390fd5b60018560000160006101000a81548167ffffffffffffffff021916908367ffffffffffffffff16021790555083156108705760018560000160086101000a81548160ff0219169083151502179055505b6108786112e8565b610881866112f2565b610889611306565b6000610893610aae565b9050868160020160006101000a81548173ffffffffffffffffffffffffffffffffffffffff021916908373ffffffffffffffffffffffffffffffffffffffff1602179055505083156109355760008560000160086101000a81548160ff0219169083151502179055507fc7f505b2f371ae2175ee4913f4499e1f2633a7b5936321eed1cdaeb6115181d2600160405161092c919061216a565b60405180910390a15b505050505050565b600080610948610aae565b90508060000160008473ffffffffffffffffffffffffffffffffffffffff1673ffffffffffffffffffffffffffffffffffffffff16815260200190815260200160002060009054906101000a900460ff16915050919050565b6109a9610a27565b600073ffffffffffffffffffffffffffffffffffffffff168173ffffffffffffffffffffffffffffffffffffffff1603610a1b5760006040517f1e4fbdf7000000000000000000000000000000000000000000000000000000008152600401610a129190611b83565b60405180910390fd5b610a2481610e07565b50565b610a2f611310565b73ffffffffffffffffffffffffffffffffffffffff16610a4d61058b565b73ffffffffffffffffffffffffffffffffffffffff1614610aac57610a70611310565b6040517f118cdaa7000000000000000000000000000000000000000000000000000000008152600401610aa39190611b83565b60405180910390fd5b565b60007fe3ffde652b1592025b57f85d2c64876717f9cdf4e44b57422a295c18d0719a00905090565b610ade611318565b6000610ae8610ddf565b905060008160000160006101000a81548160ff0219169083151502179055507f5db9ee0a495bf2e6ff9c91a7834c1ba4fdd244a5e8aa4e537bd38aeae4b073aa610b30611310565b604051610b3d9190611b83565b60405180910390a150565b7f000000000000000000000000000000000000000000000000000000000000000073ffffffffffffffffffffffffffffffffffffffff163073ffffffffffffffffffffffffffffffffffffffff161480610bf557507f000000000000000000000000000000000000000000000000000000000000000073ffffffffffffffffffffffffffffffffffffffff16610bdc611358565b73ffffffffffffffffffffffffffffffffffffffff1614155b15610c2c576040517fe07c8dba00000000000000000000000000000000000000000000000000000000815260040160405180910390fd5b565b610c36610a27565b50565b8173ffffffffffffffffffffffffffffffffffffffff166352d1902d6040518163ffffffff1660e01b8152600401602060405180830381865afa925050508015610ca157506040513d601f19601f82011682018060405250810190610c9e919061219a565b60015b610ce257816040517f4c9c8ce3000000000000000000000000000000000000000000000000000000008152600401610cd99190611b83565b60405180910390fd5b7f360894a13ba1a3210667c828492db98dca3e2076cc3735a920a3ca505d382bbc60001b8114610d4957806040517faa1d49a4000000000000000000000000000000000000000000000000000000008152600401610d409190611b59565b60405180910390fd5b610d5383836113af565b505050565b7f000000000000000000000000000000000000000000000000000000000000000073ffffffffffffffffffffffffffffffffffffffff163073ffffffffffffffffffffffffffffffffffffffff1614610ddd576040517fe07c8dba00000000000000000000000000000000000000000000000000000000815260040160405180910390fd5b565b60007fcd5ed15c6e187e77e9aee88184c21f4f2182ab5827cb3b7e07fbedcd63f03300905090565b6000610e11610f50565b905060008160000160009054906101000a900473ffffffffffffffffffffffffffffffffffffffff169050828260000160006101000a81548173ffffffffffffffffffffffffffffffffffffffff021916908373ffffffffffffffffffffffffffffffffffffffff1602179055508273ffffffffffffffffffffffffffffffffffffffff168173ffffffffffffffffffffffffffffffffffffffff167f8be0079c531659141344cd1fd0a4f28419497f9722a3daafe3b4186f6b6457e060405160405180910390a3505050565b610ee6611086565b6000610ef0610ddf565b905060018160000160006101000a81548160ff0219169083151502179055507f62e78cea01bee320cd4e420270b5ea74000d11b0c9f74754ebdbfc544b05a258610f38611310565b604051610f459190611b83565b60405180910390a150565b60007f9016d09d72d40fdae2fd8ceac6b6234c7706214fd39c1cd1e609a0528c199300905090565b606060003090506000634cd88b7660e01b8585604051602401610f9c9291906121c7565b604051602081830303815290604052907bffffffffffffffffffffffffffffffffffffffffffffffffffffffff19166020820180517bffffffffffffffffffffffffffffffffffffffffffffffffffffffff8381831617835250505050905060006040518060200161100d906118f2565b6020820181038252601f19601f820116604052508383604051602001611034929190612253565b6040516020818303038152906040526040516020016110549291906122bf565b604051602081830303815290604052905080935050505092915050565b600061107e838330611422565b905092915050565b61108e610540565b156110c5576040517fd93c066500000000000000000000000000000000000000000000000000000000815260040160405180910390fd5b565b6000801b8103611103576040517f89a3077800000000000000000000000000000000000000000000000000000000815260040160405180910390fd5b60008160601c9050611113611310565b73ffffffffffffffffffffffffffffffffffffffff168173ffffffffffffffffffffffffffffffffffffffff1614611177576040517f89a3077800000000000000000000000000000000000000000000000000000000815260040160405180910390fd5b5050565b600080611186610aae565b905060006111a4846060015160000151856060015160200151610f78565b90506111b260008683611463565b925060018260000160008573ffffffffffffffffffffffffffffffffffffffff1673ffffffffffffffffffffffffffffffffffffffff16815260200190815260200160002060006101000a81548160ff0219169083151502179055508273ffffffffffffffffffffffffffffffffffffffff16631e4cd0b485600001518660400151876020015188606001516040518563ffffffff1660e01b815260040161125d949392919061246b565b600060405180830381600087803b15801561127757600080fd5b505af115801561128b573d6000803e3d6000fd5b505050507fac1baa76250109980b8de5e2b9fcb185acd2bd5127c85c3e83cc05fb3aae5df88385606001516040516112c49291906124c5565b60405180910390a1505092915050565b6000806112df611576565b90508091505090565b6112f06115a1565b565b6112fa6115a1565b611303816115e1565b50565b61130e6115a1565b565b600033905090565b611320610540565b611356576040517f8dfc202b00000000000000000000000000000000000000000000000000000000815260040160405180910390fd5b565b60006113867f360894a13ba1a3210667c828492db98dca3e2076cc3735a920a3ca505d382bbc60001b611667565b60000160009054906101000a900473ffffffffffffffffffffffffffffffffffffffff16905090565b6113b882611671565b8173ffffffffffffffffffffffffffffffffffffffff167fbc7cd75a20ee27fd9adebab32041f755214dbc6bffa90cc0225b39da2e5c2d3b60405160405180910390a26000815111156114155761140f828261173e565b5061141e565b61141d6117c2565b5b5050565b6000604051836040820152846020820152828152600b810160ff815373ffffffffffffffffffffffffffffffffffffffff6055822016925050509392505050565b6000834710156114ac5747846040517fcf4791810000000000000000000000000000000000000000000000000000000081526004016114a392919061250e565b60405180910390fd5b60008251036114e7576040517f4ca249dc00000000000000000000000000000000000000000000000000000000815260040160405180910390fd5b8282516020840186f590503d151981151615611509576040513d6000823e3d81fd5b600073ffffffffffffffffffffffffffffffffffffffff168173ffffffffffffffffffffffffffffffffffffffff160361156f576040517fb06ebf3d00000000000000000000000000000000000000000000000000000000815260040160405180910390fd5b9392505050565b60007ff0c57e16840df040f15088dc2f81fe391c3923bec73e23a9662efc9c229c6a0060001b905090565b6115a96117ff565b6115df576040517fd7e6bcf800000000000000000000000000000000000000000000000000000000815260040160405180910390fd5b565b6115e96115a1565b600073ffffffffffffffffffffffffffffffffffffffff168173ffffffffffffffffffffffffffffffffffffffff160361165b5760006040517f1e4fbdf70000000000000000000000000000000000000000000000000000000081526004016116529190611b83565b60405180910390fd5b61166481610e07565b50565b6000819050919050565b60008173ffffffffffffffffffffffffffffffffffffffff163b036116cd57806040517f4c9c8ce30000000000000000000000000000000000000000000000000000000081526004016116c49190611b83565b60405180910390fd5b806116fa7f360894a13ba1a3210667c828492db98dca3e2076cc3735a920a3ca505d382bbc60001b611667565b60000160006101000a81548173ffffffffffffffffffffffffffffffffffffffff021916908373ffffffffffffffffffffffffffffffffffffffff16021790555050565b60606000808473ffffffffffffffffffffffffffffffffffffffff16846040516117689190612537565b600060405180830381855af49150503d80600081146117a3576040519150601f19603f3d011682016040523d82523d6000602084013e6117a8565b606091505b50915091506117b885838361181f565b9250505092915050565b60003411156117fd576040517fb398979f00000000000000000000000000000000000000000000000000000000815260040160405180910390fd5b565b60006118096112d4565b60000160089054906101000a900460ff16905090565b6060826118345761182f826118ae565b6118a6565b6000825114801561185c575060008473ffffffffffffffffffffffffffffffffffffffff163b145b1561189e57836040517f9996b3150000000000000000000000000000000000000000000000000000000081526004016118959190611b83565b60405180910390fd5b8190506118a7565b5b9392505050565b6000815111156118c057805160208201fd5b6040517fd6bda27500000000000000000000000000000000000000000000000000000000815260040160405180910390fd5b61095f8061254f83390190565b6000604051905090565b600080fd5b600080fd5b600073ffffffffffffffffffffffffffffffffffffffff82169050919050565b600061193e82611913565b9050919050565b61194e81611933565b811461195957600080fd5b50565b60008135905061196b81611945565b92915050565b60006020828403121561198757611986611909565b5b60006119958482850161195c565b91505092915050565b600080fd5b600080fd5b6000601f19601f8301169050919050565b7f4e487b7100000000000000000000000000000000000000000000000000000000600052604160045260246000fd5b6119f1826119a8565b810181811067ffffffffffffffff82111715611a1057611a0f6119b9565b5b80604052505050565b6000611a236118ff565b9050611a2f82826119e8565b919050565b600067ffffffffffffffff821115611a4f57611a4e6119b9565b5b611a58826119a8565b9050602081019050919050565b82818337600083830152505050565b6000611a87611a8284611a34565b611a19565b905082815260208101848484011115611aa357611aa26119a3565b5b611aae848285611a65565b509392505050565b600082601f830112611acb57611aca61199e565b5b8135611adb848260208601611a74565b91505092915050565b60008060408385031215611afb57611afa611909565b5b6000611b098582860161195c565b925050602083013567ffffffffffffffff811115611b2a57611b2961190e565b5b611b3685828601611ab6565b9150509250929050565b6000819050919050565b611b5381611b40565b82525050565b6000602082019050611b6e6000830184611b4a565b92915050565b611b7d81611933565b82525050565b6000602082019050611b986000830184611b74565b92915050565b60008115159050919050565b611bb381611b9e565b82525050565b6000602082019050611bce6000830184611baa565b92915050565b611bdd81611b40565b8114611be857600080fd5b50565b600081359050611bfa81611bd4565b92915050565b600080fd5b600080fd5b600067ffffffffffffffff821115611c2557611c246119b9565b5b602082029050602081019050919050565b600080fd5b6000611c4e611c4984611c0a565b611a19565b90508083825260208201905060208402830185811115611c7157611c70611c36565b5b835b81811015611c9a5780611c86888261195c565b845260208401935050602081019050611c73565b5050509392505050565b600082601f830112611cb957611cb861199e565b5b8135611cc9848260208601611c3b565b91505092915050565b600067ffffffffffffffff821115611ced57611cec6119b9565b5b611cf6826119a8565b9050602081019050919050565b6000611d16611d1184611cd2565b611a19565b905082815260208101848484011115611d3257611d316119a3565b5b611d3d848285611a65565b509392505050565b600082601f830112611d5a57611d5961199e565b5b8135611d6a848260208601611d03565b91505092915050565b600067ffffffffffffffff82169050919050565b611d9081611d73565b8114611d9b57600080fd5b50565b600081359050611dad81611d87565b92915050565b600060808284031215611dc957611dc8611c00565b5b611dd36080611a19565b9050600082013567ffffffffffffffff811115611df357611df2611c05565b5b611dff84828501611d45565b600083015250602082013567ffffffffffffffff811115611e2357611e22611c05565b5b611e2f84828501611d45565b602083015250604082013567ffffffffffffffff811115611e5357611e52611c05565b5b611e5f84828501611d45565b6040830152506060611e7384828501611d9e565b60608301525092915050565b600060808284031215611e9557611e94611c00565b5b611e9f6080611a19565b90506000611eaf8482850161195c565b600083015250602082013567ffffffffffffffff811115611ed357611ed2611c05565b5b611edf84828501611ca4565b602083015250604082013567ffffffffffffffff811115611f0357611f02611c05565b5b611f0f84828501611ca4565b604083015250606082013567ffffffffffffffff811115611f3357611f32611c05565b5b611f3f84828501611db3565b60608301525092915050565b60008060408385031215611f6257611f61611909565b5b6000611f7085828601611beb565b925050602083013567ffffffffffffffff811115611f9157611f9061190e565b5b611f9d85828601611e7f565b9150509250929050565b60006bffffffffffffffffffffffff82169050919050565b611fc881611fa7565b8114611fd357600080fd5b50565b600081359050611fe581611fbf565b92915050565b60008060006060848603121561200457612003611909565b5b600061201286828701611beb565b935050602084013567ffffffffffffffff8111156120335761203261190e565b5b61203f86828701611e7f565b925050604061205086828701611fd6565b9150509250925092565b600081519050919050565b600082825260208201905092915050565b60005b83811015612094578082015181840152602081019050612079565b60008484015250505050565b60006120ab8261205a565b6120b58185612065565b93506120c5818560208601612076565b6120ce816119a8565b840191505092915050565b600060208201905081810360008301526120f381846120a0565b905092915050565b61210481611fa7565b82525050565b600060208201905061211f60008301846120fb565b92915050565b6000819050919050565b6000819050919050565b600061215461214f61214a84612125565b61212f565b611d73565b9050919050565b61216481612139565b82525050565b600060208201905061217f600083018461215b565b92915050565b60008151905061219481611bd4565b92915050565b6000602082840312156121b0576121af611909565b5b60006121be84828501612185565b91505092915050565b600060408201905081810360008301526121e181856120a0565b905081810360208301526121f581846120a0565b90509392505050565b600081519050919050565b600082825260208201905092915050565b6000612225826121fe565b61222f8185612209565b935061223f818560208601612076565b612248816119a8565b840191505092915050565b60006040820190506122686000830185611b74565b818103602083015261227a818461221a565b90509392505050565b600081905092915050565b6000612299826121fe565b6122a38185612283565b93506122b3818560208601612076565b80840191505092915050565b60006122cb828561228e565b91506122d7828461228e565b91508190509392505050565b600081519050919050565b600082825260208201905092915050565b6000819050602082019050919050565b61231881611933565b82525050565b600061232a838361230f565b60208301905092915050565b6000602082019050919050565b600061234e826122e3565b61235881856122ee565b9350612363836122ff565b8060005b8381101561239457815161237b888261231e565b975061238683612336565b925050600181019050612367565b5085935050505092915050565b600082825260208201905092915050565b60006123bd8261205a565b6123c781856123a1565b93506123d7818560208601612076565b6123e0816119a8565b840191505092915050565b6123f481611d73565b82525050565b6000608083016000830151848203600086015261241782826123b2565b9150506020830151848203602086015261243182826123b2565b9150506040830151848203604086015261244b82826123b2565b915050606083015161246060608601826123eb565b508091505092915050565b60006080820190506124806000830187611b74565b81810360208301526124928186612343565b905081810360408301526124a68185612343565b905081810360608301526124ba81846123fa565b905095945050505050565b60006040820190506124da6000830185611b74565b81810360208301526124ec81846123fa565b90509392505050565b6000819050919050565b612508816124f5565b82525050565b600060408201905061252360008301856124ff565b61253060208301846124ff565b9392505050565b6000612543828461228e565b91508190509291505056fe60a060405260405161095f38038061095f83398181016040528101906100259190610683565b610035828261007060201b60201c565b8173ffffffffffffffffffffffffffffffffffffffff1660808173ffffffffffffffffffffffffffffffffffffffff16815250505050610794565b61007f8261016360201b60201c565b8173ffffffffffffffffffffffffffffffffffffffff167f1cf3b03a6cf19fa2baba4df148e9dcabedea7f8a5c07840e207e5c089be95d3e60405160405180910390a26000815111156101505761014a8273ffffffffffffffffffffffffffffffffffffffff16635c60da1b6040518163ffffffff1660e01b8152600401602060405180830381865afa15801561011a573d6000803e3d6000fd5b505050506040513d601f19601f8201168201806040525081019061013e91906106df565b8261030660201b60201c565b5061015f565b61015e61039060201b60201c565b5b5050565b60008173ffffffffffffffffffffffffffffffffffffffff163b036101bf57806040517f64ced0ec0000000000000000000000000000000000000000000000000000000081526004016101b6919061071b565b60405180910390fd5b806101f27fa3f0ad74e5423aebfd80d3ef4346578335a9a72aeaee59ff6cb3582b35133d5060001b6103cd60201b60201c565b60000160006101000a81548173ffffffffffffffffffffffffffffffffffffffff021916908373ffffffffffffffffffffffffffffffffffffffff16021790555060008173ffffffffffffffffffffffffffffffffffffffff16635c60da1b6040518163ffffffff1660e01b8152600401602060405180830381865afa158015610280573d6000803e3d6000fd5b505050506040513d601f19601f820116820180604052508101906102a491906106df565b905060008173ffffffffffffffffffffffffffffffffffffffff163b0361030257806040517f4c9c8ce30000000000000000000000000000000000000000000000000000000081526004016102f9919061071b565b60405180910390fd5b5050565b60606000808473ffffffffffffffffffffffffffffffffffffffff1684604051610330919061077d565b600060405180830381855af49150503d806000811461036b576040519150601f19603f3d011682016040523d82523d6000602084013e610370565b606091505b50915091506103868583836103d760201b60201c565b9250505092915050565b60003411156103cb576040517fb398979f00000000000000000000000000000000000000000000000000000000815260040160405180910390fd5b565b6000819050919050565b6060826103f2576103ed8261046c60201b60201c565b610464565b6000825114801561041a575060008473ffffffffffffffffffffffffffffffffffffffff163b145b1561045c57836040517f9996b315000000000000000000000000000000000000000000000000000000008152600401610453919061071b565b60405180910390fd5b819050610465565b5b9392505050565b60008151111561047e57805160208201fd5b6040517fd6bda27500000000000000000000000000000000000000000000000000000000815260040160405180910390fd5b6000604051905090565b600080fd5b600080fd5b600073ffffffffffffffffffffffffffffffffffffffff82169050919050565b60006104ef826104c4565b9050919050565b6104ff816104e4565b811461050a57600080fd5b50565b60008151905061051c816104f6565b92915050565b600080fd5b600080fd5b6000601f19601f8301169050919050565b7f4e487b7100000000000000000000000000000000000000000000000000000000600052604160045260246000fd5b6105758261052c565b810181811067ffffffffffffffff821117156105945761059361053d565b5b80604052505050565b60006105a76104b0565b90506105b3828261056c565b919050565b600067ffffffffffffffff8211156105d3576105d261053d565b5b6105dc8261052c565b9050602081019050919050565b60005b838110156106075780820151818401526020810190506105ec565b60008484015250505050565b6000610626610621846105b8565b61059d565b90508281526020810184848401111561064257610641610527565b5b61064d8482856105e9565b509392505050565b600082601f83011261066a57610669610522565b5b815161067a848260208601610613565b91505092915050565b6000806040838503121561069a576106996104ba565b5b60006106a88582860161050d565b925050602083015167ffffffffffffffff8111156106c9576106c86104bf565b5b6106d585828601610655565b9150509250929050565b6000602082840312156106f5576106f46104ba565b5b60006107038482850161050d565b91505092915050565b610715816104e4565b82525050565b6000602082019050610730600083018461070c565b92915050565b600081519050919050565b600081905092915050565b600061075782610736565b6107618185610741565b93506107718185602086016105e9565b80840191505092915050565b6000610789828461074c565b915081905092915050565b6080516101b16107ae600039600060c701526101b16000f3fe608060405261000c61000e565b005b61001e610019610020565b61009d565b565b600061002a6100c3565b73ffffffffffffffffffffffffffffffffffffffff16635c60da1b6040518163ffffffff1660e01b8152600401602060405180830381865afa158015610074573d6000803e3d6000fd5b505050506040513d601f19601f82011682018060405250810190610098919061014e565b905090565b3660008037600080366000845af43d6000803e80600081146100be573d6000f35b3d6000fd5b60007f0000000000000000000000000000000000000000000000000000000000000000905090565b600080fd5b600073ffffffffffffffffffffffffffffffffffffffff82169050919050565b600061011b826100f0565b9050919050565b61012b81610110565b811461013657600080fd5b50565b60008151905061014881610122565b92915050565b600060208284031215610164576101636100eb565b5b600061017284828501610139565b9150509291505056fea2646970667358221220b6cffd5e8865f5cde3a0fcea2d237a44c9b3cc4ba526d0c535f3119307fe533d64736f6c634300081c0033a26469706673582212202edbb9f968f13bd1a2ed2fb2626d750c8a8ebd31a03b5c746f2e468d354b5fc064736f6c634300081c0033",
  "linkReferences": {},
  "deployedLinkReferences": {}
}