{
  "_format": "hh-sol-artifact-1",
  "contractName": "LikeProtocol",
  "sourceName": "contracts/LikeProtocol.sol",
  "abi": [
    {
      "inputs": [
        {
          "internalType": "address",
          "name": "target",
          "type": "address"
        }
      ],
      "name": "AddressEmptyCode",
      "type": "error"
    },
    {
      "inputs": [
        {
          "internalType": "address",
          "name": "implementation",
          "type": "address"
        }
      ],
      "name": "BookNFTInvalidImplementation",
      "type": "error"
    },
    {
      "inputs": [
        {
          "internalType": "address",
          "name": "implementation",
          "type": "address"
        }
      ],
      "name": "ERC1967InvalidImplementation",
      "type": "error"
    },
    {
      "inputs": [],
      "name": "ERC1967NonPayable",
      "type": "error"
    },
    {
      "inputs": [],
      "name": "EnforcedPause",
      "type": "error"
    },
    {
      "inputs": [],
      "name": "ExpectedPause",
      "type": "error"
    },
    {
      "inputs": [],
      "name": "FailedCall",
      "type": "error"
    },
    {
      "inputs": [],
      "name": "InvalidInitialization",
      "type": "error"
    },
    {
      "inputs": [],
      "name": "NotInitializing",
      "type": "error"
    },
    {
      "inputs": [
        {
          "internalType": "address",
          "name": "owner",
          "type": "address"
        }
      ],
      "name": "OwnableInvalidOwner",
      "type": "error"
    },
    {
      "inputs": [
        {
          "internalType": "address",
          "name": "account",
          "type": "address"
        }
      ],
      "name": "OwnableUnauthorizedAccount",
      "type": "error"
    },
    {
      "inputs": [],
      "name": "UUPSUnauthorizedCallContext",
      "type": "error"
    },
    {
      "inputs": [
        {
          "internalType": "bytes32",
          "name": "slot",
          "type": "bytes32"
        }
      ],
      "name": "UUPSUnsupportedProxiableUUID",
      "type": "error"
    },
    {
      "anonymous": false,
      "inputs": [
        {
          "indexed": false,
          "internalType": "address",
          "name": "newImplementation",
          "type": "address"
        }
      ],
      "name": "BookNFTImplementationUpgraded",
      "type": "event"
    },
    {
      "anonymous": false,
      "inputs": [
        {
          "indexed": false,
          "internalType": "uint64",
          "name": "version",
          "type": "uint64"
        }
      ],
      "name": "Initialized",
      "type": "event"
    },
    {
      "anonymous": false,
      "inputs": [
        {
          "indexed": true,
          "internalType": "address",
          "name": "bookNFT",
          "type": "address"
        },
        {
          "components": [
            {
              "internalType": "string",
              "name": "name",
              "type": "string"
            },
            {
              "internalType": "string",
              "name": "symbol",
              "type": "string"
            },
            {
              "internalType": "string",
              "name": "metadata",
              "type": "string"
            },
            {
              "internalType": "uint64",
              "name": "max_supply",
              "type": "uint64"
            }
          ],
          "indexed": false,
          "internalType": "struct BookConfig",
          "name": "config",
          "type": "tuple"
        }
      ],
      "name": "NewBookNFT",
      "type": "event"
    },
    {
      "anonymous": false,
      "inputs": [
        {
          "indexed": true,
          "internalType": "address",
          "name": "previousOwner",
          "type": "address"
        },
        {
          "indexed": true,
          "internalType": "address",
          "name": "newOwner",
          "type": "address"
        }
      ],
      "name": "OwnershipTransferred",
      "type": "event"
    },
    {
      "anonymous": false,
      "inputs": [
        {
          "indexed": false,
          "internalType": "address",
          "name": "account",
          "type": "address"
        }
      ],
      "name": "Paused",
      "type": "event"
    },
    {
      "anonymous": false,
      "inputs": [
        {
          "indexed": false,
          "internalType": "address",
          "name": "account",
          "type": "address"
        }
      ],
      "name": "Unpaused",
      "type": "event"
    },
    {
      "anonymous": false,
      "inputs": [
        {
          "indexed": true,
          "internalType": "address",
          "name": "implementation",
          "type": "address"
        }
      ],
      "name": "Upgraded",
      "type": "event"
    },
    {
      "inputs": [],
      "name": "UPGRADE_INTERFACE_VERSION",
      "outputs": [
        {
          "internalType": "string",
          "name": "",
          "type": "string"
        }
      ],
      "stateMutability": "view",
      "type": "function"
    },
    {
      "inputs": [],
      "name": "implementation",
      "outputs": [
        {
          "internalType": "address",
          "name": "",
          "type": "address"
        }
      ],
      "stateMutability": "view",
      "type": "function"
    },
    {
      "inputs": [
        {
          "internalType": "address",
          "name": "initialOwner",
          "type": "address"
        },
        {
          "internalType": "address",
          "name": "bookNFTImplementation",
          "type": "address"
        }
      ],
      "name": "initialize",
      "outputs": [],
      "stateMutability": "nonpayable",
      "type": "function"
    },
    {
      "inputs": [
        {
          "internalType": "address",
          "name": "classId",
          "type": "address"
        }
      ],
      "name": "isBookNFT",
      "outputs": [
        {
          "internalType": "bool",
          "name": "",
          "type": "bool"
        }
      ],
      "stateMutability": "view",
      "type": "function"
    },
    {
      "inputs": [
        {
          "components": [
            {
              "internalType": "address",
              "name": "creator",
              "type": "address"
            },
            {
              "internalType": "address[]",
              "name": "updaters",
              "type": "address[]"
            },
            {
              "internalType": "address[]",
              "name": "minters",
              "type": "address[]"
            },
            {
              "components": [
                {
                  "internalType": "string",
                  "name": "name",
                  "type": "string"
                },
                {
                  "internalType": "string",
                  "name": "symbol",
                  "type": "string"
                },
                {
                  "internalType": "string",
                  "name": "metadata",
                  "type": "string"
                },
                {
                  "internalType": "uint64",
                  "name": "max_supply",
                  "type": "uint64"
                }
              ],
              "internalType": "struct BookConfig",
              "name": "config",
              "type": "tuple"
            }
          ],
          "internalType": "struct MsgNewBookNFT",
          "name": "msgNewBookNFT",
          "type": "tuple"
        }
      ],
      "name": "newBookNFT",
      "outputs": [
        {
          "internalType": "address",
          "name": "bookAddress",
          "type": "address"
        }
      ],
      "stateMutability": "nonpayable",
      "type": "function"
    },
    {
      "inputs": [
        {
          "components": [
            {
              "internalType": "address",
              "name": "creator",
              "type": "address"
            },
            {
              "internalType": "address[]",
              "name": "updaters",
              "type": "address[]"
            },
            {
              "internalType": "address[]",
              "name": "minters",
              "type": "address[]"
            },
            {
              "components": [
                {
                  "internalType": "string",
                  "name": "name",
                  "type": "string"
                },
                {
                  "internalType": "string",
                  "name": "symbol",
                  "type": "string"
                },
                {
                  "internalType": "string",
                  "name": "metadata",
                  "type": "string"
                },
                {
                  "internalType": "uint64",
                  "name": "max_supply",
                  "type": "uint64"
                }
              ],
              "internalType": "struct BookConfig",
              "name": "config",
              "type": "tuple"
            }
          ],
          "internalType": "struct MsgNewBookNFT",
          "name": "msgNewBookNFT",
          "type": "tuple"
        },
        {
          "internalType": "uint96",
          "name": "royaltyFraction",
          "type": "uint96"
        }
      ],
      "name": "newBookNFTWithRoyalty",
      "outputs": [
        {
          "internalType": "address",
          "name": "bookAddress",
          "type": "address"
        }
      ],
      "stateMutability": "nonpayable",
      "type": "function"
    },
    {
      "inputs": [
        {
          "components": [
            {
              "internalType": "address",
              "name": "creator",
              "type": "address"
            },
            {
              "internalType": "address[]",
              "name": "updaters",
              "type": "address[]"
            },
            {
              "internalType": "address[]",
              "name": "minters",
              "type": "address[]"
            },
            {
              "components": [
                {
                  "internalType": "string",
                  "name": "name",
                  "type": "string"
                },
                {
                  "internalType": "string",
                  "name": "symbol",
                  "type": "string"
                },
                {
                  "internalType": "string",
                  "name": "metadata",
                  "type": "string"
                },
                {
                  "internalType": "uint64",
                  "name": "max_supply",
                  "type": "uint64"
                }
              ],
              "internalType": "struct BookConfig",
              "name": "config",
              "type": "tuple"
            }
          ],
          "internalType": "struct MsgNewBookNFT[]",
          "name": "msgNewBookNFTs",
          "type": "tuple[]"
        }
      ],
      "name": "newBookNFTs",
      "outputs": [],
      "stateMutability": "nonpayable",
      "type": "function"
    },
    {
      "inputs": [],
      "name": "owner",
      "outputs": [
        {
          "internalType": "address",
          "name": "",
          "type": "address"
        }
      ],
      "stateMutability": "view",
      "type": "function"
    },
    {
      "inputs": [],
      "name": "pause",
      "outputs": [],
      "stateMutability": "nonpayable",
      "type": "function"
    },
    {
      "inputs": [],
      "name": "paused",
      "outputs": [
        {
          "internalType": "bool",
          "name": "",
          "type": "bool"
        }
      ],
      "stateMutability": "view",
      "type": "function"
    },
    {
      "inputs": [],
      "name": "proxiableUUID",
      "outputs": [
        {
          "internalType": "bytes32",
          "name": "",
          "type": "bytes32"
        }
      ],
      "stateMutability": "view",
      "type": "function"
    },
    {
      "inputs": [],
      "name": "renounceOwnership",
      "outputs": [],
      "stateMutability": "nonpayable",
      "type": "function"
    },
    {
      "inputs": [
        {
          "internalType": "address",
          "name": "newOwner",
          "type": "address"
        }
      ],
      "name": "transferOwnership",
      "outputs": [],
      "stateMutability": "nonpayable",
      "type": "function"
    },
    {
      "inputs": [],
      "name": "unpause",
      "outputs": [],
      "stateMutability": "nonpayable",
      "type": "function"
    },
    {
      "inputs": [
        {
          "internalType": "address",
          "name": "newImplementation",
          "type": "address"
        }
      ],
      "name": "upgradeTo",
      "outputs": [],
      "stateMutability": "nonpayable",
      "type": "function"
    },
    {
      "inputs": [
        {
          "internalType": "address",
          "name": "newImplementation",
          "type": "address"
        },
        {
          "internalType": "bytes",
          "name": "data",
          "type": "bytes"
        }
      ],
      "name": "upgradeToAndCall",
      "outputs": [],
      "stateMutability": "payable",
      "type": "function"
    }
  ],
  "bytecode": "0x60a060405234602f57600e6034565b604051611e65610084823960805181818161123f01526113d60152611e6590f35b600080fd5b603a603c565b565b603a603a603a603a6077565b605a90605d906001600160a01b031682565b90565b6001600160a01b031690565b605a906048565b605a906069565b607e306070565b60805256fe6080604052600436101561001257600080fd5b60003560e01c80633659cfe6146101125780633f4ba83a1461010d578063485cc95514610108578063498a1c33146101035780634f1ef286146100fe57806352d1902d146100f95780635c60da1b146100f45780635c975abb146100ef578063715018a6146100ea5780638456cb59146100e55780638da5cb5b146100e0578063a43e8cfa146100db578063ad3cb1cc146100d6578063d2380f1d146100d1578063d274a43f146100cc5763f2fde38b0361013857610793565b61077a565b610707565b6106e0565b610618565b6105d8565b6105c0565b6105a8565b61057b565b610560565b610535565b610521565b6104b6565b6101c8565b61018d565b610160565b6001600160a01b031690565b90565b6001600160a01b0381165b0361013857565b600080fd5b9050359061014a82610126565b565b90602082820312610138576101239161013d565b346101385761017861017336600461014c565b6108a4565b60405180805b0390f35b600091031261013857565b346101385761019d366004610182565b6101786108c0565b9190604083820312610138576101239060206101c1828661013d565b940161013d565b34610138576101786101db3660046101a5565b90610b37565b634e487b7160e01b600052604160045260246000fd5b90601f01601f191681019081106001600160401b0382111761021857604052565b6101e1565b9061014a61022a60405190565b92836101f7565b6001600160401b0381116102185760208091020190565b9092919261025d61025882610231565b61021d565b938185526020808601920283019281841161013857915b8383106102815750505050565b6020809161028f848661013d565b815201920191610274565b9080601f830112156101385781602061012393359101610248565b6001600160401b03811161021857602090601f01601f19160190565b0190565b90826000939282370152565b909291926102f1610258826102b5565b93818552818301116101385761014a9160208501906102d5565b9080601f8301121561013857816020610123933591016102e1565b6001600160401b038116610131565b9050359061014a82610326565b91909160808184031261013857610359608061021d565b9281356001600160401b038111610138578161037691840161030b565b845260208201356001600160401b038111610138578161039791840161030b565b602085015260408201356001600160401b03811161013857826103c1836060936103cc960161030b565b604087015201610335565b6060830152565b919091608081840312610138576103ea608061021d565b926103f5818361013d565b845260208201356001600160401b038111610138578161041691840161029a565b602085015260408201356001600160401b038111610138578161043a91840161029a565b604085015260608201356001600160401b038111610138576103cc9201610342565b6bffffffffffffffffffffffff8116610131565b9050359061014a8261045c565b9190604083820312610138578235906001600160401b0382116101385760206104ab826101239487016103d3565b9401610470565b9052565b346101385761017e6104d26104cc36600461047d565b90610bf4565b604051918291826001600160a01b03909116815260200190565b91909160408184031261013857610503838261013d565b9260208201356001600160401b03811161013857610123920161030b565b61017861052f3660046104ec565b90610c20565b3461013857610545366004610182565b61017e610550610c6d565b6040519182918290815260200190565b3461013857610570366004610182565b61017e6104d2610c8a565b346101385761058b366004610182565b61017e610596610cb8565b60405191829182901515815260200190565b34610138576105b8366004610182565b610178610d07565b34610138576105d0366004610182565b610178610d22565b34610138576105e8366004610182565b61017e6104d2610d2a565b906020828203126101385781356001600160401b0381116101385761012392016103d3565b346101385761017e6104d261062e3660046105f3565b610fe7565b90610640610258836102b5565b918252565b61064f6005610633565b640352e302e360dc1b602082015290565b610123610645565b610123610660565b610123610668565b60005b83811061068b5750506000910152565b818101518382015260200161067b565b6106bc6106c56020936102d1936106b0815190565b80835293849260200190565b95869101610678565b601f01601f191690565b60208082526101239291019061069b565b34610138576106f0366004610182565b61017e6106fb610670565b604051918291826106cf565b346101385761017e61059661071d36600461014c565b610ff2565b909182601f83011215610138578135916001600160401b03831161013857602001926020830284011161013857565b906020828203126101385781356001600160401b038111610138576107769201610722565b9091565b346101385761017861078d366004610751565b906110c1565b34610138576101786107a636600461014c565b611123565b61014a906107b761112c565b61081f565b6101236101236101239290565b906001600160a01b03905b9181191691161790565b61012390610117906001600160a01b031682565b610123906107de565b610123906107f2565b9061081461012361081b926107fb565b82546107c9565b9055565b6000813b61083361082f836107bc565b9190565b14610884575061087f816104d27f079b6b58f11e5758083fb4e9adbfbee490af256ccca51426658d4349450125f1936001610879600080516020611df083398151915290565b01610804565b0390a1565b632e69aad960e21b81526001600160a01b03919091166004820152602490fd5b61014a906107ab565b6108b561112c565b61014a61014a6111c3565b61014a6108ad565b6101239060401c5b60ff1690565b61012390546108c8565b610123905b6001600160401b031690565b61012390546108e0565b6108e56101236101239290565b906001600160401b03906107d4565b6108e5610123610123926001600160401b031690565b9061093d61012361081b92610917565b8254610908565b9068ff00000000000000009060401b6107d4565b9061096861012361081b92151590565b8254610944565b6104b2906108fb565b60208101929161014a919061096f565b7ff0c57e16840df040f15088dc2f81fe391c3923bec73e23a9662efc9c229c6a0091826109c46109be6109ba836108d6565b1590565b916108f1565b916000936109d1856108fb565b6001600160401b0385161480610ac7575b6001946109fe6109f1876108fb565b916001600160401b031690565b149081610aa3575b155b9081610a9a575b50610a8b5790610a399183610a3087610a27886108fb565b9901988961092d565b610a7c57610ace565b610a4257505050565b610a7061087f927fc7f505b2f371ae2175ee4913f4499e1f2633a7b5936321eed1cdaeb6115181d294610958565b60405191829182610978565b610a868588610958565b610ace565b63f92ee8a960e01b8552600485fd5b15905038610a0f565b9050610a08610ab1306107fb565b3b610abe61082f896107bc565b14919050610a06565b50826109e2565b610adf90610ada6111d3565b6111f0565b610ae761120c565b600080516020611df08339815191526000823b610b0661082f836107bc565b14610b19575090600161014a9201610804565b632e69aad960e21b81526001600160a01b0383166004820152602490fd5b9061014a91610988565b906101239291610b4f611214565b610b60565b6040513d6000823e3d90fd5b50909190610b6d90610fe7565b91610b7f610b7a846107fb565b6107fb565b803b1561013857610bc6600092918392610b9860405190565b948593849283919063bc09e59360e01b8352600483016bffffffffffffffffffffffff909116815260200190565b03925af18015610bef57610bd75750565b61014a906000610be781836101f7565b810190610182565b610b54565b61012391906000610b41565b9061014a91610c0d611234565b9061014a91610c1b816112c1565b6112f1565b9061014a91610c00565b61012390610c366113c0565b610c64565b6101237f360894a13ba1a3210667c828492db98dca3e2076cc3735a920a3ca505d382bbc6107bc565b50610123610c3b565b6101236000610c2a565b61012390610117565b6101239054610c77565b6101236001600080516020611df08339815191525b01610c80565b610123906108d0565b6101239054610ca5565b610123600080516020611e10833981519152610cae565b610cd761112c565b61014a610cf5565b6101176101236101239290565b61012390610cdf565b61014a610d026000610cec565b611402565b61014a610ccf565b610d1761112c565b61014a61014a6114c3565b61014a610d0f565b61012360007f9016d09d72d40fdae2fd8ceac6b6234c7706214fd39c1cd1e609a0528c199300610c9f565b9061012391610d62611214565b610ef1565b90610d87610d80610d76845190565b8084529260200190565b9260200190565b9060005b818110610d985750505090565b909192610dbe610db760019286516001600160a01b0316815260200190565b9460200190565b929101610d8b565b9061012390606080610e11610dff610ded608086016000890151878203600089015261069b565b6020880151868203602088015261069b565b6040870151858203604087015261069b565b9401516001600160401b0316910152565b80516001600160a01b03168252610123916060610e63610e516080840160208601518582036020870152610d67565b60408501518482036040860152610d67565b920151906060818403910152610dc6565b602080825261012392910190610e22565b6001600160a01b039091168152610123916040820191602081840391015261069b565b90610eb2906107fb565b600052602052604060002090565b9060ff906107d4565b90610ed961012361081b92151590565b8254610ec0565b602080825261012392910190610dc6565b5090600080516020611df083398151915291610f0c60405190565b632961baf160e11b6020820152610f3981610f2a8460248301610e74565b602082018103825203826101f7565b610f42306107fb565b604051916106c08301908382106001600160401b03831117610218578392610f71926106c06117308639610e85565b03906000f08015610bef57610fe2610fcf6060610fae7fac1baa76250109980b8de5e2b9fcb185acd2bd5127c85c3e83cc05fb3aae5df8946107fb565b94610fc76001610fc2886000819c01610ea8565b610ec9565b0151936107fb565b92610fd960405190565b91829182610ee0565b0390a2565b610123906000610d55565b61101661012391611001600090565b50600080516020611df0833981519152610ea8565b610cae565b9061014a91611028611214565b611080565b634e487b7160e01b600052603260045260246000fd5b903590607e193682900301821215610138570190565b908210156110705760206101239202810190611043565b61102d565b6101239036906103d3565b91909161108d60006107bc565b838110156110bb57806110af61062e6110aa6110b6948887611059565b611075565b5060010190565b61108d565b50509050565b9061014a9161101b565b61014a906110d761112c565b60006110e281610cec565b6001600160a01b0381166001600160a01b0384161461110657505061014a90611402565b631e4fbdf760e01b82526001600160a01b03166004820152602490fd5b61014a906110cb565b611134610d2a565b3390611148825b916001600160a01b031690565b036111505750565b63118cdaa760e01b60009081526001600160a01b039091166004526024036000fd5b61117a6114cb565b61014a611199600080600080516020611e108339815191525b01610ec9565b7f5db9ee0a495bf2e6ff9c91a7834c1ba4fdd244a5e8aa4e537bd38aeae4b073aa61087f336104d2565b61014a611172565b61014a6114ee565b61014a6111cb565b61014a906111e76114ee565b61014a9061151d565b61014a906111db565b6112016114ee565b61014a61014a61154b565b61014a6111f9565b61121c610cb8565b61122257565b63d93c066560e01b6000908152600490fd5b61123d306107fb565b7f0000000000000000000000000000000000000000000000000000000000000000906112716001600160a01b03831661113b565b14908115611293575b5061128157565b63703e46dd60e11b6000908152600490fd5b90506112b061113b6112a3611553565b926001600160a01b031690565b14153861127a565b5061014a61112c565b61014a906112b8565b80610131565b9050519061014a826112ca565b9060208282031261013857610123916112d0565b906112fe610b7a836107fb565b90602061130a60405190565b6352d1902d60e01b815292839060049082905afa6000928161138f575b5061135957505060016113375750565b634c9c8ce360e01b60009081526001600160a01b039091166004526024036000fd5b909291611367610123610c3b565b84036113785761014a929350611563565b632a87526960e21b60009081526004859052602490fd5b6113b291935060203d6020116113b9575b6113aa81836101f7565b8101906112dd565b9138611327565b503d6113a0565b6113c9306107fb565b6113fb6001600160a01b037f00000000000000000000000000000000000000000000000000000000000000001661113b565b0361128157565b61144261143c7f9016d09d72d40fdae2fd8ceac6b6234c7706214fd39c1cd1e609a0528c199300610b7a8461143683610c80565b92610804565b916107fb565b907f8be0079c531659141344cd1fd0a4f28419497f9722a3daafe3b4186f6b6457e061146d60405190565b600090a3565b61147b611214565b61014a61149960016000600080516020611e10833981519152611193565b7f62e78cea01bee320cd4e420270b5ea74000d11b0c9f74754ebdbfc544b05a25861087f336104d2565b61014a611473565b6114d66109ba610cb8565b6114dc57565b638dfc202b60e01b6000908152600490fd5b6114f96109ba6115cf565b6114ff57565b631afcd79f60e31b6000908152600490fd5b61014a906110d76114ee565b61014a90611511565b61152e6114ee565b61014a61014a600080600080516020611e10833981519152611193565b61014a611526565b6101236000610c9f610123610c3b565b9061156d826115f8565b611576826107fb565b7fbc7cd75a20ee27fd9adebab32041f755214dbc6bffa90cc0225b39da2e5c2d3b6115a060405190565b600090a280516115b361082f60006107bc565b11156115c5576115c29161167f565b50565b505061014a61163d565b6101237ff0c57e16840df040f15088dc2f81fe391c3923bec73e23a9662efc9c229c6a006108d6565b6000813b61160861082f836107bc565b1461161d579061014a91610879610123610c3b565b634c9c8ce360e01b81526001600160a01b03919091166004820152602490fd5b6000611648816107bc565b34116116515750565b63b398979f60e01b8152600490fd5b3d1561167a5761166f3d610633565b903d6000602084013e565b606090565b6000806101239361168e606090565b50602081519101845af46116a0611660565b91906116ac5750611700565b8151906000916116be61082f846107bc565b14806116eb575b6116ce57505090565b639996b31560e01b82526001600160a01b03166004820152602490fd5b50803b6116fa61082f846107bc565b146116c5565b805160009061171161082f836107bc565b11156117205750805190602001fd5b63d6bda27560e01b8152600490fdfe60a060405261001561000f610171565b90610193565b6040516101ac61051482396080518160cf01526101ac90f35b634e487b7160e01b600052604160045260246000fd5b90601f01601f191681019081106001600160401b0382111761006557604052565b61002e565b9061007e61007760405190565b9283610044565b565b6001600160a01b031690565b90565b6001600160a01b038116036100a057565b600080fd5b9050519061007e8261008f565b6001600160401b03811161006557602090601f01601f19160190565b60005b8381106100e15750506000910152565b81810151838201526020016100d1565b90929192610106610101826100b2565b61006a565b93818552818301116100a05761007e9160208501906100ce565b9080601f830112156100a057815161008c926020016100f1565b9190916040818403126100a05761015183826100a5565b60208201519093906001600160401b0381116100a05761008c9201610120565b61018f6106c0803803806101848161006a565b92833981019061013a565b9091565b9061019e90826101f6565b608052565b61008c90610080906001600160a01b031682565b61008c906101a3565b61008c906101b7565b61008c61008c61008c9290565b906020828203126100a05761008c916100a5565b6040513d6000823e3d90fd5b6101ff81610345565b610208816101c0565b7f1cf3b03a6cf19fa2baba4df148e9dcabedea7f8a5c07840e207e5c089be95d3e61023260405190565b600090a2815161024961024560006101c9565b9190565b11156102cf5761025b610260916101c0565b6101c0565b90602061026c60405190565b635c60da1b60e01b815292839060049082905afa80156102ca576102989260009161029b575b50610467565b50565b6102bd915060203d6020116102c3575b6102b58183610044565b8101906101d6565b38610292565b503d6102ab565b6101ea565b505061007e610413565b6001600160a01b03909116815260200190565b61008c7fa3f0ad74e5423aebfd80d3ef4346578335a9a72aeaee59ff6cb3582b35133d506101c9565b9061032561008c610341926101c0565b82546001600160a01b0319166001600160a01b03919091161790565b9055565b600090803b610356610245846101c9565b146103fa5761025b8161025b610378938561037261008c6102ec565b01610315565b602061038360405190565b635c60da1b60e01b815291829060049082905afa9081156102ca576000916103db575b50803b6103b5610245846101c9565b146103be575050565b634c9c8ce360e01b825281906103d790600483016102d9565b0390fd5b6103f4915060203d6020116102c3576102b58183610044565b386103a6565b631933b43b60e21b825281906103d790600483016102d9565b600061041e816101c9565b34116104275750565b63b398979f60e01b8152600490fd5b90610443610101836100b2565b918252565b3d15610462576104573d610436565b903d6000602084013e565b606090565b60008061008c93610476606090565b50602081519101845af4610488610448565b919061049457506104e4565b8151906000916104a6610245846101c9565b14806104cf575b6104b657505090565b639996b31560e01b825281906103d790600483016102d9565b50803b6104de610245846101c9565b146104ad565b80516000906104f5610245836101c9565b11156105045750805190602001fd5b63d6bda27560e01b8152600490fdfe608060405261000c6100c7565b610155565b61002590610028906001600160a01b031682565b90565b6001600160a01b031690565b61002590610011565b61002590610034565b634e487b7160e01b600052604160045260246000fd5b90601f01601f1916810190811067ffffffffffffffff82111761007e57604052565b610046565b61008c81610028565b0361009357565b600080fd5b905051906100a582610083565b565b906020828203126100935761002591610098565b6040513d6000823e3d90fd5b6100f66100f17f000000000000000000000000000000000000000000000000000000000000000081565b61003d565b602061010160405190565b635c60da1b60e01b815291829060049082905afa90811561015057600091610127575090565b610025915060203d602011610149575b610141818361005c565b8101906100a7565b503d610137565b6100bb565b60008091368280378136915af43d6000803e15610171573d6000f35b3d6000fdfea26469706673582212208eb8e4abba920022404cb3199a4ceab505b9ca8991bb8e54ce3df61ef8774c4364736f6c634300081c0033e3ffde652b1592025b57f85d2c64876717f9cdf4e44b57422a295c18d0719a00cd5ed15c6e187e77e9aee88184c21f4f2182ab5827cb3b7e07fbedcd63f03300a26469706673582212208f7b3bcb639ff91145740c9ac38cb2ba5d3cfcb74f65dc0ae540e006625a509564736f6c634300081c0033",
  "linkReferences": {},
  "deployedLinkReferences": {}
}