{
  "_format": "hh-sol-artifact-1",
  "contractName": "LikeStakePositionV0",
  "sourceName": "contracts/LikeStakePositionV0.sol",
  "abi": [
    {
      "inputs": [],
      "stateMutability": "nonpayable",
      "type": "constructor"
    },
    {
      "inputs": [
        {
          "internalType": "address",
          "name": "target",
          "type": "address"
        }
      ],
      "name": "AddressEmptyCode",
      "type": "error"
    },
    {
      "inputs": [
        {
          "internalType": "address",
          "name": "implementation",
          "type": "address"
        }
      ],
      "name": "ERC1967InvalidImplementation",
      "type": "error"
    },
    {
      "inputs": [],
      "name": "ERC1967NonPayable",
      "type": "error"
    },
    {
      "inputs": [],
      "name": "ERC721EnumerableForbiddenBatchMint",
      "type": "error"
    },
    {
      "inputs": [
        {
          "internalType": "address",
          "name": "sender",
          "type": "address"
        },
        {
          "internalType": "uint256",
          "name": "tokenId",
          "type": "uint256"
        },
        {
          "internalType": "address",
          "name": "owner",
          "type": "address"
        }
      ],
      "name": "ERC721IncorrectOwner",
      "type": "error"
    },
    {
      "inputs": [
        {
          "internalType": "address",
          "name": "operator",
          "type": "address"
        },
        {
          "internalType": "uint256",
          "name": "tokenId",
          "type": "uint256"
        }
      ],
      "name": "ERC721InsufficientApproval",
      "type": "error"
    },
    {
      "inputs": [
        {
          "internalType": "address",
          "name": "approver",
          "type": "address"
        }
      ],
      "name": "ERC721InvalidApprover",
      "type": "error"
    },
    {
      "inputs": [
        {
          "internalType": "address",
          "name": "operator",
          "type": "address"
        }
      ],
      "name": "ERC721InvalidOperator",
      "type": "error"
    },
    {
      "inputs": [
        {
          "internalType": "address",
          "name": "owner",
          "type": "address"
        }
      ],
      "name": "ERC721InvalidOwner",
      "type": "error"
    },
    {
      "inputs": [
        {
          "internalType": "address",
          "name": "receiver",
          "type": "address"
        }
      ],
      "name": "ERC721InvalidReceiver",
      "type": "error"
    },
    {
      "inputs": [
        {
          "internalType": "address",
          "name": "sender",
          "type": "address"
        }
      ],
      "name": "ERC721InvalidSender",
      "type": "error"
    },
    {
      "inputs": [
        {
          "internalType": "uint256",
          "name": "tokenId",
          "type": "uint256"
        }
      ],
      "name": "ERC721NonexistentToken",
      "type": "error"
    },
    {
      "inputs": [
        {
          "internalType": "address",
          "name": "owner",
          "type": "address"
        },
        {
          "internalType": "uint256",
          "name": "index",
          "type": "uint256"
        }
      ],
      "name": "ERC721OutOfBoundsIndex",
      "type": "error"
    },
    {
      "inputs": [],
      "name": "EnforcedPause",
      "type": "error"
    },
    {
      "inputs": [],
      "name": "ExpectedPause",
      "type": "error"
    },
    {
      "inputs": [],
      "name": "FailedCall",
      "type": "error"
    },
    {
      "inputs": [],
      "name": "InvalidInitialization",
      "type": "error"
    },
    {
      "inputs": [],
      "name": "NotInitializing",
      "type": "error"
    },
    {
      "inputs": [
        {
          "internalType": "address",
          "name": "owner",
          "type": "address"
        }
      ],
      "name": "OwnableInvalidOwner",
      "type": "error"
    },
    {
      "inputs": [
        {
          "internalType": "address",
          "name": "account",
          "type": "address"
        }
      ],
      "name": "OwnableUnauthorizedAccount",
      "type": "error"
    },
    {
      "inputs": [],
      "name": "ReentrancyGuardReentrantCall",
      "type": "error"
    },
    {
      "inputs": [],
      "name": "UUPSUnauthorizedCallContext",
      "type": "error"
    },
    {
      "inputs": [
        {
          "internalType": "bytes32",
          "name": "slot",
          "type": "bytes32"
        }
      ],
      "name": "UUPSUnsupportedProxiableUUID",
      "type": "error"
    },
    {
      "anonymous": false,
      "inputs": [
        {
          "indexed": true,
          "internalType": "address",
          "name": "owner",
          "type": "address"
        },
        {
          "indexed": true,
          "internalType": "address",
          "name": "approved",
          "type": "address"
        },
        {
          "indexed": true,
          "internalType": "uint256",
          "name": "tokenId",
          "type": "uint256"
        }
      ],
      "name": "Approval",
      "type": "event"
    },
    {
      "anonymous": false,
      "inputs": [
        {
          "indexed": true,
          "internalType": "address",
          "name": "owner",
          "type": "address"
        },
        {
          "indexed": true,
          "internalType": "address",
          "name": "operator",
          "type": "address"
        },
        {
          "indexed": false,
          "internalType": "bool",
          "name": "approved",
          "type": "bool"
        }
      ],
      "name": "ApprovalForAll",
      "type": "event"
    },
    {
      "anonymous": false,
      "inputs": [
        {
          "indexed": false,
          "internalType": "uint256",
          "name": "_fromTokenId",
          "type": "uint256"
        },
        {
          "indexed": false,
          "internalType": "uint256",
          "name": "_toTokenId",
          "type": "uint256"
        }
      ],
      "name": "BatchMetadataUpdate",
      "type": "event"
    },
    {
      "anonymous": false,
      "inputs": [
        {
          "indexed": false,
          "internalType": "uint64",
          "name": "version",
          "type": "uint64"
        }
      ],
      "name": "Initialized",
      "type": "event"
    },
    {
      "anonymous": false,
      "inputs": [
        {
          "indexed": false,
          "internalType": "uint256",
          "name": "_tokenId",
          "type": "uint256"
        }
      ],
      "name": "MetadataUpdate",
      "type": "event"
    },
    {
      "anonymous": false,
      "inputs": [
        {
          "indexed": true,
          "internalType": "address",
          "name": "previousOwner",
          "type": "address"
        },
        {
          "indexed": true,
          "internalType": "address",
          "name": "newOwner",
          "type": "address"
        }
      ],
      "name": "OwnershipTransferred",
      "type": "event"
    },
    {
      "anonymous": false,
      "inputs": [
        {
          "indexed": false,
          "internalType": "address",
          "name": "account",
          "type": "address"
        }
      ],
      "name": "Paused",
      "type": "event"
    },
    {
      "anonymous": false,
      "inputs": [
        {
          "indexed": true,
          "internalType": "address",
          "name": "from",
          "type": "address"
        },
        {
          "indexed": true,
          "internalType": "address",
          "name": "to",
          "type": "address"
        },
        {
          "indexed": true,
          "internalType": "uint256",
          "name": "tokenId",
          "type": "uint256"
        }
      ],
      "name": "Transfer",
      "type": "event"
    },
    {
      "anonymous": false,
      "inputs": [
        {
          "indexed": false,
          "internalType": "address",
          "name": "account",
          "type": "address"
        }
      ],
      "name": "Unpaused",
      "type": "event"
    },
    {
      "anonymous": false,
      "inputs": [
        {
          "indexed": true,
          "internalType": "address",
          "name": "implementation",
          "type": "address"
        }
      ],
      "name": "Upgraded",
      "type": "event"
    },
    {
      "inputs": [],
      "name": "UPGRADE_INTERFACE_VERSION",
      "outputs": [
        {
          "internalType": "string",
          "name": "",
          "type": "string"
        }
      ],
      "stateMutability": "view",
      "type": "function"
    },
    {
      "inputs": [
        {
          "internalType": "address",
          "name": "to",
          "type": "address"
        },
        {
          "internalType": "uint256",
          "name": "tokenId",
          "type": "uint256"
        }
      ],
      "name": "approve",
      "outputs": [],
      "stateMutability": "nonpayable",
      "type": "function"
    },
    {
      "inputs": [
        {
          "internalType": "address",
          "name": "owner",
          "type": "address"
        }
      ],
      "name": "balanceOf",
      "outputs": [
        {
          "internalType": "uint256",
          "name": "",
          "type": "uint256"
        }
      ],
      "stateMutability": "view",
      "type": "function"
    },
    {
      "inputs": [
        {
          "internalType": "uint256",
          "name": "tokenId",
          "type": "uint256"
        }
      ],
      "name": "getApproved",
      "outputs": [
        {
          "internalType": "address",
          "name": "",
          "type": "address"
        }
      ],
      "stateMutability": "view",
      "type": "function"
    },
    {
      "inputs": [
        {
          "internalType": "address",
          "name": "initialOwner",
          "type": "address"
        }
      ],
      "name": "initialize",
      "outputs": [],
      "stateMutability": "nonpayable",
      "type": "function"
    },
    {
      "inputs": [
        {
          "internalType": "address",
          "name": "owner",
          "type": "address"
        },
        {
          "internalType": "address",
          "name": "operator",
          "type": "address"
        }
      ],
      "name": "isApprovedForAll",
      "outputs": [
        {
          "internalType": "bool",
          "name": "",
          "type": "bool"
        }
      ],
      "stateMutability": "view",
      "type": "function"
    },
    {
      "inputs": [],
      "name": "name",
      "outputs": [
        {
          "internalType": "string",
          "name": "",
          "type": "string"
        }
      ],
      "stateMutability": "view",
      "type": "function"
    },
    {
      "inputs": [],
      "name": "owner",
      "outputs": [
        {
          "internalType": "address",
          "name": "",
          "type": "address"
        }
      ],
      "stateMutability": "view",
      "type": "function"
    },
    {
      "inputs": [
        {
          "internalType": "uint256",
          "name": "tokenId",
          "type": "uint256"
        }
      ],
      "name": "ownerOf",
      "outputs": [
        {
          "internalType": "address",
          "name": "",
          "type": "address"
        }
      ],
      "stateMutability": "view",
      "type": "function"
    },
    {
      "inputs": [],
      "name": "paused",
      "outputs": [
        {
          "internalType": "bool",
          "name": "",
          "type": "bool"
        }
      ],
      "stateMutability": "view",
      "type": "function"
    },
    {
      "inputs": [],
      "name": "proxiableUUID",
      "outputs": [
        {
          "internalType": "bytes32",
          "name": "",
          "type": "bytes32"
        }
      ],
      "stateMutability": "view",
      "type": "function"
    },
    {
      "inputs": [],
      "name": "renounceOwnership",
      "outputs": [],
      "stateMutability": "nonpayable",
      "type": "function"
    },
    {
      "inputs": [
        {
          "internalType": "address",
          "name": "from",
          "type": "address"
        },
        {
          "internalType": "address",
          "name": "to",
          "type": "address"
        },
        {
          "internalType": "uint256",
          "name": "tokenId",
          "type": "uint256"
        }
      ],
      "name": "safeTransferFrom",
      "outputs": [],
      "stateMutability": "nonpayable",
      "type": "function"
    },
    {
      "inputs": [
        {
          "internalType": "address",
          "name": "from",
          "type": "address"
        },
        {
          "internalType": "address",
          "name": "to",
          "type": "address"
        },
        {
          "internalType": "uint256",
          "name": "tokenId",
          "type": "uint256"
        },
        {
          "internalType": "bytes",
          "name": "data",
          "type": "bytes"
        }
      ],
      "name": "safeTransferFrom",
      "outputs": [],
      "stateMutability": "nonpayable",
      "type": "function"
    },
    {
      "inputs": [
        {
          "internalType": "address",
          "name": "operator",
          "type": "address"
        },
        {
          "internalType": "bool",
          "name": "approved",
          "type": "bool"
        }
      ],
      "name": "setApprovalForAll",
      "outputs": [],
      "stateMutability": "nonpayable",
      "type": "function"
    },
    {
      "inputs": [
        {
          "internalType": "bytes4",
          "name": "interfaceId",
          "type": "bytes4"
        }
      ],
      "name": "supportsInterface",
      "outputs": [
        {
          "internalType": "bool",
          "name": "",
          "type": "bool"
        }
      ],
      "stateMutability": "view",
      "type": "function"
    },
    {
      "inputs": [],
      "name": "symbol",
      "outputs": [
        {
          "internalType": "string",
          "name": "",
          "type": "string"
        }
      ],
      "stateMutability": "view",
      "type": "function"
    },
    {
      "inputs": [
        {
          "internalType": "uint256",
          "name": "index",
          "type": "uint256"
        }
      ],
      "name": "tokenByIndex",
      "outputs": [
        {
          "internalType": "uint256",
          "name": "",
          "type": "uint256"
        }
      ],
      "stateMutability": "view",
      "type": "function"
    },
    {
      "inputs": [
        {
          "internalType": "address",
          "name": "owner",
          "type": "address"
        },
        {
          "internalType": "uint256",
          "name": "index",
          "type": "uint256"
        }
      ],
      "name": "tokenOfOwnerByIndex",
      "outputs": [
        {
          "internalType": "uint256",
          "name": "",
          "type": "uint256"
        }
      ],
      "stateMutability": "view",
      "type": "function"
    },
    {
      "inputs": [
        {
          "internalType": "uint256",
          "name": "tokenId",
          "type": "uint256"
        }
      ],
      "name": "tokenURI",
      "outputs": [
        {
          "internalType": "string",
          "name": "",
          "type": "string"
        }
      ],
      "stateMutability": "view",
      "type": "function"
    },
    {
      "inputs": [],
      "name": "totalSupply",
      "outputs": [
        {
          "internalType": "uint256",
          "name": "",
          "type": "uint256"
        }
      ],
      "stateMutability": "view",
      "type": "function"
    },
    {
      "inputs": [
        {
          "internalType": "address",
          "name": "from",
          "type": "address"
        },
        {
          "internalType": "address",
          "name": "to",
          "type": "address"
        },
        {
          "internalType": "uint256",
          "name": "tokenId",
          "type": "uint256"
        }
      ],
      "name": "transferFrom",
      "outputs": [],
      "stateMutability": "nonpayable",
      "type": "function"
    },
    {
      "inputs": [
        {
          "internalType": "address",
          "name": "newOwner",
          "type": "address"
        }
      ],
      "name": "transferOwnership",
      "outputs": [],
      "stateMutability": "nonpayable",
      "type": "function"
    },
    {
      "inputs": [
        {
          "internalType": "address",
          "name": "newImplementation",
          "type": "address"
        },
        {
          "internalType": "bytes",
          "name": "data",
          "type": "bytes"
        }
      ],
      "name": "upgradeToAndCall",
      "outputs": [],
      "stateMutability": "payable",
      "type": "function"
    }
  ],
  "bytecode": "0x60a06040523073ffffffffffffffffffffffffffffffffffffffff1660809073ffffffffffffffffffffffffffffffffffffffff1681525034801561004357600080fd5b5061005261005760201b60201c565b6101de565b600061006761015b60201b60201c565b90508060000160089054906101000a900460ff16156100b2576040517ff92ee8a900000000000000000000000000000000000000000000000000000000815260040160405180910390fd5b67ffffffffffffffff80168160000160009054906101000a900467ffffffffffffffff1667ffffffffffffffff16146101585767ffffffffffffffff8160000160006101000a81548167ffffffffffffffff021916908367ffffffffffffffff1602179055507fc7f505b2f371ae2175ee4913f4499e1f2633a7b5936321eed1cdaeb6115181d267ffffffffffffffff60405161014f91906101c3565b60405180910390a15b50565b60008061016c61017560201b60201c565b90508091505090565b60007ff0c57e16840df040f15088dc2f81fe391c3923bec73e23a9662efc9c229c6a0060001b905090565b600067ffffffffffffffff82169050919050565b6101bd816101a0565b82525050565b60006020820190506101d860008301846101b4565b92915050565b60805161389f61020760003960008181611101015281816111560152611311015261389f6000f3fe60806040526004361061014b5760003560e01c80636352211e116100b6578063ad3cb1cc1161006f578063ad3cb1cc14610497578063b88d4fde146104c2578063c4d66de8146104eb578063c87b56dd14610514578063e985e9c514610551578063f2fde38b1461058e5761014b565b80636352211e1461038757806370a08231146103c4578063715018a6146104015780638da5cb5b1461041857806395d89b4114610443578063a22cb4651461046e5761014b565b80632f745c59116101085780632f745c591461027257806342842e0e146102af5780634f1ef286146102d85780634f6ccce7146102f457806352d1902d146103315780635c975abb1461035c5761014b565b806301ffc9a71461015057806306fdde031461018d578063081812fc146101b8578063095ea7b3146101f557806318160ddd1461021e57806323b872dd14610249575b600080fd5b34801561015c57600080fd5b5061017760048036038101906101729190612bdc565b6105b7565b6040516101849190612c24565b60405180910390f35b34801561019957600080fd5b506101a26105c9565b6040516101af9190612ccf565b60405180910390f35b3480156101c457600080fd5b506101df60048036038101906101da9190612d27565b61066a565b6040516101ec9190612d95565b60405180910390f35b34801561020157600080fd5b5061021c60048036038101906102179190612ddc565b610686565b005b34801561022a57600080fd5b5061023361069c565b6040516102409190612e2b565b60405180910390f35b34801561025557600080fd5b50610270600480360381019061026b9190612e46565b6106b7565b005b34801561027e57600080fd5b5061029960048036038101906102949190612ddc565b6107b9565b6040516102a69190612e2b565b60405180910390f35b3480156102bb57600080fd5b506102d660048036038101906102d19190612e46565b610870565b005b6102f260048036038101906102ed9190612fce565b610890565b005b34801561030057600080fd5b5061031b60048036038101906103169190612d27565b6108af565b6040516103289190612e2b565b60405180910390f35b34801561033d57600080fd5b50610346610933565b6040516103539190613043565b60405180910390f35b34801561036857600080fd5b50610371610966565b60405161037e9190612c24565b60405180910390f35b34801561039357600080fd5b506103ae60048036038101906103a99190612d27565b61098b565b6040516103bb9190612d95565b60405180910390f35b3480156103d057600080fd5b506103eb60048036038101906103e6919061305e565b61099d565b6040516103f89190612e2b565b60405180910390f35b34801561040d57600080fd5b50610416610a66565b005b34801561042457600080fd5b5061042d610a7a565b60405161043a9190612d95565b60405180910390f35b34801561044f57600080fd5b50610458610ab2565b6040516104659190612ccf565b60405180910390f35b34801561047a57600080fd5b50610495600480360381019061049091906130b7565b610b53565b005b3480156104a357600080fd5b506104ac610b69565b6040516104b99190612ccf565b60405180910390f35b3480156104ce57600080fd5b506104e960048036038101906104e491906130f7565b610ba2565b005b3480156104f757600080fd5b50610512600480360381019061050d919061305e565b610bc7565b005b34801561052057600080fd5b5061053b60048036038101906105369190612d27565b610df2565b6040516105489190612ccf565b60405180910390f35b34801561055d57600080fd5b506105786004803603810190610573919061317a565b610e23565b6040516105859190612c24565b60405180910390f35b34801561059a57600080fd5b506105b560048036038101906105b0919061305e565b610ec5565b005b60006105c282610f4b565b9050919050565b606060006105d5610fac565b90508060000180546105e6906131e9565b80601f0160208091040260200160405190810160405280929190818152602001828054610612906131e9565b801561065f5780601f106106345761010080835404028352916020019161065f565b820191906000526020600020905b81548152906001019060200180831161064257829003601f168201915b505050505091505090565b600061067582610fd4565b5061067f8261105c565b9050919050565b61069882826106936110a7565b6110af565b5050565b6000806106a76110c1565b9050806002018054905091505090565b600073ffffffffffffffffffffffffffffffffffffffff168273ffffffffffffffffffffffffffffffffffffffff16036107295760006040517f64a0ae920000000000000000000000000000000000000000000000000000000081526004016107209190612d95565b60405180910390fd5b600061073d83836107386110a7565b6110e9565b90508373ffffffffffffffffffffffffffffffffffffffff168173ffffffffffffffffffffffffffffffffffffffff16146107b3578382826040517f64283d7b0000000000000000000000000000000000000000000000000000000081526004016107aa9392919061321a565b60405180910390fd5b50505050565b6000806107c46110c1565b90506107cf8461099d565b83106108145783836040517fa57d13dc00000000000000000000000000000000000000000000000000000000815260040161080b929190613251565b60405180910390fd5b8060000160008573ffffffffffffffffffffffffffffffffffffffff1673ffffffffffffffffffffffffffffffffffffffff16815260200190815260200160002060008481526020019081526020016000205491505092915050565b61088b83838360405180602001604052806000815250610ba2565b505050565b6108986110ff565b6108a1826111e5565b6108ab82826111f0565b5050565b6000806108ba6110c1565b90506108c461069c565b831061090a576000836040517fa57d13dc000000000000000000000000000000000000000000000000000000008152600401610901929190613251565b60405180910390fd5b8060020183815481106109205761091f61327a565b5b9060005260206000200154915050919050565b600061093d61130f565b7f360894a13ba1a3210667c828492db98dca3e2076cc3735a920a3ca505d382bbc60001b905090565b600080610971611396565b90508060000160009054906101000a900460ff1691505090565b600061099682610fd4565b9050919050565b6000806109a8610fac565b9050600073ffffffffffffffffffffffffffffffffffffffff168373ffffffffffffffffffffffffffffffffffffffff1603610a1c5760006040517f89c62b64000000000000000000000000000000000000000000000000000000008152600401610a139190612d95565b60405180910390fd5b8060030160008473ffffffffffffffffffffffffffffffffffffffff1673ffffffffffffffffffffffffffffffffffffffff16815260200190815260200160002054915050919050565b610a6e6113be565b610a786000611445565b565b600080610a8561151c565b90508060000160009054906101000a900473ffffffffffffffffffffffffffffffffffffffff1691505090565b60606000610abe610fac565b9050806001018054610acf906131e9565b80601f0160208091040260200160405190810160405280929190818152602001828054610afb906131e9565b8015610b485780601f10610b1d57610100808354040283529160200191610b48565b820191906000526020600020905b815481529060010190602001808311610b2b57829003601f168201915b505050505091505090565b610b65610b5e6110a7565b8383611544565b5050565b6040518060400160405280600581526020017f352e302e3000000000000000000000000000000000000000000000000000000081525081565b610bad8484846106b7565b610bc1610bb86110a7565b858585856116c2565b50505050565b6000610bd1611873565b905060008160000160089054906101000a900460ff1615905060008260000160009054906101000a900467ffffffffffffffff1690506000808267ffffffffffffffff16148015610c1f5750825b9050600060018367ffffffffffffffff16148015610c54575060003073ffffffffffffffffffffffffffffffffffffffff163b145b905081158015610c62575080155b15610c99576040517ff92ee8a900000000000000000000000000000000000000000000000000000000815260040160405180910390fd5b60018560000160006101000a81548167ffffffffffffffff021916908367ffffffffffffffff1602179055508315610ce95760018560000160086101000a81548160ff0219169083151502179055505b610d5d6040518060400160405280601181526020017f4c696b655374616b65506f736974696f6e0000000000000000000000000000008152506040518060400160405280600681526020017f4c494b4553500000000000000000000000000000000000000000000000000000815250611887565b610d6561189d565b610d6d6118a7565b610d756118b1565b610d7e866118bb565b610d866118cf565b610d8e6118d9565b8315610dea5760008560000160086101000a81548160ff0219169083151502179055507fc7f505b2f371ae2175ee4913f4499e1f2633a7b5936321eed1cdaeb6115181d26001604051610de19190613302565b60405180910390a15b505050505050565b6060610dfd826118eb565b604051602001610e0d919061337f565b6040516020818303038152906040529050919050565b600080610e2e610fac565b90508060050160008573ffffffffffffffffffffffffffffffffffffffff1673ffffffffffffffffffffffffffffffffffffffff16815260200190815260200160002060008473ffffffffffffffffffffffffffffffffffffffff1673ffffffffffffffffffffffffffffffffffffffff16815260200190815260200160002060009054906101000a900460ff1691505092915050565b610ecd6113be565b600073ffffffffffffffffffffffffffffffffffffffff168173ffffffffffffffffffffffffffffffffffffffff1603610f3f5760006040517f1e4fbdf7000000000000000000000000000000000000000000000000000000008152600401610f369190612d95565b60405180910390fd5b610f4881611445565b50565b6000634906490660e01b7bffffffffffffffffffffffffffffffffffffffffffffffffffffffff1916827bffffffffffffffffffffffffffffffffffffffffffffffffffffffff19161480610fa55750610fa4826119b9565b5b9050919050565b60007f80bb2b638cc20bc4d0a60d66940f3ab4a00c1d7b313497ca82fb0b4ab0079300905090565b600080610fe083611a33565b9050600073ffffffffffffffffffffffffffffffffffffffff168173ffffffffffffffffffffffffffffffffffffffff160361105357826040517f7e27328900000000000000000000000000000000000000000000000000000000815260040161104a9190612e2b565b60405180910390fd5b80915050919050565b600080611067610fac565b905080600401600084815260200190815260200160002060009054906101000a900473ffffffffffffffffffffffffffffffffffffffff16915050919050565b600033905090565b6110bc8383836001611a7e565b505050565b60007f645e039705490088daad89bae25049a34f4a9072d398537b1ab2425f24cbed00905090565b60006110f6848484611c52565b90509392505050565b7f000000000000000000000000000000000000000000000000000000000000000073ffffffffffffffffffffffffffffffffffffffff163073ffffffffffffffffffffffffffffffffffffffff1614806111ac57507f000000000000000000000000000000000000000000000000000000000000000073ffffffffffffffffffffffffffffffffffffffff16611193611d6f565b73ffffffffffffffffffffffffffffffffffffffff1614155b156111e3576040517fe07c8dba00000000000000000000000000000000000000000000000000000000815260040160405180910390fd5b565b6111ed6113be565b50565b8173ffffffffffffffffffffffffffffffffffffffff166352d1902d6040518163ffffffff1660e01b8152600401602060405180830381865afa92505050801561125857506040513d601f19601f8201168201806040525081019061125591906133d1565b60015b61129957816040517f4c9c8ce30000000000000000000000000000000000000000000000000000000081526004016112909190612d95565b60405180910390fd5b7f360894a13ba1a3210667c828492db98dca3e2076cc3735a920a3ca505d382bbc60001b811461130057806040517faa1d49a40000000000000000000000000000000000000000000000000000000081526004016112f79190613043565b60405180910390fd5b61130a8383611dc6565b505050565b7f000000000000000000000000000000000000000000000000000000000000000073ffffffffffffffffffffffffffffffffffffffff163073ffffffffffffffffffffffffffffffffffffffff1614611394576040517fe07c8dba00000000000000000000000000000000000000000000000000000000815260040160405180910390fd5b565b60007fcd5ed15c6e187e77e9aee88184c21f4f2182ab5827cb3b7e07fbedcd63f03300905090565b6113c66110a7565b73ffffffffffffffffffffffffffffffffffffffff166113e4610a7a565b73ffffffffffffffffffffffffffffffffffffffff1614611443576114076110a7565b6040517f118cdaa700000000000000000000000000000000000000000000000000000000815260040161143a9190612d95565b60405180910390fd5b565b600061144f61151c565b905060008160000160009054906101000a900473ffffffffffffffffffffffffffffffffffffffff169050828260000160006101000a81548173ffffffffffffffffffffffffffffffffffffffff021916908373ffffffffffffffffffffffffffffffffffffffff1602179055508273ffffffffffffffffffffffffffffffffffffffff168173ffffffffffffffffffffffffffffffffffffffff167f8be0079c531659141344cd1fd0a4f28419497f9722a3daafe3b4186f6b6457e060405160405180910390a3505050565b60007f9016d09d72d40fdae2fd8ceac6b6234c7706214fd39c1cd1e609a0528c199300905090565b600061154e610fac565b9050600073ffffffffffffffffffffffffffffffffffffffff168373ffffffffffffffffffffffffffffffffffffffff16036115c157826040517f5b08ba180000000000000000000000000000000000000000000000000000000081526004016115b89190612d95565b60405180910390fd5b818160050160008673ffffffffffffffffffffffffffffffffffffffff1673ffffffffffffffffffffffffffffffffffffffff16815260200190815260200160002060008573ffffffffffffffffffffffffffffffffffffffff1673ffffffffffffffffffffffffffffffffffffffff16815260200190815260200160002060006101000a81548160ff0219169083151502179055508273ffffffffffffffffffffffffffffffffffffffff168473ffffffffffffffffffffffffffffffffffffffff167f17307eab39ab6107e8899845ad3d59bd9653f200f220920489ca2b5937696c31846040516116b49190612c24565b60405180910390a350505050565b60008373ffffffffffffffffffffffffffffffffffffffff163b111561186c578273ffffffffffffffffffffffffffffffffffffffff1663150b7a02868685856040518563ffffffff1660e01b81526004016117219493929190613453565b6020604051808303816000875af192505050801561175d57506040513d601f19601f8201168201806040525081019061175a91906134b4565b60015b6117e1573d806000811461178d576040519150601f19603f3d011682016040523d82523d6000602084013e611792565b606091505b5060008151036117d957836040517f64a0ae920000000000000000000000000000000000000000000000000000000081526004016117d09190612d95565b60405180910390fd5b805160208201fd5b63150b7a0260e01b7bffffffffffffffffffffffffffffffffffffffffffffffffffffffff1916817bffffffffffffffffffffffffffffffffffffffffffffffffffffffff19161461186a57836040517f64a0ae920000000000000000000000000000000000000000000000000000000081526004016118619190612d95565b60405180910390fd5b505b5050505050565b60008061187e611e39565b90508091505090565b61188f611e64565b6118998282611ea4565b5050565b6118a5611e64565b565b6118af611e64565b565b6118b9611e64565b565b6118c3611e64565b6118cc81611ee1565b50565b6118d7611e64565b565b6118e1611e64565b6118e9611f67565b565b6060600060016118fa84611f88565b01905060008167ffffffffffffffff81111561191957611918612ea3565b5b6040519080825280601f01601f19166020018201604052801561194b5781602001600182028036833780820191505090505b509050600082602083010190505b6001156119ae578080600190039150507f3031323334353637383961626364656600000000000000000000000000000000600a86061a8153600a85816119a2576119a16134e1565b5b04945060008503611959575b819350505050919050565b60007f780e9d63000000000000000000000000000000000000000000000000000000007bffffffffffffffffffffffffffffffffffffffffffffffffffffffff1916827bffffffffffffffffffffffffffffffffffffffffffffffffffffffff19161480611a2c5750611a2b826120db565b5b9050919050565b600080611a3e610fac565b905080600201600084815260200190815260200160002060009054906101000a900473ffffffffffffffffffffffffffffffffffffffff16915050919050565b6000611a88610fac565b90508180611ac35750600073ffffffffffffffffffffffffffffffffffffffff168373ffffffffffffffffffffffffffffffffffffffff1614155b15611bf7576000611ad385610fd4565b9050600073ffffffffffffffffffffffffffffffffffffffff168473ffffffffffffffffffffffffffffffffffffffff1614158015611b3e57508373ffffffffffffffffffffffffffffffffffffffff168173ffffffffffffffffffffffffffffffffffffffff1614155b8015611b515750611b4f8185610e23565b155b15611b9357836040517fa9fbf51f000000000000000000000000000000000000000000000000000000008152600401611b8a9190612d95565b60405180910390fd5b8215611bf557848673ffffffffffffffffffffffffffffffffffffffff168273ffffffffffffffffffffffffffffffffffffffff167f8c5be1e5ebec7d5bd14f71427d1e84f3dd0314c0f7b2291e5b200ac8c7c3b92560405160405180910390a45b505b8481600401600086815260200190815260200160002060006101000a81548173ffffffffffffffffffffffffffffffffffffffff021916908373ffffffffffffffffffffffffffffffffffffffff1602179055505050505050565b600080611c608585856121bd565b9050600073ffffffffffffffffffffffffffffffffffffffff168173ffffffffffffffffffffffffffffffffffffffff1603611ca457611c9f846123ea565b611ce3565b8473ffffffffffffffffffffffffffffffffffffffff168173ffffffffffffffffffffffffffffffffffffffff1614611ce257611ce18185612446565b5b5b600073ffffffffffffffffffffffffffffffffffffffff168573ffffffffffffffffffffffffffffffffffffffff1603611d2557611d2084612546565b611d64565b8473ffffffffffffffffffffffffffffffffffffffff168173ffffffffffffffffffffffffffffffffffffffff1614611d6357611d628585612632565b5b5b809150509392505050565b6000611d9d7f360894a13ba1a3210667c828492db98dca3e2076cc3735a920a3ca505d382bbc60001b6126ce565b60000160009054906101000a900473ffffffffffffffffffffffffffffffffffffffff16905090565b611dcf826126d8565b8173ffffffffffffffffffffffffffffffffffffffff167fbc7cd75a20ee27fd9adebab32041f755214dbc6bffa90cc0225b39da2e5c2d3b60405160405180910390a2600081511115611e2c57611e2682826127a5565b50611e35565b611e34612829565b5b5050565b60007ff0c57e16840df040f15088dc2f81fe391c3923bec73e23a9662efc9c229c6a0060001b905090565b611e6c612866565b611ea2576040517fd7e6bcf800000000000000000000000000000000000000000000000000000000815260040160405180910390fd5b565b611eac611e64565b6000611eb6610fac565b905082816000019081611ec991906136b2565b5081816001019081611edb91906136b2565b50505050565b611ee9611e64565b600073ffffffffffffffffffffffffffffffffffffffff168173ffffffffffffffffffffffffffffffffffffffff1603611f5b5760006040517f1e4fbdf7000000000000000000000000000000000000000000000000000000008152600401611f529190612d95565b60405180910390fd5b611f6481611445565b50565b611f6f611e64565b6000611f79612886565b90506001816000018190555050565b600080600090507a184f03e93ff9f4daa797ed6e38ed64bf6a1f0100000000000000008310611fe6577a184f03e93ff9f4daa797ed6e38ed64bf6a1f0100000000000000008381611fdc57611fdb6134e1565b5b0492506040810190505b6d04ee2d6d415b85acef81000000008310612023576d04ee2d6d415b85acef81000000008381612019576120186134e1565b5b0492506020810190505b662386f26fc10000831061205257662386f26fc100008381612048576120476134e1565b5b0492506010810190505b6305f5e100831061207b576305f5e1008381612071576120706134e1565b5b0492506008810190505b61271083106120a0576127108381612096576120956134e1565b5b0492506004810190505b606483106120c357606483816120b9576120b86134e1565b5b0492506002810190505b600a83106120d2576001810190505b80915050919050565b60007f80ac58cd000000000000000000000000000000000000000000000000000000007bffffffffffffffffffffffffffffffffffffffffffffffffffffffff1916827bffffffffffffffffffffffffffffffffffffffffffffffffffffffff191614806121a657507f5b5e139f000000000000000000000000000000000000000000000000000000007bffffffffffffffffffffffffffffffffffffffffffffffffffffffff1916827bffffffffffffffffffffffffffffffffffffffffffffffffffffffff1916145b806121b657506121b5826128ae565b5b9050919050565b6000806121c8610fac565b905060006121d585611a33565b9050600073ffffffffffffffffffffffffffffffffffffffff168473ffffffffffffffffffffffffffffffffffffffff161461221757612216818587612918565b5b600073ffffffffffffffffffffffffffffffffffffffff168173ffffffffffffffffffffffffffffffffffffffff16146122aa57612259600086600080611a7e565b60018260030160008373ffffffffffffffffffffffffffffffffffffffff1673ffffffffffffffffffffffffffffffffffffffff168152602001908152602001600020600082825403925050819055505b600073ffffffffffffffffffffffffffffffffffffffff168673ffffffffffffffffffffffffffffffffffffffff161461232f5760018260030160008873ffffffffffffffffffffffffffffffffffffffff1673ffffffffffffffffffffffffffffffffffffffff168152602001908152602001600020600082825401925050819055505b8582600201600087815260200190815260200160002060006101000a81548173ffffffffffffffffffffffffffffffffffffffff021916908373ffffffffffffffffffffffffffffffffffffffff160217905550848673ffffffffffffffffffffffffffffffffffffffff168273ffffffffffffffffffffffffffffffffffffffff167fddf252ad1be2c89b69c2b068fc378daa952ba7f163c4a11628f55a4df523b3ef60405160405180910390a480925050509392505050565b60006123f46110c1565b9050806002018054905081600301600084815260200190815260200160002081905550806002018290806001815401808255809150506001900390600052602060002001600090919091909150555050565b60006124506110c1565b9050600061245d8461099d565b9050600082600101600085815260200190815260200160002054905060008360000160008773ffffffffffffffffffffffffffffffffffffffff1673ffffffffffffffffffffffffffffffffffffffff168152602001908152602001600020905082821461250f57600081600085815260200190815260200160002054905080826000858152602001908152602001600020819055508285600101600083815260200190815260200160002081905550505b8360010160008681526020019081526020016000206000905580600084815260200190815260200160002060009055505050505050565b60006125506110c1565b905060006001826002018054905061256891906137b3565b90506000826003016000858152602001908152602001600020549050600083600201838154811061259c5761259b61327a565b5b90600052602060002001549050808460020183815481106125c0576125bf61327a565b5b906000526020600020018190555081846003016000838152602001908152602001600020819055508360030160008681526020019081526020016000206000905583600201805480612615576126146137e7565b5b600190038181906000526020600020016000905590555050505050565b600061263c6110c1565b90506000600161264b8561099d565b61265591906137b3565b9050828260000160008673ffffffffffffffffffffffffffffffffffffffff1673ffffffffffffffffffffffffffffffffffffffff168152602001908152602001600020600083815260200190815260200160002081905550808260010160008581526020019081526020016000208190555050505050565b6000819050919050565b60008173ffffffffffffffffffffffffffffffffffffffff163b0361273457806040517f4c9c8ce300000000000000000000000000000000000000000000000000000000815260040161272b9190612d95565b60405180910390fd5b806127617f360894a13ba1a3210667c828492db98dca3e2076cc3735a920a3ca505d382bbc60001b6126ce565b60000160006101000a81548173ffffffffffffffffffffffffffffffffffffffff021916908373ffffffffffffffffffffffffffffffffffffffff16021790555050565b60606000808473ffffffffffffffffffffffffffffffffffffffff16846040516127cf9190613852565b600060405180830381855af49150503d806000811461280a576040519150601f19603f3d011682016040523d82523d6000602084013e61280f565b606091505b509150915061281f8583836129dc565b9250505092915050565b6000341115612864576040517fb398979f00000000000000000000000000000000000000000000000000000000815260040160405180910390fd5b565b6000612870611873565b60000160089054906101000a900460ff16905090565b60007f9b779b17422d0df92223018b32b4d1fa46e071723d6817e2486d003becc55f00905090565b60007f01ffc9a7000000000000000000000000000000000000000000000000000000007bffffffffffffffffffffffffffffffffffffffffffffffffffffffff1916827bffffffffffffffffffffffffffffffffffffffffffffffffffffffff1916149050919050565b612923838383612a6b565b6129d757600073ffffffffffffffffffffffffffffffffffffffff168373ffffffffffffffffffffffffffffffffffffffff160361299857806040517f7e27328900000000000000000000000000000000000000000000000000000000815260040161298f9190612e2b565b60405180910390fd5b81816040517f177e802f0000000000000000000000000000000000000000000000000000000081526004016129ce929190613251565b60405180910390fd5b505050565b6060826129f1576129ec82612b2c565b612a63565b60008251148015612a19575060008473ffffffffffffffffffffffffffffffffffffffff163b145b15612a5b57836040517f9996b315000000000000000000000000000000000000000000000000000000008152600401612a529190612d95565b60405180910390fd5b819050612a64565b5b9392505050565b60008073ffffffffffffffffffffffffffffffffffffffff168373ffffffffffffffffffffffffffffffffffffffff1614158015612b2357508273ffffffffffffffffffffffffffffffffffffffff168473ffffffffffffffffffffffffffffffffffffffff161480612ae45750612ae38484610e23565b5b80612b2257508273ffffffffffffffffffffffffffffffffffffffff16612b0a8361105c565b73ffffffffffffffffffffffffffffffffffffffff16145b5b90509392505050565b600081511115612b3e57805160208201fd5b6040517fd6bda27500000000000000000000000000000000000000000000000000000000815260040160405180910390fd5b6000604051905090565b600080fd5b600080fd5b60007fffffffff0000000000000000000000000000000000000000000000000000000082169050919050565b612bb981612b84565b8114612bc457600080fd5b50565b600081359050612bd681612bb0565b92915050565b600060208284031215612bf257612bf1612b7a565b5b6000612c0084828501612bc7565b91505092915050565b60008115159050919050565b612c1e81612c09565b82525050565b6000602082019050612c396000830184612c15565b92915050565b600081519050919050565b600082825260208201905092915050565b60005b83811015612c79578082015181840152602081019050612c5e565b60008484015250505050565b6000601f19601f8301169050919050565b6000612ca182612c3f565b612cab8185612c4a565b9350612cbb818560208601612c5b565b612cc481612c85565b840191505092915050565b60006020820190508181036000830152612ce98184612c96565b905092915050565b6000819050919050565b612d0481612cf1565b8114612d0f57600080fd5b50565b600081359050612d2181612cfb565b92915050565b600060208284031215612d3d57612d3c612b7a565b5b6000612d4b84828501612d12565b91505092915050565b600073ffffffffffffffffffffffffffffffffffffffff82169050919050565b6000612d7f82612d54565b9050919050565b612d8f81612d74565b82525050565b6000602082019050612daa6000830184612d86565b92915050565b612db981612d74565b8114612dc457600080fd5b50565b600081359050612dd681612db0565b92915050565b60008060408385031215612df357612df2612b7a565b5b6000612e0185828601612dc7565b9250506020612e1285828601612d12565b9150509250929050565b612e2581612cf1565b82525050565b6000602082019050612e406000830184612e1c565b92915050565b600080600060608486031215612e5f57612e5e612b7a565b5b6000612e6d86828701612dc7565b9350506020612e7e86828701612dc7565b9250506040612e8f86828701612d12565b9150509250925092565b600080fd5b600080fd5b7f4e487b7100000000000000000000000000000000000000000000000000000000600052604160045260246000fd5b612edb82612c85565b810181811067ffffffffffffffff82111715612efa57612ef9612ea3565b5b80604052505050565b6000612f0d612b70565b9050612f198282612ed2565b919050565b600067ffffffffffffffff821115612f3957612f38612ea3565b5b612f4282612c85565b9050602081019050919050565b82818337600083830152505050565b6000612f71612f6c84612f1e565b612f03565b905082815260208101848484011115612f8d57612f8c612e9e565b5b612f98848285612f4f565b509392505050565b600082601f830112612fb557612fb4612e99565b5b8135612fc5848260208601612f5e565b91505092915050565b60008060408385031215612fe557612fe4612b7a565b5b6000612ff385828601612dc7565b925050602083013567ffffffffffffffff81111561301457613013612b7f565b5b61302085828601612fa0565b9150509250929050565b6000819050919050565b61303d8161302a565b82525050565b60006020820190506130586000830184613034565b92915050565b60006020828403121561307457613073612b7a565b5b600061308284828501612dc7565b91505092915050565b61309481612c09565b811461309f57600080fd5b50565b6000813590506130b18161308b565b92915050565b600080604083850312156130ce576130cd612b7a565b5b60006130dc85828601612dc7565b92505060206130ed858286016130a2565b9150509250929050565b6000806000806080858703121561311157613110612b7a565b5b600061311f87828801612dc7565b945050602061313087828801612dc7565b935050604061314187828801612d12565b925050606085013567ffffffffffffffff81111561316257613161612b7f565b5b61316e87828801612fa0565b91505092959194509250565b6000806040838503121561319157613190612b7a565b5b600061319f85828601612dc7565b92505060206131b085828601612dc7565b9150509250929050565b7f4e487b7100000000000000000000000000000000000000000000000000000000600052602260045260246000fd5b6000600282049050600182168061320157607f821691505b602082108103613214576132136131ba565b5b50919050565b600060608201905061322f6000830186612d86565b61323c6020830185612e1c565b6132496040830184612d86565b949350505050565b60006040820190506132666000830185612d86565b6132736020830184612e1c565b9392505050565b7f4e487b7100000000000000000000000000000000000000000000000000000000600052603260045260246000fd5b6000819050919050565b600067ffffffffffffffff82169050919050565b6000819050919050565b60006132ec6132e76132e2846132a9565b6132c7565b6132b3565b9050919050565b6132fc816132d1565b82525050565b600060208201905061331760008301846132f3565b92915050565b7f4c494b4553500000000000000000000000000000000000000000000000000000815250565b600081905092915050565b600061335982612c3f565b6133638185613343565b9350613373818560208601612c5b565b80840191505092915050565b600061338a8261331d565b60068201915061339a828461334e565b915081905092915050565b6133ae8161302a565b81146133b957600080fd5b50565b6000815190506133cb816133a5565b92915050565b6000602082840312156133e7576133e6612b7a565b5b60006133f5848285016133bc565b91505092915050565b600081519050919050565b600082825260208201905092915050565b6000613425826133fe565b61342f8185613409565b935061343f818560208601612c5b565b61344881612c85565b840191505092915050565b60006080820190506134686000830187612d86565b6134756020830186612d86565b6134826040830185612e1c565b8181036060830152613494818461341a565b905095945050505050565b6000815190506134ae81612bb0565b92915050565b6000602082840312156134ca576134c9612b7a565b5b60006134d88482850161349f565b91505092915050565b7f4e487b7100000000000000000000000000000000000000000000000000000000600052601260045260246000fd5b60008190508160005260206000209050919050565b60006020601f8301049050919050565b600082821b905092915050565b6000600883026135727fffffffffffffffffffffffffffffffffffffffffffffffffffffffffffffffff82613535565b61357c8683613535565b95508019841693508086168417925050509392505050565b60006135af6135aa6135a584612cf1565b6132c7565b612cf1565b9050919050565b6000819050919050565b6135c983613594565b6135dd6135d5826135b6565b848454613542565b825550505050565b600090565b6135f26135e5565b6135fd8184846135c0565b505050565b5b81811015613621576136166000826135ea565b600181019050613603565b5050565b601f8211156136665761363781613510565b61364084613525565b8101602085101561364f578190505b61366361365b85613525565b830182613602565b50505b505050565b600082821c905092915050565b60006136896000198460080261366b565b1980831691505092915050565b60006136a28383613678565b9150826002028217905092915050565b6136bb82612c3f565b67ffffffffffffffff8111156136d4576136d3612ea3565b5b6136de82546131e9565b6136e9828285613625565b600060209050601f83116001811461371c576000841561370a578287015190505b6137148582613696565b86555061377c565b601f19841661372a86613510565b60005b828110156137525784890151825560018201915060208501945060208101905061372d565b8683101561376f578489015161376b601f891682613678565b8355505b6001600288020188555050505b505050505050565b7f4e487b7100000000000000000000000000000000000000000000000000000000600052601160045260246000fd5b60006137be82612cf1565b91506137c983612cf1565b92508282039050818111156137e1576137e0613784565b5b92915050565b7f4e487b7100000000000000000000000000000000000000000000000000000000600052603160045260246000fd5b600081905092915050565b600061382c826133fe565b6138368185613816565b9350613846818560208601612c5b565b80840191505092915050565b600061385e8284613821565b91508190509291505056fea2646970667358221220c561f64332e9667f583c42659b811b6d4eacb18677ba4325bb50e233ab90054664736f6c634300081c0033",
  "linkReferences": {},
  "deployedLinkReferences": {}
}