{
  "_format": "hh-sol-artifact-1",
  "contractName": "LikeStakePosition",
  "sourceName": "contracts/LikeStakePosition.sol",
  "abi": [
    {
      "inputs": [],
      "stateMutability": "nonpayable",
      "type": "constructor"
    },
    {
      "inputs": [
        {
          "internalType": "address",
          "name": "target",
          "type": "address"
        }
      ],
      "name": "AddressEmptyCode",
      "type": "error"
    },
    {
      "inputs": [
        {
          "internalType": "address",
          "name": "implementation",
          "type": "address"
        }
      ],
      "name": "ERC1967InvalidImplementation",
      "type": "error"
    },
    {
      "inputs": [],
      "name": "ERC1967NonPayable",
      "type": "error"
    },
    {
      "inputs": [],
      "name": "ERC721EnumerableForbiddenBatchMint",
      "type": "error"
    },
    {
      "inputs": [
        {
          "internalType": "address",
          "name": "sender",
          "type": "address"
        },
        {
          "internalType": "uint256",
          "name": "tokenId",
          "type": "uint256"
        },
        {
          "internalType": "address",
          "name": "owner",
          "type": "address"
        }
      ],
      "name": "ERC721IncorrectOwner",
      "type": "error"
    },
    {
      "inputs": [
        {
          "internalType": "address",
          "name": "operator",
          "type": "address"
        },
        {
          "internalType": "uint256",
          "name": "tokenId",
          "type": "uint256"
        }
      ],
      "name": "ERC721InsufficientApproval",
      "type": "error"
    },
    {
      "inputs": [
        {
          "internalType": "address",
          "name": "approver",
          "type": "address"
        }
      ],
      "name": "ERC721InvalidApprover",
      "type": "error"
    },
    {
      "inputs": [
        {
          "internalType": "address",
          "name": "operator",
          "type": "address"
        }
      ],
      "name": "ERC721InvalidOperator",
      "type": "error"
    },
    {
      "inputs": [
        {
          "internalType": "address",
          "name": "owner",
          "type": "address"
        }
      ],
      "name": "ERC721InvalidOwner",
      "type": "error"
    },
    {
      "inputs": [
        {
          "internalType": "address",
          "name": "receiver",
          "type": "address"
        }
      ],
      "name": "ERC721InvalidReceiver",
      "type": "error"
    },
    {
      "inputs": [
        {
          "internalType": "address",
          "name": "sender",
          "type": "address"
        }
      ],
      "name": "ERC721InvalidSender",
      "type": "error"
    },
    {
      "inputs": [
        {
          "internalType": "uint256",
          "name": "tokenId",
          "type": "uint256"
        }
      ],
      "name": "ERC721NonexistentToken",
      "type": "error"
    },
    {
      "inputs": [
        {
          "internalType": "address",
          "name": "owner",
          "type": "address"
        },
        {
          "internalType": "uint256",
          "name": "index",
          "type": "uint256"
        }
      ],
      "name": "ERC721OutOfBoundsIndex",
      "type": "error"
    },
    {
      "inputs": [],
      "name": "EnforcedPause",
      "type": "error"
    },
    {
      "inputs": [],
      "name": "ErrInvalidOwner",
      "type": "error"
    },
    {
      "inputs": [],
      "name": "ErrNotManager",
      "type": "error"
    },
    {
      "inputs": [],
      "name": "ErrZeroAddress",
      "type": "error"
    },
    {
      "inputs": [],
      "name": "ExpectedPause",
      "type": "error"
    },
    {
      "inputs": [],
      "name": "FailedCall",
      "type": "error"
    },
    {
      "inputs": [],
      "name": "InvalidInitialization",
      "type": "error"
    },
    {
      "inputs": [],
      "name": "NotInitializing",
      "type": "error"
    },
    {
      "inputs": [
        {
          "internalType": "address",
          "name": "owner",
          "type": "address"
        }
      ],
      "name": "OwnableInvalidOwner",
      "type": "error"
    },
    {
      "inputs": [
        {
          "internalType": "address",
          "name": "account",
          "type": "address"
        }
      ],
      "name": "OwnableUnauthorizedAccount",
      "type": "error"
    },
    {
      "inputs": [],
      "name": "ReentrancyGuardReentrantCall",
      "type": "error"
    },
    {
      "inputs": [],
      "name": "UUPSUnauthorizedCallContext",
      "type": "error"
    },
    {
      "inputs": [
        {
          "internalType": "bytes32",
          "name": "slot",
          "type": "bytes32"
        }
      ],
      "name": "UUPSUnsupportedProxiableUUID",
      "type": "error"
    },
    {
      "anonymous": false,
      "inputs": [
        {
          "indexed": true,
          "internalType": "address",
          "name": "owner",
          "type": "address"
        },
        {
          "indexed": true,
          "internalType": "address",
          "name": "approved",
          "type": "address"
        },
        {
          "indexed": true,
          "internalType": "uint256",
          "name": "tokenId",
          "type": "uint256"
        }
      ],
      "name": "Approval",
      "type": "event"
    },
    {
      "anonymous": false,
      "inputs": [
        {
          "indexed": true,
          "internalType": "address",
          "name": "owner",
          "type": "address"
        },
        {
          "indexed": true,
          "internalType": "address",
          "name": "operator",
          "type": "address"
        },
        {
          "indexed": false,
          "internalType": "bool",
          "name": "approved",
          "type": "bool"
        }
      ],
      "name": "ApprovalForAll",
      "type": "event"
    },
    {
      "anonymous": false,
      "inputs": [
        {
          "indexed": false,
          "internalType": "string",
          "name": "baseURI",
          "type": "string"
        }
      ],
      "name": "BaseURIUpdated",
      "type": "event"
    },
    {
      "anonymous": false,
      "inputs": [
        {
          "indexed": false,
          "internalType": "uint256",
          "name": "_fromTokenId",
          "type": "uint256"
        },
        {
          "indexed": false,
          "internalType": "uint256",
          "name": "_toTokenId",
          "type": "uint256"
        }
      ],
      "name": "BatchMetadataUpdate",
      "type": "event"
    },
    {
      "anonymous": false,
      "inputs": [
        {
          "indexed": false,
          "internalType": "uint64",
          "name": "version",
          "type": "uint64"
        }
      ],
      "name": "Initialized",
      "type": "event"
    },
    {
      "anonymous": false,
      "inputs": [
        {
          "indexed": true,
          "internalType": "address",
          "name": "manager",
          "type": "address"
        }
      ],
      "name": "ManagerUpdated",
      "type": "event"
    },
    {
      "anonymous": false,
      "inputs": [
        {
          "indexed": false,
          "internalType": "uint256",
          "name": "_tokenId",
          "type": "uint256"
        }
      ],
      "name": "MetadataUpdate",
      "type": "event"
    },
    {
      "anonymous": false,
      "inputs": [
        {
          "indexed": true,
          "internalType": "address",
          "name": "previousOwner",
          "type": "address"
        },
        {
          "indexed": true,
          "internalType": "address",
          "name": "newOwner",
          "type": "address"
        }
      ],
      "name": "OwnershipTransferred",
      "type": "event"
    },
    {
      "anonymous": false,
      "inputs": [
        {
          "indexed": false,
          "internalType": "address",
          "name": "account",
          "type": "address"
        }
      ],
      "name": "Paused",
      "type": "event"
    },
    {
      "anonymous": false,
      "inputs": [
        {
          "indexed": true,
          "internalType": "uint256",
          "name": "tokenId",
          "type": "uint256"
        }
      ],
      "name": "PositionBurned",
      "type": "event"
    },
    {
      "anonymous": false,
      "inputs": [
        {
          "indexed": true,
          "internalType": "uint256",
          "name": "tokenId",
          "type": "uint256"
        },
        {
          "indexed": true,
          "internalType": "address",
          "name": "to",
          "type": "address"
        },
        {
          "indexed": true,
          "internalType": "address",
          "name": "bookNFT",
          "type": "address"
        },
        {
          "indexed": false,
          "internalType": "uint256",
          "name": "amount",
          "type": "uint256"
        },
        {
          "indexed": false,
          "internalType": "uint256",
          "name": "rewardIndex",
          "type": "uint256"
        }
      ],
      "name": "PositionMinted",
      "type": "event"
    },
    {
      "anonymous": false,
      "inputs": [
        {
          "indexed": true,
          "internalType": "uint256",
          "name": "tokenId",
          "type": "uint256"
        },
        {
          "indexed": false,
          "internalType": "uint256",
          "name": "amount",
          "type": "uint256"
        },
        {
          "indexed": false,
          "internalType": "uint256",
          "name": "rewardIndex",
          "type": "uint256"
        }
      ],
      "name": "PositionUpdated",
      "type": "event"
    },
    {
      "anonymous": false,
      "inputs": [
        {
          "indexed": true,
          "internalType": "address",
          "name": "from",
          "type": "address"
        },
        {
          "indexed": true,
          "internalType": "address",
          "name": "to",
          "type": "address"
        },
        {
          "indexed": true,
          "internalType": "uint256",
          "name": "tokenId",
          "type": "uint256"
        }
      ],
      "name": "Transfer",
      "type": "event"
    },
    {
      "anonymous": false,
      "inputs": [
        {
          "indexed": false,
          "internalType": "address",
          "name": "account",
          "type": "address"
        }
      ],
      "name": "Unpaused",
      "type": "event"
    },
    {
      "anonymous": false,
      "inputs": [
        {
          "indexed": true,
          "internalType": "address",
          "name": "implementation",
          "type": "address"
        }
      ],
      "name": "Upgraded",
      "type": "event"
    },
    {
      "inputs": [],
      "name": "UPGRADE_INTERFACE_VERSION",
      "outputs": [
        {
          "internalType": "string",
          "name": "",
          "type": "string"
        }
      ],
      "stateMutability": "view",
      "type": "function"
    },
    {
      "inputs": [
        {
          "internalType": "address",
          "name": "to",
          "type": "address"
        },
        {
          "internalType": "uint256",
          "name": "tokenId",
          "type": "uint256"
        }
      ],
      "name": "approve",
      "outputs": [],
      "stateMutability": "nonpayable",
      "type": "function"
    },
    {
      "inputs": [
        {
          "internalType": "address",
          "name": "owner",
          "type": "address"
        }
      ],
      "name": "balanceOf",
      "outputs": [
        {
          "internalType": "uint256",
          "name": "",
          "type": "uint256"
        }
      ],
      "stateMutability": "view",
      "type": "function"
    },
    {
      "inputs": [
        {
          "internalType": "uint256",
          "name": "tokenId",
          "type": "uint256"
        }
      ],
      "name": "burnPosition",
      "outputs": [],
      "stateMutability": "nonpayable",
      "type": "function"
    },
    {
      "inputs": [
        {
          "internalType": "uint256",
          "name": "tokenId",
          "type": "uint256"
        }
      ],
      "name": "getApproved",
      "outputs": [
        {
          "internalType": "address",
          "name": "",
          "type": "address"
        }
      ],
      "stateMutability": "view",
      "type": "function"
    },
    {
      "inputs": [],
      "name": "getNextTokenId",
      "outputs": [
        {
          "internalType": "uint256",
          "name": "",
          "type": "uint256"
        }
      ],
      "stateMutability": "view",
      "type": "function"
    },
    {
      "inputs": [
        {
          "internalType": "uint256",
          "name": "tokenId",
          "type": "uint256"
        }
      ],
      "name": "getPosition",
      "outputs": [
        {
          "components": [
            {
              "internalType": "address",
              "name": "bookNFT",
              "type": "address"
            },
            {
              "internalType": "uint256",
              "name": "stakedAmount",
              "type": "uint256"
            },
            {
              "internalType": "uint256",
              "name": "rewardIndex",
              "type": "uint256"
            },
            {
              "internalType": "address",
              "name": "initialStaker",
              "type": "address"
            }
          ],
          "internalType": "struct LikeStakePosition.Position",
          "name": "",
          "type": "tuple"
        }
      ],
      "stateMutability": "view",
      "type": "function"
    },
    {
      "inputs": [
        {
          "internalType": "address",
          "name": "user",
          "type": "address"
        },
        {
          "internalType": "address",
          "name": "bookNFT",
          "type": "address"
        }
      ],
      "name": "getUserPositionByBookNFT",
      "outputs": [
        {
          "internalType": "uint256[]",
          "name": "",
          "type": "uint256[]"
        }
      ],
      "stateMutability": "view",
      "type": "function"
    },
    {
      "inputs": [
        {
          "internalType": "address",
          "name": "user",
          "type": "address"
        }
      ],
      "name": "getUserPositions",
      "outputs": [
        {
          "internalType": "uint256[]",
          "name": "positions",
          "type": "uint256[]"
        }
      ],
      "stateMutability": "view",
      "type": "function"
    },
    {
      "inputs": [
        {
          "internalType": "address",
          "name": "initialOwner",
          "type": "address"
        }
      ],
      "name": "initialize",
      "outputs": [],
      "stateMutability": "nonpayable",
      "type": "function"
    },
    {
      "inputs": [
        {
          "internalType": "address",
          "name": "owner",
          "type": "address"
        },
        {
          "internalType": "address",
          "name": "operator",
          "type": "address"
        }
      ],
      "name": "isApprovedForAll",
      "outputs": [
        {
          "internalType": "bool",
          "name": "",
          "type": "bool"
        }
      ],
      "stateMutability": "view",
      "type": "function"
    },
    {
      "inputs": [],
      "name": "manager",
      "outputs": [
        {
          "internalType": "address",
          "name": "",
          "type": "address"
        }
      ],
      "stateMutability": "view",
      "type": "function"
    },
    {
      "inputs": [
        {
          "internalType": "address",
          "name": "to",
          "type": "address"
        },
        {
          "internalType": "address",
          "name": "bookNFT",
          "type": "address"
        },
        {
          "internalType": "uint256",
          "name": "stakedAmount",
          "type": "uint256"
        },
        {
          "internalType": "uint256",
          "name": "rewardIndex",
          "type": "uint256"
        }
      ],
      "name": "mintPosition",
      "outputs": [
        {
          "internalType": "uint256",
          "name": "tokenId",
          "type": "uint256"
        }
      ],
      "stateMutability": "nonpayable",
      "type": "function"
    },
    {
      "inputs": [],
      "name": "name",
      "outputs": [
        {
          "internalType": "string",
          "name": "",
          "type": "string"
        }
      ],
      "stateMutability": "view",
      "type": "function"
    },
    {
      "inputs": [],
      "name": "owner",
      "outputs": [
        {
          "internalType": "address",
          "name": "",
          "type": "address"
        }
      ],
      "stateMutability": "view",
      "type": "function"
    },
    {
      "inputs": [
        {
          "internalType": "uint256",
          "name": "tokenId",
          "type": "uint256"
        }
      ],
      "name": "ownerOf",
      "outputs": [
        {
          "internalType": "address",
          "name": "",
          "type": "address"
        }
      ],
      "stateMutability": "view",
      "type": "function"
    },
    {
      "inputs": [],
      "name": "pause",
      "outputs": [],
      "stateMutability": "nonpayable",
      "type": "function"
    },
    {
      "inputs": [],
      "name": "paused",
      "outputs": [
        {
          "internalType": "bool",
          "name": "",
          "type": "bool"
        }
      ],
      "stateMutability": "view",
      "type": "function"
    },
    {
      "inputs": [
        {
          "internalType": "uint256",
          "name": "tokenId",
          "type": "uint256"
        }
      ],
      "name": "positionInfo",
      "outputs": [
        {
          "components": [
            {
              "internalType": "address",
              "name": "bookNFT",
              "type": "address"
            },
            {
              "internalType": "uint256",
              "name": "stakedAmount",
              "type": "uint256"
            },
            {
              "internalType": "uint256",
              "name": "rewardIndex",
              "type": "uint256"
            },
            {
              "internalType": "address",
              "name": "initialStaker",
              "type": "address"
            }
          ],
          "internalType": "struct LikeStakePosition.Position",
          "name": "",
          "type": "tuple"
        }
      ],
      "stateMutability": "view",
      "type": "function"
    },
    {
      "inputs": [],
      "name": "proxiableUUID",
      "outputs": [
        {
          "internalType": "bytes32",
          "name": "",
          "type": "bytes32"
        }
      ],
      "stateMutability": "view",
      "type": "function"
    },
    {
      "inputs": [],
      "name": "renounceOwnership",
      "outputs": [],
      "stateMutability": "nonpayable",
      "type": "function"
    },
    {
      "inputs": [
        {
          "internalType": "address",
          "name": "from",
          "type": "address"
        },
        {
          "internalType": "address",
          "name": "to",
          "type": "address"
        },
        {
          "internalType": "uint256",
          "name": "tokenId",
          "type": "uint256"
        }
      ],
      "name": "safeTransferFrom",
      "outputs": [],
      "stateMutability": "nonpayable",
      "type": "function"
    },
    {
      "inputs": [
        {
          "internalType": "address",
          "name": "from",
          "type": "address"
        },
        {
          "internalType": "address",
          "name": "to",
          "type": "address"
        },
        {
          "internalType": "uint256",
          "name": "tokenId",
          "type": "uint256"
        },
        {
          "internalType": "bytes",
          "name": "data",
          "type": "bytes"
        }
      ],
      "name": "safeTransferFrom",
      "outputs": [],
      "stateMutability": "nonpayable",
      "type": "function"
    },
    {
      "inputs": [
        {
          "internalType": "address",
          "name": "operator",
          "type": "address"
        },
        {
          "internalType": "bool",
          "name": "approved",
          "type": "bool"
        }
      ],
      "name": "setApprovalForAll",
      "outputs": [],
      "stateMutability": "nonpayable",
      "type": "function"
    },
    {
      "inputs": [
        {
          "internalType": "string",
          "name": "baseURI_",
          "type": "string"
        }
      ],
      "name": "setBaseURI",
      "outputs": [],
      "stateMutability": "nonpayable",
      "type": "function"
    },
    {
      "inputs": [
        {
          "internalType": "address",
          "name": "manager_",
          "type": "address"
        }
      ],
      "name": "setManager",
      "outputs": [],
      "stateMutability": "nonpayable",
      "type": "function"
    },
    {
      "inputs": [
        {
          "internalType": "bytes4",
          "name": "interfaceId",
          "type": "bytes4"
        }
      ],
      "name": "supportsInterface",
      "outputs": [
        {
          "internalType": "bool",
          "name": "",
          "type": "bool"
        }
      ],
      "stateMutability": "view",
      "type": "function"
    },
    {
      "inputs": [],
      "name": "symbol",
      "outputs": [
        {
          "internalType": "string",
          "name": "",
          "type": "string"
        }
      ],
      "stateMutability": "view",
      "type": "function"
    },
    {
      "inputs": [
        {
          "internalType": "uint256",
          "name": "index",
          "type": "uint256"
        }
      ],
      "name": "tokenByIndex",
      "outputs": [
        {
          "internalType": "uint256",
          "name": "",
          "type": "uint256"
        }
      ],
      "stateMutability": "view",
      "type": "function"
    },
    {
      "inputs": [
        {
          "internalType": "address",
          "name": "owner",
          "type": "address"
        },
        {
          "internalType": "uint256",
          "name": "index",
          "type": "uint256"
        }
      ],
      "name": "tokenOfOwnerByIndex",
      "outputs": [
        {
          "internalType": "uint256",
          "name": "",
          "type": "uint256"
        }
      ],
      "stateMutability": "view",
      "type": "function"
    },
    {
      "inputs": [
        {
          "internalType": "uint256",
          "name": "tokenId",
          "type": "uint256"
        }
      ],
      "name": "tokenURI",
      "outputs": [
        {
          "internalType": "string",
          "name": "",
          "type": "string"
        }
      ],
      "stateMutability": "view",
      "type": "function"
    },
    {
      "inputs": [],
      "name": "totalSupply",
      "outputs": [
        {
          "internalType": "uint256",
          "name": "",
          "type": "uint256"
        }
      ],
      "stateMutability": "view",
      "type": "function"
    },
    {
      "inputs": [
        {
          "internalType": "address",
          "name": "from",
          "type": "address"
        },
        {
          "internalType": "address",
          "name": "to",
          "type": "address"
        },
        {
          "internalType": "uint256",
          "name": "tokenId",
          "type": "uint256"
        }
      ],
      "name": "transferFrom",
      "outputs": [],
      "stateMutability": "nonpayable",
      "type": "function"
    },
    {
      "inputs": [
        {
          "internalType": "address",
          "name": "newOwner",
          "type": "address"
        }
      ],
      "name": "transferOwnership",
      "outputs": [],
      "stateMutability": "nonpayable",
      "type": "function"
    },
    {
      "inputs": [],
      "name": "unpause",
      "outputs": [],
      "stateMutability": "nonpayable",
      "type": "function"
    },
    {
      "inputs": [
        {
          "internalType": "uint256",
          "name": "tokenId",
          "type": "uint256"
        },
        {
          "internalType": "uint256",
          "name": "newStakedAmount",
          "type": "uint256"
        },
        {
          "internalType": "uint256",
          "name": "newRewardIndex",
          "type": "uint256"
        }
      ],
      "name": "updatePosition",
      "outputs": [],
      "stateMutability": "nonpayable",
      "type": "function"
    },
    {
      "inputs": [
        {
          "internalType": "uint256",
          "name": "tokenId",
          "type": "uint256"
        },
        {
          "internalType": "uint256",
          "name": "newRewardIndex",
          "type": "uint256"
        }
      ],
      "name": "updatePositionRewardIndex",
      "outputs": [],
      "stateMutability": "nonpayable",
      "type": "function"
    },
    {
      "inputs": [
        {
          "internalType": "address",
          "name": "newImplementation",
          "type": "address"
        },
        {
          "internalType": "bytes",
          "name": "data",
          "type": "bytes"
        }
      ],
      "name": "upgradeToAndCall",
      "outputs": [],
      "stateMutability": "payable",
      "type": "function"
    }
  ],
  "bytecode": "0x60a06040523073ffffffffffffffffffffffffffffffffffffffff1660809073ffffffffffffffffffffffffffffffffffffffff1681525034801561004357600080fd5b5061005261005760201b60201c565b6101de565b600061006761015b60201b60201c565b90508060000160089054906101000a900460ff16156100b2576040517ff92ee8a900000000000000000000000000000000000000000000000000000000815260040160405180910390fd5b67ffffffffffffffff80168160000160009054906101000a900467ffffffffffffffff1667ffffffffffffffff16146101585767ffffffffffffffff8160000160006101000a81548167ffffffffffffffff021916908367ffffffffffffffff1602179055507fc7f505b2f371ae2175ee4913f4499e1f2633a7b5936321eed1cdaeb6115181d267ffffffffffffffff60405161014f91906101c3565b60405180910390a15b50565b60008061016c61017560201b60201c565b90508091505090565b60007ff0c57e16840df040f15088dc2f81fe391c3923bec73e23a9662efc9c229c6a0060001b905090565b600067ffffffffffffffff82169050919050565b6101bd816101a0565b82525050565b60006020820190506101d860008301846101b4565b92915050565b60805161555a610207600039600081816125cc0152818161262101526127dc015261555a6000f3fe6080604052600436106102255760003560e01c806355f804b311610123578063a22cb465116100ab578063caa0f92a1161006f578063caa0f92a1461081c578063d0ebdbe714610847578063e985e9c514610870578063eb02c301146108ad578063f2fde38b146108ea57610225565b8063a22cb46514610739578063ad3cb1cc14610762578063b88d4fde1461078d578063c4d66de8146107b6578063c87b56dd146107df57610225565b8063715018a6116100f2578063715018a6146106785780638456cb591461068f57806389097a6a146106a65780638da5cb5b146106e357806395d89b411461070e57610225565b806355f804b3146105aa5780635c975abb146105d35780636352211e146105fe57806370a082311461063b57610225565b806323b872dd116101b157806342842e0e1161017557806342842e0e146104d2578063481c6a75146104fb5780634f1ef286146105265780634f6ccce71461054257806352d1902d1461057f57610225565b806323b872dd146103ef5780632a6bc2dd146104185780632f745c591461045557806338ca63bc146104925780633f4ba83a146104bb57610225565b8063081812fc116101f8578063081812fc146102e4578063095ea7b31461032157806309fbb2d71461034a5780630d998e5d1461038757806318160ddd146103c457610225565b8063018629921461022a57806301ffc9a7146102535780630602e13a1461029057806306fdde03146102b9575b600080fd5b34801561023657600080fd5b50610251600480360381019061024c919061425c565b610913565b005b34801561025f57600080fd5b5061027a600480360381019061027591906142f4565b610a6b565b604051610287919061433c565b60405180910390f35b34801561029c57600080fd5b506102b760048036038101906102b29190614357565b610a7d565b005b3480156102c557600080fd5b506102ce610c49565b6040516102db919061443a565b60405180910390f35b3480156102f057600080fd5b5061030b6004803603810190610306919061445c565b610cea565b60405161031891906144ca565b60405180910390f35b34801561032d57600080fd5b5061034860048036038101906103439190614511565b610d06565b005b34801561035657600080fd5b50610371600480360381019061036c9190614551565b610d1c565b60405161037e91906145c7565b60405180910390f35b34801561039357600080fd5b506103ae60048036038101906103a991906145e2565b611018565b6040516103bb91906146e0565b60405180910390f35b3480156103d057600080fd5b506103d96111e5565b6040516103e691906145c7565b60405180910390f35b3480156103fb57600080fd5b5061041660048036038101906104119190614702565b611200565b005b34801561042457600080fd5b5061043f600480360381019061043a9190614755565b611302565b60405161044c91906146e0565b60405180910390f35b34801561046157600080fd5b5061047c60048036038101906104779190614511565b6113a2565b60405161048991906145c7565b60405180910390f35b34801561049e57600080fd5b506104b960048036038101906104b4919061445c565b611459565b005b3480156104c757600080fd5b506104d06115be565b005b3480156104de57600080fd5b506104f960048036038101906104f49190614702565b6115d0565b005b34801561050757600080fd5b506105106115f0565b60405161051d91906144ca565b60405180910390f35b610540600480360381019061053b91906148b7565b611623565b005b34801561054e57600080fd5b506105696004803603810190610564919061445c565b611642565b60405161057691906145c7565b60405180910390f35b34801561058b57600080fd5b506105946116c6565b6040516105a1919061492c565b60405180910390f35b3480156105b657600080fd5b506105d160048036038101906105cc91906149a7565b6116f9565b005b3480156105df57600080fd5b506105e861175f565b6040516105f5919061433c565b60405180910390f35b34801561060a57600080fd5b506106256004803603810190610620919061445c565b611784565b60405161063291906144ca565b60405180910390f35b34801561064757600080fd5b50610662600480360381019061065d9190614755565b611796565b60405161066f91906145c7565b60405180910390f35b34801561068457600080fd5b5061068d61185f565b005b34801561069b57600080fd5b506106a4611873565b005b3480156106b257600080fd5b506106cd60048036038101906106c8919061445c565b611885565b6040516106da9190614a58565b60405180910390f35b3480156106ef57600080fd5b506106f861197b565b60405161070591906144ca565b60405180910390f35b34801561071a57600080fd5b506107236119b3565b604051610730919061443a565b60405180910390f35b34801561074557600080fd5b50610760600480360381019061075b9190614a9f565b611a54565b005b34801561076e57600080fd5b50610777611a6a565b604051610784919061443a565b60405180910390f35b34801561079957600080fd5b506107b460048036038101906107af9190614adf565b611aa3565b005b3480156107c257600080fd5b506107dd60048036038101906107d89190614755565b611ac8565b005b3480156107eb57600080fd5b506108066004803603810190610801919061445c565b611d04565b604051610813919061443a565b60405180910390f35b34801561082857600080fd5b50610831611e6b565b60405161083e91906145c7565b60405180910390f35b34801561085357600080fd5b5061086e60048036038101906108699190614755565b611e7e565b005b34801561087c57600080fd5b50610897600480360381019061089291906145e2565b611f82565b6040516108a4919061433c565b60405180910390f35b3480156108b957600080fd5b506108d460048036038101906108cf919061445c565b612024565b6040516108e19190614a58565b60405180910390f35b3480156108f657600080fd5b50610911600480360381019061090c9190614755565b61211a565b005b61091b6121a0565b6109236121e1565b61092b612238565b60000160009054906101000a900473ffffffffffffffffffffffffffffffffffffffff1673ffffffffffffffffffffffffffffffffffffffff1661096d612260565b73ffffffffffffffffffffffffffffffffffffffff16146109ba576040517f30c8a92300000000000000000000000000000000000000000000000000000000815260040160405180910390fd5b60006109c4612238565b905060008160030160008581526020019081526020016000209050828160020181905550837ff89185fe8013045e431c4a2d209bdc8367e67b3aee3359fde091b6ce08e60550826001015485604051610a1e929190614b62565b60405180910390a27ff8e1a15aba9398e019f0b49df1a4fde98ee17ae345cb5f6b5e2c27f5033e8ce784604051610a5591906145c7565b60405180910390a15050610a67612268565b5050565b6000610a7682612281565b9050919050565b610a856121a0565b610a8d6121e1565b610a95612238565b60000160009054906101000a900473ffffffffffffffffffffffffffffffffffffffff1673ffffffffffffffffffffffffffffffffffffffff16610ad7612260565b73ffffffffffffffffffffffffffffffffffffffff1614610b24576040517f30c8a92300000000000000000000000000000000000000000000000000000000815260040160405180910390fd5b6000610b2e612238565b9050600073ffffffffffffffffffffffffffffffffffffffff16610b5185611784565b73ffffffffffffffffffffffffffffffffffffffff1603610b9e576040517fee77070400000000000000000000000000000000000000000000000000000000815260040160405180910390fd5b60008160030160008681526020019081526020016000209050838160010181905550828160020181905550847ff89185fe8013045e431c4a2d209bdc8367e67b3aee3359fde091b6ce08e605508585604051610bfb929190614b62565b60405180910390a27ff8e1a15aba9398e019f0b49df1a4fde98ee17ae345cb5f6b5e2c27f5033e8ce785604051610c3291906145c7565b60405180910390a15050610c44612268565b505050565b60606000610c556122e2565b9050806000018054610c6690614bba565b80601f0160208091040260200160405190810160405280929190818152602001828054610c9290614bba565b8015610cdf5780601f10610cb457610100808354040283529160200191610cdf565b820191906000526020600020905b815481529060010190602001808311610cc257829003601f168201915b505050505091505090565b6000610cf58261230a565b50610cff82612392565b9050919050565b610d188282610d13612260565b6123dd565b5050565b6000610d266121a0565b610d2e6121e1565b610d36612238565b60000160009054906101000a900473ffffffffffffffffffffffffffffffffffffffff1673ffffffffffffffffffffffffffffffffffffffff16610d78612260565b73ffffffffffffffffffffffffffffffffffffffff1614610dc5576040517f30c8a92300000000000000000000000000000000000000000000000000000000815260040160405180910390fd5b600073ffffffffffffffffffffffffffffffffffffffff168573ffffffffffffffffffffffffffffffffffffffff161480610e2c5750600073ffffffffffffffffffffffffffffffffffffffff168473ffffffffffffffffffffffffffffffffffffffff16145b15610e63576040517fecc6fdf000000000000000000000000000000000000000000000000000000000815260040160405180910390fd5b6000610e6d612238565b9050806001015491508060010160008154610e8790614c1a565b91905081905550610e9886836123ef565b60405180608001604052808673ffffffffffffffffffffffffffffffffffffffff1681526020018581526020018481526020018773ffffffffffffffffffffffffffffffffffffffff1681525081600301600084815260200190815260200160002060008201518160000160006101000a81548173ffffffffffffffffffffffffffffffffffffffff021916908373ffffffffffffffffffffffffffffffffffffffff160217905550602082015181600101556040820151816002015560608201518160030160006101000a81548173ffffffffffffffffffffffffffffffffffffffff021916908373ffffffffffffffffffffffffffffffffffffffff1602179055509050508473ffffffffffffffffffffffffffffffffffffffff168673ffffffffffffffffffffffffffffffffffffffff16837f8cd7f5babbb088bffdd32aee19a1dc179c8819cd6d02cef02c35cb3ebfa386098787604051610fff929190614b62565b60405180910390a450611010612268565b949350505050565b6060600061102584611796565b905060008167ffffffffffffffff8111156110435761104261478c565b5b6040519080825280602002602001820160405280156110715781602001602082028036833780820191505090505b5090506000805b8381101561113957600061108c88836113a2565b90508673ffffffffffffffffffffffffffffffffffffffff166110ad612238565b600301600083815260200190815260200160002060000160009054906101000a900473ffffffffffffffffffffffffffffffffffffffff1673ffffffffffffffffffffffffffffffffffffffff160361112d578084848151811061111457611113614c62565b5b6020026020010181815250508261112a90614c1a565b92505b50806001019050611078565b5060008167ffffffffffffffff8111156111565761115561478c565b5b6040519080825280602002602001820160405280156111845781602001602082028036833780820191505090505b50905060005b828110156111d7578381815181106111a5576111a4614c62565b5b60200260200101518282815181106111c0576111bf614c62565b5b60200260200101818152505080600101905061118a565b508094505050505092915050565b6000806111f061240d565b9050806002018054905091505090565b600073ffffffffffffffffffffffffffffffffffffffff168273ffffffffffffffffffffffffffffffffffffffff16036112725760006040517f64a0ae9200000000000000000000000000000000000000000000000000000000815260040161126991906144ca565b60405180910390fd5b60006112868383611281612260565b612435565b90508373ffffffffffffffffffffffffffffffffffffffff168173ffffffffffffffffffffffffffffffffffffffff16146112fc578382826040517f64283d7b0000000000000000000000000000000000000000000000000000000081526004016112f393929190614c91565b60405180910390fd5b50505050565b6060600061130f83611796565b90508067ffffffffffffffff81111561132b5761132a61478c565b5b6040519080825280602002602001820160405280156113595781602001602082028036833780820191505090505b50915060005b8181101561139b5761137184826113a2565b83828151811061138457611383614c62565b5b60200260200101818152505080600101905061135f565b5050919050565b6000806113ad61240d565b90506113b884611796565b83106113fd5783836040517fa57d13dc0000000000000000000000000000000000000000000000000000000081526004016113f4929190614cc8565b60405180910390fd5b8060000160008573ffffffffffffffffffffffffffffffffffffffff1673ffffffffffffffffffffffffffffffffffffffff16815260200190815260200160002060008481526020019081526020016000205491505092915050565b6114616121a0565b6114696121e1565b611471612238565b60000160009054906101000a900473ffffffffffffffffffffffffffffffffffffffff1673ffffffffffffffffffffffffffffffffffffffff166114b3612260565b73ffffffffffffffffffffffffffffffffffffffff1614611500576040517f30c8a92300000000000000000000000000000000000000000000000000000000815260040160405180910390fd5b6115098161244b565b611511612238565b6003016000828152602001908152602001600020600080820160006101000a81549073ffffffffffffffffffffffffffffffffffffffff0219169055600182016000905560028201600090556003820160006101000a81549073ffffffffffffffffffffffffffffffffffffffff02191690555050807f65d33d8ef62a81711748bbe2a7b67aef94d1a9af04a2690d3a4dfd13d9c1d22b60405160405180910390a26115bb612268565b50565b6115c66124d1565b6115ce612558565b565b6115eb83838360405180602001604052806000815250611aa3565b505050565b60006115fa612238565b60000160009054906101000a900473ffffffffffffffffffffffffffffffffffffffff16905090565b61162b6125ca565b611634826126b0565b61163e82826126bb565b5050565b60008061164d61240d565b90506116576111e5565b831061169d576000836040517fa57d13dc000000000000000000000000000000000000000000000000000000008152600401611694929190614cc8565b60405180910390fd5b8060020183815481106116b3576116b2614c62565b5b9060005260206000200154915050919050565b60006116d06127da565b7f360894a13ba1a3210667c828492db98dca3e2076cc3735a920a3ca505d382bbc60001b905090565b6117016124d1565b600061170b612238565b90508282826002019182611720929190614ea8565b507f6741b2fc379fad678116fe3d4d4b9a1a184ab53ba36b86ad0fa66340b1ab41ad8383604051611752929190614fa5565b60405180910390a1505050565b60008061176a612861565b90508060000160009054906101000a900460ff1691505090565b600061178f8261230a565b9050919050565b6000806117a16122e2565b9050600073ffffffffffffffffffffffffffffffffffffffff168373ffffffffffffffffffffffffffffffffffffffff16036118155760006040517f89c62b6400000000000000000000000000000000000000000000000000000000815260040161180c91906144ca565b60405180910390fd5b8060030160008473ffffffffffffffffffffffffffffffffffffffff1673ffffffffffffffffffffffffffffffffffffffff16815260200190815260200160002054915050919050565b6118676124d1565b6118716000612889565b565b61187b6124d1565b611883612960565b565b61188d6141be565b611895612238565b60030160008381526020019081526020016000206040518060800160405290816000820160009054906101000a900473ffffffffffffffffffffffffffffffffffffffff1673ffffffffffffffffffffffffffffffffffffffff1673ffffffffffffffffffffffffffffffffffffffff16815260200160018201548152602001600282015481526020016003820160009054906101000a900473ffffffffffffffffffffffffffffffffffffffff1673ffffffffffffffffffffffffffffffffffffffff1673ffffffffffffffffffffffffffffffffffffffff16815250509050919050565b6000806119866129d2565b90508060000160009054906101000a900473ffffffffffffffffffffffffffffffffffffffff1691505090565b606060006119bf6122e2565b90508060010180546119d090614bba565b80601f01602080910402602001604051908101604052809291908181526020018280546119fc90614bba565b8015611a495780601f10611a1e57610100808354040283529160200191611a49565b820191906000526020600020905b815481529060010190602001808311611a2c57829003601f168201915b505050505091505090565b611a66611a5f612260565b83836129fa565b5050565b6040518060400160405280600581526020017f352e302e3000000000000000000000000000000000000000000000000000000081525081565b611aae848484611200565b611ac2611ab9612260565b85858585612b78565b50505050565b6000611ad2612d29565b905060008160000160089054906101000a900460ff1615905060008260000160009054906101000a900467ffffffffffffffff1690506000808267ffffffffffffffff16148015611b205750825b9050600060018367ffffffffffffffff16148015611b55575060003073ffffffffffffffffffffffffffffffffffffffff163b145b905081158015611b63575080155b15611b9a576040517ff92ee8a900000000000000000000000000000000000000000000000000000000815260040160405180910390fd5b60018560000160006101000a81548167ffffffffffffffff021916908367ffffffffffffffff1602179055508315611bea5760018560000160086101000a81548160ff0219169083151502179055505b611c5e6040518060400160405280601181526020017f4c696b655374616b65506f736974696f6e0000000000000000000000000000008152506040518060400160405280600681526020017f4c494b4553500000000000000000000000000000000000000000000000000000815250612d3d565b611c66612d53565b611c6e612d5d565b611c76612d67565b611c7f86612d71565b611c87612d85565b611c8f612d8f565b6001611c99612238565b600101819055508315611cfc5760008560000160086101000a81548160ff0219169083151502179055507fc7f505b2f371ae2175ee4913f4499e1f2633a7b5936321eed1cdaeb6115181d26001604051611cf39190615018565b60405180910390a15b505050505050565b60606000611d10612238565b60030160008481526020019081526020016000206040518060800160405290816000820160009054906101000a900473ffffffffffffffffffffffffffffffffffffffff1673ffffffffffffffffffffffffffffffffffffffff1673ffffffffffffffffffffffffffffffffffffffff16815260200160018201548152602001600282015481526020016003820160009054906101000a900473ffffffffffffffffffffffffffffffffffffffff1673ffffffffffffffffffffffffffffffffffffffff1673ffffffffffffffffffffffffffffffffffffffff168152505090506000611dfb612da1565b90506000611e3d8360000151846020015185604001518660600151604051602001611e29949392919061509c565b604051602081830303815290604052612e3c565b90508181604051602001611e52929190615126565b6040516020818303038152906040529350505050919050565b6000611e75612238565b60010154905090565b611e866124d1565b600073ffffffffffffffffffffffffffffffffffffffff168173ffffffffffffffffffffffffffffffffffffffff1603611eec576040517fecc6fdf000000000000000000000000000000000000000000000000000000000815260040160405180910390fd5b6000611ef6612238565b9050818160000160006101000a81548173ffffffffffffffffffffffffffffffffffffffff021916908373ffffffffffffffffffffffffffffffffffffffff1602179055508173ffffffffffffffffffffffffffffffffffffffff167f2c1c11af44aa5608f1dca38c00275c30ea091e02417d36e70e9a1538689c433d60405160405180910390a25050565b600080611f8d6122e2565b90508060050160008573ffffffffffffffffffffffffffffffffffffffff1673ffffffffffffffffffffffffffffffffffffffff16815260200190815260200160002060008473ffffffffffffffffffffffffffffffffffffffff1673ffffffffffffffffffffffffffffffffffffffff16815260200190815260200160002060009054906101000a900460ff1691505092915050565b61202c6141be565b612034612238565b60030160008381526020019081526020016000206040518060800160405290816000820160009054906101000a900473ffffffffffffffffffffffffffffffffffffffff1673ffffffffffffffffffffffffffffffffffffffff1673ffffffffffffffffffffffffffffffffffffffff16815260200160018201548152602001600282015481526020016003820160009054906101000a900473ffffffffffffffffffffffffffffffffffffffff1673ffffffffffffffffffffffffffffffffffffffff1673ffffffffffffffffffffffffffffffffffffffff16815250509050919050565b6121226124d1565b600073ffffffffffffffffffffffffffffffffffffffff168173ffffffffffffffffffffffffffffffffffffffff16036121945760006040517f1e4fbdf700000000000000000000000000000000000000000000000000000000815260040161218b91906144ca565b60405180910390fd5b61219d81612889565b50565b6121a861175f565b156121df576040517fd93c066500000000000000000000000000000000000000000000000000000000815260040160405180910390fd5b565b60006121eb612e69565b9050600281600001540361222b576040517f3ee5aeb500000000000000000000000000000000000000000000000000000000815260040160405180910390fd5b6002816000018190555050565b60007f2c3a4a1c92b0f847cbe6b33689f93d825b12d6a2f2a7bdb9c9a6a1cf7e6bb200905090565b600033905090565b6000612272612e69565b90506001816000018190555050565b6000634906490660e01b7bffffffffffffffffffffffffffffffffffffffffffffffffffffffff1916827bffffffffffffffffffffffffffffffffffffffffffffffffffffffff191614806122db57506122da82612e91565b5b9050919050565b60007f80bb2b638cc20bc4d0a60d66940f3ab4a00c1d7b313497ca82fb0b4ab0079300905090565b60008061231683612f0b565b9050600073ffffffffffffffffffffffffffffffffffffffff168173ffffffffffffffffffffffffffffffffffffffff160361238957826040517f7e27328900000000000000000000000000000000000000000000000000000000815260040161238091906145c7565b60405180910390fd5b80915050919050565b60008061239d6122e2565b905080600401600084815260200190815260200160002060009054906101000a900473ffffffffffffffffffffffffffffffffffffffff16915050919050565b6123ea8383836001612f56565b505050565b61240982826040518060200160405280600081525061312a565b5050565b60007f645e039705490088daad89bae25049a34f4a9072d398537b1ab2425f24cbed00905090565b600061244284848461314e565b90509392505050565b600061245a6000836000612435565b9050600073ffffffffffffffffffffffffffffffffffffffff168173ffffffffffffffffffffffffffffffffffffffff16036124cd57816040517f7e2732890000000000000000000000000000000000000000000000000000000081526004016124c491906145c7565b60405180910390fd5b5050565b6124d9612260565b73ffffffffffffffffffffffffffffffffffffffff166124f761197b565b73ffffffffffffffffffffffffffffffffffffffff16146125565761251a612260565b6040517f118cdaa700000000000000000000000000000000000000000000000000000000815260040161254d91906144ca565b60405180910390fd5b565b61256061326b565b600061256a612861565b905060008160000160006101000a81548160ff0219169083151502179055507f5db9ee0a495bf2e6ff9c91a7834c1ba4fdd244a5e8aa4e537bd38aeae4b073aa6125b2612260565b6040516125bf91906144ca565b60405180910390a150565b7f000000000000000000000000000000000000000000000000000000000000000073ffffffffffffffffffffffffffffffffffffffff163073ffffffffffffffffffffffffffffffffffffffff16148061267757507f000000000000000000000000000000000000000000000000000000000000000073ffffffffffffffffffffffffffffffffffffffff1661265e6132ab565b73ffffffffffffffffffffffffffffffffffffffff1614155b156126ae576040517fe07c8dba00000000000000000000000000000000000000000000000000000000815260040160405180910390fd5b565b6126b86124d1565b50565b8173ffffffffffffffffffffffffffffffffffffffff166352d1902d6040518163ffffffff1660e01b8152600401602060405180830381865afa92505050801561272357506040513d601f19601f820116820180604052508101906127209190615176565b60015b61276457816040517f4c9c8ce300000000000000000000000000000000000000000000000000000000815260040161275b91906144ca565b60405180910390fd5b7f360894a13ba1a3210667c828492db98dca3e2076cc3735a920a3ca505d382bbc60001b81146127cb57806040517faa1d49a40000000000000000000000000000000000000000000000000000000081526004016127c2919061492c565b60405180910390fd5b6127d58383613302565b505050565b7f000000000000000000000000000000000000000000000000000000000000000073ffffffffffffffffffffffffffffffffffffffff163073ffffffffffffffffffffffffffffffffffffffff161461285f576040517fe07c8dba00000000000000000000000000000000000000000000000000000000815260040160405180910390fd5b565b60007fcd5ed15c6e187e77e9aee88184c21f4f2182ab5827cb3b7e07fbedcd63f03300905090565b60006128936129d2565b905060008160000160009054906101000a900473ffffffffffffffffffffffffffffffffffffffff169050828260000160006101000a81548173ffffffffffffffffffffffffffffffffffffffff021916908373ffffffffffffffffffffffffffffffffffffffff1602179055508273ffffffffffffffffffffffffffffffffffffffff168173ffffffffffffffffffffffffffffffffffffffff167f8be0079c531659141344cd1fd0a4f28419497f9722a3daafe3b4186f6b6457e060405160405180910390a3505050565b6129686121a0565b6000612972612861565b905060018160000160006101000a81548160ff0219169083151502179055507f62e78cea01bee320cd4e420270b5ea74000d11b0c9f74754ebdbfc544b05a2586129ba612260565b6040516129c791906144ca565b60405180910390a150565b60007f9016d09d72d40fdae2fd8ceac6b6234c7706214fd39c1cd1e609a0528c199300905090565b6000612a046122e2565b9050600073ffffffffffffffffffffffffffffffffffffffff168373ffffffffffffffffffffffffffffffffffffffff1603612a7757826040517f5b08ba18000000000000000000000000000000000000000000000000000000008152600401612a6e91906144ca565b60405180910390fd5b818160050160008673ffffffffffffffffffffffffffffffffffffffff1673ffffffffffffffffffffffffffffffffffffffff16815260200190815260200160002060008573ffffffffffffffffffffffffffffffffffffffff1673ffffffffffffffffffffffffffffffffffffffff16815260200190815260200160002060006101000a81548160ff0219169083151502179055508273ffffffffffffffffffffffffffffffffffffffff168473ffffffffffffffffffffffffffffffffffffffff167f17307eab39ab6107e8899845ad3d59bd9653f200f220920489ca2b5937696c3184604051612b6a919061433c565b60405180910390a350505050565b60008373ffffffffffffffffffffffffffffffffffffffff163b1115612d22578273ffffffffffffffffffffffffffffffffffffffff1663150b7a02868685856040518563ffffffff1660e01b8152600401612bd794939291906151f8565b6020604051808303816000875af1925050508015612c1357506040513d601f19601f82011682018060405250810190612c109190615259565b60015b612c97573d8060008114612c43576040519150601f19603f3d011682016040523d82523d6000602084013e612c48565b606091505b506000815103612c8f57836040517f64a0ae92000000000000000000000000000000000000000000000000000000008152600401612c8691906144ca565b60405180910390fd5b805160208201fd5b63150b7a0260e01b7bffffffffffffffffffffffffffffffffffffffffffffffffffffffff1916817bffffffffffffffffffffffffffffffffffffffffffffffffffffffff191614612d2057836040517f64a0ae92000000000000000000000000000000000000000000000000000000008152600401612d1791906144ca565b60405180910390fd5b505b5050505050565b600080612d34613375565b90508091505090565b612d456133a0565b612d4f82826133e0565b5050565b612d5b6133a0565b565b612d656133a0565b565b612d6f6133a0565b565b612d796133a0565b612d828161341d565b50565b612d8d6133a0565b565b612d976133a0565b612d9f6134a3565b565b6060612dab612238565b6002018054612db990614bba565b80601f0160208091040260200160405190810160405280929190818152602001828054612de590614bba565b8015612e325780601f10612e0757610100808354040283529160200191612e32565b820191906000526020600020905b815481529060010190602001808311612e1557829003601f168201915b5050505050905090565b6060612e62826040518060600160405280604081526020016154e56040913960006134c4565b9050919050565b60007f9b779b17422d0df92223018b32b4d1fa46e071723d6817e2486d003becc55f00905090565b60007f780e9d63000000000000000000000000000000000000000000000000000000007bffffffffffffffffffffffffffffffffffffffffffffffffffffffff1916827bffffffffffffffffffffffffffffffffffffffffffffffffffffffff19161480612f045750612f0382613658565b5b9050919050565b600080612f166122e2565b905080600201600084815260200190815260200160002060009054906101000a900473ffffffffffffffffffffffffffffffffffffffff16915050919050565b6000612f606122e2565b90508180612f9b5750600073ffffffffffffffffffffffffffffffffffffffff168373ffffffffffffffffffffffffffffffffffffffff1614155b156130cf576000612fab8561230a565b9050600073ffffffffffffffffffffffffffffffffffffffff168473ffffffffffffffffffffffffffffffffffffffff161415801561301657508373ffffffffffffffffffffffffffffffffffffffff168173ffffffffffffffffffffffffffffffffffffffff1614155b801561302957506130278185611f82565b155b1561306b57836040517fa9fbf51f00000000000000000000000000000000000000000000000000000000815260040161306291906144ca565b60405180910390fd5b82156130cd57848673ffffffffffffffffffffffffffffffffffffffff168273ffffffffffffffffffffffffffffffffffffffff167f8c5be1e5ebec7d5bd14f71427d1e84f3dd0314c0f7b2291e5b200ac8c7c3b92560405160405180910390a45b505b8481600401600086815260200190815260200160002060006101000a81548173ffffffffffffffffffffffffffffffffffffffff021916908373ffffffffffffffffffffffffffffffffffffffff1602179055505050505050565b613134838361373a565b61314961313f612260565b6000858585612b78565b505050565b60008061315c858585613833565b9050600073ffffffffffffffffffffffffffffffffffffffff168173ffffffffffffffffffffffffffffffffffffffff16036131a05761319b84613a60565b6131df565b8473ffffffffffffffffffffffffffffffffffffffff168173ffffffffffffffffffffffffffffffffffffffff16146131de576131dd8185613abc565b5b5b600073ffffffffffffffffffffffffffffffffffffffff168573ffffffffffffffffffffffffffffffffffffffff16036132215761321c84613bbc565b613260565b8473ffffffffffffffffffffffffffffffffffffffff168173ffffffffffffffffffffffffffffffffffffffff161461325f5761325e8585613ca8565b5b5b809150509392505050565b61327361175f565b6132a9576040517f8dfc202b00000000000000000000000000000000000000000000000000000000815260040160405180910390fd5b565b60006132d97f360894a13ba1a3210667c828492db98dca3e2076cc3735a920a3ca505d382bbc60001b613d44565b60000160009054906101000a900473ffffffffffffffffffffffffffffffffffffffff16905090565b61330b82613d4e565b8173ffffffffffffffffffffffffffffffffffffffff167fbc7cd75a20ee27fd9adebab32041f755214dbc6bffa90cc0225b39da2e5c2d3b60405160405180910390a2600081511115613368576133628282613e1b565b50613371565b613370613e9f565b5b5050565b60007ff0c57e16840df040f15088dc2f81fe391c3923bec73e23a9662efc9c229c6a0060001b905090565b6133a8613edc565b6133de576040517fd7e6bcf800000000000000000000000000000000000000000000000000000000815260040160405180910390fd5b565b6133e86133a0565b60006133f26122e2565b9050828160000190816134059190615286565b50818160010190816134179190615286565b50505050565b6134256133a0565b600073ffffffffffffffffffffffffffffffffffffffff168173ffffffffffffffffffffffffffffffffffffffff16036134975760006040517f1e4fbdf700000000000000000000000000000000000000000000000000000000815260040161348e91906144ca565b60405180910390fd5b6134a081612889565b50565b6134ab6133a0565b60006134b5612e69565b90506001816000018190555050565b606060008451036134e657604051806020016040528060008152509050613651565b6000826135185760036002865160046134ff9190615358565b613509919061539a565b61351391906153fd565b61353f565b600360028651613528919061539a565b61353291906153fd565b600461353e9190615358565b5b905060008167ffffffffffffffff81111561355d5761355c61478c565b5b6040519080825280601f01601f19166020018201604052801561358f5781602001600182028036833780820191505090505b50905060018501602082018788518901602081018051600082525b82841015613605576003840193508351603f8160121c168701518653600186019550603f81600c1c168701518653600186019550603f8160061c168701518653600186019550603f81168701518653600186019550506135aa565b80825289156136455760038c510660018114613628576002811461363b57613643565b603d6001870353603d6002870353613643565b603d60018703535b505b50505050505080925050505b9392505050565b60007f80ac58cd000000000000000000000000000000000000000000000000000000007bffffffffffffffffffffffffffffffffffffffffffffffffffffffff1916827bffffffffffffffffffffffffffffffffffffffffffffffffffffffff1916148061372357507f5b5e139f000000000000000000000000000000000000000000000000000000007bffffffffffffffffffffffffffffffffffffffffffffffffffffffff1916827bffffffffffffffffffffffffffffffffffffffffffffffffffffffff1916145b80613733575061373282613efc565b5b9050919050565b600073ffffffffffffffffffffffffffffffffffffffff168273ffffffffffffffffffffffffffffffffffffffff16036137ac5760006040517f64a0ae920000000000000000000000000000000000000000000000000000000081526004016137a391906144ca565b60405180910390fd5b60006137ba83836000612435565b9050600073ffffffffffffffffffffffffffffffffffffffff168173ffffffffffffffffffffffffffffffffffffffff161461382e5760006040517f73c6ac6e00000000000000000000000000000000000000000000000000000000815260040161382591906144ca565b60405180910390fd5b505050565b60008061383e6122e2565b9050600061384b85612f0b565b9050600073ffffffffffffffffffffffffffffffffffffffff168473ffffffffffffffffffffffffffffffffffffffff161461388d5761388c818587613f66565b5b600073ffffffffffffffffffffffffffffffffffffffff168173ffffffffffffffffffffffffffffffffffffffff1614613920576138cf600086600080612f56565b60018260030160008373ffffffffffffffffffffffffffffffffffffffff1673ffffffffffffffffffffffffffffffffffffffff168152602001908152602001600020600082825403925050819055505b600073ffffffffffffffffffffffffffffffffffffffff168673ffffffffffffffffffffffffffffffffffffffff16146139a55760018260030160008873ffffffffffffffffffffffffffffffffffffffff1673ffffffffffffffffffffffffffffffffffffffff168152602001908152602001600020600082825401925050819055505b8582600201600087815260200190815260200160002060006101000a81548173ffffffffffffffffffffffffffffffffffffffff021916908373ffffffffffffffffffffffffffffffffffffffff160217905550848673ffffffffffffffffffffffffffffffffffffffff168273ffffffffffffffffffffffffffffffffffffffff167fddf252ad1be2c89b69c2b068fc378daa952ba7f163c4a11628f55a4df523b3ef60405160405180910390a480925050509392505050565b6000613a6a61240d565b9050806002018054905081600301600084815260200190815260200160002081905550806002018290806001815401808255809150506001900390600052602060002001600090919091909150555050565b6000613ac661240d565b90506000613ad384611796565b9050600082600101600085815260200190815260200160002054905060008360000160008773ffffffffffffffffffffffffffffffffffffffff1673ffffffffffffffffffffffffffffffffffffffff1681526020019081526020016000209050828214613b8557600081600085815260200190815260200160002054905080826000858152602001908152602001600020819055508285600101600083815260200190815260200160002081905550505b8360010160008681526020019081526020016000206000905580600084815260200190815260200160002060009055505050505050565b6000613bc661240d565b9050600060018260020180549050613bde919061542e565b905060008260030160008581526020019081526020016000205490506000836002018381548110613c1257613c11614c62565b5b9060005260206000200154905080846002018381548110613c3657613c35614c62565b5b906000526020600020018190555081846003016000838152602001908152602001600020819055508360030160008681526020019081526020016000206000905583600201805480613c8b57613c8a615462565b5b600190038181906000526020600020016000905590555050505050565b6000613cb261240d565b905060006001613cc185611796565b613ccb919061542e565b9050828260000160008673ffffffffffffffffffffffffffffffffffffffff1673ffffffffffffffffffffffffffffffffffffffff168152602001908152602001600020600083815260200190815260200160002081905550808260010160008581526020019081526020016000208190555050505050565b6000819050919050565b60008173ffffffffffffffffffffffffffffffffffffffff163b03613daa57806040517f4c9c8ce3000000000000000000000000000000000000000000000000000000008152600401613da191906144ca565b60405180910390fd5b80613dd77f360894a13ba1a3210667c828492db98dca3e2076cc3735a920a3ca505d382bbc60001b613d44565b60000160006101000a81548173ffffffffffffffffffffffffffffffffffffffff021916908373ffffffffffffffffffffffffffffffffffffffff16021790555050565b60606000808473ffffffffffffffffffffffffffffffffffffffff1684604051613e4591906154cd565b600060405180830381855af49150503d8060008114613e80576040519150601f19603f3d011682016040523d82523d6000602084013e613e85565b606091505b5091509150613e9585838361402a565b9250505092915050565b6000341115613eda576040517fb398979f00000000000000000000000000000000000000000000000000000000815260040160405180910390fd5b565b6000613ee6612d29565b60000160089054906101000a900460ff16905090565b60007f01ffc9a7000000000000000000000000000000000000000000000000000000007bffffffffffffffffffffffffffffffffffffffffffffffffffffffff1916827bffffffffffffffffffffffffffffffffffffffffffffffffffffffff1916149050919050565b613f718383836140b9565b61402557600073ffffffffffffffffffffffffffffffffffffffff168373ffffffffffffffffffffffffffffffffffffffff1603613fe657806040517f7e273289000000000000000000000000000000000000000000000000000000008152600401613fdd91906145c7565b60405180910390fd5b81816040517f177e802f00000000000000000000000000000000000000000000000000000000815260040161401c929190614cc8565b60405180910390fd5b505050565b60608261403f5761403a8261417a565b6140b1565b60008251148015614067575060008473ffffffffffffffffffffffffffffffffffffffff163b145b156140a957836040517f9996b3150000000000000000000000000000000000000000000000000000000081526004016140a091906144ca565b60405180910390fd5b8190506140b2565b5b9392505050565b60008073ffffffffffffffffffffffffffffffffffffffff168373ffffffffffffffffffffffffffffffffffffffff161415801561417157508273ffffffffffffffffffffffffffffffffffffffff168473ffffffffffffffffffffffffffffffffffffffff16148061413257506141318484611f82565b5b8061417057508273ffffffffffffffffffffffffffffffffffffffff1661415883612392565b73ffffffffffffffffffffffffffffffffffffffff16145b5b90509392505050565b60008151111561418c57805160208201fd5b6040517fd6bda27500000000000000000000000000000000000000000000000000000000815260040160405180910390fd5b6040518060800160405280600073ffffffffffffffffffffffffffffffffffffffff1681526020016000815260200160008152602001600073ffffffffffffffffffffffffffffffffffffffff1681525090565b6000604051905090565b600080fd5b600080fd5b6000819050919050565b61423981614226565b811461424457600080fd5b50565b60008135905061425681614230565b92915050565b600080604083850312156142735761427261421c565b5b600061428185828601614247565b925050602061429285828601614247565b9150509250929050565b60007fffffffff0000000000000000000000000000000000000000000000000000000082169050919050565b6142d18161429c565b81146142dc57600080fd5b50565b6000813590506142ee816142c8565b92915050565b60006020828403121561430a5761430961421c565b5b6000614318848285016142df565b91505092915050565b60008115159050919050565b61433681614321565b82525050565b6000602082019050614351600083018461432d565b92915050565b6000806000606084860312156143705761436f61421c565b5b600061437e86828701614247565b935050602061438f86828701614247565b92505060406143a086828701614247565b9150509250925092565b600081519050919050565b600082825260208201905092915050565b60005b838110156143e45780820151818401526020810190506143c9565b60008484015250505050565b6000601f19601f8301169050919050565b600061440c826143aa565b61441681856143b5565b93506144268185602086016143c6565b61442f816143f0565b840191505092915050565b600060208201905081810360008301526144548184614401565b905092915050565b6000602082840312156144725761447161421c565b5b600061448084828501614247565b91505092915050565b600073ffffffffffffffffffffffffffffffffffffffff82169050919050565b60006144b482614489565b9050919050565b6144c4816144a9565b82525050565b60006020820190506144df60008301846144bb565b92915050565b6144ee816144a9565b81146144f957600080fd5b50565b60008135905061450b816144e5565b92915050565b600080604083850312156145285761452761421c565b5b6000614536858286016144fc565b925050602061454785828601614247565b9150509250929050565b6000806000806080858703121561456b5761456a61421c565b5b6000614579878288016144fc565b945050602061458a878288016144fc565b935050604061459b87828801614247565b92505060606145ac87828801614247565b91505092959194509250565b6145c181614226565b82525050565b60006020820190506145dc60008301846145b8565b92915050565b600080604083850312156145f9576145f861421c565b5b6000614607858286016144fc565b9250506020614618858286016144fc565b9150509250929050565b600081519050919050565b600082825260208201905092915050565b6000819050602082019050919050565b61465781614226565b82525050565b6000614669838361464e565b60208301905092915050565b6000602082019050919050565b600061468d82614622565b614697818561462d565b93506146a28361463e565b8060005b838110156146d35781516146ba888261465d565b97506146c583614675565b9250506001810190506146a6565b5085935050505092915050565b600060208201905081810360008301526146fa8184614682565b905092915050565b60008060006060848603121561471b5761471a61421c565b5b6000614729868287016144fc565b935050602061473a868287016144fc565b925050604061474b86828701614247565b9150509250925092565b60006020828403121561476b5761476a61421c565b5b6000614779848285016144fc565b91505092915050565b600080fd5b600080fd5b7f4e487b7100000000000000000000000000000000000000000000000000000000600052604160045260246000fd5b6147c4826143f0565b810181811067ffffffffffffffff821117156147e3576147e261478c565b5b80604052505050565b60006147f6614212565b905061480282826147bb565b919050565b600067ffffffffffffffff8211156148225761482161478c565b5b61482b826143f0565b9050602081019050919050565b82818337600083830152505050565b600061485a61485584614807565b6147ec565b90508281526020810184848401111561487657614875614787565b5b614881848285614838565b509392505050565b600082601f83011261489e5761489d614782565b5b81356148ae848260208601614847565b91505092915050565b600080604083850312156148ce576148cd61421c565b5b60006148dc858286016144fc565b925050602083013567ffffffffffffffff8111156148fd576148fc614221565b5b61490985828601614889565b9150509250929050565b6000819050919050565b61492681614913565b82525050565b6000602082019050614941600083018461491d565b92915050565b600080fd5b600080fd5b60008083601f84011261496757614966614782565b5b8235905067ffffffffffffffff81111561498457614983614947565b5b6020830191508360018202830111156149a05761499f61494c565b5b9250929050565b600080602083850312156149be576149bd61421c565b5b600083013567ffffffffffffffff8111156149dc576149db614221565b5b6149e885828601614951565b92509250509250929050565b6149fd816144a9565b82525050565b608082016000820151614a1960008501826149f4565b506020820151614a2c602085018261464e565b506040820151614a3f604085018261464e565b506060820151614a5260608501826149f4565b50505050565b6000608082019050614a6d6000830184614a03565b92915050565b614a7c81614321565b8114614a8757600080fd5b50565b600081359050614a9981614a73565b92915050565b60008060408385031215614ab657614ab561421c565b5b6000614ac4858286016144fc565b9250506020614ad585828601614a8a565b9150509250929050565b60008060008060808587031215614af957614af861421c565b5b6000614b07878288016144fc565b9450506020614b18878288016144fc565b9350506040614b2987828801614247565b925050606085013567ffffffffffffffff811115614b4a57614b49614221565b5b614b5687828801614889565b91505092959194509250565b6000604082019050614b7760008301856145b8565b614b8460208301846145b8565b9392505050565b7f4e487b7100000000000000000000000000000000000000000000000000000000600052602260045260246000fd5b60006002820490506001821680614bd257607f821691505b602082108103614be557614be4614b8b565b5b50919050565b7f4e487b7100000000000000000000000000000000000000000000000000000000600052601160045260246000fd5b6000614c2582614226565b91507fffffffffffffffffffffffffffffffffffffffffffffffffffffffffffffffff8203614c5757614c56614beb565b5b600182019050919050565b7f4e487b7100000000000000000000000000000000000000000000000000000000600052603260045260246000fd5b6000606082019050614ca660008301866144bb565b614cb360208301856145b8565b614cc060408301846144bb565b949350505050565b6000604082019050614cdd60008301856144bb565b614cea60208301846145b8565b9392505050565b600082905092915050565b60008190508160005260206000209050919050565b60006020601f8301049050919050565b600082821b905092915050565b600060088302614d5e7fffffffffffffffffffffffffffffffffffffffffffffffffffffffffffffffff82614d21565b614d688683614d21565b95508019841693508086168417925050509392505050565b6000819050919050565b6000614da5614da0614d9b84614226565b614d80565b614226565b9050919050565b6000819050919050565b614dbf83614d8a565b614dd3614dcb82614dac565b848454614d2e565b825550505050565b600090565b614de8614ddb565b614df3818484614db6565b505050565b5b81811015614e1757614e0c600082614de0565b600181019050614df9565b5050565b601f821115614e5c57614e2d81614cfc565b614e3684614d11565b81016020851015614e45578190505b614e59614e5185614d11565b830182614df8565b50505b505050565b600082821c905092915050565b6000614e7f60001984600802614e61565b1980831691505092915050565b6000614e988383614e6e565b9150826002028217905092915050565b614eb28383614cf1565b67ffffffffffffffff811115614ecb57614eca61478c565b5b614ed58254614bba565b614ee0828285614e1b565b6000601f831160018114614f0f5760008415614efd578287013590505b614f078582614e8c565b865550614f6f565b601f198416614f1d86614cfc565b60005b82811015614f4557848901358255600182019150602085019450602081019050614f20565b86831015614f625784890135614f5e601f891682614e6e565b8355505b6001600288020188555050505b50505050505050565b6000614f8483856143b5565b9350614f91838584614838565b614f9a836143f0565b840190509392505050565b60006020820190508181036000830152614fc0818486614f78565b90509392505050565b6000819050919050565b600067ffffffffffffffff82169050919050565b6000615002614ffd614ff884614fc9565b614d80565b614fd3565b9050919050565b61501281614fe7565b82525050565b600060208201905061502d6000830184615009565b92915050565b60008160601b9050919050565b600061504b82615033565b9050919050565b600061505d82615040565b9050919050565b615075615070826144a9565b615052565b82525050565b6000819050919050565b61509661509182614226565b61507b565b82525050565b60006150a88287615064565b6014820191506150b88286615085565b6020820191506150c88285615085565b6020820191506150d88284615064565b60148201915081905095945050505050565b600081905092915050565b6000615100826143aa565b61510a81856150ea565b935061511a8185602086016143c6565b80840191505092915050565b600061513282856150f5565b915061513e82846150f5565b91508190509392505050565b61515381614913565b811461515e57600080fd5b50565b6000815190506151708161514a565b92915050565b60006020828403121561518c5761518b61421c565b5b600061519a84828501615161565b91505092915050565b600081519050919050565b600082825260208201905092915050565b60006151ca826151a3565b6151d481856151ae565b93506151e48185602086016143c6565b6151ed816143f0565b840191505092915050565b600060808201905061520d60008301876144bb565b61521a60208301866144bb565b61522760408301856145b8565b818103606083015261523981846151bf565b905095945050505050565b600081519050615253816142c8565b92915050565b60006020828403121561526f5761526e61421c565b5b600061527d84828501615244565b91505092915050565b61528f826143aa565b67ffffffffffffffff8111156152a8576152a761478c565b5b6152b28254614bba565b6152bd828285614e1b565b600060209050601f8311600181146152f057600084156152de578287015190505b6152e88582614e8c565b865550615350565b601f1984166152fe86614cfc565b60005b8281101561532657848901518255600182019150602085019450602081019050615301565b86831015615343578489015161533f601f891682614e6e565b8355505b6001600288020188555050505b505050505050565b600061536382614226565b915061536e83614226565b925082820261537c81614226565b9150828204841483151761539357615392614beb565b5b5092915050565b60006153a582614226565b91506153b083614226565b92508282019050808211156153c8576153c7614beb565b5b92915050565b7f4e487b7100000000000000000000000000000000000000000000000000000000600052601260045260246000fd5b600061540882614226565b915061541383614226565b925082615423576154226153ce565b5b828204905092915050565b600061543982614226565b915061544483614226565b925082820390508181111561545c5761545b614beb565b5b92915050565b7f4e487b7100000000000000000000000000000000000000000000000000000000600052603160045260246000fd5b600081905092915050565b60006154a7826151a3565b6154b18185615491565b93506154c18185602086016143c6565b80840191505092915050565b60006154d9828461549c565b91508190509291505056fe4142434445464748494a4b4c4d4e4f505152535455565758595a6162636465666768696a6b6c6d6e6f707172737475767778797a303132333435363738392d5fa26469706673582212208a4d60cda40711193dd3832878feeb9c3b8dc1bebbaa7054c05dc78f46a6c10d64736f6c634300081c0033",
  "linkReferences": {},
  "deployedLinkReferences": {}
}