{
  "_format": "hh-sol-artifact-1",
  "contractName": "LikeCollectiveV0",
  "sourceName": "contracts/LikeCollectiveV0.sol",
  "abi": [
    {
      "inputs": [],
      "stateMutability": "nonpayable",
      "type": "constructor"
    },
    {
      "inputs": [
        {
          "internalType": "address",
          "name": "target",
          "type": "address"
        }
      ],
      "name": "AddressEmptyCode",
      "type": "error"
    },
    {
      "inputs": [
        {
          "internalType": "address",
          "name": "implementation",
          "type": "address"
        }
      ],
      "name": "ERC1967InvalidImplementation",
      "type": "error"
    },
    {
      "inputs": [],
      "name": "ERC1967NonPayable",
      "type": "error"
    },
    {
      "inputs": [],
      "name": "EnforcedPause",
      "type": "error"
    },
    {
      "inputs": [],
      "name": "ExpectedPause",
      "type": "error"
    },
    {
      "inputs": [],
      "name": "FailedCall",
      "type": "error"
    },
    {
      "inputs": [],
      "name": "InvalidInitialization",
      "type": "error"
    },
    {
      "inputs": [],
      "name": "NotInitializing",
      "type": "error"
    },
    {
      "inputs": [
        {
          "internalType": "address",
          "name": "owner",
          "type": "address"
        }
      ],
      "name": "OwnableInvalidOwner",
      "type": "error"
    },
    {
      "inputs": [
        {
          "internalType": "address",
          "name": "account",
          "type": "address"
        }
      ],
      "name": "OwnableUnauthorizedAccount",
      "type": "error"
    },
    {
      "inputs": [],
      "name": "ReentrancyGuardReentrantCall",
      "type": "error"
    },
    {
      "inputs": [],
      "name": "UUPSUnauthorizedCallContext",
      "type": "error"
    },
    {
      "inputs": [
        {
          "internalType": "bytes32",
          "name": "slot",
          "type": "bytes32"
        }
      ],
      "name": "UUPSUnsupportedProxiableUUID",
      "type": "error"
    },
    {
      "anonymous": false,
      "inputs": [
        {
          "indexed": false,
          "internalType": "uint64",
          "name": "version",
          "type": "uint64"
        }
      ],
      "name": "Initialized",
      "type": "event"
    },
    {
      "anonymous": false,
      "inputs": [
        {
          "indexed": true,
          "internalType": "address",
          "name": "previousOwner",
          "type": "address"
        },
        {
          "indexed": true,
          "internalType": "address",
          "name": "newOwner",
          "type": "address"
        }
      ],
      "name": "OwnershipTransferred",
      "type": "event"
    },
    {
      "anonymous": false,
      "inputs": [
        {
          "indexed": false,
          "internalType": "address",
          "name": "account",
          "type": "address"
        }
      ],
      "name": "Paused",
      "type": "event"
    },
    {
      "anonymous": false,
      "inputs": [
        {
          "indexed": false,
          "internalType": "address",
          "name": "account",
          "type": "address"
        }
      ],
      "name": "Unpaused",
      "type": "event"
    },
    {
      "anonymous": false,
      "inputs": [
        {
          "indexed": true,
          "internalType": "address",
          "name": "implementation",
          "type": "address"
        }
      ],
      "name": "Upgraded",
      "type": "event"
    },
    {
      "inputs": [],
      "name": "UPGRADE_INTERFACE_VERSION",
      "outputs": [
        {
          "internalType": "string",
          "name": "",
          "type": "string"
        }
      ],
      "stateMutability": "view",
      "type": "function"
    },
    {
      "inputs": [
        {
          "internalType": "address",
          "name": "initialOwner",
          "type": "address"
        }
      ],
      "name": "initialize",
      "outputs": [],
      "stateMutability": "nonpayable",
      "type": "function"
    },
    {
      "inputs": [],
      "name": "owner",
      "outputs": [
        {
          "internalType": "address",
          "name": "",
          "type": "address"
        }
      ],
      "stateMutability": "view",
      "type": "function"
    },
    {
      "inputs": [],
      "name": "paused",
      "outputs": [
        {
          "internalType": "bool",
          "name": "",
          "type": "bool"
        }
      ],
      "stateMutability": "view",
      "type": "function"
    },
    {
      "inputs": [],
      "name": "proxiableUUID",
      "outputs": [
        {
          "internalType": "bytes32",
          "name": "",
          "type": "bytes32"
        }
      ],
      "stateMutability": "view",
      "type": "function"
    },
    {
      "inputs": [],
      "name": "renounceOwnership",
      "outputs": [],
      "stateMutability": "nonpayable",
      "type": "function"
    },
    {
      "inputs": [
        {
          "internalType": "address",
          "name": "newOwner",
          "type": "address"
        }
      ],
      "name": "transferOwnership",
      "outputs": [],
      "stateMutability": "nonpayable",
      "type": "function"
    },
    {
      "inputs": [
        {
          "internalType": "address",
          "name": "newImplementation",
          "type": "address"
        },
        {
          "internalType": "bytes",
          "name": "data",
          "type": "bytes"
        }
      ],
      "name": "upgradeToAndCall",
      "outputs": [],
      "stateMutability": "payable",
      "type": "function"
    }
  ],
  "bytecode": "0x60a06040523073ffffffffffffffffffffffffffffffffffffffff1660809073ffffffffffffffffffffffffffffffffffffffff1681525034801561004357600080fd5b5061005261005760201b60201c565b6101de565b600061006761015b60201b60201c565b90508060000160089054906101000a900460ff16156100b2576040517ff92ee8a900000000000000000000000000000000000000000000000000000000815260040160405180910390fd5b67ffffffffffffffff80168160000160009054906101000a900467ffffffffffffffff1667ffffffffffffffff16146101585767ffffffffffffffff8160000160006101000a81548167ffffffffffffffff021916908367ffffffffffffffff1602179055507fc7f505b2f371ae2175ee4913f4499e1f2633a7b5936321eed1cdaeb6115181d267ffffffffffffffff60405161014f91906101c3565b60405180910390a15b50565b60008061016c61017560201b60201c565b90508091505090565b60007ff0c57e16840df040f15088dc2f81fe391c3923bec73e23a9662efc9c229c6a0060001b905090565b600067ffffffffffffffff82169050919050565b6101bd816101a0565b82525050565b60006020820190506101d860008301846101b4565b92915050565b6080516112db610207600039600081816104dc0152818161053101526106ec01526112db6000f3fe60806040526004361061007b5760003560e01c80638da5cb5b1161004e5780638da5cb5b14610109578063ad3cb1cc14610134578063c4d66de81461015f578063f2fde38b146101885761007b565b80634f1ef2861461008057806352d1902d1461009c5780635c975abb146100c7578063715018a6146100f2575b600080fd5b61009a60048036038101906100959190610fbc565b6101b1565b005b3480156100a857600080fd5b506100b16101d0565b6040516100be9190611031565b60405180910390f35b3480156100d357600080fd5b506100dc610203565b6040516100e99190611067565b60405180910390f35b3480156100fe57600080fd5b50610107610228565b005b34801561011557600080fd5b5061011e61023c565b60405161012b9190611091565b60405180910390f35b34801561014057600080fd5b50610149610274565b604051610156919061112b565b60405180910390f35b34801561016b57600080fd5b506101866004803603810190610181919061114d565b6102ad565b005b34801561019457600080fd5b506101af60048036038101906101aa919061114d565b610454565b005b6101b96104da565b6101c2826105c0565b6101cc82826105cb565b5050565b60006101da6106ea565b7f360894a13ba1a3210667c828492db98dca3e2076cc3735a920a3ca505d382bbc60001b905090565b60008061020e610771565b90508060000160009054906101000a900460ff1691505090565b610230610799565b61023a6000610820565b565b6000806102476108f7565b90508060000160009054906101000a900473ffffffffffffffffffffffffffffffffffffffff1691505090565b6040518060400160405280600581526020017f352e302e3000000000000000000000000000000000000000000000000000000081525081565b60006102b761091f565b905060008160000160089054906101000a900460ff1615905060008260000160009054906101000a900467ffffffffffffffff1690506000808267ffffffffffffffff161480156103055750825b9050600060018367ffffffffffffffff1614801561033a575060003073ffffffffffffffffffffffffffffffffffffffff163b145b905081158015610348575080155b1561037f576040517ff92ee8a900000000000000000000000000000000000000000000000000000000815260040160405180910390fd5b60018560000160006101000a81548167ffffffffffffffff021916908367ffffffffffffffff16021790555083156103cf5760018560000160086101000a81548160ff0219169083151502179055505b6103d7610933565b6103e08661093d565b6103e8610951565b6103f061095b565b831561044c5760008560000160086101000a81548160ff0219169083151502179055507fc7f505b2f371ae2175ee4913f4499e1f2633a7b5936321eed1cdaeb6115181d2600160405161044391906111d3565b60405180910390a15b505050505050565b61045c610799565b600073ffffffffffffffffffffffffffffffffffffffff168173ffffffffffffffffffffffffffffffffffffffff16036104ce5760006040517f1e4fbdf70000000000000000000000000000000000000000000000000000000081526004016104c59190611091565b60405180910390fd5b6104d781610820565b50565b7f000000000000000000000000000000000000000000000000000000000000000073ffffffffffffffffffffffffffffffffffffffff163073ffffffffffffffffffffffffffffffffffffffff16148061058757507f000000000000000000000000000000000000000000000000000000000000000073ffffffffffffffffffffffffffffffffffffffff1661056e61096d565b73ffffffffffffffffffffffffffffffffffffffff1614155b156105be576040517fe07c8dba00000000000000000000000000000000000000000000000000000000815260040160405180910390fd5b565b6105c8610799565b50565b8173ffffffffffffffffffffffffffffffffffffffff166352d1902d6040518163ffffffff1660e01b8152600401602060405180830381865afa92505050801561063357506040513d601f19601f82011682018060405250810190610630919061121a565b60015b61067457816040517f4c9c8ce300000000000000000000000000000000000000000000000000000000815260040161066b9190611091565b60405180910390fd5b7f360894a13ba1a3210667c828492db98dca3e2076cc3735a920a3ca505d382bbc60001b81146106db57806040517faa1d49a40000000000000000000000000000000000000000000000000000000081526004016106d29190611031565b60405180910390fd5b6106e583836109c4565b505050565b7f000000000000000000000000000000000000000000000000000000000000000073ffffffffffffffffffffffffffffffffffffffff163073ffffffffffffffffffffffffffffffffffffffff161461076f576040517fe07c8dba00000000000000000000000000000000000000000000000000000000815260040160405180910390fd5b565b60007fcd5ed15c6e187e77e9aee88184c21f4f2182ab5827cb3b7e07fbedcd63f03300905090565b6107a1610a37565b73ffffffffffffffffffffffffffffffffffffffff166107bf61023c565b73ffffffffffffffffffffffffffffffffffffffff161461081e576107e2610a37565b6040517f118cdaa70000000000000000000000000000000000000000000000000000000081526004016108159190611091565b60405180910390fd5b565b600061082a6108f7565b905060008160000160009054906101000a900473ffffffffffffffffffffffffffffffffffffffff169050828260000160006101000a81548173ffffffffffffffffffffffffffffffffffffffff021916908373ffffffffffffffffffffffffffffffffffffffff1602179055508273ffffffffffffffffffffffffffffffffffffffff168173ffffffffffffffffffffffffffffffffffffffff167f8be0079c531659141344cd1fd0a4f28419497f9722a3daafe3b4186f6b6457e060405160405180910390a3505050565b60007f9016d09d72d40fdae2fd8ceac6b6234c7706214fd39c1cd1e609a0528c199300905090565b60008061092a610a3f565b90508091505090565b61093b610a6a565b565b610945610a6a565b61094e81610aaa565b50565b610959610a6a565b565b610963610a6a565b61096b610b30565b565b600061099b7f360894a13ba1a3210667c828492db98dca3e2076cc3735a920a3ca505d382bbc60001b610b51565b60000160009054906101000a900473ffffffffffffffffffffffffffffffffffffffff16905090565b6109cd82610b5b565b8173ffffffffffffffffffffffffffffffffffffffff167fbc7cd75a20ee27fd9adebab32041f755214dbc6bffa90cc0225b39da2e5c2d3b60405160405180910390a2600081511115610a2a57610a248282610c28565b50610a33565b610a32610cac565b5b5050565b600033905090565b60007ff0c57e16840df040f15088dc2f81fe391c3923bec73e23a9662efc9c229c6a0060001b905090565b610a72610ce9565b610aa8576040517fd7e6bcf800000000000000000000000000000000000000000000000000000000815260040160405180910390fd5b565b610ab2610a6a565b600073ffffffffffffffffffffffffffffffffffffffff168173ffffffffffffffffffffffffffffffffffffffff1603610b245760006040517f1e4fbdf7000000000000000000000000000000000000000000000000000000008152600401610b1b9190611091565b60405180910390fd5b610b2d81610820565b50565b610b38610a6a565b6000610b42610d09565b90506001816000018190555050565b6000819050919050565b60008173ffffffffffffffffffffffffffffffffffffffff163b03610bb757806040517f4c9c8ce3000000000000000000000000000000000000000000000000000000008152600401610bae9190611091565b60405180910390fd5b80610be47f360894a13ba1a3210667c828492db98dca3e2076cc3735a920a3ca505d382bbc60001b610b51565b60000160006101000a81548173ffffffffffffffffffffffffffffffffffffffff021916908373ffffffffffffffffffffffffffffffffffffffff16021790555050565b60606000808473ffffffffffffffffffffffffffffffffffffffff1684604051610c52919061128e565b600060405180830381855af49150503d8060008114610c8d576040519150601f19603f3d011682016040523d82523d6000602084013e610c92565b606091505b5091509150610ca2858383610d31565b9250505092915050565b6000341115610ce7576040517fb398979f00000000000000000000000000000000000000000000000000000000815260040160405180910390fd5b565b6000610cf361091f565b60000160089054906101000a900460ff16905090565b60007f9b779b17422d0df92223018b32b4d1fa46e071723d6817e2486d003becc55f00905090565b606082610d4657610d4182610dc0565b610db8565b60008251148015610d6e575060008473ffffffffffffffffffffffffffffffffffffffff163b145b15610db057836040517f9996b315000000000000000000000000000000000000000000000000000000008152600401610da79190611091565b60405180910390fd5b819050610db9565b5b9392505050565b600081511115610dd257805160208201fd5b6040517fd6bda27500000000000000000000000000000000000000000000000000000000815260040160405180910390fd5b6000604051905090565b600080fd5b600080fd5b600073ffffffffffffffffffffffffffffffffffffffff82169050919050565b6000610e4382610e18565b9050919050565b610e5381610e38565b8114610e5e57600080fd5b50565b600081359050610e7081610e4a565b92915050565b600080fd5b600080fd5b6000601f19601f8301169050919050565b7f4e487b7100000000000000000000000000000000000000000000000000000000600052604160045260246000fd5b610ec982610e80565b810181811067ffffffffffffffff82111715610ee857610ee7610e91565b5b80604052505050565b6000610efb610e04565b9050610f078282610ec0565b919050565b600067ffffffffffffffff821115610f2757610f26610e91565b5b610f3082610e80565b9050602081019050919050565b82818337600083830152505050565b6000610f5f610f5a84610f0c565b610ef1565b905082815260208101848484011115610f7b57610f7a610e7b565b5b610f86848285610f3d565b509392505050565b600082601f830112610fa357610fa2610e76565b5b8135610fb3848260208601610f4c565b91505092915050565b60008060408385031215610fd357610fd2610e0e565b5b6000610fe185828601610e61565b925050602083013567ffffffffffffffff81111561100257611001610e13565b5b61100e85828601610f8e565b9150509250929050565b6000819050919050565b61102b81611018565b82525050565b60006020820190506110466000830184611022565b92915050565b60008115159050919050565b6110618161104c565b82525050565b600060208201905061107c6000830184611058565b92915050565b61108b81610e38565b82525050565b60006020820190506110a66000830184611082565b92915050565b600081519050919050565b600082825260208201905092915050565b60005b838110156110e65780820151818401526020810190506110cb565b60008484015250505050565b60006110fd826110ac565b61110781856110b7565b93506111178185602086016110c8565b61112081610e80565b840191505092915050565b6000602082019050818103600083015261114581846110f2565b905092915050565b60006020828403121561116357611162610e0e565b5b600061117184828501610e61565b91505092915050565b6000819050919050565b600067ffffffffffffffff82169050919050565b6000819050919050565b60006111bd6111b86111b38461117a565b611198565b611184565b9050919050565b6111cd816111a2565b82525050565b60006020820190506111e860008301846111c4565b92915050565b6111f781611018565b811461120257600080fd5b50565b600081519050611214816111ee565b92915050565b6000602082840312156112305761122f610e0e565b5b600061123e84828501611205565b91505092915050565b600081519050919050565b600081905092915050565b600061126882611247565b6112728185611252565b93506112828185602086016110c8565b80840191505092915050565b600061129a828461125d565b91508190509291505056fea2646970667358221220cbd4a4e7e079dc8baf368cbb72c6ed5e9f52f0a364a7bd34fbb3e6a2081c789464736f6c634300081c0033",
  "linkReferences": {},
  "deployedLinkReferences": {}
}