{
  "_format": "hh-sol-artifact-1",
  "contractName": "veLikeReward",
  "sourceName": "contracts/veLikeReward.sol",
  "abi": [
    {
      "inputs": [],
      "stateMutability": "nonpayable",
      "type": "constructor"
    },
    {
      "inputs": [
        {
          "internalType": "address",
          "name": "target",
          "type": "address"
        }
      ],
      "name": "AddressEmptyCode",
      "type": "error"
    },
    {
      "inputs": [
        {
          "internalType": "address",
          "name": "implementation",
          "type": "address"
        }
      ],
      "name": "ERC1967InvalidImplementation",
      "type": "error"
    },
    {
      "inputs": [],
      "name": "ERC1967NonPayable",
      "type": "error"
    },
    {
      "inputs": [],
      "name": "EnforcedPause",
      "type": "error"
    },
    {
      "inputs": [],
      "name": "ErrConflictCondition",
      "type": "error"
    },
    {
      "inputs": [],
      "name": "ErrNoRewardToClaim",
      "type": "error"
    },
    {
      "inputs": [],
      "name": "ErrUnauthorized",
      "type": "error"
    },
    {
      "inputs": [],
      "name": "ErrWithdrawLocked",
      "type": "error"
    },
    {
      "inputs": [],
      "name": "ExpectedPause",
      "type": "error"
    },
    {
      "inputs": [],
      "name": "FailedCall",
      "type": "error"
    },
    {
      "inputs": [],
      "name": "InvalidInitialization",
      "type": "error"
    },
    {
      "inputs": [],
      "name": "NotInitializing",
      "type": "error"
    },
    {
      "inputs": [
        {
          "internalType": "address",
          "name": "owner",
          "type": "address"
        }
      ],
      "name": "OwnableInvalidOwner",
      "type": "error"
    },
    {
      "inputs": [
        {
          "internalType": "address",
          "name": "account",
          "type": "address"
        }
      ],
      "name": "OwnableUnauthorizedAccount",
      "type": "error"
    },
    {
      "inputs": [],
      "name": "ReentrancyGuardReentrantCall",
      "type": "error"
    },
    {
      "inputs": [
        {
          "internalType": "address",
          "name": "token",
          "type": "address"
        }
      ],
      "name": "SafeERC20FailedOperation",
      "type": "error"
    },
    {
      "inputs": [],
      "name": "UUPSUnauthorizedCallContext",
      "type": "error"
    },
    {
      "inputs": [
        {
          "internalType": "bytes32",
          "name": "slot",
          "type": "bytes32"
        }
      ],
      "name": "UUPSUnsupportedProxiableUUID",
      "type": "error"
    },
    {
      "anonymous": false,
      "inputs": [
        {
          "indexed": false,
          "internalType": "uint64",
          "name": "version",
          "type": "uint64"
        }
      ],
      "name": "Initialized",
      "type": "event"
    },
    {
      "anonymous": false,
      "inputs": [
        {
          "indexed": true,
          "internalType": "address",
          "name": "previousOwner",
          "type": "address"
        },
        {
          "indexed": true,
          "internalType": "address",
          "name": "newOwner",
          "type": "address"
        }
      ],
      "name": "OwnershipTransferred",
      "type": "event"
    },
    {
      "anonymous": false,
      "inputs": [
        {
          "indexed": false,
          "internalType": "address",
          "name": "account",
          "type": "address"
        }
      ],
      "name": "Paused",
      "type": "event"
    },
    {
      "anonymous": false,
      "inputs": [
        {
          "indexed": false,
          "internalType": "address",
          "name": "account",
          "type": "address"
        }
      ],
      "name": "Unpaused",
      "type": "event"
    },
    {
      "anonymous": false,
      "inputs": [
        {
          "indexed": true,
          "internalType": "address",
          "name": "implementation",
          "type": "address"
        }
      ],
      "name": "Upgraded",
      "type": "event"
    },
    {
      "inputs": [],
      "name": "ACC_REWARD_PRECISION",
      "outputs": [
        {
          "internalType": "uint256",
          "name": "",
          "type": "uint256"
        }
      ],
      "stateMutability": "view",
      "type": "function"
    },
    {
      "inputs": [],
      "name": "UPGRADE_INTERFACE_VERSION",
      "outputs": [
        {
          "internalType": "string",
          "name": "",
          "type": "string"
        }
      ],
      "stateMutability": "view",
      "type": "function"
    },
    {
      "inputs": [
        {
          "internalType": "address",
          "name": "account",
          "type": "address"
        },
        {
          "internalType": "bool",
          "name": "restake",
          "type": "bool"
        }
      ],
      "name": "_claimReward",
      "outputs": [
        {
          "internalType": "uint256",
          "name": "",
          "type": "uint256"
        }
      ],
      "stateMutability": "nonpayable",
      "type": "function"
    },
    {
      "inputs": [
        {
          "internalType": "address",
          "name": "drawer",
          "type": "address"
        },
        {
          "internalType": "uint256",
          "name": "rewardAmount",
          "type": "uint256"
        },
        {
          "internalType": "uint256",
          "name": "startTime",
          "type": "uint256"
        },
        {
          "internalType": "uint256",
          "name": "endTime",
          "type": "uint256"
        }
      ],
      "name": "addReward",
      "outputs": [],
      "stateMutability": "nonpayable",
      "type": "function"
    },
    {
      "inputs": [
        {
          "internalType": "address",
          "name": "account",
          "type": "address"
        },
        {
          "internalType": "bool",
          "name": "restake",
          "type": "bool"
        }
      ],
      "name": "claimReward",
      "outputs": [
        {
          "internalType": "uint256",
          "name": "",
          "type": "uint256"
        }
      ],
      "stateMutability": "nonpayable",
      "type": "function"
    },
    {
      "inputs": [
        {
          "internalType": "address",
          "name": "account",
          "type": "address"
        },
        {
          "internalType": "uint256",
          "name": "stakedAmount",
          "type": "uint256"
        }
      ],
      "name": "deposit",
      "outputs": [],
      "stateMutability": "nonpayable",
      "type": "function"
    },
    {
      "inputs": [
        {
          "internalType": "address",
          "name": "account",
          "type": "address"
        }
      ],
      "name": "getClaimedReward",
      "outputs": [
        {
          "internalType": "uint256",
          "name": "",
          "type": "uint256"
        }
      ],
      "stateMutability": "view",
      "type": "function"
    },
    {
      "inputs": [],
      "name": "getConfig",
      "outputs": [
        {
          "internalType": "address",
          "name": "",
          "type": "address"
        },
        {
          "internalType": "address",
          "name": "",
          "type": "address"
        },
        {
          "internalType": "uint256",
          "name": "",
          "type": "uint256"
        },
        {
          "internalType": "uint256",
          "name": "",
          "type": "uint256"
        },
        {
          "internalType": "uint256",
          "name": "",
          "type": "uint256"
        }
      ],
      "stateMutability": "view",
      "type": "function"
    },
    {
      "inputs": [],
      "name": "getCurrentCondition",
      "outputs": [
        {
          "components": [
            {
              "internalType": "uint256",
              "name": "startTime",
              "type": "uint256"
            },
            {
              "internalType": "uint256",
              "name": "endTime",
              "type": "uint256"
            },
            {
              "internalType": "uint256",
              "name": "rewardAmount",
              "type": "uint256"
            },
            {
              "internalType": "uint256",
              "name": "rewardIndex",
              "type": "uint256"
            }
          ],
          "internalType": "struct veLikeReward.StakingCondition",
          "name": "",
          "type": "tuple"
        }
      ],
      "stateMutability": "view",
      "type": "function"
    },
    {
      "inputs": [],
      "name": "getLastRewardTime",
      "outputs": [
        {
          "internalType": "uint256",
          "name": "",
          "type": "uint256"
        }
      ],
      "stateMutability": "view",
      "type": "function"
    },
    {
      "inputs": [
        {
          "internalType": "address",
          "name": "account",
          "type": "address"
        }
      ],
      "name": "getPendingReward",
      "outputs": [
        {
          "internalType": "uint256",
          "name": "",
          "type": "uint256"
        }
      ],
      "stateMutability": "view",
      "type": "function"
    },
    {
      "inputs": [],
      "name": "getRewardPool",
      "outputs": [
        {
          "internalType": "uint256",
          "name": "",
          "type": "uint256"
        }
      ],
      "stateMutability": "view",
      "type": "function"
    },
    {
      "inputs": [
        {
          "internalType": "address",
          "name": "initialOwner",
          "type": "address"
        }
      ],
      "name": "initialize",
      "outputs": [],
      "stateMutability": "nonpayable",
      "type": "function"
    },
    {
      "inputs": [],
      "name": "owner",
      "outputs": [
        {
          "internalType": "address",
          "name": "",
          "type": "address"
        }
      ],
      "stateMutability": "view",
      "type": "function"
    },
    {
      "inputs": [],
      "name": "pause",
      "outputs": [],
      "stateMutability": "nonpayable",
      "type": "function"
    },
    {
      "inputs": [],
      "name": "paused",
      "outputs": [
        {
          "internalType": "bool",
          "name": "",
          "type": "bool"
        }
      ],
      "stateMutability": "view",
      "type": "function"
    },
    {
      "inputs": [],
      "name": "proxiableUUID",
      "outputs": [
        {
          "internalType": "bytes32",
          "name": "",
          "type": "bytes32"
        }
      ],
      "stateMutability": "view",
      "type": "function"
    },
    {
      "inputs": [],
      "name": "renounceOwnership",
      "outputs": [],
      "stateMutability": "nonpayable",
      "type": "function"
    },
    {
      "inputs": [
        {
          "internalType": "address",
          "name": "likecoin",
          "type": "address"
        }
      ],
      "name": "setLikecoin",
      "outputs": [],
      "stateMutability": "nonpayable",
      "type": "function"
    },
    {
      "inputs": [
        {
          "internalType": "address",
          "name": "vault",
          "type": "address"
        }
      ],
      "name": "setVault",
      "outputs": [],
      "stateMutability": "nonpayable",
      "type": "function"
    },
    {
      "inputs": [
        {
          "internalType": "address",
          "name": "newOwner",
          "type": "address"
        }
      ],
      "name": "transferOwnership",
      "outputs": [],
      "stateMutability": "nonpayable",
      "type": "function"
    },
    {
      "inputs": [],
      "name": "unpause",
      "outputs": [],
      "stateMutability": "nonpayable",
      "type": "function"
    },
    {
      "inputs": [
        {
          "internalType": "address",
          "name": "newImplementation",
          "type": "address"
        },
        {
          "internalType": "bytes",
          "name": "data",
          "type": "bytes"
        }
      ],
      "name": "upgradeToAndCall",
      "outputs": [],
      "stateMutability": "payable",
      "type": "function"
    },
    {
      "inputs": [
        {
          "internalType": "address",
          "name": "account",
          "type": "address"
        }
      ],
      "name": "withdraw",
      "outputs": [],
      "stateMutability": "nonpayable",
      "type": "function"
    }
  ],
  "bytecode": "0x60a06040523073ffffffffffffffffffffffffffffffffffffffff1660809073ffffffffffffffffffffffffffffffffffffffff1681525034801561004357600080fd5b5061005261005760201b60201c565b6101de565b600061006761015b60201b60201c565b90508060000160089054906101000a900460ff16156100b2576040517ff92ee8a900000000000000000000000000000000000000000000000000000000815260040160405180910390fd5b67ffffffffffffffff80168160000160009054906101000a900467ffffffffffffffff1667ffffffffffffffff16146101585767ffffffffffffffff8160000160006101000a81548167ffffffffffffffff021916908367ffffffffffffffff1602179055507fc7f505b2f371ae2175ee4913f4499e1f2633a7b5936321eed1cdaeb6115181d267ffffffffffffffff60405161014f91906101c3565b60405180910390a15b50565b60008061016c61017560201b60201c565b90508091505090565b60007ff0c57e16840df040f15088dc2f81fe391c3923bec73e23a9662efc9c229c6a0060001b905090565b600067ffffffffffffffff82169050919050565b6101bd816101a0565b82525050565b60006020820190506101d860008301846101b4565b92915050565b608051612aa3610207600039600081816117400152818161179501526119900152612aa36000f3fe60806040526004361061014b5760003560e01c806370dc5ca5116100b6578063aeb51b371161006f578063aeb51b3714610425578063ba2311d714610462578063c3f909d41461049f578063c4d66de8146104ce578063d1c6a231146104f7578063f2fde38b146105225761014b565b806370dc5ca51461034f578063715018a61461037857806372a3ae9d1461038f5780638456cb59146103b85780638da5cb5b146103cf578063ad3cb1cc146103fa5761014b565b80634f1ef286116101085780634f1ef2861461026057806351cff8d91461027c57806352d1902d146102a55780635c975abb146102d0578063650d6425146102fb5780636817031b146103265761014b565b80631359e6f7146101505780631b8b13a71461018d5780633e340dae146101b85780633f4ba83a146101e357806347e7ef24146101fa5780634df9d6ba14610223575b600080fd5b34801561015c57600080fd5b5061017760048036038101906101729190612289565b61054b565b60405161018491906122cf565b60405180910390f35b34801561019957600080fd5b506101a26105d4565b6040516101af91906122cf565b60405180910390f35b3480156101c457600080fd5b506101cd6105ec565b6040516101da91906122cf565b60405180910390f35b3480156101ef57600080fd5b506101f8610604565b005b34801561020657600080fd5b50610221600480360381019061021c9190612316565b610616565b005b34801561022f57600080fd5b5061024a60048036038101906102459190612289565b610756565b60405161025791906122cf565b60405180910390f35b61027a6004803603810190610275919061249c565b61089a565b005b34801561028857600080fd5b506102a3600480360381019061029e9190612289565b6108b9565b005b3480156102b157600080fd5b506102ba610a6a565b6040516102c79190612511565b60405180910390f35b3480156102dc57600080fd5b506102e5610a9d565b6040516102f29190612547565b60405180910390f35b34801561030757600080fd5b50610310610ac2565b60405161031d91906125c6565b60405180910390f35b34801561033257600080fd5b5061034d60048036038101906103489190612289565b610b13565b005b34801561035b57600080fd5b50610376600480360381019061037191906125e1565b610b6e565b005b34801561038457600080fd5b5061038d610d31565b005b34801561039b57600080fd5b506103b660048036038101906103b19190612289565b610d45565b005b3480156103c457600080fd5b506103cd610da0565b005b3480156103db57600080fd5b506103e4610db2565b6040516103f19190612657565b60405180910390f35b34801561040657600080fd5b5061040f610dea565b60405161041c91906126f1565b60405180910390f35b34801561043157600080fd5b5061044c6004803603810190610447919061273f565b610e23565b60405161045991906122cf565b60405180910390f35b34801561046e57600080fd5b506104896004803603810190610484919061273f565b610f24565b60405161049691906122cf565b60405180910390f35b3480156104ab57600080fd5b506104b4611125565b6040516104c595949392919061277f565b60405180910390f35b3480156104da57600080fd5b506104f560048036038101906104f09190612289565b6111a3565b005b34801561050357600080fd5b5061050c61134a565b60405161051991906122cf565b60405180910390f35b34801561052e57600080fd5b5061054960048036038101906105449190612289565b611356565b005b6000806105566113dc565b905060008160090160008573ffffffffffffffffffffffffffffffffffffffff1673ffffffffffffffffffffffffffffffffffffffff16815260200190815260200160002060405180606001604052908160008201548152602001600182015481526020016002820154815250509050806040015192505050919050565b6000806105df6113dc565b9050806002015491505090565b6000806105f76113dc565b9050806004015491505090565b61060c611404565b61061461148b565b565b61061e6114fd565b60006106286113dc565b90508060000160009054906101000a900473ffffffffffffffffffffffffffffffffffffffff1673ffffffffffffffffffffffffffffffffffffffff1661066d61153e565b73ffffffffffffffffffffffffffffffffffffffff16146106ba576040517fcc12cef600000000000000000000000000000000000000000000000000000000815260040160405180910390fd5b60006106c46113dc565b90506106ce611546565b6106d9846000610f24565b50828160090160008673ffffffffffffffffffffffffffffffffffffffff1673ffffffffffffffffffffffffffffffffffffffff168152602001908152602001600020600001600082825461072e9190612801565b92505081905550828160030160008282546107499190612801565b9250508190555050505050565b6000806107616113dc565b9050600061076e84611642565b905060008260090160008673ffffffffffffffffffffffffffffffffffffffff1673ffffffffffffffffffffffffffffffffffffffff168152602001908152602001600020600001549050600081036107cc57819350505050610895565b600042905083600501600101548111156107eb57836005016001015490505b60008460040154826107fd9190612835565b90506000610840866005016040518060800160405290816000820154815260200160018201548152602001600282015481526020016003820154815250506116ff565b8261084b9190612869565b90506000670de0b6b3a764000087600301546108679190612869565b85836108739190612869565b61087d91906128da565b9050808661088b9190612801565b9750505050505050505b919050565b6108a261173e565b6108ab82611824565b6108b5828261182f565b5050565b6108c16114fd565b60006108cb6113dc565b90508060000160009054906101000a900473ffffffffffffffffffffffffffffffffffffffff1673ffffffffffffffffffffffffffffffffffffffff1661091061153e565b73ffffffffffffffffffffffffffffffffffffffff161461095d576040517fcc12cef600000000000000000000000000000000000000000000000000000000815260040160405180910390fd5b60006109676113dc565b905061097161194e565b156109a8576040517fd6b0a7de00000000000000000000000000000000000000000000000000000000815260040160405180910390fd5b6109b0611546565b6109bb836000610f24565b508060090160008473ffffffffffffffffffffffffffffffffffffffff1673ffffffffffffffffffffffffffffffffffffffff16815260200190815260200160002060000154816003016000828254610a149190612835565b9250508190555060008160090160008573ffffffffffffffffffffffffffffffffffffffff1673ffffffffffffffffffffffffffffffffffffffff16815260200190815260200160002060000181905550505050565b6000610a7461198e565b7f360894a13ba1a3210667c828492db98dca3e2076cc3735a920a3ca505d382bbc60001b905090565b600080610aa8611a15565b90508060000160009054906101000a900460ff1691505090565b610aca6121ef565b6000610ad46113dc565b90508060050160405180608001604052908160008201548152602001600182015481526020016002820154815260200160038201548152505091505090565b610b1b611404565b6000610b256113dc565b9050818160000160006101000a81548173ffffffffffffffffffffffffffffffffffffffff021916908373ffffffffffffffffffffffffffffffffffffffff1602179055505050565b610b76611404565b610b7e61194e565b15610bb5576040517fff31bc8f00000000000000000000000000000000000000000000000000000000815260040160405180910390fd5b6000610bbf6113dc565b905080600401548311610bfe576040517fff31bc8f00000000000000000000000000000000000000000000000000000000815260040160405180910390fd5b82821015610c38576040517fff31bc8f00000000000000000000000000000000000000000000000000000000815260040160405180910390fd5b42821015610c72576040517fff31bc8f00000000000000000000000000000000000000000000000000000000815260040160405180910390fd5b8281600401819055508481600a0160006101000a81548173ffffffffffffffffffffffffffffffffffffffff021916908373ffffffffffffffffffffffffffffffffffffffff16021790555083816002016000828254610cd29190612801565b925050819055506040518060800160405280848152602001838152602001858152602001600081525081600501600082015181600001556020820151816001015560408201518160020155606082015181600301559050505050505050565b610d39611404565b610d436000611a3d565b565b610d4d611404565b6000610d576113dc565b9050818160010160006101000a81548173ffffffffffffffffffffffffffffffffffffffff021916908373ffffffffffffffffffffffffffffffffffffffff1602179055505050565b610da8611404565b610db0611b14565b565b600080610dbd611b86565b90508060000160009054906101000a900473ffffffffffffffffffffffffffffffffffffffff1691505090565b6040518060400160405280600581526020017f352e302e3000000000000000000000000000000000000000000000000000000081525081565b6000610e2d6114fd565b6000610e376113dc565b90508060000160009054906101000a900473ffffffffffffffffffffffffffffffffffffffff1673ffffffffffffffffffffffffffffffffffffffff16610e7c61153e565b73ffffffffffffffffffffffffffffffffffffffff1614610ec9576040517fcc12cef600000000000000000000000000000000000000000000000000000000815260040160405180910390fd5b6000610ed485610756565b905060008103610f10576040517f1e09881a00000000000000000000000000000000000000000000000000000000815260040160405180910390fd5b610f1a8585610f24565b9250505092915050565b600080610f2f6113dc565b90508060000160009054906101000a900473ffffffffffffffffffffffffffffffffffffffff1673ffffffffffffffffffffffffffffffffffffffff16610f7461153e565b73ffffffffffffffffffffffffffffffffffffffff1614610fc1576040517fcc12cef600000000000000000000000000000000000000000000000000000000815260040160405180910390fd5b6000610fcb6113dc565b905060008160090160008773ffffffffffffffffffffffffffffffffffffffff1673ffffffffffffffffffffffffffffffffffffffff168152602001908152602001600020905061101a611546565b600061102587611642565b90508082600201600082825461103b9190612801565b9250508190555082600501600301548260010181905550808360020160008282546110669190612835565b9250508190555060008103611081576000945050505061111e565b85156110c2578082600001600082825461109b9190612801565b92505081905550808360030160008282546110b69190612801565b92505081905550611117565b6111168360010160009054906101000a900473ffffffffffffffffffffffffffffffffffffffff1684600a0160009054906101000a900473ffffffffffffffffffffffffffffffffffffffff168984611bae565b5b8094505050505b5092915050565b6000806000806000806111366113dc565b90508060000160009054906101000a900473ffffffffffffffffffffffffffffffffffffffff168160010160009054906101000a900473ffffffffffffffffffffffffffffffffffffffff1682600201548360030154846004015495509550955095509550509091929394565b60006111ad611c30565b905060008160000160089054906101000a900460ff1615905060008260000160009054906101000a900467ffffffffffffffff1690506000808267ffffffffffffffff161480156111fb5750825b9050600060018367ffffffffffffffff16148015611230575060003073ffffffffffffffffffffffffffffffffffffffff163b145b90508115801561123e575080155b15611275576040517ff92ee8a900000000000000000000000000000000000000000000000000000000815260040160405180910390fd5b60018560000160006101000a81548167ffffffffffffffff021916908367ffffffffffffffff16021790555083156112c55760018560000160086101000a81548160ff0219169083151502179055505b6112cd611c44565b6112d5611c4e565b6112de86611c60565b6112e6611c74565b83156113425760008560000160086101000a81548160ff0219169083151502179055507fc7f505b2f371ae2175ee4913f4499e1f2633a7b5936321eed1cdaeb6115181d260016040516113399190612964565b60405180910390a15b505050505050565b670de0b6b3a764000081565b61135e611404565b600073ffffffffffffffffffffffffffffffffffffffff168173ffffffffffffffffffffffffffffffffffffffff16036113d05760006040517f1e4fbdf70000000000000000000000000000000000000000000000000000000081526004016113c79190612657565b60405180910390fd5b6113d981611a3d565b50565b60007fe9672d2c676bb94d428d6ce523668c779079df8febe4142a9972a2a2313d2c00905090565b61140c61153e565b73ffffffffffffffffffffffffffffffffffffffff1661142a610db2565b73ffffffffffffffffffffffffffffffffffffffff16146114895761144d61153e565b6040517f118cdaa70000000000000000000000000000000000000000000000000000000081526004016114809190612657565b60405180910390fd5b565b611493611c7e565b600061149d611a15565b905060008160000160006101000a81548160ff0219169083151502179055507f5db9ee0a495bf2e6ff9c91a7834c1ba4fdd244a5e8aa4e537bd38aeae4b073aa6114e561153e565b6040516114f29190612657565b60405180910390a150565b611505610a9d565b1561153c576040517fd93c066500000000000000000000000000000000000000000000000000000000815260040160405180910390fd5b565b600033905090565b60006115506113dc565b905060008160050190506000429050816000015481101561157357816000015490505b816001015481111561158757816001015490505b8260040154810361159a57505050611640565b60008360030154111561163c5760008360040154826115b99190612835565b905060006115f9846040518060800160405290816000820154815260200160018201548152602001600282015481526020016003820154815250506116ff565b826116049190612869565b905084600301548161161691906128da565b8460030160008282546116299190612801565b9250508190555082856004018190555050505b5050505b565b60008061164d6113dc565b905060008160090160008573ffffffffffffffffffffffffffffffffffffffff1673ffffffffffffffffffffffffffffffffffffffff16815260200190815260200160002060405180606001604052908160008201548152602001600182015481526020016002820154815250509050670de0b6b3a7640000816020015183600501600301546116dd9190612835565b82600001516116ec9190612869565b6116f691906128da565b92505050919050565b6000816000015182602001516117159190612835565b8260400151670de0b6b3a764000061172d9190612869565b61173791906128da565b9050919050565b7f000000000000000000000000000000000000000000000000000000000000000073ffffffffffffffffffffffffffffffffffffffff163073ffffffffffffffffffffffffffffffffffffffff1614806117eb57507f000000000000000000000000000000000000000000000000000000000000000073ffffffffffffffffffffffffffffffffffffffff166117d2611cbe565b73ffffffffffffffffffffffffffffffffffffffff1614155b15611822576040517fe07c8dba00000000000000000000000000000000000000000000000000000000815260040160405180910390fd5b565b61182c611404565b50565b8173ffffffffffffffffffffffffffffffffffffffff166352d1902d6040518163ffffffff1660e01b8152600401602060405180830381865afa92505050801561189757506040513d601f19601f8201168201806040525081019061189491906129ab565b60015b6118d857816040517f4c9c8ce30000000000000000000000000000000000000000000000000000000081526004016118cf9190612657565b60405180910390fd5b7f360894a13ba1a3210667c828492db98dca3e2076cc3735a920a3ca505d382bbc60001b811461193f57806040517faa1d49a40000000000000000000000000000000000000000000000000000000081526004016119369190612511565b60405180910390fd5b6119498383611d15565b505050565b6000806119596113dc565b905080600501600001544210806119765750806005016001015442115b1561198557600091505061198b565b60019150505b90565b7f000000000000000000000000000000000000000000000000000000000000000073ffffffffffffffffffffffffffffffffffffffff163073ffffffffffffffffffffffffffffffffffffffff1614611a13576040517fe07c8dba00000000000000000000000000000000000000000000000000000000815260040160405180910390fd5b565b60007fcd5ed15c6e187e77e9aee88184c21f4f2182ab5827cb3b7e07fbedcd63f03300905090565b6000611a47611b86565b905060008160000160009054906101000a900473ffffffffffffffffffffffffffffffffffffffff169050828260000160006101000a81548173ffffffffffffffffffffffffffffffffffffffff021916908373ffffffffffffffffffffffffffffffffffffffff1602179055508273ffffffffffffffffffffffffffffffffffffffff168173ffffffffffffffffffffffffffffffffffffffff167f8be0079c531659141344cd1fd0a4f28419497f9722a3daafe3b4186f6b6457e060405160405180910390a3505050565b611b1c6114fd565b6000611b26611a15565b905060018160000160006101000a81548160ff0219169083151502179055507f62e78cea01bee320cd4e420270b5ea74000d11b0c9f74754ebdbfc544b05a258611b6e61153e565b604051611b7b9190612657565b60405180910390a150565b60007f9016d09d72d40fdae2fd8ceac6b6234c7706214fd39c1cd1e609a0528c199300905090565b611c2a848573ffffffffffffffffffffffffffffffffffffffff166323b872dd868686604051602401611be3939291906129d8565b604051602081830303815290604052915060e01b6020820180517bffffffffffffffffffffffffffffffffffffffffffffffffffffffff8381831617835250505050611d88565b50505050565b600080611c3b611e2a565b90508091505090565b611c4c611e55565b565b611c56611e55565b611c5e611e95565b565b611c68611e55565b611c7181611eb6565b50565b611c7c611e55565b565b611c86610a9d565b611cbc576040517f8dfc202b00000000000000000000000000000000000000000000000000000000815260040160405180910390fd5b565b6000611cec7f360894a13ba1a3210667c828492db98dca3e2076cc3735a920a3ca505d382bbc60001b611f3c565b60000160009054906101000a900473ffffffffffffffffffffffffffffffffffffffff16905090565b611d1e82611f46565b8173ffffffffffffffffffffffffffffffffffffffff167fbc7cd75a20ee27fd9adebab32041f755214dbc6bffa90cc0225b39da2e5c2d3b60405160405180910390a2600081511115611d7b57611d758282612013565b50611d84565b611d83612097565b5b5050565b600080602060008451602086016000885af180611dab576040513d6000823e3d81fd5b3d925060005191505060008214611dc6576001811415611de2565b60008473ffffffffffffffffffffffffffffffffffffffff163b145b15611e2457836040517f5274afe7000000000000000000000000000000000000000000000000000000008152600401611e1b9190612657565b60405180910390fd5b50505050565b60007ff0c57e16840df040f15088dc2f81fe391c3923bec73e23a9662efc9c229c6a0060001b905090565b611e5d6120d4565b611e93576040517fd7e6bcf800000000000000000000000000000000000000000000000000000000815260040160405180910390fd5b565b611e9d611e55565b6000611ea76120f4565b90506001816000018190555050565b611ebe611e55565b600073ffffffffffffffffffffffffffffffffffffffff168173ffffffffffffffffffffffffffffffffffffffff1603611f305760006040517f1e4fbdf7000000000000000000000000000000000000000000000000000000008152600401611f279190612657565b60405180910390fd5b611f3981611a3d565b50565b6000819050919050565b60008173ffffffffffffffffffffffffffffffffffffffff163b03611fa257806040517f4c9c8ce3000000000000000000000000000000000000000000000000000000008152600401611f999190612657565b60405180910390fd5b80611fcf7f360894a13ba1a3210667c828492db98dca3e2076cc3735a920a3ca505d382bbc60001b611f3c565b60000160006101000a81548173ffffffffffffffffffffffffffffffffffffffff021916908373ffffffffffffffffffffffffffffffffffffffff16021790555050565b60606000808473ffffffffffffffffffffffffffffffffffffffff168460405161203d9190612a56565b600060405180830381855af49150503d8060008114612078576040519150601f19603f3d011682016040523d82523d6000602084013e61207d565b606091505b509150915061208d85838361211c565b9250505092915050565b60003411156120d2576040517fb398979f00000000000000000000000000000000000000000000000000000000815260040160405180910390fd5b565b60006120de611c30565b60000160089054906101000a900460ff16905090565b60007f9b779b17422d0df92223018b32b4d1fa46e071723d6817e2486d003becc55f00905090565b6060826121315761212c826121ab565b6121a3565b60008251148015612159575060008473ffffffffffffffffffffffffffffffffffffffff163b145b1561219b57836040517f9996b3150000000000000000000000000000000000000000000000000000000081526004016121929190612657565b60405180910390fd5b8190506121a4565b5b9392505050565b6000815111156121bd57805160208201fd5b6040517fd6bda27500000000000000000000000000000000000000000000000000000000815260040160405180910390fd5b6040518060800160405280600081526020016000815260200160008152602001600081525090565b6000604051905090565b600080fd5b600080fd5b600073ffffffffffffffffffffffffffffffffffffffff82169050919050565b60006122568261222b565b9050919050565b6122668161224b565b811461227157600080fd5b50565b6000813590506122838161225d565b92915050565b60006020828403121561229f5761229e612221565b5b60006122ad84828501612274565b91505092915050565b6000819050919050565b6122c9816122b6565b82525050565b60006020820190506122e460008301846122c0565b92915050565b6122f3816122b6565b81146122fe57600080fd5b50565b600081359050612310816122ea565b92915050565b6000806040838503121561232d5761232c612221565b5b600061233b85828601612274565b925050602061234c85828601612301565b9150509250929050565b600080fd5b600080fd5b6000601f19601f8301169050919050565b7f4e487b7100000000000000000000000000000000000000000000000000000000600052604160045260246000fd5b6123a982612360565b810181811067ffffffffffffffff821117156123c8576123c7612371565b5b80604052505050565b60006123db612217565b90506123e782826123a0565b919050565b600067ffffffffffffffff82111561240757612406612371565b5b61241082612360565b9050602081019050919050565b82818337600083830152505050565b600061243f61243a846123ec565b6123d1565b90508281526020810184848401111561245b5761245a61235b565b5b61246684828561241d565b509392505050565b600082601f83011261248357612482612356565b5b813561249384826020860161242c565b91505092915050565b600080604083850312156124b3576124b2612221565b5b60006124c185828601612274565b925050602083013567ffffffffffffffff8111156124e2576124e1612226565b5b6124ee8582860161246e565b9150509250929050565b6000819050919050565b61250b816124f8565b82525050565b60006020820190506125266000830184612502565b92915050565b60008115159050919050565b6125418161252c565b82525050565b600060208201905061255c6000830184612538565b92915050565b61256b816122b6565b82525050565b6080820160008201516125876000850182612562565b50602082015161259a6020850182612562565b5060408201516125ad6040850182612562565b5060608201516125c06060850182612562565b50505050565b60006080820190506125db6000830184612571565b92915050565b600080600080608085870312156125fb576125fa612221565b5b600061260987828801612274565b945050602061261a87828801612301565b935050604061262b87828801612301565b925050606061263c87828801612301565b91505092959194509250565b6126518161224b565b82525050565b600060208201905061266c6000830184612648565b92915050565b600081519050919050565b600082825260208201905092915050565b60005b838110156126ac578082015181840152602081019050612691565b60008484015250505050565b60006126c382612672565b6126cd818561267d565b93506126dd81856020860161268e565b6126e681612360565b840191505092915050565b6000602082019050818103600083015261270b81846126b8565b905092915050565b61271c8161252c565b811461272757600080fd5b50565b60008135905061273981612713565b92915050565b6000806040838503121561275657612755612221565b5b600061276485828601612274565b92505060206127758582860161272a565b9150509250929050565b600060a0820190506127946000830188612648565b6127a16020830187612648565b6127ae60408301866122c0565b6127bb60608301856122c0565b6127c860808301846122c0565b9695505050505050565b7f4e487b7100000000000000000000000000000000000000000000000000000000600052601160045260246000fd5b600061280c826122b6565b9150612817836122b6565b925082820190508082111561282f5761282e6127d2565b5b92915050565b6000612840826122b6565b915061284b836122b6565b9250828203905081811115612863576128626127d2565b5b92915050565b6000612874826122b6565b915061287f836122b6565b925082820261288d816122b6565b915082820484148315176128a4576128a36127d2565b5b5092915050565b7f4e487b7100000000000000000000000000000000000000000000000000000000600052601260045260246000fd5b60006128e5826122b6565b91506128f0836122b6565b925082612900576128ff6128ab565b5b828204905092915050565b6000819050919050565b600067ffffffffffffffff82169050919050565b6000819050919050565b600061294e6129496129448461290b565b612929565b612915565b9050919050565b61295e81612933565b82525050565b60006020820190506129796000830184612955565b92915050565b612988816124f8565b811461299357600080fd5b50565b6000815190506129a58161297f565b92915050565b6000602082840312156129c1576129c0612221565b5b60006129cf84828501612996565b91505092915050565b60006060820190506129ed6000830186612648565b6129fa6020830185612648565b612a0760408301846122c0565b949350505050565b600081519050919050565b600081905092915050565b6000612a3082612a0f565b612a3a8185612a1a565b9350612a4a81856020860161268e565b80840191505092915050565b6000612a628284612a25565b91508190509291505056fea2646970667358221220bbd86f11bb644b8f416fb5ea1980f9bbce4868794fa534f78fb4e13df1fd7e1c64736f6c634300081c0033",
  "linkReferences": {},
  "deployedLinkReferences": {}
}