{
  "_format": "hh-sol-artifact-1",
  "contractName": "veLike",
  "sourceName": "contracts/veLikeV2.sol",
  "abi": [
    {
      "inputs": [],
      "stateMutability": "nonpayable",
      "type": "constructor"
    },
    {
      "inputs": [
        {
          "internalType": "address",
          "name": "target",
          "type": "address"
        }
      ],
      "name": "AddressEmptyCode",
      "type": "error"
    },
    {
      "inputs": [
        {
          "internalType": "address",
          "name": "implementation",
          "type": "address"
        }
      ],
      "name": "ERC1967InvalidImplementation",
      "type": "error"
    },
    {
      "inputs": [],
      "name": "ERC1967NonPayable",
      "type": "error"
    },
    {
      "inputs": [
        {
          "internalType": "address",
          "name": "spender",
          "type": "address"
        },
        {
          "internalType": "uint256",
          "name": "allowance",
          "type": "uint256"
        },
        {
          "internalType": "uint256",
          "name": "needed",
          "type": "uint256"
        }
      ],
      "name": "ERC20InsufficientAllowance",
      "type": "error"
    },
    {
      "inputs": [
        {
          "internalType": "address",
          "name": "sender",
          "type": "address"
        },
        {
          "internalType": "uint256",
          "name": "balance",
          "type": "uint256"
        },
        {
          "internalType": "uint256",
          "name": "needed",
          "type": "uint256"
        }
      ],
      "name": "ERC20InsufficientBalance",
      "type": "error"
    },
    {
      "inputs": [
        {
          "internalType": "address",
          "name": "approver",
          "type": "address"
        }
      ],
      "name": "ERC20InvalidApprover",
      "type": "error"
    },
    {
      "inputs": [
        {
          "internalType": "address",
          "name": "receiver",
          "type": "address"
        }
      ],
      "name": "ERC20InvalidReceiver",
      "type": "error"
    },
    {
      "inputs": [
        {
          "internalType": "address",
          "name": "sender",
          "type": "address"
        }
      ],
      "name": "ERC20InvalidSender",
      "type": "error"
    },
    {
      "inputs": [
        {
          "internalType": "address",
          "name": "spender",
          "type": "address"
        }
      ],
      "name": "ERC20InvalidSpender",
      "type": "error"
    },
    {
      "inputs": [
        {
          "internalType": "address",
          "name": "receiver",
          "type": "address"
        },
        {
          "internalType": "uint256",
          "name": "assets",
          "type": "uint256"
        },
        {
          "internalType": "uint256",
          "name": "max",
          "type": "uint256"
        }
      ],
      "name": "ERC4626ExceededMaxDeposit",
      "type": "error"
    },
    {
      "inputs": [
        {
          "internalType": "address",
          "name": "receiver",
          "type": "address"
        },
        {
          "internalType": "uint256",
          "name": "shares",
          "type": "uint256"
        },
        {
          "internalType": "uint256",
          "name": "max",
          "type": "uint256"
        }
      ],
      "name": "ERC4626ExceededMaxMint",
      "type": "error"
    },
    {
      "inputs": [
        {
          "internalType": "address",
          "name": "owner",
          "type": "address"
        },
        {
          "internalType": "uint256",
          "name": "shares",
          "type": "uint256"
        },
        {
          "internalType": "uint256",
          "name": "max",
          "type": "uint256"
        }
      ],
      "name": "ERC4626ExceededMaxRedeem",
      "type": "error"
    },
    {
      "inputs": [
        {
          "internalType": "address",
          "name": "owner",
          "type": "address"
        },
        {
          "internalType": "uint256",
          "name": "assets",
          "type": "uint256"
        },
        {
          "internalType": "uint256",
          "name": "max",
          "type": "uint256"
        }
      ],
      "name": "ERC4626ExceededMaxWithdraw",
      "type": "error"
    },
    {
      "inputs": [],
      "name": "EnforcedPause",
      "type": "error"
    },
    {
      "inputs": [],
      "name": "ErrNoRewardToClaim",
      "type": "error"
    },
    {
      "inputs": [],
      "name": "ErrNonTransferable",
      "type": "error"
    },
    {
      "inputs": [],
      "name": "ErrNotLegacyRewardContract",
      "type": "error"
    },
    {
      "inputs": [],
      "name": "ErrWithdrawLocked",
      "type": "error"
    },
    {
      "inputs": [],
      "name": "ExpectedPause",
      "type": "error"
    },
    {
      "inputs": [],
      "name": "FailedCall",
      "type": "error"
    },
    {
      "inputs": [],
      "name": "InvalidInitialization",
      "type": "error"
    },
    {
      "inputs": [],
      "name": "NotInitializing",
      "type": "error"
    },
    {
      "inputs": [
        {
          "internalType": "address",
          "name": "owner",
          "type": "address"
        }
      ],
      "name": "OwnableInvalidOwner",
      "type": "error"
    },
    {
      "inputs": [
        {
          "internalType": "address",
          "name": "account",
          "type": "address"
        }
      ],
      "name": "OwnableUnauthorizedAccount",
      "type": "error"
    },
    {
      "inputs": [],
      "name": "ReentrancyGuardReentrantCall",
      "type": "error"
    },
    {
      "inputs": [
        {
          "internalType": "address",
          "name": "token",
          "type": "address"
        }
      ],
      "name": "SafeERC20FailedOperation",
      "type": "error"
    },
    {
      "inputs": [],
      "name": "UUPSUnauthorizedCallContext",
      "type": "error"
    },
    {
      "inputs": [
        {
          "internalType": "bytes32",
          "name": "slot",
          "type": "bytes32"
        }
      ],
      "name": "UUPSUnsupportedProxiableUUID",
      "type": "error"
    },
    {
      "anonymous": false,
      "inputs": [
        {
          "indexed": true,
          "internalType": "address",
          "name": "owner",
          "type": "address"
        },
        {
          "indexed": true,
          "internalType": "address",
          "name": "spender",
          "type": "address"
        },
        {
          "indexed": false,
          "internalType": "uint256",
          "name": "value",
          "type": "uint256"
        }
      ],
      "name": "Approval",
      "type": "event"
    },
    {
      "anonymous": false,
      "inputs": [
        {
          "indexed": true,
          "internalType": "address",
          "name": "sender",
          "type": "address"
        },
        {
          "indexed": true,
          "internalType": "address",
          "name": "owner",
          "type": "address"
        },
        {
          "indexed": false,
          "internalType": "uint256",
          "name": "assets",
          "type": "uint256"
        },
        {
          "indexed": false,
          "internalType": "uint256",
          "name": "shares",
          "type": "uint256"
        }
      ],
      "name": "Deposit",
      "type": "event"
    },
    {
      "anonymous": false,
      "inputs": [
        {
          "indexed": false,
          "internalType": "uint64",
          "name": "version",
          "type": "uint64"
        }
      ],
      "name": "Initialized",
      "type": "event"
    },
    {
      "anonymous": false,
      "inputs": [
        {
          "indexed": true,
          "internalType": "address",
          "name": "previousOwner",
          "type": "address"
        },
        {
          "indexed": true,
          "internalType": "address",
          "name": "newOwner",
          "type": "address"
        }
      ],
      "name": "OwnershipTransferred",
      "type": "event"
    },
    {
      "anonymous": false,
      "inputs": [
        {
          "indexed": false,
          "internalType": "address",
          "name": "account",
          "type": "address"
        }
      ],
      "name": "Paused",
      "type": "event"
    },
    {
      "anonymous": false,
      "inputs": [
        {
          "indexed": true,
          "internalType": "address",
          "name": "from",
          "type": "address"
        },
        {
          "indexed": true,
          "internalType": "address",
          "name": "to",
          "type": "address"
        },
        {
          "indexed": false,
          "internalType": "uint256",
          "name": "value",
          "type": "uint256"
        }
      ],
      "name": "Transfer",
      "type": "event"
    },
    {
      "anonymous": false,
      "inputs": [
        {
          "indexed": false,
          "internalType": "address",
          "name": "account",
          "type": "address"
        }
      ],
      "name": "Unpaused",
      "type": "event"
    },
    {
      "anonymous": false,
      "inputs": [
        {
          "indexed": true,
          "internalType": "address",
          "name": "implementation",
          "type": "address"
        }
      ],
      "name": "Upgraded",
      "type": "event"
    },
    {
      "anonymous": false,
      "inputs": [
        {
          "indexed": true,
          "internalType": "address",
          "name": "sender",
          "type": "address"
        },
        {
          "indexed": true,
          "internalType": "address",
          "name": "receiver",
          "type": "address"
        },
        {
          "indexed": true,
          "internalType": "address",
          "name": "owner",
          "type": "address"
        },
        {
          "indexed": false,
          "internalType": "uint256",
          "name": "assets",
          "type": "uint256"
        },
        {
          "indexed": false,
          "internalType": "uint256",
          "name": "shares",
          "type": "uint256"
        }
      ],
      "name": "Withdraw",
      "type": "event"
    },
    {
      "inputs": [],
      "name": "UPGRADE_INTERFACE_VERSION",
      "outputs": [
        {
          "internalType": "string",
          "name": "",
          "type": "string"
        }
      ],
      "stateMutability": "view",
      "type": "function"
    },
    {
      "inputs": [
        {
          "internalType": "address",
          "name": "owner",
          "type": "address"
        },
        {
          "internalType": "address",
          "name": "spender",
          "type": "address"
        }
      ],
      "name": "allowance",
      "outputs": [
        {
          "internalType": "uint256",
          "name": "",
          "type": "uint256"
        }
      ],
      "stateMutability": "view",
      "type": "function"
    },
    {
      "inputs": [
        {
          "internalType": "address",
          "name": "spender",
          "type": "address"
        },
        {
          "internalType": "uint256",
          "name": "value",
          "type": "uint256"
        }
      ],
      "name": "approve",
      "outputs": [
        {
          "internalType": "bool",
          "name": "",
          "type": "bool"
        }
      ],
      "stateMutability": "nonpayable",
      "type": "function"
    },
    {
      "inputs": [],
      "name": "asset",
      "outputs": [
        {
          "internalType": "address",
          "name": "",
          "type": "address"
        }
      ],
      "stateMutability": "view",
      "type": "function"
    },
    {
      "inputs": [
        {
          "internalType": "address",
          "name": "account",
          "type": "address"
        }
      ],
      "name": "balanceOf",
      "outputs": [
        {
          "internalType": "uint256",
          "name": "",
          "type": "uint256"
        }
      ],
      "stateMutability": "view",
      "type": "function"
    },
    {
      "inputs": [
        {
          "internalType": "address",
          "name": "legacyReward",
          "type": "address"
        },
        {
          "internalType": "address",
          "name": "account",
          "type": "address"
        }
      ],
      "name": "claimLegacyReward",
      "outputs": [
        {
          "internalType": "uint256",
          "name": "",
          "type": "uint256"
        }
      ],
      "stateMutability": "nonpayable",
      "type": "function"
    },
    {
      "inputs": [
        {
          "internalType": "address",
          "name": "account",
          "type": "address"
        }
      ],
      "name": "claimReward",
      "outputs": [
        {
          "internalType": "uint256",
          "name": "",
          "type": "uint256"
        }
      ],
      "stateMutability": "nonpayable",
      "type": "function"
    },
    {
      "inputs": [
        {
          "internalType": "uint256",
          "name": "shares",
          "type": "uint256"
        }
      ],
      "name": "convertToAssets",
      "outputs": [
        {
          "internalType": "uint256",
          "name": "",
          "type": "uint256"
        }
      ],
      "stateMutability": "view",
      "type": "function"
    },
    {
      "inputs": [
        {
          "internalType": "uint256",
          "name": "assets",
          "type": "uint256"
        }
      ],
      "name": "convertToShares",
      "outputs": [
        {
          "internalType": "uint256",
          "name": "",
          "type": "uint256"
        }
      ],
      "stateMutability": "view",
      "type": "function"
    },
    {
      "inputs": [],
      "name": "decimals",
      "outputs": [
        {
          "internalType": "uint8",
          "name": "",
          "type": "uint8"
        }
      ],
      "stateMutability": "view",
      "type": "function"
    },
    {
      "inputs": [
        {
          "internalType": "uint256",
          "name": "assets",
          "type": "uint256"
        },
        {
          "internalType": "address",
          "name": "receiver",
          "type": "address"
        }
      ],
      "name": "deposit",
      "outputs": [
        {
          "internalType": "uint256",
          "name": "",
          "type": "uint256"
        }
      ],
      "stateMutability": "nonpayable",
      "type": "function"
    },
    {
      "inputs": [],
      "name": "getCurrentRewardContract",
      "outputs": [
        {
          "internalType": "contract IRewardContract",
          "name": "",
          "type": "address"
        }
      ],
      "stateMutability": "view",
      "type": "function"
    },
    {
      "inputs": [],
      "name": "getLockTime",
      "outputs": [
        {
          "internalType": "uint256",
          "name": "",
          "type": "uint256"
        }
      ],
      "stateMutability": "view",
      "type": "function"
    },
    {
      "inputs": [
        {
          "internalType": "address",
          "name": "account",
          "type": "address"
        }
      ],
      "name": "getPendingReward",
      "outputs": [
        {
          "internalType": "uint256",
          "name": "",
          "type": "uint256"
        }
      ],
      "stateMutability": "view",
      "type": "function"
    },
    {
      "inputs": [
        {
          "internalType": "address",
          "name": "initialOwner",
          "type": "address"
        },
        {
          "internalType": "address",
          "name": "like",
          "type": "address"
        }
      ],
      "name": "initialize",
      "outputs": [],
      "stateMutability": "nonpayable",
      "type": "function"
    },
    {
      "inputs": [
        {
          "internalType": "address",
          "name": "",
          "type": "address"
        }
      ],
      "name": "maxDeposit",
      "outputs": [
        {
          "internalType": "uint256",
          "name": "",
          "type": "uint256"
        }
      ],
      "stateMutability": "view",
      "type": "function"
    },
    {
      "inputs": [
        {
          "internalType": "address",
          "name": "",
          "type": "address"
        }
      ],
      "name": "maxMint",
      "outputs": [
        {
          "internalType": "uint256",
          "name": "",
          "type": "uint256"
        }
      ],
      "stateMutability": "view",
      "type": "function"
    },
    {
      "inputs": [
        {
          "internalType": "address",
          "name": "owner",
          "type": "address"
        }
      ],
      "name": "maxRedeem",
      "outputs": [
        {
          "internalType": "uint256",
          "name": "",
          "type": "uint256"
        }
      ],
      "stateMutability": "view",
      "type": "function"
    },
    {
      "inputs": [
        {
          "internalType": "address",
          "name": "owner",
          "type": "address"
        }
      ],
      "name": "maxWithdraw",
      "outputs": [
        {
          "internalType": "uint256",
          "name": "",
          "type": "uint256"
        }
      ],
      "stateMutability": "view",
      "type": "function"
    },
    {
      "inputs": [
        {
          "internalType": "uint256",
          "name": "shares",
          "type": "uint256"
        },
        {
          "internalType": "address",
          "name": "receiver",
          "type": "address"
        }
      ],
      "name": "mint",
      "outputs": [
        {
          "internalType": "uint256",
          "name": "",
          "type": "uint256"
        }
      ],
      "stateMutability": "nonpayable",
      "type": "function"
    },
    {
      "inputs": [],
      "name": "name",
      "outputs": [
        {
          "internalType": "string",
          "name": "",
          "type": "string"
        }
      ],
      "stateMutability": "view",
      "type": "function"
    },
    {
      "inputs": [],
      "name": "owner",
      "outputs": [
        {
          "internalType": "address",
          "name": "",
          "type": "address"
        }
      ],
      "stateMutability": "view",
      "type": "function"
    },
    {
      "inputs": [],
      "name": "pause",
      "outputs": [],
      "stateMutability": "nonpayable",
      "type": "function"
    },
    {
      "inputs": [],
      "name": "paused",
      "outputs": [
        {
          "internalType": "bool",
          "name": "",
          "type": "bool"
        }
      ],
      "stateMutability": "view",
      "type": "function"
    },
    {
      "inputs": [
        {
          "internalType": "uint256",
          "name": "assets",
          "type": "uint256"
        }
      ],
      "name": "previewDeposit",
      "outputs": [
        {
          "internalType": "uint256",
          "name": "",
          "type": "uint256"
        }
      ],
      "stateMutability": "view",
      "type": "function"
    },
    {
      "inputs": [
        {
          "internalType": "uint256",
          "name": "shares",
          "type": "uint256"
        }
      ],
      "name": "previewMint",
      "outputs": [
        {
          "internalType": "uint256",
          "name": "",
          "type": "uint256"
        }
      ],
      "stateMutability": "view",
      "type": "function"
    },
    {
      "inputs": [
        {
          "internalType": "uint256",
          "name": "shares",
          "type": "uint256"
        }
      ],
      "name": "previewRedeem",
      "outputs": [
        {
          "internalType": "uint256",
          "name": "",
          "type": "uint256"
        }
      ],
      "stateMutability": "view",
      "type": "function"
    },
    {
      "inputs": [
        {
          "internalType": "uint256",
          "name": "assets",
          "type": "uint256"
        }
      ],
      "name": "previewWithdraw",
      "outputs": [
        {
          "internalType": "uint256",
          "name": "",
          "type": "uint256"
        }
      ],
      "stateMutability": "view",
      "type": "function"
    },
    {
      "inputs": [],
      "name": "proxiableUUID",
      "outputs": [
        {
          "internalType": "bytes32",
          "name": "",
          "type": "bytes32"
        }
      ],
      "stateMutability": "view",
      "type": "function"
    },
    {
      "inputs": [
        {
          "internalType": "uint256",
          "name": "shares",
          "type": "uint256"
        },
        {
          "internalType": "address",
          "name": "receiver",
          "type": "address"
        },
        {
          "internalType": "address",
          "name": "owner",
          "type": "address"
        }
      ],
      "name": "redeem",
      "outputs": [
        {
          "internalType": "uint256",
          "name": "",
          "type": "uint256"
        }
      ],
      "stateMutability": "nonpayable",
      "type": "function"
    },
    {
      "inputs": [],
      "name": "renounceOwnership",
      "outputs": [],
      "stateMutability": "nonpayable",
      "type": "function"
    },
    {
      "inputs": [
        {
          "internalType": "address",
          "name": "account",
          "type": "address"
        }
      ],
      "name": "restakeReward",
      "outputs": [
        {
          "internalType": "uint256",
          "name": "",
          "type": "uint256"
        }
      ],
      "stateMutability": "nonpayable",
      "type": "function"
    },
    {
      "inputs": [
        {
          "internalType": "address",
          "name": "rewardContract",
          "type": "address"
        },
        {
          "internalType": "bool",
          "name": "allowed",
          "type": "bool"
        }
      ],
      "name": "setLegacyRewardContract",
      "outputs": [],
      "stateMutability": "nonpayable",
      "type": "function"
    },
    {
      "inputs": [
        {
          "internalType": "uint256",
          "name": "lockTime",
          "type": "uint256"
        }
      ],
      "name": "setLockTime",
      "outputs": [],
      "stateMutability": "nonpayable",
      "type": "function"
    },
    {
      "inputs": [
        {
          "internalType": "address",
          "name": "rewardContract",
          "type": "address"
        }
      ],
      "name": "setRewardContract",
      "outputs": [],
      "stateMutability": "nonpayable",
      "type": "function"
    },
    {
      "inputs": [],
      "name": "symbol",
      "outputs": [
        {
          "internalType": "string",
          "name": "",
          "type": "string"
        }
      ],
      "stateMutability": "view",
      "type": "function"
    },
    {
      "inputs": [],
      "name": "totalAssets",
      "outputs": [
        {
          "internalType": "uint256",
          "name": "",
          "type": "uint256"
        }
      ],
      "stateMutability": "view",
      "type": "function"
    },
    {
      "inputs": [],
      "name": "totalSupply",
      "outputs": [
        {
          "internalType": "uint256",
          "name": "",
          "type": "uint256"
        }
      ],
      "stateMutability": "view",
      "type": "function"
    },
    {
      "inputs": [
        {
          "internalType": "address",
          "name": "",
          "type": "address"
        },
        {
          "internalType": "uint256",
          "name": "",
          "type": "uint256"
        }
      ],
      "name": "transfer",
      "outputs": [
        {
          "internalType": "bool",
          "name": "",
          "type": "bool"
        }
      ],
      "stateMutability": "nonpayable",
      "type": "function"
    },
    {
      "inputs": [
        {
          "internalType": "address",
          "name": "",
          "type": "address"
        },
        {
          "internalType": "address",
          "name": "",
          "type": "address"
        },
        {
          "internalType": "uint256",
          "name": "",
          "type": "uint256"
        }
      ],
      "name": "transferFrom",
      "outputs": [
        {
          "internalType": "bool",
          "name": "",
          "type": "bool"
        }
      ],
      "stateMutability": "nonpayable",
      "type": "function"
    },
    {
      "inputs": [
        {
          "internalType": "address",
          "name": "newOwner",
          "type": "address"
        }
      ],
      "name": "transferOwnership",
      "outputs": [],
      "stateMutability": "nonpayable",
      "type": "function"
    },
    {
      "inputs": [],
      "name": "unpause",
      "outputs": [],
      "stateMutability": "nonpayable",
      "type": "function"
    },
    {
      "inputs": [
        {
          "internalType": "address",
          "name": "newImplementation",
          "type": "address"
        },
        {
          "internalType": "bytes",
          "name": "data",
          "type": "bytes"
        }
      ],
      "name": "upgradeToAndCall",
      "outputs": [],
      "stateMutability": "payable",
      "type": "function"
    },
    {
      "inputs": [
        {
          "internalType": "uint256",
          "name": "assets",
          "type": "uint256"
        },
        {
          "internalType": "address",
          "name": "receiver",
          "type": "address"
        },
        {
          "internalType": "address",
          "name": "owner",
          "type": "address"
        }
      ],
      "name": "withdraw",
      "outputs": [
        {
          "internalType": "uint256",
          "name": "",
          "type": "uint256"
        }
      ],
      "stateMutability": "nonpayable",
      "type": "function"
    }
  ],
  "bytecode": "0x60a06040523073ffffffffffffffffffffffffffffffffffffffff1660809073ffffffffffffffffffffffffffffffffffffffff1681525034801561004357600080fd5b5061005261005760201b60201c565b6101de565b600061006761015b60201b60201c565b90508060000160089054906101000a900460ff16156100b2576040517ff92ee8a900000000000000000000000000000000000000000000000000000000815260040160405180910390fd5b67ffffffffffffffff80168160000160009054906101000a900467ffffffffffffffff1667ffffffffffffffff16146101585767ffffffffffffffff8160000160006101000a81548167ffffffffffffffff021916908367ffffffffffffffff1602179055507fc7f505b2f371ae2175ee4913f4499e1f2633a7b5936321eed1cdaeb6115181d267ffffffffffffffff60405161014f91906101c3565b60405180910390a15b50565b60008061016c61017560201b60201c565b90508091505090565b60007ff0c57e16840df040f15088dc2f81fe391c3923bec73e23a9662efc9c229c6a0060001b905090565b600067ffffffffffffffff82169050919050565b6101bd816101a0565b82525050565b60006020820190506101d860008301846101b4565b92915050565b6080516143c961020760003960008181611d7601528181611dcb0152611f8601526143c96000f3fe6080604052600436106102675760003560e01c80638456cb5911610144578063c63d75b6116100b6578063d905777e1161007a578063d905777e146109d3578063dd62ed3e14610a10578063e2fc3b7a14610a4d578063ef8b30f714610a76578063efb1413914610ab3578063f2fde38b14610af057610267565b8063c63d75b6146108a2578063c6e6f592146108df578063ce96cb771461091c578063d279c19114610959578063d5f834721461099657610267565b8063ad3cb1cc11610108578063ad3cb1cc1461076c578063ae04d45d14610797578063b3d7f6b9146107c0578063b460af94146107fd578063ba0876521461083a578063c0a4d64d1461087757610267565b80638456cb59146106855780638da5cb5b1461069c57806394bf804d146106c757806395d89b4114610704578063a9059cbb1461072f57610267565b8063402d267d116101dd57806351508f0a116101a157806351508f0a1461057557806352d1902d1461059e5780635c975abb146105c95780636e553f65146105f457806370a0823114610631578063715018a61461066e57610267565b8063402d267d14610479578063485cc955146104b65780634cdad506146104df5780634df9d6ba1461051c5780634f1ef2861461055957610267565b806318160ddd1161022f57806318160ddd1461037957806323b872dd146103a4578063313ce567146103e157806338d52e0f1461040c5780633a8d0b31146104375780633f4ba83a1461046257610267565b806301e1d1141461026c57806306fdde031461029757806307a2d13a146102c2578063095ea7b3146102ff5780630a28a4771461033c575b600080fd5b34801561027857600080fd5b50610281610b19565b60405161028e9190613561565b60405180910390f35b3480156102a357600080fd5b506102ac610b28565b6040516102b9919061360c565b60405180910390f35b3480156102ce57600080fd5b506102e960048036038101906102e4919061366e565b610bc9565b6040516102f69190613561565b60405180910390f35b34801561030b57600080fd5b50610326600480360381019061032191906136f9565b610bdd565b6040516103339190613754565b60405180910390f35b34801561034857600080fd5b50610363600480360381019061035e919061366e565b610c00565b6040516103709190613561565b60405180910390f35b34801561038557600080fd5b5061038e610c14565b60405161039b9190613561565b60405180910390f35b3480156103b057600080fd5b506103cb60048036038101906103c6919061376f565b610c2c565b6040516103d89190613754565b60405180910390f35b3480156103ed57600080fd5b506103f6610c60565b60405161040391906137de565b60405180910390f35b34801561041857600080fd5b50610421610c97565b60405161042e9190613808565b60405180910390f35b34801561044357600080fd5b5061044c610ccf565b6040516104599190613882565b60405180910390f35b34801561046e57600080fd5b50610477610d07565b005b34801561048557600080fd5b506104a0600480360381019061049b919061389d565b610d19565b6040516104ad9190613561565b60405180910390f35b3480156104c257600080fd5b506104dd60048036038101906104d891906138ca565b610d43565b005b3480156104eb57600080fd5b506105066004803603810190610501919061366e565b610f68565b6040516105139190613561565b60405180910390f35b34801561052857600080fd5b50610543600480360381019061053e919061389d565b610f7c565b6040516105509190613561565b60405180910390f35b610573600480360381019061056e9190613a3f565b61104a565b005b34801561058157600080fd5b5061059c6004803603810190610597919061389d565b611069565b005b3480156105aa57600080fd5b506105b36110c4565b6040516105c09190613ab4565b60405180910390f35b3480156105d557600080fd5b506105de6110f7565b6040516105eb9190613754565b60405180910390f35b34801561060057600080fd5b5061061b60048036038101906106169190613acf565b61111c565b6040516106289190613561565b60405180910390f35b34801561063d57600080fd5b506106586004803603810190610653919061389d565b61119e565b6040516106659190613561565b60405180910390f35b34801561067a57600080fd5b506106836111f5565b005b34801561069157600080fd5b5061069a611209565b005b3480156106a857600080fd5b506106b161121b565b6040516106be9190613808565b60405180910390f35b3480156106d357600080fd5b506106ee60048036038101906106e99190613acf565b611253565b6040516106fb9190613561565b60405180910390f35b34801561071057600080fd5b506107196112d5565b604051610726919061360c565b60405180910390f35b34801561073b57600080fd5b50610756600480360381019061075191906136f9565b611376565b6040516107639190613754565b60405180910390f35b34801561077857600080fd5b506107816113aa565b60405161078e919061360c565b60405180910390f35b3480156107a357600080fd5b506107be60048036038101906107b9919061366e565b6113e3565b005b3480156107cc57600080fd5b506107e760048036038101906107e2919061366e565b611404565b6040516107f49190613561565b60405180910390f35b34801561080957600080fd5b50610824600480360381019061081f9190613b0f565b611418565b6040516108319190613561565b60405180910390f35b34801561084657600080fd5b50610861600480360381019061085c9190613b0f565b61149c565b60405161086e9190613561565b60405180910390f35b34801561088357600080fd5b5061088c611520565b6040516108999190613561565b60405180910390f35b3480156108ae57600080fd5b506108c960048036038101906108c4919061389d565b611538565b6040516108d69190613561565b60405180910390f35b3480156108eb57600080fd5b506109066004803603810190610901919061366e565b611562565b6040516109139190613561565b60405180910390f35b34801561092857600080fd5b50610943600480360381019061093e919061389d565b611576565b6040516109509190613561565b60405180910390f35b34801561096557600080fd5b50610980600480360381019061097b919061389d565b611592565b60405161098d9190613561565b60405180910390f35b3480156109a257600080fd5b506109bd60048036038101906109b891906138ca565b6116ab565b6040516109ca9190613561565b60405180910390f35b3480156109df57600080fd5b506109fa60048036038101906109f5919061389d565b6117e4565b604051610a079190613561565b60405180910390f35b348015610a1c57600080fd5b50610a376004803603810190610a3291906138ca565b6117f6565b604051610a449190613561565b60405180910390f35b348015610a5957600080fd5b50610a746004803603810190610a6f9190613b8e565b61188b565b005b348015610a8257600080fd5b50610a9d6004803603810190610a98919061366e565b6118fd565b604051610aaa9190613561565b60405180910390f35b348015610abf57600080fd5b50610ada6004803603810190610ad5919061389d565b611911565b604051610ae79190613561565b60405180910390f35b348015610afc57600080fd5b50610b176004803603810190610b12919061389d565b611a34565b005b6000610b23610c14565b905090565b60606000610b34611aba565b9050806003018054610b4590613bfd565b80601f0160208091040260200160405190810160405280929190818152602001828054610b7190613bfd565b8015610bbe5780601f10610b9357610100808354040283529160200191610bbe565b820191906000526020600020905b815481529060010190602001808311610ba157829003601f168201915b505050505091505090565b6000610bd6826000611ae2565b9050919050565b600080610be8611b3b565b9050610bf5818585611b43565b600191505092915050565b6000610c0d826001611b55565b9050919050565b600080610c1f611aba565b9050806002015491505090565b60006040517f1ed771f800000000000000000000000000000000000000000000000000000000815260040160405180910390fd5b600080610c6b611bae565b9050610c75611bd6565b8160000160149054906101000a900460ff16610c919190613c5d565b91505090565b600080610ca2611bae565b90508060000160009054906101000a900473ffffffffffffffffffffffffffffffffffffffff1691505090565b600080610cda611bdb565b90508060000160009054906101000a900473ffffffffffffffffffffffffffffffffffffffff1691505090565b610d0f611c03565b610d17611c8a565b565b60007fffffffffffffffffffffffffffffffffffffffffffffffffffffffffffffffff9050919050565b6000610d4d611cfc565b905060008160000160089054906101000a900460ff1615905060008260000160009054906101000a900467ffffffffffffffff1690506000808267ffffffffffffffff16148015610d9b5750825b9050600060018367ffffffffffffffff16148015610dd0575060003073ffffffffffffffffffffffffffffffffffffffff163b145b905081158015610dde575080155b15610e15576040517ff92ee8a900000000000000000000000000000000000000000000000000000000815260040160405180910390fd5b60018560000160006101000a81548167ffffffffffffffff021916908367ffffffffffffffff1602179055508315610e655760018560000160086101000a81548160ff0219169083151502179055505b610e6e86611d10565b610ee26040518060400160405280601681526020017f766f74652d657363726f776564204c696b65436f696e000000000000000000008152506040518060400160405280600681526020017f76654c494b450000000000000000000000000000000000000000000000000000815250611d24565b610eea611d3a565b610ef2611d44565b610efb87611d56565b610f03611d6a565b8315610f5f5760008560000160086101000a81548160ff0219169083151502179055507fc7f505b2f371ae2175ee4913f4499e1f2633a7b5936321eed1cdaeb6115181d26001604051610f569190613ce1565b60405180910390a15b50505050505050565b6000610f75826000611ae2565b9050919050565b600080610f87610ccf565b9050600073ffffffffffffffffffffffffffffffffffffffff168173ffffffffffffffffffffffffffffffffffffffff1603610fc7576000915050611045565b8073ffffffffffffffffffffffffffffffffffffffff16634df9d6ba846040518263ffffffff1660e01b81526004016110009190613808565b602060405180830381865afa15801561101d573d6000803e3d6000fd5b505050506040513d601f19601f820116820180604052508101906110419190613d11565b9150505b919050565b611052611d74565b61105b82611e5a565b6110658282611e65565b5050565b611071611c03565b600061107b611bdb565b9050818160000160006101000a81548173ffffffffffffffffffffffffffffffffffffffff021916908373ffffffffffffffffffffffffffffffffffffffff1602179055505050565b60006110ce611f84565b7f360894a13ba1a3210667c828492db98dca3e2076cc3735a920a3ca505d382bbc60001b905090565b60008061110261200b565b90508060000160009054906101000a900460ff1691505090565b60008061112883610d19565b905080841115611173578284826040517f79012fb200000000000000000000000000000000000000000000000000000000815260040161116a93929190613d3e565b60405180910390fd5b600061117e856118fd565b905061119361118b611b3b565b858784612033565b809250505092915050565b6000806111a9611aba565b90508060000160008473ffffffffffffffffffffffffffffffffffffffff1673ffffffffffffffffffffffffffffffffffffffff16815260200190815260200160002054915050919050565b6111fd611c03565b6112076000612174565b565b611211611c03565b61121961224b565b565b6000806112266122bd565b90508060000160009054906101000a900473ffffffffffffffffffffffffffffffffffffffff1691505090565b60008061125f83611538565b9050808411156112aa578284826040517f284ff6670000000000000000000000000000000000000000000000000000000081526004016112a193929190613d3e565b60405180910390fd5b60006112b585611404565b90506112ca6112c2611b3b565b858388612033565b809250505092915050565b606060006112e1611aba565b90508060040180546112f290613bfd565b80601f016020809104026020016040519081016040528092919081815260200182805461131e90613bfd565b801561136b5780601f106113405761010080835404028352916020019161136b565b820191906000526020600020905b81548152906001019060200180831161134e57829003601f168201915b505050505091505090565b60006040517f1ed771f800000000000000000000000000000000000000000000000000000000815260040160405180910390fd5b6040518060400160405280600581526020017f352e302e3000000000000000000000000000000000000000000000000000000081525081565b6113eb611c03565b60006113f5611bdb565b90508181600101819055505050565b6000611411826001611ae2565b9050919050565b60008061142483611576565b90508085111561146f578285826040517ffe9cceec00000000000000000000000000000000000000000000000000000000815260040161146693929190613d3e565b60405180910390fd5b600061147a86610c00565b9050611490611487611b3b565b868689856122e5565b80925050509392505050565b6000806114a8836117e4565b9050808511156114f3578285826040517fb94abeec0000000000000000000000000000000000000000000000000000000081526004016114ea93929190613d3e565b60405180910390fd5b60006114fe86610f68565b905061151461150b611b3b565b8686848a6122e5565b80925050509392505050565b60008061152b611bdb565b9050806001015491505090565b60007fffffffffffffffffffffffffffffffffffffffffffffffffffffffffffffffff9050919050565b600061156f826000611b55565b9050919050565b600061158b6115848361119e565b6000611ae2565b9050919050565b600061159c6124c7565b6115a4612508565b60006115ae610ccf565b9050600073ffffffffffffffffffffffffffffffffffffffff168173ffffffffffffffffffffffffffffffffffffffff1603611616576040517f1e09881a00000000000000000000000000000000000000000000000000000000815260040160405180910390fd5b60008173ffffffffffffffffffffffffffffffffffffffff1663aeb51b378560006040518363ffffffff1660e01b8152600401611654929190613d75565b6020604051808303816000875af1158015611673573d6000803e3d6000fd5b505050506040513d601f19601f820116820180604052508101906116979190613d11565b905080925050506116a661255f565b919050565b60006116b56124c7565b6116bd612508565b60006116c7611bdb565b90508060020160008573ffffffffffffffffffffffffffffffffffffffff1673ffffffffffffffffffffffffffffffffffffffff16815260200190815260200160002060009054906101000a900460ff1661174e576040517fb7d0d9bb00000000000000000000000000000000000000000000000000000000815260040160405180910390fd5b60008473ffffffffffffffffffffffffffffffffffffffff1663aeb51b378560006040518363ffffffff1660e01b815260040161178c929190613d75565b6020604051808303816000875af11580156117ab573d6000803e3d6000fd5b505050506040513d601f19601f820116820180604052508101906117cf9190613d11565b905080925050506117de61255f565b92915050565b60006117ef8261119e565b9050919050565b600080611801611aba565b90508060010160008573ffffffffffffffffffffffffffffffffffffffff1673ffffffffffffffffffffffffffffffffffffffff16815260200190815260200160002060008473ffffffffffffffffffffffffffffffffffffffff1673ffffffffffffffffffffffffffffffffffffffff1681526020019081526020016000205491505092915050565b611893611c03565b600061189d611bdb565b9050818160020160008573ffffffffffffffffffffffffffffffffffffffff1673ffffffffffffffffffffffffffffffffffffffff16815260200190815260200160002060006101000a81548160ff021916908315150217905550505050565b600061190a826000611b55565b9050919050565b600061191b6124c7565b611923612508565b600061192d610ccf565b9050600073ffffffffffffffffffffffffffffffffffffffff168173ffffffffffffffffffffffffffffffffffffffff1603611995576040517f1e09881a00000000000000000000000000000000000000000000000000000000815260040160405180910390fd5b60008173ffffffffffffffffffffffffffffffffffffffff1663aeb51b378560016040518363ffffffff1660e01b81526004016119d3929190613d75565b6020604051808303816000875af11580156119f2573d6000803e3d6000fd5b505050506040513d601f19601f82011682018060405250810190611a169190613d11565b9050611a228482612578565b8092505050611a2f61255f565b919050565b611a3c611c03565b600073ffffffffffffffffffffffffffffffffffffffff168173ffffffffffffffffffffffffffffffffffffffff1603611aae5760006040517f1e4fbdf7000000000000000000000000000000000000000000000000000000008152600401611aa59190613808565b60405180910390fd5b611ab781612174565b50565b60007f52c63247e1f47db19d5ce0460030c497f067ca4cebf71ba98eeadabe20bace00905090565b6000611b336001611af1610b19565b611afb9190613d9e565b611b03611bd6565b600a611b0f9190613f05565b611b17610c14565b611b219190613d9e565b84866125fa909392919063ffffffff16565b905092915050565b600033905090565b611b508383836001612649565b505050565b6000611ba6611b62611bd6565b600a611b6e9190613f05565b611b76610c14565b611b809190613d9e565b6001611b8a610b19565b611b949190613d9e565b84866125fa909392919063ffffffff16565b905092915050565b60007f0773e532dfede91f04b12a73d3d2acd361424f41f76b4fb79f090161e36b4e00905090565b600090565b60007fb9e14b2a89d227541697d62a06ecbf5ccc9ad849800745b40b2826662a177600905090565b611c0b611b3b565b73ffffffffffffffffffffffffffffffffffffffff16611c2961121b565b73ffffffffffffffffffffffffffffffffffffffff1614611c8857611c4c611b3b565b6040517f118cdaa7000000000000000000000000000000000000000000000000000000008152600401611c7f9190613808565b60405180910390fd5b565b611c9261282f565b6000611c9c61200b565b905060008160000160006101000a81548160ff0219169083151502179055507f5db9ee0a495bf2e6ff9c91a7834c1ba4fdd244a5e8aa4e537bd38aeae4b073aa611ce4611b3b565b604051611cf19190613808565b60405180910390a150565b600080611d0761286f565b90508091505090565b611d1861289a565b611d21816128da565b50565b611d2c61289a565b611d368282612971565b5050565b611d4261289a565b565b611d4c61289a565b611d546129ae565b565b611d5e61289a565b611d67816129cf565b50565b611d7261289a565b565b7f000000000000000000000000000000000000000000000000000000000000000073ffffffffffffffffffffffffffffffffffffffff163073ffffffffffffffffffffffffffffffffffffffff161480611e2157507f000000000000000000000000000000000000000000000000000000000000000073ffffffffffffffffffffffffffffffffffffffff16611e08612a55565b73ffffffffffffffffffffffffffffffffffffffff1614155b15611e58576040517fe07c8dba00000000000000000000000000000000000000000000000000000000815260040160405180910390fd5b565b611e62611c03565b50565b8173ffffffffffffffffffffffffffffffffffffffff166352d1902d6040518163ffffffff1660e01b8152600401602060405180830381865afa925050508015611ecd57506040513d601f19601f82011682018060405250810190611eca9190613f7c565b60015b611f0e57816040517f4c9c8ce3000000000000000000000000000000000000000000000000000000008152600401611f059190613808565b60405180910390fd5b7f360894a13ba1a3210667c828492db98dca3e2076cc3735a920a3ca505d382bbc60001b8114611f7557806040517faa1d49a4000000000000000000000000000000000000000000000000000000008152600401611f6c9190613ab4565b60405180910390fd5b611f7f8383612aac565b505050565b7f000000000000000000000000000000000000000000000000000000000000000073ffffffffffffffffffffffffffffffffffffffff163073ffffffffffffffffffffffffffffffffffffffff1614612009576040517fe07c8dba00000000000000000000000000000000000000000000000000000000815260040160405180910390fd5b565b60007fcd5ed15c6e187e77e9aee88184c21f4f2182ab5827cb3b7e07fbedcd63f03300905090565b61203b6124c7565b61204e612046610c97565b853085612b1f565b6000612058610ccf565b9050600073ffffffffffffffffffffffffffffffffffffffff168173ffffffffffffffffffffffffffffffffffffffff16146120fc578073ffffffffffffffffffffffffffffffffffffffff166347e7ef2485856040518363ffffffff1660e01b81526004016120c9929190613fa9565b600060405180830381600087803b1580156120e357600080fd5b505af11580156120f7573d6000803e3d6000fd5b505050505b6121068483612578565b8373ffffffffffffffffffffffffffffffffffffffff168573ffffffffffffffffffffffffffffffffffffffff167fdcbc1c05240f31ff3ad067ef1ee35ce4997762752e3a095284754544f4c709d78585604051612165929190613fd2565b60405180910390a35050505050565b600061217e6122bd565b905060008160000160009054906101000a900473ffffffffffffffffffffffffffffffffffffffff169050828260000160006101000a81548173ffffffffffffffffffffffffffffffffffffffff021916908373ffffffffffffffffffffffffffffffffffffffff1602179055508273ffffffffffffffffffffffffffffffffffffffff168173ffffffffffffffffffffffffffffffffffffffff167f8be0079c531659141344cd1fd0a4f28419497f9722a3daafe3b4186f6b6457e060405160405180910390a3505050565b6122536124c7565b600061225d61200b565b905060018160000160006101000a81548160ff0219169083151502179055507f62e78cea01bee320cd4e420270b5ea74000d11b0c9f74754ebdbfc544b05a2586122a5611b3b565b6040516122b29190613808565b60405180910390a150565b60007f9016d09d72d40fdae2fd8ceac6b6234c7706214fd39c1cd1e609a0528c199300905090565b6122ed6124c7565b60006122f7611bdb565b90508060010154421015612337576040517fd6b0a7de00000000000000000000000000000000000000000000000000000000815260040160405180910390fd5b8373ffffffffffffffffffffffffffffffffffffffff168673ffffffffffffffffffffffffffffffffffffffff161461237657612375848784612ba1565b5b6000612380610ccf565b9050600073ffffffffffffffffffffffffffffffffffffffff168173ffffffffffffffffffffffffffffffffffffffff1614612424578073ffffffffffffffffffffffffffffffffffffffff1663f3fef3a386866040518363ffffffff1660e01b81526004016123f1929190613fa9565b600060405180830381600087803b15801561240b57600080fd5b505af115801561241f573d6000803e3d6000fd5b505050505b61242e8584612c36565b612440612439610c97565b8786612cb8565b8473ffffffffffffffffffffffffffffffffffffffff168673ffffffffffffffffffffffffffffffffffffffff168873ffffffffffffffffffffffffffffffffffffffff167ffbde797d201c681b91056529119e0b02407c7bb96a4a2c75c01fc9667232c8db87876040516124b6929190613fd2565b60405180910390a450505050505050565b6124cf6110f7565b15612506576040517fd93c066500000000000000000000000000000000000000000000000000000000815260040160405180910390fd5b565b6000612512612d37565b90506002816000015403612552576040517f3ee5aeb500000000000000000000000000000000000000000000000000000000815260040160405180910390fd5b6002816000018190555050565b6000612569612d37565b90506001816000018190555050565b600073ffffffffffffffffffffffffffffffffffffffff168273ffffffffffffffffffffffffffffffffffffffff16036125ea5760006040517fec442f050000000000000000000000000000000000000000000000000000000081526004016125e19190613808565b60405180910390fd5b6125f660008383612d5f565b5050565b600061262a61260883612f9e565b80156126255750600084806126205761261f613ffb565b5b868809115b612fcc565b612635868686612fd8565b61263f9190613d9e565b9050949350505050565b6000612653611aba565b9050600073ffffffffffffffffffffffffffffffffffffffff168573ffffffffffffffffffffffffffffffffffffffff16036126c75760006040517fe602df050000000000000000000000000000000000000000000000000000000081526004016126be9190613808565b60405180910390fd5b600073ffffffffffffffffffffffffffffffffffffffff168473ffffffffffffffffffffffffffffffffffffffff16036127395760006040517f94280d620000000000000000000000000000000000000000000000000000000081526004016127309190613808565b60405180910390fd5b828160010160008773ffffffffffffffffffffffffffffffffffffffff1673ffffffffffffffffffffffffffffffffffffffff16815260200190815260200160002060008673ffffffffffffffffffffffffffffffffffffffff1673ffffffffffffffffffffffffffffffffffffffff168152602001908152602001600020819055508115612828578373ffffffffffffffffffffffffffffffffffffffff168573ffffffffffffffffffffffffffffffffffffffff167f8c5be1e5ebec7d5bd14f71427d1e84f3dd0314c0f7b2291e5b200ac8c7c3b9258560405161281f9190613561565b60405180910390a35b5050505050565b6128376110f7565b61286d576040517f8dfc202b00000000000000000000000000000000000000000000000000000000815260040160405180910390fd5b565b60007ff0c57e16840df040f15088dc2f81fe391c3923bec73e23a9662efc9c229c6a0060001b905090565b6128a26130c0565b6128d8576040517fd7e6bcf800000000000000000000000000000000000000000000000000000000815260040160405180910390fd5b565b6128e261289a565b60006128ec611bae565b90506000806128fa846130e0565b915091508161290a57601261290c565b805b8360000160146101000a81548160ff021916908360ff160217905550838360000160006101000a81548173ffffffffffffffffffffffffffffffffffffffff021916908373ffffffffffffffffffffffffffffffffffffffff16021790555050505050565b61297961289a565b6000612983611aba565b90508281600301908161299691906141cc565b50818160040190816129a891906141cc565b50505050565b6129b661289a565b60006129c0612d37565b90506001816000018190555050565b6129d761289a565b600073ffffffffffffffffffffffffffffffffffffffff168173ffffffffffffffffffffffffffffffffffffffff1603612a495760006040517f1e4fbdf7000000000000000000000000000000000000000000000000000000008152600401612a409190613808565b60405180910390fd5b612a5281612174565b50565b6000612a837f360894a13ba1a3210667c828492db98dca3e2076cc3735a920a3ca505d382bbc60001b6131f0565b60000160009054906101000a900473ffffffffffffffffffffffffffffffffffffffff16905090565b612ab5826131fa565b8173ffffffffffffffffffffffffffffffffffffffff167fbc7cd75a20ee27fd9adebab32041f755214dbc6bffa90cc0225b39da2e5c2d3b60405160405180910390a2600081511115612b1257612b0c82826132c7565b50612b1b565b612b1a61334b565b5b5050565b612b9b848573ffffffffffffffffffffffffffffffffffffffff166323b872dd868686604051602401612b549392919061429e565b604051602081830303815290604052915060e01b6020820180517bffffffffffffffffffffffffffffffffffffffffffffffffffffffff8381831617835250505050613388565b50505050565b6000612bad84846117f6565b90507fffffffffffffffffffffffffffffffffffffffffffffffffffffffffffffffff811015612c305781811015612c20578281836040517ffb8f41b2000000000000000000000000000000000000000000000000000000008152600401612c1793929190613d3e565b60405180910390fd5b612c2f84848484036000612649565b5b50505050565b600073ffffffffffffffffffffffffffffffffffffffff168273ffffffffffffffffffffffffffffffffffffffff1603612ca85760006040517f96c6fd1e000000000000000000000000000000000000000000000000000000008152600401612c9f9190613808565b60405180910390fd5b612cb482600083612d5f565b5050565b612d32838473ffffffffffffffffffffffffffffffffffffffff1663a9059cbb8585604051602401612ceb929190613fa9565b604051602081830303815290604052915060e01b6020820180517bffffffffffffffffffffffffffffffffffffffffffffffffffffffff8381831617835250505050613388565b505050565b60007f9b779b17422d0df92223018b32b4d1fa46e071723d6817e2486d003becc55f00905090565b6000612d69611aba565b9050600073ffffffffffffffffffffffffffffffffffffffff168473ffffffffffffffffffffffffffffffffffffffff1603612dbf5781816002016000828254612db39190613d9e565b92505081905550612e98565b60008160000160008673ffffffffffffffffffffffffffffffffffffffff1673ffffffffffffffffffffffffffffffffffffffff16815260200190815260200160002054905082811015612e4e578481846040517fe450d38c000000000000000000000000000000000000000000000000000000008152600401612e4593929190613d3e565b60405180910390fd5b8281038260000160008773ffffffffffffffffffffffffffffffffffffffff1673ffffffffffffffffffffffffffffffffffffffff16815260200190815260200160002081905550505b600073ffffffffffffffffffffffffffffffffffffffff168373ffffffffffffffffffffffffffffffffffffffff1603612ee357818160020160008282540392505081905550612f33565b818160000160008573ffffffffffffffffffffffffffffffffffffffff1673ffffffffffffffffffffffffffffffffffffffff168152602001908152602001600020600082825401925050819055505b8273ffffffffffffffffffffffffffffffffffffffff168473ffffffffffffffffffffffffffffffffffffffff167fddf252ad1be2c89b69c2b068fc378daa952ba7f163c4a11628f55a4df523b3ef84604051612f909190613561565b60405180910390a350505050565b600060016002836003811115612fb757612fb66142d5565b5b612fc19190614304565b60ff16149050919050565b60008115159050919050565b6000806000612fe7868661342a565b915091506000820361300d5783818161300357613002613ffb565b5b04925050506130b9565b81841161302d5761302c6130276000861460126011613449565b613463565b5b600084868809905081811183039250808203915060008560000386169050808604955080830492506001818260000304019050808402831792506000600287600302189050808702600203810290508087026002038102905080870260020381029050808702600203810290508087026002038102905080870260020381029050808402955050505050505b9392505050565b60006130ca611cfc565b60000160089054906101000a900460ff16905090565b6000806000808473ffffffffffffffffffffffffffffffffffffffff1660405160240160405160208183030381529060405263313ce56760e01b6020820180517bffffffffffffffffffffffffffffffffffffffffffffffffffffffff8381831617835250505050604051613155919061437c565b600060405180830381855afa9150503d8060008114613190576040519150601f19603f3d011682016040523d82523d6000602084013e613195565b606091505b50915091508180156131a957506020815110155b156131e1576000818060200190518101906131c49190613d11565b905060ff801681116131df57600181945094505050506131eb565b505b6000809350935050505b915091565b6000819050919050565b60008173ffffffffffffffffffffffffffffffffffffffff163b0361325657806040517f4c9c8ce300000000000000000000000000000000000000000000000000000000815260040161324d9190613808565b60405180910390fd5b806132837f360894a13ba1a3210667c828492db98dca3e2076cc3735a920a3ca505d382bbc60001b6131f0565b60000160006101000a81548173ffffffffffffffffffffffffffffffffffffffff021916908373ffffffffffffffffffffffffffffffffffffffff16021790555050565b60606000808473ffffffffffffffffffffffffffffffffffffffff16846040516132f1919061437c565b600060405180830381855af49150503d806000811461332c576040519150601f19603f3d011682016040523d82523d6000602084013e613331565b606091505b5091509150613341858383613475565b9250505092915050565b6000341115613386576040517fb398979f00000000000000000000000000000000000000000000000000000000815260040160405180910390fd5b565b600080602060008451602086016000885af1806133ab576040513d6000823e3d81fd5b3d9250600051915050600082146133c65760018114156133e2565b60008473ffffffffffffffffffffffffffffffffffffffff163b145b1561342457836040517f5274afe700000000000000000000000000000000000000000000000000000000815260040161341b9190613808565b60405180910390fd5b50505050565b6000806000198385098385029150818110828203039250509250929050565b600061345484612fcc565b82841802821890509392505050565b634e487b71600052806020526024601cfd5b60608261348a5761348582613504565b6134fc565b600082511480156134b2575060008473ffffffffffffffffffffffffffffffffffffffff163b145b156134f457836040517f9996b3150000000000000000000000000000000000000000000000000000000081526004016134eb9190613808565b60405180910390fd5b8190506134fd565b5b9392505050565b60008151111561351657805160208201fd5b6040517fd6bda27500000000000000000000000000000000000000000000000000000000815260040160405180910390fd5b6000819050919050565b61355b81613548565b82525050565b60006020820190506135766000830184613552565b92915050565b600081519050919050565b600082825260208201905092915050565b60005b838110156135b657808201518184015260208101905061359b565b60008484015250505050565b6000601f19601f8301169050919050565b60006135de8261357c565b6135e88185613587565b93506135f8818560208601613598565b613601816135c2565b840191505092915050565b6000602082019050818103600083015261362681846135d3565b905092915050565b6000604051905090565b600080fd5b600080fd5b61364b81613548565b811461365657600080fd5b50565b60008135905061366881613642565b92915050565b60006020828403121561368457613683613638565b5b600061369284828501613659565b91505092915050565b600073ffffffffffffffffffffffffffffffffffffffff82169050919050565b60006136c68261369b565b9050919050565b6136d6816136bb565b81146136e157600080fd5b50565b6000813590506136f3816136cd565b92915050565b600080604083850312156137105761370f613638565b5b600061371e858286016136e4565b925050602061372f85828601613659565b9150509250929050565b60008115159050919050565b61374e81613739565b82525050565b60006020820190506137696000830184613745565b92915050565b60008060006060848603121561378857613787613638565b5b6000613796868287016136e4565b93505060206137a7868287016136e4565b92505060406137b886828701613659565b9150509250925092565b600060ff82169050919050565b6137d8816137c2565b82525050565b60006020820190506137f360008301846137cf565b92915050565b613802816136bb565b82525050565b600060208201905061381d60008301846137f9565b92915050565b6000819050919050565b600061384861384361383e8461369b565b613823565b61369b565b9050919050565b600061385a8261382d565b9050919050565b600061386c8261384f565b9050919050565b61387c81613861565b82525050565b60006020820190506138976000830184613873565b92915050565b6000602082840312156138b3576138b2613638565b5b60006138c1848285016136e4565b91505092915050565b600080604083850312156138e1576138e0613638565b5b60006138ef858286016136e4565b9250506020613900858286016136e4565b9150509250929050565b600080fd5b600080fd5b7f4e487b7100000000000000000000000000000000000000000000000000000000600052604160045260246000fd5b61394c826135c2565b810181811067ffffffffffffffff8211171561396b5761396a613914565b5b80604052505050565b600061397e61362e565b905061398a8282613943565b919050565b600067ffffffffffffffff8211156139aa576139a9613914565b5b6139b3826135c2565b9050602081019050919050565b82818337600083830152505050565b60006139e26139dd8461398f565b613974565b9050828152602081018484840111156139fe576139fd61390f565b5b613a098482856139c0565b509392505050565b600082601f830112613a2657613a2561390a565b5b8135613a368482602086016139cf565b91505092915050565b60008060408385031215613a5657613a55613638565b5b6000613a64858286016136e4565b925050602083013567ffffffffffffffff811115613a8557613a8461363d565b5b613a9185828601613a11565b9150509250929050565b6000819050919050565b613aae81613a9b565b82525050565b6000602082019050613ac96000830184613aa5565b92915050565b60008060408385031215613ae657613ae5613638565b5b6000613af485828601613659565b9250506020613b05858286016136e4565b9150509250929050565b600080600060608486031215613b2857613b27613638565b5b6000613b3686828701613659565b9350506020613b47868287016136e4565b9250506040613b58868287016136e4565b9150509250925092565b613b6b81613739565b8114613b7657600080fd5b50565b600081359050613b8881613b62565b92915050565b60008060408385031215613ba557613ba4613638565b5b6000613bb3858286016136e4565b9250506020613bc485828601613b79565b9150509250929050565b7f4e487b7100000000000000000000000000000000000000000000000000000000600052602260045260246000fd5b60006002820490506001821680613c1557607f821691505b602082108103613c2857613c27613bce565b5b50919050565b7f4e487b7100000000000000000000000000000000000000000000000000000000600052601160045260246000fd5b6000613c68826137c2565b9150613c73836137c2565b9250828201905060ff811115613c8c57613c8b613c2e565b5b92915050565b6000819050919050565b600067ffffffffffffffff82169050919050565b6000613ccb613cc6613cc184613c92565b613823565b613c9c565b9050919050565b613cdb81613cb0565b82525050565b6000602082019050613cf66000830184613cd2565b92915050565b600081519050613d0b81613642565b92915050565b600060208284031215613d2757613d26613638565b5b6000613d3584828501613cfc565b91505092915050565b6000606082019050613d5360008301866137f9565b613d606020830185613552565b613d6d6040830184613552565b949350505050565b6000604082019050613d8a60008301856137f9565b613d976020830184613745565b9392505050565b6000613da982613548565b9150613db483613548565b9250828201905080821115613dcc57613dcb613c2e565b5b92915050565b60008160011c9050919050565b6000808291508390505b6001851115613e2957808604811115613e0557613e04613c2e565b5b6001851615613e145780820291505b8081029050613e2285613dd2565b9450613de9565b94509492505050565b600082613e425760019050613efe565b81613e505760009050613efe565b8160018114613e665760028114613e7057613e9f565b6001915050613efe565b60ff841115613e8257613e81613c2e565b5b8360020a915084821115613e9957613e98613c2e565b5b50613efe565b5060208310610133831016604e8410600b8410161715613ed45782820a905083811115613ecf57613ece613c2e565b5b613efe565b613ee18484846001613ddf565b92509050818404811115613ef857613ef7613c2e565b5b81810290505b9392505050565b6000613f1082613548565b9150613f1b836137c2565b9250613f487fffffffffffffffffffffffffffffffffffffffffffffffffffffffffffffffff8484613e32565b905092915050565b613f5981613a9b565b8114613f6457600080fd5b50565b600081519050613f7681613f50565b92915050565b600060208284031215613f9257613f91613638565b5b6000613fa084828501613f67565b91505092915050565b6000604082019050613fbe60008301856137f9565b613fcb6020830184613552565b9392505050565b6000604082019050613fe76000830185613552565b613ff46020830184613552565b9392505050565b7f4e487b7100000000000000000000000000000000000000000000000000000000600052601260045260246000fd5b60008190508160005260206000209050919050565b60006020601f8301049050919050565b600082821b905092915050565b60006008830261408c7fffffffffffffffffffffffffffffffffffffffffffffffffffffffffffffffff8261404f565b614096868361404f565b95508019841693508086168417925050509392505050565b60006140c96140c46140bf84613548565b613823565b613548565b9050919050565b6000819050919050565b6140e3836140ae565b6140f76140ef826140d0565b84845461405c565b825550505050565b600090565b61410c6140ff565b6141178184846140da565b505050565b5b8181101561413b57614130600082614104565b60018101905061411d565b5050565b601f821115614180576141518161402a565b61415a8461403f565b81016020851015614169578190505b61417d6141758561403f565b83018261411c565b50505b505050565b600082821c905092915050565b60006141a360001984600802614185565b1980831691505092915050565b60006141bc8383614192565b9150826002028217905092915050565b6141d58261357c565b67ffffffffffffffff8111156141ee576141ed613914565b5b6141f88254613bfd565b61420382828561413f565b600060209050601f8311600181146142365760008415614224578287015190505b61422e85826141b0565b865550614296565b601f1984166142448661402a565b60005b8281101561426c57848901518255600182019150602085019450602081019050614247565b868310156142895784890151614285601f891682614192565b8355505b6001600288020188555050505b505050505050565b60006060820190506142b360008301866137f9565b6142c060208301856137f9565b6142cd6040830184613552565b949350505050565b7f4e487b7100000000000000000000000000000000000000000000000000000000600052602160045260246000fd5b600061430f826137c2565b915061431a836137c2565b92508261432a57614329613ffb565b5b828206905092915050565b600081519050919050565b600081905092915050565b600061435682614335565b6143608185614340565b9350614370818560208601613598565b80840191505092915050565b6000614388828461434b565b91508190509291505056fea2646970667358221220dd0ab29f151b4b4cb505f80c45127a733bba5b601440bd17ccc77ce33c98016264736f6c634300081c0033",
  "linkReferences": {},
  "deployedLinkReferences": {}
}