{
  "_format": "hh-sol-artifact-1",
  "contractName": "veLikeRewardNoLock",
  "sourceName": "contracts/veLikeRewardNoLock.sol",
  "abi": [
    {
      "inputs": [],
      "stateMutability": "nonpayable",
      "type": "constructor"
    },
    {
      "inputs": [
        {
          "internalType": "address",
          "name": "target",
          "type": "address"
        }
      ],
      "name": "AddressEmptyCode",
      "type": "error"
    },
    {
      "inputs": [
        {
          "internalType": "address",
          "name": "implementation",
          "type": "address"
        }
      ],
      "name": "ERC1967InvalidImplementation",
      "type": "error"
    },
    {
      "inputs": [],
      "name": "ERC1967NonPayable",
      "type": "error"
    },
    {
      "inputs": [],
      "name": "EnforcedPause",
      "type": "error"
    },
    {
      "inputs": [],
      "name": "ErrAlreadySynced",
      "type": "error"
    },
    {
      "inputs": [],
      "name": "ErrConflictCondition",
      "type": "error"
    },
    {
      "inputs": [],
      "name": "ErrMismatchSync",
      "type": "error"
    },
    {
      "inputs": [],
      "name": "ErrNoRewardToClaim",
      "type": "error"
    },
    {
      "inputs": [],
      "name": "ErrNotActive",
      "type": "error"
    },
    {
      "inputs": [],
      "name": "ErrUnauthorized",
      "type": "error"
    },
    {
      "inputs": [],
      "name": "ExpectedPause",
      "type": "error"
    },
    {
      "inputs": [],
      "name": "FailedCall",
      "type": "error"
    },
    {
      "inputs": [],
      "name": "InvalidInitialization",
      "type": "error"
    },
    {
      "inputs": [],
      "name": "NotInitializing",
      "type": "error"
    },
    {
      "inputs": [
        {
          "internalType": "address",
          "name": "owner",
          "type": "address"
        }
      ],
      "name": "OwnableInvalidOwner",
      "type": "error"
    },
    {
      "inputs": [
        {
          "internalType": "address",
          "name": "account",
          "type": "address"
        }
      ],
      "name": "OwnableUnauthorizedAccount",
      "type": "error"
    },
    {
      "inputs": [],
      "name": "ReentrancyGuardReentrantCall",
      "type": "error"
    },
    {
      "inputs": [
        {
          "internalType": "address",
          "name": "token",
          "type": "address"
        }
      ],
      "name": "SafeERC20FailedOperation",
      "type": "error"
    },
    {
      "inputs": [],
      "name": "UUPSUnauthorizedCallContext",
      "type": "error"
    },
    {
      "inputs": [
        {
          "internalType": "bytes32",
          "name": "slot",
          "type": "bytes32"
        }
      ],
      "name": "UUPSUnsupportedProxiableUUID",
      "type": "error"
    },
    {
      "anonymous": false,
      "inputs": [
        {
          "indexed": false,
          "internalType": "uint64",
          "name": "version",
          "type": "uint64"
        }
      ],
      "name": "Initialized",
      "type": "event"
    },
    {
      "anonymous": false,
      "inputs": [
        {
          "indexed": true,
          "internalType": "address",
          "name": "previousOwner",
          "type": "address"
        },
        {
          "indexed": true,
          "internalType": "address",
          "name": "newOwner",
          "type": "address"
        }
      ],
      "name": "OwnershipTransferred",
      "type": "event"
    },
    {
      "anonymous": false,
      "inputs": [
        {
          "indexed": false,
          "internalType": "address",
          "name": "account",
          "type": "address"
        }
      ],
      "name": "Paused",
      "type": "event"
    },
    {
      "anonymous": false,
      "inputs": [
        {
          "indexed": false,
          "internalType": "address",
          "name": "account",
          "type": "address"
        }
      ],
      "name": "Unpaused",
      "type": "event"
    },
    {
      "anonymous": false,
      "inputs": [
        {
          "indexed": true,
          "internalType": "address",
          "name": "implementation",
          "type": "address"
        }
      ],
      "name": "Upgraded",
      "type": "event"
    },
    {
      "inputs": [],
      "name": "ACC_REWARD_PRECISION",
      "outputs": [
        {
          "internalType": "uint256",
          "name": "",
          "type": "uint256"
        }
      ],
      "stateMutability": "view",
      "type": "function"
    },
    {
      "inputs": [],
      "name": "UPGRADE_INTERFACE_VERSION",
      "outputs": [
        {
          "internalType": "string",
          "name": "",
          "type": "string"
        }
      ],
      "stateMutability": "view",
      "type": "function"
    },
    {
      "inputs": [
        {
          "internalType": "address",
          "name": "account",
          "type": "address"
        },
        {
          "internalType": "bool",
          "name": "restake",
          "type": "bool"
        }
      ],
      "name": "_claimReward",
      "outputs": [
        {
          "internalType": "uint256",
          "name": "",
          "type": "uint256"
        }
      ],
      "stateMutability": "nonpayable",
      "type": "function"
    },
    {
      "inputs": [
        {
          "internalType": "address",
          "name": "drawer",
          "type": "address"
        },
        {
          "internalType": "uint256",
          "name": "rewardAmount",
          "type": "uint256"
        },
        {
          "internalType": "uint256",
          "name": "startTime",
          "type": "uint256"
        },
        {
          "internalType": "uint256",
          "name": "endTime",
          "type": "uint256"
        }
      ],
      "name": "addReward",
      "outputs": [],
      "stateMutability": "nonpayable",
      "type": "function"
    },
    {
      "inputs": [
        {
          "internalType": "address",
          "name": "account",
          "type": "address"
        },
        {
          "internalType": "bool",
          "name": "restake",
          "type": "bool"
        }
      ],
      "name": "claimReward",
      "outputs": [
        {
          "internalType": "uint256",
          "name": "",
          "type": "uint256"
        }
      ],
      "stateMutability": "nonpayable",
      "type": "function"
    },
    {
      "inputs": [
        {
          "internalType": "address",
          "name": "account",
          "type": "address"
        },
        {
          "internalType": "uint256",
          "name": "stakedAmount",
          "type": "uint256"
        }
      ],
      "name": "deposit",
      "outputs": [],
      "stateMutability": "nonpayable",
      "type": "function"
    },
    {
      "inputs": [
        {
          "internalType": "address",
          "name": "account",
          "type": "address"
        }
      ],
      "name": "getClaimedReward",
      "outputs": [
        {
          "internalType": "uint256",
          "name": "",
          "type": "uint256"
        }
      ],
      "stateMutability": "view",
      "type": "function"
    },
    {
      "inputs": [],
      "name": "getConfig",
      "outputs": [
        {
          "internalType": "address",
          "name": "",
          "type": "address"
        },
        {
          "internalType": "address",
          "name": "",
          "type": "address"
        },
        {
          "internalType": "uint256",
          "name": "",
          "type": "uint256"
        },
        {
          "internalType": "uint256",
          "name": "",
          "type": "uint256"
        },
        {
          "internalType": "uint256",
          "name": "",
          "type": "uint256"
        }
      ],
      "stateMutability": "view",
      "type": "function"
    },
    {
      "inputs": [],
      "name": "getCurrentCondition",
      "outputs": [
        {
          "components": [
            {
              "internalType": "uint256",
              "name": "startTime",
              "type": "uint256"
            },
            {
              "internalType": "uint256",
              "name": "endTime",
              "type": "uint256"
            },
            {
              "internalType": "uint256",
              "name": "rewardAmount",
              "type": "uint256"
            },
            {
              "internalType": "uint256",
              "name": "rewardIndex",
              "type": "uint256"
            }
          ],
          "internalType": "struct veLikeRewardNoLock.StakingCondition",
          "name": "",
          "type": "tuple"
        }
      ],
      "stateMutability": "view",
      "type": "function"
    },
    {
      "inputs": [],
      "name": "getLastRewardTime",
      "outputs": [
        {
          "internalType": "uint256",
          "name": "",
          "type": "uint256"
        }
      ],
      "stateMutability": "view",
      "type": "function"
    },
    {
      "inputs": [
        {
          "internalType": "address",
          "name": "account",
          "type": "address"
        }
      ],
      "name": "getPendingReward",
      "outputs": [
        {
          "internalType": "uint256",
          "name": "",
          "type": "uint256"
        }
      ],
      "stateMutability": "view",
      "type": "function"
    },
    {
      "inputs": [],
      "name": "getRewardPool",
      "outputs": [
        {
          "internalType": "uint256",
          "name": "",
          "type": "uint256"
        }
      ],
      "stateMutability": "view",
      "type": "function"
    },
    {
      "inputs": [],
      "name": "initTotalStaked",
      "outputs": [],
      "stateMutability": "nonpayable",
      "type": "function"
    },
    {
      "inputs": [
        {
          "internalType": "address",
          "name": "initialOwner",
          "type": "address"
        }
      ],
      "name": "initialize",
      "outputs": [],
      "stateMutability": "nonpayable",
      "type": "function"
    },
    {
      "inputs": [],
      "name": "owner",
      "outputs": [
        {
          "internalType": "address",
          "name": "",
          "type": "address"
        }
      ],
      "stateMutability": "view",
      "type": "function"
    },
    {
      "inputs": [],
      "name": "pause",
      "outputs": [],
      "stateMutability": "nonpayable",
      "type": "function"
    },
    {
      "inputs": [],
      "name": "paused",
      "outputs": [
        {
          "internalType": "bool",
          "name": "",
          "type": "bool"
        }
      ],
      "stateMutability": "view",
      "type": "function"
    },
    {
      "inputs": [],
      "name": "proxiableUUID",
      "outputs": [
        {
          "internalType": "bytes32",
          "name": "",
          "type": "bytes32"
        }
      ],
      "stateMutability": "view",
      "type": "function"
    },
    {
      "inputs": [],
      "name": "renounceOwnership",
      "outputs": [],
      "stateMutability": "nonpayable",
      "type": "function"
    },
    {
      "inputs": [
        {
          "internalType": "address",
          "name": "likecoin",
          "type": "address"
        }
      ],
      "name": "setLikecoin",
      "outputs": [],
      "stateMutability": "nonpayable",
      "type": "function"
    },
    {
      "inputs": [
        {
          "internalType": "address",
          "name": "vault",
          "type": "address"
        }
      ],
      "name": "setVault",
      "outputs": [],
      "stateMutability": "nonpayable",
      "type": "function"
    },
    {
      "inputs": [
        {
          "internalType": "address[]",
          "name": "accounts",
          "type": "address[]"
        }
      ],
      "name": "syncStakers",
      "outputs": [],
      "stateMutability": "nonpayable",
      "type": "function"
    },
    {
      "inputs": [
        {
          "internalType": "address",
          "name": "newOwner",
          "type": "address"
        }
      ],
      "name": "transferOwnership",
      "outputs": [],
      "stateMutability": "nonpayable",
      "type": "function"
    },
    {
      "inputs": [],
      "name": "unpause",
      "outputs": [],
      "stateMutability": "nonpayable",
      "type": "function"
    },
    {
      "inputs": [
        {
          "internalType": "address",
          "name": "newImplementation",
          "type": "address"
        },
        {
          "internalType": "bytes",
          "name": "data",
          "type": "bytes"
        }
      ],
      "name": "upgradeToAndCall",
      "outputs": [],
      "stateMutability": "payable",
      "type": "function"
    },
    {
      "inputs": [
        {
          "internalType": "address",
          "name": "account",
          "type": "address"
        },
        {
          "internalType": "uint256",
          "name": "amount",
          "type": "uint256"
        }
      ],
      "name": "withdraw",
      "outputs": [],
      "stateMutability": "nonpayable",
      "type": "function"
    }
  ],
  "bytecode": "0x60a06040523073ffffffffffffffffffffffffffffffffffffffff1660809073ffffffffffffffffffffffffffffffffffffffff1681525034801561004357600080fd5b5061005261005760201b60201c565b6101de565b600061006761015b60201b60201c565b90508060000160089054906101000a900460ff16156100b2576040517ff92ee8a900000000000000000000000000000000000000000000000000000000815260040160405180910390fd5b67ffffffffffffffff80168160000160009054906101000a900467ffffffffffffffff1667ffffffffffffffff16146101585767ffffffffffffffff8160000160006101000a81548167ffffffffffffffff021916908367ffffffffffffffff1602179055507fc7f505b2f371ae2175ee4913f4499e1f2633a7b5936321eed1cdaeb6115181d267ffffffffffffffff60405161014f91906101c3565b60405180910390a15b50565b60008061016c61017560201b60201c565b90508091505090565b60007ff0c57e16840df040f15088dc2f81fe391c3923bec73e23a9662efc9c229c6a0060001b905090565b600067ffffffffffffffff82169050919050565b6101bd816101a0565b82525050565b60006020820190506101d860008301846101b4565b92915050565b6080516131df61020760003960008181611d3201528181611d870152611f4201526131df6000f3fe6080604052600436106101815760003560e01c8063715018a6116100d1578063ba2311d71161008a578063d1c6a23111610064578063d1c6a2311461052d578063f2fde38b14610558578063f3fef3a314610581578063f5694451146105aa57610181565b8063ba2311d714610498578063c3f909d4146104d5578063c4d66de81461050457610181565b8063715018a6146103ae57806372a3ae9d146103c55780638456cb59146103ee5780638da5cb5b14610405578063ad3cb1cc14610430578063aeb51b371461045b57610181565b80634df9d6ba1161013e5780635c975abb116101185780635c975abb14610306578063650d6425146103315780636817031b1461035c57806370dc5ca51461038557610181565b80634df9d6ba146102825780634f1ef286146102bf57806352d1902d146102db57610181565b80631359e6f71461018657806315b332d3146101c35780631b8b13a7146101ec5780633e340dae146102175780633f4ba83a1461024257806347e7ef2414610259575b600080fd5b34801561019257600080fd5b506101ad60048036038101906101a8919061283b565b6105c1565b6040516101ba9190612881565b60405180910390f35b3480156101cf57600080fd5b506101ea60048036038101906101e59190612901565b61064a565b005b3480156101f857600080fd5b50610201610857565b60405161020e9190612881565b60405180910390f35b34801561022357600080fd5b5061022c61086f565b6040516102399190612881565b60405180910390f35b34801561024e57600080fd5b50610257610887565b005b34801561026557600080fd5b50610280600480360381019061027b919061297a565b610899565b005b34801561028e57600080fd5b506102a960048036038101906102a4919061283b565b6109e2565b6040516102b69190612881565b60405180910390f35b6102d960048036038101906102d49190612afb565b610b13565b005b3480156102e757600080fd5b506102f0610b32565b6040516102fd9190612b70565b60405180910390f35b34801561031257600080fd5b5061031b610b65565b6040516103289190612ba6565b60405180910390f35b34801561033d57600080fd5b50610346610b8a565b6040516103539190612c25565b60405180910390f35b34801561036857600080fd5b50610383600480360381019061037e919061283b565b610bdb565b005b34801561039157600080fd5b506103ac60048036038101906103a79190612c40565b610c36565b005b3480156103ba57600080fd5b506103c3610df9565b005b3480156103d157600080fd5b506103ec60048036038101906103e7919061283b565b610e0d565b005b3480156103fa57600080fd5b50610403610e68565b005b34801561041157600080fd5b5061041a610e7a565b6040516104279190612cb6565b60405180910390f35b34801561043c57600080fd5b50610445610eb2565b6040516104529190612d50565b60405180910390f35b34801561046757600080fd5b50610482600480360381019061047d9190612d9e565b610eeb565b60405161048f9190612881565b60405180910390f35b3480156104a457600080fd5b506104bf60048036038101906104ba9190612d9e565b610ff5565b6040516104cc9190612881565b60405180910390f35b3480156104e157600080fd5b506104ea6111f6565b6040516104fb959493929190612dde565b60405180910390f35b34801561051057600080fd5b5061052b6004803603810190610526919061283b565b611274565b005b34801561053957600080fd5b5061054261141b565b60405161054f9190612881565b60405180910390f35b34801561056457600080fd5b5061057f600480360381019061057a919061283b565b611427565b005b34801561058d57600080fd5b506105a860048036038101906105a3919061297a565b6114ad565b005b3480156105b657600080fd5b506105bf6115f6565b005b6000806105cc611717565b905060008160090160008573ffffffffffffffffffffffffffffffffffffffff1673ffffffffffffffffffffffffffffffffffffffff16815260200190815260200160002060405180606001604052908160008201548152602001600182015481526020016002820154815250509050806040015192505050919050565b61065261173f565b61065a6117c6565b610690576040517f0d28580b00000000000000000000000000000000000000000000000000000000815260040160405180910390fd5b600061069a611717565b905060005b838390508110156108515760008484838181106106bf576106be612e31565b5b90506020020160208101906106d4919061283b565b905060008360000160009054906101000a900473ffffffffffffffffffffffffffffffffffffffff1673ffffffffffffffffffffffffffffffffffffffff166370a08231836040518263ffffffff1660e01b81526004016107359190612cb6565b602060405180830381865afa158015610752573d6000803e3d6000fd5b505050506040513d601f19601f820116820180604052508101906107769190612e75565b905060008460090160008473ffffffffffffffffffffffffffffffffffffffff1673ffffffffffffffffffffffffffffffffffffffff168152602001908152602001600020905060008160000154146108385781816000015403610806576040517f1e0908f000000000000000000000000000000000000000000000000000000000815260040160405180910390fd5b6040517f0eb03fb200000000000000000000000000000000000000000000000000000000815260040160405180910390fd5b818160000181905550505050808060010191505061069f565b50505050565b600080610862611717565b9050806002015491505090565b60008061087a611717565b9050806004015491505090565b61088f61173f565b610897611806565b565b6108a1611878565b60006108ab611717565b90508060000160009054906101000a900473ffffffffffffffffffffffffffffffffffffffff1673ffffffffffffffffffffffffffffffffffffffff166108f06118b9565b73ffffffffffffffffffffffffffffffffffffffff161461093d576040517fcc12cef600000000000000000000000000000000000000000000000000000000815260040160405180910390fd5b6000610947611717565b9050610952846118c1565b61095a611a03565b610965846000610ff5565b50828160090160008673ffffffffffffffffffffffffffffffffffffffff1673ffffffffffffffffffffffffffffffffffffffff16815260200190815260200160002060000160008282546109ba9190612ed1565b92505081905550828160030160008282546109d59190612ed1565b9250508190555050505050565b6000806109ed611717565b905060006109fa84611aff565b90506000610a0785611bc6565b90506000811480610a1c575060008360030154145b80610a3557508260050160000154836005016001015411155b15610a4557819350505050610b0e565b60004290508360050160010154811115610a6457836005016001015490505b6000846004015482610a769190612f05565b90506000610ab986600501604051806080016040529081600082015481526020016001820154815260200160028201548152602001600382015481525050611cf1565b82610ac49190612f39565b90506000670de0b6b3a76400008760030154610ae09190612f39565b8583610aec9190612f39565b610af69190612faa565b90508086610b049190612ed1565b9750505050505050505b919050565b610b1b611d30565b610b2482611e16565b610b2e8282611e21565b5050565b6000610b3c611f40565b7f360894a13ba1a3210667c828492db98dca3e2076cc3735a920a3ca505d382bbc60001b905090565b600080610b70611fc7565b90508060000160009054906101000a900460ff1691505090565b610b926127a1565b6000610b9c611717565b90508060050160405180608001604052908160008201548152602001600182015481526020016002820154815260200160038201548152505091505090565b610be361173f565b6000610bed611717565b9050818160000160006101000a81548173ffffffffffffffffffffffffffffffffffffffff021916908373ffffffffffffffffffffffffffffffffffffffff1602179055505050565b610c3e61173f565b610c466117c6565b15610c7d576040517fff31bc8f00000000000000000000000000000000000000000000000000000000815260040160405180910390fd5b6000610c87611717565b905080600401548311610cc6576040517fff31bc8f00000000000000000000000000000000000000000000000000000000815260040160405180910390fd5b82821015610d00576040517fff31bc8f00000000000000000000000000000000000000000000000000000000815260040160405180910390fd5b42821015610d3a576040517fff31bc8f00000000000000000000000000000000000000000000000000000000815260040160405180910390fd5b8281600401819055508481600a0160006101000a81548173ffffffffffffffffffffffffffffffffffffffff021916908373ffffffffffffffffffffffffffffffffffffffff16021790555083816002016000828254610d9a9190612ed1565b925050819055506040518060800160405280848152602001838152602001858152602001600081525081600501600082015181600001556020820151816001015560408201518160020155606082015181600301559050505050505050565b610e0161173f565b610e0b6000611fef565b565b610e1561173f565b6000610e1f611717565b9050818160010160006101000a81548173ffffffffffffffffffffffffffffffffffffffff021916908373ffffffffffffffffffffffffffffffffffffffff1602179055505050565b610e7061173f565b610e786120c6565b565b600080610e85612138565b90508060000160009054906101000a900473ffffffffffffffffffffffffffffffffffffffff1691505090565b6040518060400160405280600581526020017f352e302e3000000000000000000000000000000000000000000000000000000081525081565b6000610ef5611878565b6000610eff611717565b90508060000160009054906101000a900473ffffffffffffffffffffffffffffffffffffffff1673ffffffffffffffffffffffffffffffffffffffff16610f446118b9565b73ffffffffffffffffffffffffffffffffffffffff1614610f91576040517fcc12cef600000000000000000000000000000000000000000000000000000000815260040160405180910390fd5b610f9a846118c1565b6000610fa5856109e2565b905060008103610fe1576040517f1e09881a00000000000000000000000000000000000000000000000000000000815260040160405180910390fd5b610feb8585610ff5565b9250505092915050565b600080611000611717565b90508060000160009054906101000a900473ffffffffffffffffffffffffffffffffffffffff1673ffffffffffffffffffffffffffffffffffffffff166110456118b9565b73ffffffffffffffffffffffffffffffffffffffff1614611092576040517fcc12cef600000000000000000000000000000000000000000000000000000000815260040160405180910390fd5b600061109c611717565b905060008160090160008773ffffffffffffffffffffffffffffffffffffffff1673ffffffffffffffffffffffffffffffffffffffff16815260200190815260200160002090506110eb611a03565b60006110f687611aff565b90508082600201600082825461110c9190612ed1565b9250508190555082600501600301548260010181905550808360020160008282546111379190612f05565b925050819055506000810361115257600094505050506111ef565b8515611193578082600001600082825461116c9190612ed1565b92505081905550808360030160008282546111879190612ed1565b925050819055506111e8565b6111e78360010160009054906101000a900473ffffffffffffffffffffffffffffffffffffffff1684600a0160009054906101000a900473ffffffffffffffffffffffffffffffffffffffff168984612160565b5b8094505050505b5092915050565b600080600080600080611207611717565b90508060000160009054906101000a900473ffffffffffffffffffffffffffffffffffffffff168160010160009054906101000a900473ffffffffffffffffffffffffffffffffffffffff1682600201548360030154846004015495509550955095509550509091929394565b600061127e6121e2565b905060008160000160089054906101000a900460ff1615905060008260000160009054906101000a900467ffffffffffffffff1690506000808267ffffffffffffffff161480156112cc5750825b9050600060018367ffffffffffffffff16148015611301575060003073ffffffffffffffffffffffffffffffffffffffff163b145b90508115801561130f575080155b15611346576040517ff92ee8a900000000000000000000000000000000000000000000000000000000815260040160405180910390fd5b60018560000160006101000a81548167ffffffffffffffff021916908367ffffffffffffffff16021790555083156113965760018560000160086101000a81548160ff0219169083151502179055505b61139e6121f6565b6113a6612200565b6113af86612212565b6113b7612226565b83156114135760008560000160086101000a81548160ff0219169083151502179055507fc7f505b2f371ae2175ee4913f4499e1f2633a7b5936321eed1cdaeb6115181d2600160405161140a9190613034565b60405180910390a15b505050505050565b670de0b6b3a764000081565b61142f61173f565b600073ffffffffffffffffffffffffffffffffffffffff168173ffffffffffffffffffffffffffffffffffffffff16036114a15760006040517f1e4fbdf70000000000000000000000000000000000000000000000000000000081526004016114989190612cb6565b60405180910390fd5b6114aa81611fef565b50565b6114b5611878565b60006114bf611717565b90508060000160009054906101000a900473ffffffffffffffffffffffffffffffffffffffff1673ffffffffffffffffffffffffffffffffffffffff166115046118b9565b73ffffffffffffffffffffffffffffffffffffffff1614611551576040517fcc12cef600000000000000000000000000000000000000000000000000000000815260040160405180910390fd5b600061155b611717565b9050611566846118c1565b61156e611a03565b611579846000610ff5565b508281600301600082825461158e9190612f05565b92505081905550828160090160008673ffffffffffffffffffffffffffffffffffffffff1673ffffffffffffffffffffffffffffffffffffffff16815260200190815260200160002060000160008282546115e99190612f05565b9250508190555050505050565b6115fe61173f565b6000611608611717565b905080600a0160149054906101000a900460ff161561165c576040517f08c379a00000000000000000000000000000000000000000000000000000000081526004016116539061309b565b60405180910390fd5b8060000160009054906101000a900473ffffffffffffffffffffffffffffffffffffffff1673ffffffffffffffffffffffffffffffffffffffff166318160ddd6040518163ffffffff1660e01b8152600401602060405180830381865afa1580156116cb573d6000803e3d6000fd5b505050506040513d601f19601f820116820180604052508101906116ef9190612e75565b8160030181905550600181600a0160146101000a81548160ff02191690831515021790555050565b60007fe9672d2c676bb94d428d6ce523668c779079df8febe4142a9972a2a2313d2c00905090565b6117476118b9565b73ffffffffffffffffffffffffffffffffffffffff16611765610e7a565b73ffffffffffffffffffffffffffffffffffffffff16146117c4576117886118b9565b6040517f118cdaa70000000000000000000000000000000000000000000000000000000081526004016117bb9190612cb6565b60405180910390fd5b565b6000806117d1611717565b905080600501600001544210806117ee5750806005016001015442115b156117fd576000915050611803565b60019150505b90565b61180e612230565b6000611818611fc7565b905060008160000160006101000a81548160ff0219169083151502179055507f5db9ee0a495bf2e6ff9c91a7834c1ba4fdd244a5e8aa4e537bd38aeae4b073aa6118606118b9565b60405161186d9190612cb6565b60405180910390a150565b611880610b65565b156118b7576040517fd93c066500000000000000000000000000000000000000000000000000000000815260040160405180910390fd5b565b600033905090565b60006118cb611717565b905080600a0160149054906101000a900460ff166118e95750611a00565b60008160090160008473ffffffffffffffffffffffffffffffffffffffff1673ffffffffffffffffffffffffffffffffffffffff16815260200190815260200160002090506000816000015414611941575050611a00565b60008260000160009054906101000a900473ffffffffffffffffffffffffffffffffffffffff1673ffffffffffffffffffffffffffffffffffffffff166370a08231856040518263ffffffff1660e01b81526004016119a09190612cb6565b602060405180830381865afa1580156119bd573d6000803e3d6000fd5b505050506040513d601f19601f820116820180604052508101906119e19190612e75565b9050600081036119f357505050611a00565b8082600001819055505050505b50565b6000611a0d611717565b9050600081600501905060004290508160000154811015611a3057816000015490505b8160010154811115611a4457816001015490505b82600401548103611a5757505050611afd565b600083600301541115611af9576000836004015482611a769190612f05565b90506000611ab684604051806080016040529081600082015481526020016001820154815260200160028201548152602001600382015481525050611cf1565b82611ac19190612f39565b9050846003015481611ad39190612faa565b846003016000828254611ae69190612ed1565b9250508190555082856004018190555050505b5050505b565b600080611b0a611717565b905060008160090160008573ffffffffffffffffffffffffffffffffffffffff1673ffffffffffffffffffffffffffffffffffffffff168152602001908152602001600020604051806060016040529081600082015481526020016001820154815260200160028201548152505090506000611b8585611bc6565b9050670de0b6b3a764000082602001518460050160030154611ba79190612f05565b82611bb29190612f39565b611bbc9190612faa565b9350505050919050565b600080611bd1611717565b905060008160090160008573ffffffffffffffffffffffffffffffffffffffff1673ffffffffffffffffffffffffffffffffffffffff168152602001908152602001600020600001549050600081148015611c3a575081600a0160149054906101000a900460ff165b15611ce6578160000160009054906101000a900473ffffffffffffffffffffffffffffffffffffffff1673ffffffffffffffffffffffffffffffffffffffff166370a08231856040518263ffffffff1660e01b8152600401611c9c9190612cb6565b602060405180830381865afa158015611cb9573d6000803e3d6000fd5b505050506040513d601f19601f82011682018060405250810190611cdd9190612e75565b92505050611cec565b80925050505b919050565b600081600001518260200151611d079190612f05565b8260400151670de0b6b3a7640000611d1f9190612f39565b611d299190612faa565b9050919050565b7f000000000000000000000000000000000000000000000000000000000000000073ffffffffffffffffffffffffffffffffffffffff163073ffffffffffffffffffffffffffffffffffffffff161480611ddd57507f000000000000000000000000000000000000000000000000000000000000000073ffffffffffffffffffffffffffffffffffffffff16611dc4612270565b73ffffffffffffffffffffffffffffffffffffffff1614155b15611e14576040517fe07c8dba00000000000000000000000000000000000000000000000000000000815260040160405180910390fd5b565b611e1e61173f565b50565b8173ffffffffffffffffffffffffffffffffffffffff166352d1902d6040518163ffffffff1660e01b8152600401602060405180830381865afa925050508015611e8957506040513d601f19601f82011682018060405250810190611e8691906130e7565b60015b611eca57816040517f4c9c8ce3000000000000000000000000000000000000000000000000000000008152600401611ec19190612cb6565b60405180910390fd5b7f360894a13ba1a3210667c828492db98dca3e2076cc3735a920a3ca505d382bbc60001b8114611f3157806040517faa1d49a4000000000000000000000000000000000000000000000000000000008152600401611f289190612b70565b60405180910390fd5b611f3b83836122c7565b505050565b7f000000000000000000000000000000000000000000000000000000000000000073ffffffffffffffffffffffffffffffffffffffff163073ffffffffffffffffffffffffffffffffffffffff1614611fc5576040517fe07c8dba00000000000000000000000000000000000000000000000000000000815260040160405180910390fd5b565b60007fcd5ed15c6e187e77e9aee88184c21f4f2182ab5827cb3b7e07fbedcd63f03300905090565b6000611ff9612138565b905060008160000160009054906101000a900473ffffffffffffffffffffffffffffffffffffffff169050828260000160006101000a81548173ffffffffffffffffffffffffffffffffffffffff021916908373ffffffffffffffffffffffffffffffffffffffff1602179055508273ffffffffffffffffffffffffffffffffffffffff168173ffffffffffffffffffffffffffffffffffffffff167f8be0079c531659141344cd1fd0a4f28419497f9722a3daafe3b4186f6b6457e060405160405180910390a3505050565b6120ce611878565b60006120d8611fc7565b905060018160000160006101000a81548160ff0219169083151502179055507f62e78cea01bee320cd4e420270b5ea74000d11b0c9f74754ebdbfc544b05a2586121206118b9565b60405161212d9190612cb6565b60405180910390a150565b60007f9016d09d72d40fdae2fd8ceac6b6234c7706214fd39c1cd1e609a0528c199300905090565b6121dc848573ffffffffffffffffffffffffffffffffffffffff166323b872dd86868660405160240161219593929190613114565b604051602081830303815290604052915060e01b6020820180517bffffffffffffffffffffffffffffffffffffffffffffffffffffffff838183161783525050505061233a565b50505050565b6000806121ed6123dc565b90508091505090565b6121fe612407565b565b612208612407565b612210612447565b565b61221a612407565b61222381612468565b50565b61222e612407565b565b612238610b65565b61226e576040517f8dfc202b00000000000000000000000000000000000000000000000000000000815260040160405180910390fd5b565b600061229e7f360894a13ba1a3210667c828492db98dca3e2076cc3735a920a3ca505d382bbc60001b6124ee565b60000160009054906101000a900473ffffffffffffffffffffffffffffffffffffffff16905090565b6122d0826124f8565b8173ffffffffffffffffffffffffffffffffffffffff167fbc7cd75a20ee27fd9adebab32041f755214dbc6bffa90cc0225b39da2e5c2d3b60405160405180910390a260008151111561232d5761232782826125c5565b50612336565b612335612649565b5b5050565b600080602060008451602086016000885af18061235d576040513d6000823e3d81fd5b3d925060005191505060008214612378576001811415612394565b60008473ffffffffffffffffffffffffffffffffffffffff163b145b156123d657836040517f5274afe70000000000000000000000000000000000000000000000000000000081526004016123cd9190612cb6565b60405180910390fd5b50505050565b60007ff0c57e16840df040f15088dc2f81fe391c3923bec73e23a9662efc9c229c6a0060001b905090565b61240f612686565b612445576040517fd7e6bcf800000000000000000000000000000000000000000000000000000000815260040160405180910390fd5b565b61244f612407565b60006124596126a6565b90506001816000018190555050565b612470612407565b600073ffffffffffffffffffffffffffffffffffffffff168173ffffffffffffffffffffffffffffffffffffffff16036124e25760006040517f1e4fbdf70000000000000000000000000000000000000000000000000000000081526004016124d99190612cb6565b60405180910390fd5b6124eb81611fef565b50565b6000819050919050565b60008173ffffffffffffffffffffffffffffffffffffffff163b0361255457806040517f4c9c8ce300000000000000000000000000000000000000000000000000000000815260040161254b9190612cb6565b60405180910390fd5b806125817f360894a13ba1a3210667c828492db98dca3e2076cc3735a920a3ca505d382bbc60001b6124ee565b60000160006101000a81548173ffffffffffffffffffffffffffffffffffffffff021916908373ffffffffffffffffffffffffffffffffffffffff16021790555050565b60606000808473ffffffffffffffffffffffffffffffffffffffff16846040516125ef9190613192565b600060405180830381855af49150503d806000811461262a576040519150601f19603f3d011682016040523d82523d6000602084013e61262f565b606091505b509150915061263f8583836126ce565b9250505092915050565b6000341115612684576040517fb398979f00000000000000000000000000000000000000000000000000000000815260040160405180910390fd5b565b60006126906121e2565b60000160089054906101000a900460ff16905090565b60007f9b779b17422d0df92223018b32b4d1fa46e071723d6817e2486d003becc55f00905090565b6060826126e3576126de8261275d565b612755565b6000825114801561270b575060008473ffffffffffffffffffffffffffffffffffffffff163b145b1561274d57836040517f9996b3150000000000000000000000000000000000000000000000000000000081526004016127449190612cb6565b60405180910390fd5b819050612756565b5b9392505050565b60008151111561276f57805160208201fd5b6040517fd6bda27500000000000000000000000000000000000000000000000000000000815260040160405180910390fd5b6040518060800160405280600081526020016000815260200160008152602001600081525090565b6000604051905090565b600080fd5b600080fd5b600073ffffffffffffffffffffffffffffffffffffffff82169050919050565b6000612808826127dd565b9050919050565b612818816127fd565b811461282357600080fd5b50565b6000813590506128358161280f565b92915050565b600060208284031215612851576128506127d3565b5b600061285f84828501612826565b91505092915050565b6000819050919050565b61287b81612868565b82525050565b60006020820190506128966000830184612872565b92915050565b600080fd5b600080fd5b600080fd5b60008083601f8401126128c1576128c061289c565b5b8235905067ffffffffffffffff8111156128de576128dd6128a1565b5b6020830191508360208202830111156128fa576128f96128a6565b5b9250929050565b60008060208385031215612918576129176127d3565b5b600083013567ffffffffffffffff811115612936576129356127d8565b5b612942858286016128ab565b92509250509250929050565b61295781612868565b811461296257600080fd5b50565b6000813590506129748161294e565b92915050565b60008060408385031215612991576129906127d3565b5b600061299f85828601612826565b92505060206129b085828601612965565b9150509250929050565b600080fd5b6000601f19601f8301169050919050565b7f4e487b7100000000000000000000000000000000000000000000000000000000600052604160045260246000fd5b612a08826129bf565b810181811067ffffffffffffffff82111715612a2757612a266129d0565b5b80604052505050565b6000612a3a6127c9565b9050612a4682826129ff565b919050565b600067ffffffffffffffff821115612a6657612a656129d0565b5b612a6f826129bf565b9050602081019050919050565b82818337600083830152505050565b6000612a9e612a9984612a4b565b612a30565b905082815260208101848484011115612aba57612ab96129ba565b5b612ac5848285612a7c565b509392505050565b600082601f830112612ae257612ae161289c565b5b8135612af2848260208601612a8b565b91505092915050565b60008060408385031215612b1257612b116127d3565b5b6000612b2085828601612826565b925050602083013567ffffffffffffffff811115612b4157612b406127d8565b5b612b4d85828601612acd565b9150509250929050565b6000819050919050565b612b6a81612b57565b82525050565b6000602082019050612b856000830184612b61565b92915050565b60008115159050919050565b612ba081612b8b565b82525050565b6000602082019050612bbb6000830184612b97565b92915050565b612bca81612868565b82525050565b608082016000820151612be66000850182612bc1565b506020820151612bf96020850182612bc1565b506040820151612c0c6040850182612bc1565b506060820151612c1f6060850182612bc1565b50505050565b6000608082019050612c3a6000830184612bd0565b92915050565b60008060008060808587031215612c5a57612c596127d3565b5b6000612c6887828801612826565b9450506020612c7987828801612965565b9350506040612c8a87828801612965565b9250506060612c9b87828801612965565b91505092959194509250565b612cb0816127fd565b82525050565b6000602082019050612ccb6000830184612ca7565b92915050565b600081519050919050565b600082825260208201905092915050565b60005b83811015612d0b578082015181840152602081019050612cf0565b60008484015250505050565b6000612d2282612cd1565b612d2c8185612cdc565b9350612d3c818560208601612ced565b612d45816129bf565b840191505092915050565b60006020820190508181036000830152612d6a8184612d17565b905092915050565b612d7b81612b8b565b8114612d8657600080fd5b50565b600081359050612d9881612d72565b92915050565b60008060408385031215612db557612db46127d3565b5b6000612dc385828601612826565b9250506020612dd485828601612d89565b9150509250929050565b600060a082019050612df36000830188612ca7565b612e006020830187612ca7565b612e0d6040830186612872565b612e1a6060830185612872565b612e276080830184612872565b9695505050505050565b7f4e487b7100000000000000000000000000000000000000000000000000000000600052603260045260246000fd5b600081519050612e6f8161294e565b92915050565b600060208284031215612e8b57612e8a6127d3565b5b6000612e9984828501612e60565b91505092915050565b7f4e487b7100000000000000000000000000000000000000000000000000000000600052601160045260246000fd5b6000612edc82612868565b9150612ee783612868565b9250828201905080821115612eff57612efe612ea2565b5b92915050565b6000612f1082612868565b9150612f1b83612868565b9250828203905081811115612f3357612f32612ea2565b5b92915050565b6000612f4482612868565b9150612f4f83612868565b9250828202612f5d81612868565b91508282048414831517612f7457612f73612ea2565b5b5092915050565b7f4e487b7100000000000000000000000000000000000000000000000000000000600052601260045260246000fd5b6000612fb582612868565b9150612fc083612868565b925082612fd057612fcf612f7b565b5b828204905092915050565b6000819050919050565b600067ffffffffffffffff82169050919050565b6000819050919050565b600061301e61301961301484612fdb565b612ff9565b612fe5565b9050919050565b61302e81613003565b82525050565b60006020820190506130496000830184613025565b92915050565b7f416c726561647920696e697469616c697a656400000000000000000000000000600082015250565b6000613085601383612cdc565b91506130908261304f565b602082019050919050565b600060208201905081810360008301526130b481613078565b9050919050565b6130c481612b57565b81146130cf57600080fd5b50565b6000815190506130e1816130bb565b92915050565b6000602082840312156130fd576130fc6127d3565b5b600061310b848285016130d2565b91505092915050565b60006060820190506131296000830186612ca7565b6131366020830185612ca7565b6131436040830184612872565b949350505050565b600081519050919050565b600081905092915050565b600061316c8261314b565b6131768185613156565b9350613186818560208601612ced565b80840191505092915050565b600061319e8284613161565b91508190509291505056fea2646970667358221220e63f3ba9673097feedbab86bb118da1f245ac5c0654b23632ed00774b9de76b164736f6c634300081c0033",
  "linkReferences": {},
  "deployedLinkReferences": {}
}